S02B000062745F736F635F656E657267795F68617276657374696E675F6170706C69636174696F6E5F6F627341
S214000000C00A00204D0A00009F9801009F9801003A
S214000010EBB001009F9801009F9801009F98010097
S2140000209F9801009F9801009F9801009F980100EB
S2140000309F9801009F98010099B101009F980100C8
S2140000409F9801009F9801009F9801009F980100CB
S2140000509F9801009F9801009F9801009F980100BB
S2140000609F9801009F9801009F9801009F980100AB
S214000070E55500009F9801009F980100390900008F
S214000080FF9701009F9801009F9801009F9801002C
S2140000909F980100751200009F9801009F9801002C
S2140000A09F980100810E0000610E00009F980100DD
S2140000B09F980100855801009F980100DD620100AD
S2140000C0DD280200D9280200B95A0100F3280200F0
S2140000D0E1280200AD620100E52802001D63010070
S2140000E0F1380100B53A0100896301009F980100CC
S2140000F09F9801009F9801009F9801009F9801001B
S2140001009F9801009F9801009F9801009F9801000A
S2140001109F9801009F9801009F9801009F980100FA
S2140001209F9801009F9801009F9801009F980100EA
S2140001309F9801009F9801009F9801009F980100DA
S21400014082B030BF074BD3F8F030DB0704D500236E
S2140001500193019B052B01DD02B07047019B013323
S214000160F6E700BF00ED00E0F0B5114A114C124E64
S21400017000F00105E3695F0713D40DB9334213D1CC
S21400018003EA00078F4207D10B4A1A40002A0CBF29
S21400019000206FF00100F0BD013AEBD16FF00200D5
S2140001A0F9E74FF0FF30F6E76FF00100F3E700BF26
S2140001B08096980000000350020001000B4B70B5BB
S2140001C0D96911F480310DD101244FF48072084EA4
S2140001D0084DF46020462C641A61FFF7C5FF3464AE
S2140001E0EC6070BD6FF00100FBE700BF000003503D
S2140001F000100350002003504FF4003238B50F4B68
S2140002000F4C9A6641F671330122E569E3630D4BA4
S2140002100021DA60022360612120236105F4803525
S214000220FFF7A2FF10B92120FFF79EFF0122064B21
S214000230DA600DB10023E36338BD00BF00900050C4
S21400024000000350001003500020035070B5134CFC
S2140002506061E3695B071ED40E4656F8043B8D18B2
S214000260A361AE420BD10423002121202361FFF7B6
S2140002707BFF58B9BDE870402120FFF775BF082105
S2140002800846FFF771FF10B10423236170BD56F8CE
S214000290043BA361E5E74FF0FF30F7E700000350AB
S2140002A02DE9F84315464FF40032184B89469A66F6
S2140002B041F6713203F51C33DF69DA630122064624
S2140002C003F58053DFF84C8007F48037DA6055B9C1
S2140002D0284601220E4BDA601FB10022A3F5005318
S2140002E0DA63BDE8F88306F5005404EA0804A41BA4
S2140002F0AC4228BF2C46494622463046FFF7A6FFAA
S2140003000028E6D12644A1442D1BE0E700900050CB
S2140003100020035000E0FFFF000000000000000087
S21400032007B588B10BA3D3E900230949C1E9022325
S214000330CDE900234FF0FF324FF0FF33086921F07C
S2140003409DFC03B05DF804FB00220023EDE700BF30
S214000350480B00200DD50155200000000348044B33
S214000360834202D0034B03B118477047502C00203D
S214000370502C002000000000064B0749C91A8910BF
S21400038048BF0131491003D0044B0BB10148184750
S214000390704700BF502C0020502C002000000000AA
S2140003A010B5064C237843B9FFF7D8FF044B13B1BA
S2140003B00448AFF300800123237010BD54270020AB
S2140003C000000000109E020008B5054B1BB1054951
S2140003D00548AFF30080BDE80840FFF7CDBF00BF7B
S2140003E000000000A00D0020109E0200A3F5803A39
S2140003F0704700BF174B002B08BF134B9D46FFF7F7
S214000400F5FF00218B460F461348144A121A22F0B5
S21400041011FB0E4B002B00D098470D4B002B00D045
S21400042098470020002104000D000D48002802D047
S2140004300C48AFF3008016F075FB2000290019F079
S21400044074F916F0B5F900BF0000080000000000BF
S21400045000000000C00A0020C00A0020602800201B
S21400046000000000000000000122014B1A707047D7
S214000470242C002008B519F0C4F919F0C3F9034B71
S21400048003491868BDE808401AF0B5B8C40E002045
S214000490D05802002DE9F04F0368AC4A23F47F439E
S2140004A023F00703934204468DB006D002F580225F
S2140004B0934271D00DB0BDE8F08FA54C00222346C4
S2140004C0012144F265000EF0FBFD2378A14863B3DA
S2140004D019F023FA0422002011460EF01BFE9E4C53
S2140004E0054628B39D4920681AF085F89C4920687F
S2140004F01AF081F819F085F919F084F9994B9A4A9F
S21400050000939A49782320681AF075F898492B4684
S214000510984A20681AF06FF8284600F045FA96497F
S21400052020681AF068F800BEFDE719F0F9F9D1E77F
S214000530022101200EF004FE054610B3874920680C
S2140005401AF059F8864920681AF055F819F059F942
S21400055019F058F9834B844A009384497D23206818
S2140005601AF049F882492B46824A20681AF043F866
S214000570284600F019FA804920681AF03CF800BEB8
S214000580FDE719F03EF919F03DF97C4920680DB0F9
S214000590BDE8F04F1AF02FB80025877DDFF8E88118
S2140005A0DFF8089200F1170AAF4283D90AEB050379
S2140005B05B781AF80560083B012B13D805F1020B8F
S2140005C0D344721E41465846099222F009FA002882
S2140005D000F09E8049465846099A22F001FA002803
S2140005E000F0AF8001362E44F5B2DDE71870584BA8
S2140005F01A78002A2FD01870564819F091F9012160
S21400060044F26500524A0EF047FD054648B3524C88
S2140006105249206819F0EFFF5149206819F0EBFFA6
S21400062019F0EFF819F0EEF8554B4F4A00934F4982
S214000630B423206819F0DFFF4D492B464D4A206849
S21400064019F0D9FF284600F0AFF94B49206819F099
S214000650D2FF00BEFDE701223E481A7019F05DF990
S214000660CDE748480DF12B0124F05AFD9DF82B30BC
S214000670002B36D00025444E374F19F0C2F819F03B
S214000680C1F8D7F8008025F0E1F894F90D3002465D
S2140006900793A37B4046069363793C490593A37969
S2140006A00493E3790393237A0293637A0193A37AFC
S2140006B00093334619F09FFF334B9E4225D1244BBF
S2140006C0334A1978334B002918BF1A46324938681E
S2140006D019F091FF19F095F819F094F82F49386839
S2140006E055E74FF47A700BA924F088FD0028C1D195
S2140006F0254E00252A4A2B46CDE900550B99214860
S21400070025F080F8002EB7D1D4E62A462549DEE744
S214000710254B1A78002A7FF469AF1A480DF12B0191
S21400072024F0FEFC9DF82B30002B7FF4C3AE4FF474
S2140007307A700BA924F062FD00287FF4BBAE064653
S214000740D7E7E58B194E6DBAADB295E7A00001006C
S21400075055270020905A0200C40E0020725902004D
S2140007601C5902005D5A0200215902002A59020053
S21400077039590200365902004E5902005F590200EC
S214000780325A0200B80D00201A2C002074590200BC
S2140007901859020015590200C95902000E5A0200E3
S2140007A069040000EE590200242C0020102C0020C2
S2140007B0064B1B681A7A022A04D812B11B68044A30
S2140007C013607047032AF9D0704700BF4C2A0020F8
S2140007D0D80D002070B5274DA8B012AC0FCD0FC4B1
S2140007E095E80700032384E807008DF86130292385
S2140007F0214A2249CDE90323214B0024CDE90513E4
S2140008004FF4807307934FF4A023CDE909440B946B
S214000810089319AD08AE0FCECDE90E4410940FC55F
S214000820184B0DAE2B60184B1EAD0D930FCE0FC59B
S2140008302020164B19A92B60154B12AA2393154B93
S2140008402694CDE92403144B14482793144B0093A5
S21400085003AB04F0BBFA04469DF897304FF4E13042
S214000860002B0CBF0321002119F00BF8204628B0FE
S21400087070BD00BF745A0200000006500005000656
S2140008800008000724000650020005003C00065041
S2140008905627002000010100602A0020940E002048
S2140008A0DC0D0020831E012B10B50C4619D801293B
S2140008B00DD8184B04221B6905210020C3F34013F2
S2140008C003F0BEF824B1144B18680368F3B910BDE2
S2140008D0114B18680368002BF9D0BDE8104004F0EF
S2140008E043BA8B1E012B0CD80128F0D8BDE8104067
S2140008F00022084B05211B691046C3F3401303F082
S2140009009FB80029E4D00129DDD0E0E7BDE810401B
S2140009101AF040B800C00350742A002008B50449F5
S214000920044804F049FCBDE80840FFF753BF00BF89
S214000930782A0020BC0E002001481AF0B0B800BF8C
S214000940940E0020014B5A6A18681047940E002037
S214000950014818F0DFBF00BF905A0200012208B518
S214000960074B1A700022074B1A700422064B1A70A7
S2140009701F22064B1A7003F0D9FE054B186008BDFF
S2140009802A2C002076270020292C0020282C002046
S214000990C40E0020024B0349186819F02CBE00BF95
S2140009A0C40E0020A85A020070B50C4C0C4906462E
S2140009B0206819F020FE03F0B9FE0546206803F013
S2140009C0A9FE3046FFF7E6FF284603F0A3FE2068A0
S2140009D00449BDE8704019F00EBE00BFC40E0020EA
S2140009E0AA5A0200AC5A020008B5034824F08DFE4D
S2140009F0BDE8084018F0BBBE605B0200014824F06A
S214000A0084BE00BF605B020007B5082018F06BFFCD
S214000A100222064B6846CDE9002318F0F6FE0820B1
S214000A2003B05DF804EB18F069BF00BF006A181049
S214000A300348044A0449121A921018F031BF00BF46
S214000A4040010000200300006028002008B5154B78
S214000A5083F30A8800F030F8FFF7EAFF124B1349D9
S214000A608B4212D30020124B12498B4218D3FFF749
S214000A70C1FC186850F82240586840F822400132FD
S214000A8098688242F5D30C33EAE70022F8E71C6840
S214000A9044F8220001325C68A242F8D30833E4E747
S214000AA00022F8E700000020189E0200249E0200A4
S214000AB0249E0200249E02004FF40041134B144A69
S214000AC070B59A60D3F88820124D42F47002C3F8CD
S214000AD08820114A05F5005491664FF0FF322266D1
S214000AE04FF6DF7262660222C3F8D020BFF34F8F44
S214000AF0BFF36F8F4FF44036032003F0FDFD032055
S214000B00E66003F0DDFD2E6170BD00BF00ED00E085
S214000B10000000000080004400900050014B186068
S214000B20704700BF842A0020054B1860054B1B6FDA
S214000B3003F00703032B01D123F00CBC704700BF62
S214000B408C2A002000800050002307B52948019316
S214000B5024F0DBFD4FF44073012204216846ADF813
S214000B60003000F0C3F80122234B0520C3F84424CC
S214000B7001A924F0C5FD002839D1204BD3F8F02078
S214000B8042F00102C3F8F020D3F8FC2042F0807255
S214000B90C3F8FC201A4AA3F55D431A60019B194A64
S214000BA003F5D52303F2FC43B3FBF2F3164A013BED
S214000BB013610223C2F8F0304FF48073C2F8043396
S214000BC04FF06043114AC3F8B02F114AC3F8802E85
S214000BD0D3F8002E42F48072C3F8002EFF2283F86A
S214000BE02020D3F8002E22F48072C3F8002E03B023
S214000BF05DF804FB605B020000D0035000ED00E0EF
S214000C00FF030040F8590D00000004E055CEACC5C7
S214000C10090001004FF06043D3F8802E30B5D207AC
S214000C2015D501240B4D8440D5F8FC2042F0807287
S214000C30C5F8FC20D3F8002E2243C3F8002E53F844
S214000C402020002AF0D003F82010002030BD11200C
S214000C50FCE700BF00ED00E02DE9F04104460C255E
S214000C604FF00108124E0CB314F001000BD0002018
S214000C7024F0010405FB00625768002FF3D091684A
S214000C80C0B2B847EFE72246013020284FEA5202AA
S214000C9001D0D307F8D508FA00F20F2824EA020498
S214000CA0E8D9103805FB0062B432E5E7BDE8F0810C
S214000CB0C80E002008B50C4824F027FD192003F0C4
S214000CC00DFD28B1192003F017FD192003F0F8FCDC
S214000CD01A2003F003FD28B11A2003F00DFD1A2098
S214000CE003F0EEFC002008BD605B02002DE9F04139
S214000CF00E461746054610B30F2922D80378DBB1F7
S214000D00013BDBB2022B1CD8104AD35C6A78D34076
S214000D10DB0716D50E4BD3F81043A4B924F014FC09
S214000D2080463A462846314603F03CF9404624F0D1
S214000D3006FC2046BDE8F08140F2FF13E6E72224D9
S214000D40F7E72124F5E70224F3E700BFAF5A0200D5
S214000D5000C0035010B5044608B30378E3B1013B66
S214000D60DBB2022B1DD8104AD35C6278D340DB0777
S214000D7017D524F0E9FB0122617823788A403021D8
S214000D804B4341F2100103F1A04303F570335A5070
S214000D9024F0D5FB002010BD40F2FF13E5E722202B
S214000DA0F9E72120F7E700BFAF5A020010B5044666
S214000DB008B30378E3B1013BDBB2022B1DD8104A1F
S214000DC0D35C6278D340DB0717D524F0BDFB012245
S214000DD0617823788A4030214B4342F2100103F1B8
S214000DE0A04303F570335A5024F0A9FB002010BD31
S214000DF040F2FF13E5E72220F9E72120F7E700BFDE
S214000E00AF5A020038B50D46044610B309B303784E
S214000E10E3B1013BDBB2022B1DD8104AD35C6278EB
S214000E20D340DB0717D524F08FFB302223785343BB
S214000E3003F1A04303F570331B696278D34003F0D7
S214000E4001032B7024F07BFB002038BD40F2FF131B
S214000E50E5E72220F9E72120F7E700BFAF5A0200B6
S214000E6008B503F095F8054B00F0553020F05020FB
S214000E70C3F82004BDE80840FFF7EEBE00E00350CC
S214000E8008B503F085F8054B00F0AA3020F0A02046
S214000E90C3F82004BDE80840FFF7DEBE00E00350BC
S214000EA013B504460A4824F030FCA2780421B2FAAE
S214000EB082F2237852098DF8043063780DEB010036
S214000EC08DF80530FFF712FF002002B010BD00BFFE
S214000ED0605B02002DE9F04F9A46564B85B01B78B2
S214000EE006460F461546DDF83C909DF844B0DDF802
S214000EF05080002B00F09780072A00F296800E9B09
S214000F00002B00F09280B9F1000F00F08E80129B4B
S214000F10B3F5006F00F38980012803D1109B002BE6
S214000F2000F08380444B03EB05131B7B002B7ED025
S214000F30424C10220021684621F07CFD04EB45144B
S214000F401022A7BB3946204621F074FD43F2100359
S214000F506380BBF1000F03D1E37843F00303E37033
S214000F60364A0E9B02EB451CCCE90193129B6901A5
S214000F70581E9DF84C30C0F30A0003F003039B068E
S214000F8043EA001E53582E48012E00EA03004EEA9C
S214000F900003CDF800A0535017D0B8F1000F2ED1A3
S214000FA09CF8023068F304138CF8023027E0002126
S214000FB0204621F03FFD4FF444736380BBF1000FE1
S214000FC0CED1E37843F03003C9E713230CF1100EBB
S214000FD0CCF80C309CE80F008EE80F006FF0030191
S214000FE0DCF81C20109B61F39F02012FCCF81C201C
S214000FF0CCF8143003D1CCF81890CCF80430002785
S2140010000D4A290102EB051342F80180159A28467D
S2140010105A60694622469F605E7302F0A5FD384618
S21400102005B0BDE8F08F0748FAE70748F8E7074835
S214001030F6E700BF77270020301100203010002090
S2140010400F80FFF3028000F0018000F0078000F0C0
S21400105038B5124B05461B78DBB1E0B124F074FAC4
S2140010600F4A00231146147B54B92B6001251A0140
S21400107001EB03131D738C5024F061FA204638BD33
S2140010800133082B02F11002EDD124F058FA05487E
S214001090F5E70548F3E70548F1E700BF77270020A6
S2140010A030110020048000F0028000F0018000F083
S2140010B038B524F049FA002305460B4A147B6CB970
S2140010C00133082B02F11002F8D102F0F9FC074BAD
S2140010D028461C7024F033FA204603E0284624F005
S2140010E02EFA034838BD00BF3011002077270020B5
S2140010F0058000F00D4B10B51B78044693B1072809
S21400110012D824F021FA0A4B03EB04131A7B2AB1F7
S21400111000241C7324F013FA204610BD24F00FFAA6
S2140011200448FAE70448F8E70448F6E7772700207B
S21400113030110020068000F0028000F0018000F0F0
S214001140154B13B51868002301908DF8043024F071
S214001150FBF9124B1C7824B124F0F1F9104802B0C8
S21400116010BD01221A7024F0EAF90E4B01A81C7378
S2140011701C7783F82C4083F83C4083F84C4083F877
S2140011805C4083F86C4083F87C4008238DF8073079
S21400119002F0BAFC2046E2E7B25A020077270020A7
S2140011A0038000F030110020F8B50D4D2D7885B184
S2140011B0072810DC0B4D060105EB0014277B67B1F2
S2140011C0AB510025069BA560636002F0CDFC284667
S2140011D0F8BD0548FCE70548FAE70548F8E700BF0C
S2140011E07727002030110020028000F0018000F0F8
S2140011F0078000F00A4A08B512785AB107280BD8BB
S214001200084A02EB00131B7B43B1002102F06EFC80
S214001210002008BD0448FCE70448FAE70448F8E75D
S2140012207727002030110020028000F0018000F0B7
S214001230078000F00A4A08B512785AB107280BD87A
S214001240084A02EB00131B7B43B1012102F04EFC5F
S214001250002008BD0448FCE70448FAE70448F8E71D
S2140012607727002030110020028000F0018000F077
S214001270078000F0184B2DE9F0411F6D5B6D1F4095
S21400128000D5FEE701260025144CDFF858803742CB
S21400129018D02368C8F85060A3B1A1682846013169
S2140012A06268A1609847637B012B0BD150B90C4B49
S2140012B003EB45131A7B60F341021A731A7F60F33F
S2140012C041021A770135082D4FEA460604F110044C
S2140012D0DDD1BDE8F08100BF0000045030110020D1
S2140012E030100020002004502DE9F04F144605462B
S2140012F00E469B46C36B87B001225B6902A96068F5
S2140013009847EB6B01225B6903A93046984702A811
S21400131018F066FF074648B10023A37563754FF0C3
S214001320FF33A360002007B0BDE8F08F03A818F0D5
S21400133064FF0123A375237E04EBC303DE611F84D1
S2140013406368B3420ED1206003A818F078FF4FF010
S214001350FF332075A360237D043B022B26D8002391
S214001360A375DFE723681A1A53425341A37503A8EF
S21400137018F065FF237D834218BFA77503A818F0F1
S21400138040FF074602A818F03CFF874218BF00231C
S21400139003A818BFA37518F03CFF074602A818F06C
S2140013A038FF87421CBF0023A375D4E703A818F0B4
S2140013B028FF80B1EB6B022230465B6904A9984790
S2140013C004A818F02DFF0346207D032839D8DFE84F
S2140013D000F03838040903A8F3E7CC22237E04EB98
S2140013E0C3031A8401F070FA109B187003A8277EB6
S2140013F018F0FBFE04EBC70787F82200237E03A83D
S21400140004EBC303B3F8209093F8227018F0F9FEAB
S214001410804603A818F0FDFE8246B8F1000F15D0EE
S214001420EB6B022230465B6904A9984704A818F0C3
S214001430BCFE6075637D6BB90023A3754FF0000892
S21400144038E0227E04EBC2021384CBE703A818F030
S21400145097FEEEE794F81680B8F1000FEED0B9F1DB
S214001460000F09D1DFB10123E375637E002B4FD156
S214001470012F42D1677614E06B6C06EB0A025942E4
S21400148086EA020008421CBF0021A175591E0A40C8
S2140014909B1A9945D0D8A37D002BE3D1CEE7E37DF8
S2140014A043B94FF000084B4652463146284618F0DE
S2140014B0D5FBA060A27D12B123694B4423611A4973
S2140014C0237E097899422AD901332376BBF1000F8F
S2140014D027D032B3E37D23B3B8F1000F21D1032F19
S2140014E01FD0A1684B1C1CD0109B22460093284698
S2140014F00123FFF7F9FEA07513E095F8343063B9C1
S214001500EB6A0133CFD1032FCDD10123A376C8E7F1
S214001510012FCFD0032FC4D1F7E79846C3E70023A7
S214001520A375A07DFFE600BFD85A02002DE9F04F54
S2140015300E46984600238BB004464FF0FF31104607
S21400154017468DF8133001F0A9F9B6F5801F3BD386
S214001550B21C53D1E56A6B1C57D12046616A18F05D
S214001560C3FA0546B31C18BF0123DFF81091019398
S214001570636A626C0293236805A902FB053AE36B73
S21400158005225B695046984705A818F0C4FE18F077
S214001590E7FE504618F0EFFE4FF0000B824601467D
S2140015A04B1C05D0636C81EA0A025B42134232D0C0
S2140015B02946204618F098FA029BAB424DD0BBF164
S2140015C0000F4DD10546D3E7314605AA04F10800C1
S2140015D018F054FD0146481C10D0384601F05EF95C
S2140015E00122394620460DF1130318F089FB28B175
S2140015F09DF8133088F80030002003E0237C002B91
S214001600A8D12D200BB0BDE8F08F2368ED1A636CCF
S214001610B5FBF3F5A6E7484601F040F90DF11303D4
S21400162049462046019A18F06BFB034690B1B21C5F
S21400163003D0D9F80020B2420CD19DF813200393B2
S2140016400D4B88F8002049461A68384621F0FDF907
S214001650039B9B46D9F80810A2E7BBF1000FD0D039
S214001660B6F5801FC8D2314698F800307A6804F183
S214001670080001F041F8BFE7D45A02002418002001
S2140016802DE9F3410446174698460E46194D816AE1
S214001690E36A8B422AD04B1C18E0284601F0FEF87D
S2140016A00122294620460DF1070318F029FB30B128
S2140016B04346294620469DF80720B847B0B1A9689A
S2140016C04A1C05D0012E0AD0E36A9942E5D10DE006
S2140016D06968204618F095FA012E0146D8D16B6845
S2140016E081EA0302636C5B421A42D1D002B0BDE8C5
S2140016F0F08100BFF81700202DE9F04F4FF0FF33C0
S2140017004FF6FF720025044600F10806C0E90923DB
S2140017108BB0C3620562056330460F4618F07FFC47
S214001720204618F0B1F920BB2046394618F02CFAAE
S214001730204618F0A9F920BB5E200BB0BDE8F08F5C
S214001740E26B2368606CD2F814C000FB05300522FB
S21400175005A9E04705A818F0DEFD012828D129468E
S214001760204618F0E2F9421C2946204618F0ABF94C
S2140017700135E3699D42E3D3204618F085F9002839
S214001780D2D000254FF0FF394FF6FF73CA46A84661
S214001790C4E90853E369984514D3A5EB0905012D60
S2140017A036D84FF6FF72636A934246D16720C4E785
S2140017B018F0DBFD0028DBD02946204618F0B5F9E6
S2140017C00246D1E72368E26B606C576900FB08307D
S2140017D0052205A9B84705A818F09DFD834605A86B
S2140017E018F070FD0746584618F0BAFD68B1574520
S2140017F038BFC4F82480B94528BFB946BD4238BFB3
S2140018003D46BA46236A0133236208F10108C1E760
S2140018104FF6FF7300256362E3699D42C1D2676C91
S2140018202068E36B052207FB05005B6905A998475E
S21400183005A818F047FD0135EEE7E26B676C2068F7
S214001840694607FB030055690522A847684618F055
S21400185039FD626A2368606C4B4D00FB023018F05D
S2140018608AFD4FF0FF33A062E3622A466FF0010163
S214001870204605ABFFF75AFE002846D1AD6829463C
S2140018802046E56218F0DCF8206320B92046E16ABD
S21400189018F0B7F9E0622946204618F0B2F9054676
S2140018A0A36A9D4233D1204618F09DF80027804653
S2140018B0B946E36999453CD3B84559D92046616A8B
S2140018C018F012F90026054604F1400AB74212D86D
S2140018D0626C2368694602FB0539E36B05225B6987
S2140018E048469847684618F0EDFC53460246494677
S2140018F0E06B18F042FD2946204618F0F5F8013650
S214001900B0450546E2D1642017E7A56AB7E7294641
S214001910204618F095F8236B2946034407462363B0
S214001920204618F06EF90546002FB9D1C4E90B071A
S214001930B6E7636C2568052203FB0955E36B05A92A
S2140019405B692846984705A818F0E5FC18F008FDDE
S21400195058B1284618F00FFD0146204618F070F8DA
S214001960636C143B984208BF013709F10109A0E7F0
S214001970304618F054FB002320461946034AFFF76A
S2140019807FFE0020D9E600BF50180020EF9C010023
S2140019902DE9F041036B9046826B07689A4288BF38
S2140019A08363426C436A90B002FB0377C36B0E46B8
S2140019B0052201A95B6904463846984701A818F035
S2140019C0AAFC01280146307057D0656CE26B23688C
S2140019D0606AD2F814C005FB0030052206A9E0476D
S2140019E006A818F098FC01284FF0000523D0D4E98B
S2140019F00A3201219342CDE90B458DF834800E95CD
S214001A008DF83C102AD11946204618F0FAF8236BB8
S214001A10626C14339B1AE06223630C9B53B99DF8E7
S214001A203C303BB1626A616C2368E06B01FB0231BB
S214001A3018F029FC0C9DE36B05225B6901A938466A
S214001A40984701A818F067FC30702846236BA26BF5
S214001A509A4288BFA36310B0BDE8F081237C33B9F7
S214001A601C490BAA04F1080000F094FED5E72046B6
S214001A70194A0BABFFF704FECFE7237C23BB2246B5
S214001A80164904F1080000F085FE616A204618F049
S214001A904CF8616A421C204618F015F8054620B935
S214001AA0236B626C1344143B23632046A16A18F030
S214001AB0A8F82368A062C01A636CB0FBF3F06062FB
S214001AC0204618F0E1F8B6E700232046044AFFF760
S214001AD0D7FDDAE70522000081210000899D01007C
S214001AE0259D010073B50D46D11E4A421C461B7E3D
S214001AF04A419A4226D129682368994222D36368CC
S214001B0099421FD8114E0DF107033246FFF70EFD1E
S214001B10C0B972686B689A4214D19DF80730DA1E15
S214001B2053425341227E93420CD163690133636171
S214001B30D4E90323934205D22968A26842F8231009
S214001B4001332361012002B070BD00BF5018002091
S214001B502DE9F04F9A468BB09DF85030DFF850B123
S214001B600293DBF81030804653450D461646C0F00B
S214001B709980D146DBF804300193B9F1000F00F0EC
S214001B808D80D8F83C3001225B6907A901989847F8
S214001B9007A818F032FBDBF80030984240F085804A
S214001BA007A818F036FB0428074614D107A818F033
S214001BB037FB019B029A04463B44002A3FD18642EB
S214001BC012D91446361A4046019918F01AF8A9EBAD
S214001BD004090190D1E7D8F83C3002225B690198ED
S214001BE008A9984708A8E2E7841B544528BF54462E
S214001BF0032C03EB0607AAEB040A4FEA94021CD94F
S214001C00D8F83C30294638465B69984724F00303E9
S214001C1004F003061F441D44002ED4D0D8F83C30F0
S214001C2001225B6908A9384698473246284608A923
S214001C30354420F00AFF0026C5E72646ECE70746AF
S214001C4000F00302039203442A1804920593049BAF
S214001C50DD1B059BD81B039B9F420FD1002FB2D0E4
S214001C60D8F83C30012208A95B6998473A462846CE
S214001C7008A920F0B5FE78B93D44A4E7D8F83C3072
S214001C80012208A95B6998470422284608A920F083
S214001C90A7FE08B9043FDAE74FF0360948460BB00E
S214001CA0BDE8F08F4FF06309F8E74FF06F09F5E7EE
S214001CB07C1800202DE9F0410F461646984604464B
S214001CC088B060B390F83450FDB1012117F0D1FE12
S214001CD000210E9BCDE90511CDE902379DF83C3079
S214001CE0CDF804808DF81C30237C04968BB90D4902
S214001CF001AA04F1080000F04DFDDDE90553E06B94
S214001D00002E08BF1D4618F04DF8284608B0BDE85E
S214001D10F0812046044A01ABFFF7B2FCEDE705462A
S214001D20F3E700BF539D0100E51A00002DE9F04FD0
S214001D3099B00F4609920A69416C0E931439D31D67
S214001D40B3FBF1F3013302EBC302036B0446934289
S214001D50C0F0B3810023DFF824940D93E36A48466D
S214001D601946079300F09AFDD7E9033604930E9BB5
S214001D70022B4ED1CC2E40F08A81099B002B42D0FC
S214001D803946204618F06CF8656C079A6B1E1340AF
S214001D901490ED1AE36B01225B6916A978689847E0
S214001DA016A818F02EFA00280CBF04230823782E55
S214001DB006933DD9012300254FF0080A05933B689A
S214001DC005990E98C9F80030C9F8106018F03BFA6B
S214001DD04FEA9A0310930023DDF81CB089F814002C
S214001DE00B930F9308930C93616C4A1E0BEA020246
S214001DF08B1A002E38D05544AB4240D8236B5B1A62
S214001E0013442363ABE0049B1B68149308230693D8
S214001E10D0E7656C079A6B1E1340782EA5EB03057A
S214001E2016D8FB7D7BB9099B002BB3D10423069300
S214001E30331DAB4210D9A6B1082DBBD8042500230C
S214001E40AA460593BBE7099B002BA3D10823EEE720
S214001E50099B002B9ED1D9E7002505954FF0040A73
S214001E60ADE704250596F9E75345C7D3B0460BEB17
S214001E700A030393089B002B18BF032313E0A3EB6E
S214001E800A039E42B0460BEB0A0228BF98469E42C3
S214001E900392EFD90123D9F8102089F8173096421B
S214001EA071D1C9F804B0089399F81730002B6CD09C
S214001EB099F818200899D31C09EBC3030132C3F81C
S214001EC004B0A3F80880997289F81820B8F1000FBA
S214001ED014D00E9B022B5BD10B9B7BB90F9B43440C
S214001EE0032B0BD9E36B01229B69039814A998472F
S214001EF00546002840F0E38001230B93089B16A8B4
S214001F000193059B009399F814204346396800F026
S214001F107BFCE36B58469B69109A16A99847051EEA
S214001F200D9B18BF5B4652460D93594643462046C6
S214001F3017F094FE236B08F10302A3EB0A0322F0CA
S214001F4003029B1AC9F808002363002D40F0B780EF
S214001F500F9BDDF80CB04344A6EB08060F935946DA
S214001F60204617F04EFE00258346002E7FF43CAF39
S214001F70824A3968936804F10800E36252680E9B4F
S214001F8000F0BAFB84E002238DE7C9F804B09DE7B1
S214001F90099B002B30D1049BB8F1030F43440A93EE
S214001FA027D9DDE90301E36B4FEA98029B6998475E
S214001FB00546002865D118F003025FD0049B28F080
S214001FC003052B440493039B1D444FF0FF330499F1
S214001FD015A8159320F039FDE36B28469B6901226E
S214001FE015A9984705460A9B0493002D86D0039BA7
S214001FF099E74246039DE8E7039B0A9307F120030F
S2140020001193FB7D78689BB100233D7E0C9AD9B274
S2140020108D4211D9119903F1010C31F83310914218
S21400202026D9069907EBC303D8690A44104403E08F
S2140020300C9B069A13441844E36B01225B6915A9AE
S2140020409847159B012213930C9B0A9804330C9314
S214002050E36B13A99B699847039B0A9A43449B1A10
S214002060042B054607D978B9134604330A93C8E704
S2140020706346521ACBE70A9B0393B6E70A9B049380
S2140020803CE70A9B0493B2E70A9B0393AFE77026EC
S214002090304619B0BDE8F08F4FF0000A4FE03A69BD
S2140020A0616CD31D1439B3FBF1F3013302EBC302A9
S2140020B0236B9342BFF452AE5DE01C26E8E73D2D4D
S2140020C059D104F1080303932368079A606CA2EBC6
S2140020D0030ABAFBF0FA00FB0A3018F04CF9E16A82
S2140020E08046204617F08DFDA26A8242D7D0626CE9
S2140020F0D9F80830511E0B40216B2668891A0B440C
S21400210023630D9BE0629E1BB6FBF2F6B245C3D17D
S214002110079BB3EB080A12D0E36B4FEA9A024146DC
S2140021209B6998478346E36A079A5344E362236BA6
S21400213003989B1A4344236317F071FFDA4623681B
S214002140616CE06B01FB063118F08AF8204617F048
S2140021509BFC204617F098FD2063BAF1000F9ED036
S2140021603A69616CD31D1439B3FBF1F3013302EB0A
S214002170C3029042A8D22E468AE700BF2418002049
S214002180032A2DE9F34106460D4617461C4606D19E
S214002190237A012B23D0012002B0BDE8F081DFF8BE
S2140021A06080096842460DF10703FFF7BFF96060DB
S2140021B00028EDD19DF80720237A032AE8D0D8F826
S2140021C004106A689142E3D1012B2969D4F80CC047
S2140021D007D172690CEB0103934202D92074207C6C
S2140021E0DAE708316144E1603B4601222946304681
S2140021F0FFF79CFD60600028CAD00020CCE700BF37
S214002200501800202DE9F341089C032A174626683B
S21400221006D1237A012B24D0012002B0BDE8F0813C
S214002220DFF89080304642460DF10703FFF77EF94F
S21400223060600028EDD12568D8F80400A96AD5F8B2
S21400224044C04840CCF100031840227AE1D1012A6C
S21400225009D1E268D8F8103013447269934202D963
S2140022602074207CD9E72868EB6A1B1A081AB3FB8F
S214002270FCF3B0FBFCF083420BD1706CF36A421E99
S2140022801340326B121A13442846336317F0B9FC16
S214002290E862D8F81020E36808321344E3600122AD
S2140022A03B4604492068FFF741FD60600028B0D037
S2140022B00020B2E7501800202DE9F0410025634BBE
S2140022C00E46D3F8008004461D6018B9212528461E
S2140022D0BDE8F08190F8347007B30A6803689A4244
S2140022E040F0AA804A6843689A4240F0A5808A680F
S2140022F083689A4240F0A080CA68C3689A4240F059
S2140023009B800A6943699A4240F096808A69C36B4B
S2140023109A4240F091804B698361D8E7682239463B
S214002320856B20F087FBD6E90212336804F10800BB
S21400233023607368A5636360336963617369A3612F
S21400234017F07FFEB36904F14000E3639B6898478B
S21400235020B9676C17B16368B3FBF7F794F843309E
S214002360E761002BB2D00023656C2366002D6BD08E
S214002370002F69D02368B3FBF5F205FB1233002B60
S2140023805CD16768B7FBF5F605FB1676002E55D1CF
S214002390204617F045FBA369043303449F424FD3FE
S2140023A040F634726369CC3B93424BD8B5F5805FF8
S2140023B04AD30321204617F05CFBD4E90001E36B07
S2140023C01B6898470546E36B0220DB6898472DB1EB
S2140023D084F83460E06B17F0E5FC78E74146204669
S2140023E0FFF78AF96428054604D141462046FFF7E0
S2140023F083F90546636C143BD5B9226A204602FB76
S21400240003F617F00DFBA369043303449E4203D280
S21400241084F834505A25DDE70123D4E900010C4A3C
S21400242084F8343013680133136017F0A4FED1E744
S214002430002384F83430CDE75D2548E7592546E784
S2140024405A2544E75F2542E75B2540E7B4110020A4
S214002450B01100202DE9FF410C4616461F460546E2
S21400246080B390F834307BB3B1F5801F2ED2DFF8FE
S2140024706080012117F0FDFA2146424628460DF1FC
S2140024800F03FFF753F8044670B99DF80F30012B81
S21400249011D1D8F81030BB4212D102460090314616
S2140024A02846FFF755FB0446E86B17F07BFC2046F2
S2140024B004B0BDE8F081022B14BF2D246024F3E79E
S2140024C06324F1E72124F2E71124F0E72924EEE75C
S2140024D07C1800202DE9F3411F4600230C461646C3
S2140024E005463B6050B390F834304BB3B1F5801FCF
S2140024F028D2DFF85480012117F0BBFA2146424665
S21400250028460DF10703FFF711F80446A0B99DF819
S2140025100730032B10D0022B0AD10123336004238B
S2140025203B60E86B17F03EFC204602B0BDE8F08149
S214002530D8F810303060F3E72D24F2E72124F3E7D3
S2140025401124F1E72924EFE77C18002073B5044630
S214002550056B17F065FA636E03449D422CBF00239B
S2140025600123854294BF00252D1A207C84F8503024
S214002570656584F85800A8B100230C4E1A46194623
S2140025802046009617F039FD002305461A461946E0
S2140025902046009617F03AFDE3682844984294BF18
S2140025A00020C01AE06502B070BD00BFFFFF0F003C
S2140025B02DE9F3471E4643690446B342884617464C
S2140025C09DF828904ED300258DF80750204617F02A
S2140025D027FAD4F830A082450AD2236AB5EB430F17
S2140025E006D2002220460DF10701FFF7D1F9B8B355
S2140025F09DF80730012B05D1002220460DF107017A
S214002600FFF7C6F9B9F1030F06D03146204617F09A
S214002610F7F9256B854227D3144D4FF0FF31284636
S21400262000F03CF94B46294600222046C5E90376D1
S214002630C5F80080FFF77AFB236E054663B1204697
S214002640FFF784FF94F8503013B994F858301BB154
S214002650236E04F150009847284602B0BDE8F08784
S2140026600135B3E76225F7E71C25F5E7501800208B
S2140026702DE9FF410F4690461E46054698B390F852
S214002680343093B3B1F5801F31D21A4C022117F0C3
S214002690F0F92246394628460DF10F03FEF746FFAD
S2140026A0024678B10123424600933946334628460F
S2140026B0FFF77EFF0446E86B17F074FB204604B075
S2140026C0BDE8F0819DF80F30012BEBD12169B142B6
S2140026D0E8D10093414633462846FFF739FA0446C8
S2140026E00028DFD1E7E72124E8E71124E6E72924DC
S2140026F0E4E700BF7C1800202DE9F043466886B367
S214002700056898464FF0000CA946AE4655F83C4082
S2140027100CF1010CC4F31307013401D0B94217D0F1
S21400272066450EF1080EF1D12F46002403E0A642BE
S21400273007F1080712D055F8343001340133F6D1CA
S214002740C1F3130141EA0851C7E90012BDE8F0835E
S21400275041EA0851CEE90012BDE8F083B8F1030F54
S21400276003D101230372BDE8F083002303E09E42F9
S21400277009F10809F5D055F833400133C4F307547E
S214002780032CF4D1C1F3130343EA0853C9E900321A
S214002790BDE8F0832DE9F0410646406882B0C0B13E
S2140027A00F4690460024336853F8345003EBC403B6
S2140027B0C5F30752C5F31301013504F1010406D031
S2140027C05B683046CDF80080B84710B17068844228
S2140027D0E9D302B0BDE8F081024B1968024B1868D5
S2140027E0FFF76ABD902A0020B02A002008B522F024
S2140027F0A2FE014B186008BDA8180020014B1868FF
S21400280022F094BEA818002073B504462248012A78
S21400281000EAC1119DF8185023F07C4007D9961E97
S214002820012E28D9073303F07F03194308E09DF8EB
S2140028301C300A43DB0603F0C053134343F06041E9
S2140028400023C4E900108DF80730B5B120222146D8
S2140028500DF1070017F0ABFD1A220DF10700211D40
S21400286017F0A5FD082063689DF8072043EA8263F9
S214002870636002B070BD1143E2E71B220DF1070052
S214002880214617F094FD23689DF80720042043EAAC
S214002890C2632360EDE700BF80FFFF0738B5094B32
S2140028A00D461A680021044620F0C4F800234FF0B5
S2140028B0FF322383C4E900252361A260E382A37666
S2140028C038BD00BFD45A02000138C0B205289ABFEE
S2140028D0014B185C01207047D95A02002DE9F041DF
S2140028E00746154600240E46596888B0490A01294D
S2140028F022464FEA510104F10104F8D8DC789978B1
S21400290024031B88C90201F4006104F480540C43BC
S214002910C3F30A035203234492B24FF000089C18F4
S214002920274B6FEA0444039325F07843ED4302A94E
S2140029300DF107001B2202938DF8078017F037FD74
S2140029409DF80720029B02A943EAC2630DF1070027
S2140029501B2225F07845049302958DF8078017F022
S21400296026FD9DF80720029B6FEA144443EAC263E3
S21400297005934FF0FF330794069307A9BB6901221E
S21400298006F110009847BB6905A90446012206F126
S21400299008009847BB69404518BF044604A90122B1
S2140029A0301D98470122404518BF0446BB69304693
S2140029B003A99847404508BF204608B0BDE8F08107
S2140029C001009AB2044BD3F88420D206FBD4D3F885
S2140029D08400C0F3811070470040005038B5184B93
S2140029E00546D3F824010C4600F00700062823D835
S2140029F0DFE800F0040A121A1E0E1600012305B1C5
S214002A00286004B1236038BD21F07EFC0523F6E77C
S214002A1021F07AFC0623F2E721F0B6FC0323EEE76A
S214002A2021F0B2FC0423EAE721F0AAFC0223E6E741
S214002A3021F0B0FC0723E2E700231846DFE700BFDB
S214002A400080005038B5104B0546D3F800310C46D0
S214002A5003F00303022B0BD0032B0DD0012B0FD159
S214002A6021F092FC032305B1286004B1236038BD31
S214002A7021F094FC0823F6E721F08CFC0723F2E70C
S214002A8001230020EFE700BF0080005038B5104B50
S214002A900546D3F820310C4603F00303022B0BD077
S214002AA0032B0DD0012B0FD121F02EFC052305B1F1
S214002AB0286004B1236038BD21F066FC0323F6E7E6
S214002AC021F05EFC0223F2E701230020EFE700BFBF
S214002AD00080005038B5104B0546D3F840310C4600
S214002AE003F00303022B0BD0032B0DD0012B0FD1C9
S214002AF022F016FD092305B1286004B1236038BD15
S214002B0021F04CFC0823F6E722F00DFD0B23F2E73C
S214002B1001230020EFE700BF0080005038B5104BBF
S214002B200546D3F860310C4603F00303022B0BD0A6
S214002B30032B0DD0012B0FD122F0F2FC092305B197
S214002B40286004B1236038BD21F028FC0823F6E78E
S214002B5022F0E9FC0B23F2E701230020EFE700BF99
S214002B60008000502E4B98424AD022D82D4B9842D7
S214002B7040D014D82C4B984239D00AD82B4B9842C8
S214002B8032D02B4B98422FD02A4B98422CD0002084
S214002B907047294B9842FAD1284B186F7047284B3C
S214002BA098422AD0274B9842F1D1244BD3F8800084
S214002BB07047254B98422BD009D8244B984223D0F7
S214002BC0234B9842E3D11D4BD3F88C007047214B22
S214002BD0984221D003F5740303F510539842D6D1DA
S214002BE0164BD3F898007047144B986D7047134BEC
S214002BF0586E7047114B586F7047104B986F704760
S214002C000E4BD3F8840070470C4BD3F888007047FF
S214002C100A4BD3F890007047084BD3F894007047DF
S214002C200048E8010024F400C0CF6A0080841E003B
S214002C3000093D0040420F00405DC6000080E00FE6
S214002C40C0EA210180BA8C01007E560380D543027B
S214002C50006CDC020090D00373B50D4600210E4BCD
S214002C600191D3F88041064604F00304012C09D0F4
S214002C70022C0CD00C460EB1019B336005B12C60C3
S214002C8002B070BD01A8FFF701FF0F24F3E721F0A3
S214002C9077FB0190EFE700BF0080005038B5104B7F
S214002CA00546D3F840320C4603F00303022B0BD044
S214002CB0032B0DD0012B0FD122F032FC092305B1D6
S214002CC0286004B1236038BD21F068FB0823F6E7CE
S214002CD022F029FC0B23F2E700231846EFE700BF9B
S214002CE00080005038B5144B0546D3F800020C4659
S214002CF000F0070004281BD8DFE800F003090D11D8
S214002D001500012305B1286004B1236038BD22F008
S214002D1007FC0923F6E721F041FB0823F2E722F03F
S214002D2002FC0B23EEE721F015FB0E23800AE9E7F1
S214002D3000231846E6E700BF0080005010B40D4C94
S214002D400B46D4F8204204F00304012C0AD0022CCF
S214002D500CD008B1002101600BB100221A605DF8AA
S214002D60044B70475DF8044BFFF790BE5DF8044BCC
S214002D70FFF7B0BE00800050B0F5207F1FD009D806
S214002D80B0F5007F15D003D868B1B0F5C07F0AD083
S214002D9000200CE0B0F5607FFAD10B4BD3F8800032
S214002DA0C0F3011003E0084B186FC0F30330013086
S214002DB07047054BD3F89000C0F30460F7E7024B6A
S214002DC0186FC0F38020F2E7008000504FF4003206
S214002DD00E4B014610B500209A66FFF7CDFF48431C
S214002DE041F671320A490B4B884294BF00200120FD
S214002DF0DC69DA639A6822F4401242EA00529A606A
S214002E00E20344BF0022DA6310BD00BF009000500A
S214002E10005A620200000350420910B50FD0012A82
S214002E200FD00A4B0A4C022A18BF234600F01F0098
S214002E3049B103F58053012282401A6010BD134643
S214002E40F4E7044BF2E703F50053F4E7688000501C
S214002E5060820050648000501FB50021B0F5807F6E
S214002E600446019100F0068100F29D80612800F280
S214002E7095801F2805D8002840F0928021F06AFA35
S214002E80DCE0A0F12004412C00F28A8001A353F874
S214002E9024F000BF7D2E0000413000007D2E000093
S214002EA041300000613000006130000061300000F9
S214002EB06130000041300000413000001B3000004F
S214002EC0D52F000097300000A1300000D52F00005D
S214002ED0413000004130000041300000A12F0000CA
S214002EE0A12F0000A12F0000A12F0000A12F00009D
S214002EF0A12F00006B300000F72F000041300000CB
S214002F004130000041300000B5300000AB3000001A
S214002F1041300000A12F0000A12F0000A12F0000CB
S214002F20A12F0000A12F0000A12F0000A12F00005C
S214002F30A12F0000A12F0000A12F0000A12F00004C
S214002F40A12F0000A12F00007D2E0000A12F000061
S214002F507D2E00007D2E00007D2E000061300000DA
S214002F60A12F0000A12F0000A12F0000A12F00001C
S214002F70A12F0000A12F0000A12F0000A12F00000C
S214002F80A12F0000A12F0000A12F0000A12F0000FC
S214002F90A12F00007D2E00007D2E000080284BD043
S214002FA0019804B010BDB0F5A06F5ED028D8B0F57B
S214002FB0607F50D019D8B0F5007F4CD004D8B0F55B
S214002FC0C07F3FF45BAFEBE7B0F5207F38D0B0F5BD
S214002FD0407FE5D121F0BEF902464FF42070FFF79E
S214002FE0CBFEB2FBF0F2520833E0B0F5806F37D07C
S214002FF0B0F5906FD4D1002101A8FFF7EFFCCFE722
S214003000B0F5E06F51D00DD8B0F5C06F43D0B0F535
S214003010D06F45D0B0F5B06FC2D1002101A8FFF740
S2140030201BFEBDE7B0F5F06F44D0B0F5086FB7D122
S21400303001A8FFF707FDB3E721F06CF90190AFE7B1
S21400304021F088F902464FF42070FFF795FEB2FB98
S214003050F0F20192A4E721F05DF902462046F4E77B
S214003060002101A8FFF712FD9AE7002101A8FFF74B
S21400307065FE95E74FF0E02302911B695B0705D5D7
S21400308021F068F90290029B019389E703A902A840
S214003090FFF720FDF7E7002101A8FFF71BFD7FE7FC
S2140030A0002101A8FFF71EFE7AE7002101A8FFF71E
S2140030B0F5FD75E7002101A8FFF730FD70E700BFBA
S2140030C008B58020FFF7C8FE034B98429EBF4FF41A
S2140030D08032024B1A6708BD005A620200A00050F8
S2140030E01FB503460020B3F5807F01906FD027D828
S2140030F0382B00F082800BD8243B092B0FD8092BE5
S2140031000DD8DFE803F05F5F5F5F0C0C5A0C367576
S214003110522B57D007D83D2B3AD03E2B72D0019871
S21400312005B05DF804FB802BF9D1394B1B6F03F01B
S2140031300703013B032BF2D8DFE803F03D36393BAB
S214003140B3F5D06F54D019D8B3F5A06F55D00AD8C0
S214003150B3F5806F36D0B3F5906FE0D1002001A9AB
S214003160FFF73CFCDBE7B3F5B06F26D0B3F5C06FD6
S214003170D5D1002001A9FFF7ADFCD0E7B3F5006F6D
S214003180ECD00AD8B3F5E06F3CD0B3F5F06FC6D1FB
S214003190002001A9FFF7C2FCC1E7B3F5086FBED156
S2140031A001A9FFF74FFCBAE705230193B7E703230E
S2140031B0FBE70723F9E70223F7E7002001A9FFF75B
S2140031C04BFDACE7002001A9FFF760FCA7E74FF036
S2140031D0E02302901B695B0705D521F0BBF80C23A2
S2140031E00393039BE1E703A902A8FFF773FCF8E744
S2140031F0002001A9FFF776FD91E7002001A9FFF75F
S2140032009DFD8CE7002001A9FFF748FD87E700BF7A
S214003210008000504FF48032074B0849586E03F583
S21400322080535A660B6A23F001030B62C3035CBF2C
S214003230034B5A66704700BF0080005000C007501E
S21400324000A0005008B5FFF74BFF082811D009383A
S214003250012802D94FF6FF7008BD4FF40012064B46
S2140032605A6603F5D8335B6ADB07F3D54FF4FA707A
S214003270F2E7024B1888EFE700900050FE2B002084
S21400328008B5FFF72DFF03280ABF024B4FF6FF7065
S214003290188808BDFC2B0020F8B504468020FFF7F0
S2140032A01FFF032800F087804FF40022424B0221C4
S2140032B05A6645F60E03414AC2F88030404B996282
S2140032C0012103F580539962936DD903FCD4D4E9A8
S2140032D000131B0543EA0163E17B94F820500B437F
S2140032E0217BE77E43EA0143617B6D0143EA0133BC
S2140032F0A17B43EA811313619169D4E904031B0699
S21400330043EA806301F000410B43A17E94F823005A
S2140033100B43217E43EA0143617E43EA0123936126
S214003320136AE66923F00D0394F8221043EA870334
S214003330002E2DD11362966A94F8213045EA0313C5
S21400334026F033052B4343F0010393621D4D1B4BC0
S2140033509A6D35EA0202FBD10222194DAA621A655D
S2140033609A6D5200FCD41A69A56822F4700242EAEB
S21400337005521A614FF00042114B9A6119B90222A8
S21400338003F580539A6278B901220F4B9A620BE0DC
S214003390334343F008031362936A23F03303034373
S2140033A02B4343EA4103936294F824301BB1034B4A
S2140033B0064AC3F88020F8BD0090005000C00050B8
S2140033C000D000500300014000E00050F1A7FFFFCE
S2140033D0014B93F90000704779270020F0B5D0E93B
S2140033E001434FF480061A4A4178057856664FF432
S2140033F0D156022702F5B8325662164E4F2977602C
S2140034004FF0010728BF4F2106F5805677601669F2
S214003410F603FCD441EA052151611B01417B43EAD6
S21400342004230B43017B43EA41039360C37B817B08
S2140034301B0143EA4113417C0B43017C43EA4103F1
S2140034405360837C13B16FF4D1535362F0BD00BF59
S2140034500090005000100250014B1880704700BFCB
S214003460FE2B0020014B1880704700BFFC2B00206D
S2140034704FF4001208B5184B5A660223174A5360D9
S214003480936813F48033FBD1012822D120F07CFF0F
S214003490134B984215D003F5122303F5F8639842B0
S2140034A013D0104B00EB8002400AB3FBF0F3520A35
S2140034B00A49CA620B6301234B620022074B5A601B
S2140034C008BD45F67A13084AF2E745F61A03074A96
S2140034D0EEE75362F1E700BF009000500040025054
S2140034E000F0490264666666D8B80500BBCF0500E2
S2140034F0B0F5207F10B50C4642D008D8B0F5007F56
S21400350033D003D888B1B0F5C07F0ED010BDB0F56B
S214003510607FFBD11F4A4C1ED2F8803023F0300368
S21400352043EA0413C2F88030F0E716F05EFF16F0A8
S2140035306AFF4FF48031184B164A1967136F013C27
S21400354023F4704343EA0433136720F003FF044672
S214003550FFF738FAC0F10201204616F04EFF00F0E1
S21400356035F8BDE81040FFF7ABBD0A4A4C1ED2F84E
S214003570903023F0F85343EA0463C2F89030C5E76E
S214003580044A4C1E136F23F4806343EA84231367B4
S214003590BCE700BF008000500090005008B5012135
S2140035A0022000F055F94FF42070FFF7E5FB054BBD
S2140035B0187016F01AFF16F026FF4FF48032024BF2
S2140035C01A6708BD782700200090005008B54FF411
S2140035D0C070FFF741FCBDE808400449884294BF2C
S2140035E0012102214FF42070FFF782BF80F0FA021B
S2140035F038B5044620F0AEFE0546FFF7E3F9C0F105
S2140036000201284616F0F9FE0121002000F060F9BC
S2140036102CB1FFF7DBFFBDE83840FFF751BD034B89
S2140036204FF420701978FFF763FFF4E7782700203F
S2140036304FF4C02270B50546FFF794FA314B0446A6
S2140036405A6603F598335A68012A04D12E494A600F
S2140036509A699207FCD18020FFF742FD052807D122
S21400366016F0C3FE16F0CFFE4FF48032254B1A67D5
S214003670264B24F040749D4230D0254B9D4230D0DE
S21400368020F042FE8542064603D90121284600F076
S2140036901FF9204BDA6812F0060FFBD199689C6080
S2140036A09A68624012F4F81F1ED12846FDF736FAD3
S2140036B08020FFF715FD05280DD120F04BFE0446AF
S2140036C0FFF780F9C0F10201204616F096FEFFF7DC
S2140036D07DFFFFF7F5FCAE420CD270BD44F00074DF
S2140036E0CEE744F08074CBE780209960FFF7F8FCC3
S2140036F0052805D0BDE870400121002000F0E8B89C
S2140037003546DAE70090005000E0015040420F00D6
S21400371080841E000000015010B5224B70B94FF493
S2140037200031214A1860516602F598325268012A23
S21400373003D11E4AD2F800211A6010BD1B68002B68
S214003740FBD01B4A5268012AF7D0184A8020C2F8DC
S2140037500031FFF7C5FC05281FD14FF4C070FFF7F6
S2140037600BFB0128044604D102214FF4C070FFF77A
S214003770BFFE07220F4B1A610122A3F580535A6041
S2140037800B4A1369DB07FCD5012CD6D12146BDE8D0
S21400379010404FF4C070FFF7ABBE0122064B5A60D4
S2140037A0CBE700BFAC18002000900050008000500F
S2140037B000C0015000E0015000D00150044A41789A
S2140037C0536F23F4407343EA01235367704700BFE7
S2140037D00040005010B5044610B10020FFF79CFFD3
S2140037E0124A136943F00403136121F06BFB16F0D1
S2140037F00FFE0F4B5B6E5B0142BF0E4B0E4AC3F8CB
S214003800202421F098FE22F05BF821F08FFE16F0BF
S21400381000FE01F0FFFD1CB9BDE8104020F09ABD87
S2140038200120BDE81040FFF777BF00BF00ED00E0C5
S2140038300080005000E003500000FF0F034A0179AB
S214003840D36E23F030030B43D3667047004000501E
S214003850F8B504461C4BD3F88420D106FBD4D3F825
S2140038608430C3F381139C422CD020F053FD012CEE
S214003870064602D1214616F0C0FD21F05CFE4FF050
S2140038800072124B07465A66204616F0C9FD4FF4E2
S21400389080630D4D621E93402B676B6E9A0103D4B6
S2140038A0D5F884309B060AD5384621F03FFE022C18
S2140038B008D13046BDE8F840002116F09EBDD5F888
S2140038C08430EAE7F8BD00BF0040005000600050BA
S2140038D010B50C4608B920F01DFD074B21461B7895
S2140038E03BB1064B984204D80120BDE81040FFF7D4
S2140038F0AFBF0220F9E700BF7A270020005A620215
S2140039000278034B012100201A70FFF7E1BF00BFC9
S2140039107A2700204FF0004238B5264B26495A66D3
S21400392001224A604AF6CD3103F50B235D6C19641B
S214003930154030BB9968C9070BD4002401221F4BE1
S2140039405A6015B11E4B1F4A1A641EF0B5F9204680
S21400395038BD1A498A601C4AD96ACC0705D49042F9
S21400396001D10724EAE70130F6E79042E5D1F8E70F
S2140039700132DC6A14F0080406D08A42F8D1072423
S214003980DFE700221049F4E78A42F8D020220B4BEA
S2140039900B495A620122A3F580539A6023460A4ACD
S2140039A0486A800603D49342E9D00133F8E793428D
S2140039B0C7D1E4E70090005000500950006009505D
S2140039C0004009503254FFFF40420F004FF00042C3
S2140039D038B5174B174C5A66012203F50C235A606C
S2140039E04AF6CD33656C2364437893401343124AFA
S2140039F0D363C3788178A2689B0043EA011322F060
S214003A0074021343A3600279837943EA0223236195
S214003A104279C37943EA022363610078FFF77AFFAD
S214003A20EB0744BF054B23641EF046F9012038BD62
S214003A300090005000400950004000503254FFFFF4
S214003A40F8B504460D461F4616464AB101238B407C
S214003A503021184A01FB0022F7B141F21001535001
S214003A6004EB4403072D4FF00F014FEA031316D85B
S214003A70A80006FA00F281400F48184416F0D1FC60
S214003A804EB9012330210B4AAB4001FB042277B12B
S214003A9041F210015350F8BD42F21001DFE7A5F1E4
S214003AA00800800006FA00F281400448E5E742F28A
S214003AB01001EFE700C0035004C003500CC00350D1
S214003AC010B5152000F0EAFD0024FF22064B214623
S214003AD05C6520209A625C60FFF79EF92146BDE88F
S214003AE010402120FFF798B900000450044A054B07
S214003AF0002908BF1346012282401A60704700BFA3
S214003B00401004504020045010B5012104462020E7
S214003B10FFF782F901212120FFF77EF90122114BE0
S214003B2015205A60227812069A606178A27842EAD6
S214003B3001429A61FF229A6200229A631A644FF049
S214003B4000425A654FF0FF3203F500531A6500F045
S214003B50D3FD1520E17816F000FDBDE810401520D5
S214003B6000F0AEBD00000450F8B50125C3B21E4FEC
S214003B70D1F800C09D408E7ACB7A0C46097B3D6515
S214003B8007F5005747F820C04FF0300C0CFB00F04C
S214003B901B05677B00F1A04043EA064300F5802042
S214003BA043EA415322F003020766C365026721F029
S214003BB0CBFC0E4B227A5D6502B11D64627A02B1BF
S214003BC09D632279A37943EA0243074A93616179A8
S214003BD0E37943EA014305498B61054B55639D64D0
S214003BE0BDE8F84021F0ABBC0020045000100450A3
S214003BF00000045010B50124C0B2844021F0A4FC9B
S214003C00044B5A6D22EA04025A659C62BDE81040D5
S214003C1021F095BC0000045010B50124C0B28440C9
S214003C2021F092FC074BDA6A224208D15B6B9C4378
S214003C300CBF0124002421F082FC204610BD002485
S214003C40F9E700BF0000045070B5054621F07CFC83
S214003C503022084B5E6B02FB05335C6E21F06FFC76
S214003C600123EDB2AB4033420ABFC4F30A10002072
S214003C70013070BD000004504FF40032054B9A66C8
S214003C8041F6713203F51C33DA63012203F5005363
S214003C90DA6070470090005041F671320121064B01
S214003CA0DA6303F50052D1600022DA634FF4003283
S214003CB0A3F518339A66704700000350CB784A780D
S214003CC010B55B010C7843EA82030A79234343EA82
S214003CD002130C22424302F1B0421363012C02BFCE
S214003CE08A78024B43F8202010BD00BFE8800350BE
S214003CF008B54FF0B0435A686AB958B15B680BB163
S214003D0016F09EFB01210D4B596016F099FB4FF003
S214003D10B043D96008BD5B680BB116F091FB002874
S214003D20F0D116F08DFB4FF0B0430222DA6016F0A9
S214003D3087FB0122024B5A60ECE700BF00100058D8
S214003D40002000584FF0B0414B6810B50BB116F08C
S214003D5077FB01220B4BC4785A608378934043EA82
S214003D60840344782343047943EA0413447943EAFA
S214003D70C4038B60044B5A600378C3F10203CB6024
S214003D8010BD00BF00200058001000584FF48032CD
S214003D90064B5A6603F5E6235B69C3F38512827009
S214003DA003F03F021B0B42700370704700900050F8
S214003DB0014B986CD96C70470080E00F024B186876
S214003DC0C0F30740704700BF0080E00F0120034BA0
S214003DD09B680A3303F01F03984070470080E00F8B
S214003DE070B5054616461C4621B94FF42070FFF7FD
S214003DF033F80146402C1BD003D8DCB1202C1BD056
S214003E0070BD602CFCD1042303FB06F2530803EBC1
S214003E104113B3FBF2F36021084A203B02EAC303D6
S214003E2005F50052916005F580529460EB61E7E776
S214003E300623E9E71023E7E70823E5E7F8FF7F0016
S214003E40012200F580535A6040F6AA6341F205024B
S214003E50436100230B498360C365C26000F50052CE
S214003E600361C361C364916407498365884203D1D3
S214003E7003650023436502E004498842F8D0012325
S214003E8053607047FFFF010000C005500000065059
S214003E9070B50D46FFF7D4FF012300F5805673601A
S214003EA0AB7C04461BB1836843F080438360EB7CA5
S214003EB04BB1344A2B7D944243D1A2F51032C2F85E
S214003EC08C318023F3652A8A6B7B20461343EA896C
S214003ED01343E3602B7BD5E90112FFF781FF6B7D6F
S214003EE01BB1A36843F48033A360AB7D1BB1A3680A
S214003EF043F40043A360EB7D2A7E1B07120502F401
S214003F00E00203F0E0431343A365697E1D4A8B1E5F
S214003F10012B1D4B1FD894421BD002F580429442C1
S214003F200CBF01224FF0FF3203EB4213022041F296
S214003F301C620329985020D10423F3652B78636113
S214003F4070BD124A944204BFA2F52032C2F89C31DA
S214003F50B7E70022E8E794420DD00C4A94420CBF23
S214003F6001224FF0FF3203EB4213022042F21C62A2
S214003F7001299850DFE70022F5E7042204F50053F4
S214003F80DA65DBE700C0055000C0035000000650AD
S214003F90034BD3F82424D3F820041040704700BF06
S214003FA000C003502DE9F8431E4B0546D3F81033E6
S214003FB04B1E0E2B0E46174690F8009044781DD9DF
S214003FC009B34FF000082846D7B121F0C3FA09EB31
S214003FD04903072C4FF00F014FEA031315D8A4002E
S214003FE0114808FA04F2A140184416F045FABEB982
S214003FF028468FB1BDE8F84321F0ACBA8846E2E720
S21400400016F049FAE3E78846E1E7083CA4000748CB
S21400401008FA04F2A140E7E7BDE8F84316F03BBA19
S214004020BDE8F88300C0035004C003500CC0035022
S2140040304FF48032084B5A6603F5E6235B691A0B89
S214004040027003F03F0242704FF6FF72C3F385130F
S21400405042808380704700BF00900050014B986CF0
S214004060D96C70470080E00F70B504461DF0F0FE76
S214004070064630B90FCC044D0FC594E8030085E81A
S2140040800300304670BD00BFB018002047F6FF732F
S2140040909A42F0B56FD002296FD8394B5B5C012B82
S2140040A06BD8384DDF0005EBC30415F83330A17824
S2140040B0012B13D10025E078401AA84202D8084404
S2140040C0C0B2F0BD431B6668A0EB530336F913601D
S2140040D09642D4BF1D4603F1FF30EEE76068002825
S2140040E0EFD0B0F90040944204DBB0F902409442AD
S2140040F0B8BF144683883D44FF2B19BFC8224FF033
S214004100280CB0F90620B0F908C0A2EB04030CBFD7
S2140041100126002693FBFCF333446E781BB29E42C6
S21400412001DD002B01DA731E1BB24FF47A7C0133DB
S2140041309BB2071D5D1E2DB24FEAC50E00EBC505EE
S214004140EA88AD689E4214FB025222EAE27202F14D
S2140041505C02B2FBFCF204DD37F8335001339542C3
S214004160E8D200EB0E039888904228BF104688429B
S21400417038BF0846A4E7FF20A3E70020A1E700BF5A
S214004180DF5A0200B01800200229F0B555D82C4B93
S214004190585C012851D82B4C04EBC00114F83000B1
S2140041A04B6801280FD1C8788C78904294BFC4EB36
S2140041B00001C4EB0201001BCAB28242C8BF002243
S2140041C033F91200F0BD002B37D08878904202D326
S2140041D0B3F90200F6E7CC78B3F900009442F1D9BF
S2140041E04C789988013CA1F1FF06714203F1040561
S2140041F0E4B2714103F10C07CEB2B44216D805EB17
S214004200C1014FF47A756A43B1F902404968521AFF
S21400421004EBD47102EB610292FBF4F29042D1DB24
S214004220B3F902009042CDDC10B2CBE737F831C0CC
S2140042304E1C9445E3D33146DEE70348C2E700BF91
S214004240DF5A0200B01800200080FFFF08B50448BF
S214004250FFF70AFFBDE8084001201DF0FDBD00BFC6
S214004260245F020000487047002C00207FB5022221
S214004270084B0949CDE901234FF00073CDE903133C
S214004280052301A94FF0FF3005931DF03CFE07B053
S2140042905DF804FB006A18000002040006289ABFB6
S2140042A0014B185C00207047E35A02004FF400529E
S2140042B0034B00209A660322C3F86022704700BFB3
S2140042C0009000504FF40052034B00209A660322E1
S2140042D0C3F86022704700BF00A000502DE9F04FE1
S2140042E089B007460E4601F03FFAC00709D40424F9
S2140042F0012016F0B6FF80B3013CF9D16FF09200B2
S21400430028E0102200210DEB02001EF093FB04A80B
S21400431001F08CFA049B002BE9D0059B002BE6D01D
S214004320069B002BE3D0079B002BE0D00025DFF890
S214004330808008F10409B54219D34FF48A7401F05D
S2140043400DFA00F00E03062B2DD1C30501D501F0A2
S21400435037FA002009B0BDE8F08F01F0FFF910F041
S2140043600E03FAD0022BF8D04105DFD5C4E701F0E2
S214004370EFF9A6EB050A8400544528BF544699E891
S214004380030000238DE80300CDE9054307EB050B8A
S214004390CDF810B0029404AAD8F8003007CA16F078
S2140043A002FF2544C7E724FA03F3DA07A6D5C6E7D3
S2140043B0085B020070B504460D4621F0C5F81D2CBA
S2140043C0064608D80C2C0AD8082C2CD013D8BB23A9
S2140043D0E340DB0718D4002321242B801EE00123B2
S2140043E0174AA340134224D1122C26D00D2CF2D10A
S2140043F04FF4F06005E0092C18D00C2CEBD14FF4EC
S214004400C060FEF71FFF02E08020FEF739FF4FF680
S214004410FF7398420CBF0E2400242880304621F0FB
S2140044208EF8204670BD4FF48060EEE74FF4906043
S214004430EBE700230F242B80F0E74FF4E060E0E783
S2140044400080912030B58BB06C466B4D0FCD0FC4FD
S2140044502B686A4A2360FF238DF80130D2F84C316E
S21400446013F4802340F0BC80D2F850218DF8013040
S2140044709DF801306C46FF2B08BF19236846604D37
S2140044808DF80130FEF7AAFF3220FEF7E5FF0FCDCC
S2140044900FC40FCD0FC495E8030084E80300574B04
S2140044A0D3F84C21120340F18780A3F5FE431C8805
S2140044B0B4F5807F28BF8C248DF81940FEF788FF5E
S2140044C0044484F308044F488DF81840FCF72CFB8E
S2140044D06846FEF7E1FE3220FEF7C4FF4A48FFF7C3
S2140044E0A7F84A4C4A4821F010F90020FEF7C0FF12
S2140044F0FFF754F8236F002023F0070343F003036D
S2140045002367FFF775F8236F424923F47443236744
S214004510414BD3F8FC2012F0807251D1C1F88020B4
S2140045203A4BD3F8202122F0030242F00202C3F8ED
S2140045302021D3F8242122F0070242F00202C3F819
S2140045402421D3F8802122F0030242F00102C3F8AE
S2140045508021D3F8402122F0030242F00202C3F881
S2140045604021D3F8602122F0030242F00202C3F891
S2140045706021D3F8402222F0030242F00202C3F880
S2140045804022D3F8002222F0070242F00202C3F8CB
S2140045900022D3F8202222F0030242F00102C3F8E0
S2140045A02022FEF737FE4FF0E0220020136943F08A
S2140045B0040313610BB030BDD3F85041E4B27BE77F
S2140045C0D3F8FC2022F08072C3F8FC200022C1F849
S2140045D08020D3F8FC2042F08072C3F8FC209FE7CE
S2140045E04FF07E6393F89C2093F99C30002BFFF6E7
S2140045F03FAF8DF801203BE7145B02000080E00F20
S214004600285B020000F0490200B4C4040080005099
S2140046105C5B02000090005000ED00E007B56B46C2
S214004620054A1068516803C36846FFF7CFF90020B3
S21400463003B05DF804FB00BF505B02000028ACBF6F
S21400464000F16040064B4FEA0111C9B2ABBF00F55E
S214004650614000F00F0080F800131954704700BF47
S21400466014ED00E008B520F06FFF0B4B1A7872B916
S21400467001221A7020F063FF6FF004021046013228
S214004680052152B2FFF7DAFF402AF7D108BDBDE890
S214004690084020F054BF00BF7B27002000280CDB1A
S2140046A001220649430900F01F008240203341F8EA
S2140046B02320BFF34F8FBFF36F8F704700E100E0FA
S2140046C0002807DB01234109034A00F01F0083404E
S2140046D042F82130704700BF00E100E0054B421170
S2140046E053F8223000F01F0023FA00F0C04300F019
S2140046F00100704700E100E0002808DB01224309C2
S214004700034900F01F008240603341F823207047C1
S21400471000E100E010B5044620F00DFF024B1C60DF
S21400472020F004FF002010BDCC18002010B520F0AB
S21400473002FF034B1C6820F0F9FE204610BD00BFA8
S214004740CC180020034B0222186800238068194604
S21400475012F0E4B8882B0020302337B5007D0DF129
S2140047600701434303F1A04303F58023DD6E1C6F6E
S2140047701FF070FE9DF8070040B9054B9D4203D11F
S21400478084F00204C4F3400003B030BD0120FBE710
S2140047907C2700203021037D02464B4303F1A043D3
S2140047A003F58023D86E07491B6F884208D113F0A3
S2140047B0020006D0106A136D1B1A58425841704703
S2140047C0002070477C27002070B5044608B90120F9
S2140047D070BD057D2846FCF70DFD30236B4303F1C5
S2140047E0A04303F580232846DE6EFCF723FD0A4B24
S2140047F09E421CBF042384F8A13094F8953094F8A8
S214004800A1002BB1022803D1012384F8A130DFE7F1
S2140048100428DCD1F8E700BF7C2700202DE9F74309
S214004820D0E9043404F17C07D0F80C900646013B2E
S214004830102200213846D4F874809DB21EF0FAF893
S2140048400B4BC5F30A0543EA0513C4E91F390123D8
S21400485094F8780084F88C30C4F884803A46054B87
S214004860009604F16401FCF79FFC03B0BDE8F083FA
S214004870000010309DA601002DE9F04F04464FF4CD
S21400488044764FF030093F4D00F1380710220021E2
S21400489085B038461EF0CEF86687C4E90F55207DF1
S2140048A0FCF7A8FC1022002138461EF0C3F86687E5
S2140048B0207D354EC4E90F5509FB0063DB6EAB4225
S2140048C004D105B0BDE8F04FFCF7B4BC0DF10B0108
S2140048D01FF0C0FD9DF80B50002D4CD1204615F062
S2140048E0C1FE804603A9207D1FF0D6FD039B294606
S2140048F0013B1FFA83FB04F118031D4610221846DD
S214004900D4F810A01EF096F8A169204ACBF30A034B
S2140049101B010A4043F040731343C4E9063A237D63
S214004920C4F8208009FB0366336F94F824205B08E4
S21400493063F3410284F82420326F94F8243025F083
S214004940030562F3000384F82430336F626A9B0821
S21400495063F39F0245F002056262656400943A467E
S21400496021460B4B207DFCF71FFC207DFCF762FCEC
S21400497005B0BDE8F08F94F844306FF3410384F837
S2140049804430EBE77C270020000004500F80FFFC3B
S2140049900BA701002DE9F04F9946002304468DB081
S2140049A008910692C9F80030D9F80050069B5E1BA5
S2140049B000F09E80089B5D1900F09A80207DFCF731
S2140049C019FC2046FFF7E6FE8046207DFCF732FC09
S2140049D0B8F1000F40F08C80204615F043FE216DA4
S2140049E094F89AA088429CBFD4E91203C018401AD3
S2140049F0864228BF0646BAF1000F00F0A98020F0D4
S214004A00A3FD236D079020460993FFF7A5FE3746C2
S214004A10099B834698198342D4F89C2071D1D4E927
S214004A20120303449A4208BFC4F89C00079820F07B
S214004A3086FDDA46207DFCF7DDFB0DF12F01207D9B
S214004A401FF008FD204615F00DFE236D83469842A4
S214004A5040F28C80A26CB5B293427FD1099304F1E8
S214004A602808236910220021404607931DF0E2FF24
S214004A703021079B013DE362099BC5F30A052363CA
S214004A80237D2D014B4328F0030803F1A04345F096
S214004A90407548F0020203F58023A5621A67236D6D
S214004AA0D4E9121233440A44934208BF0B465B45CE
S214004AB0236505D10123204684F85430FFF7DCFE39
S214004AC0207DFCF7B7FB94F89A303BB1BAF1000FA3
S214004AD004D0236E112120465B689847D9F8003031
S214004AE037B1069A3B449342C9F80030FFF45CAFF6
S214004AF0D9F80030002B14BF00201B200DB0BDE8F5
S214004B00F08F013303F1FF3C624510D1C4F89C30AE
S214004B1013F8012C112A01D0132A15D1013FA2F156
S214004B2011014A424A41D04684F8A02073E713F8A0
S214004B30012C02F0FD0CBCF1110F06D1013FB8F1BB
S214004B40000F3FF468AFEAE7D04605F8012B62E7AE
S214004B50324628461DF079FF37466BE7238DC3F3B0
S214004B600A12154465F30E13238598E79DF82F3037
S214004B70207D93B93023584300F1A04000F58020F3
S214004B80426E436EC2F30A1223F4FF43324423F00C
S214004B90700343EA0213436681E70C4B04940393C5
S214004BA00023CDE90163012300935A462369216857
S214004BB014F0FFFE3022237D534303F1A04303F598
S214004BC080235A6E22F480125A6668E70BA701000B
S214004BD0F0B50C4615460646A422002189B02046AC
S214004BE01DF028FF2746AC46BCE80F000FC7DCF8D0
S214004BF0003005F1140C3B6004F16407BCE80F00BC
S214004C000FC7DCF80030EA6A3B60AB6AC4E91323DE
S214004C1095F83020A36484F8992095F83320C4F8DA
S214004C209C30012384F89A2084F8A03084F854300D
S214004C30AB6B236695F8313084F898303F4B346080
S214004C4073603F4BB3603F4BF3603F4B73613F4B2A
S214004C50B3613F4B3361FCF773FA10B13D4B98429A
S214004C600ED1002107A8FCF7F3F9014640B9079BCF
S214004C7007A82375FCF7ECF928B1207DFCF73AFA73
S214004C80102009B0F0BD0127079B84F87830324B1E
S214004C907362324B84F8A170F361314B95F8321091
S214004CA0336284F8960084F89570204615F0FDFD72
S214004CB0AB6B93F91100FFF71FFDAB6B93F9110077
S214004CC0FFF7FEFC207DFCF795FA0028D8D1254B8F
S214004CD00494CDE90203E36CCDE900732369A26C6A
S214004CE02168207D14F065FE0028C9D13022237D7E
S214004CF04FF48011534342F2640203F1A04303F5DC
S214004D0080239950AB6B93F91000FFF7F5FCAB6B63
S214004D1093F91000FFF7D4FC04F1900014F0CDFDD9
S214004D203046FFF7F7FC2046FFF7A6FD207DFCF790
S214004D3081FA003818BF01200001A2E77BA7010016
S214004D40C5A601009549000053A6010059A601001A
S214004D5023A90100038000F0C9470000ABA80100AA
S214004D605FA601000BA7010070B50568144E2C7DE8
S214004D702046FCF73FFA302303FB0463DA6E114B40
S214004D809A420FD12846FFF7E7FC80B120F0DCFB03
S214004D9001230D4AA3405365A2F5805293625363E4
S214004DA020F0CDFB2046BDE87040FCF743BA28460D
S214004DB0FFF7F0FC0028F5D10123A340B364F1E728
S214004DC0000004507C27002000200450F8B5174649
S214004DD01C46564A8B6B069D1A60554A5A60554AC1
S214004DE09A60554ADA600A462946FFF7F1FE0646FB
S214004DF0002840F0958023680121C5F8A430636838
S214004E003A20C5F8A830637A85F8AD30237A85F85D
S214004E10AC30E37A85F8AF30A37A85F8AE30637BA2
S214004E2085F8B130237B85F8B030E37B85F8B33066
S214004E30A37B85F8B230FDF7EFFF01230422617AE9
S214004E40207AFEF7FDFD01230222E17AA07AFEF722
S214004E50F7FD01216068FDF7DFFF3E7039462068E8
S214004E60FFF716F81422637C5B0103F1A04303F5F9
S214004E707033C3F81C26617A227A42EA0142C3F8EC
S214004E803426E17AA27A42EA0142C3F82C2685F853
S214004E90B4607B7E032B47D8DFE803F03444021C63
S214004EA0022385F8B43000230422E17BA07BFEF7C2
S214004EB0C7FD022741F21C61627C204B03EB4210C7
S214004EC04750E07BA17BB13241EA004103EB42133D
S214004ED0996017E0012785F8B43002220023617B31
S214004EE0207BFEF7ADFD637B227B617C42EA0342BA
S214004EF0134B49015A500422236803F58053DA65A0
S214004F00002FD0D1237A0F4A85F8AC30637A05217A
S214004F1085F8AD30206800F500539A6415F098FACD
S214004F203046F8BD0027D6E72326F9E7E5A90100B5
S214004F3077AA010085AA0100F9A9010000C0035064
S214004F4024D60350FFFF010007B5684600F028F896
S214004F50DDE900010022034B03B05DF804EB16F018
S214004F60A8B800BFD018002007B5009313460A461D
S214004F700146034815F0E5FD03B05DF804FB00BFED
S214004F80D018002007B5009313460A46014603488A
S214004F9015F0BCFF03B05DF804FB00BFD01800207E
S214004FA00249034A0160521A42607047502C0020A2
S214004FB00080002000487047D0180020BFF35F8FA5
S214004FC0074B5A6A22F480325A62D3F8942022F0B1
S214004FD00102C3F89420BFF34F8FBFF36F8F704763
S214004FE000ED00E038B5FFF7E9FF274A2748D2F87A
S214004FF0C030274D23F0FF0343F0A003C2F8C030B3
S214005000244B04689D4204F101011DD1224BC2F8D5
S2140050109840C2F89C3003F5FF437E33C2F8A030B8
S2140050200160BFF35F8F0522174BC3F894205A6ABE
S21400503042F480325A62BFF34F8FBFF36F8FBFF3D5
S2140050404F8FBFF36F8F38BD23F01F03203BB3F1A4
S214005050005F09D3C2F898400F4C43F00103C2F832
S2140050609C40C2F8A03001600C4B0168064A23F051
S2140050701F0343F00303C2F89810C2F89C30084B95
S2140050800131C2F8A030CBE700ED00E0F8180020B0
S214005090402A002060280020030000205F2A00200D
S2140050A0E17F00202DE9F0410D461146DFF8E08053
S2140050B0D8F80040B4F5807F34BF00271A27FFF7E2
S2140050C07DFF1F292ED90021C2061CBF20F01F001D
S2140050D020302E4EEB0618BF25F01F05CBB29C42A3
S2140050E035D8D6F8C03020F01F0023F47F4343F4B1
S2140050F08073C6F8C03040F0030420F025FAD8F8D4
S214005100003025F01F0141F00301C6F89830C6F8BC
S2140051109C40C6F8A01020F012FAD8F800300133F0
S214005120C8F80030BFF35F8F0522184BC3F89420F1
S2140051305A6A42F480325A62BFF34F8FBFF36F8FC2
S214005140BFF34F8FBFF36F8F3846BDE8F081C6F8C8
S2140051509830D6F89C30D6F8A02023F01F0398424B
S21400516022F01F0201D195420BD0904201D89D42F9
S21400517009D2D6F89830013123F0FF03C6F89830EC
S214005180ACE70027CEE72827CCE700BF00ED00E01D
S214005190F8180020BFF34F8F0549064BCA6802F483
S2140051A0E0621343CB60BFF34F8F00BFFDE700BF45
S2140051B000ED00E00400FA0538B54160044620F032
S2140051C0BAF905462146044814F07AFB2846BDE89D
S2140051D0384020F0ABB900BFFC180020014814F09E
S2140051E06CBB00BFFC18002070B520F0A4F9174E69
S2140051F00546174820F089FA3378CBB900F07CF9D9
S214005200044620B1284620F091F9204670BDFFF7ED
S214005210E5FF20F036FB0F4B1C601FF0E9FF0E4B3E
S2140052200E4A1860536F43F00103536715F061FF91
S21400523000F078F815F074FF094B0024186001237D
S2140052402846337020F072F9DFE700BF8927002078
S214005250605B020000190020281900200040005062
S2140052600419002038B5044620F065F90F4D0246B3
S2140052702B78FF2B04D1B4B1BDE8384020F056B9E6
S2140052801BB9002CF8D0012103E0002C0CBFFF2135
S21400529001210B44DBB22B70B3FA83F304495B099C
S2140052A010460B70E8E71946F3E700BF8627002094
S2140052B085270020054B1B685843054B00F57420D6
S2140052C000F23F20B0FBF3F0704700BF2819002023
S2140052D040420F0073B5114E0446337883420FD018
S2140052E04FF400730E4DADF8043058B101A8FEF728
S2140052F065FA4020FFF7DEFF2B68181A2860347026
S21400530002B070BD8DF8050001A8FEF757FA4020E0
S214005310FFF7D0FF2B681844F0E700BF2B2C0020C7
S2140053206019002073B5002401A88DF80440FEF72C
S214005330E7FA2046FFF7CEFF2C4B2D4AD3F8003174
S21400534003F0030313604FF400222A4B5A664FF40F
S21400535000325A661FF0B2FC4FF4C870FFF7AAFF7F
S214005360254B264A1860264913680134E4B20A2CF5
S21400537041F8040BF9D1034400EBC000034413606A
S214005380204B214D1B7813B3184BD3F8003103F094
S2140053900303022B23D0032B24D0012B17D11EF09E
S2140053A0F3FF024698B1194B194EDC6800231946E4
S2140053B0C4F30B04013404EB84040138E4FB060157
S2140053C011F066F8FFF776FF2B6803442B601F206A
S2140053D0FFF770FF2B6803442B6002B070BD1EF011
S2140053E0DDFFDEE71EF0D6FFDBE700BF00800050E3
S2140053F068190020009000502C1900203019002059
S214005400341900208D2700206019002000C00150AC
S21400541040420F000122154B10B55A67144B154C2D
S2140054201B7813B3022020F01DFAF0B11FF032FFF4
S214005430D8B1A36DD90302D5E36D9A0715D40D4BE9
S2140054409B6DDB0711D401220B4B1A7020F0FEF97E
S214005450BDE81040094B0A4A1860136F23F0070393
S21400546043F0030313671EF075BF10BD00D0005055
S2140054708E27002000C000508B2700205C190020DB
S214005480008000500122014B1A7070478E270020C2
S21400549008B5FFF759FDFEF791FC01280ED1134B16
S2140054A004205A6E4FF480231149520358BF114A04
S2140054B04B6601F51041086258BF536615F034FE7E
S2140054C0FFF7D0F8FFF7AAF815F045F8FFF78CFEBF
S2140054D000F012F8FFF786FD15F027FE15F034FEF3
S2140054E014F056F9BDE8084015F020BE00800050C4
S2140054F00090005000A0005070B520F025F8144E23
S21400550005463478FCB9134B1C60134B1C60134BD8
S2140055101C6000F02BF801201FF0A4FF1FF096FF80
S2140055200F4B0246186020B9284620F008F82320C2
S21400553070BD234640F2E7310A4810F0A9FF0A4B37
S21400554018600123337028461FF0F9FF0020EFE7AC
S214005550912700207C19002078190020841900204B
S2140055608019002018FCFFFF741900201FB50024C6
S214005570194B18689A880290D3F806009B7A009018
S2140055801648ADF80C208DF8043020F0BEF802A8BE
S2140055908DF808408DF80C40FEF7D4FB69460120D4
S2140055A08DF80040FEF78AFB40F2FF320C4B9A6102
S2140055B05A614FF0B042936A13F00803FBD11362AE
S2140055C00120FEF795FB0C20FFF796F80C20FFF75E
S2140055D077F804B010BD00BF735B0200585B020092
S2140055E00020005810B51FF0AFFF4FF0B043044640
S2140055F05B695A06074A03F0010003F0510348BFEF
S21400560040F0020053611FF05BFE2046BDE81040EC
S2140056101FF095BF0020005830B585B0044604F052
S21400562099FA002845D10323A38340F2FD53238330
S2140056300423A376A368A07743F48013A36015F031
S2140056409AFDA368A0801B030CD4B0F5FA7F09D995
S2140056501FF071FF0121054608461FF0A3F92846F2
S2140056601FF064FF204604F0A1FA18BBE06818B3E8
S21400567005F044FB03F0D2FB16F03DFF17F038FFB1
S2140056800E4A01AB10685168127A03C301A81A705B
S21400569017F037F870B902460146042019F0FBF8F7
S2140056A00321042001F0D4FD0A2000F0A7FD15F028
S2140056B06FFD002005B030BD0148D9E77E5B0200D3
S2140056C02D2C002008B50449044809F077FFBDE8F2
S2140056D0084009F0A5BF00BF885B0200185C020006
S2140056E04FF08052014B5A60704700BF00ED00E05B
S2140056F0F8B50E460546D0B1C9B10E4B0E4F196827
S2140057003868FCF7D9FD044678B9062332460B49BB
S2140057103868FCF79FFE044638B901232A46084934
S2140057203868FCF797FE00B12C702046F8BD21249F
S214005730FBE700BF902A0020B02A00202C000400BF
S2140057403C000400014B1868704700BF0040025C34
S214005750014B5868704700BF0010025C014B186B85
S214005760704700BF0010025C014B1868704700BF0E
S2140057700010025C014B9860704700BF0010025C8E
S214005780014B1864704700BF0010025C014B586460
S214005790704700BF0010025C014B5863704700BFA3
S2140057A00010025C0022014B1A6070470010025C79
S2140057B0024A136843F00103136070470010025C4E
S2140057C0024A136823F00103136070470010025C5E
S2140057D043F20402014B1A60704700BF0010025CDF
S2140057E0024A136843F03003136070470010025CEF
S2140057F0044B1A6842F480721A601A6822F48072A7
S2140058001A6070470010025C024A136843F4806313
S214005810136070470010025C034A136823F4702379
S21400582043EA0043136070470010025C044B1A6999
S21400583002605A6942609A698260DB69C360704799
S2140058400010025C0268044B1A6142685A61826862
S2140058509A61C268DA6170470010025C024B1A6BEC
S214005860D207FCD4186270470010025C82B01FB5E5
S21400587007930A9B04AC8B4228BF0B4604E907003B
S2140058801048D100079948BF03330160099948BF03
S21400589023F0030323F0704301F0E041194341F085
S2140058A000518160002102F0E042019C1A4342F060
S2140058B00052C16004618261416304B0BDE81040DB
