S02B000062745F736F635F656E657267795F68617276657374696E675F6170706C69636174696F6E5F6F627341
S214000000C00A0020290B000029BA010029BA010005
S21400001057C6010029BA010029BA010029BA010011
S21400002029BA010029BA010029BA010029BA01003B
S21400003029BA010029BA0100C7C7010029BA010080
S21400004029BA010029BA010029BA010029BA01001B
S21400005029BA010029BA010029BA010029BA01000B
S21400006029BA010029BA010029BA010029BA0100FB
S214000070D955000029BA010029BA0100150A000066
S2140000801FB9010029BA010029BA010029BA0100E6
S21400009029BA01006912000029BA010029BA010034
S2140000A029BA010029BA010029BA010029BA0100BB
S2140000B029BA0100D185010029BA01008D900100FE
S2140000C0B5480200B14802007D880100C148020020
S2140000D0B948020061900100BD480200CD900100C1
S2140000E081670100456901003D91010029BA0100C0
S2140000F029BA010029BA010029BA010029BA01006B
S21400010029BA010029BA010029BA010029BA01005A
S21400011029BA010029BA010029BA010029BA01004A
S21400012029BA010029BA010029BA010029BA01003A
S21400013029BA010029BA010029BA010029BA01002A
S21400014082B030BF074BD3F8F030DB0704D500236E
S2140001500193019B052B01DD02B07047019B013323
S214000160F6E700BF00ED00E0F0B5114A114C124E64
S21400017000F00105E3695F0713D40DB9334213D1CC
S21400018003EA00078F4207D10B4A1A40002A0CBF29
S21400019000206FF00100F0BD013AEBD16FF00200D5
S2140001A0F9E74FF0FF30F6E76FF00100F3E700BF26
S2140001B08096980000000350020001000B4B70B5BB
S2140001C0D96911F480310DD101244FF48072084EA4
S2140001D0084DF46020462C641A61FFF7C5FF3464AE
S2140001E0EC6070BD6FF00100FBE700BF000003503D
S2140001F000100350002003504FF4003238B50F4B68
S2140002000F4C9A6641F671330122E569E3630D4BA4
S2140002100021DA60022360612120236105F4803525
S214000220FFF7A2FF10B92120FFF79EFF0122064B21
S214000230DA600DB10023E36338BD00BF00900050C4
S21400024000000350001003500020035070B5134CFC
S2140002506061E3695B071ED40E4656F8043B8D18B2
S214000260A361AE420BD10423002121202361FFF7B6
S2140002707BFF58B9BDE870402120FFF775BF082105
S2140002800846FFF771FF10B10423236170BD56F8CE
S214000290043BA361E5E74FF0FF30F7E700000350AB
S2140002A02DE9F84315464FF40032184B89469A66F6
S2140002B041F6713203F51C33DF69DA630122064624
S2140002C003F58053DFF84C8007F48037DA6055B9C1
S2140002D0284601220E4BDA601FB10022A3F5005318
S2140002E0DA63BDE8F88306F5005404EA0804A41BA4
S2140002F0AC4228BF2C46494622463046FFF7A6FFAA
S2140003000028E6D12644A1442D1BE0E700900050CB
S2140003100020035000E0FFFF000000000000000087
S214000320002370B5404C05468AB0E36318B10088D8
S21400033023600AF0E9FF3D4823F03BFD3C4E3D4B71
S214000340304633603C4B73601FF0BCFF00213046E4
S21400035011F0A2FF32A3D3E90023A062C4E906236A
S2140003601FF0BBFFD4E9062319431043C4E9060176
S214000370CDE900014FF0FF334FF0FF32A06A23F0C3
S214000380A0FD02224FF0FF31A06A23F09FFD01205E
S2140003900AF006FD4FF4007300222849A06A23F0F5
S2140003A0E9FDB0F5007F38D100239422CDE907336C
S2140003B009933C23CDE9033205939623A06A03A94B
S2140003C0069312F051F835B3287C0BF0D7F90546A2
S2140003D0F0B9A06A23F0AEFE0BF07EF90AF0C2FC7C
S2140003E020B14FF48070002107F0F8FE0AF0CAFC36
S2140003F020B14FF40060002107F0F0FE20F093F8E3
S214000400012011F09FFF0E4A0E49A06A1FF058FF08
S21400041028460AB070BDFF20D7E70725F8E700BFDB
S2140004200DD5015520000000300B0020690345EC77
S214000430241D002025AC0000341D0020241B0020B5
S21400044069020200A90202000348044B834202D05C
S214000450034B03B118477047C0290020C02900206D
S21400046000000000064B0749C91A891048BF013131
S214000470491003D0044B0BB101481847704700BF22
S214000480C0290020C02900200000000010B5064C3E
S214000490237843B9FFF7D8FF044B13B10448AFF3F2
S2140004A000800123237010BDF62400200000000009
S2140004B038A7020008B5054B1BB105490548AFF340
S2140004C00080BDE80840FFF7CDBF00BF0000000079
S2140004D0980D002038A70200A3F5803A704700BFA9
S2140004E0174B002B08BF134B9D46FFF7F5FF002167
S2140004F08B460F461348144A121A24F082FA0E4B03
S214000500002B00D098470D4B002B00D098470020BA
S214000510002104000D000D48002802D00C48AFF35F
S214000520008019F0D9F9200029001BF09EF919F077
S21400053019F800BF000008000000000000000000DE
S214000540C00A0020C00A002000260020000000008C
S214000550000000000122014B1A7070479429002009
S21400056008B51BF012FA1BF011FA034B0349186882
S214000570BDE808401BF009BE500E0020B060020027
S2140005802DE9F04F0368AA4A23F47F4323F00703BC
S214000590934204468DB006D002F5802293426FD077
S2140005A00DB0BDE8F08FA34C00222346012144F293
S2140005B065000EF095F923789F485BB31BF07AFA36
S2140005C00422002011460EF0B7F99C4C054620B3D5
S2140005D09B4920681BF0D9FD9A4920681BF0D5FD81
S2140005E01BF0D3F91BF0D2F9974B984A0093984921
S2140005F0772320681BF0C9FD96492B46964A20684B
S2140006001BF0C3FD284600F03DFA944920681BF015
S214000610BCFDFEE71BF051FAD2E7022101200EF0E6
S214000620A3F9054608B3864920681BF0AEFD854948
S21400063020681BF0AAFD1BF0A8F91BF0A7F9824B57
S214000640824A009382497C2320681BF09EFD8149E4
S2140006502B46814A20681BF098FD284600F012FAC7
S2140006607E4920681BF091FDFEE71BF08EF91BF01B
S2140006708DF97B4920680DB0BDE8F04F1BF085BDB5
S2140006800025877DDFF8E481DFF8049200F1170A81
S214000690AF4285D90AEB05035B781AF80560083B7C
S2140006A0012B13D805F1020BD344721E414658465F
S2140006B0099224F07CF9002800F09C8049465846B0
S2140006C0099A24F074F9002800F0AD8001362E4413
S2140006D0F5B2DDE71870574B1A7872B318705648A3
S2140006E01BF0EBF9012144F26500524A0EF0E2F8E5
S2140006F0054640B3514C524920681BF046FD51490F
S21400070020681BF042FD1BF040F91BF03FF9554BEB
S2140007104E4A00934E49B32320681BF036FD4D49E0
S2140007202B464D4A20681BF030FD284600F0AAF9FB
S2140007304A4920681BF029FDFEE701223E481A7050
S2140007401BF0B8F9CEE748480DF12B0104F048FD40
S2140007509DF82B30002B36D00025444E374F1BF02B
S21400076014F91BF013F9D7F800801BF0D9FF94F9A1
S2140007700D3002460793A37B4046069363793C49B7
S2140007800593A3790493E3790393237A0293637A18
S2140007900193A37A009333461BF0F7FC334B9E423B
S2140007A025D1244B334A1978334B002918BF1A46F3
S2140007B0324938681BF0E9FC1BF0E7F81BF0E6F856
S2140007C02F49386857E74FF47A700BA904F08CFD70
S2140007D00028C1D1254E00252A4A2B46CDE90055D2
S2140007E00B9921481BF078FF002EB7D1D8E62A4691
S2140007F02549DEE7254B1A78002A7FF46BAF1A48A6
S2140008000DF12B0104F0ECFC9DF82B30002B7FF44F
S214000810C7AE4FF47A700BA904F066FD00287FF48B
S214000820BFAE0646D7E7E58B194E6DBAADB295E773
S214000830A0000100F724002068620200500E00208D
S21400084052610200FC6002003D620200016102008B
S2140008500A61020019610200166102002E610200A0
S2140008603F61020012620200B00D00208A290020BB
S21400087054610200F8600200F5600200A9610200FF
S214000880EE61020055050000CE61020094290020AA
S2140008908029002008B501F0ABFE01280ED1114BCF
S2140008A004205A6E4FF480230F49520358BF0F4A54
S2140008B04B6601F51041086258BF536603F04CF8CA
S2140008C000F00AF91BF014FC03F036F81BF0AEFB40
S2140008D003F010FB00F0F6F800F000FDBDE808405D
S2140008E003F010BF008000500090005000A00050A1
S2140008F030B5224D95B00DAC0FCD0FC495E807006E
S214000900032384E807008DF84D3029231C4A1D492F
S214000910CDE902231C4B0E22CDE904134FF480735D
S21400092000210DF12600069324F06BF84FF4A0206A
S214000930164B07A9CDE907030F238DF824301023A3
S2140009408DF82530124B0DAA0A9320230B93012312
S2140009508DF831300F4B1048009302AB03F008FAC5
S21400096004469DF832304FF4E130002B0CBF0321D3
S21400097000211BF04AF8204615B030BD4C6202003C
S2140009800000065000050006000800072400065078
S214000990F8240020D00D0020240E0020831E012BFA
S2140009A010B512D8012922D8114B04221B69052143
S2140009B00020C3F3401301F06FFC0E4B1B68186851
S2140009C0A8B1BDE81040436A18478B1E012B0CD80F
S2140009D001280CD8BDE810400022054B05211B69F4
S2140009E01046C3F3401301F057BC0129E5D910BDEA
S2140009F000C00350E027002008B50449044803F06F
S214000A0055FFBDE80840FFF773BF00BFE42700208E
S214000A10480E002001481BF053BD00BF240E0020E6
S214000A20014B1A6A18681047240E002001481BF074
S214000A303EB800BF68620200012208B5074B1A7074
S214000A400022074B1A700422064B1A701F22064B10
S214000A501A7002F0EDFF054B186008BD9A290020B9
S214000A60182500209929002098290020500E0020E3
S214000A70024B034918681BF088BB00BF500E0020CD
S214000A808062020070B50C4C0C49064620681BF0CC
S214000A907CFB02F0CDFF0546206802F0BDFF304625
S214000AA0FFF7E6FF284602F0B7FF20680449BDE8D6
S214000AB070401BF06ABB00BF500E0020826202002E
S214000AC08462020008B503481BF0BCFABDE8084083
S214000AD01AF0F4BE2863020001481BF0B3BA00BF48
S214000AE02863020007B508201AF0CAFF02238DF813
S214000AF00030054B684601931AF04BFF082003B000
S214000B005DF804EB1AF0C7BF006A18100348044AE1
S214000B100449121A92101AF088BF00BF4001000064
S214000B20200300000026002008B500F02FF8FFF78D
S214000B30EDFF124B12498B4212D30020114B124983
S214000B408B4218D3FFF7CCFC186850F82240586840
S214000B5040F82240013298688242F5D30C33EAE727
S214000B600022F8E71C6844F8220001325C68A242C2
S214000B70F8D30833E4E70022F8E700BF40A70200F6
S214000B804CA702004CA702004CA702004FF40041FD
S214000B90134B144A70B59A60D3F88820124D42F46D
S214000BA07002C3F88820114A05F5005491664FF08C
S214000BB0FF3222664FF6DF7262660222C3F8D0204A
S214000BC0BFF34F8FBFF36F8F4FF44036032002F012
S214000BD001FF0320E66002F0EFFE2E6170BD00BF4D
S214000BE000ED00E00000000000800044009000508F
S214000BF0014B1868704700BFF0270020014B1860B3
S214000C00704700BFF0270020084B1B6F03F0070358
S214000C10022B04D0032B05D0012B05D0FEE7044B96
S214000C2018687047034BFBE7034870470080005086
S214000C30F0270020F8270020002D310108B5FFF727
S214000C40E3FF054B1B6FC3F303330133B0FBF3F035
S214000C50024B186008BD00BF00800050EC27002043
S214000C600048704700B4C404014B1868704700BFC2
S214000C70F8270020054B1860054B1B6F03F0070391
S214000C80032B01D1FFF7DABF704700BFF82700201B
S214000C900080005000487047002D3101014B186855
S214000CA0704700BFF4270020034B5868C0F30800C5
S214000CB0003818BF0120704700ED00E013B500248F
S214000CC0294801941BF0BEF9012304220321204683
S214000CD001F0E2FA20461BF064F80122234B0520BF
S214000CE0C3F8442401A91BF0A3F9002839D1204BEE
S214000CF0D3F8F02042F00102C3F8F020D3F8FC202D
S214000D0042F08072C3F8FC201A4AA3F55D431A60CD
S214000D10019B194A03F5D52303F2FC43B3FBF2F318
S214000D20164A013B13610223C2F8F0304FF4807379
S214000D30C2F804334FF06043114AC3F8B02F114A8B
S214000D40C3F8802ED3F8002E42F48072C3F8002E2B
S214000D50FF2283F82020D3F8002E22F48072C3F8F6
S214000D60002E02B010BD00BF2863020000D0035062
S214000D7000ED00E0FF030040F8590D00000004E01D
S214000D8055CEACC5090001004FF06043D3F8802E65
S214000D9030B5D20715D501240B4D8440D5F8FC207C
S214000DA042F08072C5F8FC20D3F8002E2243C3F828
S214000DB0002E53F82020002AF0D003F82010002040
S214000DC030BD1120FCE700BF00ED00E010B5044682
S214000DD006481BF037F9A3782078B3FA83F3042289
S214000DE061785B0901F058FA002010BD2863020004
S214000DF010B5012243780178847830209A40054B5C
S214000E0000FB01331CB942F210015A5010BD41F2EA
S214000E101001FAE700C0035010B5012243780178AC
S214000E20847830209A40054B00FB01331CB941F210
S214000E3010015A5010BD42F21001FAE700C00350EC
S214000E402DE9F04F9A46564B85B01B7806460F465E
S214000E501546DDF83C909DF844B0DDF85080002B38
S214000E6000F09780072A00F296800E9B002B00F079
S214000E709280B9F1000F00F08E80129BB3F5006FE0
S214000E8000F38980012803D1109B002B00F083809B
S214000E90444B03EB05131B7B002B7ED0424C1022E9
S214000EA00021684623F0ADFD04EB45141022A7BBD5
S214000EB03946204623F0A5FD43F210036380BBF1BC
S214000EC0000F03D1E37843F00303E370364A0E9B2A
S214000ED002EB451CCCE90193129B6901581E9DF854
S214000EE04C30C0F30A0003F003039B0643EA001EDF
S214000EF053582E48012E00EA03004EEA0003CDF8B0
S214000F0000A0535017D0B8F1000F2ED19CF8023035
S214000F1068F304138CF8023027E00021204623F003
S214000F2070FD4FF444736380BBF1000FCED1E378BD
S214000F3043F03003C9E713230CF1100ECCF80C3045
S214000F409CE80F008EE80F006FF00301DCF81C2011
S214000F50109B61F39F02012FCCF81C20CCF81430B4
S214000F6003D1CCF81890CCF8043000270D4A29019C
S214000F7002EB051342F80180159A28465A60694626
S214000F8022469F605E7301F01BFA384605B0BDE846
S214000F90F08F0748FAE70748F8E70748F6E700BF84
S214000FA019250020540F0020540E00200F80FFF358
S214000FB0028000F0018000F0078000F038B5124B88
S214000FC005461B78DBB1E0B11AF04AFD0F4A002354
S214000FD01146147B54B92B6001251A0101EB03134B
S214000FE01D738C501AF042FD204638BD0133082B85
S214000FF002F11002EDD11AF039FD0548F5E7054873
S214001000F3E70548F1E700BF19250020540F00203C
S214001010048000F0028000F0018000F038B51AF07D
S2140010201FFD002305460B4A147B6CB90133082BC1
S21400103002F11002F8D101F06FF9074B28461C7038
S2140010401AF014FD204603E028461AF00FFD034868
S21400105038BD00BF540F002019250020058000F081
S2140010600D4B10B51B78044693B1072812D81AF01A
S214001070F7FC0A4B03EB04131A7B2AB100241C73FB
S2140010801AF0F4FC204610BD1AF0F0FC0448FAE70B
S2140010900448F8E70448F6E719250020540F002016
S2140010A0068000F0028000F0018000F0154B13B5BA
S2140010B01868002301908DF804301AF0D1FC124B0A
S2140010C01C7824B11AF0D2FC104802B010BD0122E0
S2140010D01A701AF0CBFC0E4B01A81C731C7783F811
S2140010E02C4083F83C4083F84C4083F85C4083F8FF
S2140010F06C4083F87C4008238DF8073001F030F907
S2140011002046E2E78762020019250020038000F0EF
S214001110540F00200A4A08B512785AB107280BD88F
S214001120084A02EB00131B7B43B1002101F00AF9C9
S214001130002008BD0448FCE70448FAE70448F8E73E
S21400114019250020540F0020028000F0018000F0D6
S214001150078000F00A4A08B512785AB107280BD85B
S214001160084A02EB00131B7B43B1012101F0EAF8A9
S214001170002008BD0448FCE70448FAE70448F8E7FE
S21400118019250020540F0020028000F0018000F096
S214001190078000F00A4A08B5127852B107280AD824
S2140011A0084A02EB00131B7B3BB101F055F9002007
S2140011B008BD0548FCE70548FAE70548F8E700BF1C
S2140011C019250020540F0020028000F0018000F056
S2140011D0078000F00D4B1B7893B1072812D889B111
S2140011E00B4B03EB00131B7B73B10A4B1A6D0123E9
S2140011F08340134214BF0123002300200B70704766
S214001200054870470548704705487047192500206F
S214001210540F002000000450028000F0018000F00F
S214001220078000F00B4A10B512780C4662B107280A
S2140012300CD859B1084A02EB00131B7B43B101F0EE
S2140012401DF92070002010BD0448FCE70448FAE7AA
S2140012500448F8E719250020540F0020028000F00B
S214001260018000F0078000F0184B2DE9F0411F6D5B
S2140012705B6D1F4000D5FEE701260025144CDFF805
S2140012805880374218D02368C8F85060A3B1A168C8
S214001290284601316268A1609847637B012B0BD119
S2140012A050B90C4B03EB45131A7B60F341021A73DB
S2140012B01A7F60F341021A770135082D4FEA460679
S2140012C004F11004DDD1BDE8F08100BF0000045039
S2140012D0540F0020540E002000200450024B1968C2
S2140012E0024B186810F0E4BBFC2700201C280020E6
S2140012F070B59400224605460E4624F0D5FE431CE3
S2140013000AD058B922463146284623F050FB00281A
S214001310034808BF002070BD0248FCE70248FAE711
S21400132010E000F021E000F024E000F010B50446E4
S21400133024F0B2FE431C10D088B901F061F92346B0
S21400134020F003002044984201D1002010BD53F83D
S214001350042B0132F7D00348F8E70348F6E70348C2
S214001360F4E700BF0EE000F021E000F024E000F01B
S21400137008B51AF06EFB014B186008BDC4160020B5
S214001380014B18681AF069BBC4160020044BD3F84A
S2140013908420D206FBD4D3F88400C0F381107047B3
S2140013A0004000502E4B98424AD022D82D4B9842EF
S2140013B040D014D82C4B984239D00AD82B4B9842A0
S2140013C032D02B4B98422FD02A4B98422CD000205C
S2140013D07047294B9842FAD1284B186F7047284B14
S2140013E098422AD0274B9842F1D1244BD3F880005C
S2140013F07047254B98422BD009D8244B984223D0CF
S214001400234B9842E3D11D4BD3F88C007047214BF9
S214001410984221D003F5740303F510539842D6D1B1
S214001420164BD3F898007047144B986D7047134BC3
S214001430586E7047114B586F7047104B986F704737
S2140014400E4BD3F8840070470C4BD3F888007047D7
S2140014500A4BD3F890007047084BD3F894007047B7
S2140014600048E8010024F400C0CF6A0080841E0013
S21400147000093D0040420F00405DC6000080E00FBE
S214001480C0EA210180BA8C01007E560380D5430253
S214001490006CDC020090D00338B5104B0546D3F83C
S2140014A020310C4603F00303022B0BD0032B0DD088
S2140014B0012B0FD1FFF79CFB052305B1286004B173
S2140014C0236038BDFFF7D0FB0323F6E7FFF7E2FB08
S2140014D00223F2E701230020EFE700BF0080005060
S2140014E073B50D4600210E4B0191D3F88041064698
S2140014F004F00304012C09D0022C0CD00C460EB1CB
S214001500019B336005B12C6002B070BD01A8FFF7E7
S214001510C3FF0F24F3E7FFF7BDFB0190EFE700BF23
S2140015200080005038B5184B0546D3F824010C4609
S21400153000F00700062823D8DFE800F0040A121A95
S2140015401E0E1600012305B1286004B1236038BDC5
S214001550FFF74EFB0523F6E7FFF74AFB0623F2E705
S214001560FFF782FB0323EEE7FFF77EFB0423EAE7A1
S214001570FFF790FB0223E6E71AF063FA0723E2E799
S21400158000231846DFE700BF0080005038B5104B38
S2140015900546D3F840310C4603F00303022B0BD06C
S2140015A0032B0DD0012B0FD11AF04DFA092305B1EC
S2140015B0286004B1236038BDFFF770FB0823F6E708
S2140015C01AF044FA0B23F2E701230020EFE700BFEE
S2140015D00080005038B5144B0546D3F800020C4680
S2140015E000F0070004281BD8DFE800F003090D11FF
S2140015F01500012305B1286004B1236038BD1AF038
S21400160022FA0923F6E7FFF749FB0823F2E71AF068
S2140016101DFA0B23EEE7FFF711FB0E23800AE9E71E
S21400162000231846E6E700BF0080005038B5104B90
S2140016300546D3F840320C4603F00303022B0BD0CA
S214001640032B0DD0012B0FD11AF0FDF9092305B19C
S214001650286004B1236038BDFFF720FB0823F6E7B7
S2140016601AF0F4F90B23F2E700231846EFE700BF61
S2140016700080005038B5104B0546D3F860310C4654
S21400168003F00303022B0BD0032B0DD0012B0FD13D
S2140016901AF0D9F9092305B1286004B1236038BDD2
S2140016A0FFF7FCFA0823F6E71AF0D0F90B23F2E767
S2140016B001230020EFE700BF0080005010B40D4C5F
S2140016C00B46D4F8204204F00304012C0AD0022C66
S2140016D00CD008B1002101600BB100221A605DF841
S2140016E0044B70475DF8044BFFF7D6BE5DF8044B1D
S2140016F0FFF74CBF0080005038B50C4605461AF080
S214001700A8F9054B9A6A54402C4054409C62BDE8A8
S21400171038401AF0A2B900BF00C00050B0F5207FD4
S2140017201FD009D8B0F5007F15D003D868B1B0F542
S214001730C07F0AD000200CE0B0F5607FFAD10B4BDA
S214001740D3F88000C0F3011003E0084B186FC0F315
S214001750033001307047054BD3F89000C0F30460A7
S214001760F7E7024B186FC0F38020F2E700800050C6
S2140017704FF400320E4B014610B500209A66FFF774
S214001780CDFF484341F671320A490B4B884294BF5D
S21400179000200120DC69DA639A6822F4401242EAEB
S2140017A000529A60E20344BF0022DA6310BD00BF15
S2140017B000900050005A620200000350420910B523
S2140017C00FD0012A0FD00A4B0A4C022A18BF234614
S2140017D000F01F0049B103F58053012282401A60D1
S2140017E010BD1346F4E7044BF2E703F50053F4E7A5
S2140017F068800050608200506480005008B58020E9
S2140018001AF0D7F9034B98429EBF4FF48032024B32
S2140018101A6708BD005A620200A000501FB50023D8
S214001820B0F5807F019377D028D8382800F09480D0
S2140018300BD82438092810D809280ED8DFE800F07D
S214001840676767670D0D620D377D52285FD008D831
S2140018503D283BD03E2800F08480019805B05DF816
S21400186004FB8028F9D1414B1B6F03F00703013BB3
S214001870032BF2D8DFE803F044413F6CB0F5D06F9D
S2140018805BD019D8B0F5A06F66D00AD8B0F5806FD7
S2140018903DD0B0F5906FE0D1002001A9FFF742FEE1
S2140018A0DBE7B0F5B06F2DD0B0F5C06FD5D1002016
S2140018B001A9FFF76BFED0E7B0F5006FECD00AD8B1
S2140018C0B0F5E06F4DD0B0F5F06FC6D1002001A99D
S2140018D0FFF7D0FEC1E7B0F5086FBED1234BD3F8B3
S2140018E0003103F00303022B2CD0032B2ED0012B48
S2140018F030D1FFF7B9F9032300E005230193ACE7E5
S2140019000223FBE7002001A9FFF7EAFDA5E7002078
S21400191001A9FFF7C1FDA0E702934FF0E0231B6982
S2140019205B0705D5FFF78AF90C230393039BE5E7CE
S21400193003A902A8FFF72AFEF8E7002001A9FFF78F
S21400194049FE8AE7FFF7AAF90823D7E71AF079F8DD
S2140019500723D3E70123D1E7002001A9FFF7AEFE56
S2140019607BE7002001A9FFF761FE76E700800050C4
S2140019704FF48032074B0849586E03F580535A6679
S2140019800B6A23F001030B62C3035CBF034B5A666A
S214001990704700BF0080005000C0075000A00050F5
S2140019A008B5FFF73BFF082811D00938012802D9EF
S2140019B04FF6FF7008BD4FF40012064B5A6603F54B
S2140019C0D8335B6ADB07F3D54FF4FA70F2E7024BC5
S2140019D01888EFE7009000506E29002008B5FFF742
S2140019E01DFF03280ABF024B4FF6FF70188808BD7C
S2140019F06C290020F8B504468020FFF70FFF032867
S214001A0000F087804FF40022424B02215A6645F6CA
S214001A100E03414AC2F88030404B9962012103F51B
S214001A2080539962936DD903FCD4D4E900131B0547
S214001A3043EA0163E17B94F820500B43217BE77E69
S214001A4043EA0143617B6D0143EA0133A17B43EA2C
S214001A50811313619169D4E904031B0643EA80638A
S214001A6001F000410B43A17E94F823000B43217E36
S214001A7043EA0143617E43EA01239361136AE66900
S214001A8023F00D0394F8221043EA8703002E2DD18D
S214001A901362966A94F8213045EA031326F033055C
S214001AA02B4343F0010393621D4D1B4B9A6D35EAA1
S214001AB00202FBD10222194DAA621A659A6D5200E3
S214001AC0FCD41A69A56822F4700242EA05521A612B
S214001AD04FF00042114B9A6119B9022203F5805368
S214001AE09A6278B901220F4B9A620BE0334343F0B7
S214001AF008031362936A23F0330303432B4343EA3A
S214001B004103936294F824301BB1034B064AC3F892
S214001B108020F8BD0090005000C0005000D000505B
S214001B200300014000E00050F1A7FFFF1E4BFF2816
S214001B3070B59E6A35D89A6D12F4803F18BF0121A1
S214001B401A4A18BF9162022191629B6DDC0303D58D
S214001B50154A936D9907FCD50222144B124D1A654F
S214001B60AC6D14F08044FBD1114AAB6992F90020A9
S214001B7023F47F03024423F47F4382F3080243EAFC
S214001B80002343EA0243AB6131460220FFF7B4FD6F
S214001B90AB6DDB0303D531460120FFF7ADFD2046D4
S214001BA070BD2124FBE700BF00C0005000D00050ED
S214001BB01A250020014B93F9000070471A250020D3
S214001BC001221548154B816A9A62826D02F0030263
S214001BD0032AFAD102229A621A650F4A936D5B00B5
S214001BE0FCD40F48936D30EA0303FBD101220B4B64
S214001BF01A65A3F580539A6D9007FCD49A6D9207E8
S214001C00FCD50222054B1A65034A936D9B07FCD54B
S214001C100320FFF771BD00BF00C0005000D0005089
S214001C2003000100F0B5D0E901434FF480061A4ADC
S214001C304178057856664FF4D156022702F5B83239
S214001C405662164E4F2977604FF0010728BF4F2186
S214001C5006F5805677601669F603FCD441EA05213E
S214001C6051611B01417B43EA04230B43017B43EA9A
S214001C7041039360C37B817B1B0143EA4113417C94
S214001C800B43017C43EA41035360837C13B16FF43A
S214001C90D1535362F0BD00BF0090005000100250B8
S214001CA0014B1880704700BF6E290020014B18803A
S214001CB0704700BF6C2900204FF4001208B5184B7F
S214001CC05A660223174A5360936813F48033FBD195
S214001CD0012822D1FEF7C8FF134B984215D003F512
S214001CE0122303F5F863984213D0104B00EB8002E2
S214001CF0400AB3FBF0F3520A0A49CA620B63012397
S214001D004B620022074B5A6008BD45F67A13084A14
S214001D10F2E745F61A03074AEEE75362F1E700BF1B
S214001D20009000500040025000F04902646666666B
S214001D30D8B80500BBCF0500B0F5207F10B50C461F
S214001D4042D008D8B0F5007F33D003D888B1B0F5BC
S214001D50C07F0ED010BDB0F5607FFBD11F4A4C1E71
S214001D60D2F8803023F0300343EA0413C2F8803000
S214001D70F0E719F016FF19F0E0FF4FF48031184B2A
S214001D80164A1967136F013C23F4704343EA043381
S214001D901367FEF753FF0446FFF7F8FAC0F1020197
S214001DA0204619F0C4FF00F02DF8BDE81040FFF7FC
S214001DB025BD0A4A4C1ED2F8903023F0F85343EA69
S214001DC00463C2F89030C5E7044A4C1E136F23F430
S214001DD0806343EA84231367BCE700BF008000509B
S214001DE00090005008B50121022000F05DF919F0BE
S214001DF0D8FE19F0A2FF4FF48032014B1A6708BDD7
S214001E000090005008B54FF4C07019F0D2FEBDE83F
S214001E1008400449884294BF012102214FF42070F3
S214001E20FFF78ABF80F0FA024FF4C02270B505466D
S214001E30FFF7B8FA314B04465A6603F598335A68EA
S214001E40012A04D12E494A609A699207FCD1802063
S214001E50FFF7E4FC052807D119F0A3FE19F06DFF83
S214001E604FF48032254B1A67264B24F040749D426F
S214001E7030D0254B9D4230D0FEF7BAFE854206464E
S214001E8003D90121284600F04FF9204BDA6812F0FA
S214001E90060FFBD199689C609A68624012F4F81F9E
S214001EA01ED12846FEF7AAFE8020FFF7B7FC0528BD
S214001EB00DD1FEF7C3FE0446FFF768FAC0F1020133
S214001EC0204619F034FFFFF79DFFFFF797FCAE4260
S214001ED00CD270BD44F00074CEE744F08074CBE7BB
S214001EE080209960FFF79AFC052805D0BDE8704071
S214001EF00121002000F018B93546DAE700900050BE
S214001F0000E0015040420F0080841E000000015097
S214001F1010B5224B70B94FF40031214A1860516653
S214001F2002F598325268012A03D11E4AD2F80021DF
S214001F301A6010BD1B68002BFBD01B4A5268012A92
S214001F40F7D0184A8020C2F80031FFF767FC052852
S214001F501FD14FF4C070FFF7E1FB0128044604D1FF
S214001F6002214FF4C070FFF7E7FE07220F4B1A61FD
S214001F700122A3F580535A600B4A1369DB07FCD590
S214001F80012CD6D12146BDE810404FF4C070FFF7B3
S214001F90D3BE0122064B5A60CBE700BFC81600200E
S214001FA0009000500080005000C0015000E001503A
S214001FB000D00150044A4178536F23F4407343EA3B
S214001FC001235367704700BF0040005010B5044619
S214001FD010B10020FFF79CFF124A136943F0040378
S214001FE0136102F09FFE19F0C4FE0F4B5B6E5B019F
S214001FF042BF0E4B0E4AC3F8202419F02AFD24F0E7
S2140020004FF819F02AFD19F0B5FE02F0B3FE1CB920
S214002010BDE81040FEF712BE0120BDE81040FFF7F5
S21400202077BF00BF00ED00E00080005000E00350E6
S2140020300000FF0F10B5044610B10020FFF768FF40
S214002040104A136943F0040313610F4B5B6E5B0188
S21400205042BF0E4B0E4AC3F8202402F063FE19F06E
S214002060F8FC24F01DF819F0F8FC02F083FE1CB909
S214002070BDE81040FEF7E2BD0120BDE81040FFF7C6
S21400208047BF00BF00ED00E00080005000E00350B6
S2140020900000FF0F034A0179D36E23F030030B4391
S2140020A0D366704700400050F8B504461C4BD3F882
S2140020B08420D106FBD4D3F88430C3F381139C422A
S2140020C02CD0FEF7A1FD012C064602D1214619F0C0
S2140020D02EFE19F0BEFC4FF00072124B07465A66F1
S2140020E0204619F04EFE4FF480630D4D621E93405D
S2140020F02B676B6E9A0103D4D5F884309B060AD5FD
S214002100384619F0AAFC022C08D13046BDE8F84043
S214002110002119F00CBED5F88430EAE7F8BD00BF00
S214002120004000500060005010B50C4608B9FEF79D
S2140021306BFD074B21461B783BB1064B984204D8F3
S2140021400120BDE81040FFF7AFBF0220F9E700BF4F
S2140021501B250020005A62020278034B0121002052
S2140021601A70FFF7E1BF00BF1B2500204FF00042AA
S21400217038B5264B26495A6601224A604AF6CD31C2
S21400218003F50B235D6C1964154030BB9968C907CD
S2140021900BD4002401221F4B5A6015B11E4B1F4A58
S2140021A01A6421F0A6FE204638BD1A498A601C4AE9
S2140021B0D96ACC0705D4904201D10724EAE701305A
S2140021C0F6E79042E5D1F8E70132DC6A14F008043D
S2140021D006D08A42F8D10724DFE700221049F4E748
S2140021E08A42F8D020220B4B0B495A620122A3F5F3
S2140021F080539A6023460A4A486A800603D493426C
S214002200E9D00133F8E79342C7D1E4E700900050E5
S2140022100050095000600950004009503254FFFF3A
S21400222040420F004FF0004238B5174B174C5A6625
S214002230012203F50C235A604AF6CD33656C2364FD
S214002240437893401343124AD363C3788178A268D5
S2140022509B0043EA011322F074021343A360027941
S214002260837943EA022323614279C37943EA02234E
S21400227063610078FFF77AFFEB0744BF054B2364E2
S21400228021F037FE012038BD009000500040095074
S214002290004000503254FFFFF8B504460D461F4676
S2140022A016464AB101238B403021184A01FB002212
S2140022B0F7B141F21001535004EB4403072D4FF0E1
S2140022C00F014FEA031316D8A80006FA00F2814061
S2140022D00F48184419F056FD4EB9012330210B4A19
S2140022E0AB4001FB042277B141F210015350F8BD18
S2140022F042F21001DFE7A5F10800800006FA00F2BE
S21400230081400448E5E742F21001EFE700C00350C1
S21400231004C003500CC0035010B5152001F03AFB62
S2140023200024FF22064B21465C6520209A625C60F2
S214002330FFF744FA2146BDE810402120FFF73EBAD9
S21400234000000450044A054B002908BF134601222A
S21400235082401A60704700BF40100450402004506E
S21400236010B5012104462020FFF728FA012121207C
S214002370FFF724FA0122114B15205A602278120624
S2140023809A606178A27842EA01429A61FF229A62D4
S21400239000229A631A644FF000425A654FF0FF32EB
S2140023A003F500531A6501F015FB1520E17801F0DE
S2140023B01FFBBDE81040152001F0FEBA00000450D7
S2140023C0F8B50125C3B2DFF88CC0D1F800E09D4017
S2140023D08F7ACB7A0C46097BCCF850500CF5005C13
S2140023E04CF820E04FF0300E184E1B050EFB006038
S2140023F094F80DC043EA074343EA415322F0030230
S214002400C0F860C0C365026719F02AFB104B5D6513
S214002410237A13B1336C2B433364637A13B1B36BF3
S2140024202B43B3632279A37943EA0243094A9361B3
S2140024306179E37943EA014305498B61034B5563B0
S2140024409D64BDE8F84019F011BB00BF00000450C1
S214002450001004500020045010B50124C0B284407F
S21400246019F0FEFA044B5A6D22EA04025A659C6281
S214002470BDE8104019F0FABA0000045010B5012467
S214002480C0B2844019F0ECFA074BDA6A224208D14F
S2140024905B6B9C430CBF0124002419F0E7FA20462E
S2140024A010BD0024F9E700BF000004504FF40032CE
S2140024B0054B9A6641F6713203F51C33DA63012246
S2140024C003F50053DA6070470090005041F6713211
S2140024D00121064BDA6303F50052D1600022DA636D
S2140024E04FF40032A3F518339A6670470000035085
S2140024F0CB784A7810B55B010C7843EA82030A79F8
S214002500234343EA02130C22424302F1B042136310
S214002510012C02BF8A78024B43F8202010BD00BF72
S214002520E880035008B54FF0B0435A686AB958B10E
S2140025305B680BB119F036FC01210D4B596019F0A0
S21400254031FC4FF0B043D96008BD5B680BB119F0A1
S21400255029FC0028F0D119F025FC4FF0B0430222E8
S214002560DA6019F01FFC0122024B5A60ECE700BF4C
S21400257000100058002000584FF0B0414B6810B5CE
S2140025800BB119F00FFC01220B4BC4785A6083780C
S214002590934043EA840344782343047943EA0413CC
S2140025A0447943EAC4038B60044B5A600378C3F152
S2140025B00203CB6010BD00BF00200058001000587A
S2140025C04FF48032064B5A6603F5E6235B69C3F385
S2140025D08512827003F03F021B0B42700370704737
S2140025E000900050014B986CD96C70470080E00F4B
S2140025F0024B1868C0F30740704700BF0080E00F2A
S2140026000120034B9B680A3303F01F039840704772
S2140026100080E00F70B5054616461C4621B94FF4FB
S214002620207019F0C6FA0146402C1BD003D8DCB146
S214002630202C1BD070BD602CFCD1042303FB06F2BB
S214002640530803EB4113B3FBF2F3094A203B02EABB
S214002650C303AA6822F06002AA60AA681443AC60AA
S214002660EB61E7E70623E9E71023E7E70823E5E75A
S214002670F8FF7F00012200F580535A6040F6AA63F7
S21400268041F20502436100230B498360C365C260C3
S21400269000F500520361C361C36491640749836512
S2140026A0884203D103650023436502E0044988425B
S2140026B0F8D0012353607047FFFF010000C00550AB
S2140026C00000065070B50D46FFF7D4FF012300F555
S2140026D080567360AB7C04461BB1836843F080432E
S2140026E08360EB7C5BB1354A2B7D944245D1A2F5E5
S2140026F01032C2F88C31E36D43F08003E3652A8A1A
S2140027006B7B20461343EA891343E3602B7BD5E9B2
S2140027100112FFF77FFF6B7D1BB1A36843F4803384
S214002720A360AB7D1BB1A36843F40043A360EB7DBD
S2140027302A7E1B07120502F4E00203F0E04313436F
S214002740A365697E1D4A8B1E012B1D4B1FD8944224
S2140027501BD002F5804294420CBF01224FF0FF329C
S21400276003EB4213022041F21C620329985020D149
S2140027700423F3652B78636170BD124A944204BF4C
S214002780A2F52032C2F89C31B5E70022E8E7944271
S2140027900DD00C4A94420CBF01224FF0FF3203EBDF
S2140027A04213022042F21C6201299850DFE7002201
S2140027B0F5E7042204F50053DA65DBE700C00550B0
S2140027C000C003500000065038B50446054D21F001
S2140027D0B5FB0FCC0FC594E8030085E80300002086
S2140027E038BD00BFCC16002047F6FF739A42F0B5FE
S2140027F06FD002296FD8394B5B5C012B6BD8384DF4
S214002800DF0005EBC30415F83330A178012B13D194
S2140028100025E078401AA84202D80844C0B2F0BDAD
S214002820431B6668A0EB530336F913609642D4BF89
S2140028301D4603F1FF30EEE760680028EFD0B0F9E0
S2140028400040944204DBB0F902409442B8BF1446FC
S21400285083883D44FF2B19BFC8224FF0280CB0F9DF
S2140028600620B0F908C0A2EB04030CBF0126002620
S21400287093FBFCF333446E781BB29E4201DD002BC3
S21400288001DA731E1BB24FF47A7C01339BB2071D2C
S2140028905D1E2DB24FEAC50E00EBC505EA88AD6891
S2140028A09E4214FB025222EAE27202F15C02B2FB82
S2140028B0FCF204DD37F8335001339542E8D200EBE2
S2140028C00E039888904228BF1046884238BF0846B4
S2140028D0A4E7FF20A3E70020A1E700BFAD62020047
S2140028E0CC1600200229F0B555D82C4B585C012890
S2140028F051D82B4C04EBC00114F830004B6801286B
S2140029000FD1C8788C78904294BFC4EB0001C4EB1A
S2140029100201001BCAB28242C8BF002233F912006D
S214002920F0BD002B37D08878904202D3B3F902006E
S214002930F6E7CC78B3F900009442F1D94C78998840
S214002940013CA1F1FF06714203F10405E4B27141B6
S21400295003F10C07CEB2B44216D805EBC1014FF412
S2140029607A756A43B1F902404968521A04EBD47189
S21400297002EB610292FBF4F29042D1DBB3F9020063
S2140029809042CDDC10B2CBE737F831C04E1C9445F0
S214002990E3D33146DEE70348C2E700BFAD6202007C
S2140029A0CC1600200080FFFF08B50448FFF70CFF98
S2140029B0BDE80840012021F0C5BA00BF206802002B
S2140029C000487047702900207FB50222084B09494D
S2140029D0CDE901234FF00073CDE90313052301A9C8
S2140029E04FF0FF30059321F0E1FA07B05DF804FBE5
S2140029F0006A18000002040006289ABF014B185C03
S214002A0000207047B062020030B5154B87B00293C5
S214002A10144B0390049346F611030D46059300F0FD
S214002A2077F91428044616D1684619F06CFA4FF068
S214002A30A843032202A95A6319601D619A63DA6BE0
S214002A409207FCD1142C02D1684619F06AFA00F0FD
S214002A5093F9044601E00028E9D0204607B030BDCF
S214002A60E4160020040000202DE9F04FB1B0054622
S214002A708C469E46E8466F4EDDF8EC90409C06F18C
S214002A80100A474630687168083603C75645B84688
S214002A90F7D13E9B03EB0208C8F1000A0AF00F0AC2
S214002AA0B9F1000F00F09D80C9F1000707F00F078D
S214002AB00121DDF8FCB044F00050C4F11006CDF85A
S214002AC010B005910690300200F4F85040F0210056
S214002AD00790B9F1000F40F08680CDF820D047F07F
S214002AE00050002D00F08480099121210A9041EACF
S214002AF007210B9142F00050CDF830C03D9B08A94D
S214002B004FEA0A2C0D910E904CF041000F90109356
S214002B10002A75D13E9B119143F0005312933C9BC3
S214002B201390149310AB1593434B444A169340F6F8
S214002B3011031793424B0021002D08BF134618932C
S214002B4014AB19933F4B10221A9311231B931CAB03
S214002B50184621F056FF01221D92002246F08046BC
S214002B6003461E96239205B9EB46102CCDF880B08E
S214002B7024AE4BD1012322460021304621932294D5
S214002B8021F03FFF20AB002125938F4218BF33462C
S214002B9047F0804226923A9A2CA828922993B2FAB5
S214002BA082F35B0949EA837310222B912A9321F062
S214002BB028FFB9F1000F00D028AED04448F080437B
S214002BC02CA918A82D962E93FFF71EFF30B92DB905
S214002BD00346A34225D1002818BF2C2031B0BDE8FB
S214002BE0F08F102764E7CDF820E049F0005078E732
S214002BF0002C3FF479AF04A9099101210A9076E7E9
S214002C003E9B0CAA11924120129388E710220021C5
S214002C1030462193229421F0F4FE002CB2D10123F9
S214002C20B1E703F1C0026A4412F8C02C0133104326
S214002C30CFE700BFB762020010000020CC6202009F
S214002C40D062020004000020F0B5C0299FB0DDE984
S214002C50244557D0B1F5807F04D0802948D029205C
S214002C601FB0F0BD01265CB140F234470294102438
S214002C7003960494212401970594069502AC0AE075
S214002C8040F21447029410240396049421240594D9
S214002C9001240197069507940125102408940995A8
S214002CA00A9221220B950C940D92174A0AAD0E92A9
S214002CB0164A0F95109242F611021192129313952E
S214002CC01494159201AA1692D3B112AB179304234B
S214002CD018931123199316AB1A901B9340F6110301
S214002CE0C9081C911AA806A91D93FFF78DFEB7E721
S214002CF0012614B94FF48267C4E74FF48667B5E738
S214002D000EABE3E70F20ABE7C8620200100000102E
S214002D1038B5164B5A6E42F004025A66D3F8802233
S214002D2042F00102C3F88022114B5B68C3F308032C
S214002D3043B14FF0A842D36B13F0430FFBD11424DA
S214002D40204638BD4FF0A843DC6B14F04304FBD19B
S214002D50084D2B681BB90421284603F023F92B687D
S214002D60013343F000432B60EAE700BF00800050C9
S214002D7000ED00E0E4160020014B00205B68704781
S214002D8000ED00E04FF40052034B00209A66032249
S214002D90C3F86022704700BF009000504FF4005206
S214002DA0034B00209A660322C3F86022704700BFD8
S214002DB000A00050012300F01F02A0F506200949DC
S214002DC0A0F550604009934051F820201A4341F87E
S214002DD02020054951F8202022EA030241F820204D
S214002DE0704700BFFC160020E81600200121A0F561
S214002DF006230E4AA3F550635B0900F01F008140CE
S214002E0052F82300014342F823100949D1E9003063
S214002E10034488680344C868096903445B1802BF12
S214002E20C2E90033C2E9023313617047E816002096
S214002E30FC1600202DE9F04FA9B003921D4604466B
S214002E400822339ECDE90401414021FA02F34B40AB
S214002E50980702F1080218BF9B00202A1C44F4D1F0
S214002E608123B4FBF3F303EBC313E41A734B04F5AB
S214002E7006241B7804F55064002B3ED1FEF72EFA8C
S214002E80074620B16FF0910029B0BDE8F08F0146EB
S214002E90402208A821F0B5FD4022394618A821F0A6
S214002EA0B0FDDFF8B481DFF8B491C3460BF10F0A2A
S214002EB0CDF800A0102208A95B46D9F8000020F043
S214002EC0B7FD0022014608F1100808AF914246D12E
S214002ED0CDF800A05B461022D9F8000018A920F013
S214002EE0B0FD4FF0000A834618AFD34541D1544B8E
S214002EF09845DAD10122514B1A704FF0810A4FF0F3
S214002F000008DFF85CB1A4F50627A7F550635B0957
S214002F105BF8232004F01F01CA40D2073DD4494A7B
S214002F2052F82330CB40DB072AD5B8F1000F08BF94
S214002F30A0468123A7F6FF47B7FBF3F303EBC313C3
S214002F40FF1A07F50624BAF1010A04F55064DAD12F
S214002F50039BBBB1B8F1000F14D0444619E057F8F4
S214002F60040BCDE90612FFF725FF079A06990132F2
S214002F70ACE757F8040BFFF739FF0AF1010AB4E78C
S214002F80039B13B96FF08B007EE7B8F1000F18BFF4
S214002F904446349B00201C6076E7329B13B1002326
S214002FA0329A13600EB1002333601023DFF8AC9022
S214002FB000932A4600232146D9F800000EF0EAFEC8
S214002FC060BB32992A68204BC9B99A4206D021467E
S214002FD0D9F800000EF076FF0028D3D1D5E90223F9
S214002FE0DDE90410834208BF8A42A2D1039B002B6E
S214002FF0CFD06B68012BCCD16FF0840044E7102053
S21400300032999A420860E2D1002EE7D03346214634
S214003010D9F8000018AA0EF011FF48B10B4B9842E1
S214003020D5D00B4B9842D2D00A4B9842D6D029E73F
S214003030329A336812689B1A3360CFE71C2500204B
S21400304000710800E8160020105D175EFFDF00F034
S21400305011E000F0FEDF00F0006D08001C280020E4
S214003060FC1600202DE9F04F87B082468946984628
S2140030701646DDF840B02AB1002B4FD040F26C73F4
S2140030809A424ED8BBF1010F4ED8002406F1100725
S21400309039460120059419F0C8FA0546002846D09E
S2140030A021463A4621F0ADFC05ABCDE9014300943C
S2140030B02B46012250464946FFF7BCFE044680B127
S2140030C010F18C0F08BF6FF08D043A460021284699
S2140030D021F097FC284619F08AFA204607B0BDE88A
S2140030E0F08F144BC5E902A92B60C5F804B02EB1C9
S2140030F03246414605F1100021F08EFC059E0E4832
S2140031003B462A46314600680EF0ACFD18B93046FC
S214003110FFF750FED9E76FF09104D6E76FF086040C
S214003120DBE76FF09104D8E76FF08504D5E76FF022
S2140031308C04D2E7105D175E1C2800202DE9F043B2
S2140031408DB08146DDE914780E4615461C469BB1C7
S214003150B8F1000F05D16FF0860630460DB0BDE819
S214003160F083002FF7D0B7F1005FF4D3C3F100531C
S21400317003F500439F42EED81022002108A821F054
S21400318040FC002207AB029305AB019306AB314629
S2140031900093484608ABCDE90522FFF74BFE0646EE
S2140031A00028DAD1059BA4B1AB4215D853EA050432
S2140031B0D1D1069B0B48C8F8004000943A460799C0
S2140031C000682B440EF0E6FD002818BF6FF091064D
S2140031D0C3E7AB42EDD2BEE75B1B9C4228BF1C4652
S2140031E0E7E700BF1C28002030B58DB00C4605462A
S2140031F01022002108A821F004FC002207AB02934D
S21400320005AB019306AB21460093284608ABCDE9F3
S2140032100522FFF70FFE0446D8B9099B012B1BD0E9
S214003220079D104B294618680EF04CFEB8B90122CF
S214003230A5F506230C49A3F550635B0905F01F00AE
S214003240824051F823004240284641F82320FFF7E9
S214003250CDFD20460DB030BD6FF08404F9E76FF069
S2140032609104F6E71C280020FC1600202DE9F04FFC
S21400327089B007460E4602F067FAC00709D4042450
S214003280012019F03AFD80B3013CF9D16FF09200AD
S21400329028E0102200210DEB020021F0B2FB04A86A
S2140032A002F0B4FA049B002BE9D0059B002BE6D075
S2140032B0069B002BE3D0079B002BE0D00025DFF811
S2140032C0808008F10409B54219D34FF48A7402F0DD
S2140032D035FA00F00E03062B2DD1C30501D502F0FA
S2140032E05FFA002009B0BDE8F08F02F027FA10F070
S2140032F00E03FAD0022BF8D04105DFD5C4E702F062
S21400330017FAA6EB050A8400544528BF544699E8E8
S214003310030000238DE80300CDE9054307EB050B0A
S214003320CDF810B0029404AAD8F8003007CA19F0F5
S21400333050FC2544C7E724FA03F3DA07A6D5C6E708
S214003340D46202002DE9F04389B00E4615461F46AA
S214003350DDF8488020B96FF0860009B0BDE8F0833C
S2140033600029F8D0002AF6D0B8F1000FF3D0038871
S21400337003F44F42B2F5824F02D06FF08500ECE7BF
S214003380DAB2122A01D0172AF7D123F0FF03B3F5D9
S214003390E24F41D14488C8F8004044B9EB00B3F589
S2140033A0807FC8F80030E8D1122A0DD108E0E31D6E
S2140033B0B5EBD30FCFD1B4F5807FDED1122A29D159
S2140033C0354B1C681B691C440023194670192C4495
S2140033D014F801CD10F8012D1143B2EB0C020CBF0E
S2140033E04FF0FF3C4FF0000C86420CEA030343EA22
S2140033F00203EDD10029AED0002BACDA109B9D4223
S21400340046D82A463146384621F006FB119B002056
S2140034101D60A2E70024D7E73378042B9BD16B1EF0
S214003420DB005B08B3F5807FC8F80030A5D1122A10
S21400343006F1010318BF4FF000094FF04002059354
S2140034404FF000030ABF144C4C46D4F80C90CDE95C
S2140034500623FFF797FC00287FF47FAFCDF80C908B
S214003460D8F800300733DB08029308AB13E90300F3
S2140034708DE80300059B94E8070019F0FBFB044663
S214003480FFF78CFC00287FF468AF002CB6D062E70C
S2140034906FF0890061E700BF046402000388B3F59B
S2140034A0105F0ED14388DB08103B102B0CD8084A5F
S2140034B022FA03F313F0010F14BF00206FF086000A
S2140034C070476FF0850070476FF08600704700BF4A
S2140034D0010101002DE9F041069F0C4616460546FF
S2140034E010B309B302B9FBB96288B3EBD20F4FEA47
S2140034F0D20819D34C220021284621F082FA0D4B1F
S21400350027F47E129A4212D12046FFF7C7FF0446E0
S21400351038B942463146281D21F07EFAC5F8248087
S2140035202F602046BDE8F0816FF08604F9E76FF063
S2140035308504F6E70002C0032DE9F0410E46144666
S2140035400546002840D000293ED092B103682148A5
S21400355023F47E1383423AD1AF6BF7B1C7F110085C
S21400356007F128004245284406D2274421F054FAA1
S214003570AF630020BDE8F081424621F04DFA1022EC
S214003580103C3C19AA63F4D0284605F1280118F02F
S21400359010FD0028EED14644A863102C0CD9671EF7
S2140035A027F00F073A463146284618F002FD002855
S2140035B0E0D1E41BDDD03E442246314605F128002A
S2140035C021F02AFAAC63D4E76FF08600D2E76FF0FA
S2140035D08800CFE70002C0032DE9F04388461F4667
S2140035E005468BB070B169B163B10368234923F413
S2140035F07E1088423ED113F47C1FC3F3054604D0E8
S214003600102E03D96FF086042AE0102696422BD897
S214003610FFF7B8FB044618BBAB6B05F12802CDE9F3
S21400362001236B6A2A1DCDE904231023CDE9083057
S21400363007AB1A460390069005F13C0901A904A8B9
S214003640CDF81C9002F0BAF90546FFF7A7FB044632
S2140036506DB928B932464946404621F0DDF93E604C
S21400366020460BB0BDE8F0836FF08904F8E76FF0F2
S2140036709204F5E76FF08504F2E700BF0002C0038E
S21400368070B505460C4618F0EBF9072D064607D828
S214003690BB23EB40DB0737D40023238021243DE007
S2140036A0083DEBB2142BF7D8142DF5D801A353F828
S2140036B025F000BF273700002D37000099360000A0
S2140036C099360000333700003D3700009936000079
S2140036D04337000043370000993600004B370000A0
S2140036E099360000433700009936000099360000EE
S2140036F09936000099360000993600009936000089
S21400370099360000433700008020FEF767F94FF631
S214003710FF73984220800CBF0E240024304618F019
S214003720A5F9204670BD4FF48060EEE74FF4906038
S214003730EBE74FF4C060FEF733F9E8E74FF4F060CC
S214003740F9E7002323800F24E8E74FF4E060F2E770
S214003750B8B1036813F4E07F03F03F00C3F38212AE
S2140037600AD0012A0DD1084B41B103F5805301223E
S21400377082401A6000207047044BF5E703F50053BB
S214003780F5E70E20704700BF688000506480005048
S21400379030B58BB06D46624C0FCC0FC554F8043B69
S2140037A068462B604FF07E6393F89C306D46FF2B87
S2140037B008BF19238DF80130FEF734FA3220FEF7E1
S2140037C06FFA0FCC0FC50FCC0FC594E8030085E841
S2140037D00300544BD3F84C21110340F18B80A3F522
S2140037E0FE431C884FF6FF739C4208BF8C248DF85E
S2140037F01940FEF7DFF9044484F308044A488DF8BC
S2140038001840FDF737FA6846FEF7F4F83220FEF760
S2140038104DFA4648FEF708FB454C01213520FDF7DA
S214003820CDFF0020FEF748FAFEF7DCFA236F0020F3
S21400383023F0070343F003032367236F23F4744343
S21400384043F48063236718F07DFA3A4BD3F8FC20E4
S214003850D20153D4D4F88030C4F88030344BD3F837
S214003860202122F0030242F00202C3F82021D3F8FE
S214003870242122F0070242F00202C3F82421D3F8E2
S214003880802122F0030242F00102C3F88021D3F81F
S214003890402122F0030242F00202C3F84021D3F88E
S2140038A0602122F0030242F00202C3F86021D3F83E
S2140038B0402222F0030242F00202C3F84022D3F86C
S2140038C0002222F0070242F00202C3F80022D3F8D8
S2140038D0202222F0030242F00102C3F82022FEF763
S2140038E047F84FF0E0220020136963F004031361E9
S2140038F00BB030BDD3F85041E4B278E7D3F8FC20E3
S21400390022F08072C3F8FC20D4F88020C4F880200F
S214003910D3F8FC2042F08072C3F8FC209EE700BF7C
S214003920E06202000080E00F00F0490200B4C40428
S2140039300080005000ED00E007B56B46054A1068B1
S214003940516803C36846FEF76DFC002003B05DF8BF
S21400395004FB00BF1C6302006FF00403502110B587
S2140039600A480B4C13F0800F03F1010206D12344E2
S214003970402A83F800131346F4D110BD03F00F035A
S214003980043B034419761346ECE700BF00ED00E065
S21400399000E100E000280CDB01220649430900F0A4
S2140039A01F008240203341F82320BFF34F8FBFF320
S2140039B06F8F704700E100E0002807DB0123410914
S2140039C0034A00F01F00834042F82130704700BFD2
S2140039D000E100E0002808DB01224309034900F06B
S2140039E01F008240603341F82320704700E100E06A
S2140039F00028ACBF00F16040064B4FEA0111C9B287
S214003A00ABBF00F5614000F00F0080F800131954BA
S214003A10704700BF14ED00E010B5044618F019F822
S214003A20024B1C6018F019F8002010BD101700207B
S214003A3010B518F00EF8034B1C6818F00EF8204668
S214003A4010BD00BF10170020034B02221868002389
S214003A508068194615F03CBE1429002030B514467F
S214003A60054687B0104618F0DAFB636902468342C3
S214003A703CBFD4E903315B181B1A7BB10F49049491
S214003A8003910021CDE90131012300932846D4E9B2
S214003A90001318F037F8002007B030BD0122627618
S214003AA094F82D20002AF6D084F835301321E369E7
S214003AB0204698472046636A9847ECE75D3A000040
S214003AC02DE9F04788B004460F461646984617F08C
S214003AD0C7FF8146002E7AD0237E03F0FF02002B1C
S214003AE000F0A280204618F09AFB6569A84205D12E
S214003AF0637ED4E9033213445D1B01E0F9D9451B0C
S214003B00B54228BF354617F0ABFF94F82D308246F5
S214003B10002B6DD12A463846616920F07DFF636927
S214003B202E462B44636121E0037803F0FD01112942
S214003B305BD1216B814205D1A3F111014B424B4170
S214003B4084F83430013E6369216B01328B4203F105
S214003B50010308BF2363636195426069E4D1D4E939
S214003B600323216B1344994200D122630025D4E934
S214003B70032361691344994208BF6261207A65761F
S214003B80FDF7C8FA204618F04AFB6369834232D133
S214003B90257694F82D30E568656103B125632046E7
S214003BA0636A9847214B0494039300230293236986
S214003BB02A4601930123009363682168207A17F050
S214003BC0A1FF207AFDF7C6FA504617F04FFF484689
S214003BD0C8F8006017F04AFFD8F80030002B0CBF7A
S214003BE01B20002008B0BDE8F08707F8013BAAE7D5
S214003BF02E460022B0E70123207A23760DF11E011F
S214003C00FDF710FB9DF81E30002BDAD00DF11F01DA
S214003C10207AFDF7DFFA9DF81F100029D1D1224641
S214003C20207AFFF71BFFCCE71646D0E75D3A000088
S214003C302DE9F0410C461546064686B04022002186
S214003C4020461F4620F0DDFE95E8030000232A6983
S214003C502376EB6884E80300C4E904232A7DE36046
S214003C6084F82C20AA7D2363012384F8343084F85A
S214003C7035300C9B84F82D2023620D9BE761636230
S214003C800E9BA3622B7A84F836306B7A84F8373032
S214003C902D4B346073602D4BB3602D4B33612D4B31
S214003CA073612D4BF360FDF701FA38B12B4B984248
S214003CB004D01024204606B0BDE8F081002104F1AF
S214003CC00800FDF77BF907460028F2D14FF00108FF
S214003CD0234B3362234B84F83C80B361224BF36161
S214003CE09DF8403084F8390084F83B309DF83C302D
S214003CF0204684F83A30697D84F8388018F0CCFA8B
S214003D0095F90900FFF766FE95F90900FFF754FEDE
S214003D10164B0494CDE902732369CDE900836368EA
S214003D20E2682168207A17F0EDFE04460028C0D12C
S214003D3095F90800FFF74EFE95F90800FFF73CFEE0
S214003D403046FFF769FEB5E7E9C20100C13A000058
S214003D500DC2010013C201003FC20100038000F043
S214003D60E7C1010099C2010019C201005D3A0000D6
S214003D702DE9F04101271C46584B86B00293584B5C
S214003D800C9D0193574B904600930A46CDE9037766
S214003D902946554BFFF74CFF0646002840F0968014
S214003DA0236839462B6463683A206B64637A85F827
S214003DB04930237A85F84830E37A85F84B30A37A81
S214003DC085F84A30637B85F84D30237B85F84C3088
S214003DD0E37B85F84F30A37B85F84E30FDF7EEFC8D
S214003DE03B460422617A207AFEF756FA3B460222C8
S214003DF0E17AA07AFEF750FA39466068FDF7DEFCF5
S214003E0088F8006041462068FEF75CFC1422637C5C
S214003E105B0103F1A04303F57033C3F81C26617AF7
S214003E20227A42EA0142C3F83426E17AA27A42EACA
S214003E300142C3F82C2685F8506098F81930032BF9
S214003E404AD8DFE803F03447021C022385F85030D6
S214003E5000230422E17BA07BFEF71EFA022741F234
S214003E601C61627C214B03EB42104750E07BA17B38
S214003E70B13241EA004103EB4213996017E0012793
S214003E8085F8503002220023617B207BFEF704FA7F
S214003E90637B227B617C42EA0342154B49015A5000
S214003EA00422236803F58053DA65002FD0D1237AE5
S214003EB02A6C85F84830637A052185F84930D36C3A
S214003EC0206843F00403D36417F074FF304606B04E
S214003ED0BDE8F0810027D3E72326F7E717C40100E3
S214003EE00BC40100A3C4010097C4010000C0035026
S214003EF024D6035073B50024684600F0C7F90C4B6F
S214003F0000981C600B4B0C4D1C600C4E0C4B30602C
S214003F1018602C6018F099FB2046019B3268013B24
S214003F20DB0853802B6801332B6002B070BD00BFE6
S214003F3018170020141700201C1700202417002034
S214003F40201700202DE9F04F0027924687B04A1C24
S214003F500E4614BF0C46082499460597002B00F021
S214003F60B0801F60002800F0AE80073020F0070504
S214003F7017F076FD05AB31460290009352463B465D
S214003F80284600F08DF9059E804606B130B90298A5
S214003F9017F06CFD192007B0BDE8F08FDFF83CB1D4
S214003FA07788DBF80010FB00C0EBC7070139272F26
S214003FB0CBF800106CD9BAF1000F48D1854205F154
S214003FC0080740D02146304618F0CBFA0446059044
S214003FD0059B1F44384618F038FB059905F10F037A
S214003FE04A88C3F3CF03D21A7A80CA88BB8062B3EA
S214003FF0D31A9BB201EBC202FB8093808B88ED083C
S214004000A380BB880022314638466580E38000F0F6
S214004010BFF9237843F001032370DBF80030013347
S214004020CBF800302B4A02981368083443441360D8
S214004030294A11688B4288BF136017F017FD0020CD
S214004040C9F80040A7E73446C2E7FA80D6E7F41975
S2140040502046039318F0F9FA08F10702D2080599EA
S2140040606280FA1DD208A280CA887AB1D200039B69
S214004070D01DC31A4344C3F3CF030A44E38093809E
S214004080A388013FFF084F80CB80C2E7E280F7E7B6
S214004090BAF1010F19D106F10803B3FBF4F204FBE1
S2140040A01233A3B12146304618F05BFA0446237853
S2140040B0012243F0010331462046237000F068F9E0
S2140040C0B0E7222067E7212065E78542EAD134463B
S2140040D0EDE700BF18170020141700201C1700205B
S2140040E02DE9F3470446684600F0D0F8002C00F0AF
S2140040F0C28017F0B5FC14F8085CEB0704D534F85A
S21400410006ECBEF1000F05D117F0B0FC012002B09E
S214004110BDE8F087DFF870C134F8041CDCF80080D6
S2140041200EF1010208F10103A4F1080692B2CCF8E0
S2140041300030002938D0A6EBC10393F800A0B3F8EE
S21400414006901AF0010F5F8805F0020520D105BB26
S214004150A9EB0701012927D80EF102021744BAB2CB
S214004160CCF8008034F8025C05BB14F8085C511EDD
S2140041706FF3000504F8085C002589B224F8065C95
S2140041805980197865F3000119700021D98031E053
S21400419055B111448AB214F8081C6FF3410104F8B3
S2140041A0081C00219980DDE73346DBE706EBC508EF
S2140041B0DDE900710F44B845D7D216F835604146A0
S2140041C016F001062ED014F8086C551E6FF3000684
S2140041D004F8086C002624F8066C1C78ADB266F36A
S2140041E000045D801C70C3F107040C44C4F3CF04C4
S2140041F0DC808C80214C216819B1994201D849880D
S21400420001B923601E4C216819B1994201D349882F
S21400421001B923601B490B689B1A0B6017F026FC3C
S214004220002074E7A5EB0E05012DCCD8B8F8025097
S214004230A8F8026001352A44B8F8065092B2C5B113
S21400424008EBC501DCF80050013DCCF8005014F82E
S214004250085C6FF3000504F8085C002524F8065C8B
S214004260541E5C801C7865F300041C700029BAD1CB
S2140042708BE72946E6E7222049E700BF24170020FF
S21400428020170020181700201C1700200249034A98
S2140042900160521A42607047C0290020008000204A
S2140042A0F0B506460020059F4C1C08BF0821386064
S2140042B0BAB91F480568002D38D0B5F802E0DB0013
S2140042C003EBCE0EC1F1000C2878C0070BD52ABB35
S2140042D0E888B0B105EBC005B5F802E003EBCE0EFA
S2140042E0F2E71448E6E7B645F1D35AB905F10804F3
S2140042F0B4FBF1F001FB1044A0190CB17045E7D8EF
S2140043003D60F0BD08290FD06C88013405EBC4046D
S214004310A01B00EA0C00201A8645F1D2A8880028C7
S214004320EFD0A5EBC005D7E73046E9E72846E8E733
S2140043302417002020170020134B13B51B680446D3
S2140043400846FBB121B96846FFF7A0FF6CB9009894
S2140043500378D90707D55CB9C3889BB100EBC300C7
S2140043600378DA07F8D402B010BD084B1868EFE7F8
S214004370012C07D183882BB1A0EBC3000378DB07A1
S214004380F8D4F0E70020EEE71C17002020170020E6
S214004390F8B5124F05460C463B68114EB2B199422D
S2140043A009D041B13368994204D129460120FFF76C
S2140043B0C3FF3060F8BD29460020FFF7BDFF336815
S2140043C03860A342F1D0002CEFD0F3E7994233686F
S2140043D008BF38608B4208BF3060EBE72417002028
S2140043E020170020BFF35F8F074B5A6A22F48032F3
S2140043F05A62D3F8942022F00102C3F89420BFF347
S2140044004F8FBFF36F8F704700ED00E038B5FFF7B2
S214004410E9FF274A2748D2F8C030274D23F0FF038C
S21400442043F0A003C2F8C030244B04689D4204F158
S21400443001011DD1224BC2F89840C2F89C3003F50A
S214004440FF437E33C2F8A0300160BFF35F8F0522C2
S214004450174BC3F894205A6A42F480325A62BFF36C
S2140044604F8FBFF36F8FBFF34F8FBFF36F8F38BD84
S21400447023F01F03203BB3F1005F09D3C2F8984036
S2140044800F4C43F00103C2F89C40C2F8A030016014
S2140044900C4B0168064A23F01F0343F00303C2F8DF
S2140044A09810C2F89C30084B0131C2F8A030CBE718
S2140044B000ED00E028170020E0270020002600205E
S2140044C003000020FF270020E17F00202DE9F041B7
S2140044D00D461146DFF8E080D8F80040B4F5807F3E
S2140044E034BF00271A27FFF77DFF1F292ED900218A
S2140044F0C2061CBF20F01F0020302E4EEB0618BF51
S21400450025F01F05CBB29C4235D8D6F8C03020F037
S2140045101F0023F47F4343F48073C6F8C03040F096
S214004520030417F09DFAD8F8003025F01F0141F07B
S2140045300301C6F89830C6F89C40C6F8A01017F0DD
S21400454095FAD8F800300133C8F80030BFF35F8F13
S2140045500522184BC3F894205A6A42F480325A62F5
S214004560BFF34F8FBFF36F8FBFF34F8FBFF36F8FC6
S2140045703846BDE8F081C6F89830D6F89C30D6F8B4
S214004580A02023F01F03984222F01F0201D195427B
S2140045900BD0904201D89D4209D2D6F8983001310E
S2140045A023F0FF03C6F89830ACE70027CEE72827AD
S2140045B0CCE700BF00ED00E028170020BFF34F8FC8
S2140045C00549064BCA6802F4E0621343CB60BFF3AA
S2140045D04F8F00BFFDE700BF00ED00E00400FA05C6
S2140045E0054B1A782AB95B78002B0CBF03200220F3
S2140045F070470120704700BF272500200329F8B523
S21400460098BF124B05460E468CBF00245C5C032800
S21400461005D8DFE800F002080B0E44F002040C4B4D
S2140046201F684FB9F8BD44F00804F8E744F02004CA
S214004630F5E744F08004F2E77B681A68144203D07A
S214004640314628465B6898473F68EAE738630200C9
S2140046505817002038B5104D2B78ABB10F4C237887
S2140046601BB100F0C5FB00232370002018F003F8F0
S2140046700B4C50B100F00EFC0023012120782B706B
S214004680FFF7BCFF0123237038BD0122054B1A70CB
S2140046902278054B1A70F7E72225002020250020F7
S2140046A029250020232500202425002010B517F0FA
S2140046B0D0F9064B04461B781BB1BDE8104017F036
S2140046C0CCB9FFF7C7FF2046F7E700BF1F2500203D
S2140046D0094A137830B101331370084B1B78012B4D
S2140046E003D87047013B13707047054B1B780BB916
S2140046F0FFF7B0BF704700BF272500202925002000
S2140047002325002070B517F0A4F9174E0546174864
S21400471017F098FC3378D3B900F0F8FC044620B1C3
S214004720284617F09AF9204670BD114817F0A1F9EF
S21400473000F078FF0F4B1C6000F0D0FD0E4B0F4AC8
S2140047401860536F43F00103536717F09BFF00F0A8
S2140047502FFA17F092FF0A4B002418600123284610
S214004760337017F07AF9DEE72A2500202863020066
S214004770581700202C170020541700200040005027
S214004780301700202DE9F843284A0138135C39B168
S214004790274F013339781354012904D8BDE8F8832C
S2140047A0013B1354FAE7FFF71BFF0128044635D8F0
S2140047B017F04FF9DFF88480054698F8003013B3F9
S2140047C01C4E33781BB9012232701B4A1370DFF877
S2140047D0709099F8003023B100F00AFB002389F8A6
S2140047E00030284617F039F9012017F044FF17F07B
S2140047F030F9337805461BB100F04CFB00233370CC
S214004800002388F80030284617F027F93878A042A9
S214004810C4D02146FFF7F2FE3C70BFE70329F5D16E
S2140048200228F3D117F02DFFF0E700BF2725002060
S214004830292500201F2500202325002022250020D2
S2140048402025002010B5044617F003F9002C0CBFF5
S214004850FF210121064A13780B44DBB21370B3FA2A
S21400486083F3BDE81040034A5B09137017F0F5B8F0
S214004870262500202525002038B517F0EAF8094B34
S21400488005461B78012B04D817F0E7F800242046CD
S21400489038BD054B1C6800F047FB0444284617F05B
S2140048A0DCF8F4E7292500202C17002038B54160F5
S2140048B0044617F0CEF805462146044817F0DCF803
S2140048C02846BDE8384017F0C8B800BF5817002083
S2140048D0054B1B685843054B00F5742000F23F203B
S2140048E0B0FBF3F0704700BF5417002040420F00A3
S2140048F02DE9F04F85B0EFF3108772B6AFF3008066
S21400490017F013F800286FD07F4EDFF82882337830
S21400491023B10020FFF7DCFE00233370FFF760FEB4
S2140049200446002867D0841EE4B2012C6AD9FFF73B
S21400493057FE01280546754CDFF8FC9100F28C8086
S2140049402078854240F0C480207800F0D7FA99F8A5
S214004950003013B16E4B1B782370AFF3008007B99D
S21400496062B6EFF3108772B66A4B1A7852B100221D
S2140049701A70674B20781B78984203D1012121706A
S214004980FFF73CFE644800F0FBFB16F0D8FF054638
S2140049900028BCD1614BDFF89081187098F8003081
S2140049A0ABB189F80000DFF8889199F800301BB1A8
S2140049B000F01EFA89F80050002017F05CFE002870
S2140049C000F0998000F066FA002388F8003033780B
S2140049D023B10020FFF77CFE0023337000212078EF
S2140049E0FFF70CFE00232370AFF3008007B962B612
S2140049F005B0BDE8F08F3378002B98D0FFF768FE3F
S214004A00347094E7002003A900F008FC0446002850
S214004A108DD1D8F80030039A9A4205D80120FFF7C6
S214004A2057FE0123337082E73D4B1D6800F07CFA89
S214004A30039B05449D42F1D200F08EFA8200039952
S214004A4042F0020292B2CDE900422346354A491BA3
S214004A50314817F022FE6AE7334BDFF8C0A01B7818
S214004A6003F0FF0B2BBB00F047F9207885422FD1CF
S214004A709AF800307BB92C4D2B78002B7FF464AF6E
S214004A802A4B1B7823B900F0ADF90122284B1A7087
S214004A9001232B7058E7022DEDD18AF800B014E000
S214004AA02378022B24D100238AF800301FF08BFBDA
S214004AB01EE0207885420BD19AF80030002BDAD021
S214004AC0022DD8D100238AF800301FF07CFBD2E7F5
S214004AD00023DFF848A08AF8003099F8003013B9B0
S214004AE02946FFF78BFD9AF800302570002BD7D1AA
S214004AF0012DC0D828E7012000F000FA07B962B6F9
S214004B00EFF3108772B657E72125002029250020ED
S214004B10242500201D2500203417002025250020F0
S214004B202C170020AD460000222500202625002058
S214004B3020250020301700202325002010B516F071
S214004B4088FF0022054B1C781A7016F086FF00F0CE
S214004B50A5FCE4B22043C0B210BD00BF1E25002055
S214004B6073B5114E0446337883420FD04FF400736A
S214004B700E4DADF8043058B101A8FDF71BFA4020E1
S214004B80FFF7A6FE2B68181A2860347002B070BDB6
S214004B908DF8050001A8FDF70DFA4020FFF798FEF6
S214004BA02B681844F0E700BF9B29002090170020D0
S214004BB073B5002401A88DF80440FDF7CDFA204611
S214004BC0FFF7CEFF404A4149136F414803F0070301
S214004BD00B60D2F800113F4D01F0030101604FF465
S214004BE000203D49032B48664FF40030486601F527
S214004BF098318969C1F3400129705DD0D2F820311F
S214004C0003F00303981E43424341D2F82421334C59
S214004C1002F00702022A08BF43F001034FF4C870EF
S214004C202370FFF755FE00222D4B2E4918602E4E9E
S214004C300B680132D2B20A2A46F8040BF9D10344B3
S214004C4000EBC00003440B602B78284D63B3237839
S214004C501D4A3BB9D2F8003103F00303591E4B42FC
S214004C604B412370D2F8003103F00303022B25D00A
S214004C70032B26D0012B17D1FBF7F6FF024698B17F
S214004C801B4B1C4EDC6800231946C4F30B0401348E
S214004C9004EB84040138E4FB060114F0D3FAFFF7B2
S214004CA017FE2B6803442B601F20FFF711FE2B68AE
S214004CB003442B6002B070BD0123A6E7FBF7EEFFAE
S214004CC0DCE716F0BEFED9E70080005094170020FF
S214004CD0981700202E250020009000502F25002039
S214004CE05C17002060170020641700209017002033
S214004CF000C0015040420F00074A0849D2F8203150
S214004D0003F003030B60D2F82431054A03F00703CF
S214004D10136017F030B800BF00800050A0170020C6
S214004D209C17002008B5104B1A78C2B100221A70E2
S214004D300E4B1A6F22F0070242F001021A67D3F8F0
S214004D40202142F00302C3F82021D3F8242122F0C8
S214004D50070242F00302C3F82421FBF76FFF01228B
S214004D60034B5A6708BD00BF2D2500200080005069
S214004D7000E000500122154B10B55A67144B154C35
S214004D801B7813B3022017F0ECFCF0B100F076FAB3
S214004D90D8B1A36DD90302D5E36D9A0715D40D4B90
S214004DA09B6DDB0711D401220B4B1A7017F0B8FC71
S214004DB0BDE81040094B0A4A1860136F23F007033A
S214004DC043F003031367FBF739BF10BD00D0005054
S214004DD02F25002000C000502C2500208C17002016
S214004DE0008000500122014B1A7070472D250020CC
S214004DF0F8B51F4B1B78002B39D01E4C2378B3B95F
S214004E001D4B9A6DD10302D5DA6D92072FD49B6D98
S214004E10DB072CD417F084FC184B194A1860136F64
S214004E2023F0070343F003031367FBF707FF17F0AE
S214004E3077FC124B134D1B68134EC01A2B78134F7A
S214004E4056F8232046F82300111A3A681048521ADA
S214004E500A213A600932B2FBF1F20133DBB202609A
S214004E60B3FBF1F201FB12332B7000232370F8BD65
S214004E702F2500202C25002000C000508C17002075
S214004E80008000502B2500206417002060170020AB
S214004E905C17002008B516F071FF124B12491A6F06
S214004EA0096822F007020A431A671049D3F820213E
S214004EB0096822F003020A43C3F820210C49D3F8FC
S214004EC02421096822F007020A43C3F82421094B6B
S214004ED01B7813B10122084B9A62BDE80840FBF725
S214004EE0ADBE00BF0080005094170020A017002021
S214004EF09C1700202F25002000E0005002280AD032
S214004F0003280BD001280CD1064A136923F00403AA
S214004F10136130BF70470020FDF758B80020FDF73A
S214004F2089B8704700ED00E0054B187818B1054BBE
S214004F30186800EBD000044B1B681844704700BF8D
S214004F402F2500205C170020901700200122014B1F
S214004F501A7070472F250020014B1878704700BF45
S214004F602F25002038B517F0E9FB0025084B094C23
S214004F701A682368C31A2AB123B15169994203D328
S214004F80C91A5161206038BD55615B1A9268F2E714
S214004F90AC170020A8170020C38870B504460D463D
S214004FA03BB9FFF769FC8542064602D217F057FB6D
S214004FB035460E4965610B688BB90C60A3600DE041
S214004FC0AD1A9A68184665616AB113465A69AA42CC
S214004FD0F6D930B18460521BA3605A6170BD0020C0
S214004FE0F4E70C60F7E79C60A260F7E7AC170020D8
S214004FF038B5134D2B685B6993B1124A02201468CA
S2140050001C4417F0A2FB204600F094FA00230E4939
S2140050102A680B70D088800709D501230B7038BD2D
S214005020022017F092FB022000F0CEFAEEE792681C
S214005030002AF4D050690344012BEBD9EFE700BFF8
S214005040AC170020A81700203125002070B51646A2
S2140050509DF81420C0E903360271049ABDF8183092
S2140050600260002204460D468260C380EEB917F047
S21400507065FB2844A0619DB12E4616F0EAFC054665
S214005080FFF770FF31462046FFF786FF104B1B6880
S214005090A34201D1FFF7ACFF284616F0DEFC02E083
S2140050A0E36865617BB9002070BD17F047FB3044AC
S2140050B0A061002DE0D1E3686561002BDDD02046BD
S2140050C021689847D9E7204621689847EBE700BF54
S2140050D0AC17002000220C490B687BB183420AD132
S2140050E083687AB1936083681BB15A6941690A4440
S2140050F05A61002070471A469B68EEE70028EFD0FA
S214005100022070470B60EEE7AC17002070B516F073
S214005110A7FC144E05463478FCB9134B1C60134BA1
S2140051201C60134B1C8000F0C5F9012017F00DFB26
S21400513000F06CFA0F4B0246186020B9284616F0AD
S21400514095FC232070BD234640F2E7310A4814F050
S21400515079F80A4B186001233370284616F086FC4F
S2140051600020EFE732250020AC170020A81700200B
S214005170A0240020B017002018FCFFFFA417002072
S21400518070B5044640B316F064FC144E0546FFF7AF
S214005190E9FE3068A04209D02046FFF79BFF044690
S2140051A0B0B1284616F059FC204670BDFFF792FFB6
S2140051B004460028F5D133683BB9022000F0ECF92C
S2140051C0284616F04AFC0024EEE7FFF711FFF7E743
S2140051D03368002BF4D1F0E72224E5E7AC17002073
S2140051E038B50C460546A8B1A1B100230B7016F0E1
S2140051F037FC0121084B1B6833B916F037FC00203A
S21400520038BD9D4204D121702278002AF9D0F4E7F7
S2140052109B68F1E72220F3E7AC170020F8B50646B6
S2140052200F4616F01DFC00250446124B1B6823B9DA
S214005230204616F01BFC1B2011E05A691544DA883C
S214005240B2420DD117F07AFA0B4E3368C01AA84254
S2140052500AD3002320463B6016F008FC0020F8BD69
S214005260FF2EEFD09B68E2E717F068FA33682B440E
S2140052701B1AEFE7AC170020A817002008B5084B4C
S2140052801B7803F0FF004BB117F04AFA054B1B687A
S2140052909B69C01A02288CBF0020012008BD00BFF1
S2140052A031250020AC17002070B516F0D9FB064655
S2140052B017F044FA084B04461D880120ADB217F0DB
S2140052C050FA18B117F03AFA04460135304616F08F
S2140052D0CDFB2046294670BDA0240020014B18684F
S2140052E0704700BFB0170020F8B50C4B05461B688A
S2140052F00E4683420FD3002440F2E7302146084B87
S2140053004FF47A721F680023E5FB070113F09AFF3B
S21400531030602046F8BD2120FCE700BFA41700201F
S214005320B01700200F4B10B51A689AB14FF47A7177
S214005330531E1342A0FB01010ED1B2FA82F2C2F153
S2140053401F04531CD243E04001FA03F3184321FA2A
S21400535002F20243104610BD002313F073FF02460C
S214005360F8E700BFB0170020C2072DE9F047044653
S2140053700BD5474A138801339BB21380FFF7F2FD23
S214005380444B1B680BB1FFF733FEA3077ED516F020
S21400539067FB4FF0000905464E46FFF7E3FDC8469B
S2140053A03C4F3C680CB163698BB100223A4B012E2E
S2140053B01A7003D119F0020F18BF1E70002C61D0AE
S2140053C0FFF716FE2846BDE8F04716F04FBB23460B
S2140053D05A693AB91A792179914288BF1C469B6866
S2140053E0002BF5D1284616F041FB2569DDB117F0F4
S2140053F0A5F9A269A0EB02094FEAE9734D4578EBDF
S214005400030311DA23691344A361E368B4F8069032
S214005410013613B120462168984716F021FB054651
S214005420FFF7A0FDBDE7A94616F01AFB8246204608
S214005430FFF750FE504616F019FB2369002BE4D008
S214005440A38BB5EB090533B1E28B13449BB2B3F5DE
S2140054507A7F0FD2E38316F003FB81462946204667
S214005460FFF79AFDA369226948461344A36116F024
S214005470FDFACAE7A3F57A73E383A369013D013B0E
S214005480A361E8E7022000F087F89BE7BDE8F08715
S214005490A0240020AC1700203025002010B516F000
S2140054A0DFFA034B1C7816F0E1FAE4B2204610BD92
S2140054B0302500201FB500241B4B18689A880290E0
S2140054C0D3F806009B7A00901848ADF80C208DF8AB
S2140054D0043016F0B7FD02A88DF808408DF80C4091
S2140054E0FDF74AF8694601208DF80040FDF700F800
S2140054F04FF0B04240F2FF31936923F47F7323F0FC
S214005500030393610A4B5961936A13F00803FBD1B6
S21400551013620120FDF706F80C20FEF75BFA0C205C
S214005520FEF74AFA04B010BD3C6302002463020092
S2140055300020005810B5044616F08BFA4FF0B04223
S214005540936A1907FCD4136A116C5269520604D484
S214005550CA1A032A01D899420ED1E21A022A98BF23
S214005560DC1CB4F1FF3F38BF013C4FF0B0431C6475
S2140055709A6942F040029A6116F06FFA054A13786B
S2140055803BB14FF0B041CB6B43F00203CB6300233B
S214005590137010BD9C290020820700F001030AD575
S2140055A00121084A43F0400311704FF0B041CA6B26
S2140055B022F00302CA634FF0B0418A6922EA03036D
S2140055C08B6170479C290020830742BF4022014B15
S2140055D05A6170470010005810B516F041FA4FF0A7
S2140055E0B04304465B695A06074A03F0010003F01D
S2140055F0510348BF40F002005361FFF7B5FE204656
S214005600BDE8104016F032BA0020005807B5044B2B
S21400561001A9187916F00CFD019803B05DF804FB9B
S2140056202C6302000A4B10B5D3F8403203F0030394
S214005630013B012B0BD816F00CFA04460121022080
S214005640FFF7A0F82046BDE8104016F006BA10BDD9
S214005650008000501FB503F0E3FD18F083FC19F03E
S214005660BAFC064A01AB10685168127A03C301A857
S2140056701A7002F0E9F805B05DF804FBE06302007A
S214005680024A0349034807F0A5B900BF4863020071
S21400569060630200986302004FF08052014B5A602C
S2140056A0704700BF00ED00E01B0603F0706300F0DB
S2140056B00F000902034301F47061120402F4702221
S2140056C00B431343014A1360704700BF0020025C7F
S2140056D060B5054619B10139B1F5806F0FD2094E94
S2140056E0F06810F48030FBD143EA012312072B4305
S2140056F002F08052134343F00043736060BD012004
S214005700FCE700BF0020025C0122054B9A60DA68C5
S214005710D203FCD4D86820F00F000004000C7047B9
S2140057200020025C014B1868704700BF0040025C16
S214005730014B5868704700BF0010025C014B186BA5
S214005740704700BF0010025C014B1868704700BF2E
S2140057500010025C014B9860704700BF0010025CAE
S214005760014B1864704700BF0010025C014B586480
S214005770704700BF0010025C014B5863704700BFC3
S2140057800010025C0022014B1A6070470010025C99
S214005790024A136843F00103136070470010025C6E
S2140057A0024A136823F00103136070470010025C7E
S2140057B043F20402014B1A60704700BF0010025CFF
S2140057C0024A136843F03003136070470010025C0F
S2140057D0044B1A6842F480721A601A6822F48072C7
S2140057E01A6070470010025C024A136843F4806334
S2140057F0136070470010025C034A136823F470239A
S21400580043EA0043136070470010025C044B1A69B9
S21400581002605A6942609A698260DB69C3607047B9
S2140058200010025C0268044B1A6142685A61826882
S2140058309A61C268DA6170470010025C024B1A6B0C
S214005840D207FCD4186270470010025C0322024B99
S214005850186019615A6370470000025C82B01FB579
S21400586007930A9B04AC8B4228BF0B4604E907004B
S2140058701048D100079948BF03330160099948BF13
S21400588023F0030323F0704301F0E041194341F095
S21400589000518160002102F0E042019C1A4342F070
S2140058A00052C16004618261416304B0BDE81040EB
S2140058B002B070470000025C3F22034B1A631022BE
