S02B000062745F7261696C5F736F635F656E657267795F68617276657374696E675F6B696E657469635F737741
S113000000100020E9040000016F0000016F0000EF
S113001067710000016F0000016F0000016F0000B4
S1130020016F0000016F0000016F0000016F00000C
S1130030016F0000016F0000016F0000016F0000FC
S1130040016F0000016F0000016F0000016F0000EC
S1130050016F0000016F0000016F0000016F0000DC
S1130060016F0000016F0000016F0000016F0000CC
S1130070016F0000016F0000016F0000016F0000BC
S1130080016F0000016F0000016F0000016F0000AC
S1130090016F000031070000016F0000016F0000D4
S11300A0016F0000016F0000016F0000016F00008C
S11300B0016F0000415F0000016F000089690000CA
S11300C0717700006D770000796100007D77000092
S11300D0757700005D69000079770000C969000048
S11300E0814D0000D14D0000396A0000016F00000D
S11300F0016F0000016F0000016F0000016F00003C
S1130100016F0000016F0000016F0000016F00002B
S1130110016F0000016F0000016F0000016F00001B
S1130120016F0000016F0000016F0000016F00000B
S1130130016F0000016F0000016F0000016F0000FB
S11301400348044B834202D0034B03B11847704762
S1130150B0180020B018002000000000064B07492A
S1130160C91A891048BF0131491003D0044B0BB19F
S113017001481847704700BFB0180020B01800208D
S11301800000000010B5064C237843B9FFF7D8FFF0
S1130190044B13B10448AFF300800123237010BD56
S11301A0E017002000000000A4B8000008B5054BCB
S11301B01BB105490548AFF30080BDE80840FFF7CF
S11301C0CDBF00BF0000000020120020A4B8000032
S11301D0A3F5803A704700BF174B002B08BF134BA1
S11301E09D46FFF7F5FF00218B460F461348144A3E
S11301F0121A07F0C7FA0E4B002B00D098470D4B8C
S1130200002B00D098470020002104000D000D4869
S1130210002802D00C48AFF3008006F01FFE200037
S1130220290000F009F906F007FE00BF00000800ED
S1130230000000000000000000100020001000205A
S113024000180020000000000000000013B500208A
S113025000F078F800F0EAF84FF4807300221449B3
S1130260044607F08FF8B0F5807F00D0FEE7114A0E
S1130270114B116C20469970116C090AD970116CDC
S1130280090C1971116C090E5971516C9971526CE8
S11302900A49120ADA710023094A0093252307F058
S11302A0BAF801222046074B1A7002B010BD00BFF5
S11302B0381200200080E00F081800205555550022
S11302C0D6BE898EE217002073B5114E04463378EA
S11302D0ABB10025357006F069FF0122294620469E
S11302E006F05DFF01231A220A49204607F048F868
S11302F02A4629462046084B009506F055FF074B31
S11303001A781AB100221A700123337002B070BD3A
S1130310E21700200818002000180020E117002030
S113032002F0AA4103F02200014308D002F08072D7
S113033003F020031A431EBF0122014B1A707047B9
S1130340E1170020F0B5002107468DB0324801F0D6
S1130350F5FB324D286000B9FEE7002304A904939D
S113036007F00CF8064600B1FEE701462C4A28685F
S113037001F0E0FD642296232C68CDE9096620464D
S1130380CDE90523CDE907230B9607F00EF8042FDA
S11303900DD8DFE807F0031014191B00204601F004
S11303A02BFE20B9204605A901F062FC90B120463D
S11303B007F00BF8FEE7204601F024FEF1E70021E8
S11303C0204607F004F8ECE70221F9E7204601F0A3
S11303D00DFEE6E74FF4F173124ACDE900234FF026
S11303E0FF324FF0FF33286806F073FF00B1FEE7D9
S11303F00D4B28681B8803A9ADF80C30ADF81430F8
S113040006F04FFF00B1FEE7286805A906F05FFF7C
S113041000B1FEE70DB0F0BD241800203418002010
S1130420E16E000000200055D8770000014B1868E9
S1130430704700BF3418002008B506F098FEFFF797
S113044005FF044C206006F09FFE2068FFF73CFF88
S1130450F9E700BF3813002008B501F04DF8012872
S11304600ED10F4B04205A6E4FF480230D495203D2
S113047058BF0D4A4B6601F51041086258BF5366D8
S113048001F088FA00F01CF806F06BFE01F060FA47
S113049006F060FE01F06CFABDE8084000F006B812
S11304A0008000500090005000A0005008B50348A0
S11304B006F052FEBDE8084006F0F5BC987800004E
S11304C0014806F049BE00BF987800000348044A7A
S11304D00449121A921006F014BD00BF4001000036
S11304E0400100000018002008B500F02FF8FFF7C5
S11304F0EDFF124B12498B4212D30020114B1249CB
S11305008B4218D3FFF768FE186850F822405868E9
S113051040F82240013298688242F5D30C33EAE76E
S11305200022F8E71C6844F8220001325C68A24209
S1130530F8D30833E4E70022F8E700BFACB80000C2
S1130540B8B80000B8B80000B8B800004FF40041D3
S1130550134B144A70B59A60D3F88820124D42F4B4
S11305607002C3F88820114A05F5005491664FF0D3
S1130570FF3222664FF6DF7262660222C3F8D02091
S1130580BFF34F8FBFF36F8F4FF44036032001F05A
S11305902DFA0320E66001F01BFA2E6170BD00BF46
S11305A000ED00E0000000000080004400900050D6
S11305B0014B1868704700BF3C180020014B1860BD
S11305C0704700BF3C180020084B1B6F03F0070363
S11305D0022B04D0032B05D0012B05D0FEE7044BDE
S11305E018687047034BFBE70348704700800050CE
S11305F03C18002044180020002D310108B5FFF7F5
S1130600E3FF054B1B6FC3F303330133B0FBF3F07C
S1130610024B186008BD00BF00800050381800204D
S11306200048704700B4C404014B1868704700BF09
S113063044180020054B1860054B1B6F03F007039B
S1130640032B01D1FFF7DABF704700BF4418002025
S11306500080005000487047002D3101014B18689C
S1130660704700BF4018002038B5124B05461B7870
S1130670DBB1E0B106F060FC0F4A00231146147BA5
S113068054B92B6001251A0101EB03131D738C501F
S113069006F058FC204638BD0133082B02F1100245
S11306A0EDD106F04FFC0548F5E70548F3E70548AA
S11306B0F1E700BFE31700203C140020048000F0A1
S11306C0028000F0018000F0154B13B51868002378
S11306D001908DF8043006F02FFC124B1C7824B1E5
S11306E006F030FC104802B010BD01221A7006F06A
S11306F029FC0E4B01A81C731C7783F82C4083F84B
S11307003C4083F84C4083F85C4083F86C4083F8A9
S11307107C4008238DF8073000F048FE2046E2E7CD
S1130720DA770000E3170020038000F03C14002077
S1130730184B2DE9F0411F6D5B6D1F4000D5FEE79E
S113074001260025144CDFF85880374218D023685E
S1130750C8F85060A3B1A168284601316268A1605D
S11307609847637B012B0BD150B90C4B03EB45131A
S11307701A7B60F341021A731A7F60F341021A77FD
S11307800135082D4FEA460604F11004DDD1BDE819
S1130790F08100BF000004503C1400203C130020F2
S11307A000200450044BD3F88420D206FBD4D3F8A1
S11307B08400C0F381107047004000502E4B9842D3
S11307C04AD022D82D4B984240D014D82C4B984272
S11307D039D00AD82B4B984232D02B4B98422FD089
S11307E02A4B98422CD000207047294B9842FAD1CA
S11307F0284B186F7047284B98422AD0274B9842B1
S1130800F1D1244BD3F880007047254B98422BD06C
S113081009D8244B984223D0234B9842E3D11D4B53
S1130820D3F88C007047214B984221D003F5740310
S113083003F510539842D6D1164BD3F8980070475D
S1130840144B986D7047134B586E7047114B586F8B
S11308507047104B986F70470E4BD3F88400704765
S11308600C4BD3F8880070470A4BD3F890007047BC
S1130870084BD3F8940070470048E8010024F400C2
S1130880C0CF6A0080841E0000093D0040420F0072
S1130890405DC6000080E00FC0EA210180BA8C01EF
S11308A0007E560380D54302006CDC020090D00326
S11308B038B5104B0546D3F820310C4603F003033A
S11308C0022B0BD0032B0DD0012B0FD1FFF770FEA1
S11308D0052305B1286004B1236038BDFFF7A4FEE9
S11308E00323F6E7FFF7B6FE0223F2E70123002015
S11308F0EFE700BF0080005073B50D4600210E4B9A
S11309000191D3F88041064604F00304012C09D078
S1130910022C0CD00C460EB1019B336005B12C6047
S113092002B070BD01A8FFF7C3FF0F24F3E7FFF780
S113093091FE0190EFE700BF0080005038B5184BDE
S11309400546D3F824010C4600F00700062823D8F6
S1130950DFE800F0040A121A1E0E1600012305B186
S1130960286004B1236038BDFFF722FE0523F6E7B3
S1130970FFF71EFE0623F2E7FFF756FE0323EEE71A
S1130980FFF752FE0423EAE7FFF764FE0223E6E7DB
S113099006F0C3FA0723E2E700231846DFE700BFA7
S11309A00080005038B5104B0546D3F840310C4652
S11309B003F00303022B0BD0032B0DD0012B0FD11B
S11309C006F0ADFA092305B1286004B1236038BDEF
S11309D0FFF744FE0823F6E706F0A4FA0B23F2E738
S11309E001230020EFE700BF0080005038B5144B0E
S11309F00546D3F800020C4600F0070004281BD873
S1130A00DFE800F003090D111500012305B128608A
S1130A1004B1236038BD06F082FA0923F6E7FFF734
S1130A201DFE0823F2E706F07DFA0B23EEE7FFF73D
S1130A30E5FD0E23800AE9E700231846E6E700BF38
S1130A400080005038B5104B0546D3F840320C46B0
S1130A5003F00303022B0BD0032B0DD0012B0FD17A
S1130A6006F05DFA092305B1286004B1236038BD9E
S1130A70FFF7F4FD0823F6E706F054FA0B23F2E738
S1130A8000231846EFE700BF0080005038B5104B34
S1130A900546D3F860310C4603F00303022B0BD058
S1130AA0032B0DD0012B0FD106F039FA092305B120
S1130AB0286004B1236038BDFFF7D0FD0823F6E7B2
S1130AC006F030FA0B23F2E701230020EFE700BF22
S1130AD00080005010B40D4C0B46D4F8204204F0B2
S1130AE00304012C0AD0022C0CD008B100210160AF
S1130AF00BB100221A605DF8044B70475DF8044B9B
S1130B00FFF7D6BE5DF8044BFFF74CBF00800050E2
S1130B10B0F5207F1FD009D8B0F5007F15D003D8D9
S1130B2068B1B0F5C07F0AD000200CE0B0F5607F5A
S1130B30FAD10B4BD3F88000C0F3011003E0084B4B
S1130B40186FC0F3033001307047054BD3F89000A1
S1130B50C0F30460F7E7024B186FC0F38020F2E79C
S1130B60008000504FF400320E4B014610B50020B7
S1130B709A66FFF7CDFF484341F671320A490B4BA1
S1130B80884294BF00200120DC69DA639A6822F469
S1130B90401242EA00529A60E20344BF0022DA6340
S1130BA010BD00BF00900050005A620200000350C4
S1130BB0420910B50FD0012A0FD00A4B0A4C022A61
S1130BC018BF234600F01F0049B103F580530122EA
S1130BD082401A6010BD1346F4E7044BF2E703F5B4
S1130BE00053F4E768800050608200506480005035
S1130BF008B5802006F0B2F9034B98429EBF4FF42B
S1130C008032024B1A6708BD005A620200A00050ED
S1130C101FB50023B0F5807F019377D028D83828FA
S1130C2000F094800BD82438092810D809280ED84D
S1130C30DFE800F0676767670D0D620D377D5228A6
S1130C405FD008D83D283BD03E2800F0848001982E
S1130C5005B05DF804FB8028F9D1414B1B6F03F00C
S1130C600703013B032BF2D8DFE803F044413F6C58
S1130C70B0F5D06F5BD019D8B0F5A06F66D00AD8A4
S1130C80B0F5806F3DD0B0F5906FE0D1002001A9A0
S1130C90FFF754FEDBE7B0F5B06F2DD0B0F5C06FB1
S1130CA0D5D1002001A9FFF77DFED0E7B0F5006F94
S1130CB0ECD00AD8B0F5E06F4DD0B0F5F06FC6D1E6
S1130CC0002001A9FFF7E2FEC1E7B0F5086FBED12D
S1130CD0234BD3F8003103F00303022B2CD0032B56
S1130CE02ED0012B30D1FFF79FFC032300E0052316
S1130CF00193ACE70223FBE7002001A9FFF7FCFD09
S1130D00A5E7002001A9FFF7D3FDA0E702934FF068
S1130D10E0231B695B0705D5FFF770FC0C230393E5
S1130D20039BE5E703A902A8FFF73CFEF8E70020D0
S1130D3001A9FFF75BFE8AE7FFF790FC0823D7E7DA
S1130D4006F0EBF80723D3E70123D1E7002001A93C
S1130D50FFF7C0FE7BE7002001A9FFF773FE76E7EB
S1130D60008000504FF48032074B0849586E03F559
S1130D7080535A660B6A23F001030B62C3035CBF02
S1130D80034B5A66704700BF0080005000C00750F4
S1130D9000A00050F8B504468020FFF739FF03286F
S1130DA000F087804FF40022424B02215A6645F638
S1130DB00E03414AC2F88030404B9962012103F589
S1130DC080539962936DD903FCD4D4E900131B05B5
S1130DD043EA0163E17B94F820500B43217BE77ED7
S1130DE043EA0143617B6D0143EA0133A17B43EA9A
S1130DF0811313619169D4E904031B0643EA8063F8
S1130E0001F000410B43A17E94F823000B43217EA3
S1130E1043EA0143617E43EA01239361136AE6696D
S1130E2023F00D0394F8221043EA8703002E2DD1FA
S1130E301362966A94F8213045EA031326F03305C9
S1130E402B4343F0010393621D4D1B4B9A6D35EA0E
S1130E500202FBD10222194DAA621A659A6D520050
S1130E60FCD41A69A56822F4700242EA05521A6198
S1130E704FF00042114B9A6119B9022203F58053D5
S1130E809A6278B901220F4B9A620BE0334343F024
S1130E9008031362936A23F0330303432B4343EAA7
S1130EA04103936294F824301BB1034B064AC3F800
S1130EB08020F8BD0090005000C0005000D00050C9
S1130EC00300014000E00050F1A7FFFF014B93F93C
S1130ED000007047E4170020014B1880704700BFE2
S1130EE0901800204FF4001208B5184B5A660223DC
S1130EF0174A5360936813F48033FBD1012822D13D
S1130F00FFF792FB134B984215D003F5122303F518
S1130F10F863984213D0104B00EB8002400AB3FBF5
S1130F20F0F3520A0A49CA620B6301234B6200229E
S1130F30074B5A6008BD45F67A13084AF2E745F6AE
S1130F401A03074AEEE75362F1E700BF009000502E
S1130F500040025000F0490264666666D8B8050095
S1130F60BBCF0500B0F5207F10B50C4642D008D8A1
S1130F70B0F5007F33D003D888B1B0F5C07F0ED070
S1130F8010BDB0F5607FFBD11F4A4C1ED2F88030F3
S1130F9023F0300343EA0413C2F88030F0E705F08D
S1130FA0D5FF06F09FF84FF48031184B164A1967A5
S1130FB0136F013C23F4704343EA04331367FFF7D0
S1130FC01DFB0446FFF7EEFBC0F10201204606F0CC
S1130FD083F800F02DF8BDE81040FFF709BE0A4A77
S1130FE04C1ED2F8903023F0F85343EA0463C2F85D
S1130FF09030C5E7044A4C1E136F23F4806343EA20
S113100084231367BCE700BF0080005000900050A9
S113101008B50121022000F09BF805F097FF06F0C7
S113102061F84FF48032014B1A6708BD00900050FC
S113103008B54FF4C07005F091FFBDE808400449BD
S1131040884294BF012102214FF42070FFF78ABF28
S113105080F0FA024FF4C02270B50546FFF7AEFBEC
S1131060314B04465A6603F598335A68012A04D171
S11310702E494A609A699207FCD18020FFF7C8FD87
S1131080052807D105F062FF06F02CF84FF48032F2
S1131090254B1A67264B24F040749D4230D0254BD3
S11310A09D4230D0FFF784FA8542064603D90121D8
S11310B0284600F08DF8204BDA6812F0060FFBD1B9
S11310C099689C609A68624012F4F81F1ED1284601
S11310D0FFF774FA8020FFF79BFD05280DD1FFF779
S11310E08DFA0446FFF75EFBC0F10201204605F0CD
S11310F0F3FFFFF79DFFFFF77BFDAE420CD270BDFF
S113110044F00074CEE744F08074CBE7802099600B
S1131110FFF77EFD052805D0BDE8704001210020C1
S113112000F056B83546DAE70090005000E0015070
S113113040420F0080841E0000000150034A0179E0
S1131140D36E23F030030B43D36670470040005046
S1131150F8B504461C4BD3F88420D106FBD4D3F84D
S11311608430C3F381139C422CD0FFF72DFA012C59
S1131170064602D1214605F0AFFF05F0D6FE4FF03A
S11311800072124B07465A66204605F0C7FF4FF41B
S113119080630D4D621E93402B676B6E9A0103D4DE
S11311A0D5F884309B060AD5384605F0C2FE022CD9
S11311B008D13046BDE8F840002105F08DBFD5F8D0
S11311C08430EAE7F8BD00BF0040005000600050E2
S11311D010B50C4608B9FFF7F7F9074B21461B7801
S11311E03BB1064B984204D80120BDE81040FFF7FC
S11311F0AFBF0220F9E700BFE5170020005A6202E2
S11312004FF0004238B5264B26495A6601224A60FF
S11312104AF6CD3103F50B235D6C1964154030BBE0
S11312209968C9070BD4002401221F4B5A6015B1D9
S11312301E4B1F4A1A6406F051F8204638BD1A495D
S11312408A601C4AD96ACC0705D4904201D107248C
S1131250EAE70130F6E79042E5D1F8E70132DC6ACB
S113126014F0080406D08A42F8D10724DFE70022EC
S11312701049F4E78A42F8D020220B4B0B495A62FA
S11312800122A3F580539A6023460A4A486A8006DD
S113129003D49342E9D00133F8E79342C7D1E4E79A
S11312A0009000500050095000600950004009505F
S11312B03254FFFF40420F004FF0004238B5174B45
S11312C0174C5A66012203F50C235A604AF6CD33B3
S11312D0656C2364437893401343124AD363C37801
S11312E08178A2689B0043EA011322F0740213433D
S11312F0A3600279837943EA022323614279C379A3
S113130043EA022363610078FFF77AFFEB0744BFE7
S1131310054B236405F0E2FF012038BD0090005026
S113132000400950004000503254FFFFF8B5044615
S11313300D461F4616464AB101238B403021184AF8
S113134001FB0022F7B141F21001535004EB4403B6
S1131350072D4FF00F014FEA031316D8A80006FA21
S113136000F281400F48184405F0D9FE4EB901231C
S113137030210B4AAB4001FB042277B141F210014A
S11313805350F8BD42F21001DFE7A5F108008000D8
S113139006FA00F281400448E5E742F21001EFE763
S11313A000C0035004C003500CC0035010B5012109
S11313B004462020FFF7FCFB01212120FFF7F8FB66
S11313C00122114B15205A60227812069A60617826
S11313D0A27842EA01429A61FF229A6200229A6349
S11313E01A644FF000425A654FF0FF3203F5005380
S11313F01A6500F0FBFA1520E17800F005FBBDE862
S11314001040152000F0E4BA00000450F8B501259E
S1131410C3B2DFF88CC0D1F800E09D408F7ACB7A5C
S11314200C46097BCCF850500CF5005C4CF820E0DD
S11314304FF0300E184E1B050EFB006094F80DC0E3
S113144043EA074343EA415322F00302C0F860C071
S1131450C365026705F070FD104B5D65237A13B117
S1131460336C2B433364637A13B1B36B2B43B36391
S11314702279A37943EA0243094A93616179E379C2
S113148043EA014305498B61034B55639D64BDE801
S1131490F84005F057BD00BF000004500010045090
S11314A00020045010B50124C0B2844005F044FD6E
S11314B0074BDA6A224208D15B6B9C430CBF0124C0
S11314C0002405F03FFD204610BD0024F9E700BFCD
S11314D0000004504FF48032064B5A6603F5E623AD
S11314E05B69C3F38512827003F03F021B0B4270E9
S11314F00370704700900050024B1868C0F3074017
S1131500704700BF0080E00F38B50446054D05F074
S1131510F8FE0FCC0FC594E8030085E80300002013
S113152038BD00BFBC14002047F6FF739A42F0B5E3
S11315306FD002296FD8394B5B5C012B6BD8384DC7
S1131540DF0005EBC30415F83330A178012B13D168
S11315500025E078401AA84202D80844C0B2F0BD81
S1131560431B6668A0EB530336F913609642D4BF5D
S11315701D4603F1FF30EEE760680028EFD0B0F9B4
S11315800040944204DBB0F902409442B8BF1446D0
S113159083883D44FF2B19BFC8224FF0280CB0F9B3
S11315A00620B0F908C0A2EB04030CBF01260026F4
S11315B093FBFCF333446E781BB29E4201DD002B97
S11315C001DA731E1BB24FF47A7C01339BB2071D00
S11315D05D1E2DB24FEAC50E00EBC505EA88AD6865
S11315E09E4214FB025222EAE27202F15C02B2FB56
S11315F0FCF204DD37F8335001339542E8D200EBB6
S11316000E039888904228BF1046884238BF084687
S1131610A4E7FF20A3E70020A1E700BFDE770000D6
S1131620BC1400200229F0B555D82C4B585C012875
S113163051D82B4C04EBC00114F830004B6801283E
S11316400FD1C8788C78904294BFC4EB0001C4EBEE
S11316500201001BCAB28242C8BF002233F9120041
S1131660F0BD002B37D08878904202D3B3F9020042
S1131670F6E7CC78B3F900009442F1D94C78998814
S1131680013CA1F1FF06714203F10405E4B271418A
S113169003F10C07CEB2B44216D805EBC1014FF4E6
S11316A07A756A43B1F902404968521A04EBD4715D
S11316B002EB610292FBF4F29042D1DBB3F9020037
S11316C09042CDDC10B2CBE737F831C04E1C9445C4
S11316D0E3D33146DEE70348C2E700BFDE7700000C
S11316E0BC1400200080FFFF08B50448FFF70CFF7E
S11316F0BDE80840012005F027BE00BFE4770000E4
S113170073B5044605F022FE48BB6946204605F041
S1131710FAFD00B1FEE7134E9DF8003032789A428C
S11317201DD00C2B09D0204600F01AFC054620469B
S11317300C4905F0D5FD10B1FEE76425F7E729460D
S1131740204605F0E2FD00B1FEE73378042B06D114
S11317506946204605F0D7FD9DF80030337002B08D
S113176070BD00BF9218002007B5FEF7ADFF084B0F
S1131770984200D040B9002101A8FEF775FF18B9BE
S11317809DF8040005F026FD03B05DF804FB00BFDE
S1131790038000F0B8B1036813F4E07F03F03F0066
S11317A0C3F382120AD0012A0DD1084B41B103F5CB
S11317B08053012282401A6000207047044BF5E7F1
S11317C003F50053F5E70E20704700BF6880005012
S11317D06480005030B58BB06C46574D0FCD0FC4AC
S11317E00FCD0FC495E8030084E80300534BD3F8EE
S11317F04C21110340F18B80A3F5FE431C884FF666
S1131800FF739C4208BF79248DF81940FFF75EFBF3
S1131810044484F308044A488DF81840FEF70AFF8C
S11318206846FFF7B7FA3220FFF756FB4548FFF743
S113183011FC454C01213520FFF7BAF90020FFF7D0
S113184051FBFFF7E5FB236F002023F0070343F070
S113185003032367236F23F4744343F480632367F0
S113186005F045FC394BD3F8FC20D20153D4D4F80D
S11318708030C4F88030344BD3F8202122F00302A6
S113188042F00202C3F82021D3F8242122F00702F7
S113189042F00202C3F82421D3F8802122F003028B
S11318A042F00102C3F88021D3F8402122F0030260
S11318B042F00102C3F84021D3F8602122F0030270
S11318C042F00102C3F86021D3F8402222F003025F
S11318D042F00102C3F84022D3F8002222F00702AA
S11318E042F00102C3F80022D3F8202222F00302BE
S11318F042F00102C3F82022FFF734FA4FF0E0224D
S11319000020136963F0040313610BB030BDD3F8F6
S11319105041E4B278E7D3F8FC2022F08072C3F897
S1131920FC20D4F88020C4F88020D3F8FC2042F0B6
S11319308072C3F8FC209EE7687800000080E00F06
S113194000F0490200B4C4040080005000ED00E03F
S113195007B56B46054A1068516803C36846FFF72C
S1131960ABFC002003B05DF804FB00BF90780000DE
S113197013B50024064A6846536F43F001035367C6
S113198000948DF80440FFF7D9FB204602B010BD47
S1131990004000506FF00403502110B50A480B4C6E
S11319A013F0800F03F1010206D12344402A83F887
S11319B000131346F4D110BD03F00F03043B03449A
S11319C019761346ECE700BF00ED00E000E100E00B
S11319D0002807DB01234109034A00F01F0083406C
S11319E042F82130704700BF00E100E0002808DB26
S11319F001224309034900F01F008240603341F88B
S1131A002320704700E100E00028ACBF00F16040F3
S1131A10064B4FEA0111C9B2ABBF00F5614000F0BB
S1131A200F0080F800131954704700BF14ED00E054
S1131A30BFF35F8F074B5A6A22F480325A62D3F89D
S1131A40942022F00102C3F89420BFF34F8FBFF318
S1131A506F8F704700ED00E038B5FFF7E9FF274AC4
S1131A602748D2F8C030274D23F0FF0343F0A003EA
S1131A70C2F8C030244B04689D4204F101011DD119
S1131A80224BC2F89840C2F89C3003F5FF437E33E2
S1131A90C2F8A0300160BFF35F8F0522174BC3F873
S1131AA094205A6A42F480325A62BFF34F8FBFF3D4
S1131AB06F8FBFF34F8FBFF36F8F38BD23F01F03BA
S1131AC0203BB3F1005F09D3C2F898400F4C43F0B8
S1131AD00103C2F89C40C2F8A03001600C4B0168BD
S1131AE0064A23F01F0343F00303C2F89810C2F818
S1131AF09C30084B0131C2F8A030CBE700ED00E088
S1131B00D414002000180020001800200300002036
S1131B101F180020E17F0020BFF34F8F0549064BBB
S1131B20CA6802F4E0621343CB60BFF34F8F00BF77
S1131B30FDE700BF00ED00E00400FA05F8B50D462E
S1131B4010B900242046F8BD0E4F3E68002EF8D18F
S1131B5000F030F804460028F3D0386000F076F83E
S1131B60204605F039FB38B130463E6000F06EF88F
S1131B70204605F02AFBE4E7002DE3D02046A847E1
S1131B80E0E700BFD8140020024B1868003818BFE3
S1131B9001207047D8140020431E033306D8044B99
S1131BA0984228BF1846642838BF6420704700BF95
S1131BB040420F00F8B5054605F0B7F907460F4B4C
S1131BC01E6826B9384605F0B4F9344611E0B46805
S1131BD08CB194F810C01CF0010F0CD14CF0010C26
S1131BE095E80F0084F810C084E80F00384605F02B
S1131BF0A0F92046F8BD3668E3E700BF4C18002082
S1131C0038B505460C4641B10B6833B11B68013346
S1131C1003D0CB680BB18B684BB905F017FDBDE859
S1131C2038404FF486724121002000F0C9B90846BB
S1131C3002F012F80023044A85F81031C5E9304354
S1131C40C2E9003338BD00BF0010002010B50446BF
S1131C5018B9054B054A136010BD00F0D3FAD4F847
S1131C60CC30002BF6D1F4E7B771000048180020FF
S1131C7008B502460868FFF78FFF08604868FFF759
S1131C808BFF48608868FFF787FF8860C868FFF7A4
S1131C9083FF0B69C860581C03D00B48834228BFDC
S1131CA003460B614B69581C03D00748834228BF85
S1131CB0034688694B61FFF76FFFBDE80840886100
S1131CC0104601F067B800BF40420F002DE9F84FFD
S1131CD0D0F8C43006460F4613B1038B8B4244D070
S1131CE0D6F8C0B0BBF1000F42D0DBF80830002BAF
S1131CF03ED0DBF80C1000293AD0D6F8D4A0BAF1C3
S1131D00000F38D04FF000094D46C84601E0DBF81B
S1131D10083005EBC50203EB8204E3890135BB42BD
S1131D2014D8238ABB4211D3B4F91220B6F9243053
S1131D30934250DD304696F80411FFF7F5FB737DAE
S1131D4081468342A04606D9DBF80C108D42DED3CF
S1131D50B8F1000F39D00023424630461946D04727
S1131D603783C6F8C48086F80D910020BDE8F88F4B
S1131D700320BDE8F88FD14647F6FF755446524616
S1131D8004EBC40803EB8808B8F80E30BB4216D83D
S1131D90B8F81030BB4212D3B8F91220AA4202D1CB
S1131DA04FF0FF09DCE7304696F80411FFF7BCFB5F
S1131DB0737D81468342D3D94246DBF80C1001344B
S1131DC0A14204D9DBF80830DAE70120CEE7002A83
S1131DD0FBD09046C4E7A046BDE700BF2DE9F0471D
S1131DE082B004460F46164601F070F9002851D11E
S1131DF03E4D2B68D4F8C0A0D4F8C4800BB1534531
S1131E0055D04FF00009AF6001F06CF90128074686
S1131E1044D12B68DAF80010D8F8002013B1186800
S1131E2088424FD0204605F081FBC5E900A8D4F8CC
S1131E30D4508DF80760002D4BD000222046114667
S1131E400DF10703A847204600F00AFD0546B9F145
S1131E50000F0CD05EB9012F05D025B1244B002111
S1131E6003205B689847284602B0BDE8F087B5FABE
S1131E7085F040F2DB323321400900F0A1F831460D
S1131E80204600F08DFE1B4B0546414620461B684C
S1131E909847E0E70023154D6B60AAE70021012075
S1131EA000F0EEF901F01EF90128FBD1B1E76B68EF
S1131EB0002BA6D04345A4D1AB689F4214D04FF069
S1131EC00109A0E7696811B109689142ADD0596868
S1131ED0A8E7617D94F80D313246994228BF19462E
S1131EE0204600F043FCAEE70025BCE700100020CC
S1131EF05418002048180020F8B50E46054605F091
S1131F0014F8314607462846FFF7E0FE044620B1A0
S1131F10384605F00EF82046F8BD01F0BDF822461B
S1131F2031462846FFF75AFF0446384605F001F8C3
S1131F302046F8BD084B10B4002A14BF14461C46B2
S1131F40064B1C6019B15DF8044B05F05EB90846F8
S1131F505DF8044B704700BFB771000048180020BB
S1131F6013B50446694605F0CEF9204605F088FA13
S1131F70FF28024606D020469DF80010FFF752FBCA
S1131F8002B010BD0048FBE70080FFFF4FF4007370
S1131F9007B50A490DF10602ADF8063005F0F4F96B
S1131FA0BDF80630B3F5007F05D1022808BF002034
S1131FB003B05DF804FB0120FAE700BFDC14002045
S1131FC008B550B90548064B01601A60054B1A68FC
S1131FD0054B1A60186804F07EFF08BD50180020F5
S1131FE0E0160020D8140020DC160020014905F07A
S1131FF0CDB900BF21330000014905F0C7B900BFC6
S11320004D330000014905F0C1B900BFF5320000AD
S1132010431C07D06FF0FF02034B10405A62A3F534
S113202080535862704700BF00E000B810B5042325
S11320304FF03A4101240A4AD1F81801C2F8183184
S1132040C2F814314C634FF400511163410742BF8D
S1132050C2F81431A2F58052C2F8183110BD00BF85
S1132060002000BA00F01803182B0AD003070AD482
S113207040F2011310F0100018BF1846034BD86744
S113208070470020FAE70120F8E700BF003F00B0E6
S1132090344B2DE9F7431E6801F4007900F0010385
S11320A0174653EA090205460C462FD04FF00008A4
S11320B00BB30023002201200021CDE9008803F0A6
S11320C0D5FB4146304602F08FFD01224146708324
S11320D0104605F08BF8716B06F1D80002F000FE93
S11320E021490868FFF794FF4FF0FF330B60337CFE
S11320F043F004033374B9F1000F07D001213046D3
S113210005F02AF924F4007405430C43D6E94A2364
S11321102A40234052EA030103D014493046096897
S11321208847FB070FD51249124A08680021136833
S113213011600121104A117003B198470F4B00211F
S113214002205B68984717F00E0F08D040F20B226C
S11321503B21002003B0BDE8F043FFF731BF03B0DB
S1132160BDE8F083D81400205C180020601800201B
S1132170F0160020F4160020E81700205418002060
S1132180F7B504461046D4E94AC7DDE908268CEAC7
S1132190020587EA06010540194085EA0C057940E5
S11321A0C4E94A51002523F4004106EA010320F062
S11321B0010043F40073024043F00203CDE90055EB
S11321C003F054FB237C9A0717D5D4F82C319B05D4
S11321D013D54FF48811204605F0BEF8237C65F32F
S11321E041032374D4E94A2302400B4052EA030119
S11321F003D00349204609688847002003B0F0BD96
S11322006018002038B10368044A002B08BF134645
S1132210034A13607047014BFAE700BF3D740000A6
S113222060180020024B986E00F00F00704700BF4A
S1132230003F00B00F2938B505460C460ED800F013
S113224051FF01280CD1074A2846936E23F00F034F
S11322502343936605F086F9002038BD0120FCE78E
S11322600220FAE7003F00B0014BD86E704700BF70
S1132270003F00B0014B0020D9667047003F00B01A
S113228003282DE9F347884655D82C4B13F80090C2
S11322902B4B1E5C2B4B13F800A004F046FE0746A4
S11322A003F0B2FC054640B100230022CDE900331F
S11322B001200023002103F0D9FA03F0ADFC48B15A
S11322C000230022CDE90033002000234FF4004115
S11322D003F0CCFA6EB31C4BDC6C04F008041B4B0B
S11322E031464846DC6403F0E7FD0123524631469B
S11322F0484603F06DFE164BDC6465B1154B186857
S1132300416BD83002F0ECFC13490868FFF780FEFB
S11323104FF0FF330B60B8F1000F04D00F4B0021D6
S113232003205B689847384602B0BDE8F04704F0E4
S113233000BE3446D3E702B0BDE8F087B0780000B1
S1132340AC780000A8780000004000B8006000B835
S1132350005000B8D81400205C1800205418002045
S11323600F4A136C13F0A00F15D1506C10F0040039
S113237013D10C4BD3F8EC3E23F07F4323F0FF033F
S11323805BB1D368C3F30362092A07D0B2F10C002E
S113239018BF01207047002070470120704700BF1C
S11323A0000002B8003000B070B504460D46164671
S11323B02BB1FFF73BFE2946204601F0BBF84FF056
S11323C03A420124D368D26A03F0070306339C40DF
S11323D0C2F30C03E41AA4B2B44228BF344629461B
S11323E02246024801F0F0F9204670BD0C0000BA04
S11323F070B50D46064620B9194B1B68A3B10320DE
S113240011E000F06FFE012828D1164B93F900402B
S1132410C4F12704641BC4F11C03002BB8BF5B4246
S1132420232B0CDD012070BDA1F10B03002BB8BFE1
S11324305B42232BF6DC0B4B19700020F3E7B574D9
S113244004F073FD084AE402136A04F4FF2423F43D
S1132450FF231C43146204F06CFDEEE70220E2E764
S1132460D8140020E617002000C000B8094B084625
S11324705A6A91020BD4D3F80021D20708D4D3F8B6
S1132480803013F4706F14BF0120002070470120C6
S1132490704700BF004001B8F8B50D46436B02EA2F
S11324A0010423EA0103234343633D4A01F00B0380
S11324B023EA0401D1642340A2F580526F07064643
S11324C0D36410D50121FFF7D1FF60B103F096FC6E
S11324D04FF4007314F0040F14BF324A324A5362AB
S11324E00422324B1A64E90606D514F0100F14BF07
S11324F000221B222E4B5A652A061DD5230616D50B
S11325004FF40012274B1A62012203F58053C3F8DB
S1132510002104F00AFD0E210746032002F052FBBD
S113252040F20122224B3846DA6204F002FD2146D1
S113253006F1D80002F0D4FBEF0503D5E00529D558
S113254002F02EFBA90503D5A20526D502F034FB23
S113255015F0600F09D0D6F8C810304604F06FFFAC
S11325608022144B9867144B1A612B0510D503F085
S113257045FC124A14F4006FD2F8EC3E14BF43F049
S1132580006323F00063C2F8EC3E0422074B1A6494
S11325900020F8BD02F0FEFAD4E702F007FBD7E70B
S11325A0006000B8005001B8006001B8002002B813
S11325B0004000B8003F00B0000002B8003000B096
S11325C070B50E4604F0B1FC054600F0AFFD0446BC
S11325D020B1284604F0ADFC204670BD03F00EFC8B
S11325E0104B3278D3F8EC3E022A23F0F00315D0D6
S11325F0101F42424241520043EA02137278022AF7
S11326000ED0111F4A424A41520043EA8213054A3E
S1132610C2F8EC3E0422044B1A64DAE70122EBE729
S11326200122F2E7003000B0002002B870B50E4677
S113263004F07BFC054600F08FFD044620B12846DB
S113264004F077FC204670BD03F0D8FB104B3278C1
S1132650D3F8EC3E022A23F00F0314D0101F424299
S11326604241520013437278022A0ED0111F4A428B
S11326704A41520043EA8203054AC2F8EC3E04226E
S1132680044B1A64DBE70122ECE70122F2E700BF06
S1132690003000B0002002B82DE9F8430E7804465B
S11326A0042E0D4690F804810BD100275FFA87F9B8
S11326B0484601F01FFB08B14E4602E00137042FE3
S11326C0F4D1304601F016FB002845D094F80431CB
S11326D0B34208D1AA88A36C9A4204D16A88B4F898
S11326E006319A4235D084F80461AB883046A4F8A8
S11326F008316B88A4F80631AB8804F58275A364AD
S1132700FF23A37504F0A9FF6075284601F0B2FA0F
S113271018BB284601F0E4FAF8B9D4F8C43053B130
S113272094F80411414506D02046B3F91220FEF76F
S1132730FBFE84F80D01204601F01EFB0949A4F8B4
S113274008010123084AD1F8FC1004F1D80002F072
S11327509FFE0020BDE8F88301200C2384F8043197
S1132760F8E700BF004F00B0A43F00B070B50546C5
S113277090F804010C460C281DD0FF291DD01AB175
S11327804FF0FF320E4B1A6004F067FF064695F8CF
S1132790040101F0E3FA844228BF0446E4B2B442DF
S11327A038BF3446E0B2A87501F0DAFBA0F1FF03AC
S11327B05842584170BD0220FCE70120FAE700BFEF
S11327C06818002010B590F8043104460C2B3ED054
S11327D0D0F8C4304175BBB3D0F8D420DAB990F83E
S11327E00D318B421DD300222046FFF7BFFF88B96D
S11327F0184B1B7813F0FD0F0BD1204601F0BCFAE7
S113280015490123154AD1F8FC1004F1D80002F04F
S11328103FFE002010BDB0F92420B3F912309A42D3
S1132820E1DD0022204694F80D11FFF79FFF0028F8
S1132830F0D1C4F8C400204604F01BFD0146204634
S1132840BDE81040FFF758BBFF238375E1E7022082
S1132850E0E700BF9A180020004F00B0A43F00B08A
S1132860C36B012B01D10020704770B50546544954
S11328708EB004F02CFFD5F8C46001462C8BC5F84B
S1132880C80026B1336813B15B68002B69D104F02A
S11328904CFB04F04EFB0123D5F8C8108DF80E3024
S11328A0B389D6E90120E31A9BB200FB0322454811
S11328B0ADF80C3003680292994207D0284604F020
S11328C0BEFD80224049414B88671A61404C3F4E0F
S11328D000F008FC0128FBD1236CD907F8D4336C31
S11328E0DA01F5D4D5F8C81028460D919DF80E20CC
S11328F0029908AB02F0B6FA00282FD100F0F2FBDF
S11329000128FBD1314A3249136CDB01FCD40B6C36
S1132910DE07F9D408A901A802F0BCFCF0B92A8B9F
S11329202C4B5A642B7C60F341032B7404F04FFE50
S1132930D5F8C43002465B691968431EDBB2FD2B2F
S1132940049114D9CC1C12D9234B01311B6815D026
S1132950D81C10D8284604A904930AE002200EB01B
S113296070BD1A68032A92D99B6A5B0E96E72846C3
S113297004A904F016FE00200EB070BDD91C04D8C2
S1132980284604A9049304F00CFED5F82C319B05C9
S113299004D42B7C43F002032B74ECE74FF4803116
S11329A0284604F0D9FCD5E94A2302400B4052EAF8
S11329B00301E0D00949284609688847DBE700BFDE
S11329C0FC4F00B0E4160020003F00B0000002B845
S11329D000C002B8008001B87418002060180020FC
S11329E038B590F8105104463DB304F09EFA1F2206
S11329F0124B013D5A621540114A12495562D4F8EE
S1132A0014518D66D4F81851CD66D1F80011C90758
S1132A100FD54FF0FF31C3F80411216CC2F8041133
S1132A204FF0F041C3F81011E37CDB060B40C2F811
S1132A301031BDE8384004F07CBA38BD006001B8FC
S1132A40005001B8004001B810B58B780246012B44
S1132A500C4600F28280C87801287ED80B78012BBE
S1132A607BD84978052978D819B1012875D1052969
S1132A703CD0012B73D02068C2F81C016378002B72
S1132A8035D13849C1F88C304FF06051364B19625A
S1132A90364B1B7813B10621354B99674FF08051A3
S1132AA0344B02F1D800D964516B02F019F94FF498
S1132AB08072314BC3F81821C3F81421A378002B7A
S1132AC042D14FF03A4340F6FF721A63E378002B89
S1132AD03DD14FF03A4340F6FF721A676022274B0C
S1132AE0DA6403F5E833402200201A6410BD013B88
S1132AF0DBB2032BE2D84FF06051214A52F8233065
S1132B00194A43F400131162A2F58052136204239C
S1132B10A2F58832C2F88C30936F23F0060343F099
S1132B20040393674FF08052164BDA6403F07CF889
S1132B300028C3D04FF480730F4AC2F81431A2F5B1
S1132B408052C2F81831B9E7FFF770FABEE7602285
S1132B50074BDA6403F5D833C5E70120C6E7184606
S1132B60C4E700BF004000B8006001B8E7170020C8
S1132B70006000B8002002B8002000BA005000B87D
S1132B80B4780000001002B8082310B1024A13649C
S1132B907047024AFBE700BF001002B8002002B8E9
S1132BA0F8B504460E4611B9037C5A0647D44FF6CD
S1132BB0FF73A18BD4F8C870994204D0344B1B68BE
S1132BC00BB120469847334D2B68BB4254D0324B4F
S1132BD01B683BB11FB13A68002A4FD0BF68394621
S1132BE0204698470727204601F0C6F8002E39D022
S1132BF003F04AFF0620294B94F9122093F9003080
S1132C002749C3F127039B1A0A6ADB0222F4FF2235
S1132C1003F4FF2313430B62D4F8C820214B2A602A
S1132C20986701F005FA002501211F4A1F4B117016
S1132C30204683F8845004F095FC2846F8BD4FF6EE
S1132C40FF71144DD0F8C8702A6866F38613974252
S1132C508183037417D0104B1B68002BBAD101F089
S1132C608BF8072712493B46124AD1F8FC1004F1AD
S1132C70D80002F00DFCBBE70127B4E71746204655
S1132C8039469847AEE701F077F80127EAE700BF35
S1132C90EC160020E4160020E8160020E6170020B9
S1132CA000C000B8006000B8E7170020003F00B083
S1132CB0004F00B0A43F00B008B5582200210648D8
S1132CC004F060FD1022FF21044804F05BFD03F0D2
S1132CD0DBFE002008BD00BFF03E00B0343F00B072
S1132CE00C2337B580F80431002383746D23C0F8B6
S1132CF0E03074234FF0FF35A0F8F4306423044629
S1132D00C0E93933C0E93B33C0E9075585644575EB
S1132D10C58202F093FF2046FFF7CEFF94F912100C
S1132D202046FFF765FB6023114A40F6FF71D36428
S1132D304FF03A42116311670E4A2946D364402288
S1132D400D4B20461A64626BFFF7A6FB0E2300228C
S1132D50CDE9003340F202231046194602F086FD05
S1132D6000F0DCFF204603B0BDE83040FFF70EB9A9
S1132D70004000B8005000B8002002B8044BD3F85B
S1132D80EC3E13F0806F14BF23200020704700BF77
S1132D90003000B00246F8B5B0F8084100F1D8059B
S1132DA0FFF7ECFF0B688E68013304BFD2F8E03004
S1132DB00B604B68013304BFD2F8EC304B60771CD6
S1132DC037D1D2F8E830CF688B607E1C38D1D2F886
S1132DD0E4600F69CE60013704BFD2F8D8700F6188
S1132DE04F69013704BFD2F8DC704F618F69013736
S1132DF004BFD2F8F0708F618F6947BBC0F16404DF
S1132E0008688C61C2F8E8304B68C2E93806C2E948
S1132E103B340B692846C2F8D8304B690F49C2F8D5
S1132E20DC30D1F8FC1007230D4A02F031FB0020FE
S1132E30F8BD04F16D031B1AB34238BF3346C2E731
S1132E4004F17406361ABE4238BF3E46C1E76D34FB
S1132E50241ABC4238BF3C46D2E700BF004F00B042
S1132E60A43F00B038B504F060F84FF6FF710A4A89
S1132E7013888B4203D104F05CF8032038BD074C5F
S1132E80074D1B046566A4F580546366118004F045
S1132E9050F80020F2E700BF98180020006001B845
S1132EA00000FFFF2DE9F743054688461446FFF767
S1132EB057FA80B16B4F02F045FA7B69DE0740F1A7
S1132EC0CE8004F032F80646032001F0FFFA30B158
S1132ED0304604F02EF8022003B0BDE8F0837F6989
S1132EE017F00607F4D1304604F023F85E4B4FF494
S1132EF000612846D3F8EC9ED3F8CC6E03F0BAFDFB
S1132F0040B14FF400720121584B08461A643A4606
S1132F1004F06CF941462846FEF7EEFF524BC3F825
S1132F20EC9EC3F8CC6E0028D6D12B7CD80601D4F5
S1132F30002C55D0C4F3400002F026FF022314F401
S1132F40807F1FBF4A4A002113644FF03A420BBFEF
S1132F50464A91611364536302F050FF4FF4806357
S1132F6014F0040F14BF434A434A14F0400F536251
S1132F704FF004023D4B20461A644FF0400314BF47
S1132F803E4A3F4AC2F88830FFF76CF8284604F0FE
S1132F9085FA38B14FF4807314F0010F14BF344A2A
S1132FA0324A1364A10644D54FF6FF726B8C9342E8
S1132FB00FD0344A3449526E100CC2F3011201325C
S1132FC0B3FBF2F308802B4A2B4930481B044866B4
S1132FD05366003C18BF01242B7C64F304132B7448
S1132FE0284604F0BCFAF0B1284604F057FAD0B1F0
S1132FF04FF40031284603F03DFD431C03229BB2ED
S1133000234801A904F019FB9DF8042002F00703EA
S1133010052B9DF8053015D112070DD443F48073A8
S11330201C4AC2F8D430002003B0BDE8F04304F0D9
S11330300FBBFFF717FFCCE713F0040F09D19DF87E
S11330400630EBE703F03002202A05D113F0010F1C
S1133050F4E74FF48073E3E79DF80630E0E70320DC
S11330603AE700BF00C001B8003000B0002002B849
S1133070001002B8005001B8006001B800D000B8D8
S113308000E000B8004001B8981800200000FFFFDD
S11330900C0000BA003E00B008B50A4BD3F84C113E
S11330A04B1C0DD011F080410AD10320FFF7E8F842
S11330B04FF08062044BDA6401225A6102229A6260
S11330C008BD00BF0080E00F001002B84FF40022DA
S11330D0034B186C03F500531A64C0F3C0407047E7
S11330E0000002B80F4BDB68C3F30363013B0B2BF7
S11330F00FD8DFE803F006060C06060606080A08E1
S113310008080220704704207047052070470320F8
S11331107047054B5B6913F0060F0CBF01200420B8
S1133120704700BF000002B800C001B8094AD36864
S1133130C3F303630B2B08D06FF49050184100F0D5
S1133140010080F0010040007047106C10F48030E2
S1133150EDD17047000002B80C4AD368C3F303638F
S1133160062B07D8042BD8B20BD8C31E584258419B
S113317040007047072B06D1D2F844010028ECD157
S11331807047022070470020704700BF000002B85B
S1133190094BDB68C3F303639A1E012A8CBF002228
S11331A00122012B02701EBF4FF4026222FA03F3C4
S11331B003F001030B707047000002B8F0B5CF07AD
S11331C02BD5002A14BFAA2555250E461E24154FBB
S11331D001F0030383F001033B449B7806F0070CE2
S11331E017F80CC0013C63444FEA5606F6D10E4E64
S11331F073436FF481769B0C334482B991FAA1F145
S113320095FAA5F54A082D0F490042EAC57201F066
S11332100204C474C0E91023F0BDAA25D5E7034A0B
S1133220F7E700BFCC78000036FC1000B756351223
S113323030B547F6FE74164BC3F83042456C04EAC9
S11332404504144DC5F830420F245C66CC071CD5E8
S1133250DAB901246C664FF0FF34C3F80441056CFD
S11332600C4CC4F804514FF0F045C3F81051C37C22
S1133270DB062B40C4F8103132B14FF03A4302223E
S1133280C0F88010C3F8F42030BD0224E2E700BF88
S1133290006001B8005001B813B5437C0446033BF9
S11332A0DBB2072B96BF104A0021D15CFEF7E2FF88
S11332B0012000F06DFF4FF4F0620C4BDA644FF420
S11332C00072A3F58053DA64637C053B012B08D8B4
S11332D00421074B01229B6E0DEB0100019300F0CA
S11332E039FB02B010BD00BFC4780000006000B814
S11332F0004001B8012310B580F8F6302823C0F847
S1133300DC30042304464374044B196803F07DFF46
S11333102046FFF7C1FF002010BD00BF1079000058
S1133320012310B580F8F6302823C0F8DC300723D9
S113333004464374044B196803F067FF2046FFF703
S1133340ABFF002010BD00BF04790000012310B5BD
S113335080F8F6302823C0F8DC3002230446437496
S1133360044B196803F051FF2046FFF795FF002036
S113337010BD00BF14790000012910B5044604D91A
S11333800239012914D9032011E00B4B19680523D4
S1133390012284F8F6204FF4BC726374C4F8DC2074
S11333A0204603F032FF2046FFF776FF002010BDD1
S11333B0024B19680623EBE70C790000087900003A
S11333C038B5184B04461D6845B1EB6833B128681D
S11333D001F024FBAB68186801F020FB124B1B685A
S11333E02BB1DA681AB19B68186801F017FB0F4B10
S11333F01B682BB1DA681AB19B68186801F00EFBE0
S11334000B4B1B682BB1DA681AB19B68186801F082
S113341005FB2046FFF79AFF2046BDE83840FFF73A
S11334203BBF00BF14790000107900000C79000044
S11334300879000010B54FF4F06204460020094BEF
S113344084F8F6006074DA6400F0A2FE064904F120
S1133450D8000223BDE81040044AD1F8FC1002F061
S113346017B800BF006000B8004F00B0A43F00B020
S1133470F8B5D0F8143104468B420D46164603D1F4
S113348090F81031202B0ED0324629462046FFF703
S113349095FE202384F810310023C4F81451C4F895
S11334A01831FFF79DFA4FF00077074B32461F643F
S11334B029462046FFF7BCFE8022044B1A6103F51F
S11334C000531F64F8BD00BF001002B8000002B82A
S11334D010B50724134BDC6331B94FF48041A3F5D5
S11334E08053C3F8041114E044210F4B59630F496E
S11334F00968497C07291CBF40F0400098630123F8
S11335000B484FF48041C363064B002AE9D0C0F84E
S113351004114FF48042C3F80821C3F80C21C3F806
S1133520102110BD006000B8004000B8D81400207D
S1133530005000B810B5407CA0B1304BD3F8B8208F
S113354012F0060F01D004280DD94FF470622C4BF1
S1133550DA604FF48072A3F58053DA600022274BBF
S1133560C3F8B42010BD02F0020412F0040202D029
S11335700B789B0637D4002C39D00B7803F00F035B
S1133580072B34D14B78022B31D98B7813F03E0FB3
S11335902DD0CC7814F0040F29D014F0010F0CBFF7
S11335A004230A23A40748BF0633CB5CFBB1002ADB
S11335B014BF02220122042840F6FF7003F01F0109
S11335C008BF4900013940EA01310E4801654FF452
S11335D070600B491202C860A1F58051CA60074AA5
S11335E0C2F8B430BEE7002CC7D18B7823B90023CE
S11335F0044A13650122EAE70222DCE7003E00B038
S1133600006000B8004000B80A68064B12F0802F32
S11336101CBF42F20101C3F82812C3F88822C3F880
S11336208C227047004001B8F0B585B06C460E4658
S11336300B4B074615460FCB84E80F00094BD3F814
S11336404822009226B16B1EDBB2FD2B88BF32608C
S11336502A462146384603F0A4FF05B0F0BD00BF5A
S1133660D47800000080E00F30B50823054685B00B
S113367080B9094AC2F8FC3351B96C46074B0FCBE9
S113368084E80F00064B2A4621461868FFF7CCFF52
S113369005B030BD034AEDE7001002B8E47800003D
S11336A0D8140020002002B838B5044601F0C8F848
S11336B001213A20FDF77CFAE0782179154A40EAA5
S11336C00143C2F8DC34E579A37943EA0543C2F83F
S11336D0E03423781BB100230422FDF727FE63782E
S11336E02BB100230422E179A079FDF71FFE227893
S11336F0012352B1084AC2F8D8346278022332B1A5
S1133700054A0020C2F8D83438BD044AF3E7034A16
S1133710F7E700BF00C0035000D0035000E003509F
S11337204FF03A43D3F81421D2031ED54FF480321C
S11337300E49C1F81421A1F58051C1F818215A6D20
S1133740D1B2C2F30722C3F8A410C3F8A420042200
S1133750C3F8A4200022C3F8A420C3F8A420C3F80B
S1133760A420C3F8A420C3F8A4207047002000BA02
S1133770F8B50D464FF03A441746064603F0D5FB1C
S113378001230421074A6363E76026616561C2F887
S11337901411054AC2F8843103F0CBFB0DB10223A6
S11337A06363F8BD002000BA00E100E0054B01228C
S11337B018604FF03A435A6740F6FF72D9641865AF
S11337C01A677047FC1600202DE9F04105460124D4
S11337D0006800F00700063004FA00F3A868EC68FB
S11337E05E1EA04262D000EA060E6C6810441E43BE
S11337F00640A3EB0E000EEB040C8242644618D97B
S1133800D31A0EEB030298B1431E052B04D94B1CAB
S1133810ACEB0303022B59D80B460844ACEB010E66
S113382003EB0E0113F8014B83420C70F8D10146EF
S11338306C688AB1531E052B01F1010302D9E01A09
S1133840022812D80A44611E00E0013313F8010C67
S1133850934201F8010FF8D103F067FB0223AE6035
S1133860AB62BDE8F04103F064BB0B46204622F096
S1133870030E8E4453F804CB734540F804CBF9D1BE
S113388022F00303D01A920701EB030C04EB0307A5
S1133890E2D0CA5C0128E254DED09CF80130022850
S11338A07B70D9D09CF80230BB70D5E7042A35D997
S11338B00878043AA86148780431A86111F8020C28
S11338C0A86111F8010CA861A8688CE70B4620F0E8
S11338D003070F44ACEB010E1C684EF8034004339D
S11338E0BB42F9D120F0030310F0030F01EB030EE8
S11338F0A0EB03040CEB030728D011F80380012C80
S11339000CF8038022D09EF80130022C7B7018BF83
S11339109EF80230084418BFBB7088E7013A032AB6
S113392012D8DFE802F00F1507020B4613F8012B3B
S11339301946AA610A4612F8013BAB61114611F817
S1133940013BAB610B78AB61BDE8F08108446EE7E5
S11339500A46F3E738B50B46154601464FF03A449C
S113396070B101221048C4F8F4201A46FFF72CFF66
S113397025B14FF03A430422C3F8F420002038BDA7
S113398073B1D4F8D8209A4284BF0122C4F8F42039
S11339904FF03A42C2F8D4300223C2F8F430E7E7D9
S11339A00123C4F8F430E3E7CC0000BA10B503F007
S11339B0BCFA4FF03A4301225A67C3F8B420C3F863
S11339C08C20154A1549C3F890200722C3F8B0206B
S11339D0134B04461A800023124A13804FF4A0228A
S11339E0C1F81421A1F58051C1F818210E4A1360C1
S11339F00E4B1B6C5B020AD54FF480020C4B18680B
S1133A000C4BD8301A6450F8A41C01F069F9204614
S1133A10BDE8104003F08DBA98110020002000BAD0
S1133A20C6170020C4170020F8160020000002B8B2
S1133A30D8140020002002B807220D4B01211A805F
S1133A4000220C4B1A804FF03A43C3F8F410C3F829
S1133A50CC204FF40052C3F8D000C3F8F020F02279
S1133A60054B9A64A022A3F580539A64FFF79EBF86
S1133A70C6170020C4170020006000B82DE9F041EB
S1133A80044688B103F051FA3D4E3E4A3388032C74
S1133A9003F0780105463C4F03F07F0C11445DD1DF
S1133AA03C6824B903F045FA0320BDE8F08124F012
S1133AB00104386820F00100A04254D100223A6089
S1133AC022888C426FEA42426FEA5242228040D1FD
S1133AD02E4CDFF8D0C02788ACF180083A46083A6B
S1133AE092B201F10800604528BF4046082A04D973
S1133AF0B0F800E0BEF5804F40D2228088780C8870
S1133B004FF03A413B449B1ADBB2C4F30C048C657E
S1133B103380C1F89830C1F8B0204FF480221C4B98
S1133B2000F00700C3F8142101221A4BC3F88421C2
S1133B30FFF7F6FD04280CD14FF48002164B1B6CE2
S1133B40164B1868164BD8301A6450F8A41C01F0B0
S1133B50C7F8284603F0EDF90020A6E7601E012807
S1133B6098BF0C46A5E7094862440088A21A48BFDA
S1133B70803208389042A3DC284693E70146AEE73A
S1133B80C417002098110020F8160020C617002042
S1133B90002000BA00E100E0000002B8D8140020C0
S1133BA0002002B8181200201249134B0A881B88FF
S1133BB012481344083292B20A804FF03A41C1F8D5
S1133BC0B0204FF480210E4A073BC2F814110121A2
S1133BD003F07803034498780A4A00F007000428A5
S1133BE0C2F8841103D10849CA681203FCD4074AF5
S1133BF013607047C6170020C417002098110020D6
S1133C00002000BA00E100E0000002B8F81600202D
S1133C1010B5054C206828B1C30701D4FFF72EFF67
S1133C200023236010BD00BFF81600204FF480333A
S1133C30084AC2F81831A2F58052C2F814314FF084
S1133C403A43D3F8AC30C3F30C03782B01D8FFF715
S1133C5067BD7047002000BA054BA822D3F84C0179
S1133C603121431C0CBF0120C0F38070FEF7A8B9BA
S1133C700080E00F38B5134D0446297819B9202285
S1133C80114803F07FFD6188104A23785180002198
S1133C9013700F4A022BC2F8CC104FF0FF010D4AEB
S1133CA00D4B11704FF007010C4A4FF00000C2F8A1
S1133CB0FC130CBF04220122C3F8FC2301232B7044
S1133CC038BD00BFE9170020E03F00B09A1800207B
S1133CD0004001B8A2180020001002B8002002B869
S1133CE0034B1A6802609B8883800020704700BFE2
S1133CF09A18002010B5044600F0A2FD064BD3F834
S1133D00F83724B983F40033C3F3404010BDA31E35
S1133D1058425841FAE700BF000002B84FF63F721C
S1133D2008B50A4BD3F8FC37934206D0084AC3F3CC
S1133D3001131370E022074B1A7000F0DBFD41F60B
S1133D406A03B0FBF3F0044B186008BD000002B82E
S1133D50A3180020A41800200017002020B1022876
S1133D6004D1034B18787047024BFBE700207047DF
S1133D70A3180020A41800202DE9F74F846C4C22CE
S1133D80022C38BF02246A49013C0B6AD1F8CC509A
S1133D906849C3F38213DA400B680646A34290F8DD
S1133DA004B1654BDFF8ACA1DFF8AC91DFF8AC816E
S1133DB002F0010214D11878904211D19AF800004F
S1133DC058450DD1F06C58B1A84209D1B57D99F888
S1133DD00000854204D1B8F8040003B0BDE8F08FB8
S1133DE00C6098F800101A700846FFF7B7FF002A15
S1133DF000F0868004234FF07F4100254F4AC2F82B
S1133E00B8304F4BC3F8B810B37D1B06C2F8B830B6
S1133E104FF08052494BC3F8B42000F06BFD40F2E0
S1133E207123B0FBF3F0192160431828B0FBF1F1C2
S1133E304FEA054470D8002C78D0B4FA84F2C2F169
S1133E402002C2F10F03012B38BF0123D440A14249
S1133E5001D2013B64086A1C03F01F0152008A402E
S1133E60384F121B9208C7F8B0201A0242EA031214
S1133E701343019305EB052305EB0325324B40F671
S1133E80A40218682B21003818BF0120FEF798F807
S1133E90FA222D4B02FB04F01B6840F6FF72B0FBC4
S1133EA0F3F00A235843294B00F57A74C3F8C4206D
S1133EB0019AA3F58053C3F8C420A3F58053C3F833
S1133EC0CC50D3F8CC3000F58C50C7F8FC30F564F6
S1133ED01F4D14302C6001F067FA4FF47A72C7F862
S1133EE0A400C7F8F8002B68B4FBF2F0B3FBF2F3BC
S1133EF0A8F80430B37D8AF800B089F800306CE784
S1133F00002914BF10252025B37D834294BFED18EA
S1133F102D1805F0FF057BE7B1FA81F234B1B4FA4C
S1133F2084F3D21A002A8CDC0F2390E70F2392E744
S1133F30004001B868180020EA170020001002B8F9
S1133F40002002B8003F00B000170020006001B854
S1133F5004170020A1180020A01800209A1800209F
S1133F6010B5114B01461B78104C0C2B02D1FF20CD
S1133F70207010BD184603F070FB02461846FFF788
S1133F80EDFE884228BF0846C0B2904238BF1046B2
S1133F902378C0B28342ECD0054B20701868FFF739
S1133FA0EBFE2078E5E700BF9A180020A218002055
S1133FB0D814002010B50446FDF7E6FD78B1154B82
S1133FC01B786BB964B1144B1B784BB1134B1B7842
S1133FD0013B012B04D84FF40042114BDA6410BDAD
S1133FE0104BDB6C1B04FAD402F09FFF044601F073
S1133FF005FF4FF400420C4B2046BDE81040DA6444
S113400002220A4BC3F87C240422054B1A6402F0F2
S113401090BF00BFEB170020EC170020081700200A
S1134020002002B8000002B8001002B800D003500B
S11340304FF48022014B9A64704700BF005000B8CF
S113404070B5054600F0FCFB01213A20FCF7B0FDF9
S1134050424C434B00201D70FFF7ACFF2378013B1B
S1134060012B0CD80122217CE37B8A4030214B4375
S113407042F2100103F1A04303F570335A500022B9
S1134080384BC3F87C24ADB94FF6FF71364AC2F8F9
S11340908410F821A2F58052C2F88410C3F87C542D
S11340A0324B4FF08042DA644FF48022304B0020D0
S11340B09A6470BD636883B300F01CFC626800EB13
S11340C05203B3FBF2F3013B1B0243F0F8032678DF
S11340D02549022E264A22D0032E4FF6FF75214889
S11340E02AD0012E33D143F00203C1F88450C2F820
S11340F084300723C0F87C343021E37B01204B4318
S113410041F21001227C03F1A04300FA02F203F50C
S113411070335A50FFF74EFF17E0F823D7E74FF6F6
S1134120FF7043F00103C1F88400C2F88430062212
S11341300C4BC3F87C24DFE743F00503C1F884503B
S1134140C2F884300423C0F87C340A4BA9E7C1F8D0
S11341508450C2F884300023F5E700BF081700201C
S1134160EC17002000C00350006000B8002002B823
S1134170005000B8001002B8034BDB6C002BBCBF2E
S1134180024BC3F888007047000002B8004000B832
S11341904FF0006338B1064AD364064B4FF4003243
S11341A0C3F884207047044AD364044BF6E700BF85
S11341B0001002B8005000B8002002B8006000B837
S11341C02DE9F04700F096FB4FF47A764FF4FA733A
S11341D0B0FBF6F6734307462948190E1B0218185C
S11341E0284A4FF0000341F1000102F095FC264BF0
S11341F0A0F5807205461A6320B943222B21FDF7EE
S1134200DFFE01254FF47A724FF0000A6A435346E9
S11342105008310202F080FC1B4B1C4AB7F57A7F30
S11342209A601B4B4FEA056819601A4B894604468D
S113423018604FEA152505D295222B215046FDF72B
S1134240BFFE01264FF47A73A8FB030103FB05119B
S11342507308C01841F100010023324602F05CFCEF
S11342600D4B023419600D4B49F10009A408186084
S113427044EA8974044B013C9C63BDE8F08700BFA9
S113428020A1070040420F0000C001B80211010044
S11342902817002024170020201700201C170020B6
S11342A01022044BC3F884215A600122024BDA60C5
S11342B0704700BF00E100E000C001B810B504463B
S11342C0A242A2EB0000A3EB010104D2034B01398B
S11342D09B6B0133184401F0030110BD00C001B809
S11342E038B501250A4B02019D504FF480730446F2
S11342F0084A8340536602F018FE074AA540137823
S113430023EA05031370BDE8384002F012BE00BF73
S113431000E101B800E001B8F51700202DE9F84FDD
S1134320164605468A461F4602F0FFFD022E00F09F
S11343309180804602F000FE5A4B5B4AD3F82090ED
S113434092F88D405A6EE4B2520744BFD3F82090DD
S1134350013404F0030402F0F5FD4846214600F060
S1134360EFF88446DAF80000012E04BF01306044FF
S1134370ACEB000C08BFCAF80000BCF1804F7DD341
S113438000F0F0F88145A1EB040188BF454BDFF84C
S113439038C188BF01F1FF3101F0030188BF9B6B75
S11343A0A0EB090E0CF80510A1B1F90742BF41F6C4
S11343B01F723E4B5A67BA0742BF3C4B3C4A5A678E
S11343C07B0742BF0022374B9A673C0742BF00225B
S11343D0344B9A6511244FF0010A324B05F1100257
S11343E0120103EB051BCBF80C0132499C501A6AED
S11343F00AFA05F4586E0B78A2EB0902E4B22343DF
S113440072450B7025D34FF48073AB40034220D127
S11344101CF80520002A40D10EB3274AF80753663A
S113442007D541F61F7140F20110204B59675067C0
S11344305967B90706D51D4B1D4A1F491F485A67BE
S113444048675A677A0742BF01221D4B1A613B072E
S11344501AD4404602F06DFD0120BDE8F88F194AD8
S11344602D0142F805A042F89C3C02F05EFD114982
S11344700B7823EA04030B7002F05BFD404602F064
S113448058FD0020BDE8F88F2120FFF775FE4FF49A
S11344908032044B4046DA60DCE7074A4046536604
S11344A0D8E700BF00C001B8003E00B000E001B88A
S11344B000001F1FF517002000D001B80000010103
S11344C0000002B800E101B8ED170020034B1030E2
S11344D00001185800F00100704700BF00C001B887
S11344E0044B01F0F071103041F003010001195048
S11344F0704700BF00C001B808B52220FFF73CFE9A
S11345004FF48022014BDA6008BD00BF00C001B83F
S113451038B502F011FD084B084A1D6A92F88D4027
S11345205A6EE4B2520744BF1D6A013402F00AFD18
S1134530284604F0030138BD00C001B8003E00B0B5
S1134540064B1B68434303EB8171054B1B68A3FBBC
S1134550003013F1004341EB0000704720170020A6
S11345601C1700200C4A20F04043014610B50020DF
S113457014684FF00042E4FB0320084A890F1268D4
S113458002FB0300064B9B6B984204D901330131B3
S1134590C01A01F0030110BD2417002028170020C1
S11345A000C001B870B51646054600B3F9B1F2B1C2
S11345B04268104B006803321B68920800F13040D7
S11345C09847044688B9EA68A868033231469208D5
S11345D000F1304003F05FF8044630B9D5E9040235
S11345E0214600F1304003F0CDF8204670BD01248F
S11345F0FBE700BF701800202DE9F04705460E4682
S11346001446DFF88480DFF884901E4F88B01CB90C
S1134610204608B0BDE8F087B4F5006F4FF01002F3
S11346204FF000016846A24628BF4FF4006A03F029
S1134630A9F808238DF800300AF1FF339BB2009AE1
S11346401B0143F0036302EA090203EA080313436C
S1134650102200210DEB0200CDE90036029503F093
S113466091F86A46387804A9FCF7D0FEA4EB0A0452
S113467006EB8A0605EB8A053878FCF713FF002859
S1134680FAD0C4E7A5180020F07F300C0F80CFF3D8
S113469070B50C68651C15D0C4F302669E42C4F361
S11346A0074530D1A4B294422DD804EB8506B2421A
S11346B029D2141BA50824F003040E59340F04D086
S11346C0012C09D00022012303E06B1C51F82320A4
S11346D000230260037170BD0D4C34F8133042EABC
S11346E003431A686B1C51F8234001EB83014B68A8
S11346F022405E4036F07044EAD11B0F032B04BF06
S11347008B681A43E4E7013501EB8501C1E700BF7B
S1134710FC78000007B501A8FCF7DCFE9DF8053025
S1134720022B02BF40220B4BC3F8FC23C8220A4BC6
S11347305A650A4B0A4AD3F86032DBB2FF2B08BF32
S113474003239B0043F47F53C2F8F83303B05DF8AE
S113475004FB00BF001002B8008001B80080E00F25
S1134760000002B810B5044602F0DFFB064B074A0E
S11347701C70074BFF2C08BF1346064A136002F057
S1134780D8FB002010BD00BFA518002097760000BC
S1134790F945000070180020002310B5204C0121B9
S11347A023643A206364A364FCF702FA01221D4BDC
S11347B05A6102229A62E368C3F303630D2B01D0AA
S11347C0002BF8D11123184AA36318491848FFF79E
S11347D0E9FE00F019FF174A93685BB9164A93681B
S11347E09BB94FF080620F4B5A61012203F580534D
S11347F05A6110BD1149D268096803F13043032A94
S1134800ECD943F8041B043AF9E70C49D268096867
S113481003F13043032AE4D943F8041B043AF9E7CB
S1134820000002B8001002B8687900006C7900003A
S113483050790000387900002079000084180020A5
S1134840012341F6FF710D4AC2F8803291660C4A89
S113485053600C4A53600C4A5360A2F58042536083
S1134860A2F54042536002F5C032536002F5804223
S11348705360A2F500425360704700BF009000509F
S113488000D000B8001000BA005001B838B50324B5
S1134890FFF7D6FF114A124B124DDA64FFF73AFFC5
S11348A0114BC3F8E0400123EB6400F04BFD4FF4DF
S11348B060736B614FF40073EB6402F088FE0021B7
S11348C0FEF7D2FE8022094B1C64A3F580535C647E
S11348D0074BC3F884215A6038BD00BF0048F0007C
S11348E0000002B8001002B8005001B800A002B8DD
S11348F000E100E008B5FBF767FE044B1B6FC3F350
S113490000430133B0FBF3F008BD00BF008000504A
S11349102DE9F04F044687B00290894659F8043BCC
S11349205A1C06D12360029BE01A801007B0BDE830
S1134930F08F3748C3F301615FEA137B30F811004D
S113494008BFC3F307429BB218BF012243EA0040E9
S113495002F0AAFE4FEAC20A05460AF104032D48F2
S1134960234483421BD807230127C846CB4003F0C6
S1134970010301939300049307FA0BF705EB8203F9
S1134980039307F0940304F108060593039B08F1CD
S11349900408AB4208D1049954444944BDE71E4B72
S11349A09C42E0D80020C1E7059B53B917F0420FA1
S11349B019D117F0280F0BD146F8085C58F8042CCD
S11349C021E040F6F31232210020FDF7F9FAF3E773
S11349D040F6F81232210198FDF7F2FA05F58052FB
S11349E046F8082CEAE740F6012232210198FDF747
S11349F0E7FA05F50052BBF1010F46F8082CDDD1AA
S1134A0058F8042CD24346F8042C04350836BDE784
S1134A10F4780000DF4F00B0E04F00B0F8B5064670
S1134A20E0B10024144B25461F46144953F8042BC7
S1134A30AAB91348314600EB8500FFF769FF30B986
S1134A4040F6A2323621BDE8F840FDF7B9BA0D4B65
S1134A500135281847F8246023F81400F8BDB24241
S1134A60FCD001340C2C02D031F81450DEE740F6AF
S1134A70BC3236210020E6E72C170020C6170020A0
S1134A80404000B0C817002070B5044698B1B1B1D9
S1134A903A4A52F8043B834213D10023384A116C3A
S1134AA0C907FCD4374800EB830002F0FDFD364B08
S1134AB0106001221A6470BD01330C2B02D1334DF6
S1134AC02CE0012352F8041BA142F5D1304A32F8FC
S1134AD01330E3E7C2F3016335F81300110C93B20A
S1134AE011F0FE0F43EA0043606820D00434CAB2D8
S1134AF0022A216808D9D4E90160033AC3E90016FF
S1134B0098600C340C33F3E704D16268C3E90012F3
S1134B10083403E0012A01D1043419602268531CCB
S1134B20D8D10022164B1A6003F58053C1E7120F47
S1134B30072AEDD8DFE802F00704090D1013181D49
S1134B40C04303F500531860E2E71A6842401A6054
S1134B50DEE703F58053F6E702F092FDD8E7012281
S1134B6003F580538240F2E7012203F500538240AB
S1134B70EDE71A6830EA0202FBD1C9E72C170020DE
S1134B8000C002B8404000B000D002B8FC78000079
S1134B90C61700200122014BDA647047001002B8E6
S1134BA00122014BDA647047002002B84022014B15
S1134BB0DA647047002002B84022014BDA6470477F
S1134BC0001002B8064BDB68C3F30363984206D1B6
S1134BD0044A936E23F0F00343EA0111916670478F
S1134BE0000002B8003F00B02DE9F3470F4602F081
S1134BF040FD00258046DFF8B890DFF8B8A002F049
S1134C0094F90DF1070106460DF10600FEF7C0FA0E
S1134C109DF806308BB9791C2CD002F02AFDA0EB4C
S1134C200805304602F085F99DF8063013B99DF861
S1134C30073053B3AF42E2D827E0D9F80C3013F46D
S1134C40603FE8D0D9F818301A04C3F389141ED48D
S1134C50013701D002F00DFD304602F06AF924B2AA
S1134C606FF4FF73A4F1C8009842B8BF184602B0AD
S1134C70BDE8F087304602F05CF99DF80630002B61
S1134C80BDD19DF80730002BB9D10848EFE77B1C54
S1134C9044EA0A0403D002F0ECFCA0EB0805304619
S1134CA002F047F914F5007FBED0D9E700FEFFFFFC
S1134CB000C000B800FCFFFF0122024B98611A619A
S1134CC0704700BF000001B8044BD3F8AC3010B1FA
S1134CD0C3F30332027003F00F007047000002B800
S1134CE0094B01F080011B6C03F480030B4309D1D1
S1134CF04FF40012054B1A62837F1BB10122044B4F
S1134D00C3F80021704700BF000002B8006001B87A
S1134D10005001B8164B1A784AB35968154A116203
S1134D209968C2F88810D96851661969A2F5803269
S1134D30D1605969D1639969C2F80411D969C2F87B
S1134D400811196A1163596A5163996A91630121BF
S1134D5002F5005291641021A2F58052C2F8841029
S1134D6000221A70044B1A68044BC3F8C42E70470F
S1134D7060170020004001B85C170020003000B02C
S1134D8010B502F0D2F8084B04461B683BB19847B3
S1134D9028B1002200204FF4806100F04FFD20462E
S1134DA0BDE8104002F0C5B8901700204FF604018A
S1134DB04FF60502044B01201B6C9BB28B4208BFCB
S1134DC01346024A136670470080E00F00C001B822
S1134DD008B502F0BFFC0122054B93F88930023379
S1134DE05B00DBB202FA03F3024A536108BD00BF61
S1134DF0003E00B0002000B8F8B50B46002213F8BE
S1134E00044B944225D91D68854224D106245A793D
S1134E101D79124B88181E6804FB0503104F33F8E4
S1134E20063C7B43B3420ED900238A5A7A43964206
S1134E3002D804FB0300F8BD9D42FAD9013304FBF8
S1134E4003F2825AF2E740F243423D210020FDF78B
S1134E50B7F80020EFE708330132D2E794170020B7
S1134E6040420F0000202DE9F84FA2FB018BBD4EFC
S1134E70BD4F18EB060699466BF10003B74270EB81
S1134E80030307D240F23D220E21FDF799F80220D8
S1134E90BDE8F88FD9F814A00C461546BAF1000FF6
S1134EA004D0DAF80030032B00F21D81AF4BB04A76
S1134EB09F6BA3F58043D3F8EC30C7F31407590074
S1134EC0AC4B48BF47F400171B6ED2F8FCA05A073E
S1134ED04EBF4FF440039B0503F0E0731F43A64B02
S1134EE0D3F8E4309E0748BF47F0807747EA456728
S1134EF0FBF79AFB012D0646C9D10028C7D09F4B6A
S1134F00984200F0FF8003F5122303F5F8639842FA
S1134F1000F0FE809A4B984200F07581002502460D
S1134F202B4600204FF0007101F0F6FD2B460130B6
S1134F3008FB03F3C7F3130100FB0B33A1FB066269
S1134F40A8FB008001FB0522034420339B09C9F818
S1134F500030F60C8B4B46EA4236F8021C6058BF10
S1134F607642894B894D34441E602C60BAF1000F9F
S1134F7000F0B7800023F9018549C7F381528A5CA8
S1134F80194648BF6408002EB8BF764292066008EE
S1134F90C2FB0601224601F0BFFDDAF800600E2EC6
S1134FA008D9744B714A916BDA69D3F80C31D20683
S1134FB000F1CF8017F4001714BFC42240F2071287
S1134FC07449C0F31300A1FB04C14FEA511102FB61
S1134FD001F1C9F80400DAF818004FF4FA73B1FBD0
S1134FE0F0F118BF002701FB03F3A4FB02C2FA335C
S1134FF0A3FB003004FB07226345904138BF013115
S1135000C9B241F4006CC9F808C000297ED0DAF8AE
S11350101C00A1FB00371CB1B4FA84F20E2A7EDD19
S1135020E203002F78D1B2FBF3F2530003FB011328
S1135030A3FB00874FEA044EC6454FEA144474EBC1
S1135040070709D34F003B44A0FB0381C64574EB1B
S1135050010102F10102F6D2C2F30E024CEA023C53
S11350604CF00063062EC9F8083040F29980DAF853
S11350703030002B00F094800023C9F80C30C9F8BC
S11350801030FBF7D1FADAF83010FFF7B5FE04461A
S113509018B18378002B40F0D580FBF789FADAF851
S11350A03010FFF7A9FE0446D8B18378CBB140791C
S11350B040F26F52003818BF01203D21FCF780FFF9
S11350C020794FF4AE6200384FF03D0118BF012043
S11350D0FCF776FF237962791B0243EA0213C9F8CD
S11350E010300020D4E6042BDAF828707FF400AFE7
S11350F0F8014CBF4FF4400307F0E07327F0E0776A
S11351001F43F5E6002324481D4611E70120BFE6AE
S1135110002322481D460BE70B46002288E7C2F114
S11351200F0E02F1110807FA08F823FA0EF343EA06
S11351300803AEF1200827FA08F843EA080327FA1F
S11351400EFE01334EF1000704FA02F2002FE3D100
S113515069E701F4801103F40013194308BFC0F593
S1135160801027E7006CCA88807C814A008001B8DF
S1135170004F00B0004001B8000002B800F049023E
S1135180005A62029C1700209817002094170020F0
S113519018790000D34D62100A3BB2DF313641DC8E
S11351A0FBF742FA2C6894B3B4FA84F3D3F1020304
S11351B058BFDC40354B9C4288BF6408C8B3B4FB7D
S11351C0F0F3642100FB134201FB02F2904203F16D
S11351D0FF3253D85D085308013D1B0243EA05150D
S11351E0C9F80C50FBF7F0F9E0B1B4FBF0F264211C
S11351F000FB124401FB04F4A0423DD8531E5208A4
S11352005B08013A68E7002321481D4690E66FF0E9
S11352101F050028E4D140F2C1422B210020FCF7F5
S1135220CFFEDDE740F2E4422B21FCF7C9FE621E0B
S1135230E4E7631EA51E5B086D08013B2D0245EAE9
S11352400315E8E7407940F25452003818BF0120B2
S11352503D21FCF7B5FE207940F25552003818BFC5
S113526001203D21FCF7ACFE237962791B0243EA5D
S11352700213C9F80C3010E71446D8E79D1E6D08D8
S11352805308013B2D0245EA0315A9E73FBE40251B
S1135290D694BFD610B5044686B059B9214B41689F
S11352A0D3F8FC30827A2048059300686B46FFF7F8
S11352B0D9FD69461D4B0A685A631A4BD3F8FC3072
S11352C033B34B6843B11A4B1A4AC3F80C214A68EA
S11352D0A3F58053C3F80C218B6843B1144B164AD1
S11352E0C3F8EC208A68A3F58053C3F8EC20134A72
S11352F0C868D2F8743123F4EE630343C2F87431FE
S1135300D2F86C31096923F4EE630B43C2F86C31B3
S1135310002022890A4B9A6203F5A033186406B070
S113532010BD00BF004F00B0D8140020008001B8A9
S1135330006001B8FFFF0F00FFF8FF0F000002B884
S1135340004000B8064B9A6E920607D55B6E002BA0
S11353504FF48043B4BF034A034AD3640020704728
S113536000800050002002B8001002B810B590B1BF
S11353700468012C0FD902696AB11168094B102C19
S1135380196051685960916888BFD268996094BF68
S1135390D960DA6010BD10220021024802F0F2F94F
S11353A0F8E700BFA4170020084BC1171A68A2FB36
S11353B0000302FB013310F1807043F10003400E3F
S11353C040EAC310803820EAE0707047B417002028
S11353D00722194B70B5DA63FFF78CFA174BC40830
S11353E0010B0546E005C018154A41F100010023F0
S11353F001F092FB134B144E18601448FFF7D4FFCE
S11354004042C6F8DC0049F65800FFF7CDFFC6F865
S1135410A8000F48FFF7A6F8024660B1E301500860
S113542018184FEA15714FF0000341F1000101F023
S113543073FBC6F8B40070BD000002B8B2E60E00FB
S113544065CD1D00B4170020003F00B070110100AD
S113545040420F0010B5044698B10B4BD3F8FC0042
S1135460FFF784FF4FF47A7303FB04F0074BA0F5B6
S11354707A60DA689B681044C01ABDE81040FFF7F0
S113548093BF49F64040F8E7004F00B0A41700204E
S11354902DE9F8430546084614461E46FFF766FF05
S11354A005B306F0020716F004061DD1D7B14FF478
S11354B07A706B685843002B40F08C80FFF774FFC0
S11354C020636B69002B00F08C804A4AD0684FF44B
S11354D07A7202FB0300A0F5FA50FFF765FFE06261
S11354E0002E58D1BDE8F8832869002869D04FF40C
S11354F07A7358433F4BA0F57A609B68C01AFFF754
S113550053FFA062A88B00285ED04FF47A735843EF
S1135510384BA0F57A609B68C01AFFF745FFE0613D
S1135520354BE968D3F80080002950D04FF47A73E2
S11355305943304BA1F57A619A685B68891AC91A94
S11355402E4BC8171A68DFF8BC90A2FB011302FBAC
S1135550003311F1807143F10003490E41EAC31194
S11355608039274B2162D3F8C4306362D9F8003004
S113557053B1404601F0F3FF30B12246D9F8003070
S11355801C49D8F87C0098470021A869FFF762FFFE
S11355906063002F8BD1A86830BB47F23050FFF70F
S11355A003FF60614FF47A702B6858432BB1114BA1
S11355B01B6803F51C5310331844FFF7F5FEA06174
S11355C090E749F640409AE749F64040A5E749F696
S11355D04041B5E7074B1B6803F51C5310331844CF
S11355E06CE747F2305078E74FF47A735843A0F5EC
S11355F0FA50D4E7A4170020D8140020B4170020D0
S1135600003F00B0A017002070B588B06D46124C62
S11356100FCC0FC594E80F0085E80F00D8220021B5
S11356200E4802F0AFF8B02200210D4802F0AAF8AB
S1135630202200210B4802F0A5F802F096F80A4B4C
S11356401B783BB16D46044E0FCD0FC695E80F0095
S113565084E80F0008B070BDE03F00B0783E00B0B1
S1135660503F00B0E04F00B0E91700200A4B197812
S113567001F0FF0229B10021197008499202C1F812
S11356800421597801F0FF0229B1002159709302D5
S1135690024AC2F808317047F6170020005000B8DB
S11356A0064BD3F8EC0E064B5B6C1A0103D4054B86
S11356B09B6E1B0401D500F580707047003000B06C
S11356C0000002B8004000B808B501F02EFC0E4BF3
S11356D01A78A2B90D4A126812F4843F0FD10C4A09
S11356E01021D1641B7863B9084B1B68DB0508D40F
S11356F0074B2022DA64BDE8084001F01ABC054AD1
S1135700EEE7044BF5E700BFFA170020181200205B
S1135710002002B8001002B810B501F006FC0E21FA
S113572004460320FFF74EFA40F20122034B2046C1
S1135730BDE81040DA6201F0FCBB00BF004000B8D5
S11357400022044B1A70044B197811B11A70FFF738
S1135750BBBF7047F9170020FA17002008B501F005
S1135760E4FB4FF00042264BC3F88020BFF34F8F79
S1135770BFF36F8F0122C3F88420BFF34F8FBFF3B1
S11357806F8F0222C3F88420BFF34F8FBFF36F8F54
S11357900422C3F88420BFF34F8FBFF36F8F082216
S11357A0C3F88420BFF34F8FBFF36F8F4FF00052C5
S11357B0C3F88020BFF34F8FBFF36F8F1022C3F85D
S11357C08420BFF34F8FBFF36F8F2022C3F8842050
S11357D0BFF34F8FBFF36F8F4022C3F88420BFF312
S11357E04F8FBFF36F8F4FF48062C3F88420BFF3F1
S11357F04F8FBFF36F8FBDE8084001F09ABB00BF25
S113580000E100E008B501F090FB4FF000420A4BC4
S11358101A6001225A6004225A6008225A604FF02A
S113582000521A6010225A6020225A6040225A60A4
S1135830BDE8084001F07DBB00E100E0012370B544
S1135840074C2370074B1E68074B3240D3E90053C3
S113585019402840FCF71CFC0023237070BD00BFD6
S1135860F8170020BC170020181200202DE9F0477B
S1135870DDF820A003EA0108099B06460D4602EA6A
S1135880000703EA0A09BAF1000F40F05C81031F24
S11358900B4300F01C81052871F1000380F0F280B5
S11358A050EA010300F07281431E0B4300F0328181
S11358B0FFF754FFB64AD2E9004323EA050324EA7A
S11358C006043C4343EA0807B24BC2E900471E689A
S11358D026EA0A0646EA09061E60FFF7F5FE14F0FA
S11358E02A4F14BF48F202034FF40043AA4AB007F8
S11358F0D26EAA4848BF43F4005383EA020122EA65
S11359000302C266A64A0B408166D366C4F3804292
S11359101203210348BF42F48072E30648BF42F4F5
S11359200052A04BA50648BF42F400726006D3F8AB
S11359300C3248BF42F48062210648BF42F4006240
S1135940994882EA030123EA0203C0F80C32974B18
S11359500A40C0F80812C3F80C22BA0507F4007311
S113596000F11081924A1D46D2F8A41002F50052AB
S1135970C2F8A410C2F8A0104FF05022C2F8A4300C
S11359808C4ADFF86C8282F88830E30448BF45F41F
S11359908035A00348BF45F48015A10748BF45F4EE
S11359A0001514F4001F06D0D8F8000001F0E8FE3A
S11359B008B945F40025E20248BF45F40035FB066A
S11359C07D4B48BF45F480051A6A7C4985EA020389
S11359D023F001031A400A621D40CB61784B16F094
S11359E0010F1D62774B784A18BF1A46774B7D0723
S11359F01B6F48BF42F00062754882EA030123EA44
S1135A0002030367734B0A4041661A67724A04F043
S1135A100103916CA0F5803081EA030221EA0301BD
S1135A20816442641A406D4B20029A64D8F80020C5
S1135A3048BF6B4B92F81D2158BF6A4B610748BFA2
S1135A4043F4806322B114F4C06F18BF43F480732D
S1135A5032074FF03A42BDE8F047D2F8181148BF78
S1135A6043F0004383EA010222F4A0225E4811407D
S1135A70C0F818111340C0F814215C4AC2F8183158
S1135A80FFF7C0BEA0F580630B4306D020F480630B
S1135A90A3F500730B437FF40BAF01F046FA3C49C6
S1135AA0D1E9003223EA060322EA050242EA0802A7
S1135AB03B43C1E900324E4A126892F81D114A4A2A
S1135AC009B313F4C06F1ED04FF4807311E001F0DA
S1135AD02CFA2F4AD2E9003123F004033B4341EA74
S1135AE0080157EA0807C2E900314FF480633E4ACF
S1135AF00BD0C2F81431A2F58052C2F81831BDE8B7
S1135B00F04701F016BA4FF48073C2F81831C2F8A6
S1135B101431F4E701F009FA1D4AD2E9003123F007
S1135B2001033B4341EA0801C2E900310123314A40
S1135B3057EA08071BBF5364A2F580529364936429
S1135B4008BF5364DBE750EA01037FF4B1AEBAF156
S1135B50010F7FF4ADAE01F0E8F90E4A136823F0AB
S1135B60010343EA090313604FF48063184AB9F14F
S1135B70000F04D05366A2F580521367BFE7136782
S1135B805366BCE701234FF48025F9E6BDE8F087AE
S1135B9018120020BC170020004000B8006000B8B4
S1135BA0005000B8004001B8006001B8005001B8CE
S1135BB000400050003F00B0000002B8002002B8CE
S1135BC0001002B8041C00030418000300C001B84C
S1135BD000E001B800D001B800C000B800D000B89F
S1135BE00D0A0A09090A0A09002000BA001000BABD
S1135BF0D814002000E000B8024B5868C0F3C0007D
S1135C00704700BF18120020024B186800F0010012
S1135C10704700BF18120020024B5868C0F3C03010
S1135C20704700BF18120020034B1B6813F4C06FA9
S1135C3014BF0120002070471812002010B504463C
S1135C40FEF724FEFFF78AFD04F18000FDF7F4FE61
S1135C50FEF7A2FDFEF7B4FAFEF722FBFFF7B8FB4E
S1135C6013490723134AD1F8FC1004F1D800FFF7B5
S1135C700FFC4FF080710020FEF732FC4FF00072F1
S1135C800D4B4FF400110120C3F80021FEF728FC4E
S1135C90FFF78CF820B940F221321421FCF790F977
S1135CA001F061FDBDE810400120FEF7C9B900BF55
S1135CB0004F00B0A43F00B000D001B88022074BD1
S1135CC01A64082203F580531A64054AD2F8C43EC4
S1135CD023F02003C2F8C43E704700BF001002B88E
