S02B000062745F7261696C5F736F635F656E657267795F68617276657374696E675F73656E736F725F322E73A5
S1130000001000203D07000095880000958800003E
S1130010D18E000095880000958800009588000026
S11300209588000095880000958800009588000058
S11300309588000095880000958800009588000048
S11300409588000095880000958800009588000038
S11300509588000095880000958800009588000028
S11300609588000095880000958800009588000018
S1130070958800009588000095880000F50600002A
S11300802987000095880000C904000095880000B5
S113009095880000F50E0000958800009588000002
S11300A095880000958800009588000095880000D8
S11300B0958800007D77000095880000C5810000C8
S11300C03595000031950000B57900004195000098
S11300D039950000998100003D95000005820000DB
S11300E069650000B965000075820000958800000C
S11300F09588000095880000958800009588000088
S11301009588000095880000958800009588000077
S11301109588000095880000958800009588000067
S11301209588000095880000958800009588000057
S11301309588000095880000958800009588000047
S113014082B030BF074BD3F8F030DB0704D500236F
S11301500193019B052B01DD02B07047019B013324
S1130160F6E700BF00ED00E0000000000000000022
S1130170000000000000000000000000000000007B
S1130180013800D0FCE770470348044B834202D097
S1130190034B03B118477047C4190020C419002049
S11301A000000000064B0749C91A891048BF0131F5
S11301B0491003D0044B0BB101481847704700BFE6
S11301C0C4190020C41900200000000010B5064C1A
S11301D0237843B9FFF7D8FF044B13B10448AFF3B6
S11301E000800123237010BD6A1800200000000065
S11301F0D0D6000008B5054B1BB105490548AFF33F
S11302000080BDE80840FFF7CDBF00BF000000003C
S113021020120020D0D60000A3F5803A704700BF1A
S1130220174B002B08BF134B9D46FFF7F5FF00212A
S11302308B460F461348144A121A09F085F90E4BDF
S1130240002B00D098470D4B002B00D0984700207E
S1130250002104000D000D48002802D00C48AFF323
S1130260008008F019FA2000290000F0ADF908F028
S113027001FA00BF000008000000000000000000B8
S11302800010002000100020C01800200000000012
S113029000000000034B5A6812B19A6A002AFAD18E
S11302A0704700BF0040065013B5044601A9092059
S11302B008F078FC019B5C434FF47A73B4FBF3F4CD
S11302C000F0C8FE0020611E00F0B8FEFFF7E2FF58
S11302D00122034BDA60FFF7DDFF02B010BD00BF5F
S11302E00040065070B5002488B02A4B05AD93E851
S11302F0070085E807000B213D2003948DF810408A
S113030001F010FB01213D2001F0BAF8012000F0BA
S113031069FE012640F201131220ADF81C308DF85D
S11303201E6002F0AFFC02221B4B28469A6100F0CB
S11303302DFE03A801F080FD204600F0CBF800F06C
S11303403DF94FF4807322461449054608F0EDFE4A
S1130350B0F5807F00D0FEE7114A124B116C28469D
S11303609970116C090AD970116C090C1971116C0E
S1130370090E5971516C9971526C0B49120ADA7158
S113038025230A4A009408F019FF2846084B1E70DA
S113039008B070BDAC950000005006503812002023
S11303A00080E00F0819002055555500D6BE898EEF
S11303B06E18002010B502F0AA4103F02204214374
S11303C008D002F0807203F020010A431EBF01210D
S11303D0054A11709B0506D50022114603F082F9E7
S11303E0024B18701B7810BD6B1800206C1800208D
S11303F02DE9F3412C4D04462B783BB92B4E2C4868
S1130400314608F0D7F932682A4B1A802A4F3B78D4
S1130410FBB10026274BDFF8AC801B8820461A0A64
S113042088F8103088F80F203E7008F074FD01221F
S11304303146204608F068FD01231C22414620462F
S113044008F071FE3246314620461C4B009608F0F7
S113045060FD1B4B1A78D2B100221A7001233B7045
S11304602B780A2B01D0142B14D1204608F053FD0D
S113047001220021204608F047FD4FF47A70FFF76F
S113048013FF012001F0A4FC2B7801332B7002B080
S1130490BDE8F0811E2BF7D146F2A8102A70FFF7B1
S11304A003FF01F087FDEFE76D18002038130020EB
S11304B0A09500004C1800206E18002000190020A0
S11304C06B180020081900200222014B5A61704762
S11304D000600650F0B5002107468DB0324802F0A6
S11304E0D9FE324D286000B9FEE7002304A9049325
S11304F008F017FE064600B1FEE701462C4A2868BC
S113050003F0C4F8642296232C68CDE909662046DA
S1130510CDE90523CDE907230B9608F019FE042F36
S11305200DD8DFE807F0031014191B00204603F070
S113053057F920B9204605A902F046FF90B120469C
S113054008F016FEFEE7204603F050F9F1E700211B
S1130550204608F00FFEECE70221F9E7204603F0FD
S113056039F9E6E74FF4F173124ACDE900234FF06D
S1130570FF324FF0FF33286808F06FFD00B1FEE74B
S11305800D4B28681B8803A9ADF80C30ADF8143066
S113059008F04BFD00B1FEE7286805A908F05BFDF3
S11305A000B1FEE70DB0F0BD24190020341900207D
S11305B03987000000200055B8950000014B1868E9
S11305C0704700BF3419002008B508F085FCFFF718
S11305D089FE044C206008F08CFC2068FFF708FFBB
S11305E0F9E700BF3C13002008B502F003F8012826
S11305F00ED10F4B04205A6E4FF480230D49520341
S113060058BF0D4A4B6601F51041086258BF536646
S113061002F008FB00F07EF808F047FB08F047FB07
S113062008F0BEFA02F0ECFABDE8084000F068B841
S1130630008000500090005000A0005008B504480D
S113064008F0BAFABDE80840024800F0BFB900BF9C
S1130650B49600003819002030B51E4D95B00DAC8D
S11306600FCD0FC495E80700292384E807001A4A30
S11306701A49CDE902231A4B0E22CDE904134FF493
S1130680807300210DF12600069308F05DFF4FF4FE
S1130690A020144B0DAACDE907030F238DF82430B5
S11306A010238DF82530104B07A90A9320230B93B0
S11306B001238DF831300D4B0D48009302AB02F04D
S11306C087FC044600214FF4E13008F0D4F82046BA
S11306D015B030BDBC9500000000065000050006B2
S11306E000080007240006506F1800204013002063
S11306F08C130020014808F0B3BB00BF8C1300200A
S113070008B5034808F058FABDE8084007F0E9BF07
S1130710B4960000014808F04FBA00BFB496000038
S11307200348044A0449121A921008F0B4B800BFEE
S11307304001000080010000C018002008B500F04E
S11307402FF8FFF7EDFF124B12498B4212D3002012
S1130750114B12498B4218D3FFF762FD186850F809
S11307602240586840F82240013298688242F5D30A
S11307700C33EAE70022F8E71C6844F8220001324F
S11307805C68A242F8D30833E4E70022F8E700BF2C
S1130790D8D60000E4D60000E4D60000E4D6000079
S11307A04FF40041134B144A70B59A60D3F8882073
S11307B0124D42F47002C3F88820114A05F5005422
S11307C091664FF0FF3222664FF6DF7262660222B4
S11307D0C3F8D020BFF34F8FBFF36F8F4FF4403671
S11307E0032002F05DFA0320E66002F04BFA2E616A
S11307F070BD00BF00ED00E0000000000080004478
S113080000900050014B1868704700BF5019002039
S1130810014B1860704700BF50190020084B1B6F34
S113082003F00703022B04D0032B05D0012B05D0C2
S1130830FEE7044B18687047034BFBE70348704717
S1130840008000505019002058190020002D31015B
S113085008B5FFF7E3FF054B1B6FC3F30333013305
S1130860B0FBF3F0024B186008BD00BF00800050DD
S11308704C1900200048704700B4C404014B1868A8
S1130880704700BF58190020054B1860054B1B6FBB
S113089003F00703032B01D1FFF7DABF704700BF52
S11308A0581900200080005000487047002D310185
S11308B0014B1868704700BF5419002013B5002479
S11308C02948019408F078F90123042203212046E1
S11308D001F0B6FB204608F038F90122234B05202D
S11308E0C3F8442401A908F062F9002839D1204B47
S11308F0D3F8F02042F00102C3F8F020D3F8FC2032
S113090042F08072C3F8FC201A4AA3F55D431A60D2
S1130910019B194A03F5D52303F2FC43B3FBF2F31D
S1130920164A013B13610223C2F8F0304FF480737E
S1130930C2F804334FF06043114AC3F8B02F114A90
S1130940C3F8802ED3F8002E42F48072C3F8002E30
S1130950FF2283F82020D3F8002E22F48072C3F8FB
S1130960002E02B010BD00BFB496000000D00350AA
S113097000ED00E0FF030040F8590D00000004E022
S113098055CEACC5090001004FF06043D3F8802E6A
S113099030B5D20715D501240B4D8440D5F8FC2081
S11309A042F08072C5F8FC20D3F8002E2243C3F82D
S11309B0002E53F82020002AF0D003F82010002045
S11309C030BD1120FCE700BF00ED00E02DE9F0434D
S11309D00368314A0446934285B059D02F4A934262
S11309E053D101262E4808F0E7F801230A22A17901
S11309F0207901F025FB01230A22E179607901F0D5
S1130A001FFB0A274FF00108264D4FF0300942F230
S1130A1010012379A27909FB035308FA02F25A5010
S1130A20642002F015FC41F210012379A27909FB3C
S1130A30035308FA02F264205A5002F009FC013F01
S1130A40E3D10322360106F1A04303F57033C3F862
S1130A509024A1792279354442EA0142C3F89424CE
S1130A60E2796379694643EA0243C5F8983440F26F
S1130A700113ADF80030E36820680293A368019382
S1130A80237C8DF80C3001F059FB05B0BDE8F083F0
S1130A9000260548A7E700BF0000015A0080065061
S1130AA0AC96000000C00350B096000038B505466F
S1130AB001F080FC044C012801D1013C00D138BD77
S1130AC0284601F05DFBF6E7E19304002DE9F04FC1
S1130AD09A46564B85B01B7806460F461546DDF8F8
S1130AE03C909DF844B0DDF85080002B00F09780D6
S1130AF0072A00F296800E9B002B00F09280B9F139
S1130B00000F00F08E80129BB3F5006F00F3898014
S1130B10012803D1109B002B00F08380444B03EB8E
S1130B2005131B7B002B7ED0424C1022002168460B
S1130B3008F00AFD04EB45141022A7BB39462046F1
S1130B4008F002FD43F210036380BBF1000F03D1F0
S1130B50E37843F00303E370364A0E9B02EB451C33
S1130B60CCE90193129B6901581E9DF84C30C0F3E7
S1130B700A0003F003039B0643EA001E53582E4861
S1130B80012E00EA03004EEA0003CDF800A0535002
S1130B9017D0B8F1000F2ED19CF8023068F304137B
S1130BA08CF8023027E00021204608F0CDFC4FF4F9
S1130BB044736380BBF1000FCED1E37843F030037C
S1130BC0C9E713230CF1100ECCF80C309CE80F008D
S1130BD08EE80F006FF00301DCF81C20109B61F31A
S1130BE09F02012FCCF81C20CCF8143003D1CCF890
S1130BF01890CCF8043000270D4A290102EB0513A4
S1130C0042F80180159A28465A60694622469F6038
S1130C105E7301F067FC384605B0BDE8F08F074805
S1130C20FAE70748F8E70748F6E700BF8F180020FF
S1130C30A4140020A41300200F80FFF3028000F00E
S1130C40018000F0078000F038B5124B05461B7890
S1130C50DBB1E0B107F03AFE0F4A00231146147BE2
S1130C6054B92B6001251A0101EB03131D738C5039
S1130C7007F032FE204638BD0133082B02F1100282
S1130C80EDD107F029FE0548F5E70548F3E70548E7
S1130C90F1E700BF8F180020A4140020048000F0A6
S1130CA0028000F0018000F038B507F00FFE002349
S1130CB005460B4A147B6CB90133082B02F1100270
S1130CC0F8D101F0BBFB074B28461C7007F004FE6B
S1130CD0204603E0284607F0FFFD034838BD00BF67
S1130CE0A41400208F180020058000F00D4B10B5CF
S1130CF01B78044693B1072812D807F0E7FD0A4B86
S1130D0003EB04131A7B2AB100241C7307F0E4FDDF
S1130D10204610BD07F0E0FD0448FAE70448F8E770
S1130D200448F6E78F180020A4140020068000F081
S1130D30028000F0018000F0154B13B51868002301
S1130D4001908DF8043007F0C1FD124B1C7824B1DA
S1130D5007F0C2FD104802B010BD01221A7007F05E
S1130D60BBFD0E4B01A81C731C7783F82C4083F841
S1130D703C4083F84C4083F85C4083F86C4083F833
S1130D807C4008238DF8073001F07CFB2046E2E725
S1130D90D89500008F180020038000F0A4140020D0
S1130DA00A4A08B512785AB107280BD8084A02EB48
S1130DB000131B7B43B1002101F056FB002008BD4A
S1130DC00448FCE70448FAE70448F8E78F180020D1
S1130DD0A4140020028000F0018000F0078000F0DD
S1130DE00A4A08B512785AB107280BD8084A02EB08
S1130DF000131B7B43B1012101F036FB002008BD29
S1130E000448FCE70448FAE70448F8E78F18002090
S1130E10A4140020028000F0018000F0078000F09C
S1130E200A4A08B5127852B107280AD8084A02EBD0
S1130E3000131B7B3BB101F0A1FB002008BD05485A
S1130E40FCE70548FAE70548F8E700BF8F180020DB
S1130E50A4140020028000F0018000F0078000F05C
S1130E600D4B1B7893B1072812D889B10B4B03EBB8
S1130E7000131B7B73B10A4B1A6D01238340134289
S1130E8014BF0123002300200B70704705487047EE
S1130E9005487047054870478F180020A4140020A7
S1130EA000000450028000F0018000F0078000F090
S1130EB00B4A10B512780C4662B107280CD859B108
S1130EC0084A02EB00131B7B43B101F069FB20705D
S1130ED0002010BD0448FCE70448FAE70448F8E79A
S1130EE08F180020A4140020028000F0018000F07C
S1130EF0078000F0184B2DE9F0411F6D5B6D1F401A
S1130F0000D5FEE701260025144CDFF8588037424F
S1130F1018D02368C8F85060A3B1A16828460131ED
S1130F206268A1609847637B012B0BD150B90C4BCD
S1130F3003EB45131A7B60F341021A731A7F60F3C3
S1130F4041021A770135082D4FEA460604F11004D0
S1130F50DDD1BDE8F08100BF00000450A4140020DE
S1130F60A413002000200450034B5A6812B19A6A5B
S1130F70002AFAD1704700BF00400650024A936A23
S1130F800342FCD1704700BF00400650436870B56F
S1130F90B3FA83F3104DC3F11F046B6801460BB120
S1130FA0FFF7E2FF01260D4B20205E60FFF7E6FF0E
S1130FB00A7A4B7843EA420343EA04134A7AAB6061
S1130FC08B7A43EA42036B62054B5E600B7813B184
S1130FD0FFF7CAFFEE6070BD004006500060065087
S1130FE000500650124910B504462020FFF7C6FFF2
S1130FF04B6843B934B14B680BB1FFF7B5FF01221D
S11310000C4B5A6010BD4B680BB1FFF7ADFF002CC1
S1131010F5D1FFF7A9FF0223CB60FFF7A5FFBDE8D9
S113102010400122044B20205A60FFF7A7BF00BFE5
S113103000400650005006500060065008B51020CD
S1131040FFF79CFF024B1963BDE80840FFF796BF0A
S11310500040065008B5FFF787FF02230449CB6020
S113106000230B62FFF780FF0123CB6008BD00BFA4
S113107000400650044BD3F88420D206FBD4D3F8A6
S11310808400C0F381107047004000502E4B9842FA
S11310904AD022D82D4B984240D014D82C4B984299
S11310A039D00AD82B4B984232D02B4B98422FD0B0
S11310B02A4B98422CD000207047294B9842FAD1F1
S11310C0284B186F7047284B98422AD0274B9842D8
S11310D0F1D1244BD3F880007047254B98422BD094
S11310E009D8244B984223D0234B9842E3D11D4B7B
S11310F0D3F88C007047214B984221D003F5740338
S113110003F510539842D6D1164BD3F89800704784
S1131110144B986D7047134B586E7047114B586FB2
S11311207047104B986F70470E4BD3F8840070478C
S11311300C4BD3F8880070470A4BD3F890007047E3
S1131140084BD3F8940070470048E8010024F400E9
S1131150C0CF6A0080841E0000093D0040420F0099
S1131160405DC6000080E00FC0EA210180BA8C0116
S1131170007E560380D54302006CDC020090D0034D
S113118038B5104B0546D3F820310C4603F0030361
S1131190022B0BD0032B0DD0012B0FD1FFF732FB09
S11311A0052305B1286004B1236038BDFFF766FB51
S11311B00323F6E7FFF778FB0223F2E7012300207D
S11311C0EFE700BF0080005073B50D4600210E4BC1
S11311D00191D3F88041064604F00304012C09D0A0
S11311E0022C0CD00C460EB1019B336005B12C606F
S11311F002B070BD01A8FFF7C3FF0F24F3E7FFF7A8
S113120053FB0190EFE700BF0080005038B5184B46
S11312100546D3F824010C4600F00700062823D81D
S1131220DFE800F0040A121A1E0E1600012305B1AD
S1131230286004B1236038BDFFF7E4FA0523F6E71C
S1131240FFF7E0FA0623F2E7FFF718FB0323EEE7C4
S1131250FFF714FB0423EAE7FFF726FB0223E6E784
S113126007F025FB0723E2E700231846DFE700BF6A
S11312700080005038B5104B0546D3F840310C4679
S113128003F00303022B0BD0032B0DD0012B0FD142
S113129007F00FFB092305B1286004B1236038BDB2
S11312A0FFF706FB0823F6E707F006FB0B23F2E73C
S11312B001230020EFE700BF0080005038B5144B35
S11312C00546D3F800020C4600F0070004281BD89A
S11312D0DFE800F003090D111500012305B12860B2
S11312E004B1236038BD07F0E4FA0923F6E7FFF7F9
S11312F0DFFA0823F2E707F0DFFA0B23EEE7FFF744
S1131300A7FA0E23800AE9E700231846E6E700BFA0
S11313100080005038B5104B0546D3F840320C46D7
S113132003F00303022B0BD0032B0DD0012B0FD1A1
S113133007F0BFFA092305B1286004B1236038BD62
S1131340FFF7B6FA0823F6E707F0B6FA0B23F2E73D
S113135000231846EFE700BF0080005038B5104B5B
S11313600546D3F860310C4603F00303022B0BD07F
S1131370032B0DD0012B0FD107F09BFA092305B1E4
S1131380286004B1236038BDFFF792FA0823F6E71A
S113139007F092FA0B23F2E701230020EFE700BFE6
S11313A00080005010B40D4C0B46D4F8204204F0D9
S11313B00304012C0AD0022C0CD008B100210160D6
S11313C00BB100221A605DF8044B70475DF8044BC2
S11313D0FFF7D6BE5DF8044BFFF74CBF008000500A
S11313E0B0F5207F1FD009D8B0F5007F15D003D801
S11313F068B1B0F5C07F0AD000200CE0B0F5607F82
S1131400FAD10B4BD3F88000C0F3011003E0084B72
S1131410186FC0F3033001307047054BD3F89000C8
S1131420C0F30460F7E7024B186FC0F38020F2E7C3
S1131430008000504FF400320E4B014610B50020DE
S11314409A66FFF7CDFF484341F671320A490B4BC8
S1131450884294BF00200120DC69DA639A6822F490
S1131460401242EA00529A60E20344BF0022DA6367
S113147010BD00BF00900050005A620200000350EB
S1131480420910B50FD0012A0FD00A4B0A4C022A88
S113149018BF234600F01F0049B103F58053012211
S11314A082401A6010BD1346F4E7044BF2E703F5DB
S11314B00053F4E76880005060820050648000505C
S11314C008B5802007F045FA034B98429EBF4FF4BD
S11314D08032024B1A6708BD005A620200A0005015
S11314E01FB50023B0F5807F019377D028D8382822
S11314F000F094800BD82438092810D809280ED875
S1131500DFE800F0676767670D0D620D377D5228CD
S11315105FD008D83D283BD03E2800F08480019855
S113152005B05DF804FB8028F9D1414B1B6F03F033
S11315300703013B032BF2D8DFE803F044413F6C7F
S1131540B0F5D06F5BD019D8B0F5A06F66D00AD8CB
S1131550B0F5806F3DD0B0F5906FE0D1002001A9C7
S1131560FFF754FEDBE7B0F5B06F2DD0B0F5C06FD8
S1131570D5D1002001A9FFF77DFED0E7B0F5006FBB
S1131580ECD00AD8B0F5E06F4DD0B0F5F06FC6D10D
S1131590002001A9FFF7E2FEC1E7B0F5086FBED154
S11315A0234BD3F8003103F00303022B2CD0032B7D
S11315B02ED0012B30D1FFF761F9032300E005237E
S11315C00193ACE70223FBE7002001A9FFF7FCFD30
S11315D0A5E7002001A9FFF7D3FDA0E702934FF090
S11315E0E0231B695B0705D5FFF732F90C2303934E
S11315F0039BE5E703A902A8FFF73CFEF8E70020F8
S113160001A9FFF75BFE8AE7FFF752F90823D7E742
S113161007F04DF90723D3E70123D1E7002001A9FF
S1131620FFF7C0FE7BE7002001A9FFF773FE76E712
S1131630008000504FF48032074B0849586E03F580
S113164080535A660B6A23F001030B62C3035CBF29
S1131650034B5A66704700BF0080005000C007501B
S113166000A00050F8B504468020FFF739FF032896
S113167000F087804FF40022424B02215A6645F65F
S11316800E03414AC2F88030404B9962012103F5B0
S113169080539962936DD903FCD4D4E900131B05DC
S11316A043EA0163E17B94F820500B43217BE77EFE
S11316B043EA0143617B6D0143EA0133A17B43EAC1
S11316C0811313619169D4E904031B0643EA80631F
S11316D001F000410B43A17E94F823000B43217ECB
S11316E043EA0143617E43EA01239361136AE66995
S11316F023F00D0394F8221043EA8703002E2DD122
S11317001362966A94F8213045EA031326F03305F0
S11317102B4343F0010393621D4D1B4B9A6D35EA35
S11317200202FBD10222194DAA621A659A6D520077
S1131730FCD41A69A56822F4700242EA05521A61BF
S11317404FF00042114B9A6119B9022203F58053FC
S11317509A6278B901220F4B9A620BE0334343F04B
S113176008031362936A23F0330303432B4343EACE
S11317704103936294F824301BB1034B064AC3F827
S11317808020F8BD0090005000C0005000D00050F0
S11317900300014000E00050F1A7FFFF014B93F963
S11317A00000704790180020014B1880704700BF5C
S11317B0A41900204FF4001208B5184B5A660223EE
S11317C0174A5360936813F48033FBD1012822D164
S11317D0FFF754F8134B984215D003F5122303F581
S11317E0F863984213D0104B00EB8002400AB3FB1D
S11317F0F0F3520A0A49CA620B6301234B620022C6
S1131800074B5A6008BD45F67A13084AF2E745F6D5
S11318101A03074AEEE75362F1E700BF0090005055
S11318200040025000F0490264666666D8B80500BC
S1131830BBCF0500B0F5207F10B50C4642D008D8C8
S1131840B0F5007F33D003D888B1B0F5C07F0ED097
S113185010BDB0F5607FFBD11F4A4C1ED2F880301A
S113186023F0300343EA0413C2F88030F0E707F0B2
S113187068F807F032F94FF48031184B164A1967AB
S1131880136F013C23F4704343EA04331367FEF7F8
S1131890DFFF0446FFF7EEFBC0F10201204607F02C
S11318A016F900F02DF8BDE81040FFF709BE0A4A0A
S11318B04C1ED2F8903023F0F85343EA0463C2F884
S11318C09030C5E7044A4C1E136F23F4806343EA47
S11318D084231367BCE700BF0080005000900050D1
S11318E008B50121022000F0B1FA07F02AF807F048
S11318F0F4F84FF48032014B1A6708BD0090005091
S113190008B54FF4C07007F024F8BDE80840044956
S1131910884294BF012102214FF42070FFF78ABF4F
S113192080F0FA02B0F5807F70B50C4600F0F880C4
S113193029D8382800F04B8110D82438092816D823
S1131940092814D8DFE810F0DC00DC00DC00DC003F
S113195013001300CD00130047003301522800F098
S1131960CF8005D83D2851D03E2800F0428170BD7B
S11319708028FCD18B1E052B00F2B080DFE803F039
S1131980AB99AE69AEA8B0F5D06F00F0108132D833
S1131990B0F5A06F00F01B8116D8B0F5806F00F091
S11319A0AF80B0F5906FE2D1023C052C8CBF0021D2
S11319B0984B994A98BF195DD2F8243123F0070354
S11319C00B43C2F82431D2E7B0F5B06F00F0898040
S11319D0B0F5C06FCBD1083C032C8CBF00218F4BDA
S11319E08D4A98BF195DD2F8403123F003030B43AD
S11319F0C2F84031BBE7B0F5006FD5D016D8B0F5CA
S1131A00E06F00F0F680B0F5F06FB0D1083C032C25
S1131A108CBF0021824B804A98BF195DD2F8603197
S1131A2023F003030B43C2F86031A0E7B0F5086F5D
S1131A309DD1CC1E052C8CBF00217A4B764A98BFD1
S1131A40195DD2F8003123F003030B43C2F80031CF
S1131A508DE7002502260121022000F0F7F906F0A7
S1131A6070FF07F03AF84FF480316F4B6A4A1967F8
S1131A70136F23F0070333431367FEF7E9FE0646AB
S1131A80FFF7F8FAC0F10201304607F020F801210F
S1131A90002000F01BFAFFF733FFFFF711FD002DC4
S1131AA07FF465AF032C7FF462AF01225F4B9A622F
S1131AB05DE74FF400225C4B0E465A66012203F5A3
S1131AC040539D6A03F58053C5F340059A62C2E70B
S1131AD000250426BFE700250126BCE700252E4685
S1131AE0B9E7022C03D0A4F10F056C426C414A4AB9
S1131AF0D2F8803123F003032343C2F8803136E760
S1131B00023C032C8CBF0021494B434A98BF195D0A
S1131B10D2F8203123F003030B43C2F8203126E727
S1131B20A1F10804082C3FF622AF01A353F824F0D6
S1131B30551B0000551B00006F190000551B0000C9
S1131B40831B00006F1900006F1900006F1900005B
S1131B50551B00004FF480322F4B3649586E03F565
S1131B6080535A660B6AC00343F001030B625CBFE7
S1131B70314B5A664FF0E022136923F004031361DA
S1131B80F5E64FF48032244B2A49586E03F580530E
S1131B905A660B6A23F001030B62C1035CBF264B38
S1131BA05A664FF0E022136943F00403E7E7083C68
S1131BB0062C8CBF0021214B174A98BF195DD2F81F
S1131BC0003223F007030B43C2F80032CFE60F2C98
S1131BD00DD0A4F110035C425C4164000E4AD2F8BB
S1131BE0203223F003032343C2F82032BFE601244A
S1131BF0F4E7083C032C8CBF0021114B064A98BF24
S1131C00195DD2F8403223F003030B43C2F840328B
S1131C10ADE600BFE995000000800050EF9500009C
S1131C20EF950000DC9500000090005000E00050AB
S1131C30F395000000C0075000A00050E29500009A
S1131C40EF9500004FF4C02270B50546FFF71EFA69
S1131C50314B04465A6603F598335A68012A04D175
S1131C602E494A609A699207FCD18020FFF738FC1C
S1131C70052807D106F065FE06F02FFF4FF48032E9
S1131C80254B1A67264B24F040749D4230D0254BD7
S1131C909D4230D0FEF7B6FD8542064603D90121A8
S1131CA0284600F013F9204BDA6812F0060FFBD136
S1131CB099689C609A68624012F4F81F1ED1284605
S1131CC0FEF7A6FD8020FFF70BFC05280DD1FEF7DB
S1131CD0BFFD0446FFF7CEF9C0F10201204606F02D
S1131CE0F6FEFFF70DFEFFF7EBFBAE420CD270BD24
S1131CF044F00074CEE744F08074CBE78020996010
S1131D00FFF7EEFB052805D0BDE870400121002057
S1131D1000F0DCB83546DAE70090005000E00150EE
S1131D2040420F0080841E000000015010B5224B79
S1131D3070B94FF40031214A1860516602F59832A7
S1131D405268012A03D11E4AD2F800211A6010BD3C
S1131D501B68002BFBD01B4A5268012AF7D0184A93
S1131D608020C2F80031FFF7BBFB05281FD14FF4D8
S1131D70C070FFF735FB0128044604D102214FF45B
S1131D80C070FFF757FD07220F4B1A610122A3F51C
S1131D9080535A600B4A1369DB07FCD5012CD6D15A
S1131DA02146BDE810404FF4C070FFF743BD012247
S1131DB0064B5A60CBE700BF24150020009000506A
S1131DC00080005000C0015000E0015000D00150DC
S1131DD010B5044610B10020FFF7A8FF124A13699A
S1131DE043F00403136106F094FE06F093FE0F4BD8
S1131DF05B6E5B0142BF0E4B0E4AC3F8202406F013
S1131E005EFD07F0C9FB06F05EFD06F085FE06F0F8
S1131E1082FE1CB9BDE81040FEF71ABD0120BDE8E2
S1131E201040FFF783BF00BF00ED00E000800050CA
S1131E3000E003500000FF0F034A0179D36E23F042
S1131E4030030B43D366704700400050F8B5044696
S1131E501C4BD3F88420D106FBD4D3F88430C3F3CD
S1131E6081139C422CD0FEF7D9FC012C064602D1EA
S1131E70214606F02CFE06F022FD4FF00072124BB4
S1131E8007465A66204606F04AFE4FF480630D4D1D
S1131E90621E93402B676B6E9A0103D4D5F884308D
S1131EA09B060AD5384606F00EFD022C08D13046B2
S1131EB0BDE8F840002106F00ABED5F88430EAE710
S1131EC0F8BD00BF004000500060005010B50C4643
S1131ED008B9FEF7A3FC074B21461B783BB1064B20
S1131EE0984204D80120BDE81040FFF7AFBF02209C
S1131EF0F9E700BF91180020005A62024FF0004237
S1131F0038B5264B26495A6601224A604AF6CD3135
S1131F1003F50B235D6C1964154030BB9968C90740
S1131F200BD4002401221F4B5A6015B11E4B1F4ACB
S1131F301A6407F097F8204638BD1A498A601C4A8B
S1131F40D96ACC0705D4904201D10724EAE70130CD
S1131F50F6E79042E5D1F8E70132DC6A14F00804B0
S1131F6006D08A42F8D10724DFE700221049F4E7BB
S1131F708A42F8D020220B4B0B495A620122A3F566
S1131F8080539A6023460A4A486A800603D49342DF
S1131F90E9D00133F8E79342C7D1E4E70090005059
S1131FA00050095000600950004009503254FFFFAE
S1131FB040420F004AF6E8532DE9F0411B4C1C4FF8
S1131FC0E56EE66E236606F07AFC8046FFF788FC31
S1131FD03B6F012023F0070343F001033B6706F046
S1131FE081FD0020FFF78AFF06F097FD06F096FDBD
S1131FF07B6E25F003055B0144BF0E4B0E4A45F092
S1132000020548BFC3F8202446F003060B4BE566DF
S1132010E666E566E666E566E666E566E666E56660
S11320204046BDE8F0415B6A06F04DBC00400050FC
S11320300080005000E003500000FF0F00400950F2
S1132040F8B504460D461F4616464AB101238B4097
S11320503021184A01FB0022F7B141F2100153501C
S113206004EB4403072D4FF00F014FEA031316D876
S1132070A80006FA00F281400F48184406F056FD05
S11320804EB9012330210B4AAB4001FB042277B146
S113209041F210015350F8BD42F21001DFE7A5F1FF
S11320A00800800006FA00F281400448E5E742F2A5
S11320B01001EFE700C0035004C003500CC00350EC
S11320C0F8B505460E4614465AB303F00307836871
S11320D023F44073836006F0F2FBAA6882EA0723C4
S11320E003F440735340AB6006F0EDFB36B9104B7C
S11320F09D4217D12E2006F02CFC0646AB680D4BF2
S1132100DA5D62430DD0A2EBC403013B3344B3FB5D
S1132110F2F3AA68013B920702D5002B08BF012302
S1132120AB61F8BD044B9D42E8D12F20E3E700BF2B
S11321300000015AF79500000080065038B50023CE
S11321400E4A036400F50053DA634A7804460D46E8
S113215000F108037AB903F5805302221A6020467D
S1132160D5E901122B7BFFF7ABFF20462978BDE8A8
S1132170384006F0EBBC03F50053EEE7FFFF1F0009
S1132180874B70B5984219D0864B984240F0058130
S1132190854B9968C26B12F4C06F15D091050FD5A9
S11321A0FD225A7009221A700022026493F9011068
S11321B0012900D15A7093F9010070BD7B4BE8E707
S11321C05605EFD5FE22ECE71C78082C00F2E180DE
S11321D0DFE814F009001F004500530070007E0082
S11321E09C00A700D6004C880A88E5060AD5120A86
S11321F002F0060242F0F002012119704263C1604C
S11322000120DAE702F0FE02A10748BF42F0010212
S1132210F2E7160608D5802100F50052D1634FF687
S113222008721A80022318E05506E9D5402400F507
S11322300052D4634A88D40604D502221A700B785B
S11322404363DDE796076AD507221A701B7901EB11
S1132250C3031B89012BD3D10823C360D0E7150620
S1132260D9D45406CCD5402400F50052D4634A880E
S1132270920754D503221A708CE74C880A88E60624
S113228043BF120A02F0060242F0F00202F0FE021C
S1132290650709D51C7942F0010201EBC4010989E3
S11322A0012904BF0821C160042119700123C360FE
S11322B04263A5E71406AED45206A1D5402400F526
S11322C00052D4634A88560729D507221A7097E723
S11322D01A795D8801EBC2042689AE420FD8002426
S11322E00132D2B21A715C804C886507C2D4E4070B
S11322F002D4012A7FF64EAF08221A7092E7626870
S1132300691C5980525D42630622DFE7160682D4B7
S113231055067FF575AF402400F50052D4630522BD
S1132320A9E794067FF56CAF456A214C46691A7992
S11323303440B4F5003F04BF466A4FF4005601EB45
S1132340C20100F500540A8908BFE6632026E6634B
S11323505C88A24281BF4968661C5E800D5559881D
S11323608A42C9D90424012AC46004D0013A9142A2
S113237001D10822C2601A78092A3FF415AF3FE759
S1132380D2057FF53DAF4FF4807100F50052D16363
S113239008E74FF609321A8006E76FF003000CE7EE
S11323A00000015A00800650341500202815002032
S11323B0200002001C4B10B4984207D01B4B9842DB
S11323C02ED06FF003005DF8044B7047184B026980
S11323D0D20744BF2022C2604A88940702D50C89E0
S11323E0002CEED0520702D50A8A002AE9D04FF415
S11323F080721A60002299601A71C023C360436915
S1132400DB050FD4202200F50053DA63094A5DF896
S1132410044BDA63036C43F4FC630364FFF7B0BE5C
S1132420054BD4E7436AEAE70000015A00800650EE
S113243028150020FFFF1F003415002010B51520BB
S113244000F00EFC0024FF22064B21465C65202090
S11324509A625C60FFF714F82146BDE81040212021
S1132460FFF70EB800000450044A054B002908BFCA
S11324701346012282401A60704700BF4010045086
S11324804020045010B5012104462020FEF7F8FF37
S113249001212120FEF7F4FF0122114B15205A607F
S11324A0227812069A606178A27842EA01429A611F
S11324B0FF229A6200229A631A644FF000425A651E
S11324C04FF0FF3203F500531A6500F0E9FB1520C5
S11324D0E17800F0F3FBBDE81040152000F0D2BB1A
S11324E000000450F8B50125C3B2DFF88CC0D1F860
S11324F000E09D408F7ACB7A0C46097BCCF8505093
S11325000CF5005C4CF820E04FF0300E184E1B0523
S11325100EFB006094F80DC043EA074343EA4153BD
S113252022F00302C0F860C0C365026706F0CEF96A
S1132530104B5D65237A13B1336C2B433364637A98
S113254013B1B36B2B43B3632279A37943EA0243F8
S1132550094A93616179E37943EA014305498B614F
S1132560034B55639D64BDE8F84006F0B5B900BF60
S113257000000450001004500020045010B5012441
S1132580C0B2844006F0A2F9044B5A6D22EA040258
S11325905A659C62BDE8104006F09EB900000450E4
S11325A010B50124C0B2844006F090F9074BDA6AF2
S11325B0224208D15B6B9C430CBF0124002406F02B
S11325C08BF9204610BD0024F9E700BF0000045039
S11325D04FF48032064B5A6603F5E6235B69C3F376
S11325E08512827003F03F021B0B42700370704728
S11325F000900050024B1868C0F30740704700BFBA
S11326000080E00F70B5054616461C4621B94FF40C
S1132610207006F09EF90146402C1BD003D8DCB193
S1132620202C1BD070BD602CFCD1042303FB06F2CC
S1132630530803EB4113B3FBF2F3094A203B02EACC
S1132640C303AA6822F06002AA60AA681443AC60BB
S1132650EB61E7E70623E9E71023E7E70823E5E76B
S1132660F8FF7F00012200F580535A6040F6AA6308
S113267041F20502436100230B498360C365C260D4
S113268000F500520361C361C36491640749836523
S1132690884203D103650023436502E0044988426C
S11326A0F8D0012353607047FFFF010000C00550BC
S11326B00000065070B50D46FFF7D4FF012300F566
S11326C080567360AB7C04461BB1836843F080433F
S11326D08360EB7C5BB1354A2B7D944245D1A2F5F6
S11326E01032C2F88C31E36D43F08003E3652A8A2B
S11326F06B7B20461343EA891343E3602B7BD5E9C4
S11327000112FFF77FFF6B7D1BB1A36843F4803395
S1132710A360AB7D1BB1A36843F40043A360EB7DCE
S11327202A7E1B07120502F4E00203F0E043134380
S1132730A365697E1D4A8B1E012B1D4B1FD8944235
S11327401BD002F5804294420CBF01224FF0FF32AD
S113275003EB4213022041F21C620329985020D15A
S11327600423F3652B78636170BD124A944204BF5D
S1132770A2F52032C2F89C31B5E70022E8E7944282
S11327800DD00C4A94420CBF01224FF0FF3203EBF0
S11327904213022042F21C6201299850DFE7002212
S11327A0F5E7042204F50053DA65DBE700C00550C1
S11327B000C003500000065038B50446054D06F02D
S11327C064FC0FCC0FC594E8030085E803000020E7
S11327D038BD00BF4015002047F6FF739A42F0B59C
S11327E06FD002296FD8394B5B5C012B6BD8384D05
S11327F0DF0005EBC30415F83330A178012B13D1A6
S11328000025E078401AA84202D80844C0B2F0BDBE
S1132810431B6668A0EB530336F913609642D4BF9A
S11328201D4603F1FF30EEE760680028EFD0B0F9F1
S11328300040944204DBB0F902409442B8BF14460D
S113284083883D44FF2B19BFC8224FF0280CB0F9F0
S11328500620B0F908C0A2EB04030CBF0126002631
S113286093FBFCF333446E781BB29E4201DD002BD4
S113287001DA731E1BB24FF47A7C01339BB2071D3D
S11328805D1E2DB24FEAC50E00EBC505EA88AD68A2
S11328909E4214FB025222EAE27202F15C02B2FB93
S11328A0FCF204DD37F8335001339542E8D200EBF3
S11328B00E039888904228BF1046884238BF0846C5
S11328C0A4E7FF20A3E70020A1E700BFFB950000D9
S11328D0401500200229F0B555D82C4B585C01282E
S11328E051D82B4C04EBC00114F830004B6801287C
S11328F00FD1C8788C78904294BFC4EB0001C4EB2C
S11329000201001BCAB28242C8BF002233F912007E
S1132910F0BD002B37D08878904202D3B3F902007F
S1132920F6E7CC78B3F900009442F1D94C78998851
S1132930013CA1F1FF06714203F10405E4B27141C7
S113294003F10C07CEB2B44216D805EBC1014FF423
S11329507A756A43B1F902404968521A04EBD4719A
S113296002EB610292FBF4F29042D1DBB3F9020074
S11329709042CDDC10B2CBE737F831C04E1C944501
S1132980E3D33146DEE70348C2E700BFFB9500000E
S1132990401500200080FFFF08B50448FFF70CFF36
S11329A0BDE80840012006F093BB00BF009600007C
S11329B073B5044606F08EFB48BB6946204606F014
S11329C066FB00B1FEE7134E9DF8003032789A4260
S11329D01DD00C2B09D0204600F06EFE0546204683
S11329E00C4906F041FB10B1FEE76425F7E72946E0
S11329F0204606F04EFB00B1FEE73378042B06D1E7
S1132A006946204606F043FB9DF80030337002B05F
S1132A1070BD00BFA619002007B5FEF78DF9084B5D
S1132A20984200D040B9002101A8FEF70DF918B969
S1132A309DF8040006F092FA03B05DF804FB00BFB1
S1132A40038000F0B8B1036813F4E07F03F03F00A3
S1132A50C3F382120AD0012A0DD1084B41B103F508
S1132A608053012282401A6000207047044BF5E72E
S1132A7003F50053F5E70E20704700BF688000504F
S1132A806480005030B58BB06C46574D0FCD0FC4E9
S1132A900FCD0FC495E8030084E80300534BD3F82B
S1132AA04C21110340F18B80A3F5FE431C884FF6A3
S1132AB0FF739C4208BF79248DF81940FEF76EFE1F
S1132AC0044484F308044A488DF81840FDF7DCFEFA
S1132AD06846FEF7C7FD3220FEF766FE4548FFF75D
S1132AE0B1F8454C01213520FEF7CAFC0020FEF761
S1132AF061FEFEF7F5FE236F002023F0070343F089
S1132B0003032367236F23F4744343F4806323672D
S1132B1005F0E8FF394BD3F8FC20D20153D4D4F8A4
S1132B208030C4F88030344BD3F8202122F00302E3
S1132B3042F00202C3F82021D3F8242122F0070234
S1132B4042F00202C3F82421D3F8802122F00302C8
S1132B5042F00102C3F88021D3F8402122F003029D
S1132B6042F00102C3F84021D3F8602122F00302AD
S1132B7042F00102C3F86021D3F8402222F003029C
S1132B8042F00102C3F84022D3F8002222F00702E7
S1132B9042F00102C3F80022D3F8202222F00302FB
S1132BA042F00102C3F82022FEF744FD4FF0E02278
S1132BB00020136963F0040313610BB030BDD3F834
S1132BC05041E4B278E7D3F8FC2022F08072C3F8D5
S1132BD0FC20D4F88020C4F88020D3F8FC2042F0F4
S1132BE08072C3F8FC209EE7849600000080E00F0A
S1132BF000F0490200B4C4040080005000ED00E07D
S1132C0013B50024064A6846536F43F00103536723
S1132C1000948DF80440FFF70FF9204602B010BD70
S1132C20004000506FF00403502110B50A480B4CCB
S1132C3013F0800F03F1010206D12344402A83F8E4
S1132C4000131346F4D110BD03F00F03043B0344F7
S1132C5019761346ECE700BF00ED00E000E100E068
S1132C6000280CDB01220649430900F01F008240C2
S1132C70203341F82320BFF34F8FBFF36F8F70478A
S1132C8000E100E0002807DB01234109034A00F0CA
S1132C901F00834042F82130704700BF00E100E08C
S1132CA0002808DB01224309034900F01F00824089
S1132CB0603341F82320704700E100E00028ACBFF6
S1132CC000F16040064B4FEA0111C9B2ABBF00F5F9
S1132CD0614000F00F0080F800131954704700BFE2
S1132CE014ED00E010B5044605F0E9FD024B1C604C
S1132CF005F0E9FD002010BD5815002010B505F0C1
S1132D00DEFD034B1C6805F0DEFD204610BD00BF50
S1132D105815002030B51446054687B0104605F016
S1132D20D1FF6369024683423CBFD4E903315B1897
S1132D301B1A7BB10F49049403910021CDE90131A1
S1132D40012300932846D4E9001305F0E0FD002098
S1132D5007B030BD0122627694F82D20002AF6D007
S1132D6084F835301321E369204698472046636A86
S1132D709847ECE7152D00002DE9F04788B004468C
S1132D800F461646984605F0A1FD8146002E7AD0DE
S1132D90237E03F0FF02002B00F0A280204605F002
S1132DA091FF6569A84205D1637ED4E903321344D7
S1132DB05D1B01E0F9D9451BB54228BF354605F036
S1132DC085FD94F82D308246002B6DD12A46384675
S1132DD0616906F0C1FB63692E462B44636121E0FF
S1132DE0037803F0FD0111295BD1216B814205D1E8
S1132DF0A3F111014B424B4184F83430013E636925
S1132E00216B01328B4203F1010308BF2363636129
S1132E1095426069E4D1D4E90323216B13449942B8
S1132E2000D122630025D4E9032361691344994244
S1132E3008BF6261207A6576FDF7B2FF204605F08F
S1132E4041FF6369834232D1257694F82D30E568D9
S1132E50656103B125632046636A9847214B049456
S1132E6003930023029323692A46019301230093C9
S1132E7063682168207A05F04AFD207AFDF7B0FFE7
S1132E80504605F029FD4846C8F8006005F024FDC9
S1132E90D8F80030002B0CBF1B20002008B0BDE880
S1132EA0F08707F8013BAAE72E460022B0E701238A
S1132EB0207A23760DF11E01FDF7FAFF9DF81E30EE
S1132EC0002BDAD00DF11F01207AFDF7C9FF9DF820
S1132ED01F100029D1D12246207AFFF71BFFCCE72F
S1132EE01646D0E7152D0000F0B50C4606461546EB
S1132EF087B03822002120461F4606F025FB95E8BE
S1132F00030000232A692376EB6884E80300C4E9FC
S1132F1004232A7DE36084F82C20AA7D2363012303
S1132F2084F8343084F835300C9B84F82D202362E7
S1132F300D9BE76163620E9BA3622B7A84F83630A3
S1132F401C4B346073601C4BB3601C4B33611C4BD3
S1132F5073611C4BF360FDF7EFFE30B11A4B9842DE
S1132F6003D01024204607B0F0BD002104F108006E
S1132F70FDF76AFE0028F4D1144B0494CDE9020352
S1132F8023690193012300936368E2682168207A2E
S1132F9005F0BDFC04460028E3D195F90800FFF7CD
S1132FA07FFE95F90800FFF76DFE3046FFF79AFEA5
S1132FB0D8E700BF2F8D0000792D0000B98C0000E8
S1132FC0BF8C0000E58C0000038000F0152D00008C
S1132FD02DE9F0411C46564B86B00293554B012710
S1132FE0019300230C9D00939046CDE903770A4694
S1132FF0514B2946FFF778FF0646002840F09080A1
S113300023683946AB6363683A20EB63637A85F8D7
S11330104130237A85F84030E37A85F84330A37A47
S113302085F84230637B85F84530237B85F844304E
S1133030E37B85F84730A37B85F84630FEF720FA1A
S11330403B460422617A207AFEF7FAFF3B460222CD
S1133050E17AA07AFEF7F4FF39466068FEF710FAC9
S113306088F8006041462068FFF724FB1422637C43
S11330705B0103F1A04303F57033C3F81C26617AA6
S1133080227A42EA0142C3F83426E17AA27A42EA79
S11330900142C3F82C2685F8486098F81930032BB0
S11330A044D8DFE803F03441021C022385F8483099
S11330B000230422E17BA07BFEF7C2FF022741F23A
S11330C01C61627C1D4B03EB42104750E07BA17BEB
S11330D0B13241EA004103EB4213996017E0012742
S11330E085F8483002220023617B207BFEF7A8FF8D
S11330F0637B227B617C42EA0342114B49015A50B3
S11331000422236803F58053DA65002FD0D1AA6B1B
S11331100521D36C206843F00403D36405F020FD3B
S1133120304606B0BDE8F0810027D9E72326F7E74B
S1133130DD8D0000D18D0000558E000000C00350CD
S113314024D60350BFF35F8F074B5A6A22F48032B0
S11331505A62D3F8942022F00102C3F89420BFF3FA
S11331604F8FBFF36F8F704700ED00E038B5FFF766
S1133170E9FF274A2748D2F8C030274D23F0FF0340
S113318043F0A003C2F8C030244B04689D4204F10C
S113319001011DD1224BC2F89840C2F89C3003F5BE
S11331A0FF437E33C2F8A0300160BFF35F8F052276
S11331B0174BC3F894205A6A42F480325A62BFF320
S11331C04F8FBFF36F8FBFF34F8FBFF36F8F38BD38
S11331D023F01F03203BB3F1005F09D3C2F89840EA
S11331E00F4C43F00103C2F89C40C2F8A0300160C8
S11331F00C4B0168064A23F01F0343F00303C2F893
S11332009810C2F89C30084B0131C2F8A030CBE7CB
S113321000ED00E05C15002000190020C01800201B
S1133220030000201F190020E17F0020BFF34F8F0F
S11332300549064BCA6802F4E0621343CB60BFF34E
S11332404F8F00BFFDE700BF00ED00E00400FA056A
S113325010B50446FDF7FCFA0C4BA0F57A729A42BD
S113326012D84FF47A73B0FBF3F05C43084BB3FB12
S1133270F0F3B4FBF3F0022806D9BDE810400323B1
S1133280B0FBF3F0FCF77CBF10BD00BFFFC99A3B55
S113329040420F00F8B50D4610B900242046F8BD91
S11332A00E4F3E68002EF8D100F030F80446002896
S11332B0F3D0386000F076F8204605F051FE38B1BE
S11332C030463E6000F06EF8204605F042FEE4E72A
S11332D0002DE3D02046A847E0E700BF601500209A
S11332E0024B1868003818BF012070476015002091
S11332F0431E033306D8044B984228BF184664285B
S113330038BF6420704700BF40420F00F8B505463F
S113331005F0D5FA07460F4B1E6826B9384605F066
S1133320D2FA344611E0B4688CB194F810C01CF0A1
S1133330010F0CD14CF0010C95E80F0084F810C07B
S113334084E80F00384605F0BEFA2046F8BD36681A
S1133350E3E700BF6019002038B505460C4641B1CB
S11333600B6833B11B68013303D0CB680BB18B6896
S11333704BB906F04DF8BDE838404FF48672412150
S1133380002000F011BA084602F05AF80023044A5B
S113339085F81031C5E93043C2E9003338BD00BFB8
S11333A00010002010B5044618B9054B054A1360F7
S11333B010BD00F01BFBD4F8CC30002BF6D1F4E7A1
S11333C03F8F00005C19002008B502460868FFF72B
S11333D08FFF08604868FFF78BFF48608868FFF735
S11333E087FF8860C868FFF783FF0B69C860581CB3
S11333F003D00B48834228BF03460B614B69581C1A
S113340003D00748834228BF034688694B61FFF70E
S11334106FFFBDE808408861104601F0AFB800BFF7
S113342040420F002DE9F84FD0F8C43006460F464D
S113343013B1038B8B4244D0D6F8C0B0BBF1000F5C
S113344042D0DBF80830002B3ED0DBF80C1000290A
S11334503AD0D6F8D4A0BAF1000F38D04FF0000912
S11334604D46C84601E0DBF8083005EBC50203EB26
S11334708204E3890135BB4214D8238ABB4211D3A9
S1133480B4F91220B6F92430934250DD304696F850
S11334900411FFF7A1F9737D81468342A04606D942
S11334A0DBF80C108D42DED3B8F1000F39D00023C5
S11334B0424630461946D0473783C6F8C48086F85A
S11334C00D910020BDE8F88F0320BDE8F88FD146A8
S11334D047F6FF755446524604EBC40803EB8808CC
S11334E0B8F80E30BB4216D8B8F81030BB4212D32D
S11334F0B8F91220AA4202D14FF0FF09DCE73046A6
S113350096F80411FFF768F9737D81468342D3D995
S11335104246DBF80C100134A14204D9DBF8083030
S1133520DAE70120CEE7002AFBD09046C4E7A046A4
S1133530BDE700BF2DE9F04782B004460F461646AA
S113354001F0B8F9002851D13E4D2B68D4F8C0A041
S1133550D4F8C4800BB1534555D04FF00009AF6087
S113356001F0B4F90128074644D12B68DAF80010B9
S1133570D8F8002013B1186888424FD0204605F0CF
S1133580A8FEC5E900A8D4F8D4508DF80760002D32
S11335904BD00022204611460DF10703A8472046D0
S11335A000F052FD0546B9F1000F0CD05EB9012FB1
S11335B005D025B1244B002103205B689847284699
S11335C002B0BDE8F087B5FA85F040F2DB32332172
S11335D0400900F0E9F83146204600F0D5FE1B4BC7
S11335E00546414620461B689847E0E70023154DF1
S11335F06B60AAE70021012000F036FA01F066F9B9
S11336000128FBD1B1E76B68002BA6D04345A4D1B8
S1133610AB689F4214D04FF00109A0E7696811B16B
S113362009689142ADD05968A8E7617D94F80D31DD
S11336303246994228BF1946204600F08BFCAEE77B
S11336400025BCE700100020681900205C19002048
S1133650F8B50E46054605F032F9314607462846C8
S1133660FFF7E0FE044620B1384605F02CF9204669
S1133670F8BD01F005F9224631462846FFF75AFF06
S11336800446384605F01FF92046F8BD084B10B42F
S1133690002A14BF14461C46064B1C6019B15DF881
S11336A0044B05F076BC08465DF8044B704700BF38
S11336B03F8F00005C19002013B50446694605F0ED
S11336C0E6FC204605F0AFFDFF28024606D0204662
S11336D09DF80010FFF7FEF802B010BD0048FBE7AC
S11336E00080FFFF2DE9FF4105460F4690460AB9C9
S11336F0D0F82C804146284605F004FD18F0010F4F
S113370002D0284603F026FA05F043FE6E46184B15
S113371004460FCB86E80F0037B157F8242004ABDA
S113372003EB840343F8102C18F4803F10D1224695
S11337303146284605F008FE38B937B104AB03EB2F
S1133740840353F8103C47F8243004B0BDE8F081FA
S113375004AB03EB840353F8103C22460133314697
S1133760284602D005F0FFFDE6E705F0D9FBE3E7C4
S1133770C49600004FF4007307B50A490DF1060220
S1133780ADF8063005F0D3FCBDF80630B3F5007F84
S113379005D1022808BF002003B05DF804FB012016
S11337A0FAE700BF6415002008B550B90548064B78
S11337B001601A60054B1A68054B1A60186804F01A
S11337C0B6FF08BD641900206817002060150020AA
S11337D064170020014905F0ACBC00BF094B000090
S11337E0014905F0A6BC00BF354B0000014905F0B6
S11337F0A0BC00BFDD4A0000431C07D06FF0FF02ED
S1133800034B10405A62A3F580535862704700BFBF
S113381000E000B810B504234FF03A4101240A4AED
S1133820D1F81801C2F81831C2F814314C634FF4BE
S113383000511163410742BFC2F81431A2F580520E
S1133840C2F8183110BD00BF002000BA00F0180300
S1133850182B0AD003070AD440F2011310F0100009
S113386018BF1846034BD86770470020FAE70120B9
S1133870F8E700BF003F00B0344B2DE9F7431E6862
S113388001F4007900F00103174653EA09020546E2
S11338900C462FD04FF000080BB300230022012068
S11338A00021CDE9008803F0FFFB4146304602F0D9
S11338B08FFD012241467083104605F05BFB716B5E
S11338C006F1D80002F000FE21490868FFF794FFD2
S11338D04FF0FF330B60337C43F004033374B9F1CE
S11338E0000F07D00121304605F0FAFB24F40074E0
S11338F005430C43D6E94A232A40234052EA0301F4
S113390003D01449304609688847FB070FD512498C
S1133910124A08680021136811600121104A1170CD
S113392003B198470F4B002102205B68984717F0BA
S11339300E0F08D040F20B223B21002003B0BDE85B
S1133940F043FFF731BF03B0BDE8F08360150020FA
S11339507019002074190020781700207C170020AB
S11339609418002068190020F7B504461046D4E9DD
S11339704AC7DDE908268CEA020587EA0601054004
S1133980194085EA0C057940C4E94A51002523F41D
S1133990004106EA010320F0010043F400730240F1
S11339A043F00203CDE9005503F07EFB237C9A0724
S11339B017D5D4F82C319B0513D54FF48811204624
S11339C005F08EFB237C65F341032374D4E94A2379
S11339D002400B4052EA030103D003492046096820
S11339E08847002003B0F0BD7419002038B1036883
S11339F0044A002B08BF1346034A13607047014B67
S1133A00FAE700BFE391000074190020024B986E9E
S1133A1000F00F00704700BF003F00B00F2938B519
S1133A2005460C460ED800F051FF01280CD1074A78
S1133A302846936E23F00F032343936605F065FC39
S1133A40002038BD0120FCE70220FAE7003F00B067
S1133A50014BD86E704700BF003F00B0014B0020FF
S1133A60D9667047003F00B003282DE9F347884624
S1133A7055D82C4B13F800902B4B1E5C2B4B13F892
S1133A8000A004F01CFF074603F0DCFC054640B12F
S1133A9000230022CDE9003301200023002103F09C
S1133AA003FB03F0D7FC48B100230022CDE9003327
S1133AB0002000234FF4004103F0F6FA6EB31C4BD0
S1133AC0DC6C04F008041B4B31464846DC6403F00C
S1133AD011FE012352463146484603F097FE164B29
S1133AE0DC6465B1154B1868416BD83002F0ECFC0E
S1133AF013490868FFF780FE4FF0FF330B60B8F1FD
S1133B00000F04D00F4B002103205B689847384610
S1133B1002B0BDE8F04704F0D6BE3446D3E702B0A5
S1133B20BDE8F087DC960000D8960000D49600002B
S1133B30004000B8006000B8005000B860150020D4
S1133B4070190020681900200F4A136C13F0A00F9D
S1133B5015D1506C10F0040013D10C4BD3F8EC3E8B
S1133B6023F07F4323F0FF035BB1D368C3F3036205
S1133B70092A07D0B2F10C0018BF012070470020B9
S1133B8070470120704700BF000002B8003000B049
S1133B9070B504460D4616462BB1FFF73BFE294689
S1133BA0204601F0BBF84FF03A420124D368D26AB0
S1133BB003F0070306339C40C2F30C03E41AA4B2D7
S1133BC0B44228BF344629462246024801F0F0F99F
S1133BD0204670BD0C0000BA70B50D46064620B9EB
S1133BE0194B1B68A3B1032011E000F06FFE0128FC
S1133BF028D1164B93F90040C4F12704641BC4F187
S1133C001C03002BB8BF5B42232B0CDD012070BDCD
S1133C10A1F10B03002BB8BF5B42232BF6DC0B4B4B
S1133C2019700020F3E7B57404F049FE084AE40271
S1133C30136A04F4FF2423F4FF231C43146204F0E6
S1133C4042FEEEE70220E2E7601500209218002011
S1133C5000C000B8094B08465A6A91020BD4D3F845
S1133C600021D20708D4D3F8803013F4706F14BF46
S1133C700120002070470120704700BF004001B8B8
S1133C80F8B50D46436B02EA010423EA010323431A
S1133C9043633D4A01F00B0323EA0401D16423404A
S1133CA0A2F580526F070646D36410D50121FFF7B1
S1133CB0D1FF60B103F0C0FC4FF4007314F0040FA3
S1133CC014BF324A324A53620422324B1A64E90660
S1133CD006D514F0100F14BF00221B222E4B5A6578
S1133CE02A061DD5230616D54FF40012274B1A6257
S1133CF0012203F58053C3F8002104F0E0FD0E21F6
S1133D000746032002F052FB40F20122224B3846C0
S1133D10DA6204F0D8FD214606F1D80002F0D4FBA3
S1133D20EF0503D5E00529D502F02EFBA90503D53F
S1133D30A20526D502F034FB15F0600F09D0D6F8A1
S1133D40C810304605F04EFA8022144B9867144B85
S1133D501A612B0510D503F06FFC124A14F4006F9E
S1133D60D2F8EC3E14BF43F0006323F00063C2F8C2
S1133D70EC3E0422074B1A640020F8BD02F0FEFA60
S1133D80D4E702F007FBD7E7006000B8005001B8A1
S1133D90006001B8002002B8004000B8003F00B045
S1133DA0000002B8003000B070B50E4604F087FD84
S1133DB0054600F0AFFD044620B1284604F083FD1B
S1133DC0204670BD03F038FC104B3278D3F8EC3E3B
S1133DD0022A23F0F00315D0101F42424241520040
S1133DE043EA02137278022A0ED0111F4A424A4152
S1133DF0520043EA8213054AC2F8EC3E0422044B03
S1133E001A64DAE70122EBE70122F2E7003000B09E
S1133E10002002B870B50E4604F051FD054600F0CE
S1133E208FFD044620B1284604F04DFD204670BDA8
S1133E3003F002FC104B3278D3F8EC3E022A23F054
S1133E400F0314D0101F42424241520013437278B0
S1133E50022A0ED0111F4A424A41520043EA820309
S1133E60054AC2F8EC3E0422044B1A64DBE7012243
S1133E70ECE70122F2E700BF003000B0002002B8F6
S1133E802DE9F8430E780446042E0D4690F804817B
S1133E900BD100275FFA87F9484601F01FFB08B1F0
S1133EA04E4602E00137042FF4D1304601F016FBF0
S1133EB0002845D094F80431B34208D1AA88A36CF1
S1133EC09A4204D16A88B4F806319A4235D084F80B
S1133ED00461AB883046A4F808316B88A4F8063135
S1133EE0AB8804F58275A364FF23A37505F097FAE4
S1133EF06075284601F0B2FA18BB284601F0E4FACE
S1133F00F8B9D4F8C43053B194F80411414506D03B
S1133F102046B3F91220FEF75FFC84F80D01204619
S1133F2001F01EFB0949A4F808010123084AD1F84D
S1133F30FC1004F1D80002F0C9FE0020BDE8F883AB
S1133F4001200C2384F80431F8E700BF004F00B0CF
S1133F50A43F00B070B5054690F804010C460C2847
S1133F601DD0FF291DD01AB14FF0FF320E4B1A603D
S1133F7005F055FA064695F8040101F0E3FA844287
S1133F8028BF0446E4B2B44238BF3446E0B2A87550
S1133F9001F0DAFBA0F1FF035842584170BD022042
S1133FA0FCE70120FAE700BF7C19002010B590F867
S1133FB0043104460C2B3ED0D0F8C4304175BBB359
S1133FC0D0F8D420DAB990F80D318B421DD30022F9
S1133FD02046FFF7BFFF88B9184B1B7813F0FD0F7D
S1133FE00BD1204601F0BCFA15490123154AD1F83A
S1133FF0FC1004F1D80002F069FE002010BDB0F9F5
S11340002420B3F912309A42E1DD0022204694F8CC
S11340100D11FFF79FFF0028F0D1C4F8C40020461B
S113402004F0EBFF01462046BDE81040FFF710BB4B
S1134030FF238375E1E70220E0E700BFAE1900200B
S1134040004F00B0A43F00B0C36B012B01D100208E
S1134050704770B5054654498EB005F01AFAD5F884
S1134060C46001462C8BC5F8C80026B1336813B16F
S11340705B68002B69D104F022FC04F024FC0123CA
S1134080D5F8C8108DF80E30B389D6E90120E31AAB
S11340909BB200FB03224548ADF80C300368029242
S11340A0994207D0284605F09DF880224049414BAB
S11340B088671A61404C3F4E00F008FC0128FBD190
S11340C0236CD907F8D4336CDA01F5D4D5F8C810C9
S11340D028460D919DF80E20029908AB02F0B6FA1D
S11340E000282FD100F0F2FB0128FBD1314A3249DC
S11340F0136CDB01FCD40B6CDE07F9D408A901A80E
S113410002F0BCFCF0B92A8B2C4B5A642B7C60F374
S113411041032B7405F03DF9D5F8C43002465B69C0
S11341201968431EDBB2FD2B049114D9CC1C12D99F
S1134130234B01311B6815D0D81C10D8284604A97C
S113414004930AE002200EB070BD1A68032A92D9C3
S11341509B6A5B0E96E7284604A905F004F9002043
S11341600EB070BDD91C04D8284604A9049305F0E8
S1134170FAF8D5F82C319B0504D42B7C43F00203C8
S11341802B74ECE74FF48031284604F0A9FFD5E9FD
S11341904A2302400B4052EA0301E0D00949284671
S11341A009688847DBE700BFFC4F00B06C170020AC
S11341B0003F00B0000002B800C002B8008001B89F
S11341C0881900207419002038B590F8105104465D
S11341D03DB304F074FB1F22124B013D5A6215409B
S11341E0114A12495562D4F814518D66D4F8185105
S11341F0CD66D1F80011C9070FD54FF0FF31C3F8D0
S11342000411216CC2F804114FF0F041C3F81011ED
S1134210E37CDB060B40C2F81031BDE8384004F003
S113422052BB38BD006001B8005001B8004001B86D
S113423010B58B780246012B0C4600F28280C878B8
S113424001287ED80B78012B7BD84978052978D8AA
S113425019B1012875D105293CD0012B73D02068F0
S1134260C2F81C016378002B35D13849C1F88C3071
S11342704FF06051364B1962364B1B7813B106214F
S1134280354B99674FF08051344B02F1D800D96413
S1134290516B02F019F94FF48072314BC3F81821B5
S11342A0C3F81421A378002B42D14FF03A4340F6CF
S11342B0FF721A63E378002B3DD14FF03A4340F686
S11342C0FF721A676022274BDA6403F5E833402251
S11342D000201A6410BD013BDBB2032BE2D84FF07F
S11342E06051214A52F82330194A43F400131162F1
S11342F0A2F5805213620423A2F58832C2F88C30EE
S1134300936F23F0060343F0040393674FF0805246
S1134310164BDA6403F0A6F80028C3D04FF4807378
S11343200F4AC2F81431A2F58052C2F81831B9E725
S1134330FFF770FABEE76022074BDA6403F5D8335F
S1134340C5E70120C6E71846C4E700BF004000B82F
S1134350006001B893180020006000B8002002B883
S1134360002000BA005000B8E0960000001002B827
S1134370082310B1024A13647047024AFBE700BFE6
S1134380001002B8002002B8F8B504460E4611B970
S1134390037C5A0647D44FF6FF73A18BD4F8C87038
S11343A0994204D0344B1B680BB120469847334DD7
S11343B02B68BB4254D0324B1B683BB11FB13A68E7
S11343C0002A4FD0BF683946204698470727204621
S11343D001F0C6F8002E39D003F074FF0620294BF3
S11343E094F9122093F900302749C3F127039B1A4B
S11343F00A6ADB0222F4FF2203F4FF2313430B6255
S1134400D4F8C820214B2A60986701F005FA0025EA
S113441001211F4A1F4B1170204683F8845004F079
S113442074FF2846F8BD4FF6FF71144DD0F8C870DC
S11344302A6866F3861397428183037417D0104B5E
S11344401B68002BBAD101F08BF8072712493B46B1
S1134450124AD1F8FC1004F1D80002F037FCBBE793
S11344600127B4E71746204639469847AEE701F0DE
S113447077F80127EAE700BF741700206C170020C3
S1134480701700209218002000C000B8006000B827
S113449093180020003F00B0004F00B0A43F00B0CC
S11344A008B558220021064805F04EF81022FF21D5
S11344B0044805F049F803F005FF002008BD00BFDB
S11344C0F03E00B0343F00B00C2337B580F804311F
S11344D0002383746D23C0F8E03074234FF0FF355C
S11344E0A0F8F43064230446C0E93933C0E93B330F
S11344F0C0E9075585644575C58202F0BDFF2046B5
S1134500FFF7CEFF94F912102046FFF765FB6023F6
S1134510114A40F6FF71D3644FF03A4211631167B8
S11345200E4A2946D36440220D4B20461A64626B1E
S1134530FFF7A6FB0E230022CDE9003340F202234D
S11345401046194602F0B0FD00F0DCFF204603B02F
S1134550BDE83040FFF70EB9004000B8005000B885
S1134560002002B8044BD3F8EC3E13F0806F14BF64
S113457023200020704700BF003000B00246F8B589
S1134580B0F8084100F1D805FFF7ECFF0B688E681E
S1134590013304BFD2F8E0300B604B68013304BF31
S11345A0D2F8EC304B60771C37D1D2F8E830CF68C2
S11345B08B607E1C38D1D2F8E4600F69CE6001377D
S11345C004BFD2F8D8700F614F69013704BFD2F825
S11345D0DC704F618F69013704BFD2F8F0708F61CE
S11345E08F6947BBC0F1640408688C61C2F8E83085
S11345F04B68C2E93806C2E93B340B692846C2F865
S1134600D8304B690F49C2F8DC30D1F8FC100723CD
S11346100D4A02F05BFB0020F8BD04F16D031B1A88
S1134620B34238BF3346C2E704F17406361ABE42B9
S113463038BF3E46C1E76D34241ABC4238BF3C46FD
S1134640D2E700BF004F00B0A43F00B038B504F07B
S113465036F94FF6FF710A4A13888B4203D104F0EE
S113466032F9032038BD074C074D1B046566A4F5D9
S113467080546366118004F026F90020F2E700BF3D
S1134680AC190020006001B80000FFFF2DE9F743DA
S1134690054688461446FFF757FA80B16B4F02F07F
S11346A045FA7B69DE0740F1CE8004F008F906463E
S11346B0032001F0FFFA30B1304604F004F902207F
S11346C003B0BDE8F0837F6917F00607F4D13046E4
S11346D004F0F9F85E4B4FF400612846D3F8EC9EE1
S11346E0D3F8CC6E03F0E4FD40B14FF40072012125
S11346F0584B08461A643A4604F03CFC41462846A6
S1134700FEF7A6FF524BC3F8EC9EC3F8CC6E00280C
S1134710D6D12B7CD80601D4002C55D0C4F340004C
S113472002F050FF022314F4807F1FBF4A4A002185
S113473013644FF03A420BBF464A916113645363CA
S113474002F07AFF4FF4806314F0040F14BF434A5D
S1134750434A14F0400F53624FF004023D4B20468D
S11347601A644FF0400314BF3E4A3F4AC2F88830EF
S1134770FFF76CF8284604F064FD38B14FF48073F9
S113478014F0010F14BF344A324A1364A10644D50D
S11347904FF6FF726B8C93420FD0344A3449526EF9
S11347A0100CC2F301120132B3FBF2F308802B4A5E
S11347B02B4930481B0448665366003C18BF01244B
S11347C02B7C64F304132B74284604F09BFDF0B196
S11347D0284604F036FDD0B14FF40031284603F0EA
S11347E067FD431C03229BB2234801A904F007FE82
S11347F09DF8042002F00703052B9DF8053015D120
S113480012070DD443F480731C4AC2F8D43000203C
S113481003B0BDE8F04304F0FDBDFFF717FFCCE79C
S113482013F0040F09D19DF80630EBE703F03002D2
S1134830202A05D113F0010FF4E74FF48073E3E766
S11348409DF80630E0E703203AE700BF00C001B856
S1134850003000B0002002B8001002B8005001B8C7
S1134860006001B800D000B800E000B8004001B812
S1134870AC1900200000FFFF0C0000BA003E00B09D
S113488008B50A4BD3F84C114B1C0DD011F08041E4
S11348900AD10320FFF7E8F84FF08062044BDA6492
S11348A001225A6102229A6208BD00BF0080E00F13
S11348B0001002B84FF40022034B186C03F50053A8
S11348C01A64C0F3C0407047000002B80F4BDB68A5
S11348D0C3F30363013B0B2B0FD8DFE803F0060699
S11348E00C06060606080A08080802207047042079
S11348F070470520704703207047054B5B6913F030
S1134900060F0CBF01200420704700BF000002B84E
S113491000C001B8094AD368C3F303630B2B08D062
S11349206FF49050184100F0010080F00100400045
S11349307047106C10F48030EDD17047000002B85D
S11349400C4AD368C3F30363062B07D8042BD8B2ED
S11349500BD8C31E5842584140007047072B06D15C
S1134960D2F844010028ECD170470220704700209F
S1134970704700BF000002B8094BDB68C3F3036350
S11349809A1E012A8CBF00220122012B02701EBF35
S11349904FF4026222FA03F303F001030B70704731
S11349A0000002B8F0B5CF072BD5002A14BFAA2502
S11349B055250E461E24154F01F0030383F0010311
S11349C03B449B7806F0070C17F80CC0013C634489
S11349D04FEA5606F6D10E4E73436FF481769B0C64
S11349E0334482B991FAA1F195FAA5F54A082D0F3D
S11349F0490042EAC57201F00204C474C0E91023FC
S1134A00F0BDAA25D5E7034AF7E700BFF8960000F2
S1134A1036FC1000B756351230B547F6FE74164B07
S1134A20C3F83042456C04EA4504144DC5F83042DD
S1134A300F245C66CC071CD5DAB901246C664FF0F0
S1134A40FF34C3F80441056C0C4CC4F804514FF016
S1134A50F045C3F81051C37CDB062B40C4F8103179
S1134A6032B14FF03A430222C0F88010C3F8F42068
S1134A7030BD0224E2E700BF006001B8005001B875
S1134A8013B5437C0446033BDBB2072B96BF104AA5
S1134A900021D15CFEF7E2FF012000F06DFF4FF42E
S1134AA0F0620C4BDA644FF40072A3F58053DA64BD
S1134AB0637C053B012B08D80421074B01229B6E24
S1134AC00DEB0100019300F039FB02B010BD00BFF3
S1134AD0F0960000006000B8004001B8012310B552
S1134AE080F8F6302823C0F8DC30042304464374ED
S1134AF0044B196804F04DFA2046FFF7C1FF00206B
S1134B0010BD00BF3C970000012310B580F8F630BB
S1134B102823C0F8DC30072304464374044B196887
S1134B2004F037FA2046FFF7ABFF002010BD00BFAA
S1134B3030970000012310B580F8F6302823C0F820
S1134B40DC30022304464374044B196804F021FA50
S1134B502046FFF795FF002010BD00BF40970000DE
S1134B60012910B5044604D90239012914D90320B6
S1134B7011E00B4B19680523012284F8F6204FF449
S1134B80BC726374C4F8DC20204604F002FA2046A8
S1134B90FFF776FF002010BD024B19680623EBE7F0
S1134BA0389700003497000038B5184B04461D6848
S1134BB045B1EB6833B1286801F024FBAB68186891
S1134BC001F020FB124B1B682BB1DA681AB19B6809
S1134BD0186801F017FB0F4B1B682BB1DA681AB188
S1134BE09B68186801F00EFB0B4B1B682BB1DA684D
S1134BF01AB19B68186801F005FB2046FFF79AFF7D
S1134C002046BDE83840FFF73BBF00BF4097000097
S1134C103C970000389700003497000010B54FF41B
S1134C20F06204460020094B84F8F6006074DA64EC
S1134C3000F0A2FE064904F1D8000223BDE81040AA
S1134C40044AD1F8FC1002F041B800BF006000B87B
S1134C50004F00B0A43F00B0F8B5D0F814310446BA
S1134C608B420D46164603D190F81031202B0ED0FE
S1134C70324629462046FFF795FE202384F810315A
S1134C800023C4F81451C4F81831FFF79DFA4FF00B
S1134C900077074B32461F6429462046FFF7BCFEC7
S1134CA08022044B1A6103F500531F64F8BD00BF52
S1134CB0001002B8000002B810B50724134BDC63DF
S1134CC031B94FF48041A3F58053C3F8041114E0C3
S1134CD044210F4B59630F490968497C07291CBFBC
S1134CE040F04000986301230B484FF48041C363B4
S1134CF0064B002AE9D0C0F804114FF48042C3F8EF
S1134D000821C3F80C21C3F8102110BD006000B8BD
S1134D10004000B860150020005000B810B5407C79
S1134D20A0B1304BD3F8B82012F0060F01D00428FC
S1134D300DD94FF470622C4BDA604FF48072A3F5F6
S1134D408053DA600022274BC3F8B42010BD02F070
S1134D50020412F0040202D00B789B0637D4002C14
S1134D6039D00B7803F00F03072B34D14B78022B87
S1134D7031D98B7813F03E0F2DD0CC7814F0040F7A
S1134D8029D014F0010F0CBF04230A23A40748BF41
S1134D900633CB5CFBB1002A14BF02220122042893
S1134DA040F6FF7003F01F0108BF4900013940EAD3
S1134DB001310E4801654FF470600B491202C8605E
S1134DC0A1F58051CA60074AC2F8B430BEE7002C8E
S1134DD0C7D18B7823B90023044A13650122EAE77B
S1134DE00222DCE7003E00B0006000B8004000B8DA
S1134DF00A68064B12F0802F1CBF42F20101C3F86F
S1134E002812C3F88822C3F88C227047004001B8E6
S1134E10F0B585B06C460E460B4B074615460FCBD6
S1134E2084E80F00094BD3F84822009226B16B1E88
S1134E30DBB2FD2B88BF32602A462146384604F097
S1134E4092FA05B0F0BD00BF009700000080E00FAB
S1134E5030B50823054685B080B9094AC2F8FC3349
S1134E6051B96C46074B0FCB84E80F00064B2A461A
S1134E7021461868FFF7CCFF05B030BD034AEDE7C3
S1134E80001002B81097000060150020002002B83E
S1134E9038B5044601F0C8F801213A20FCF7F0FACD
S1134EA0E0782179154A40EA0143C2F8DC34E57917
S1134EB0A37943EA0543C2F8E03423781BB1002305
S1134EC00422FDF7BDF863782BB100230422E179B5
S1134ED0A079FDF7B5F82278012352B1084AC2F847
S1134EE0D8346278022332B1054A0020C2F8D8349B
S1134EF038BD044AF3E7034AF7E700BF00C0035094
S1134F0000D0035000E003504FF03A43D3F814218B
S1134F10D2031ED54FF480320E49C1F81421A1F5F5
S1134F208051C1F818215A6DD1B2C2F30722C3F8D7
S1134F30A410C3F8A4200422C3F8A4200022C3F8B8
S1134F40A420C3F8A420C3F8A420C3F8A420C3F861
S1134F50A4207047002000BAF8B50D464FF03A443B
S1134F601746064603F0ABFC01230421074A63639A
S1134F70E76026616561C2F81411054AC2F88431FC
S1134F8003F0A1FC0DB102236363F8BD002000BA55
S1134F9000E100E0054B012218604FF03A435A67E4
S1134FA040F6FF72D96418651A67704784170020A9
S1134FB02DE9F04105460124006800F007000630A1
S1134FC004FA00F3A868EC685E1EA04262D000EA0E
S1134FD0060E6C6810441E430640A3EB0E000EEB55
S1134FE0040C8242644618D9D31A0EEB030298B11A
S1134FF0431E052B04D94B1CACEB0303022B59D8DD
S11350000B460844ACEB010E03EB0E0113F8014B05
S113501083420C70F8D101466C688AB1531E052B8B
S113502001F1010302D9E01A022812D80A44611ED0
S113503000E0013313F8010C934201F8010FF8D199
S113504003F03DFC0223AE60AB62BDE8F04103F027
S11350503ABC0B46204622F0030E8E4453F804CB90
S1135060734540F804CBF9D122F00303D01A920718
S113507001EB030C04EB0307E2D0CA5C0128E25401
S1135080DED09CF8013002287B70D9D09CF8023025
S1135090BB70D5E7042A35D90878043AA861487862
S11350A00431A86111F8020CA86111F8010CA8617F
S11350B0A8688CE70B4620F003070F44ACEB010E05
S11350C01C684EF803400433BB42F9D120F00303BB
S11350D010F0030F01EB030EA0EB03040CEB03072A
S11350E028D011F80380012C0CF8038022D09EF8FC
S11350F00130022C7B7018BF9EF80230084418BFA0
S1135100BB7088E7013A032A12D8DFE802F00F15D2
S113511007020B4613F8012B1946AA610A4612F836
S1135120013BAB61114611F8013BAB610B78AB61FC
S1135130BDE8F08108446EE70A46F3E738B50B464C
S1135140154601464FF03A4470B101221048C4F8A4
S1135150F4201A46FFF72CFF25B14FF03A430422FE
S1135160C3F8F420002038BD73B1D4F8D8209A4293
S113517084BF0122C4F8F4204FF03A42C2F8D4307C
S11351800223C2F8F430E7E70123C4F8F430E3E77C
S1135190CC0000BA10B503F092FB4FF03A43012261
S11351A05A67C3F8B420C3F88C20154A1549C3F8CC
S11351B090200722C3F8B020134B04461A80002322
S11351C0124A13804FF4A022C1F81421A1F5805192
S11351D0C1F818210E4A13600E4B1B6C5B020AD5F2
S11351E04FF480020C4B18680C4BD8301A6450F8FA
S11351F0A41C01F069F92046BDE8104003F063BB2C
S113520098110020002000BA501800204E180020E9
S113521080170020000002B860150020002002B8AA
S113522007220D4B01211A8000220C4B1A804FF0EB
S11352303A43C3F8F410C3F8CC204FF40052C3F837
S1135240D000C3F8F020F022054B9A64A022A3F505
S113525080539A64FFF79EBF501800204E18002018
S1135260006000B82DE9F041044688B103F027FB43
S11352703D4E3E4A3388032C03F0780105463C4FEB
S113528003F07F0C11445DD13C6824B903F01BFB8F
S11352900320BDE8F08124F00104386820F0010007
S11352A0A04254D100223A6022888C426FEA4242E2
S11352B06FEA5242228040D12E4CDFF8D0C02788BA
S11352C0ACF180083A46083A92B201F10800604510
S11352D028BF4046082A04D9B0F800E0BEF5804F44
S11352E040D2228088780C884FF03A413B449B1A84
S11352F0DBB2C4F30C048C653380C1F89830C1F878
S1135300B0204FF480221C4B00F00700C3F8142196
S113531001221A4BC3F88421FFF7F6FD04280CD1AF
S11353204FF48002164B1B6C164B1868164BD83082
S11353301A6450F8A41C01F0C7F8284603F0C3FA15
S11353400020A6E7601E012898BF0C46A5E709487F
S113535062440088A21A48BF803208389042A3DC15
S1135360284693E70146AEE74E1800209811002026
S11353708017002050180020002000BA00E100E04F
S1135380000002B860150020002002B818120020A6
S11353901249134B0A881B8812481344083292B2EC
S11353A00A804FF03A41C1F8B0204FF480210E4AF0
S11353B0073BC2F81411012103F0780303449878E1
S11353C00A4A00F007000428C2F8841103D10849EE
S11353D0CA681203FCD4074A1360704750180020AF
S11353E04E18002098110020002000BA00E100E0CF
S11353F0000002B88017002010B5054C206828B1C1
S1135400C30701D4FFF72EFF0023236010BD00BFA4
S1135410801700204FF48033084AC2F81831A2F5EF
S11354208052C2F814314FF03A43D3F8AC30C3F38E
S11354300C03782B01D8FFF767BD7047002000BA32
S1135440054BA822D3F84C013121431C0CBF012089
S1135450C0F38070FEF7A8B90080E00F38B5134D93
S11354600446297819B92022114804F06DF861889E
S1135470104A23785180002113700F4A022BC2F87E
S1135480CC104FF0FF010D4A0D4B11704FF0070186
S11354900C4A4FF00000C2F8FC130CBF0422012296
S11354A0C3F8FC2301232B7038BD00BF95180020DE
S11354B0E03F00B0AE190020004001B8B61900204A
S11354C0001002B8002002B8034B1A6802609B88DF
S11354D083800020704700BFAE19002010B5044639
S11354E000F0A2FD064BD3F8F83724B983F4003357
S11354F0C3F3404010BDA31E58425841FAE700BF11
S1135500000002B84FF63F7208B50A4BD3F8FC37D7
S1135510934206D0084AC3F301131370E022074BE9
S11355201A7000F0DBFD41F66A03B0FBF3F0044BA4
S1135530186008BD000002B8B7190020B81900208F
S11355408817002020B1022804D1034B1878704733
S1135550024BFBE700207047B7190020B819002060
S11355602DE9F74F846C4C22022C38BF02246A497F
S1135570013C0B6AD1F8CC506849C3F38213DA407A
S11355800B680646A34290F804B1654BDFF8ACA162
S1135590DFF8AC91DFF8AC8102F0010214D1187885
S11355A0904211D19AF8000058450DD1F06C58B1D1
S11355B0A84209D1B57D99F80000854204D1B8F814
S11355C0040003B0BDE8F08F0C6098F800101A7066
S11355D00846FFF7B7FF002A00F0868004234FF047
S11355E07F4100254F4AC2F8B8304F4BC3F8B8107A
S11355F0B37D1B06C2F8B8304FF08052494BC3F854
S1135600B42000F06BFD40F27123B0FBF3F01921DC
S113561060431828B0FBF1F14FEA054470D8002C20
S113562078D0B4FA84F2C2F12002C2F10F03012B44
S113563038BF0123D440A14201D2013B64086A1C53
S113564003F01F0152008A40384F121B9208C7F81A
S1135650B0201A0242EA03121343019305EB052317
S113566005EB0325324B40F6A40218682B210038C1
S113567018BF0120FEF798F8FA222D4B02FB04F024
S11356801B6840F6FF72B0FBF3F00A235843294B22
S113569000F57A74C3F8C420019AA3F58053C3F8C3
S11356A0C420A3F58053C3F8CC50D3F8CC3000F514
S11356B08C50C7F8FC30F5641F4D14302C6001F099
S11356C091FA4FF47A72C7F8A400C7F8F8002B686F
S11356D0B4FBF2F0B3FBF2F3A8F80430B37D8AF81C
S11356E000B089F800306CE7002914BF102520258C
S11356F0B37D834294BFED182D1805F0FF057BE7B9
S1135700B1FA81F234B1B4FA84F3D21A002A8CDCEF
S11357100F2390E70F2392E7004001B87C19002083
S113572096180020001002B8002002B8003F00B014
S113573088170020006001B88C170020B5190020DC
S1135740B4190020AE19002010B5114B01461B7886
S1135750104C0C2B02D1FF20207010BD184603F012
S11357605EFE02461846FFF7EDFE884228BF084653
S1135770C0B2904238BF10462378C0B28342ECD006
S1135780054B20701868FFF7EBFE2078E5E700BFB3
S1135790AE190020B61900206015002010B504468B
S11357A0FDF79EFD78B1154B1B786BB964B1144BB2
S11357B01B784BB1134B1B78013B012B04D84FF4DE
S11357C00042114BDA6410BD104BDB6C1B04FAD49D
S11357D003F075F8044601F02FFF4FF400420C4B20
S11357E02046BDE81040DA6402220A4BC3F87C2448
S11357F00422054B1A6403F066B800BF9718002012
S11358009818002090170020002002B8000002B869
S1135810001002B800D003504FF48022014B9A6468
S1135820704700BF005000B870B5054600F0FCFB9F
S113583001213A20FBF724FE424C434B00201D700B
S1135840FFF7ACFF2378013B012B0CD80122217C0C
S1135850E37B8A4030214B4342F2100103F1A04321
S113586003F570335A500022384BC3F87C24ADB989
S11358704FF6FF71364AC2F88410F821A2F580521F
S1135880C2F88410C3F87C54324B4FF08042DA647F
S11358904FF48022304B00209A6470BD636883B358
S11358A000F01CFC626800EB5203B3FBF2F3013B13
S11358B01B0243F0F80326782549022E264A22D0FB
S11358C0032E4FF6FF7521482AD0012E33D143F021
S11358D00203C1F88450C2F884300723C0F87C3432
S11358E03021E37B01204B4341F21001227C03F180
S11358F0A04300FA02F203F570335A50FFF74EFF4B
S113590017E0F823D7E74FF6FF7043F00103C1F81F
S11359108400C2F8843006220C4BC3F87C24DFE7F1
S113592043F00503C1F88450C2F884300423C0F85E
S11359307C340A4BA9E7C1F88450C2F884300023B0
S1135940F5E700BF901700209818002000C003500E
S1135950006000B8002002B8005000B8001002B87F
S1135960034BDB6C002BBCBF024BC3F888007047B1
S1135970000002B8004000B84FF0006338B1064A96
S1135980D364064B4FF40032C3F884207047044AB2
S1135990D364044BF6E700BF001002B8005000B80F
S11359A0002002B8006000B82DE9F04700F096FB33
S11359B04FF47A764FF4FA73B0FBF6F67343074666
S11359C02948190E1B021818284A4FF0000341F108
S11359D0000102F0BFFC264BA0F5807205461A6355
S11359E020B943222B21FDF7DFFE01254FF47A7203
S11359F04FF0000A6A4353465008310202F0AAFCF1
S1135A001B4B1C4AB7F57A7F9A601B4B4FEA05681B
S1135A1019601A4B8946044618604FEA152505D2C9
S1135A2095222B215046FDF7BFFE01264FF47A73D1
S1135A30A8FB030103FB05117308C01841F1000121
S1135A400023324602F086FC0D4B023419600D4BE4
S1135A5049F10009A408186044EA8974044B013C24
S1135A609C63BDE8F08700BF20A1070040420F00FF
S1135A7000C001B802110100B0170020AC170020CB
S1135A80A8170020A41700201022044BC3F8842177
S1135A905A600122024BDA60704700BF00E100E067
S1135AA000C001B810B50446A242A2EB0000A3EB6B
S1135AB0010104D2034B01399B6B0133184401F0FB
S1135AC0030110BD00C001B838B501250A4B02011D
S1135AD09D504FF480730446084A8340536602F095
S1135AE0EEFE074AA540137823EA05031370BDE8C8
S1135AF0384002F0E8BE00BF00E101B800E001B8A0
S1135B00A11800202DE9F84F164605468A461F467F
S1135B1002F0D5FE022E00F09180804602F0D6FEFF
S1135B205A4B5B4AD3F8209092F88D405A6EE4B2F7
S1135B30520744BFD3F82090013404F0030402F068
S1135B40CBFE4846214600F0EFF88446DAF8000020
S1135B50012E04BF01306044ACEB000C08BFCAF84E
S1135B600000BCF1804F7DD300F0F0F88145A1EB3B
S1135B70040188BF454BDFF838C188BF01F1FF310C
S1135B8001F0030188BF9B6BA0EB090E0CF8051014
S1135B90A1B1F90742BF41F61F723E4B5A67BA07DB
S1135BA042BF3C4B3C4A5A677B0742BF0022374BFB
S1135BB09A673C0742BF0022344B9A6511244FF088
S1135BC0010A324B05F11002120103EB051BCBF85D
S1135BD00C0132499C501A6A0AFA05F4586E0B7883
S1135BE0A2EB0902E4B2234372450B7025D34FF4B0
S1135BF08073AB40034220D11CF80520002A40D119
S1135C000EB3274AF807536607D541F61F7140F2D1
S1135C100110204B596750675967B90706D51D4BCA
S1135C201D4A1F491F485A6748675A677A0742BF87
S1135C3001221D4B1A613B071AD4404602F043FE71
S1135C400120BDE8F88F194A2D0142F805A042F859
S1135C509C3C02F034FE11490B7823EA04030B70D8
S1135C6002F031FE404602F02EFE0020BDE8F88F1F
S1135C702120FFF775FE4FF48032044B4046DA6072
S1135C80DCE7074A40465366D8E700BF00C001B8C6
S1135C90003E00B000E001B800001F1FA118002062
S1135CA000D001B800000101000002B800E101B811
S1135CB099180020034B10300001185800F001001F
S1135CC0704700BF00C001B8044B01F0F071103000
S1135CD041F0030100011950704700BF00C001B832
