S026000062745F736F635F656E657267795F68617276657374696E675F73656E736F722E733337D8
S214000000C00A0020A90B000059D2010059D20100F5
S2140000108DE7010059D2010059D2010059D20100E2
S21400002059D2010059D2010059D2010059D201001B
S21400003059D2010059D2010027E8010059D2010027
S21400004059D2010059D2010059D2010059D20100FB
S21400005059D2010059D2010059D2010059D20100EB
S21400006059D2010059D2010059D2010059D20100DB
S214000070D570000059D2010059D20100C90A00000B
S21400008011D1010059D20100F108000059D2010037
S21400009059D201004114000059D2010059D2010082
S2140000A059D201009D0F00007D0F000059D20100BB
S2140000B059D201002D68010059D201008D7201004D
S2140000C0D3510200CF5102006D6A0100E9510200CF
S2140000D0D75102005D720100DB510200CD720100B3
S2140000E0DD490100A14B01003D73010059D201001A
S2140000F059D2010059D2010059D2010059D201004B
S21400010059D2010059D2010059D2010059D201003A
S21400011059D2010059D2010059D2010059D201002A
S21400012059D2010059D2010059D2010059D201001A
S21400013059D2010059D2010059D2010059D201000A
S21400014082B030BF074BD3F8F030DB0704D500236E
S2140001500193019B052B01DD02B07047019B013323
S214000160F6E700BF00ED00E0F0B5114A114C124E64
S21400017000F00105E3695F0713D40DB9334213D1CC
S21400018003EA00078F4207D10B4A1A40002A0CBF29
S21400019000206FF00100F0BD013AEBD16FF00200D5
S2140001A0F9E74FF0FF30F6E76FF00100F3E700BF26
S2140001B08096980000000350020001000B4B70B5BB
S2140001C0D96911F480310DD101244FF48072084EA4
S2140001D0084DF46020462C641A61FFF7C5FF3464AE
S2140001E0EC6070BD6FF00100FBE700BF000003503D
S2140001F000100350002003504FF4003238B50F4B68
S2140002000F4C9A6641F671330122E569E3630D4BA4
S2140002100021DA60022360612120236105F4803525
S214000220FFF7A2FF10B92120FFF79EFF0122064B21
S214000230DA600DB10023E36338BD00BF00900050C4
S21400024000000350001003500020035070B5134CFC
S2140002506061E3695B071ED40E4656F8043B8D18B2
S214000260A361AE420BD10423002121202361FFF7B6
S2140002707BFF58B9BDE870402120FFF775BF082105
S2140002800846FFF771FF10B10423236170BD56F8CE
S214000290043BA361E5E74FF0FF30F7E700000350AB
S2140002A02DE9F84315464FF40032184B89469A66F6
S2140002B041F6713203F51C33DF69DA630122064624
S2140002C003F58053DFF84C8007F48037DA6055B9C1
S2140002D0284601220E4BDA601FB10022A3F5005318
S2140002E0DA63BDE8F88306F5005404EA0804A41BA4
S2140002F0AC4228BF2C46494622463046FFF7A6FFAA
S2140003000028E6D12644A1442D1BE0E700900050CB
S2140003100020035000E0FFFF000000000000000087
S214000320013800D0FCE77047002370B5404C054606
S2140003308AB0E36318B1008823600CF039FC3D48AE
S21400034024F0E6F93C4E3D4B304633603C4B736040
S21400035022F0E1FA0021304610F0B2FB32A3D3E9D6
S2140003600023A062C4E9062322F0E0FAD4E90623BB
S21400037019431043C4E90601CDE900014FF0FF33ED
S2140003804FF0FF32A06A24F06AFA02224FF0FF31E3
S214000390A06A24F069FA01200CF08AF94FF4007381
S2140003A000222849A06A24F0C0FAB0F5007F39D1AF
S2140003B000239422079309933C23CDE90332059347
S2140003C0962306935023A06A03A9089310F08CFC8A
S2140003D035B3287C0CF09EFE0546F0B9A06A24F0E2
S2140003E096FB0CF045FE0CF045F920B14FF48070FA
S2140003F000210AF0FFF80CF04DF920B14FF4006030
S21400040000210AF0F7F822F05EFB012024F054F9F0
S2140004100D4A0E49A06A22F07CFA28460AB070BD42
S214000420FF20D7E70725F8E70DD501552000000087
S214000430300B0020690345EC241D0020E9C40000B1
S214000440341D0020241B0020BB280200FB280200CD
S2140004500348044B834202D0034B03B1184770474E
S214000460D42A0020D42A002000000000064B0749AA
S214000470C91A891048BF0131491003D0044B0BB18B
S21400048001481847704700BFD42A0020D42A00200D
S2140004900000000010B5064C237843B9FFF7D8FFDC
S2140004A0044B13B10448AFF300800123237010BD42
S2140004B08E25002000000000C0C8020008B5054BCD
S2140004C01BB105490548AFF30080BDE80840FFF7BB
S2140004D0CDBF00BF00000000A80D0020C0C802006D
S2140004E0A3F5803A704700BF174B002B08BF134B8D
S2140004F09D46FFF7F5FF00218B460F461348144A2A
S214000500121A24F012FF0E4B002B00D098470D4B0A
S214000510002B00D098470020002104000D000D4855
S214000520002802D00C48AFF3008017F0D5FA200060
S21400053029001CF08AFD17F015F900BF000008001E
S2140005400000000000000000C00A0020C00A0020D2
S214000550C02600200000000000000000034B5A6880
S21400056012B19A6A002AFAD1704700BF00400650BE
S21400057013B5044601A9092027F014FD019B5C432E
S2140005804FF47A73B4FBF3F402F0AAFB0020611E6A
S21400059002F09AFBFFF7E2FF0122034BDA60FFF757
S2140005A0DDFF02B010BD00BF00400650194B10B56D
S2140005B093E807004FF4007386B0ADF800300023D0
S2140005C003AC84E807000B213D2001938DF808302A
S2140005D003F088F901213D2002F0BCFD012002F065
S2140005E047FB40F20113ADF81430012312208DF8BA
S2140005F0163005F031FD0222074B20469A6102F0C4
S2140006000BFB684603F0C4FB01A803F031FC06B000
S21400061010BD00BF54820200005006500368A24A74
S21400062023F47F4323F00703934273B505D09F4A14
S214000630934200F0F68002B070BD02F051FBFFF767
S2140006408DFF02229A4B9B4CDA6021469A48FFF7B0
S21400065085FF1CF08FFD20B92388984A5BBAA2F864
S2140006600730974D28460FF055FE044620B3954DAB
S214000670954928681DF062FD944928681DF05EFDC6
S2140006801CF092FD1CF091FD914B924A009392490A
S21400069040F21F1328681DF051FD90492346904AEA
S2140006A028681DF04BFD204600F040FA8D4928686A
S2140006B01DF044FD00BEFDE70123202200931146F5
S2140006C0034628780FF03EFE044620B37D4D7E4953
S2140006D028681DF033FD7D4928681DF02FFD1CF0AD
S2140006E063FD1CF062FD7A4B7A4A00937A494FF418
S2140006F0947328681DF022FD78492346784A2868B6
S2140007001DF01CFD204600F011FA764928681DF001
S21400071015FD00BEFDE7694B01465A7D28780FF0AF
S21400072057FE044620B3674D674928681DF006FD4E
S214000730664928681DF002FD1CF036FD1CF035FDEC
S214000740634B644A009364494FF4987328681DF01D
S214000750F5FC62492346624A28681DF0EFFC2046F5
S21400076000F0E4F95F4928681DF0E8FC00BEFDE7EC
S2140007700246014628780FF007FE064620B3514C85
S214000780514920681DF0DAFC504920681DF0D6FC5F
S2140007901CF00AFD1CF009FD4D4B4E4A00934E49D5
S2140007A040F2331320681DF0C9FC4C4933464C4ACE
S2140007B020681DF0C3FC304600F0B8F949492068AF
S2140007C01DF0BCFC00BEFDE7287803210FF016FEE6
S2140007D0054600283FF42FAF3A4C3B4920681DF0F1
S2140007E0ADFC3A4920681DF0A9FC1CF0DDFC1CF0AD
S2140007F0DCFC374B374A0093374940F23913206800
S2140008001DF09CFC35492B46354A20681DF096FCA9
S214000810284600F08BF9334920681DF08FFC00BE97
S214000820FDE7314C2378012B31D80A20FFF7A0FED4
S214000830012003F0B9FA224B032118780FF0DEFDF1
S214000840054620B31F4C204920681DF077FC1F4941
S21400085020681DF073FC1CF0A7FC1CF0A6FC234BC4
S2140008601C4A00931C494FF4AB7320681DF066FCCD
S2140008701A492B461A4A20681DF060FC284600F0EC
S21400088055F9184920681DF059FC00BEFDE723788D
S214000890022B05D146F2A810FFF76AFE03F0B0FB64
S2140008A0237801332370C6E6A0000100A0000401EF
S2140008B000400650C00D002048820200982A002002
S2140008C0AE2A0020600E0020D0810200D2810200F5
S2140008D038820200D7810200E0810200EF81020028
S2140008E0EC810200048202008F250020158202009F
S2140008F00222014B5A6170470060065008B503F0AB
S21400090047FF01280ED1114B04205A6E4FF4802366
S2140009100F49520358BF0F4A4B6601F51041086253
S21400092058BF536605F06CFB00F02AF91DF0B0FBCB
S2140009301DF0B0FB1DF0A0FB05F046FE00F016F91A
S21400094002F062F8BDE8084006F0CCB9008000501E
S2140009500090005000A0005008B504481DF093FB1E
S214000960BDE80840024800F029BB00BFD083020063
S214000970AC280020064B1B681A7A022A04D812B14B
S2140009801B68044A13607047032AF9D0704700BFFB
S214000990C0280020C40D002030B51E4D95B00DAC0B
S2140009A00FCD0FC495E80700292384E807001A4AEC
S2140009B01A49CDE902231A4B0E22CDE904134FF44F
S2140009C0807300210DF12600069324F0AEFC4FF450
S2140009D0A020144B0DAACDE907030F238DF8243071
S2140009E010238DF82530104B07A90A9320230B936C
S2140009F001238DF831300D4B0D48009302AB05F006
S214000A0025FD044600214FF4E1301CF016FC20467C
S214000A1015B030BD688202000000065000050006D2
S214000A20000800072400065090250020C80D00206E
S214000A30340E0020831E012B10B50C4619D8012950
S214000A400DD8184B04221B6905210020C3F3401360
S214000A5003F01CFB24B1144B18680368F3B910BDEF
S214000A60114B18680368002BF9D0BDE8104005F05C
S214000A70ABBC8B1E012B0CD80128F0D8BDE810406B
S214000A800022084B05211B691046C3F3401303F0F0
S214000A90FDBA0029E4D00129DDD0E0E7BDE810402A
S214000AA01DF06ABD00C00350D428002008B50449D4
S214000AB0044806F0FFF8BDE80840FFF76DBF00BF2A
S214000AC0D8280020580E002001481DF0CFBD00BFDA
S214000AD0340E0020014B1A6A18681047340E0020A6
S214000AE0012208B5074B1A700022074B1A70042221
S214000AF0064B1A701F22064B1A7005F0E3FA054BD8
S214000B00186008BDB12A0020B0250020B02A0020B9
S214000B10AF2A0020600E0020024B034918681DF023
S214000B200DBB00BF600E00208482020070B50C4C26
S214000B300C49064620681DF001FB05F0C3FA054681
S214000B40206805F0B3FA3046FFF7E6FF284605F0C2
S214000B50ADFA20680449BDE870401DF0EFBA00BF4A
S214000B60600E0020868202008882020008B50348D4
S214000B701DF089FABDE808401CF090BAD083020048
S214000B8001481DF080BA00BFD08302000348044A23
S214000B900449121A92101CF060BB00BF400100000E
S214000BA020030000C026002008B500F02FF8FFF74D
S214000BB0EDFF124B12498B4212D30020114B124903
S214000BC08B4218D3FFF790FC186850F822405868FC
S214000BD040F82240013298688242F5D30C33EAE7A7
S214000BE00022F8E71C6844F8220001325C68A24242
S214000BF0F8D30833E4E70022F8E700BFC8C80200CD
S214000C00D4C80200D4C80200D4C802004FF4004181
S214000C10134B144A70B59A60D3F88820124D42F4EC
S214000C207002C3F88820114A05F5005491664FF00B
S214000C30FF3222664FF6DF7262660222C3F8D020C9
S214000C40BFF34F8FBFF36F8F4FF44036032005F08E
S214000C501FFA0320E66005F0FFF92E6170BD00BFA5
S214000C6000ED00E00000000000800044009000500E
S214000C70014B1860704700BFE4280020054B186041
S214000C80054B1B6F03F00703032B01D126F066BA52
S214000C90704700BFEC28002000800050BFF34F8F45
S214000CA00549064BCA6802F4E0621343CB60BFF303
S214000CB04F8F00BFFDE700BF00ED00E00400FA051F
S214000CC0002307B5294801931DF0DDF94FF4407362
S214000CD0012204216846ADF8003000F0C3F8012276
S214000CE0234B0520C3F8442401A927F060F9002807
S214000CF039D1204BD3F8F02042F00102C3F8F0209F
S214000D00D3F8FC2042F08072C3F8FC201A4AA3F500
S214000D105D431A60019B194A03F5D52303F2FC4391
S214000D20B3FBF2F3164A013B13610223C2F8F0301C
S214000D304FF48073C2F804334FF06043114AC3F88F
S214000D40B02F114AC3F8802ED3F8002E42F48072DA
S214000D50C3F8002EFF2283F82020D3F8002E22F4BA
S214000D608072C3F8002E03B05DF804FBD083020047
S214000D7000D0035000ED00E0FF030040F8590D00DE
S214000D80000004E055CEACC5090001004FF06043FA
S214000D90D3F8802E30B5D20715D501240B4D8440EC
S214000DA0D5F8FC2042F08072C5F8FC20D3F8002E5F
S214000DB02243C3F8002E53F82020002AF0D003F870
S214000DC02010002030BD1120FCE700BF00ED00E041
S214000DD02DE9F04104460C254FF00108124E0CB3E5
S214000DE014F001000BD0002024F0010405FB006283
S214000DF05768002FF3D09168C0B2B847EFE7224695
S214000E00013020284FEA520201D0D307F8D508FA5D
S214000E1000F20F2824EA0204E8D9103805FB006225
S214000E20B432E5E7BDE8F081640E002008B50C4852
S214000E301DF029F9192005F01DF928B1192005F033
S214000E4027F9192005F008F91A2005F013F928B13A
S214000E501A2005F01DF91A2005F0FEF8002008BD3E
S214000E60D08302002DE9F0410E461746054610B322
S214000E700F2922D80378DBB1013BDBB2022B1CD84A
S214000E80104AD35C6A78D340DB0716D50E4BD3F8EE
S214000E901043A4B927F072F880463A4628463146F1
S214000EA003F06CFD404627F064F82046BDE8F0816C
S214000EB040F2FF13E6E72224F7E72124F5E70224B1
S214000EC0F3E700BF8B82020000C0035010B5044653
S214000ED008B30378E3B1013BDBB2022B1DD8104AFE
S214000EE0D35C6278D340DB0717D527F047F801229A
S214000EF0617823788A4030214B4341F2100103F198
S214000F00A04303F570335A5027F033F8002010BD85
S214000F1040F2FF13E5E72220F9E72120F7E700BFBC
S214000F208B82020010B5044608B30378E3B1013B98
S214000F30DBB2022B1DD8104AD35C6278D340DB07A5
S214000F4017D527F01BF80122617823788A403021D4
S214000F504B4342F2100103F1A04303F570335A509D
S214000F6027F007F8002010BD40F2FF13E5E7222027
S214000F70F9E72120F7E700BF8B82020008B503F0EF
S214000F80F3FC054B00F0553020F05020C3F8200449
S214000F90BDE80840FFF71CBF00E0035008B503F0AB
S214000FA0E3FC054B00F0AA3020F0A020C3F8200494
S214000FB0BDE80840FFF70CBF00E0035070B50368BB
S214000FC02B4A0446934286B04ED02A4A934249D1D1
S214000FD0012529481DF057F8A3880122ADF80030F6
S214000FE0E3880A216846ADF80430FFF73BFF01228C
S214000FF00A2101A8FFF736FF0A266846FFF792FF88
S214001000642006F081F86846FFF760FF642006F06B
S2140010107BF8013EF1D103212B0103F1A04202F53A
S2140010207032C2F890146079217903F1A04341EA46
S2140010300041C2F89414E179A27903F5703342EACC
S2140010400142C3F8982440F20113ADF80830E36873
S21400105020680493A36802A90393237C8DF81430B8
S21400106003F092F806B070BD00250448B2E700BF52
S2140010700000015A00800650C8830200CC8302009C
S21400108038B5054603F0BCF9044C012801D1013CF3
S21400109000D138BD284603F099F8F6E7E19304003E
S2140010A02DE9F04F9A46564B85B01B7806460F46FC
S2140010B01546DDF83C909DF844B0DDF85080002BD6
S2140010C000F09780072A00F296800E9B002B00F017
S2140010D09280B9F1000F00F08E80129BB3F5006F7E
S2140010E000F38980012803D1109B002B00F0838039
S2140010F0444B03EB05131B7B002B7ED0424C102287
S2140011000021684624F011F904EB45141022A7BB11
S2140011103946204624F009F943F210036380BBF1F8
S214001120000F03D1E37843F00303E370364A0E9BC7
S21400113002EB451CCCE90193129B6901581E9DF8F1
S2140011404C30C0F30A0003F003039B0643EA001E7C
S21400115053582E48012E00EA03004EEA0003CDF84D
S21400116000A0535017D0B8F1000F2ED19CF80230D3
S21400117068F304138CF8023027E00021204624F0A0
S214001180D4F84FF444736380BBF1000FCED1E378FC
S21400119043F03003C9E713230CF1100ECCF80C30E3
S2140011A09CE80F008EE80F006FF00301DCF81C20AF
S2140011B0109B61F39F02012FCCF81C20CCF8143052
S2140011C003D1CCF81890CCF8043000270D4A29013A
S2140011D002EB051342F80180159A28465A606946C4
S2140011E022469F605E7303F0A3F9384605B0BDE85B
S2140011F0F08F0748FAE70748F8E70748F6E700BF22
S214001200B1250020CC100020CC0F00200F80FFF36B
S214001210028000F0018000F0078000F038B5124B25
S21400122005461B78DBB1E0B126F0A8FE0F4A002386
S2140012301146147B54B92B6001251A0101EB0313E8
S2140012401D738C5026F095FE204638BD0133082BC2
S21400125002F11002EDD126F08CFE0548F5E70548B0
S214001260F3E70548F1E700BFB1250020CC100020C9
S214001270048000F0028000F0018000F038B526F00F
S2140012807DFE002305460B4A147B6CB90133082B00
S21400129002F11002F8D103F0F7F8074B28461C704D
S2140012A026F067FE204603E0284626F062FE034846
S2140012B038BD00BFCC100020B1250020058000F00E
S2140012C00D4B10B51B78044693B1072812D826F0AC
S2140012D055FE0A4B03EB04131A7B2AB100241C7339
S2140012E026F047FE204610BD26F043FE0448FAE7E7
S2140012F00448F8E70448F6E7B1250020CC100020A3
S214001300068000F0028000F0018000F0154B13B557
S2140013101868002301908DF8043026F02FFE124B3B
S2140013201C7824B126F025FE104802B010BD01221C
S2140013301A7026F01EFE0E4B01A81C731C7783F84D
S2140013402C4083F83C4083F84C4083F85C4083F89C
S2140013506C4083F87C4008238DF8073003F0B8F81B
S2140013602046E2E78E820200B1250020038000F0CE
S214001370CC100020F8B50D4D2D7885B1072810DC6F
S2140013800B4D060105EB0014277B67B1AB5100251A
S214001390069BA560636003F0CBF82846F8BD0548B9
S2140013A0FCE70548FAE70548F8E700BFB125002046
S2140013B0CC100020028000F0018000F0078000F0D2
S2140013C00A4A08B512785AB107280BD8084A02EB21
S2140013D000131B7B43B1002103F06CF8002008BD0E
S2140013E00448FCE70448FAE70448F8E7B12500207B
S2140013F0CC100020028000F0018000F0078000F092
S2140014000A4A08B512785AB107280BD8084A02EBE0
S21400141000131B7B43B1012103F04CF8002008BDEC
S2140014200448FCE70448FAE70448F8E7B12500203A
S214001430CC100020028000F0018000F0078000F051
S214001440184B2DE9F0411F6D5B6D1F4000D5FEE780
S21400145001260025144CDFF85880374218D0236840
S214001460C8F85060A3B1A168284601316268A1603F
S2140014709847637B012B0BD150B90C4B03EB4513FC
S2140014801A7B60F341021A731A7F60F341021A77DF
S2140014900135082D4FEA460604F11004DDD1BDE8FB
S2140014A0F08100BF00000450CC100020CC0F0020BC
S2140014B0002004502DE9F04F144606460D469B4684
S2140014C0C36B87B001225B6902A960689847F36B1B
S2140014D001225B6903A92846984702A81CF0F7FA80
S2140014E0074648B10023A37563754FF0FF33A3602A
S2140014F0002007B0BDE8F08F03A81CF0F5FA012322
S214001500A375237E04EBC303DD611F846368AB42CF
S2140015100ED1206003A81CF009FB4FF0FF332075A6
S214001520A360237D043B022B26D80023A375DFE7A8
S21400153023681A1A53425341A37503A81CF0F6FAFF
S214001540237D834218BFA77503A81CF0D1FA07466F
S21400155002A81CF0CDFA874218BF002303A818BFC4
S214001560A3751CF0CDFA074602A81CF0C9FA8742FC
S2140015701CBF0023A375D4E703A81CF0B9FA80B1FA
S214001580F36B022228465B6904A9984704A81CF05E
S214001590BEFA0346207D032839D8DFE800F0383845
S2140015A0040903A8F3E7CC22237E04EBC3031A84C2
S2140015B001F0A2FA109B187003A8277E1CF08CFA84
S2140015C004EBC70787F82200237E03A804EBC303B7
S2140015D0B3F8209093F822701CF08AFA804603A88D
S2140015E01CF08EFA8246B8F1000F15D0F36B02227B
S2140015F028465B6904A9984704A81CF04DFA607554
S214001600637D6BB90023A3754FF0000838E0227E97
S21400161004EBC2021384CBE703A81CF028FAEEE71B
S21400162094F81680B8F1000FEED0B9F1000F09D18A
S214001630DFB10123627EE375002A44D19F4218D1B0
S214001640677614E0736C05EB0A02594285EA0200DD
S21400165008421CBF0021A175591E0A409B1A9945D5
S214001660D0D8A37D002BE3D1CEE7E37D43B94FF07E
S21400167000084B465246294630461BF066FFA060DF
S214001680A27D12B123694B4423611449237E097855
S21400169099421ED901332376BBF1000F1BD0D2B17D
S2140016A0E37DC3B1B8F1000F15D1032F13D0A168A5
S2140016B04B1C10D0109B2246009330460123FFF7A8
S2140016C0F9FEA07507E0012FDAD0032F08BFA37636
S2140016D0CDE70023A375A07D0BE700BFB482020010
S2140016E02DE9F04F0E46984600238BB004464FF087
S2140016F0FF31104617468DF8133001F0E7F9B6F5BE
S214001700801F3BD3B21C53D1E56A6B1C57D12046D1
S214001710616A1BF060FE0546B31C18BF0123DFF8A4
S21400172010910193636A626C0293236805A902FB19
S214001730053AE36B05225B695046984705A81CF0FE
S21400174061FA1CF084FA50461CF08CFA4FF0000B3D
S214001750824601464B1C05D0636C81EA0A025B4256
S214001760134232D0294620461BF035FE029BAB4280
S2140017704DD0BBF1000F4DD10546D3E7314605AA43
S21400178004F108001CF0F1F80146481C10D0384659
S21400179001F09CF90122394620460DF113031BF097
S2140017A026FF28B19DF8133088F80030002003E0AB
S2140017B0237C002BA8D12D200BB0BDE8F08F23682A
S2140017C0ED1A636CB5FBF3F5A6E7484601F07EF923
S2140017D00DF1130349462046019A1BF008FF034605
S2140017E090B1B21C03D0D9F80020B2420CD19DF8BB
S2140017F0132003930D4B88F8002049461A68384694
S21400180023F09EFD039B9B46D9F80810A2E7BBF188
S214001810000FD0D0B6F5801FC8D2314698F80030F9
S2140018207A6804F1080001F07FF8BFE7B082020092
S214001830C01700202DE9F3410446174698460E4689
S214001840194D816AE36A8B422AD04B1C18E0284661
S21400185001F03CF90122294620460DF107031BF052
S214001860C6FE30B14346294620469DF80720B847B5
S214001870B0B1A9684A1C05D0012E0AD0E36A994285
S214001880E5D10DE0696820461BF032FE012E0146C8
S214001890D8D16B6881EA0302636C5B421A42D1D0EE
S2140018A002B0BDE8F08100BF941700202DE9F0419A
S2140018B0036B9046826B07689A4288BF8363426CCC
S2140018C0436A90B002FB0377C36B0E46052201A95C
S2140018D05B6904463846984701A81CF093F901282E
S2140018E00146307057D0656CE26B2368606AD2F8A8
S2140018F014C005FB0030052206A9E04706A81CF028
S21400190081F901284FF0000523D0D4E90A320121DD
S2140019109342CDE90B458DF834800E958DF83C103A
S2140019202AD1194620461BF0E3FD236B626C143364
S2140019309B1AE06223630C9B53B99DF83C303BB185
S214001940626A616C2368E06B01FB02311CF012F9DD
S2140019500C9DE36B05225B6901A93846984701A8F0
S2140019601CF050F930702846236BA26B9A4288BF51
S214001970A36310B0BDE8F081237C33B91C490BAAE1
S21400198004F1080001F01EF8D5E72046194A0BAB13
S214001990FFF750FFCFE7237C23BB2246164904F10E
S2140019A0080001F00FF8616A20461BF035FD616AF9
S2140019B0421C20461BF0FEFC054620B9236B626CD9
S2140019C01344143B23632046A16A1BF091FD236851
S2140019D0A062C01A636CB0FBF3F0606220461BF096
S2140019E0CAFDB6E700232046044AFFF723FFDAE7DE
S2140019F0C12100003D21000077D6010013D601006A
S214001A0073B50D46D11E4A421C461B7E4A419A4279
S214001A1026D129682368994222D3636899421FD841
S214001A20114E0DF107033246FFF75AFEC0B9726831
S214001A306B689A4214D19DF80730DA1E5342534120
S214001A40227E93420CD1636901336361D4E9032398
S214001A50934205D22968A26842F823100133236115
S214001A60012002B070BD00BFEC1700202DE9F04F3A
S214001A709A468BB09DF85030DFF850B10293DBF8F1
S214001A801030804653450D461646C0F09980D14624
S214001A90DBF804300193B9F1000F00F08D80D8F820
S214001AA03C3001225B6907A90198984707A81CF0FB
S214001AB01BF8DBF80030984240F0858007A81CF041
S214001AC01FF80428074614D107A81CF020F8019B2D
S214001AD0029A04463B44002A3FD1864212D9144655
S214001AE0361A404601991BF003FDA9EB0409019044
S214001AF0D1E7D8F83C3002225B69019808A99847DC
S214001B0008A8E2E7841B544528BF5446032C03EB81
S214001B100607AAEB040A4FEA94021CD9D8F83C3010
S214001B20294638465B69984724F0030304F0030609
S214001B301F441D44002ED4D0D8F83C3001225B69E7
S214001B4008A9384698473246284608A9354423F05F
S214001B50F7FB0026C5E72646ECE7074600F003023B
S214001B60039203442A1804920593049BDD1B059BED
S214001B70D81B039B9F420FD1002FB2D0D8F83C3021
S214001B80012208A95B6998473A46284608A923F027
S214001B90A2FB78B93D44A4E7D8F83C30012208A956
S214001BA05B6998470422284608A923F094FB08B9E5
S214001BB0043FDAE74FF0360948460BB0BDE8F08F31
S214001BC04FF06309F8E74FF06F09F5E718180020A3
S214001BD02DE9F0410F4616469846044688B060B395
S214001BE090F83450FDB101211BF0BAFB00210E9B8A
S214001BF0CDE90511CDE902379DF83C30CDF80480DB
S214001C008DF81C30237C04968BB90D4901AA04F18B
S214001C10080000F0D7FEDDE90553E06B002E08BF94
S214001C201D461BF036FD284608B0BDE8F08120466C
S214001C30044A01ABFFF7FEFDEDE70546F3E700BFFC
S214001C4041D60100011A00002DE9F04F99B00F4669
S214001C5009920A69416C0E931439D31DB3FBF1F354
S214001C60013302EBC302036B04469342C0F00D82BD
S214001C700023DFF820940D93E36A4846194607933D
S214001C8000F024FFD7E9033604930E9B022B4ED1B7
S214001C90CC2E40F08A81099B002B42D03946204644
S214001CA01BF055FD656C079A6B1E13401490ED1AD9
S214001CB0E36B01225B6916A97868984716A81BF0A3
S214001CC017FF00280CBF04230823782E06933DD95F
S214001CD0012300254FF0080A05933B6805990E98E6
S214001CE0C9F80030C9F810601BF024FF4FEA9A03C9
S214001CF010930023DDF81CB089F814000B930F93A3
S214001D0008930C93616C4A1E0BEA02028B1A002E93
S214001D1038D05544AB4240D8236B5B1A1344236338
S214001D20ABE0049B1B68149308230693D0E7656C0E
S214001D30079A6B1E1340782EA5EB030516D8FB7D7D
S214001D407BB9099B002BB3D104230693331DAB420A
S214001D5010D9A6B1082DBBD804250023AA460593A2
S214001D60BBE7099B002BA3D10823EEE7099B002BBA
S214001D709ED1D9E7002505954FF0040AADE7042566
S214001D800596F9E75345C7D3B0460BEB0A03039312
S214001D90089B002B18BF032313E0A3EB0A039E4205
S214001DA0B0460BEB0A0228BF98469E420392EFD934
S214001DB00123D9F8102089F81730964271D1C9F856
S214001DC004B0089399F81730002B6CD099F81820B7
S214001DD00899D31C09EBC3030132C3F804B0A3F877
S214001DE00880997289F81820B8F1000F14D00E9B5D
S214001DF0022B5BD10B9B7BB90F9B4344032B0BD968
S214001E00E36B01229B69039814A9984705460028AE
S214001E1040F03D8101230B93089B16A80193059B78
S214001E20009399F814204346396800F005FEE36BEA
S214001E3058469B69109A16A99847051E0D9B18BF11
S214001E405B4652460D935946434620461BF07DFBA3
S214001E50236B08F10302A3EB0A0322F003029B1A8A
S214001E60C9F808002363002D40F011810F9BDDF8B0
S214001E700CB04344A6EB08060F93594620461BF0C9
S214001E8037FB00258346002E7FF43CAF814A396835
S214001E90936804F10800E36252680E9B00F044FD6C
S214001EA0DEE002238DE7C9F804B09DE7099B002B0E
S214001EB030D1049BB8F1030F43440A9327D9DDE9D8
S214001EC00301E36B4FEA98029B6998470546002892
S214001ED065D118F003025FD0049B28F003052B445D
S214001EE00493039B1D444FF0FF33049915A81593E4
S214001EF023F026FAE36B28469B69012215A998472A
S214001F0005460A9B0493002D86D0039B99E742461C
S214001F10039DE8E7039B0A9307F120031193FB7DDB
S214001F2078689BB100233D7E0C9AD9B28D4211D9B8
S214001F30119903F1010C31F83310914226D9069914
S214001F4007EBC303D8690A44104403E00C9B069AC7
S214001F5013441844E36B01225B6915A99847159B47
S214001F60012213930C9B0A9804330C93E36B13A97A
S214001F709B699847039B0A9A43449B1A042B054681
S214001F8007D978B9134604330A93C8E76346521A4A
S214001F90CBE70A9B0393B6E70A9B04933CE70A9BAE
S214001FA00493B2E70A9B0393AFE7702604F1080395
S214001FB003932368079A606CA2EB030ABAFBF0FA55
S214001FC000FB0A301BF04EFEE16A804620461BF0FE
S214001FD08FFAA26A82424AD0626CD9F80830511E43
S214001FE00B40216B2568891A0B4423630D9BE06226
S214001FF05D1BB5FBF2F5AA4536D1079BB3EB080A85
S21400200012D0E36B4FEA9A0241469B699847834693
S214002010E36A079A5344E362236B03989B1A43448C
S21400202023631BF073FCDA462368616CE06B01FBEC
S21400203005311BF08CFD20461BF09DF920461BF059
S2140020409AFA2063BAF1000F11D03A69616CD31D79
S2140020501439B3FBF1F3013302EBC3029042A8D26A
S214002060304619B0BDE8F08F4FF0000ADCE73A6959
S214002070616CD31D1439B3FBF1F3013302EBC302D9
S214002080236B9342BFF4F8ADEAE71C26E8E72E463A
S2140020908CE700BFC01700202DE9F3471E464369B2
S2140020A00446B342884617469DF828903DD300253F
S2140020B08DF8075020461BF02AF9D4F830A0824548
S2140020C00AD2236AB5EB430F06D2002220460DF152
S2140020D00701FFF7EBFB30B39DF80730012B05D166
S2140020E0002220460DF10701FFF7E0FBB9F1030FD0
S2140020F006D0314620461BF0F5F8256B854218D3EE
S2140021000D4D4FF0FF31284600F0E0FC4B46002214
S21400211029462046C5E90376C5F8008002B0BDE82A
S214002120F047FFF791BD0135C4E7622002B0BDE875
S214002130F0871C20FAE700BFEC170020032A2DE9E1
S214002140F34106460D4617461C4606D1237A012B58
S21400215023D0012002B0BDE8F081DFF86080096876
S21400216042460DF10703FFF7BBFA60600028EDD189
S2140021709DF80720237A032AE8D0D8F804106A6866
S2140021809142E3D1012B2969D4F80CC007D17269BA
S2140021900CEB0103934202D92074207CDAE7083165
S2140021A06144E1603B46012229463046FFF74CFD7C
S2140021B060600028CAD00020CCE700BFEC170020E3
S2140021C02DE9F341089C032A1746266806D1237A90
S2140021D0012B24D0012002B0BDE8F081DFF890800A
S2140021E0304642460DF10703FFF77AFA6060002892
S2140021F0EDD12568D8F80400A96AD5F844C048404F
S214002200CCF100031840227AE1D1012A09D1E26814
S214002210D8F8103013447269934202D92074207C97
S214002220D9E72868EB6A1B1A081AB3FBFCF3B0FB65
S214002230FCF083420BD1706CF36A421E1340326B83
S214002240121A1344284633631BF052F9E862D8F892
S2140022501020E36808321344E36001223B46044939
S2140022602068FFF7F1FC60600028B0D00020B2E7DD
S214002270EC1700202DE9F04F4FF0FF334FF6FF72BA
S2140022800025044600F10806C0E909238BB0C362A6
S2140022900562056330460F461BF038FB20461BF0F0
S2140022A06AF820BB204639461BF0E5F820461BF0AE
S2140022B062F820BB5E200BB0BDE8F08FE26B2368AF
S2140022C0606CD2F814C000FB0530052205A9E04773
S2140022D005A81BF097FC012828D1294620461BF0AC
S2140022E09BF8421C294620461BF064F80135E3693A
S2140022F09D42E3D320461BF03EF80028D2D00025AE
S2140023004FF0FF394FF6FF73CA46A846C4E9085394
S214002310E369984514D3A5EB0905012D36D84FF689
S214002320FF72636A934246D16720C4E71BF094FCB1
S2140023300028DBD0294620461BF06EF80246D1E77F
S2140023402368E26B606C576900FB0830052205A91C
S214002350B84705A81BF056FC834605A81BF029FCC9
S214002360074658461BF073FC68B1574538BFC4F89B
S2140023702480B94528BFB946BD4238BF3D46BA4657
S214002380236A0133236208F10108C1E74FF6FF73A1
S21400239000256362E3699D42C1D2676C2068E36BE7
S2140023A0052207FB05005B6905A9984705A81BF0F1
S2140023B000FC0135EEE7E26B676C2068694607FBB8
S2140023C0030055690522A84768461BF0F2FB626ABF
S2140023D02368606C504D00FB02301BF043FC4FF04E
S2140023E0FF33A062E3622A466FF00101204605AB88
S2140023F0FFF776F900284FD1AD6829462046E562FA
S2140024001AF095FF206320B92046E16A1BF070F8A9
S214002410E062294620461BF06BF80546A36A9D42FB
S2140024203CD16569626CE91C143AB1FBF2F14FF0DD
S214002430000805EBC1050335B5FBF2F5C1460235CC
S214002440E36999453CD3A8455AD22046616A1AF0FA
S214002450C2FF0027064604F1400AB84512D8626C4F
S2140024602368694602FB0639E36B05225B6948462A
S214002470984768461BF09DFB534602464946E06B6C
S2140024801BF0F2FB314620461AF0A5FF0137AF429B
S2140024900646E2D364200EE7A56AAEE72946204644
S2140024A01AF045FF236B294603440746236320465C
S2140024B01BF01EF80546002FB0D1C4E90B07ADE7A8
S2140024C0636C2768052203FB0977E36B05A95B6944
S2140024D03846984705A81BF095FB1BF0B8FB60B183
S2140024E038461BF0BFFB014620461AF020FF636CFF
S2140024F0143B984208BF08F1010809F101099FE75B
S21400250030461BF003FA002320461946034AFFF71D
S21400251091F90020CFE600BFEC170020DDD50100C2
S2140025200023624A2DE9F04117680E460446136000
S21400253018B921252846BDE8F08190F834500DB32F
S21400254009680268914240F0A98071684268914229
S21400255040F0A480B1688268914240F09F80F168A4
S214002560C268914240F09A8031694269914240F0D7
S2140025709580B169C26B914240F0908072691D46A9
S2140025808261D7E750222946D0F8388022F0CDFE67
S214002590D6E90212336804F1080023607368C4F8B1
S2140025A038806360336963617369A3611BF0C0F9A7
S2140025B0B36904F14000E3639B68984794F84320AE
S2140025C020B1E561002AB4D05B25B3E7656C002D29
S2140025D0F7D06668B6FBF5F3E361002AA9D0B542EA
S2140025E0F2D82268B2FBF5F105FB1122002A57D17A
S2140025F005FB1363002B53D120461AF088FEA3690F
S214002600043303449E424DD340F634726369CC3B98
S214002610934249D8B5F5007FD6D3032120461AF059
S2140026209FFED4E90001E36B1B6898470546E36B01
S2140026300220DB6898471DB1002384F834301DE083
S21400264039462046FFF716FE6428054604D139466B
S2140026502046FFF70FFE0546636C143B002DEBD1BA
S214002660226A204602FB03F61AF051FEA3690433E1
S21400267003449E4206D284F834505A25E06B1BF081
S21400268008F857E70123D4E90001094A84F83430F2
S2140026901368013313601BF0E5F9EFE75D2549E7A2
S2140026A0592547E75A2545E75F2543E7501100209F
S2140026B04C1100202DE9FF410F4690461E46054668
S2140026C098B390F8343093B3B1F5801F31D21A4CDA
S2140026D002211AF045FE2246394628460DF10F0320
S2140026E0FEF7FEFF024678B10123424600933946C4
S2140026F033462846FFF7D0FC0446E86B1AF0C9FFBD
S214002700204604B0BDE8F0819DF80F30012BEBD1D8
S2140027102169B142E8D10093414633462846FFF787
S214002720A5F904460028DFD1E7E72124E8E71124CD
S214002730E6E72924E4E700BF181800202DE9FF414A
S2140027400C4616461F46054680B390F834307BB3D9
S214002750B1F5801F2ED2DFF8608001211AF000FE4E
S2140027602146424628460DF10F03FEF7B9FF044600
S21400277070B99DF80F30012B11D1D8F81030BB423C
S21400278012D10246009031462846FFF76FF90446FC
S214002790E86B1AF07EFF204604B0BDE8F081022BFD
S2140027A014BF2D246024F3E76324F1E72124F2E725
S2140027B01124F0E72924EEE7181800202DE9F0434D
S2140027C085B00C4617461E460546DDF8308098B3A1
S2140027D090F8343093B3B1F5801F31D2DFF86490AF
S2140027E001211AF0BDFD21464A4628460DF10F0389
S2140027F0FEF776FF044688B99DF80F30012B14D1FA
S214002800D9F8102006EB08039A4213D300904346EB
S214002810324639462846FFF729F90446E86B1AF08F
S21400282038FF204605B0BDE8F083022B14BF2D24E8
S2140028306024F3E76324F1E72124F2E71124F0E7AC
S2140028402924EEE7181800202DE9F3411F4600233F
S2140028500C46164605463B6050B390F834304BB3F2
S214002860B1F5801F28D2DFF8548001211AF078FDD8
S2140028702146424628460DF10703FEF731FF04467F
S214002880A0B99DF80730032B10D0022B0AD10123E4
S214002890336004233B60E86B1AF0FBFE204602B070
S2140028A0BDE8F081D8F810303060F3E72D24F2E769
S2140028B02124F3E71124F1E72924EFE71818002074
S2140028C030B50C46054685B028B390F8343023B3AF
S2140028D0B1F5801F23D202211AF042FD0DF10F033D
S2140028E0214628460F4AFEF7FBFE034688B99DF8A8
S2140028F00F20032A0DD003222146009202462846C6
S214002900FFF7CAFB0446E86B1AF0C3FE204605B084
S21400291030BD2D24F7E72124F8E71124F6E7292413
S214002920F4E700BF181800202DE9F043466886B388
S214002930056898464FF0000CA946AE4655F83C4050
S2140029400CF1010CC4F31307013401D0B94217D0BF
S21400295066450EF1080EF1D12F46002403E0A6428C
S21400296007F1080712D055F8343001340133F6D198
S214002970C1F3130141EA0851C7E90012BDE8F0832C
S21400298041EA0851CEE90012BDE8F083B8F1030F22
S21400299003D101230372BDE8F083002303E09E42C7
S2140029A009F10809F5D055F833400133C4F307544C
S2140029B0032CF4D1C1F3130343EA0853C9E90032E8
S2140029C0BDE8F0832DE9F0410646406882B0C0B10C
S2140029D00F4690460024336853F8345003EBC40384
S2140029E0C5F30752C5F31301013504F1010406D0FF
S2140029F05B683046CDF80080B84710B170688442F6
S214002A00E9D302B0BDE8F081024B1968024B1868A2
S214002A10FFF786BDF02800201029002008B525F015
S214002A20A4FA014B186008BD44180020014B186832
S214002A3025F096BA4418002073B504462248012AA9
S214002A4000EAC1119DF8185023F07C4007D9961E65
S214002A50012E28D9073303F07F03194308E09DF8B9
S214002A601C300A43DB0603F0C053134343F06041B7
S214002A700023C4E900108DF80730B5B120222146A6
S214002A800DF107001BF00AF91A220DF10700211DAF
S214002A901BF004F9082063689DF8072043EA826368
S214002AA0636002B070BD1143E2E71B220DF1070020
S214002AB021461BF0F3F823689DF80720042043EA1C
S214002AC0C2632360EDE700BF80FFFF0738B5094B00
S214002AD00D461A680021044622F027FC00234FF01A
S214002AE0FF322383C4E900252361A260E382A37634
S214002AF038BD00BFB08202000138C0B205289ABFB8
S214002B00014B185C01207047B58202002DE9F041A8
S214002B100746154600240E46596888B0490A01291A
S214002B2022464FEA510104F10104F8D8DC7899787E
S214002B3024031B88C90201F4006104F480540C438A
S214002B40C3F30A035203234492B24FF000089C18C2
S214002B50274B6FEA0444039325F07843ED4302A91C
S214002B600DF107001B2202938DF807801BF096F8E4
S214002B709DF80720029B02A943EAC2630DF10700F5
S214002B801B2225F07845049302958DF807801BF0EC
S214002B9085F89DF80720029B6FEA144443EAC26357
S214002BA005934FF0FF330794069307A9BB690122EC
S214002BB006F110009847BB6905A90446012206F1F4
S214002BC008009847BB69404518BF044604A901227F
S214002BD0301D98470122404518BF0446BB69304661
S214002BE003A99847404508BF204608B0BDE8F081D5
S214002BF001009AB2034B5A6812B19A6A002AFAD1B7
S214002C00704700BF00400650024A936A0342FCD158
S214002C10704700BF00400650436870B5B3FA83F3B0
S214002C20104DC3F11F046B6801460BB1FFF7E2FFBE
S214002C3001260D4B20205E60FFF7E6FF0A7A4B78F0
S214002C4043EA420343EA04134A7AAB608B7A43EAC8
S214002C5042036B62054B5E600B7813B1FFF7CAFF49
S214002C60EE6070BD004006500060065000500650F2
S214002C70124910B504462020FFF7C6FF4B6843B93B
S214002C8034B14B680BB1FFF7B5FF01220C4B5A600D
S214002C9010BD4B680BB1FFF7ADFF002CF5D1FFF769
S214002CA0A9FF0223CB60FFF7A5FFBDE81040012275
S214002CB0044B20205A60FFF7A7BF00BF0040065015
S214002CC0005006500060065008B51020FFF79CFF25
S214002CD0024B1963BDE80840FFF796BF0040065058
S214002CE008B5FFF787FF02230449CB6000230B6279
S214002CF0FFF780FF0123CB6008BD00BF00400650F1
S214002D00044BD3F88420D206FBD4D3F88400C0F357
S214002D10811070470040005038B5184B0546D3F870
S214002D2024010C4600F00700062823D8DFE800F050
S214002D30040A121A1E0E1600012305B1286004B1FB
S214002D40236038BD24F0E4F90523F6E724F0E0F923
S214002D500623F2E724F01CFA0323EEE724F018FA21
S214002D600423EAE724F010FA0223E6E724F016FA32
S214002D700723E2E700231846DFE700BF0080005085
S214002D8038B5104B0546D3F800310C4603F0030364
S214002D90022B0BD0032B0DD0012B0FD124F0F8F90A
S214002DA0032305B1286004B1236038BD24F0FAF986
S214002DB00823F6E724F0F2F90723F2E701230020C0
S214002DC0EFE700BF0080005038B5104B0546D3F83B
S214002DD020310C4603F00303022B0BD0032B0DD03F
S214002DE0012B0FD124F094F9052305B1286004B116
S214002DF0236038BD24F0CCF90323F6E724F0C4F9A9
S214002E000223F2E701230020EFE700BF0080005016
S214002E1038B5104B0546D3F840310C4603F0030393
S214002E20022B0BD0032B0DD0012B0FD125F092F8DF
S214002E30092305B1286004B1236038BD24F0B2F937
S214002E400823F6E725F089F80B23F2E70123002094
S214002E50EFE700BF0080005038B5104B0546D3F8AA
S214002E6060310C4603F00303022B0BD0032B0DD06E
S214002E70012B0FD125F06EF8092305B1286004B1A7
S214002E80236038BD24F08EF90823F6E725F065F8B0
S214002E900B23F2E701230020EFE700BF008000507D
S214002EA02E4B98424AD022D82D4B984240D014D868
S214002EB02C4B984239D00AD82B4B984232D02B4B09
S214002EC098422FD02A4B98422CD000207047294B8E
S214002ED09842FAD1284B186F7047284B98422AD050
S214002EE0274B9842F1D1244BD3F880007047254BEE
S214002EF098422BD009D8244B984223D0234B984293
S214002F00E3D11D4BD3F88C007047214B984221D05B
S214002F1003F5740303F510539842D6D1164BD3F835
S214002F2098007047144B986D7047134B586E704757
S214002F30114B586F7047104B986F70470E4BD3F875
S214002F40840070470C4BD3F8880070470A4BD3F8C0
S214002F5090007047084BD3F8940070470048E8018B
S214002F600024F400C0CF6A0080841E0000093D00E3
S214002F7040420F00405DC6000080E00FC0EA21011D
S214002F8080BA8C01007E560380D54302006CDC02BA
S214002F900090D00373B50D4600210E4B0191D3F877
S214002FA08041064604F00304012C09D0022C0CD004
S214002FB00C460EB1019B336005B12C6002B070BDAB
S214002FC001A8FFF701FF0F24F3E724F0DDF80190D6
S214002FD0EFE700BF0080005038B5104B0546D3F829
S214002FE040320C4603F00303022B0BD0032B0DD00C
S214002FF0012B0FD124F0AEFF092305B1286004B1E0
S214003000236038BD24F0CEF80823F6E724F0A5FFA9
S2140030100B23F2E700231846EFE700BF00800050BE
S21400302038B5144B0546D3F800020C4600F00700EE
S21400303004281BD8DFE800F003090D111500012352
S21400304005B1286004B1236038BD24F083FF09234E
S214003050F6E724F0A7F80823F2E724F07EFF0B2318
S214003060EEE724F07BF80E23800AE9E700231846F3
S214003070E6E700BF0080005010B40D4C0B46D4F8B5
S214003080204204F00304012C0AD0022C0CD008B114
S214003090002101600BB100221A605DF8044B7047F6
S2140030A05DF8044BFFF790BE5DF8044BFFF7B0BE2B
S2140030B000800050B0F5207F1FD009D8B0F5007F03
S2140030C015D003D868B1B0F5C07F0AD000200CE058
S2140030D0B0F5607FFAD10B4BD3F88000C0F3011037
S2140030E003E0084B186FC0F3033001307047054B00
S2140030F0D3F89000C0F30460F7E7024B186FC0F3F4
S2140031008020F2E7008000504FF400320E4B01465C
S21400311010B500209A66FFF7CDFF484341F671329E
S2140031200A490B4B884294BF00200120DC69DA6311
S2140031309A6822F4401242EA00529A60E20344BFC0
S2140031400022DA6310BD00BF00900050005A6202F1
S21400315000000350420910B50FD0012A0FD00A4BC9
S2140031600A4C022A18BF234600F01F0049B103F597
S2140031708053012282401A6010BD1346F4E7044BC8
S214003180F2E703F50053F4E76880005060820050D1
S214003190648000501FB50021B0F5807F0446019181
S2140031A000F0068100F29D80612800F295801F28BD
S2140031B005D8002840F0928023F0D0FFDCE0A0F194
S2140031C02004412C00F28A8001A353F824F000BFAB
S2140031D0B93100007D330000B93100007D330000B6
S2140031E09D3300009D3300009D3300009D3300009A
S2140031F07D3300007D33000057330000113300009C
S214003200D3330000DD330000113300007D330000AF
S2140032107D3300007D330000DD320000DD3200002B
S214003220DD320000DD320000DD320000DD3200005D
S214003230A7330000333300007D3300007D330000E9
S2140032407D330000F1330000E73300007D330000DB
S214003250DD320000DD320000DD320000DD3200002D
S214003260DD320000DD320000DD320000DD3200001D
S214003270DD320000DD320000DD320000DD3200000D
S214003280DD320000B9310000DD320000B931000047
S214003290B9310000B93100009D330000DD32000076
S2140032A0DD320000DD320000DD320000DD320000DD
S2140032B0DD320000DD320000DD320000DD320000CD
S2140032C0DD320000DD320000DD320000DD320000BD
S2140032D0B9310000B931000080284BD0019804B005
S2140032E010BDB0F5A06F5ED028D8B0F5607F50D086
S2140032F019D8B0F5007F4CD004D8B0F5C07F3FF4A5
S2140033005BAFEBE7B0F5207F38D0B0F5407FE5D176
S21400331023F024FF02464FF42070FFF7CBFEB2FBEB
S214003320F0F2520833E0B0F5806F37D0B0F5906F0A
S214003330D4D1002101A8FFF7EFFCCFE7B0F5E06F8E
S21400334051D00DD8B0F5C06F43D0B0F5D06F45D092
S214003350B0F5B06FC2D1002101A8FFF71BFEBDE794
S214003360B0F5F06F44D0B0F5086FB7D101A8FFF7FD
S21400337007FDB3E723F0D2FE0190AFE723F0EEFEA1
S21400338002464FF42070FFF795FEB2FBF0F2019272
S214003390A4E723F0C3FE02462046F4E7002101A876
S2140033A0FFF712FD9AE7002101A8FFF765FE95E7F3
S2140033B04FF0E02302911B695B0705D523F0CEFE94
S2140033C00290029B019389E703A902A8FFF720FD5C
S2140033D0F7E7002101A8FFF71BFD7FE7002101A802
S2140033E0FFF71EFE7AE7002101A8FFF7F5FD75E757
S2140033F0002101A8FFF730FD70E700BF08B5802068
S214003400FFF7C8FE034B98429EBF4FF48032024B34
S2140034101A6708BD005A620200A000501FB5034696
S2140034200020B3F5807F01906FD027D8382B00F0AE
S21400343082800BD8243B092B0FD8092B0DD8DFE848
S21400344003F05F5F5F5F0C0C5A0C3675522B57D03B
S21400345007D83D2B3AD03E2B72D0019805B05DF8C8
S21400346004FB802BF9D1394B1B6F03F00703013B9C
S214003470032BF2D8DFE803F03D36393BB3F5D06FC7
S21400348054D019D8B3F5A06F55D00AD8B3F5806FCD
S21400349036D0B3F5906FE0D1002001A9FFF73CFCD1
S2140034A0DBE7B3F5B06F26D0B3F5C06FD5D10020FB
S2140034B001A9FFF7ADFCD0E7B3F5006FECD00AD852
S2140034C0B3F5E06F3CD0B3F5F06FC6D1002001A98C
S2140034D0FFF7C2FCC1E7B3F5086FBED101A9FFF73D
S2140034E04FFCBAE705230193B7E70323FBE707235F
S2140034F0F9E70223F7E7002001A9FFF74BFDACE749
S214003500002001A9FFF760FCA7E74FF0E023029038
S2140035101B695B0705D523F021FE0C230393039B51
S214003520E1E703A902A8FFF773FCF8E7002001A96A
S214003530FFF776FD91E7002001A9FFF79DFD8CE7D8
S214003540002001A9FFF748FD87E700BF0080005074
S2140035504FF48032074B0849586E03F580535A667D
S2140035600B6A23F001030B62C3035CBF034B5A666E
S214003570704700BF0080005000C0075000A00050F9
S21400358008B5FFF74BFF082811D00938012802D9E3
S2140035904FF6FF7008BD4FF40012064B5A6603F54F
S2140035A0D8335B6ADB07F3D54FF4FA70F2E7024BC9
S2140035B01888EFE700900050862A002008B5FFF72D
S2140035C02DFF03280ABF024B4FF6FF70188808BD70
S2140035D0842A0020F8B504468020FFF71FFF032842
S2140035E000F087804FF40022424B02215A6645F6CF
S2140035F00E03414AC2F88030404B9962012103F520
S21400360080539962936DD903FCD4D4E900131B054B
S21400361043EA0163E17B94F820500B43217BE77E6D
S21400362043EA0143617B6D0143EA0133A17B43EA30
S214003630811313619169D4E904031B0643EA80638E
S21400364001F000410B43A17E94F823000B43217E3A
S21400365043EA0143617E43EA01239361136AE66904
S21400366023F00D0394F8221043EA8703002E2DD191
S2140036701362966A94F8213045EA031326F0330560
S2140036802B4343F0010393621D4D1B4B9A6D35EAA5
S2140036900202FBD10222194DAA621A659A6D5200E7
S2140036A0FCD41A69A56822F4700242EA05521A612F
S2140036B04FF00042114B9A6119B9022203F580536C
S2140036C09A6278B901220F4B9A620BE0334343F0BB
S2140036D008031362936A23F0330303432B4343EA3E
S2140036E04103936294F824301BB1034B064AC3F897
S2140036F08020F8BD0090005000C0005000D0005060
S2140037000300014000E00050F1A7FFFF014B93F9D2
S21400371000007047B3250020014B1880704700BF9B
S214003720842A00204FF4001208B5184B5A6602236C
S214003730174A5360936813F48033FBD1012822D1D3
S21400374023F026FD134B984215D003F5122303F5FC
S214003750F863984213D0104B00EB8002400AB3FB8C
S214003760F0F3520A0A49CA620B6301234B62002235
S214003770074B5A6008BD45F67A13084AF2E745F645
S2140037801A03074AEEE75362F1E700BF00900050C5
S2140037900040025000F0490264666666D8B805002C
S2140037A0BBCF0500B0F5207F10B50C4642D008D838
S2140037B0B0F5007F33D003D888B1B0F5C07F0ED007
S2140037C010BDB0F5607FFBD11F4A4C1ED2F880308A
S2140037D023F0300343EA0413C2F88030F0E71AF00F
S2140037E07BFA1AF087FA4FF48031184B164A19679D
S2140037F0136F013C23F4704343EA0433136723F04A
S214003800ADFC0446FFF77CFAC0F1020120461AF030
S2140038106BFA00F035F8BDE81040FFF7EFBD0A4A36
S2140038204C1ED2F8903023F0F85343EA0463C2F8F3
S2140038309030C5E7044A4C1E136F23F4806343EAB6
S21400384084231367BCE700BF008000500090005040
S21400385008B50121022000F015FB4FF42070FFF799
S21400386029FC054B18701AF037FA1AF043FA4FF491
S2140038708032024B1A6708BDB22500200090005027
S21400388008B54FF4C070FFF785FCBDE80840044952
S214003890884294BF012102214FF42070FFF782BFB7
S2140038A080F0FA0238B5044623F058FC0546FFF7C8
S2140038B027FAC0F1020128461AF016FA0121002064
S2140038C000F020FB2CB1FFF7DBFFBDE83840FFF728
S2140038D095BD034B4FF420701978FFF763FFF4E7AC
S2140038E0B2250020B0F5807F70B50C4600F0F88059
S2140038F029D8382800F04B8110D82438092816D843
S214003900092814D8DFE810F0DC00DC00DC00DC005E
S21400391013001300CD00130047003301522800F0B7
S214003920CF8005D83D2851D03E2800F0428170BD9A
S2140039308028FCD18B1E052B00F2B080DFE803F058
S214003940AB99AE69AEA8B0F5D06F00F0108132D852
S214003950B0F5A06F00F01B8116D8B0F5806F00F0B0
S214003960AF80B0F5906FE2D1023C052C8CBF0021F1
S214003970984B994A98BF195DD2F8243123F0070373
S2140039800B43C2F82431D2E7B0F5B06F00F089805F
S214003990B0F5C06FCBD1083C032C8CBF00218F4BF9
S2140039A08D4A98BF195DD2F8403123F003030B43CC
S2140039B0C2F84031BBE7B0F5006FD5D016D8B0F5E9
S2140039C0E06F00F0F680B0F5F06FB0D1083C032C45
S2140039D08CBF0021824B804A98BF195DD2F86031B7
S2140039E023F003030B43C2F86031A0E7B0F5086F7D
S2140039F09DD1CC1E052C8CBF00217A4B764A98BFF1
S214003A00195DD2F8003123F003030B43C2F80031EE
S214003A108DE7002502260121022000F033FA1AF075
S214003A205BF91AF067F94FF480316F4B6A4A1967F1
S214003A30136F23F007033343136723F08FFB064609
S214003A40FFF75EF9C0F1020130461AF04DF9012188
S214003A50002000F057FAFFF713FFFFF7CFFC002D0A
S214003A607FF465AF032C7FF462AF01225F4B9A624E
S214003A705DE74FF400225C4B0E465A66012203F5C2
S214003A8040539D6A03F58053C5F340059A62C2E72A
S214003A9000250426BFE700250126BCE700252E46A4
S214003AA0B9E7022C03D0A4F10F056C426C414A4AD8
S214003AB0D2F8803123F003032343C2F8803136E77F
S214003AC0023C032C8CBF0021494B434A98BF195D2A
S214003AD0D2F8203123F003030B43C2F8203126E747
S214003AE0A1F10804082C3FF622AF01A353F824F0F6
S214003AF0153B0000153B00002F390000153B000069
S214003B00433B00002F3900002F3900002F390000FA
S214003B10153B00004FF480322F4B3649586E03F5A4
S214003B2080535A660B6AC00343F001030B625CBF06
S214003B30314B5A664FF0E022136923F004031361F9
S214003B40F5E64FF48032244B2A49586E03F580532D
S214003B505A660B6A23F001030B62C1035CBF264B57
S214003B605A664FF0E022136943F00403E7E7083C87
S214003B70062C8CBF0021214B174A98BF195DD2F83E
S214003B80003223F007030B43C2F80032CFE60F2CB7
S214003B900DD0A4F110035C425C4164000E4AD2F8DA
S214003BA0203223F003032343C2F82032BFE6012469
S214003BB0F4E7083C032C8CBF0021114B064A98BF43
S214003BC0195DD2F8403223F003030B43C2F84032AB
S214003BD0ADE600BFC882020000800050CE82020020
S214003BE0CE820200BB8202000090005000E000502F
S214003BF0D282020000C0075000A00050C18202001E
S214003C00CE8202004FF4C02270B50546FFF748F991
S214003C10314B04465A6603F598335A68012A04D194
S214003C202E494A609A699207FCD18020FFF7F6FB7E
S214003C30052807D11AF050F81AF05CF84FF48032D5
S214003C40254B1A67264B24F040749D4230D0254BF6
S214003C509D4230D023F05CFA8542064603D9012106
S214003C60284600F04FF9204BDA6812F0060FFBD119
S214003C7099689C609A68624012F4F81F1ED1284624
S214003C80FCF7F6FF8020FFF7C9FB05280DD123F0CF
S214003C9065FA0446FFF734F8C0F1020120461AF030
S214003CA023F8FFF7EDFDFFF7A9FBAE420CD270BD7F
S214003CB044F00074CEE744F08074CBE7802099602F
S214003CC0FFF7ACFB052805D0BDE8704001210020B9
S214003CD000F018B93546DAE70090005000E00150D1
S214003CE040420F0080841E000000015010B5224B99
S214003CF070B94FF40031214A1860516602F59832C7
S214003D005268012A03D11E4AD2F800211A6010BD5B
S214003D101B68002BFBD01B4A5268012AF7D0184AB2
S214003D208020C2F80031FFF779FB05281FD14FF439
S214003D30C070FFF7BFF90128044604D102214FF4F2
S214003D40C070FFF72FFD07220F4B1A610122A3F563
S214003D5080535A600B4A1369DB07FCD5012CD6D179
S214003D602146BDE810404FF4C070FFF71BBD01228E
S214003D70064B5A60CBE700BF481800200090005062
S214003D800080005000C0015000E0015000D00150FB
S214003D90044A4178536F23F4407343EA0123536780
S214003DA0704700BF0040005010B5044610B1002018
S214003DB0FFF79CFF124A136943F00403136123F0D4
S214003DC08DFD19F09CFF0F4B5B6E5B0142BF0E4BE7
S214003DD00E4AC3F8202424F0C8F824F0F5F924F09D
S214003DE0BFF819F08DFF03F0BDF81CB9BDE8104010
S214003DF023F0B4B90120BDE81040FFF777BF00BF3D
S214003E0000ED00E00080005000E003500000FF0FCF
S214003E1010B5044610B10020FFF768FF104A13697A
S214003E2043F0040313610F4B5B6E5B0142BF0E4B06
S214003E300E4AC3F8202423F051FD24F096F824F00F
S214003E40C3F924F08DF803F08DF81CB9BDE81040D6
S214003E5023F084B90120BDE81040FFF747BF00BF3C
S214003E6000ED00E00080005000E003500000FF0F6F
S214003E70034A0179D36E23F030030B43D3667047B1
S214003E8000400050F8B504461C4BD3F88420D106F9
S214003E90FBD4D3F88430C3F381139C422CD023F098
S214003EA03DF9012C064602D1214619F01DFF24F0EB
S214003EB05CF84FF00072124B07465A66204619F01F
S214003EC028FF4FF480630D4D621E93402B676B6E88
S214003ED09A0103D4D5F884309B060AD5384624F0D8
S214003EE03FF8022C08D13046BDE8F840002119F012
S214003EF0FBBED5F88430EAE7F8BD00BF00400050AE
S214003F000060005010B50C4608B923F007F9074BBF
S214003F1021461B783BB1064B984204D80120BDE8E9
S214003F201040FFF7AFBF0220F9E700BFB42500201E
S214003F30005A62020278034B012100201A70FFF734
S214003F40E1BF00BFB42500204FF0004238B5264B35
S214003F5026495A6601224A604AF6CD3103F50B23FC
S214003F605D6C1964154030BB9968C9070BD40024F2
S214003F7001221F4B5A6015B11E4B1F4A1A6420F0CF
S214003F808CFC204638BD1A498A601C4AD96ACC0780
S214003F9005D4904201D10724EAE70130F6E79042C3
S214003FA0E5D1F8E70132DC6A14F0080406D08A424C
S214003FB0F8D10724DFE700221049F4E78A42F8D058
S214003FC020220B4B0B495A620122A3F580539A60BC
S214003FD023460A4A486A800603D49342E9D001334E
S214003FE0F8E79342C7D1E4E700900050005009502C
S214003FF000600950004009503254FFFF40420F0055
S2140040004AF6E8532DE9F0411B4C1C4FE56EE66E70
S214004010236623F0AAFF8046FFF71AFC3B6F0120B9
S21400402023F0070343F001033B67FFF73BFC002048
S214004030FFF78AFF19F06BFE19F06AFE7B6E25F01B
S21400404003055B0144BF0E4B0E4A45F0020548BF10
S214004050C3F8202446F003060B4BE566E666E566E5
S214004060E666E566E666E566E666E5664046BDE85B
S214004070F0415B6A23F074BF00400050008000509F
S21400408000E003500000FF0F00400950F8B504465A
S2140040900D461F4616464AB101238B403021184A6A
S2140040A001FB0022F7B141F21001535004EB440328
S2140040B0072D4FF00F014FEA031316D8A80006FA93
S2140040C000F281400F48184419F02AFE4EB9012329
S2140040D030210B4AAB4001FB042277B141F21001BC
S2140040E05350F8BD42F21001DFE7A5F1080080004A
S2140040F006FA00F281400448E5E742F21001EFE7D5
S21400410000C0035004C003500CC00350F8B5054669
S2140041100E4614465AB303F00307836823F440732D
S214004120836023F022FFAA6882EA072303F4407321
S2140041305340AB6023F014FF36B9104B9D4217D1A5
S2140041402E20FFF727F80646AB680D4BDA5D624374
S2140041500DD0A2EBC403013B3344B3FBF2F3AA68D1
S214004160013B920702D5002B08BF0123AB61F8BDC7
S214004170044B9D42E8D12F20E3E700BF0000015A20
S214004180D68202000080065038B500230E4A03642B
S21400419000F50053DA634A7804460D4600F108033A
S2140041A07AB903F5805302221A602046D5E9011237
S2140041B02B7BFFF7ABFF20462978BDE8384019F087
S2140041C0BEBD03F50053EEE7FFFF1F00874B70B53B
S2140041D0984219D0864B984240F00581854B9968E5
S2140041E0C26B12F4C06F15D091050FD5FD225A7020
S2140041F009221A700022026493F90110012900D1E5
S2140042005A7093F9010070BD7B4BE8E75605EFD571
S214004210FE22ECE71C78082C00F2E180DFE814F0C0
S21400422009001F004500530070007E009C00A70098
S214004230D6004C880A88E5060AD5120A02F006025D
S21400424042F0F002012119704263C1600120DAE7F2
S21400425002F0FE02A10748BF42F00102F2E716068E
S21400426008D5802100F50052D1634FF608721A80F7
S214004270022318E05506E9D5402400F50052D46321
S2140042804A88D40604D502221A700B784363DDE709
S21400429096076AD507221A701B7901EBC3031B89A0
S2140042A0012BD3D10823C360D0E71506D9D4540612
S2140042B0CCD5402400F50052D4634A88920754D5E2
S2140042C003221A708CE74C880A88E60643BF120A57
S2140042D002F0060242F0F00202F0FE02650709D57F
S2140042E01C7942F0010201EBC4010989012904BFCF
S2140042F00821C160042119700123C3604263A5E749
S2140043001406AED45206A1D5402400F50052D4635C
S2140043104A88560729D507221A7097E71A795D88C2
S21400432001EBC2042689AE420FD800240132D2B275
S2140043301A715C804C886507C2D4E40702D4012A4F
S2140043407FF64EAF08221A7092E76268691C5980A1
S214004350525D42630622DFE7160682D455067FF5D5
S21400436075AF402400F50052D4630522A9E79406F1
S2140043707FF56CAF456A214C46691A793440B4F52E
S214004380003F04BF466A4FF4005601EBC20100F539
S21400439000540A8908BFE6632026E6635C88A242CA
S2140043A081BF4968661C5E800D5559888A42C9D906
S2140043B00424012AC46004D0013A914201D10822A3
S2140043C0C2601A78092A3FF415AF3FE7D2057FF599
S2140043D03DAF4FF4807100F50052D16308E74FF609
S2140043E009321A8006E76FF003000CE70000015A56
S2140043F000800650581800204C18002020000200AC
S2140044001C4B10B4984207D01B4B98422ED06FF02E
S21400441003005DF8044B7047184B0269D20744BF8F
S2140044202022C2604A88940702D50C89002CEED060
S214004430520702D50A8A002AE9D04FF480721A6021
S214004440002299601A71C023C3604369DB050FD44C
S214004450202200F50053DA63094A5DF8044BDA635C
S214004460036C43F4FC630364FFF7B0BE054BD4E76C
S214004470436AEAE70000015A008006504C18002004
S214004480FFFF1F005818002010B5152001F0D2FDC0
S2140044900024FF22064B21465C6520209A625C6061
S2140044A0FEF758FE2146BDE810402120FEF752BE1A
S2140044B000000450044A054B002908BF1346012299
S2140044C082401A60704700BF4010045040200450DD
S2140044D010B5012104462020FEF73CFE01212120D4
S2140044E0FEF738FE0122114B15205A60227812067C
S2140044F09A606178A27842EA01429A61FF229A6243
S21400450000229A631A644FF000425A654FF0FF3259
S21400451003F500531A6501F0BBFD1520E17819F08C
S214004520C0FDBDE81040152001F096BD0000045007
S214004530F8B50125C3B2DFF88CC0D1F800E09D4085
S2140045408F7ACB7A0C46097BCCF850500CF5005C81
S2140045504CF820E04FF0300E184E1B050EFB0060A6
S21400456094F80DC043EA074343EA415322F003029E
S214004570C0F860C0C365026723F000FD104B5D65A0
S214004580237A13B1336C2B433364637A13B1B36B62
S2140045902B43B3632279A37943EA0243094A936122
S2140045A06179E37943EA014305498B61034B55631F
S2140045B09D64BDE8F84023F0DCBC00BF000004505A
S2140045C0001004500020045010B50124C0B28440EE
S2140045D023F0D4FC044B5A6D22EA04025A659C620E
S2140045E0BDE8104023F0C5BC0000045010B50124FF
S2140045F0C0B2844023F0C2FC074BDA6A224208D1DC
S2140046005B6B9C430CBF0124002423F0B2FC2046C5
S21400461010BD0024F9E700BF0000045070B5054641
S21400462023F0ACFC3022084B5E6B02FB05335C6E5D
S21400463023F09FFC0123EDB2AB4033420ABFC4F324
S2140046400A100020013070BD000004504FF4003204
S214004650054B9A6641F6713203F51C33DA63012284
S21400466003F50053DA6070470090005041F671324F
S2140046700121064BDA6303F50052D1600022DA63AB
S2140046804FF40032A3F518339A66704700000350C3
S214004690CB784A7810B55B010C7843EA82030A7936
S2140046A0234343EA02130C22424302F1B04213634F
S2140046B0012C02BF8A78024B43F8202010BD00BFB1
S2140046C0E880035008B54FF0B0435A686AB958B14D
S2140046D05B680BB119F03DFB01210D4B596019F0D9
S2140046E038FB4FF0B043D96008BD5B680BB119F0DA
S2140046F030FB0028F0D119F02CFB4FF0B04302221B
S214004700DA6019F026FB0122024B5A60ECE700BF84
S21400471000100058002000584FF0B0414B6810B50C
S2140047200BB119F016FB01220B4BC4785A60837844
S214004730934043EA840344782343047943EA04130A
S214004740447943EAC4038B60044B5A600378C3F190
S2140047500203CB6010BD00BF0020005800100058B8
S2140047604FF48032064B5A6603F5E6235B69C3F3C3
S2140047708512827003F03F021B0B42700370704775
S21400478000900050014B986CD96C70470080E00F89
S214004790024B1868C0F30740704700BF0080E00F68
S2140047A00120034B9B680A3303F01F0398407047B1
S2140047B00080E00F70B5054616461C4621B94FF43A
S2140047C02070FEF7E7FC0146402C1BD003D8DCB176
S2140047D0202C1BD070BD602CFCD1042303FB06F2FA
S2140047E0530803EB4113B3FBF2F3094A203B02EAFA
S2140047F0C303AA6822F06002AA60AA681443AC60E9
S214004800EB61E7E70623E9E71023E7E70823E5E798
S214004810F8FF7F00012200F580535A6040F6AA6335
S21400482041F20502436100230B498360C365C26001
S21400483000F500520361C361C36491640749836550
S214004840884203D103650023436502E00449884299
S214004850F8D0012353607047FFFF010000C00550E9
S2140048600000065070B50D46FFF7D4FF012300F593
S21400487080567360AB7C04461BB1836843F080436C
S2140048808360EB7C5BB1354A2B7D944245D1A2F523
S2140048901032C2F88C31E36D43F08003E3652A8A58
S2140048A06B7B20461343EA891343E3602B7BD5E9F1
S2140048B00112FFF77FFF6B7D1BB1A36843F48033C3
S2140048C0A360AB7D1BB1A36843F40043A360EB7DFC
S2140048D02A7E1B07120502F4E00203F0E0431343AE
S2140048E0A365697E1D4A8B1E012B1D4B1FD8944263
S2140048F01BD002F5804294420CBF01224FF0FF32DB
S21400490003EB4213022041F21C620329985020D187
S2140049100423F3652B78636170BD124A944204BF8A
S214004920A2F52032C2F89C31B5E70022E8E79442AF
S2140049300DD00C4A94420CBF01224FF0FF3203EB1D
S2140049404213022042F21C6201299850DFE700223F
S214004950F5E7042204F50053DA65DBE700C00550EE
S21400496000C0035000000650034BD3F82424D3F8AD
S21400497020041040704700BF00C003502DE9F843E4
S2140049801E4B0546D3F810334B1E0E2B0E4617460D
S21400499090F8009044781DD909B34FF000082846D7
S2140049A0D7B123F0F1FA09EB4903072C4FF00F01BA
S2140049B04FEA031315D8A400114808FA04F2A140E0
S2140049C0184419F0E2F9BEB928468FB1BDE8F8439D
S2140049D023F0DABA8846E2E719F0E6F9E3E7884614
S2140049E0E1E7083CA400074808FA04F2A140E7E71C
S2140049F0BDE8F84319F0D8B9BDE8F88300C0035005
S214004A0004C003500CC003504FF48032084B5A6663
S214004A1003F5E6235B691A0B027003F03F0242704F
S214004A204FF6FF72C3F3851342808380704700BF42
S214004A3000900050014B03205B6870470080E00F39
S214004A40014B986CD96C70470080E00F70B5044637
S214004A501FF04EFF064630B90FCC044D0FC594E844
S214004A60030085E80300304670BD00BF64180020D0
S214004A7047F6FF739A42F0B56FD002296FD8394BCC
S214004A805B5C012B6BD8384DDF0005EBC30415F8D3
S214004A903330A178012B13D10025E078401AA842C4
S214004AA002D80844C0B2F0BD431B6668A0EB5303AF
S214004AB036F913609642D4BF1D4603F1FF30EEE789
S214004AC060680028EFD0B0F90040944204DBB0F9EB
S214004AD002409442B8BF144683883D44FF2B19BF5A
S214004AE0C8224FF0280CB0F90620B0F908C0A2EB97
S214004AF004030CBF0126002693FBFCF333446E78B8
S214004B001BB29E4201DD002B01DA731E1BB24FF46E
S214004B107A7C01339BB2071D5D1E2DB24FEAC50E8F
S214004B2000EBC505EA88AD689E4214FB025222EAF5
S214004B30E27202F15C02B2FBFCF204DD37F833509D
S214004B4001339542E8D200EB0E039888904228BFC6
S214004B501046884238BF0846A4E7FF20A3E7002097
S214004B60A1E700BFDA820200641800200229F0B52F
S214004B7055D82C4B585C012851D82B4C04EBC0015F
S214004B8014F830004B6801280FD1C8788C78904212
S214004B9094BFC4EB0001C4EB0201001BCAB2824200
S214004BA0C8BF002233F91200F0BD002B37D088783A
S214004BB0904202D3B3F90200F6E7CC78B3F90000CE
S214004BC09442F1D94C789988013CA1F1FF067142D4
S214004BD003F10405E4B2714103F10C07CEB2B4420E
S214004BE016D805EBC1014FF47A756A43B1F9024055
S214004BF04968521A04EBD47102EB610292FBF4F29C
S214004C009042D1DBB3F902009042CDDC10B2CBE784
S214004C1037F831C04E1C9445E3D33146DEE70348EF
S214004C20C2E700BFDA820200641800200080FFFF9F
S214004C3008B50448FFF70AFFBDE8084001201FF04A
S214004C405BBE00BFE082020000487047882A002052
S214004C5006289ABF014B185C002070476483020048
S214004C6030B5154B87B00293144B0390049346F669
S214004C7011030D46059300F077F91428044616D163
S214004C80684619F035F94FF0A843032202A95A6383
S214004C9019601D619A63DA6B9207FCD1142C02D15D
S214004CA0684619F033F900F093F9044601E000284D
S214004CB0E9D0204607B030BD7C1800200400002054
S214004CC02DE9F04FB1B005468C469E46E8466F4E3D
S214004CD0DDF8EC90409C06F1100A47463068716893
S214004CE0083603C75645B846F7D13E9B03EB020885
S214004CF0C8F1000A0AF00F0AB9F1000F00F09D8013
S214004D00C9F1000707F00F070121DDF8FCB044F0F9
S214004D100050C4F11006CDF810B005910690300290
S214004D2000F4F85040F021000790B9F1000F40F071
S214004D308680CDF820D047F00050002D00F084800B
S214004D40099121210A9041EA07210B9142F0005077
S214004D50CDF830C03D9B08A94FEA0A2C0D910E9065
S214004D604CF041000F901093002A75D13E9B119194
S214004D7043F0005312933C9B1390149310AB15937F
S214004D80434B444A169340F611031793424B0021B7
S214004D90002D08BF1346189314AB19933F4B1022EF
S214004DA01A9311231B931CAB184620F0BEFA01225F
S214004DB01D92002246F0804603461E96239205B9B1
S214004DC0EB46102CCDF880B024AE4BD10123224602
S214004DD0002130462193229420F0A7FA20AB002130
S214004DE025938F4218BF334647F0804226923A9A60
S214004DF02CA828922993B2FA82F35B0949EA8373B6
S214004E0010222B912A9320F090FAB9F1000F00D0CF
S214004E1028AED04448F080432CA918A82D962E938F
S214004E20FFF71EFF30B92DB90346A34225D100284F
S214004E3018BF2C2031B0BDE8F08F102764E7CDF8FE
S214004E4020E049F0005078E7002C3FF479AF04A941
S214004E50099101210A9076E73E9B0CAA1192412007
S214004E60129388E71022002130462193229420F0E6
S214004E705CFA002CB2D10123B1E703F1C0026A4408
S214004E8012F8C02C01331043CFE700BF6B8302003B
S214004E9010000020808302008483020004000020AB
S214004EA0F0B5C0299FB0DDE9244557D0B1F5807F25
S214004EB004D0802948D029201FB0F0BD01265CB15F
S214004EC040F2344702941024039604942124019758
S214004ED00594069502AC0AE040F2144702941024AA
S214004EE003960494212405940124019706950794BB
S214004EF001251024089409950A9221220B950C94FA
S214004F000D92174A0AAD0E92164A0F95109242F667
S214004F1011021192129313951494159201AA1692E7
S214004F20D3B112AB1793042318931123199316AB1E
S214004F301A901B9340F61103C9081C911AA806A9DB
S214004F401D93FFF78DFEB7E7012614B94FF482676D
S214004F50C4E74FF48667B5E70EABE3E70F20ABE791
S214004F607C8302001000001038B5164B5A6E42F0D3
S214004F7004025A66D3F8802242F00102C3F8802267
S214004F80114B5B68C3F3080343B14FF0A842D36BE1
S214004F9013F0430FFBD11424204638BD4FF0A8432E
S214004FA0DC6B14F04304FBD1084D2B681BB90421BD
S214004FB028461AF063FC2B68013343F000432B604D
S214004FC0EAE700BF0080005000ED00E07C180020FB
S214004FD0014B00205B68704700ED00E04FF4005284
S214004FE0034B00209A660322C3F86022704700BF76
S214004FF0009000504FF40052034B00209A660322A4
S214005000C3F86022704700BF00A00050012300F0E4
S2140050101F02A0F506200949A0F5506040099340FC
S21400502051F820201A4341F82020054951F8202045
S21400503022EA030241F82020704700BF941800209F
S214005040801800200121A0F506230E4AA3F5506320
S2140050505B0900F01F00814052F82300014342F82C
S21400506023100949D1E90030034488680344C8681E
S214005070096903445B1802BFC2E90033C2E9023380
S2140050801361704780180020941800202DE9F04F17
S214005090A9B003921D4604460822339ECDE90401BA
S2140050A0414021FA02F34B40980702F1080218BF6C
S2140050B09B00202A1C44F4D18123B4FBF3F303EBBA
S2140050C0C313E41A734B04F506241B7804F55064E6
S2140050D0002B3ED1FDF798FC074620B16FF09100FB
S2140050E029B0BDE8F08F0146402208A820F01DF93F
S2140050F04022394618A820F018F9DFF8B081DFF80A
S214005100B091C3460BF10F0ACDF800A0102208A9F3
S2140051105B46D9F8000018F0E7FB0022014608F1CC
S214005120100808AF914246D1CDF800A05B46102289
S214005130D9F8000018A918F0E0FB4FF0000A8346E3
S21400514018AFD34541D1544B9845DAD10122514B83
S2140051501A704FF0810A4FF00008DFF858B1A4F536
S2140051600627A7F550635B095BF8232004F01F01B0
S214005170CA40D2073DD4494A52F82330CB40DB0719
S2140051802AD5B8F1000F08BFA0468123A7F6FF472F
S214005190B7FBF3F303EBC313FF1A07F50624BAF1C4
S2140051A0010A04F55064DAD1039BBBB1B8F1000FD5
S2140051B014D0444619E057F8040BCDE90612FFF761
S2140051C025FF079A06990132ACE757F8040BFFF75C
S2140051D039FF0AF1010AB4E7039B13B96FF08B009D
S2140051E07EE7B8F1000F18BF4446349B00201C60D1
S2140051F076E7329B13B10023329A13600EB1002378
S21400520033601023DFF8A89000932A460023214637
S214005210D9F80000FDF7D2FA60BB32992A68204B15
S214005220C9B99A4206D02146D9F80000FDF748FBD6
S2140052300028D3D1D5E90223DDE90410834208BF54
S2140052408A42A2D1039B002BCFD06B68012BCCD116
S2140052506FF0840044E7102032999A420860E2D149
S214005260002EE7D033462146D9F8000018AAFDF7ED
S214005270EBFA40B10B4B9842D5D06328D3D00A4BFB
S2140052809842D7D02AE7329A336812689B1A33605E
S214005290D0E700BFB5250020007108008018002068
S2140052A0105D175EFFDF00F0FEDF00F0006D080007
S2140052B010290020941800202DE9F04F87B0824670
S2140052C0894698461646DDF840B02AB1002B4FD0E6
S2140052D040F26C739A424ED8BBF1010F4ED80024B0
S2140052E006F1100739460120059419F039FA0546EB
S2140052F0002846D021463A4620F017F805ABCDE9FF
S214005300014300942B46012250464946FFF7BEFE55
S214005310044680B110F18C0F08BF6FF08D043A463A
S2140053200021284620F001F8284619F0FBF920460F
S21400533007B0BDE8F08F144BC5E902A92B60C5F88D
S21400534004B02EB13246414605F110001FF0F8FFBA
S214005350059E0E483B462A4631460068FDF7AAF9E8
S21400536018B93046FFF752FED9E76FF09104D6E73A
S2140053706FF08604DBE76FF09104D8E76FF08504E2
S214005380D5E76FF08C04D2E7105D175E1029002079
S2140053902DE9F0438DB08146DDE914780E461546BA
S2140053A01C469BB1B8F1000F05D16FF0860630465B
S2140053B00DB0BDE8F083002FF7D0B7F1005FF4D34F
S2140053C0C3F1005303F500439F42EED8102200219C
S2140053D008A81FF0AAFF002207AB029305AB0193B3
S2140053E006AB31460093484608ABCDE90522FFF7E9
S2140053F04DFE06460028DAD1059BA4B1AB4215D86F
S21400540053EA0504D1D1069B0B48C8F80040009427
S2140054103A46079900682B44FDF7D0F9002818BFD4
S2140054206FF09106C3E7AB42EDD2BEE75B1B9C4232
S21400543028BF1C46E7E700BF1029002030B58DB016
S2140054400C4605461022002108A81FF06EFF002219
S21400545007AB029305AB019306AB214600932846A3
S21400546008ABCDE90522FFF711FE0446D8B9099B23
S214005470012B1BD0079D104B29461868FDF720FA14
S214005480B8B90122A5F506230C49A3F550635B09BC
S21400549005F01F00824051F823004240284641F89C
S2140054A02320FFF7CFFD20460DB030BD6FF08404FB
S2140054B0F9E76FF09104F6E7102900209418002011
S2140054C02DE9F04F89B007460E4601F0CDFEC00725
S2140054D009D40424012019F05FFD80B3013CF9D102
S2140054E06FF0920028E0102200210DEB02001FF062
S2140054F01CFF04A801F01AFF049B002BE9D0059BB3
S214005500002BE6D0069B002BE3D0079B002BE0D0B9
S2140055100025DFF8808008F10409B54219D34FF45E
S2140055208A7401F09BFE00F00E03062B2DD1C305F6
S21400553001D501F0C5FE002009B0BDE8F08F01F0EE
S2140055408DFE10F00E03FAD0022BF8D04105DFD501
S214005550C4E701F07DFEA6EB050A8400544528BF8B
S214005560544699E8030000238DE80300CDE905437F
S21400557007EB050BCDF810B0029404AAD8F800305B
S21400558007CA19F002FC2544C7E724FA03F3DA0732
S214005590A6D5C6E7908302002DE9F0438BB01746E8
S2140055A0DDE91545DDE913269C46DDE91738894611
S2140055B021B96FF086000BB0BDE8F083002FF8D05D
S2140055C00EB9002CF5D1129909B9002AF1D10DB9FE
S2140055D0002BEED1B8F1000FEBD0244A944541D110
S2140055E00288B2F5105F3DD14288B7EBD20FE0D308
S2140055F022F04001802902D0B2F5807FD9D16CB369
S214005600AE421CD23219954219D29C42D1D83146AC
S214005610224628461FF06FFE2E4614F00F03C8D110
S214005620CDE90197CDE90336CDE90543CDE9075429
S2140056300993FFF7D3FC38B16FF09200BBE79C42AA
S214005640EBD96FF08900B6E707AA04A901A801F014
S21400565031FF0546FFF7CEFC0543EDD10020C8F824
S2140056600040A8E76FF08500A5E700BF00444004AF
S2140056702DE9F04FA9B0834617469A460E46DDF848
S214005680C890DDF8D88029B96FF08603184629B08F
S214005690BDE8F08F002AF7D0B9F1000FF4D0349BA4
S2140056A0002BF1D0B8F1000FEED00024424B0CAD29
S2140056B093E8070085E807003C22214619A81894BD
S2140056C01FF033FE3388728803F4E040B0F5804F55
S2140056D0DAD03A4E3A480BEA060646F0106686429C
S2140056E063D1B2F5807F60D147F2121293425CD14B
S2140056F00620344ABAF11F0FD3680E940B93136931
S214005700126800FB03F3CDE90C23BDD9339B402B75
S214005710BAD9359B1F2B4BD909F1010220261292CC
S214005720402299F800300F97042B18AFCDE91324C8
S214005730CDE91572109611941794A5D1FFF74EFC7B
S21400574003460028A2D10B9B15AACDE9086305AB3A
S21400575007CA83E8070002AB12AA07CA83E8070055
S214005760DDE910018DE803000F9B95E8070001F0C6
S2140057707BFF0546FFF73EFC55EA000384D13D4615
S214005780349A20AE2C4603CCB442106051602546B5
S21400579002F10802F6D100221146B9540132402A1D
S2140057A0FBD12022C8F8002070E76FF085036DE774
S2140057B06FF089036AE700BF908402000000FFF6DE
S2140057C000000209A4840200F0B50E461D468BB008
S2140057D0002853D0002951D0002A4FD0002B4DD09E
S2140057E0048804F44F43B3F5824F03D06FF085006E
S2140057F00BB0F0BDE3B224F0FF04B4F5E24FB0F80E
S21400580002C0F3D1122B01D0172BEFD10CF10701F8
S214005810B2EBD10F4FEAD10733D31D4A04ACBCF527
S214005820807F07CA84E80700E0D1122B07D1194B06
S2140058301A691B681344CDE904320023069300233B
S214005840CDE907670993FFF7C9FB0028D0D1124AB4
S21400585002AB92E8030083E803000AAB13E90300F7
S2140058608DE80300079B94E8070019F013FA044636
S214005870FFF7C0FB204307D12F60B9E76FF0860023
S214005880B6E76FF08900B3E76FF09200B0E700BFAD
S21400589090840200A4840200888302002DE9F0436D
S2140058A08FB01D46DDE916C600285CD000295AD008
S2140058B0002A58D0002B56D0BCF1000F53D0002E33
