S026000062745F736F635F656E657267795F68617276657374696E675F73656E736F722E733337D8
S214000000C00A0020790C00007DE301007DE30100BA
S214000010F5EF01007DE301007DE301007DE30100D3
S2140000207DE301007DE301007DE301007DE3010047
S2140000307DE301007DE3010077F101007DE301002F
S2140000407DE301007DE301007DE301007DE3010027
S2140000507DE301007DE301007DE301007DE3010017
S2140000607DE301007DE301007DE301007DE3010007
S214000070816300007DE301007DE30100090B0000C1
S214000080D7DA01007DE30100710900007DE301007D
S2140000907DE30100451400007DE301007DE30100DF
S2140000A07DE301007DE301007DE301007DE30100C7
S2140000B07DE3010071B701007DE30100B9C10100D5
S2140000C0717302006D730200A9B901007D7302000E
S2140000D0757302008DC1010079730200F9C1010039
S2140000E0599A01001D9C010069C201007DE30100D0
S2140000F07DE301007DE301007DE301007DE3010077
S2140001007DE301007DE301007DE301007DE3010066
S2140001107DE301007DE301007DE301007DE3010056
S2140001207DE301007DE301007DE301007DE3010046
S2140001307DE301007DE301007DE301007DE3010036
S21400014082B030BF074BD3F8F030DB0704D500236E
S2140001500193019B052B01DD02B07047019B013323
S214000160F6E700BF00ED00E0F0B5114A114C124E64
S21400017000F00105E3695F0713D40DB9334213D1CC
S21400018003EA00078F4207D10B4A1A40002A0CBF29
S21400019000206FF00100F0BD013AEBD16FF00200D5
S2140001A0F9E74FF0FF30F6E76FF00100F3E700BF26
S2140001B08096980000000350020001000B4B70B5BB
S2140001C0D96911F480310DD101244FF48072084EA4
S2140001D0084DF46020462C641A61FFF7C5FF3464AE
S2140001E0EC6070BD6FF00100FBE700BF000003503D
S2140001F000100350002003504FF4003238B50F4B68
S2140002000F4C9A6641F671330122E569E3630D4BA4
S2140002100021DA60022360612120236105F4803525
S214000220FFF7A2FF10B92120FFF79EFF0122064B21
S214000230DA600DB10023E36338BD00BF00900050C4
S21400024000000350001003500020035070B5134CFC
S2140002506061E3695B071ED40E4656F8043B8D18B2
S214000260A361AE420BD10423002121202361FFF7B6
S2140002707BFF58B9BDE870402120FFF775BF082105
S2140002800846FFF771FF10B10423236170BD56F8CE
S214000290043BA361E5E74FF0FF30F7E700000350AB
S2140002A02DE9F84315464FF40032184B89469A66F6
S2140002B041F6713203F51C33DF69DA630122064624
S2140002C003F58053DFF84C8007F48037DA6055B9C1
S2140002D0284601220E4BDA601FB10022A3F5005318
S2140002E0DA63BDE8F88306F5005404EA0804A41BA4
S2140002F0AC4228BF2C46494622463046FFF7A6FFAA
S2140003000028E6D12644A1442D1BE0E700900050CB
S20C0003100020035000E0FFFF8F
S214000320013800D0FCE77047002370B5404C054606
S2140003308AB0E36318B1008823600BF071FC3D4877
S21400034026F057FB3C4E3D4B304633603C4B7360CB
S21400035022F0A2FF0021304615F040FB32A3D3E97D
S2140003600023A062C4E9062322F0A1FFD4E90623F5
S21400037019431043C4E90601CDE900014FF0FF33ED
S2140003804FF0FF32A06A26F0BCFB02224FF0FF318E
S214000390A06A26F0BBFB01200BF0C2F94FF40073F5
S2140003A000222849A06A26F004FCB0F5007F38D168
S2140003B000239422CDE9073309933C23CDE9033289
S2140003C005939623A06A03A9069315F0EFFB35B3B1
S2140003D0287C0BF0A5FD0546F0B9A06A26F0C6FC01
S2140003E00BF04CFD0BF07EF920B14FF4807000212D
S2140003F009F060FA0BF086F920B14FF40060002196
S21400040009F058FA23F00DF8012015F03DFB0E4ACE
S2140004100E49A06A22F03EFF28460AB070BDFF20B3
S214000420D7E70725F8E700BF0DD5015520000000E7
S214000430300B0020690345EC701C0020A5B50000B9
S214000440801C0020701A00203D3202007D3202001F
S2140004500348044B834202D0034B03B1184770474E
S214000460082900200829002000000000064B074944
S214000470C91A891048BF0131491003D0044B0BB18B
S21400048001481847704700BF0829002008290020A7
S2140004900000000010B5064C237843B9FFF7D8FFDC
S2140004A0044B13B10448AFF300800123237010BD42
S2140004B00824002000000000A0C8020008B5054B74
S2140004C01BB105490548AFF30080BDE80840FFF7BB
S2140004D0CDBF00BF00000000980D0020A0C802009D
S2140004E0A3F5803A704700BF174B002B08BF134B8D
S2140004F09D46FFF7F5FF00218B460F461348144A2A
S214000500121A26F0DCFF0E4B002B00D098470D4B3E
S214000510002B00D098470020002104000D000D4855
S214000520002802D00C48AFF300801CF06BFA2000C5
S21400053029001DF07AFA1CF0ABF800BF0000080096
S2140005400000000000000000C00A0020C00A0020D2
S214000550242500200000000000000000034B5A681D
S21400056012B19A6A002AFAD1704700BF00400650BE
S21400057013B5044601A909201EF0FCF9019B5C4353
S2140005804FF47A73B4FBF3F401F064F80020611EB4
S21400059001F054F8FFF7E2FF0122034BDA60FFF7A1
S2140005A0DDFF02B010BD00BF00400650354B30B531
S2140005B093E807004FF400739DB0ADF804300023B5
S2140005C004AD85E807000B213D2002938DF80C3022
S2140005D001F05AFD01213D2001F064FA012001F0EE
S2140005E001F8012440F201131220ADF818308DF8FE
S2140005F01A4004F0A3F80222234B28469A6100F022
S214000600C5FF01A801F096FF204D02A802F002F8EF
S2140006101F4B28462B601DF08EFB88BB284607A97B
S2140006201DF037FD60BB4FF08073CDE908304FF406
S2140006301673184A0A93184B8DF82F00CDE90F232E
S2140006400C9340F2063340F6C412ADF8443040F640
S214000650F613CDE9122340F6D863104ACDE91430DC
S2140006600F4B2846CDE917320E4B07A9CDE91932B4
S214000670224607948DF8344016941B931DF0B4FB65
S2140006801DB030BD2882020000500650B40D002078
S214000690FC2600200402020000010102F71BDA0516
S2140006A080B14F011C81220003689F4A23F47F43D8
S2140006B023F00703934273B505D09C4A934200F09B
S2140006C0F18002B070BD00F0C5FFFFF747FF0222C1
S2140006D0974B984CDA6021469748FFF73FFF1DF08E
S2140006E068FB20B92388954A5BBAA2F80730944D78
S2140006F028460EF071FA044618B3924D92492868BF
S2140007001EF012FA914928681EF00EFA1DF0DEFD62
S2140007101DF0DDFD8E4B8F4A00938F494FF49A7380
S21400072028681EF001FA8D4923468D4A28681EF077
S214000730FBF9204600F062FA8A4928681EF0F4F9B0
S214000740FEE70123202200931146034628780EF088
S2140007505BFA044618B37B4D7B4928681EF0E4F923
S2140007607A4928681EF0E0F91DF0B0FD1DF0AFFDD7
S214000770774B784A0093784940F23D1328681EF07C
S214000780D3F976492346764A28681EF0CDF92046E6
S21400079000F034FA734928681EF0C6F9FEE7674B86
S2140007A001465A7D28780EF073FA044618B3654D54
S2140007B0654928681EF0B8F9644928681EF0B4F93F
S2140007C01DF084FD1DF083FD614B624A0093624973
S2140007D040F2451328681EF0A7F960492346604A90
S2140007E028681EF0A1F9204600F008FA5D4928683E
S2140007F01EF09AF9FEE70246014628780EF026FA21
S214000800064618B34F4C504920681EF08DF94F49E4
S21400081020681EF089F91DF059FD1DF058FD4C4B5F
S2140008204C4A00934C494FF4A47320681EF07CF9A0
S2140008304A4933464A4A20681EF076F9304600F0A8
S214000840DDF9484920681EF06FF9FEE72878032195
S2140008500EF034FA054600283FF433AF394C3A49D7
S21400086020681EF061F9394920681EF05DF91DF018
S2140008702DFD1DF02CFD364B364A009336494FF4BD
S214000880A77320681EF050F934492B46344A206876
S2140008901EF04AF9284600F0B1F9324920681EF0E9
S2140008A043F9FEE7304C2378012B30D80A20FFF7B7
S2140008B05FFE012001F04AFE214B032118780EF05E
S2140008C0FDF9054618B31F4C1F4920681EF02CF989
S2140008D01E4920681EF028F91DF0F8FC1DF0F7FCF4
S2140008E0224B1C4A00931C4940F26B1320681EF0F2
S2140008F01BF91A492B461A4A20681EF015F9284695
S21400090000F07CF9174920681EF00EF9FEE7237800
S214000910022B05D146F2A810FFF72AFE01F042FF8F
S214000920237801332370CCE6A0000100A000040168
S21400093000400650B00D0020B40D0020CC2800204A
S214000940E22800203C0E0020B0810200B2810200A6
S21400095018820200B7810200C0810200CF81020027
S214000960CC810200E481020009240020F581020007
S2140009700222014B5A6170470060065008B502F02B
S214000980C7FA01280ED1114B04205A6E4FF480236B
S2140009900F49520358BF0F4A4B6601F510410862D3
S2140009A058BF536603F088FE00F052F91EF06AF84E
S2140009B01EF06AF81DF0DCFF04F05EF900F03EF968
S2140009C000F07AFDBDE8084004F070BD00800050DD
S2140009D00090005000A0005008B504481DF0D9FF54
S2140009E0BDE80840024800F099BA00BF90830200B4
S2140009F00827002030B51E4D95B00DAC0FCD0FC4A6
S214000A0095E80700292384E807001A4A1A49CDE921
S214000A1002231A4B0E22CDE904134FF480730021F3
S214000A200DF12600069326F04AFD4FF4A020144B45
S214000A300DAACDE907030F238DF8243010238DF877
S214000A402530104B07A90A9320230B9301238DF81A
S214000A5031300D4B0D48009302AB04F04BF80446C2
S214000A6000214FF4E1301DF07AFC204615B030BD71
S214000A703482020000000650000500060008000749
S214000A80240006500A240020BC0D0020100E002072
S214000A90831E012B10B512D8012922D8114B04222F
S214000AA01B6905210020C3F3401301F0C1FE0E4B65
S214000AB01B681868A8B1BDE81040436A18478B1E2B
S214000AC0012B0CD801280CD8BDE810400022054B9D
S214000AD005211B691046C3F3401301F0A9BE012986
S214000AE0E5D910BD00C003501C27002008B50449F6
S214000AF0044804F0AFFDBDE80840FFF77BBF00BF29
S214000B0020270020340E002001481EF0A8B900BFA0
S214000B10100E0020014B1A6A18681047100E0020AD
S214000B2003784278C3F3420343EAC203DBB20C2BDA
S214000B3032D9242B09D84B221A4912FB03130A2256
S214000B40B3FBF2F303F178007047732B09D89622B3
S214000B50154912FB03130A22B3FBF2F303F5967052
S214000B607047942B09D8E022104912FB03130A227F
S214000B70B3FBF2F303F2C6507047C52B0ED840F213
S214000B80C71202FB03F00A23A0F58430CE38B0FB70
S214000B90F3F000F6B30070477120704741F267101B
S214000BA0704700BF36FCFFFF57EAFFFF859AFFFF3E
S214000BB0012208B5074B1A700022074B1A70042250
S214000BC0064B1A701F22064B1A7003F0F3FD054BF6
S214000BD0186008BDE52800202A240020E42800200C
S214000BE0E32800203C0E0020024B034918681DF045
S214000BF09BBF00BF3C0E00205082020070B50C4C1C
S214000C000C49064620681DF08FFF03F0D3FD05460D
S214000C10206803F0C3FD3046FFF7E6FF284603F0E2
S214000C20BDFD20680449BDE870401DF07DBF00BFD3
S214000C303C0E0020528202005482020008B503488F
S214000C401DF0A7FEBDE808401CF018BF9083020008
S214000C5001481DF09EBE00BF908302000348044A70
S214000C600449121A92101DF08ABB00BF4001000012
S214000C70180300002425002008B500F02FF8FFF721
S214000C80EDFF124B12498B4212D30020114B124932
S214000C908B4218D3FFF728FC186850F82240586893
S214000CA040F82240013298688242F5D30C33EAE7D6
S214000CB00022F8E71C6844F8220001325C68A24271
S214000CC0F8D30833E4E70022F8E700BFA8C802001C
S214000CD0B4C80200B4C80200B4C802004FF4004111
S214000CE0134B144A70B59A60D3F88820124D42F41C
S214000CF07002C3F88820114A05F5005491664FF03B
S214000D00FF3222664FF6DF7262660222C3F8D020F8
S214000D10BFF34F8FBFF36F8F4FF44036032003F0BF
S214000D201BFD0320E66003F009FD2E6170BD00BFC9
S214000D3000ED00E00000000000800044009000503D
S214000D40014B1868704700BF2C270020014B186025
S214000D50704700BF2C270020084B1B6F03F00703CB
S214000D60022B04D0032B05D0012B05D0FEE7044B45
S214000D7018687047034BFBE7034870470080005035
S214000D802C27002034270020002D310108B5FFF75E
S214000D90E3FF054B1B6FC3F303330133B0FBF3F0E4
S214000DA0024B186008BD00BF0080005028270020B6
S214000DB00048704700B4C404014B1868704700BF71
S214000DC034270020054B1860054B1B6F03F0070304
S214000DD0032B01D1FFF7DABF704700BF342700208E
S214000DE00080005000487047002D3101014B186804
S214000DF0704700BF30270020034B5868C0F3080038
S214000E00003818BF0120704700ED00E013B500243D
S214000E10294801941DF0BDFD01230422032120462C
S214000E2001F006FD20461DF042FC0122234B052062
S214000E30C3F8442401A91DF0A2FD002839D1204B97
S214000E40D3F8F02042F00102C3F8F020D3F8FC20DB
S214000E5042F08072C3F8FC201A4AA3F55D431A607C
S214000E60019B194A03F5D52303F2FC43B3FBF2F3C7
S214000E70164A013B13610223C2F8F0304FF4807328
S214000E80C2F804334FF06043114AC3F8B02F114A3A
S214000E90C3F8802ED3F8002E42F48072C3F8002EDA
S214000EA0FF2283F82020D3F8002E22F48072C3F8A5
S214000EB0002E02B010BD00BF9083020000D0035089
S214000EC000ED00E0FF030040F8590D00000004E0CC
S214000ED055CEACC5090001004FF06043D3F8802E14
S214000EE030B5D20715D501240B4D8440D5F8FC202B
S214000EF042F08072C5F8FC20D3F8002E2243C3F8D7
S214000F00002E53F82020002AF0D003F820100020EE
S214000F1030BD1120FCE700BF00ED00E02DE9F043F6
S214000F200368314A0446934285B059D02F4A93420B
S214000F3053D101262E481DF02CFD01230A22A1794B
S214000F40207901F075FC01230A22E179607901F02D
S214000F506FFC0A274FF00108264D4FF0300942F289
S214000F6010012379A27909FB035308FA02F25A50BA
S214000F70642005F043FA41F210012379A27909FBB7
S214000F80035308FA02F264205A5005F037FA013F7C
S214000F90E3D10322360106F1A04303F57033C3F80C
S214000FA09024A1792279354442EA0142C3F8942478
S214000FB0E2796379694643EA0243C5F8983440F219
S214000FC00113ADF80030E36820680293A36801932C
S214000FD0237C8DF80C3001F0A9FC05B0BDE8F08349
S214000FE000260548A7E700BF0000015A008006500B
S214000FF08883020000C003508C83020038B5054683
S21400100001F0D0FD044C012801D1013C00D138BDCF
S214001010284601F0ADFCF6E7E19304002DE9F04F19
S2140010209A46564B85B01B7806460F461546DDF8A1
S2140010303C909DF844B0DDF85080002B00F097807F
S214001040072A00F296800E9B002B00F09280B9F1E2
S214001050000F00F08E80129BB3F5006F00F38980BE
S214001060012803D1109B002B00F08380444B03EB38
S21400107005131B7B002B7ED0424C102200216846B5
S21400108026F01DFA04EB45141022A7BB394620466D
S21400109026F015FA43F210036380BBF1000F03D16C
S2140010A0E37843F00303E370364A0E9B02EB451CDD
S2140010B0CCE90193129B6901581E9DF84C30C0F391
S2140010C00A0003F003039B0643EA001E53582E480B
S2140010D0012E00EA03004EEA0003CDF800A05350AC
S2140010E017D0B8F1000F2ED19CF8023068F3041325
S2140010F08CF8023027E00021204626F0E0F94FF475
S21400110044736380BBF1000FCED1E37843F0300325
S214001110C9E713230CF1100ECCF80C309CE80F0036
S2140011208EE80F006FF00301DCF81C20109B61F3C3
S2140011309F02012FCCF81C20CCF8143003D1CCF839
S2140011401890CCF8043000270D4A290102EB05134D
S21400115042F80180159A28465A60694622469F60E2
S2140011605E7301F0B7FD384605B0BDE8F08F07485E
S214001170FAE70748F8E70748F6E700BF2B24002001
S214001180400F0020400E00200F80FFF3028000F08A
S214001190018000F0078000F038B5124B05461B783A
S2140011A0DBB1E0B11DF005F90F4A00231146147BB0
S2140011B054B92B6001251A0101EB03131D738C50E3
S2140011C01DF0FDF8204638BD0133082B02F1100251
S2140011D0EDD11DF0F4F80548F5E70548F3E70548B6
S2140011E0F1E700BF2B240020400F0020048000F011
S2140011F0028000F0018000F038B51DF0DAF8002318
S21400120005460B4A147B6CB90133082B02F1100219
S214001210F8D101F00BFD074B28461C701DF0CFF8E7
S214001220204603E028461DF0CAF8034838BD00BF34
S214001230400F00202B240020058000F00D4B10B539
S2140012401B78044693B1072812D81DF0B2F80A4B53
S21400125003EB04131A7B2AB100241C731DF0AFF8AD
S214001260204610BD1DF0ABF80448FAE70448F8E73E
S2140012700448F6E72B240020400F0020068000F0EC
S214001280028000F0018000F0154B13B518680023AB
S21400129001908DF804301DF08CF8124B1C7824B1A8
S2140012A01DF08DF8104802B010BD01221A701DF016
S2140012B086F80E4B01A81C731C7783F82C4083F825
S2140012C03C4083F84C4083F85C4083F86C4083F8DD
S2140012D07C4008238DF8073001F0CCFC2046E2E77E
S2140012E0578202002B240020038000F0400F0020CD
S2140012F00A4A08B512785AB107280BD8084A02EBF2
S21400130000131B7B43B1002101F0A6FC002008BDA2
S2140013100448FCE70448FAE70448F8E72B240020D2
S214001320400F0020028000F0018000F0078000F0EF
S2140013300A4A08B512785AB107280BD8084A02EBB1
S21400134000131B7B43B1012101F086FC002008BD81
S2140013500448FCE70448FAE70448F8E72B24002092
S214001360400F0020028000F0018000F0078000F0AF
S2140013700A4A08B5127852B107280AD8084A02EB7A
S21400138000131B7B3BB101F0F1FC002008BD0548B3
S214001390FCE70548FAE70548F8E700BF2B240020DD
S2140013A0400F0020028000F0018000F0078000F06F
S2140013B00D4B1B7893B1072812D889B10B4B03EB62
S2140013C000131B7B73B10A4B1A6D01238340134233
S2140013D014BF0123002300200B7070470548704798
S2140013E005487047054870472B240020400F002012
S2140013F000000450028000F0018000F0078000F03A
S2140014000B4A10B512780C4662B107280CD859B1B1
S214001410084A02EB00131B7B43B101F0B9FC2070B5
S214001420002010BD0448FCE70448FAE70448F8E743
S2140014302B240020400F0020028000F0018000F0E6
S214001440078000F0184B2DE9F0411F6D5B6D1F40C3
S21400145000D5FEE701260025144CDFF858803742F9
S21400146018D02368C8F85060A3B1A1682846013197
S2140014706268A1609847637B012B0BD150B90C4B77
S21400148003EB45131A7B60F341021A731A7F60F36D
S21400149041021A770135082D4FEA460604F110047A
S2140014A0DDD1BDE8F08100BF00000450400F0020F1
S2140014B0400E002000200450024B1968024B1868AA
S2140014C013F098BE382700205827002070B59400E7
S2140014D0224605460E4626F067FE431C0AD058B93B
S2140014E022463146284625F0C0FF0028034808BF9C
S2140014F0002070BD0248FCE70248FAE710E000F062
S21400150021E000F024E000F010B5044626F048FE86
S214001510431C10D088B901F003FD234620F00300D9
S2140015202044984201D1002010BD53F8042B01320C
S214001530F7D00348F8E70348F6E70348F4E700BFA8
S2140015400EE000F021E000F024E000F008B51CF00A
S21400155029FF014B186008BDB0160020014B186823
S2140015601CF024BFB0160020034B5A6812B19A6ACA
S214001570002AFAD1704700BF00400650024A936A1C
S2140015800342FCD1704700BF00400650436870B568
S214001590B3FA83F3104DC3F11F046B6801460BB119
S2140015A0FFF7E2FF01260D4B20205E60FFF7E6FF07
S2140015B00A7A4B7843EA420343EA04134A7AAB605A
S2140015C08B7A43EA42036B62054B5E600B7813B17D
S2140015D0FFF7CAFFEE6070BD004006500060065080
S2140015E000500650124910B504462020FFF7C6FFEB
S2140015F04B6843B934B14B680BB1FFF7B5FF012216
S2140016000C4B5A6010BD4B680BB1FFF7ADFF002CBA
S214001610F5D1FFF7A9FF0223CB60FFF7A5FFBDE8D2
S21400162010400122044B20205A60FFF7A7BF00BFDE
S21400163000400650005006500060065008B51020C6
S214001640FFF79CFF024B1963BDE80840FFF796BF03
S2140016500040065008B5FFF787FF02230449CB6019
S21400166000230B62FFF780FF0123CB6008BD00BF9D
S21400167000400650044BD3F88420D206FBD4D3F89F
S2140016808400C0F381107047004000502E4B9842F3
S2140016904AD022D82D4B984240D014D82C4B984292
S2140016A039D00AD82B4B984232D02B4B98422FD0A9
S2140016B02A4B98422CD000207047294B9842FAD1EA
S2140016C0284B186F7047284B98422AD0274B9842D1
S2140016D0F1D1244BD3F880007047254B98422BD08D
S2140016E009D8244B984223D0234B9842E3D11D4B74
S2140016F0D3F88C007047214B984221D003F5740331
S21400170003F510539842D6D1164BD3F8980070477D
S214001710144B986D7047134B586E7047114B586FAB
S2140017207047104B986F70470E4BD3F88400704785
S2140017300C4BD3F8880070470A4BD3F890007047DC
S214001740084BD3F8940070470048E8010024F400E2
S214001750C0CF6A0080841E0000093D0040420F0092
S214001760405DC6000080E00FC0EA210180BA8C010F
S214001770007E560380D54302006CDC020090D00346
S21400178038B5104B0546D3F820310C4603F003035A
S214001790022B0BD0032B0DD0012B0FD1FFF7D0FA65
S2140017A0052305B1286004B1236038BDFFF704FBAC
S2140017B00323F6E7FFF716FB0223F2E701230020D8
S2140017C0EFE700BF0080005073B50D4600210E4BBA
S2140017D00191D3F88041064604F00304012C09D099
S2140017E0022C0CD00C460EB1019B336005B12C6068
S2140017F002B070BD01A8FFF7C3FF0F24F3E7FFF7A1
S214001800F1FA0190EFE700BF0080005038B5184BA2
S2140018100546D3F824010C4600F00700062823D816
S214001820DFE800F0040A121A1E0E1600012305B1A6
S214001830286004B1236038BDFFF782FA0523F6E777
S214001840FFF77EFA0623F2E7FFF7B6FA0323EEE782
S214001850FFF7B2FA0423EAE7FFF7C4FA0223E6E743
S2140018601CF098FD0723E2E700231846DFE700BFD9
S2140018700080005038B5104B0546D3F840310C4672
S21400188003F00303022B0BD0032B0DD0012B0FD13B
S2140018901CF082FD092305B1286004B1236038BD21
S2140018A0FFF7A4FA0823F6E71CF079FD0B23F2E70E
S2140018B001230020EFE700BF0080005038B5144B2E
S2140018C00546D3F800020C4600F0070004281BD893
S2140018D0DFE800F003090D111500012305B12860AB
S2140018E004B1236038BD1CF057FD0923F6E7FFF767
S2140018F07DFA0823F2E71CF052FD0B23EEE7FFF714
S21400190045FA0E23800AE9E700231846E6E700BFFB
S2140019100080005038B5104B0546D3F840320C46D0
S21400192003F00303022B0BD0032B0DD0012B0FD19A
S2140019301CF032FD092305B1286004B1236038BDD0
S214001940FFF754FA0823F6E71CF029FD0B23F2E70D
S21400195000231846EFE700BF0080005038B5104B54
S2140019600546D3F860310C4603F00303022B0BD078
S214001970032B0DD0012B0FD11CF00EFD092305B152
S214001980286004B1236038BDFFF730FA0823F6E775
S2140019901CF005FD0B23F2E701230020EFE700BF54
S2140019A00080005010B40D4C0B46D4F8204204F0D2
S2140019B00304012C0AD0022C0CD008B100210160CF
S2140019C00BB100221A605DF8044B70475DF8044BBB
S2140019D0FFF7D6BE5DF8044BFFF74CBF0080005003
S2140019E038B50C4605461CF0DDFC054B9A6A54409B
S2140019F02C4054409C62BDE838401CF0D7BC00BF69
S214001A0000C00050B0F5207F1FD009D8B0F5007F89
S214001A1015D003D868B1B0F5C07F0AD000200CE01E
S214001A20B0F5607FFAD10B4BD3F88000C0F30110FD
S214001A3003E0084B186FC0F3033001307047054BC6
S214001A40D3F89000C0F30460F7E7024B186FC0F3BA
S214001A508020F2E7008000504FF400320E4B014623
S214001A6010B500209A66FFF7CDFF484341F6713265
S214001A700A490B4B884294BF00200120DC69DA63D8
S214001A809A6822F4401242EA00529A60E20344BF87
S214001A900022DA6310BD00BF00900050005A6202B8
S214001AA000000350420910B50FD0012A0FD00A4B90
S214001AB00A4C022A18BF234600F01F0049B103F55E
S214001AC08053012282401A6010BD1346F4E7044B8F
S214001AD0F2E703F50053F4E7688000506082005098
S214001AE06480005008B580201CF0E1FC034B98424F
S214001AF09EBF4FF48032024B1A6708BD005A62023E
S214001B0000A000501FB50023B0F5807F019377D06A
S214001B1028D8382800F094800BD82438092810D804
S214001B2009280ED8DFE800F0676767670D0D620DBD
S214001B30377D52285FD008D83D283BD03E2800F09D
S214001B408480019805B05DF804FB8028F9D1414BEC
S214001B501B6F03F00703013B032BF2D8DFE803F00B
S214001B6044413F6CB0F5D06F5BD019D8B0F5A06F8C
S214001B7066D00AD8B0F5806F3DD0B0F5906FE0D152
S214001B80002001A9FFF742FEDBE7B0F5B06F2DD0CD
S214001B90B0F5C06FD5D1002001A9FFF76BFED0E7E6
S214001BA0B0F5006FECD00AD8B0F5E06F4DD0B0F5C8
S214001BB0F06FC6D1002001A9FFF7D0FEC1E7B0F54F
S214001BC0086FBED1234BD3F8003103F00303022B7A
S214001BD02CD0032B2ED0012B30D1FFF7EDF80323AA
S214001BE000E005230193ACE70223FBE7002001A9F0
S214001BF0FFF7EAFDA5E7002001A9FFF7C1FDA0E772
S214001C0002934FF0E0231B695B0705D5FFF7BEF88C
S214001C100C230393039BE5E703A902A8FFF72AFE1C
S214001C20F8E7002001A9FFF749FE8AE7FFF7DEF88C
S214001C300823D7E71CF0AEFB0723D3E70123D1E741
S214001C40002001A9FFF7AEFE7BE7002001A9FFF701
S214001C5061FE76E7008000504FF48032074B08495B
S214001C60586E03F580535A660B6A23F001030B6225
S214001C70C3035CBF034B5A66704700BF008000502A
S214001C8000C0075000A0005008B5FFF73BFF08282B
S214001C9011D00938012802D94FF6FF7008BD4FF45D
S214001CA00012064B5A6603F5D8335B6ADB07F3D59A
S214001CB04FF4FA70F2E7024B1888EFE700900050F6
S214001CC0BA28002008B5FFF71DFF03280ABF024BFD
S214001CD04FF6FF70188808BDB8280020F8B50446EF
S214001CE08020FFF70FFF032800F087804FF40022C4
S214001CF0424B02215A6645F60E03414AC2F880302E
S214001D00404B9962012103F580539962936DD90384
S214001D10FCD4D4E900131B0543EA0163E17B94F885
S214001D2020500B43217BE77E43EA0143617B6D0134
S214001D3043EA0133A17B43EA811313619169D4E935
S214001D4004031B0643EA806301F000410B43A17EB7
S214001D5094F823000B43217E43EA0143617E43EA65
S214001D6001239361136AE66923F00D0394F82210A9
S214001D7043EA8703002E2DD11362966A94F8213029
S214001D8045EA031326F033052B4343F00103936221
S214001D901D4D1B4B9A6D35EA0202FBD10222194DEE
S214001DA0AA621A659A6D5200FCD41A69A56822F4D4
S214001DB0700242EA05521A614FF00042114B9A61D6
S214001DC019B9022203F580539A6278B901220F4BA3
S214001DD09A620BE0334343F008031362936A23F0DE
S214001DE0330303432B4343EA4103936294F82430BE
S214001DF01BB1034B064AC3F88020F8BD0090005084
S214001E0000C0005000D000500300014000E0005029
S214001E10F1A7FFFF1E4BFF2870B59E6A35D89A6D56
S214001E2012F4803F18BF01211A4A18BF916202219E
S214001E3091629B6DDC0303D5154A936D9907FCD51B
S214001E400222144B124D1A65AC6D14F08044FBD17F
S214001E50114AAB6992F9002023F47F03024423F46D
S214001E607F4382F3080243EA002343EA0243AB615E
S214001E7031460220FFF7B4FDAB6DDB0303D53146D8
S214001E800120FFF7ADFD204670BD2124FBE700BF13
S214001E9000C0005000D000502C240020014B93F9C5
S214001EA0000070472C24002001221548154B816A3B
S214001EB09A62826D02F00302032AFAD102229A6223
S214001EC01A650F4A936D5B00FCD40F48936D30EA99
S214001ED00303FBD101220B4B1A65A3F580539A6DC1
S214001EE09007FCD49A6D9207FCD50222054B1A6522
S214001EF0034A936D9B07FCD50320FFF771BD00BF17
S214001F0000C0005000D0005003000100014B1880B4
S214001F10704700BFB82800204FF4001208B5184BD1
S214001F205A660223174A5360936813F48033FBD132
S214001F30012822D1FEF740FF134B984215D003F537
S214001F40122303F5F863984213D0104B00EB80027F
S214001F50400AB3FBF0F3520A0A49CA620B63012334
S214001F604B620022074B5A6008BD45F67A13084AB2
S214001F70F2E745F61A03074AEEE75362F1E700BFB9
S214001F80009000500040025000F049026466666609
S214001F90D8B80500BBCF0500B0F5207F10B50C46BD
S214001FA042D008D8B0F5007F33D003D888B1B0F55A
S214001FB0C07F0ED010BDB0F5607FFBD11F4A4C1E0F
S214001FC0D2F8803023F0300343EA0413C2F880309E
S214001FD0F0E71CF064FA1CF02EFB4FF48031184B2F
S214001FE0164A1967136F013C23F4704343EA04331F
S214001FF01367FEF7CBFE0446FFF73CFBC0F1020179
S21400200020461CF012FB00F02DF8BDE81040FFF74C
S21400201069BD0A4A4C1ED2F8903023F0F85343EAC2
S2140020200463C2F89030C5E7044A4C1E136F23F4CD
S214002030806343EA84231367BCE700BF0080005038
S2140020400090005008B50121022000F0EDFA1CF0C7
S21400205026FA1CF0F0FA4FF48032014B1A6708BDDE
S2140020600090005008B54FF4C0701CF020FABDE890
S21400207008400449884294BF012102214FF4207091
S214002080FFF78ABF80F0FA02B0F5807F70B50C4685
S21400209000F0F88029D8382800F04B8110D8243872
S2140020A0092816D8092814D8DFE810F0DC00DC0070
S2140020B0DC00DC0013001300CD00130047003301E2
S2140020C0522800F0CF8005D83D2851D03E2800F099
S2140020D0428170BD8028FCD18B1E052B00F2B0809B
S2140020E0DFE803F0AB99AE69AEA8B0F5D06F00F0AC
S2140020F0108132D8B0F5A06F00F01B8116D8B0F56D
S214002100806F00F0AF80B0F5906FE2D1023C052CF6
S2140021108CBF0021984B994A98BF195DD2F824319C
S21400212023F007030B43C2F82431D2E7B0F5B06FB3
S21400213000F08980B0F5C06FCBD1083C032C8CBF73
S21400214000218F4B8D4A98BF195DD2F8403123F09D
S21400215003030B43C2F84031BBE7B0F5006FD5D0A0
S21400216016D8B0F5E06F00F0F680B0F5F06FB0D19D
S214002170083C032C8CBF0021824B804A98BF195D17
S214002180D2F8603123F003030B43C2F86031A0E7B6
S214002190B0F5086F9DD1CC1E052C8CBF00217A4B64
S2140021A0764A98BF195DD2F8003123F003030B433B
S2140021B0C2F800318DE7002502260121022000F03A
S2140021C033FA1CF06CF91CF036FA4FF480316F4B82
S2140021D06A4A1967136F23F0070333431367FEF742
S2140021E0D5FD0646FFF746FAC0F1020130461CF060
S2140021F01CFA0121002000F057FAFFF733FFFFF723
S21400220071FC002D7FF465AF032C7FF462AF0122D2
S2140022105F4B9A625DE74FF400225C4B0E465A66AF
S214002220012203F540539D6A03F58053C5F340052C
S2140022309A62C2E700250426BFE700250126BCE710
S21400224000252E46B9E7022C03D0A4F10F056C42F8
S2140022506C414A4AD2F8803123F003032343C2F884
S214002260803136E7023C032C8CBF0021494B434AA1
S21400227098BF195DD2F8203123F003030B43C2F850
S214002280203126E7A1F10804082C3FF622AF01A36F
S21400229053F824F0B9220000B9220000D320000031
S2140022A0B9220000E7220000D3200000D32000005F
S2140022B0D3200000B92200004FF480322F4B36495D
S2140022C0586E03F580535A660B6AC00343F0010349
S2140022D00B625CBF314B5A664FF0E022136923F065
S2140022E004031361F5E64FF48032244B2A49586EF6
S2140022F003F580535A660B6A23F001030B62C10391
S2140023005CBF264B5A664FF0E022136943F0040385
S214002310E7E7083C062C8CBF0021214B174A98BFE4
S214002320195DD2F8003223F007030B43C2F80032DF
S214002330CFE60F2C0DD0A4F110035C425C41640084
S2140023400E4AD2F8203223F003032343C2F8203289
S214002350BFE60124F4E7083C032C8CBF0021114B98
S214002360064A98BF195DD2F8403223F003030B43A8
S214002370C2F84032ADE600BF8A82020000800050FC
S21400238090820200908202007D820200009000503F
S21400239000E000509482020000C0075000A00050E9
S2140023A083820200908202004FF4C02270B5054678
S2140023B0FFF76CF9314B04465A6603F598335A68B2
S2140023C0012A04D12E494A609A699207FCD18020DE
S2140023D0FFF798FB052807D11CF061F81CF02BF9D5
S2140023E04FF48032254B1A67264B24F040749D42EA
S2140023F030D0254B9D4230D0FEF7A2FC85420646E3
S21400240003D90121284600F04FF9204BDA6812F074
S214002410060FFBD199689C609A68624012F4F81F18
S2140024201ED12846FEF792FC8020FFF76BFB05289E
S2140024300DD1FEF7ABFC0446FFF71CF9C0F1020114
S21400244020461CF0F2F8FFF70DFEFFF74BFBAE42FE
S2140024500CD270BD44F00074CEE744F08074CBE735
S21400246080209960FFF74EFB052805D0BDE8704038
S2140024700121002000F018B93546DAE70090005038
S21400248000E0015040420F0080841E000000015012
S21400249010B5224B70B94FF40031214A18605166CE
S2140024A002F598325268012A03D11E4AD2F800215A
S2140024B01A6010BD1B68002BFBD01B4A5268012A0D
S2140024C0F7D0184A8020C2F80031FFF71BFB05281A
S2140024D01FD14FF4C070FFF795FA0128044604D1C7
S2140024E002214FF4C070FFF757FD07220F4B1A6109
S2140024F00122A3F580535A600B4A1369DB07FCD50B
S214002500012CD6D12146BDE810404FF4C070FFF72D
S21400251043BD0122064B5A60CBE700BFB41600202D
S214002520009000500080005000C0015000E00150B4
S21400253000D00150044A4178536F23F4407343EAB5
S21400254001235367704700BF0040005010B5044693
S21400255010B10020FFF79CFF124A136943F00403F2
S214002560136103F0B3FA1CF082F80F4B5B6E5B014D
S21400257042BF0E4B0E4AC3F820241BF013FF25F073
S2140025800BFE1BF013FF1CF073F803F0C7FA1CB920
S214002590BDE81040FEF7FABB0120BDE81040FFF78B
S2140025A077BF00BF00ED00E00080005000E0035061
S2140025B00000FF0F10B5044610B10020FFF768FFBB
S2140025C0104A136943F0040313610F4B5B6E5B0103
S2140025D042BF0E4B0E4AC3F8202403F077FA1BF0D6
S2140025E0E1FE25F0D9FD1BF0E1FE03F097FA1CB9D9
S2140025F0BDE81040FEF7CABB0120BDE81040FFF75B
S21400260047BF00BF00ED00E00080005000E0035030
S2140026100000FF0F034A0179D36E23F030030B430B
S214002620D366704700400050F8B504461C4BD3F8FC
S2140026308420D106FBD4D3F88430C3F381139C42A4
S2140026402CD0FEF789FB012C064602D121461BF052
S214002650ECFF1BF0A7FE4FF00072124B07465A66BF
S21400266020461CF00EF84FF480630D4D621E93401A
S2140026702B676B6E9A0103D4D5F884309B060AD577
S21400268038461BF093FE022C08D13046BDE8F840D1
S21400269000211BF0CABFD5F88430EAE7F8BD00BFBA
S2140026A0004000500060005010B50C4608B9FEF718
S2140026B053FB074B21461B783BB1064B984204D888
S2140026C00120BDE81040FFF7AFBF0220F9E700BFCA
S2140026D02D240020005A62020278034B01210020BC
S2140026E01A70FFF7E1BF00BF2D2400204FF0004214
S2140026F038B5264B26495A6601224A604AF6CD313D
S21400270003F50B235D6C1964154030BB9968C90747
S2140027100BD4002401221F4B5A6015B11E4B1F4AD2
S2140027201A6424F006FA204638BD1A498A601C4A04
S214002730D96ACC0705D4904201D10724EAE70130D4
S214002740F6E79042E5D1F8E70132DC6A14F00804B7
S21400275006D08A42F8D10724DFE700221049F4E7C2
S2140027608A42F8D020220B4B0B495A620122A3F56D
S21400277080539A6023460A4A486A800603D49342E6
S214002780E9D00133F8E79342C7D1E4E70090005060
S2140027900050095000600950004009503254FFFFB5
S2140027A040420F004AF6E8532DE9F0411B4C1C4FFF
S2140027B0E56EE66E23661BF0F5FD8046FFF742FCED
S2140027C03B6F012023F0070343F001033B671BF038
S2140027D037FF0020FFF78AFF1BF051FF1BF050FF6A
S2140027E07B6E25F003055B0144BF0E4B0E4A45F099
S2140027F0020548BFC3F8202446F003060B4BE566E7
S214002800E666E566E666E566E666E566E666E56667
S2140028104046BDE8F0415B6A1BF0C8BD0040005072
S2140028200080005000E003500000FF0F00400950F9
S214002830F8B504460D461F4616464AB101238B409E
S2140028403021184A01FB0022F7B141F21001535023
S21400285004EB4403072D4FF00F014FEA031316D87D
S214002860A80006FA00F281400F4818441BF010FF3B
S2140028704EB9012330210B4AAB4001FB042277B14D
S21400288041F210015350F8BD42F21001DFE7A5F106
S2140028900800800006FA00F281400448E5E742F2AC
S2140028A01001EFE700C0035004C003500CC00350F3
S2140028B0F8B505460E4614465AB303F00307836878
S2140028C023F4407383601BF06DFDAA6882EA072339
S2140028D003F440735340AB601BF068FD36B9104BF1
S2140028E09D4217D12E201BF0E2FD0646AB680D4B2D
S2140028F0DA5D62430DD0A2EBC403013B3344B3FB65
S214002900F2F3AA68013B920702D5002B08BF012309
S214002910AB61F8BD044B9D42E8D12F20E3E700BF32
S2140029200000015A988202000080065038B5002345
S2140029300E4A036400F50053DA634A7804460D46EF
S21400294000F108037AB903F5805302221A60204684
S214002950D5E901122B7BFFF7ABFF20462978BDE8AF
S21400296038401BF0A5BE03F50053EEE7FFFF1F003F
S214002970874B70B5984219D0864B984240F0058137
S214002980854B9968C26B12F4C06F15D091050FD5B0
S214002990FD225A7009221A700022026493F901106F
S2140029A0012900D15A7093F9010070BD7B4BE8E70E
S2140029B05605EFD5FE22ECE71C78082C00F2E180E5
S2140029C0DFE814F009001F004500530070007E0089
S2140029D09C00A700D6004C880A88E5060AD5120A8D
S2140029E002F0060242F0F002012119704263C16053
S2140029F00120DAE702F0FE02A10748BF42F001021A
S214002A00F2E7160608D5802100F50052D1634FF68E
S214002A1008721A80022318E05506E9D5402400F50E
S214002A200052D4634A88D40604D502221A700B7862
S214002A304363DDE796076AD507221A701B7901EB18
S214002A40C3031B89012BD3D10823C360D0E7150627
S214002A50D9D45406CCD5402400F50052D4634A8815
S214002A60920754D503221A708CE74C880A88E6062B
S214002A7043BF120A02F0060242F0F00202F0FE0223
S214002A80650709D51C7942F0010201EBC4010989EA
S214002A90012904BF0821C160042119700123C36005
S214002AA04263A5E71406AED45206A1D5402400F52D
S214002AB00052D4634A88560729D507221A7097E72A
S214002AC01A795D8801EBC2042689AE420FD800242D
S214002AD00132D2B21A715C804C886507C2D4E40712
S214002AE002D4012A7FF64EAF08221A7092E7626877
S214002AF0691C5980525D42630622DFE7160682D4BF
S214002B0055067FF575AF402400F50052D4630522C4
S214002B10A9E794067FF56CAF456A214C46691A7999
S214002B203440B4F5003F04BF466A4FF4005601EB4C
S214002B30C20100F500540A8908BFE6632026E66352
S214002B405C88A24281BF4968661C5E800D55598824
S214002B508A42C9D90424012AC46004D0013A9142A9
S214002B6001D10822C2601A78092A3FF415AF3FE760
S214002B70D2057FF53DAF4FF4807100F50052D1636A
S214002B8008E74FF609321A8006E76FF003000CE7F5
S214002B900000015A00800650C4160020B816002017
S214002BA0200002001C4B10B4984207D01B4B9842E2
S214002BB02ED06FF003005DF8044B7047184B026987
S214002BC0D20744BF2022C2604A88940702D50C89E7
S214002BD0002CEED0520702D50A8A002AE9D04FF41C
S214002BE080721A60002299601A71C023C36043691C
S214002BF0DB050FD4202200F50053DA63094A5DF89E
S214002C00044BDA63036C43F4FC630364FFF7B0BE63
S214002C10054BD4E7436AEAE70000015A00800650F5
S214002C20B8160020FFFF1F00C416002010B51520A0
S214002C3001F072FD0024FF22064B21465C65202031
S214002C409A625C60FEF72EFF2146BDE81040212008
S214002C50FEF728BF00000450044A054B002908BFB1
S214002C601346012282401A60704700BF401004508D
S214002C704020045010B5012104462020FEF712FF24
S214002C8001212120FEF70EFF0122114B15205A606C
S214002C90227812069A606178A27842EA01429A6126
S214002CA0FF229A6200229A631A644FF000425A6525
S214002CB04FF0FF3203F500531A6501F04DFD152065
S214002CC0E17801F057FDBDE81040152001F036BD53
S214002CD000000450F8B50125C3B2DFF88CC0D1F867
S214002CE000E09D408F7ACB7A0C46097BCCF850509A
S214002CF00CF5005C4CF820E04FF0300E184E1B052B
S214002D000EFB006094F80DC043EA074343EA4153C4
S214002D1022F00302C0F860C0C36502671BF049FBDF
S214002D20104B5D65237A13B1336C2B433364637A9F
S214002D3013B1B36B2B43B3632279A37943EA0243FF
S214002D40094A93616179E37943EA014305498B6156
S214002D50034B55639D64BDE8F8401BF030BB00BFD5
S214002D6000000450001004500020045010B5012448
S214002D70C0B284401BF01DFB044B5A6D22EA0402CD
S214002D805A659C62BDE810401BF019BB0000045059
S214002D9010B50124C0B284401BF00BFB074BDA6A67
S214002DA0224208D15B6B9C430CBF012400241BF01D
S214002DB006FB204610BD0024F9E700BF00000450C3
S214002DC04FF40032054B9A6641F6713203F51C3318
S214002DD0DA63012203F50053DA6070470090005072
S214002DE041F671320121064BDA6303F50052D160D9
S214002DF00022DA634FF40032A3F518339A66704760
S214002E0000000350CB784A7810B55B010C7843EA93
S214002E1082030A79234343EA02130C22424302F157
S214002E20B0421363012C02BF8A78024B43F820207D
S214002E3010BD00BFE880035008B54FF0B0435A6895
S214002E406AB958B15B680BB11BF03CFC01210D4B15
S214002E5059601BF037FC4FF0B043D96008BD5B6883
S214002E600BB11BF02FFC0028F0D11BF02BFC4FF011
S214002E70B0430222DA601BF025FC0122024B5A60A6
S214002E80ECE700BF00100058002000584FF0B0419B
S214002E904B6810B50BB11BF015FC01220B4BC47828
S214002EA05A608378934043EA840344782343047942
S214002EB043EA0413447943EAC4038B60044B5A6024
S214002EC00378C3F10203CB6010BD00BF002000589A
S214002ED0001000584FF48032064B5A6603F5E6237E
S214002EE05B69C3F38512827003F03F021B0B4270CE
S214002EF00370704700900050014B03205B687047DA
S214002F000080E00F014B986CD96C70470080E00F92
S214002F10024B1868C0F30740704700BF0080E00F00
S214002F200120034B9B680A3303F01F039840704749
S214002F300080E00F70B5054616461C4621B94FF4D2
S214002F4020701BF0B4FA0146402C1BD003D8DCB12D
S214002F50202C1BD070BD602CFCD1042303FB06F292
S214002F60530803EB4113B3FBF2F3094A203B02EA92
S214002F70C303AA6822F06002AA60AA681443AC6081
S214002F80EB61E7E70623E9E71023E7E70823E5E731
S214002F90F8FF7F00012200F580535A6040F6AA63CE
S214002FA041F20502436100230B498360C365C2609A
S214002FB000F500520361C361C364916407498365E9
S214002FC0884203D103650023436502E00449884232
S214002FD0F8D0012353607047FFFF010000C0055082
S214002FE00000065070B50D46FFF7D4FF012300F52C
S214002FF080567360AB7C04461BB1836843F0804305
S2140030008360EB7C5BB1354A2B7D944245D1A2F5BB
S2140030101032C2F88C31E36D43F08003E3652A8AF0
S2140030206B7B20461343EA891343E3602B7BD5E989
S2140030300112FFF77FFF6B7D1BB1A36843F480335B
S214003040A360AB7D1BB1A36843F40043A360EB7D94
S2140030502A7E1B07120502F4E00203F0E043134346
S214003060A365697E1D4A8B1E012B1D4B1FD89442FB
S2140030701BD002F5804294420CBF01224FF0FF3273
S21400308003EB4213022041F21C620329985020D120
S2140030900423F3652B78636170BD124A944204BF23
S2140030A0A2F52032C2F89C31B5E70022E8E7944248
S2140030B00DD00C4A94420CBF01224FF0FF3203EBB6
S2140030C04213022042F21C6201299850DFE70022D8
S2140030D0F5E7042204F50053DA65DBE700C0055087
S2140030E000C003500000065038B50446054D23F0D6
S2140030F044FD0FCC0FC594E8030085E803000020CC
S21400310038BD00BFD016002047F6FF739A42F0B5D0
S2140031106FD002296FD8394B5B5C012B6BD8384DCA
S214003120DF0005EBC30415F83330A178012B13D16B
S2140031300025E078401AA84202D80844C0B2F0BD84
S214003140431B6668A0EB530336F913609642D4BF60
S2140031501D4603F1FF30EEE760680028EFD0B0F9B7
S2140031600040944204DBB0F902409442B8BF1446D3
S21400317083883D44FF2B19BFC8224FF0280CB0F9B6
S2140031800620B0F908C0A2EB04030CBF01260026F7
S21400319093FBFCF333446E781BB29E4201DD002B9A
S2140031A001DA731E1BB24FF47A7C01339BB2071D03
S2140031B05D1E2DB24FEAC50E00EBC505EA88AD6868
S2140031C09E4214FB025222EAE27202F15C02B2FB59
S2140031D0FCF204DD37F8335001339542E8D200EBB9
S2140031E00E039888904228BF1046884238BF08468B
S2140031F0A4E7FF20A3E70020A1E700BF9C8202000F
S214003200D01600200229F0B555D82C4B585C012862
S21400321051D82B4C04EBC00114F830004B68012841
S2140032200FD1C8788C78904294BFC4EB0001C4EBF1
S2140032300201001BCAB28242C8BF002233F9120044
S214003240F0BD002B37D08878904202D3B3F9020045
S214003250F6E7CC78B3F900009442F1D94C78998817
S214003260013CA1F1FF06714203F10405E4B271418D
S21400327003F10C07CEB2B44216D805EBC1014FF4E9
S2140032807A756A43B1F902404968521A04EBD47160
S21400329002EB610292FBF4F29042D1DBB3F902003A
S2140032A09042CDDC10B2CBE737F831C04E1C9445C7
S2140032B0E3D33146DEE70348C2E700BF9C82020044
S2140032C0D01600200080FFFF08B50448FFF70CFF6B
S2140032D0BDE80840012023F054BC00BFA0820200D5
S2140032E000487047BC28002006289ABF014B185C8F
S2140032F0002070472483020030B5154B87B0029338
S214003300144B0390049346F611030D46059300F004
S21400331077F91428044616D168461BF083FA4FF056
S214003320A843032202A95A6319601D619A63DA6BE7
S2140033309207FCD1142C02D168461BF081FA00F0EB
S21400334093F9044601E00028E9D0204607B030BDD6
S214003350E8160020040000202DE9F04FB1B0054625
S2140033608C469E46E8466F4EDDF8EC90409C06F193
S214003370100A474630687168083603C75645B8468F
S214003380F7D13E9B03EB0208C8F1000A0AF00F0AC9
S214003390B9F1000F00F09D80C9F1000707F00F0794
S2140033A00121DDF8FCB044F00050C4F11006CDF861
S2140033B010B005910690300200F4F85040F021005D
S2140033C00790B9F1000F40F08680CDF820D047F086
S2140033D00050002D00F08480099121210A9041EAD6
S2140033E007210B9142F00050CDF830C03D9B08A954
S2140033F04FEA0A2C0D910E904CF041000F9010935E
S214003400002A75D13E9B119143F0005312933C9BCA
S2140034101390149310AB1593434B444A169340F6FF
S21400342011031793424B0021002D08BF1346189333
S21400343014AB19933F4B10221A9311231B931CAB0A
S214003440184624F03CF801221D92002246F08046E1
S21400345003461E96239205B9EB46102CCDF880B095
S21400346024AE4BD1012322460021304621932294DC
S21400347024F025F820AB002125938F4218BF334651
S21400348047F0804226923A9A2CA828922993B2FABC
S21400349082F35B0949EA837310222B912A9324F066
S2140034A00EF8B9F1000F00D028AED04448F08043A3
S2140034B02CA918A82D962E93FFF71EFF30B92DB90C
S2140034C00346A34225D1002818BF2C2031B0BDE802
S2140034D0F08F102764E7CDF820E049F0005078E739
S2140034E0002C3FF479AF04A9099101210A9076E7F0
S2140034F03E9B0CAA11924120129388E710220021CD
S21400350030462193229423F0DAFF002CB2D1012317
S214003510B1E703F1C0026A4412F8C02C013310432D
S214003520CFE700BF2B83020010000020408302007C
S2140035304483020004000020F0B5C0299FB0DDE9F6
S214003540244557D0B1F5807F04D0802948D0292063
S2140035501FB0F0BD01265CB140F23447029410243F
S21400356003960494212401970594069502AC0AE07C
S21400357040F21447029410240396049421240594E0
S21400358001240197069507940125102408940995AF
S2140035900A9221220B950C940D92174A0AAD0E92B0
S2140035A0164A0F95109242F6110211921293139535
S2140035B01494159201AA1692D3B112AB1793042352
S2140035C018931123199316AB1A901B9340F6110308
S2140035D0C9081C911AA806A91D93FFF78DFEB7E728
S2140035E0012614B94FF48267C4E74FF48667B5E73F
S2140035F00EABE3E70F20ABE73C83020010000010A1
S21400360038B5164B5A6E42F004025A66D3F880223A
S21400361042F00102C3F88022114B5B68C3F3080333
S21400362043B14FF0A842D36B13F0430FFBD11424E1
S214003630204638BD4FF0A843DC6B14F04304FBD1A2
S214003640084D2B681BB90421284603F05FFC2B6845
S214003650013343F000432B60EAE700BF00800050D0
S21400366000ED00E0E8160020014B00205B68704784
S21400367000ED00E04FF40052034B00209A66032250
S214003680C3F86022704700BF009000504FF400520D
S214003690034B00209A660322C3F86022704700BFDF
S2140036A000A00050012300F01F02A0F506200949E3
S2140036B0A0F550604009934051F820201A4341F885
S2140036C02020054951F8202022EA030241F8202054
S2140036D0704700BF00170020EC1600200121A0F55F
S2140036E006230E4AA3F550635B0900F01F008140D5
S2140036F052F82300014342F823100949D1E900306B
S214003700034488680344C868096903445B1802BF19
S214003710C2E90033C2E9023313617047EC16002099
S214003720001700202DE9F04FA9B003921D4604466D
S2140037300822339ECDE90401414021FA02F34B40B2
S214003740980702F1080218BF9B00202A1C44F4D1F7
S2140037508123B4FBF3F303EBC313E41A734B04F5B2
S21400376006241B7804F55064002B3ED1FDF7A4FE1A
S214003770074620B16FF0910029B0BDE8F08F0146F2
S214003780402208A823F09BFE4022394618A823F0C2
S21400379096FEDFF8B481DFF8B491C3460BF10F0A4A
S2140037A0CDF800A0102208A95B46D9F8000022F048
S2140037B05FFF0022014608F1100808AF914246D18B
S2140037C0CDF800A05B461022D9F8000018A922F018
S2140037D058FF4FF0000A834618AFD34541D1544BEB
S2140037E09845DAD10122514B1A704FF0810A4FF0FA
S2140037F00008DFF85CB1A4F50627A7F550635B095F
S2140038005BF8232004F01F01CA40D2073DD4494A82
S21400381052F82330CB40DB072AD5B8F1000F08BF9B
S214003820A0468123A7F6FF47B7FBF3F303EBC313CA
S214003830FF1A07F50624BAF1010A04F55064DAD136
S214003840039BBBB1B8F1000F14D0444619E057F8FB
S214003850040BCDE90612FFF725FF079A06990132F9
S214003860ACE757F8040BFFF739FF0AF1010AB4E793
S214003870039B13B96FF08B007EE7B8F1000F18BFFB
S2140038804446349B00201C6076E7329B13B100232D
S214003890329A13600EB1002333601023DFF8AC9029
S2140038A000932A4600232146D9F8000011F014FEA2
S2140038B060BB32992A68204BC9B99A4206D0214685
S2140038C0D9F8000011F0A0FE0028D3D1D5E90223D4
S2140038D0DDE90410834208BF8A42A2D1039B002B75
S2140038E0CFD06B68012BCCD16FF0840044E710205A
S2140038F032999A420860E2D1002EE7D0334621463C
S214003900D9F8000018AA11F03BFE48B10B4B9842BC
S214003910D5D00B4B9842D2D00A4B9842D6D029E746
S214003920329A336812689B1A3360CFE72E24002041
S21400393000710800EC160020105D175EFFDF00F037
S21400394011E000F0FEDF00F0006D080058270020B0
S214003950001700202DE9F04F87B08246894698462A
S2140039601646DDF840B02AB1002B4FD040F26C73FB
S2140039709A424ED8BBF1010F4ED8002406F110072C
S2140039803946012005941BF01FFB0546002846D04B
S21400399021463A4623F093FD05ABCDE9014300945A
S2140039A02B46012250464946FFF7BCFE044680B12E
S2140039B010F18C0F08BF6FF08D043A4600212846A0
S2140039C023F07DFD28461BF0E1FA204607B0BDE84F
S2140039D0F08F144BC5E902A92B60C5F804B02EB1D0
S2140039E03246414605F1100023F074FD059E0E4850
S2140039F03B462A463146006811F0D6FC18B93046D8
S214003A00FFF750FED9E76FF09104D6E76FF0860413
S214003A10DBE76FF09104D8E76FF08504D5E76FF029
S214003A208C04D2E7105D175E582700202DE9F0437E
S214003A308DB08146DDE914780E4615461C469BB1CE
S214003A40B8F1000F05D16FF0860630460DB0BDE820
S214003A50F083002FF7D0B7F1005FF4D3C3F1005323
S214003A6003F500439F42EED81022002108A823F059
S214003A7026FD002207AB029305AB019306AB314649
S214003A800093484608ABCDE90522FFF74BFE0646F5
S214003A900028DAD1059BA4B1AB4215D853EA050439
S214003AA0D1D1069B0B48C8F8004000943A460799C7
S214003AB000682B4411F010FD002818BF6FF0910627
S214003AC0C3E7AB42EDD2BEE75B1B9C4228BF1C4659
S214003AD0E7E700BF5827002030B58DB00C460546F6
S214003AE01022002108A823F0EAFC002207AB02936C
S214003AF005AB019306AB21460093284608ABCDE9FB
S214003B000522FFF70FFE0446D8B9099B012B1BD0F0
S214003B10079D104B2946186811F076FDB8B90122AA
S214003B20A5F506230C49A3F550635B0905F01F00B5
S214003B30824051F823004240284641F82320FFF7F0
S214003B40CDFD20460DB030BD6FF08404F9E76FF070
S214003B509104F6E758270020001700202DE9F04FC3
S214003B6089B007460E4602F0CFFCC00709D40424ED
S214003B7001201BF0C6FE80B3013CF9D16FF0920025
S214003B8028E0102200210DEB020023F098FC04A888
S214003B9002F01CFD049B002BE9D0059B002BE6D011
S214003BA0069B002BE3D0079B002BE0D00025DFF818
S214003BB0808008F10409B54219D34FF48A7402F0E4
S214003BC09DFC00F00E03062B2DD1C30501D502F097
S214003BD0C7FC002009B0BDE8F08F02F08FFC10F0A3
S214003BE00E03FAD0022BF8D04105DFD5C4E702F069
S214003BF07FFCA6EB050A8400544528BF544699E886
S214003C00030000238DE80300CDE9054307EB050B11
S214003C10CDF810B0029404AAD8F8003007CA1BF0FA
S214003C2069FD2544C7E724FA03F3DA07A6D5C6E7F5
S214003C30508302002DE9F0438BB01746DDE91545A9
S214003C40DDE913269C46DDE91738894621B96FF071
S214003C5086000BB0BDE8F083002FF8D00EB9002C1C
S214003C60F5D1129909B9002AF1D10DB9002BEED180
S214003C70B8F1000FEBD0244A944541D10288B2F542
S214003C80105F3DD14288B7EBD20FE0D322F040015F
S214003C90802902D0B2F5807FD9D16CB3AE421CD257
S214003CA03219954219D29C42D1D83146224628462E
S214003CB023F0EBFB2E4614F00F03C8D1CDE9019795
S214003CC0CDE90336CDE90543CDE907540993FFF75F
S214003CD0D1FC38B16FF09200BBE79C42EBD96FF095
S214003CE08900B6E707AA04A901A802F033FD054635
S214003CF0FFF7CCFC0543EDD10020C8F80040A8E74C
S214003D006FF08500A5E700BF004440042DE9F04FA2
S214003D10A9B0834617469A460E46DDF8C890DDF8E9
S214003D20D88029B96FF08603184629B0BDE8F08F11
S214003D30002AF7D0B9F1000FF4D0349B002BF1D055
S214003D40B8F1000FEED00024424B0CAD93E807000C
S214003D5085E807003C22214619A8189423F0AFFBFB
S214003D603388728803F4E040B0F5804FDAD03A4EDC
S214003D703A480BEA060646F01066864263D1B2F56C
S214003D80807F60D147F2121293425CD10620344AFB
S214003D90BAF11F0FD3680E940B931369126800FBD9
S214003DA003F3CDE90C23BDD9339B402BBAD9359B01
S214003DB01F2B4BD909F1010220261292402299F8B6
S214003DC000300F97042B18AFCDE91324CDE91572F8
S214003DD0109611941794A5D1FFF74CFC03460028C3
S214003DE0A2D10B9B15AACDE9086305AB07CA83E8E9
S214003DF0070002AB12AA07CA83E80700DDE9100134
S214003E008DE803000F9B95E8070002F07DFD054650
S214003E10FFF73CFC55EA000384D13D46349A20AEB9
S214003E202C4603CCB44210605160254602F10802CD
S214003E30F6D100221146B9540132402AFBD1202285
S214003E40C8F8002070E76FF085036DE76FF0890310
S214003E506AE700BF508402000000FFF60000020977
S214003E6064840200F0B50E461D468BB0002853D081
S214003E70002951D0002A4FD0002B4DD0048804F4DE
S214003E804F43B3F5824F03D06FF085000BB0F0BD03
S214003E90E3B224F0FF04B4F5E24FB0F802C0F3D169
S214003EA0122B01D0172BEFD10CF10701B2EBD10F7B
S214003EB04FEAD10733D31D4A04ACBCF5807F07CA4E
S214003EC084E80700E0D1122B07D1194B1A691B684A
S214003ED01344CDE90432002306930023CDE9076797
S214003EE00993FFF7C7FB0028D0D1124A02AB92E82D
S214003EF0030083E803000AAB13E903008DE8030020
S214003F00079B94E807001BF07AFB0446FFF7BEFB0E
S214003F10204307D12F60B9E76FF08600B6E76FF051
S214003F208900B3E76FF09200B0E700BF508402004C
S214003F3064840200488302002DE9F0438FB01D46DA
S214003F40DDE916C600285CD000295AD0002A58D0D1
S214003F50002B56D0BCF1000F53D0002E51D0038852
S214003F6003F44F44B4F5824F51D1DCB223F0FF0383
S214003F70B3F5824F40884AD0122C01D0172C46D178
S214003F80C31DB2EBD30F4FEAD3083AD34FEA480229
S214003F90571C674538D8B0F5807F38D1122C18BF2B
S214003FA04FF000094FF0000308BF1C4CCDE908187D
S214003FB005F1010114BF4C46D4F80C90CDE90B1264
S214003FC00A930D93FFF756FBC0B9CDE9058902ABFE
S214003FD008AA07CA83E807000EAB13E903008DE8BA
S214003FE003000B9B94E807001BF028FB0446FFF732
S214003FF04DFB20430ED104232B7037600FB0BDE875
S214004000F0836FF08600F9E76FF08900F6E76FF04F
S2140040108500F3E76FF09200F0E700BF64840200CB
S2140040202DE9F04389B00E4615461F46DDF8488058
S21400403020B96FF0860009B0BDE8F0830029F8D0FB
S214004040002AF6D0B8F1000FF3D0038803F44F42ED
S214004050B2F5824F02D06FF08500ECE7DAB2122A92
S21400406001D0172AF7D123F0FF03B3F5E24F41D171
S2140040704488C8F8004044B9EB00B3F5807FC8F820
S2140040800030E8D1122A0DD108E0E31DB5EBD30FBE
S214004090CFD1B4F5807FDED1122A29D1354B1C68EA
S2140040A01B691C440023194670192C4414F801CDD2
S2140040B010F8012D1143B2EB0C020CBF4FF0FF3C81
S2140040C04FF0000C86420CEA030343EA0203EDD1EC
S2140040D00029AED0002BACDA109B9D4246D82A466B
S2140040E03146384623F0F6F9119B00201D60A2E702
S2140040F00024D7E73378042B9BD16B1EDB005B08CC
S214004100B3F5807FC8F80030A5D1122A06F1010366
S21400411018BF4FF000094FF0400205934FF0000320
S2140041200ABF144C4C46D4F80C90CDE90623FFF792
S214004130A1FA00287FF47FAFCDF80C90D8F80030B5
S2140041400733DB08029308AB13E903008DE803008E
S214004150059B94E807001BF01EFB0446FFF796FA43
S21400416000287FF468AF002CB6D062E76FF08900B5
S21400417061E700BF648402000388B3F5105F0ED1C8
S2140041804388DB08103B102B0CD8084A22FA03F3AE
S21400419013F0010F14BF00206FF0860070476FF019
S2140041A0850070476FF08600704700BF0101010070
S2140041B02DE9F04F8FB01546DDE918A91E46DDF84B
S2140041C068801C9F09B300B3B8F1000F1DD0E7B19B
S2140041D0BAF1000F02D1B9F1000F16D1274B26F421
S2140041E07E129A42B0F802B044D1FFF7C5FF0446EB
S2140041F0A8BBB5EBDB0F4FEADB0306D316F47C1F38
S214004200C6F3054504D0102D03D96FF0860426E0CA
S21400421010251B9A95422AD8CDE9011300231022B7
S214004220CDE905930DF12809CDE9033ACDE9082338
S214004230CDF81C90FFF71EFA044680B907AA04A919
S21400424001A802F09BFA0646FFF720FA044656B984
S21400425058B92A464946404623F03CF93D60204678
S2140042600FB0BDE8F08F6FF092040025F6E76FF010
S2140042708904F4E76FF08504F1E700BF0002C0038D
S2140042802DE9F041069F0C461646054610B309B3C5
S21400429002B9FBB96288B3EBD20F4FEAD20819D342
S2140042A04C220021284623F00AF90D4B27F47E12F3
S2140042B09A4212D12046FFF75FFF044638B94246BD
S2140042C03146281D23F006F9C5F824802F602046C5
S2140042D0BDE8F0816FF08604F9E76FF08504F6E735
S2140042E00002C0032DE9F0410E461446054600289C
S2140042F040D000293ED092B10368214823F47E13B3
S21400430083423AD1AF6BF7B1C7F1100807F1280026
S2140043104245284406D2274423F0DCF8AF63002049
S214004320BDE8F081424623F0D5F81022103C3C1937
S214004330AA63F4D0284605F128011AF0DCFA002812
S214004340EED14644A863102C0CD9671E27F00F0741
S2140043503A46314628461AF0CEFA0028E0D1E41B49
S214004360DDD03E442246314605F1280023F0B2F85F
S214004370AC63D4E76FF08600D2E76FF08800CFE733
S2140043800002C0032DE9F04388461F4605468BB061
S21400439070B169B163B10368234923F47E10884283
S2140043A03ED113F47C1FC3F3054604D0102E03D968
S2140043B06FF086042AE0102696422BD8FFF75AF9AB
S2140043C0044618BBAB6B05F12802CDE901236B6AE6
S2140043D02A1DCDE904231023CDE9083007AB1A4681
S2140043E00390069005F13C0901A904A8CDF81C909D
S2140043F002F0E8F90546FFF749F904466DB928B911
S21400440032464946404623F065F83E6020460BB0EB
S214004410BDE8F0836FF08904F8E76FF09204F5E7E3
S2140044206FF08504F2E700BF0002C00370B50546D2
S2140044300C4619F0BEFF072D064607D8BB23EB40F7
S214004440DB0737D40023238021243DE0083DEBB270
S214004450142BF7D8142DF5D801A353F825F000BF78
S214004460D3440000D9440000454400004544000001
S214004470DF440000E944000045440000EF4400002B
S214004480EF44000045440000F744000045440000A7
S214004490EF44000045440000454400004544000049
S2140044A045440000454400004544000045440000E3
S2140044B0EF4400008020FDF705FC4FF6FF7398429E
S2140044C020800CBF0E240024304619F078FF2046CA
S2140044D070BD4FF48060EEE74FF49060EBE74FF46A
S2140044E0C060FDF7D1FBE8E74FF4F060F9E7002382
S2140044F023800F24E8E74FF4E060F2E7B8B10368E2
S21400450013F4E07F03F03F00C3F382120AD0012ABF
S2140045100DD1084B41B103F58053012282401A6049
S21400452000207047044BF5E703F50053F5E70E202F
S214004530704700BF688000506480005030B58BB074
S2140045406C46574D0FCD0FC40FCD0FC495E8030032
S21400455084E80300534BD3F84C21110340F18B80C1
S214004560A3F5FE431C884FF6FF739C4208BF7924D0
S2140045708DF81940FDF792FC044484F308044A4879
S2140045808DF81840FCF71EFC6846FDF7A7FB3220A6
S214004590FDF7BCFC4548FDF707FF454C01213520DB
S2140045A0FDF780FA0020FDF7B7FCFDF74BFD236F03
S2140045B0002023F0070343F003032367236F23F44D
S2140045C0744343F4806323671AF03AF8394BD3F800
S2140045D0FC20D20153D4D4F88030C4F88030344B59
S2140045E0D3F8202122F0030242F00202C3F8202171
S2140045F0D3F8242122F0070242F00202C3F8242155
S214004600D3F8802122F0030242F00102C3F8802191
S214004610D3F8402122F0030242F00102C3F8402101
S214004620D3F8602122F0030242F00102C3F86021B1
S214004630D3F8402222F0030242F00102C3F84022DF
S214004640D3F8002222F0070242F00102C3F800224B
S214004650D3F8202222F0030242F00102C3F82022FF
S214004660FDF7FAFA4FF0E0220020136963F0040326
S21400467013610BB030BDD3F85041E4B278E7D3F8FD
S214004680FC2022F08072C3F8FC20D4F88020C4F806
S2140046908020D3F8FC2042F08072C3F8FC209EE70E
S2140046A05C8302000080E00F00F0490200B4C404FE
S2140046B00080005000ED00E06FF00403502110B5BC
S2140046C00A480B4C13F0800F03F1010206D1234475
S2140046D0402A83F800131346F4D110BD03F00F03ED
S2140046E0043B034419761346ECE700BF00ED00E0F8
S2140046F000E100E0BFF34F8F0549064BCA6802F49D
S214004700E0621343CB60BFF34F8F00BFFDE700BFEF
S21400471000ED00E00400FA0500280CDB0122064943
S214004720430900F01F008240203341F82320BFF3E6
S2140047304F8FBFF36F8F704700E100E0002807DB64
S21400474001234109034A00F01F00834042F821304C
S214004750704700BF00E100E0002808DB01224309A3
S214004760034900F01F008240603341F82320704761
S21400477000E100E00028ACBF00F16040064B4FEAC5
S2140047800111C9B2ABBF00F5614000F00F0080F820
S21400479000131954704700BF14ED00E010B504462E
S2140047A019F000FE024B1C6019F000FE002010BD40
S2140047B01417002010B519F0F5FD034B1C6819F00E
S2140047C0F5FD204610BD00BF14170020034B022243
S2140047D0186800238068194618F010B8682800206A
S2140047E030B51446054687B010461AF0E7F96369F7
S2140047F0024683423CBFD4E903315B181B1A7BB1E7
S2140048000F49049403910021CDE90131012300935F
S2140048102846D4E9001319F0F3FD002007B030BD98
S2140048200122627694F82D20002AF6D084F83530DE
S2140048301321E369204698472046636A9847ECE7C9
S214004840E14700002DE9F04788B004460F461646BB
S214004850984619F0AEFD8146002E7AD0237E03F0EE
S214004860FF02002B00F0A28020461AF0A7F9656927
S214004870A84205D1637ED4E9033213445D1B01E0F0
S214004880F9D9451BB54228BF354619F092FD94F874
S2140048902D308246002B6DD12A463846616922F0BB
S2140048A019FE63692E462B44636121E0037803F00A
S2140048B0FD0111295BD1216B814205D1A3F11101C4
S2140048C04B424B4184F83430013E6369216B013220
S2140048D08B4203F1010308BF23636361954260695D
S2140048E0E4D1D4E90323216B1344994200D1226317
S2140048F00025D4E9032361691344994208BF626125
S214004900207A6576FCF7F4FC20461AF057F96369BE
S214004910834232D1257694F82D30E568656103B17F
S21400492025632046636A9847214B0494039300232B
S214004930029323692A460193012300936368216842
S214004940207A19F05DFD207AFCF7F2FC504619F04B
S21400495036FD4846C8F8006019F031FDD8F800303A
S214004960002B0CBF1B20002008B0BDE8F08707F81E
S214004970013BAAE72E460022B0E70123207A2376E1
S2140049800DF11E01FCF73CFD9DF81E30002BDAD021
S2140049900DF11F01207AFCF70BFD9DF81F10002972
S2140049A0D1D12246207AFFF71BFFCCE71646D0E788
S2140049B0E14700002DE9F0410C461546064686B054
S2140049C04022002120461F4622F079FD95E803008C
S2140049D000232A692376EB6884E80300C4E90423ED
S2140049E02A7DE36084F82C20AA7D2363012384F8C3
S2140049F0343084F835300C9B84F82D2023620D9BD0
S214004A00E76163620E9BA3622B7A84F836306B7A7A
S214004A1084F837302D4B346073602D4BB3602D4BCC
S214004A2033612D4B73612D4BF360FCF72DFC38B1D1
S214004A302B4B984204D01024204606B0BDE8F081E7
S214004A40002104F10800FCF7A7FB07460028F2D176
S214004A504FF00108234B3362234B84F83C80B3614C
S214004A60224BF3619DF8403084F8390084F83B30DF
S214004A709DF83C30204684F83A30697D84F83880CA
S214004A801AF0D9F895F90900FFF766FE95F90900BE
S214004A90FFF754FE164B0494CDE902732369CDE963
S214004AA000836368E2682168207A19F0A9FC04464E
S214004AB00028C0D195F90800FFF74EFE95F90800CA
S214004AC0FFF73CFE3046FFF769FEB5E787EC0100CE
S214004AD045480000ABEB0100B1EB0100DDEB010047
S214004AE0038000F085EB010037EC0100B7EB010016
S214004AF0E14700002DE9F04101271C46584B86B0DF
S214004B000293584B0C9D0193574B904600930A46D0
S214004B10CDE903772946554BFFF74CFF064600289C
S214004B2040F09680236839462B6463683A206B64AD
S214004B30637A85F84930237A85F84830E37A85F831
S214004B404B30A37A85F84A30637B85F84D30237B5B
S214004B5085F84C30E37B85F84F30A37B85F84E30E4
S214004B60FCF7A0FF3B460422617A207AFDF760FE40
S214004B703B460222E17AA07AFDF75AFE3946606883
S214004B80FCF790FF88F8006041462068FEF72AFA96
S214004B901422637C5B0103F1A04303F57033C3F872
S214004BA01C26617A227A42EA0142C3F83426E17A68
S214004BB0A27A42EA0142C3F82C2685F8506098F89B
S214004BC01930032B4AD8DFE803F03447021C0223CF
S214004BD085F8503000230422E17BA07BFDF728FEF9
S214004BE0022741F21C61627C214B03EB42104750C6
S214004BF0E07BA17BB13241EA004103EB42139960AE
S214004C0017E0012785F8503002220023617B207BC5
S214004C10FDF70EFE637B227B617C42EA0342154B66
S214004C2049015A500422236803F58053DA65002FA1
S214004C30D0D1237A2A6C85F84830637A052185F826
S214004C404930D36C206843F00403D36419F042FD66
S214004C50304606B0BDE8F0810027D3E72326F7E705
S214004C60B5ED0100A9ED010041EE010035EE0100B1
S214004C7000C0035024D6035073B50024684600F0E5
S214004C80E9F90C4B00981C600B4B0C4D1C600C4E4D
S214004C900C4B306018602C601AF0A6F92046019B79
S214004CA03268083BDB0853802B6801332B6002B068
S214004CB070BD00BF1C17002018170020201700200A
S214004CC028170020241700202DE9F04F002615464F
S214004CD089B04A1C0C4614BF89464FF0080998460E
S214004CE00796002B00F0DB801E60002800F0D980BD
S214004CF0C71D19F05EFB27F0070B07AB2146039094
S214004D0000932A463346584600F0AEF9079C0646FE
S214004D1004B130B9039819F052FB192009B0BDE868
S214004D20F08FDFF89CA16288DAF80010D300C0EBA1
S214004D30C2020139272A0493CAF8001040F2828082
S214004D40002D5AD183450BF1080551D0494620461F
S214004D501AF0D6F881460790079A02EB050B5846DC
S214004D601AF042F90799C5F3CF054A88ABF8045004
S214004D70521BABF80220CA88002A3BD0551BADB2A6
S214004D8001EBC202ABF8065095808A884849A9F81C
S214004D900420BBF80420FF08A9F806200A68A9F832
S214004DA00270944208BFC1F800B042490A689442B3
S214004DB001D1C1F800B099F8002042F0010289F84C
S214004DC00020DAF800200132CAF800203A4A039898
S214004DD0136833441360394A11688B4288BF1360E6
S214004DE019F0EDFA09F108030020C8F8003095E73D
S214004DF0A146B1E7ABF80620C7E704EB0209484630
S214004E0005921AF0F1F8079C059AF108E088A9F8CF
S214004E100210D108A9F8041088B1049BC3EBC001A6
S214004E203144C1F3CF0104EBC000A9F8061081801D
S214004E30083AD2086280B9F80420E280BBE7A9F8F5
S214004E400600F5E7012D2ED104F10802B2FBF9F1B8
S214004E5009FB11224AB3494620461AF051F881460A
S214004E6099F80020DAF8003042F00102104F114D98
S214004E7089F8002083B13B689C4204D14946002053
S214004E8000F03EF938602B689C429FD149460120CD
S214004E9000F036F9286099E73B602B6096E7222001
S214004EA03CE721203AE78345D5D1A146D8E700BFA5
S214004EB028170020241700201C1700201817002091
S214004EC0201700202DE9F3410446684600F0C2F89A
S214004ED0002C00F0B48019F06CFA14F808CC1CF022
S214004EE0010F02D034F8061C29B919F068FA01201F
S214004EF002B0BDE8F081534D34F8047CD5F800E0EC
S214004F004A1C0EF10103A4F1080692B22B60002F92
S214004F1037D0A6EBC70393F800800CF0020C18F00D
S214004F20010F20D1BCF1000F20D15A880231114464
S214004F308AB2C5F800E034F802CCBCF1000F22D1EA
S214004F4014F8085C511E6FF3000504F8085C002591
S214004F5089B224F8065C5980197865F30001197047
S214004F600021D98030E0BCF1000F0AD014F8081CEC
S214004F7017446FF3410104F8081C0021BAB2998067
S214004F80D9E73346D7E706EBCC0EDDE900710F44D0
S214004F90BE45D5D216F83C60714616F001072BD0F8
S214004FA014F8085C6FF3000504F8085C002524F884
S214004FB0065C541E5C801C7865F300041C70CC1ADA
S214004FC0C4F3CF04DC808C801F4C216819B1994251
S214004FD001D8498801B923601C4C216819B199424F
S214004FE001D3498801B9236019490B689B1A0B60E5
S214004FF019F0E5F900207BE7BEF80260AEF8027013
S21400500001363244BEF8066092B2B6B10EEBC60167
S2140050102E68013E2E6014F8085C6FF3000504F855
S214005020085C002524F8065C541E5C801C7865F33A
S21400503000041C700029C2D192E73146E8E722201E
S21400504056E700BF2017002028170020241700204E
S2140050501C1700200249034A0160521A426070473A
S2140050600829002000800020F0B506460020059F95
S2140050704C1C08BF08213860BAB91F480568002DC7
S21400508038D0B5F802E0DB0003EBCE0EC1F1000C21
S2140050902878C0070BD52ABBE888B0B105EBC00559
S2140050A0B5F802E003EBCE0EF2E71448E6E7B645A5
S2140050B0F1D35AB905F10804B4FBF1F001FB104432
S2140050C0A0190CB17045E7D83D60F0BD08290FD097
S2140050D06C88013405EBC404A01B00EA0C00201AFF
S2140050E08645F1D2A8880028EFD0A5EBC005D7E703
S2140050F03046E9E72846E8E728170020241700206E
S21400510013B50446084621B96846FFF7A3FF6CB9F5
S21400511000980378DA0707D55CB9C3889BB100EB23
S214005120C3000378DB07F8D402B010BD164B18682E
S214005130EFE7012C07D183882BB1A0EBC3000378DF
S214005140D907F8D4F0E76846FFF784FF00230098F5
S2140051500278D2070CD4002CE6D0C388002BE3D00C
S21400516000EBC30210F83330DB0706D503461046C3
S214005170C28822B100EBC200EAE71046EDE7002B3A
S214005180E6D01846D0E700BF24170020BFF35F8F95
S214005190074B5A6A22F480325A62D3F8942022F0DF
S2140051A00102C3F89420BFF34F8FBFF36F8F704791
S2140051B000ED00E038B5FFF7E9FF274A2748D2F8A8
S2140051C0C030274D23F0FF0343F0A003C2F8C030E1
S2140051D0244B04689D4204F101011DD1224BC2F804
S2140051E09840C2F89C3003F5FF437E33C2F8A030E7
S2140051F00160BFF35F8F0522174BC3F894205A6AED
S21400520042F480325A62BFF34F8FBFF36F8FBFF303
S2140052104F8FBFF36F8F38BD23F01F03203BB3F1D2
S214005220005F09D3C2F898400F4C43F00103C2F860
S2140052309C40C2F8A03001600C4B0168064A23F07F
S2140052401F0343F00303C2F89810C2F89C30084BC3
S2140052500131C2F8A030CBE700ED00E02C170020AB
S214005260FC26002024250020030000201B27002009
S214005270E17F00202DE9F0410D461146DFF8E08081
S214005280D8F80040B4F5807F34BF00271A27FFF710
S2140052907DFF1F292ED90021C2061CBF20F01F004B
S2140052A020302E4EEB0618BF25F01F05CBB29C42D1
S2140052B035D8D6F8C03020F01F0023F47F4343F4DF
S2140052C08073C6F8C03040F0030419F072F8D8F8BE
S2140052D0003025F01F0141F00301C6F89830C6F8EB
S2140052E09C40C6F8A01019F06AF8D8F800300133D0
S2140052F0C8F80030BFF35F8F0522184BC3F8942020
S2140053005A6A42F480325A62BFF34F8FBFF36F8FF0
S214005310BFF34F8FBFF36F8F3846BDE8F081C6F8F6
S2140053209830D6F89C30D6F8A02023F01F03984279
S21400533022F01F0201D195420BD0904201D89D4227
S21400534009D2D6F89830013123F0FF03C6F898301A
S214005350ACE70027CEE72827CCE700BF00ED00E04B
S2140053602C170020BFF34F8F0549064BCA6802F47E
S214005370E0621343CB60BFF34F8F00BFFDE700BF73
S21400538000ED00E00400FA05054B1A782AB95B78B0
S214005390002B0CBF0320022070470120704700BF7F
S2140053A0392400200329F8B598BF124B05460E464F
S2140053B08CBF00245C5C032805D8DFE800F00208F8
S2140053C00B0E44F002040C4B1F684FB9F8BD44F0B6
S2140053D00804F8E744F02004F5E744F08004F2E718
S2140053E07B681A68144203D0314628465B689847A3
S2140053F03F68EAE7A08302005C17002038B5104D2E
S2140054002B78ABB10F4C23781BB100F0C5FB002303
S2140054102370002019F0FEFD0B4C50B100F00EFC7E
S2140054200023012120782B70FFF7BCFF0123237097
S21400543038BD0122054B1A702278054B1A70F7E723
S21400544034240020322400203B2400203524002071
S2140054503624002010B518F0A5FF064B04461B782E
S2140054601BB1BDE8104018F0A1BFFFF7C7FF2046EC
S214005470F7E700BF31240020094A137830B1013322
S2140054801370084B1B78012B03D87047013B137031
S2140054907047054B1B780BB9FFF7B0BF704700BFCE
S2140054A0392400203B2400203524002070B518F055
S2140054B079FF174E0546174819F06BFA3378D3B9BB
S2140054C000F0F8FC044620B1284618F06FFF20468E
S2140054D070BD114818F076FF00F078FF0F4B1C6087
S2140054E000F0D0FD0E4B0F4A1860536F43F00103D7
S2140054F0536719F096FD00F02FFA19F08DFD0A4B50
S2140055000024186001232846337018F04FFFDEE7AA
S2140055103C240020908302005C17002030170020F7
S2140055205817002000400050341700202DE9F8439B
S214005530284A0138135C39B1274F013339781354A0
S214005540012904D8BDE8F883013B1354FAE7FFF7B6
S2140055501BFF0128044635D818F024FFDFF88480A6
S214005560054698F8003013B31C4E33781BB9012259
S21400557032701B4A1370DFF8709099F8003023B130
S21400558000F00AFB002389F80030284618F00EFFCA
S214005590012019F03FFD18F005FF337805461BB1D2
S2140055A000F04CFB00233370002388F800302846B8
S2140055B018F0FCFE3878A042C4D02146FFF7F2FE71
S2140055C03C70BFE70329F5D10228F3D119F028FD76
S2140055D0F0E700BF392400203B24002031240020BF
S2140055E035240020342400203224002010B5044640
S2140055F018F0D8FE002C0CBFFF210121064A1378B4
S2140056000B44DBB21370B3FA83F3BDE81040034AD1
S2140056105B09137018F0CABE382400203724002017
S21400562038B518F0BFFE094B05461B78012B04D889
S21400563018F0BCFE0024204638BD054B1C6800F060
S21400564047FB0444284618F0B1FEF4E73B2400204C
S2140056503017002038B54160044618F0A3FE054612
S2140056602146044818F0B1FE2846BDE8384018F038
S2140056709DBE00BF5C170020054B1B685843054BBA
S21400568000F5742000F23F20B0FBF3F0704700BF37
S2140056905817002040420F002DE9F04F85B0EFF379
S2140056A0108772B6AFF3008018F01BFA00286FD090
S2140056B07F4EDFF82882337823B10020FFF7DCFE28
S2140056C000233370FFF760FE0446002867D0841E70
S2140056D0E4B2012C6AD9FFF757FE01280546754C3F
S2140056E0DFF8FC9100F28C802078854240F0C48080
S2140056F0207800F0D7FA99F8003013B16E4B1B787B
S2140057002370AFF3008007B962B6EFF3108772B666
S2140057106A4B1A7852B100221A70674B20781B78B1
S214005720984203D101212170FFF73CFE644800F047
S214005730FBFB18F0E0F905460028BCD1614BDFF80A
S2140057409081187098F80030ABB189F80000DFF847
S214005750889199F800301BB100F01EFA89F80050C5
S214005760002019F057FC002800F0998000F066FA37
S214005770002388F80030337823B10020FFF77CFE42
S2140057800023337000212078FFF70CFE00232370DF
S214005790AFF3008007B962B605B0BDE8F08F337886
S2140057A0002B98D0FFF768FE347094E7002003A91A
S2140057B000F008FC044600288DD1D8F80030039A83
S2140057C09A4205D80120FFF757FE0123337082E77F
S2140057D03D4B1D6800F07CFA039B05449D42F1D2C8
S2140057E000F08EFA8200039942F0020292B2CDE9EE
S2140057F000422346354A491B314819F01DFC6AE72A
S214005800334BDFF8C0A01B7803F0FF0B2BBB00F078
S21400581047F9207885422FD19AF800307BB92C4D75
S2140058202B78002B7FF464AF2A4B1B7823B900F04B
S214005830ADF90122284B1A7001232B7058E7022D70
S214005840EDD18AF800B014E02378022B24D100238F
S2140058508AF8003021F0C9FA1EE0207885420BD184
S2140058609AF80030002BDAD0022DD8D100238AF81F
S214005870003021F0BAFAD2E70023DFF848A08AF811
S214005880003099F8003013B92946FFF78BFD9AF8D7
S21400589000302570002BD7D1012DC0D828E7012075
S2140058A000F000FA07B962B6EFF3108772B657E752
S2140058B0332400203B240020362400202F24002000
