S02B000062745F736F635F656E657267795F68617276657374696E675F6170706C69636174696F6E5F6F627341
S214000000C00A0020690B00004F9101004F910100CB
S21400001063A401004F9101004F9101004F91010030
S2140000204F9101004F9101004F9101004F91010047
S2140000304F9101004F910100EBA401004F91010088
S2140000404F9101004F9101004F9101004F91010027
S2140000504F9101004F9101004F9101004F91010017
S2140000604F9101004F9101004F9101004F91010007
S214000070855700004F9101004F910100550A00007E
S214000080AD9001004F9101004F9101004F9101008A
S2140000904F910100891300004F9101004F9101001C
S2140000A04F910100950F0000750F00004F91010061
S2140000B04F910100095101004F910100695B010059
S2140000C08915020085150200495301009F1502009C
S2140000D08D150200395B010091150200A95B010035
S2140000E0BD32010081340100195C01004F9101000E
S2140000F04F9101004F9101004F9101004F91010077
S2140001004F9101004F9101004F9101004F91010066
S2140001104F9101004F9101004F9101004F91010056
S2140001204F9101004F9101004F9101004F91010046
S2140001304F9101004F9101004F9101004F91010036
S21400014082B030BF074BD3F8F030DB0704D500236E
S2140001500193019B052B01DD02B07047019B013323
S214000160F6E700BF00ED00E0F0B5114A114C124E64
S21400017000F00105E3695F0713D40DB9334213D1CC
S21400018003EA00078F4207D10B4A1A40002A0CBF29
S21400019000206FF00100F0BD013AEBD16FF00200D5
S2140001A0F9E74FF0FF30F6E76FF00100F3E700BF26
S2140001B08096980000000350020001000B4B70B5BB
S2140001C0D96911F480310DD101244FF48072084EA4
S2140001D0084DF46020462C641A61FFF7C5FF3464AE
S2140001E0EC6070BD6FF00100FBE700BF000003503D
S2140001F000100350002003504FF4003238B50F4B68
S2140002000F4C9A6641F671330122E569E3630D4BA4
S2140002100021DA60022360612120236105F4803525
S214000220FFF7A2FF10B92120FFF79EFF0122064B21
S214000230DA600DB10023E36338BD00BF00900050C4
S21400024000000350001003500020035070B5134CFC
S2140002506061E3695B071ED40E4656F8043B8D18B2
S214000260A361AE420BD10423002121202361FFF7B6
S2140002707BFF58B9BDE870402120FFF775BF082105
S2140002800846FFF771FF10B10423236170BD56F8CE
S214000290043BA361E5E74FF0FF30F7E700000350AB
S2140002A02DE9F84315464FF40032184B89469A66F6
S2140002B041F6713203F51C33DF69DA630122064624
S2140002C003F58053DFF84C8007F48037DA6055B9C1
S2140002D0284601220E4BDA601FB10022A3F5005318
S2140002E0DA63BDE8F88306F5005404EA0804A41BA4
S2140002F0AC4228BF2C46494622463046FFF7A6FFAA
S2140003000028E6D12644A1442D1BE0E700900050CB
S2140003100020035000E0FFFF000000000000000087
S214000320002370B5424C05468AB0E36318B10088D6
S21400033023600BF02FF80BF0D7F93E4820F002FBB5
S2140003403D4E3E4B304633603D4B73601DF0CEFB5A
S214000350002130460EF0D2FF33A3D3E90023A0627B
S214000360C4E906231DF0CDFBD4E906231943104348
S214000370C4E90601CDE900014FF0FF334FF0FF322C
S214000380A06A20F086FB02224FF0FF31A06A20F020
S21400039085FB01200AF082FD4FF4007300222949F4
S2140003A0A06A20F07DFCB0F5007F39D100239422AE
S2140003B0079309933C23CDE90332059396230693CE
S2140003C05023A06A03A908930FF0ACF835B3287C35
S2140003D00BF0EEF90546F0B9A06A20F056FD0BF0DA
S2140003E075FA0AF03DFD20B14FF48070002107F049
S2140003F045FE0AF045FD20B14FF40060002107F0ED
S2140004003DFE1DF049FC012020F070FA0E4A0F490F
S214000410A06A1DF069FB28460AB070BDFF20D7E72A
S2140004200725F8E7AFF300800DD501552000000042
S214000430300B0020690345EC681D0020D5AC000099
S214000440781D0020681B002091DA0100D1DA010037
S2140004500348044B834202D0034B03B1184770474E
S214000460F42A0020F42A002000000000064B07496A
S214000470C91A891048BF0131491003D0044B0BB18B
S21400048001481847704700BFF42A0020F42A0020CD
S2140004900000000010B5064C237843B9FFF7D8FFDC
S2140004A0044B13B10448AFF300800123237010BD42
S2140004B0F625002000000000B88C020008B5054BA9
S2140004C01BB105490548AFF30080BDE80840FFF7BB
S2140004D0CDBF00BF00000000A80D0020B88C0200B1
S2140004E0A3F5803A704700BF174B002B08BF134B8D
S2140004F09D46FFF7F5FF00218B460F461348144A2A
S214000500121A21F0EDF80E4B002B00D098470D4B39
S214000510002B00D098470020002104000D000D4855
S214000520002802D00C48AFF3008015F043FF2000EF
S214000530290018F056FD15F083FD00BF00000800E6
S2140005400000000000000000C00A0020C00A0020D2
S2140005500027002000000000000000000122014BE0
S2140005601A707047C82A002008B518F0A1FD18F0C8
S214000570A0FD034B03491868BDE8084019F049BCC4
S2140005807C0E0020704602002DE9F04F0368AC4A4E
S21400059023F47F4323F00703934204468DB006D02E
S2140005A002F58022934271D00DB0BDE8F08FA54CC5
S2140005B000222346012144F265000EF059FB237801
S2140005C0A14863B318F0F2FD0422002011460EF095
S2140005D07BFB9E4C054628B39D49206819F019FC04
S2140005E09C49206819F015FC18F062FD18F061FDB2
S2140005F0994B9A4A00939A497823206819F009FC87
S21400060098492B46984A206819F003FC284600F0C3
S21400061059FA9649206819F0FCFB00BEFDE718F071
S214000620C8FDD1E7022101200EF066FB054610B397
S2140006308749206819F0EDFB8649206819F0E9FB28
S21400064018F036FD18F035FD834B844A0093844934
S2140006507D23206819F0DDFB82492B46824A2068FC
S21400066019F0D7FB284600F02DFA8049206819F0CB
S214000670D0FB00BEFDE718F01BFD18F01AFD7C4904
S21400068020680DB0BDE8F04F19F0C3BB0025877D8C
S214000690DFF8E881DFF8089200F1170AAF4283D945
S2140006A00AEB05035B781AF80560083B012B13D8A4
S2140006B005F1020BD344721E41465846099220F0BB
S2140006C0E5FF002800F09E8049465846099A20F02B
S2140006D0DDFF002800F0AF8001362E44F5B2DDE7DE
S2140006E01870584B1A78002A2FD01870564818F0F1
S2140006F060FD012144F26500524A0EF0A3FA054659
S21400070048B3524C5249206819F083FB514920687F
S21400071019F07FFB18F0CCFC18F0CBFC554B4F4A79
S21400072000934F49B423206819F073FB4D492B46BC
S2140007304D4A206819F06DFB284600F0C3F94B4976
S214000740206819F066FB00BEFDE701223E481A70DD
S21400075018F02CFDCDE748480DF12B0123F09CFB4B
S2140007609DF82B30002B36D00025444E374F18F01E
S2140007709FFC18F09EFCD7F8008023F02FFF94F91A
S2140007800D3002460793A37B4046069363793C49A7
S2140007900593A3790493E3790393237A0293637A08
S2140007A00193A37A0093334619F033FB334B9E42F2
S2140007B025D1244B334A1978334B002918BF1A46E3
S2140007C03249386819F025FB18F072FC18F071FCF5
S2140007D02F49386855E74FF47A700BA923F0CAFB07
S2140007E00028C1D1254E00252A4A2B46CDE90055C2
S2140007F00B99214823F0CEFE002EB7D1D4E62A4628
S2140008002549DEE7254B1A78002A7FF469AF1A4897
S2140008100DF12B0123F040FB9DF82B30002B7FF4CD
S214000820C3AE4FF47A700BA923F0A4FB00287FF424
S214000830BBAE0646D7E7E58B194E6DBAADB295E767
S214000840A0000100F7250020304802007C0E0020A2
S21400085012470200BC460200FD470200C1460200E5
S214000860CA460200D9460200D6460200EE460200FC
S214000870FF460200D2470200C00D0020BE2A00201C
S21400088014470200B8460200B54602006947020057
S214000890AE4702005D0500008E470200C82A002011
S2140008A0B42A002008B503F08FFA01280ED1114BA8
S2140008B004205A6E4FF480230F49520358BF0F4A44
S2140008C04B6601F51041086258BF536603F0F0FE10
S2140008D000F022F919F04EFA03F0C6FE19F03EFABF
S2140008E004F0CAF900F00EF901F046FFBDE8084032
S2140008F004F050BD008000500090005000A0005052
S214000900064B1B681A7A022A04D812B11B68044ADE
S21400091013607047032AF9D0704700BFEC28002008
S214000920E00D002030B51E4D95B00DAC0FCD0FC4B8
S21400093095E80700292384E807001A4A1A49CDE9F2
S21400094002231A4B0E22CDE904134FF480730021C4
S2140009500DF12600069320F0C3FE4FF4A020144BA2
S2140009600DAACDE907030F238DF8243010238DF848
S2140009702530104B07A90A9320230B9301238DF8EB
S21400098031300D4B0D48009302AB04F0B7F8044627
S21400099000214FF4E13018F0CBFB204615B030BDF7
S2140009A01448020000000650000500060008000774
S2140009B024000650F8250020E40D0020500E0020EC
S2140009C0831E012B10B50C4619D801290DD8184BDB
S2140009D004221B6905210020C3F3401303F030F8FE
S2140009E024B1144B18680368F3B910BD114B18688E
S2140009F00368002BF9D0BDE8104004F03DB88B1E0C
S214000A00012B0CD80128F0D8BDE810400022084B76
S214000A1005211B691046C3F3401303F011B80029E3
S214000A20E4D00129DDD0E0E7BDE8104019F00FBCA6
S214000A3000C003500029002008B50449044804F00B
S214000A4091FCBDE80840FFF76DBF00BF04290020F9
S214000A50740E0020014819F074BC00BF500E002030
S214000A60014B1A6A18681047500E0020014818F00B
S214000A709ABB00BF30480200012208B5074B1A7027
S214000A800022074B1A700422064B1A701F22064BD0
S214000A901A7003F06FFE054B186008BDCE2A0020C2
S214000AA018260020CD2A0020CC2A00207C0E00200C
S214000AB0024B0349186819F0ACB900BF7C0E002041
S214000AC04848020070B50C4C0C490646206819F0E0
S214000AD0A0F903F04FFE0546206803F03FFE3046BF
S214000AE0FFF7E6FF284603F039FE20680449BDE814
S214000AF0704019F08EB900BF7C0E00204A480200F4
S214000B004C48020008B5034819F02FF9BDE8084024
S214000B1018F090BA80490200014819F026B900BFC3
S214000B208049020007B5082018F026FB02238DF83E
S214000B300030054B6846019318F0BEFA082003B053
S214000B405DF804EB18F023BB006A18100348044A4B
S214000B500449121A921018F0FBBA00BF40010000B8
S214000B60200300000027002008B500F02FF8FFF74C
S214000B70EDFF124B12498B4212D30020114B124943
S214000B808B4218D3FFF7B0FC186850F8224058681C
S214000B9040F82240013298688242F5D30C33EAE7E7
S214000BA00022F8E71C6844F8220001325C68A24282
S214000BB0F8D30833E4E70022F8E700BFC08C020051
S214000BC0CC8C0200CC8C0200CC8C02004FF400418E
S214000BD0134B144A70B59A60D3F88820124D42F42D
S214000BE07002C3F88820114A05F5005491664FF04C
S214000BF0FF3222664FF6DF7262660222C3F8D0200A
S214000C00BFF34F8FBFF36F8F4FF44036032003F0D0
S214000C1097FD0320E66003F077FD2E6170BD00BFF0
S214000C2000ED00E00000000000800044009000504E
S214000C30014B1860704700BF10290020054B186054
S214000C40054B1B6F03F00703032B01D122F04CBAB0
S214000C50704700BF1829002000800050002307B509
S214000C602948019319F081F84FF4407301220421BA
S214000C706846ADF8003000F0C3F80122234B05208B
S214000C80C3F8442401A923F005FC002839D1204BE1
S214000C90D3F8F02042F00102C3F8F020D3F8FC208D
S214000CA042F08072C3F8FC201A4AA3F55D431A602E
S214000CB0019B194A03F5D52303F2FC43B3FBF2F379
S214000CC0164A013B13610223C2F8F0304FF48073DA
S214000CD0C2F804334FF06043114AC3F8B02F114AEC
S214000CE0C3F8802ED3F8002E42F48072C3F8002E8C
S214000CF0FF2283F82020D3F8002E22F48072C3F857
S214000D00002E03B05DF804FB8049020000D00350BB
S214000D1000ED00E0FF030040F8590D00000004E07D
S214000D2055CEACC5090001004FF06043D3F8802EC5
S214000D3030B5D20715D501240B4D8440D5F8FC20DC
S214000D4042F08072C5F8FC20D3F8002E2243C3F888
S214000D50002E53F82020002AF0D003F820100020A0
S214000D6030BD1120FCE700BF00ED00E02DE9F041AA
S214000D7004460C254FF00108124E0CB314F0010087
S214000D800BD0002024F0010405FB00625768002FFA
S214000D90F3D09168C0B2B847EFE72246013020286A
S214000DA04FEA520201D0D307F8D508FA00F20F280E
S214000DB024EA0204E8D9103805FB0062B432E5E7FD
S214000DC0BDE8F081800E002008B50C4818F0CDFF75
S214000DD0192003F0A7FC28B1192003F0B1FC192054
S214000DE003F092FC1A2003F09DFC28B11A2003F0B1
S214000DF0A7FC1A2003F088FC002008BD80490200EA
S214000E002DE9F0410E461746054610B30F2922D8A5
S214000E100378DBB1013BDBB2022B1CD8104AD35C53
S214000E206A78D340DB0716D50E4BD3F81043A4B927
S214000E3023F054FA80463A462846314603F0BAF87C
S214000E40404623F046FA2046BDE8F08140F2FF1304
S214000E50E6E72224F7E72124F5E70224F3E700BFBC
S214000E604F48020000C0035010B5044608B303788C
S214000E70E3B1013BDBB2022B1DD8104AD35C62788B
S214000E80D340DB0717D523F029FA012261782378AF
S214000E908A4030214B4341F2100103F1A04303F591
S214000EA070335A5023F015FA002010BD40F2FF139D
S214000EB0E5E72220F9E72120F7E700BF4F480200C8
S214000EC010B5044608B30378E3B1013BDBB2022B4E
S214000ED01DD8104AD35C6278D340DB0717D523F0C1
S214000EE0FDF90122617823788A4030214B4342F293
S214000EF0100103F1A04303F570335A5023F0E9F9CB
S214000F00002010BD40F2FF13E5E72220F9E721207C
S214000F10F7E700BF4F48020038B50D46044610B349
S214000F2009B30378E3B1013BDBB2022B1DD8104AAC
S214000F30D35C6278D340DB0717D523F0CFF9302295
S214000F402378534303F1A04303F570331B6962789B
S214000F50D34003F001032B7023F0BBF9002038BD0B
S214000F6040F2FF13E5E72220F9E72120F7E700BF6C
S214000F704F48020008B503F013F8054B00F0553053
S214000F8020F05020C3F82004BDE80840FFF7EEBE6E
S214000F9000E0035008B503F003F8054B00F0AA3054
S214000FA020F0A020C3F82004BDE80840FFF7DEBE0E
S214000FB000E0035013B504460A4818F0D6FEA2789F
S214000FC00421B2FA82F2237852098DF8043063784D
S214000FD00DEB01008DF80530FFF712FF002002B080
S214000FE010BD00BF804902002DE9F04F9A46564BCF
S214000FF085B01B7806460F461546DDF83C909DF8F2
S21400100044B0DDF85080002B00F09780072A00F2ED
S21400101096800E9B002B00F09280B9F1000F00F036
S2140010208E80129BB3F5006F00F38980012803D1F0
S214001030109B002B00F08380444B03EB05131B7BB7
S214001040002B7ED0424C10220021684620F048FB40
S21400105004EB45141022A7BB3946204620F040FB7F
S21400106043F210036380BBF1000F03D1E37843F033
S2140010700303E370364A0E9B02EB451CCCE9019352
S214001080129B6901581E9DF84C30C0F30A0003F00D
S21400109003039B0643EA001E53582E48012E00EA1F
S2140010A003004EEA0003CDF800A0535017D0B8F165
S2140010B0000F2ED19CF8023068F304138CF802302F
S2140010C027E00021204620F00BFB4FF4447363809A
S2140010D0BBF1000FCED1E37843F03003C9E713230A
S2140010E00CF1100ECCF80C309CE80F008EE80F00C8
S2140010F06FF00301DCF81C20109B61F39F02012FA8
S214001100CCF81C20CCF8143003D1CCF81890CCF8CE
S214001110043000270D4A290102EB051342F801802E
S214001120159A28465A60694622469F605E7302F00A
S2140011301BFD384605B0BDE8F08F0748FAE70748BC
S214001140F8E70748F6E700BF19260020E810002059
S214001150E80F00200F80FFF3028000F0018000F00F
S214001160078000F038B5124B05461B78DBB1E0B1BE
S21400117023F0B4F80F4A00231146147B54B92B60B1
S21400118001251A0101EB03131D738C5023F0A1F8FF
S214001190204638BD0133082B02F11002EDD123F0B2
S2140011A098F80548F5E70548F3E70548F1E700BF76
S2140011B019260020E8100020048000F0028000F0CD
S2140011C0018000F038B523F089F8002305460B4A65
S2140011D0147B6CB90133082B02F11002F8D102F02F
S2140011E06FFC074B28461C7023F073F8204603E07C
S2140011F0284623F06EF8034838BD00BFE8100020EC
S21400120019260020058000F00D4B10B51B7804460B
S21400121093B1072812D823F061F80A4B03EB0413A6
S2140012201A7B2AB100241C7323F053F8204610BD05
S21400123023F04FF80448FAE70448F8E70448F6E7CE
S21400124019260020E8100020068000F0028000F03A
S214001250018000F0154B13B51868002301908DF837
S214001260043023F03BF8124B1C7824B123F031F8FD
S214001270104802B010BD01221A7023F02AF80E4B57
S21400128001A81C731C7783F82C4083F83C4083F835
S2140012904C4083F85C4083F86C4083F87C4008231D
S2140012A08DF8073002F030FC2046E2E75248020094
S2140012B019260020038000F0E8100020F8B50D4D38
S2140012C02D7885B1072810DC0B4D060105EB0014C0
S2140012D0277B67B1AB510025069BA560636002F0D3
S2140012E043FC2846F8BD0548FCE70548FAE70548EC
S2140012F0F8E700BF19260020E8100020028000F062
S214001300018000F0078000F00A4A08B512785AB14A
S21400131007280BD8084A02EB00131B7B43B10021B9
S21400132002F0E4FB002008BD0448FCE70448FAE7A6
S2140013300448F8E719260020E8100020028000F094
S214001340018000F0078000F00A4A08B512785AB10A
S21400135007280BD8084A02EB00131B7B43B1012178
S21400136002F0C4FB002008BD0448FCE70448FAE786
S2140013700448F8E719260020E8100020028000F054
S214001380018000F0078000F0184B2DE9F0411F6D3A
S2140013905B6D1F4000D5FEE701260025144CDFF8E4
S2140013A05880374218D02368C8F85060A3B1A168A7
S2140013B0284601316268A1609847637B012B0BD1F8
S2140013C050B90C4B03EB45131A7B60F341021A73BA
S2140013D01A7F60F341021A770135082D4FEA460658
S2140013E004F11004DDD1BDE8F08100BF0000045018
S2140013F0E8100020E80F0020002004502DE9F04FF0
S214001400144606460D469B46C36B87B001225B69B1
S21400141002A960689847F36B01225B6903A9284616
S214001420984702A818F0F0FA074648B10023A375BB
S21400143063754FF0FF33A360002007B0BDE8F08F60
S21400144003A818F0EEFA0123A375237E04EBC3036A
S214001450DD611F846368AB420ED1206003A818F0DC
S21400146002FB4FF0FF332075A360237D043B022B65
S21400147026D80023A375DFE723681A1A5342534180
S214001480A37503A818F0EFFA237D834218BFA7754B
S21400149003A818F0CAFA074602A818F0C6FA874248
S2140014A018BF002303A818BFA37518F0C6FA07468E
S2140014B002A818F0C2FA87421CBF0023A375D4E71F
S2140014C003A818F0B2FA80B1F36B022228465B69D3
S2140014D004A9984704A818F0B7FA0346207D032805
S2140014E039D8DFE800F03838040903A8F3E7CC223F
S2140014F0237E04EBC3031A8401F0B6F9109B187020
S21400150003A8277E18F085FA04EBC70787F82200A1
S214001510237E03A804EBC303B3F8209093F822704D
S21400152018F083FA804603A818F087FA8246B8F1C6
S214001530000F15D0F36B022228465B6904A9984772
S21400154004A818F046FA6075637D6BB90023A3758E
S2140015504FF0000838E0227E04EBC2021384CBE78B
S21400156003A818F021FAEEE794F81680B8F1000FF9
S214001570EED0B9F1000F09D1DFB10123627EE37529
S214001580002A44D19F4218D1677614E0736C05EBAD
S2140015900A02594285EA020008421CBF0021A175D2
S2140015A0591E0A409B1A9945D0D8A37D002BE3D13B
S2140015B0CEE7E37D43B94FF000084B465246294636
S2140015C0304617F08CFFA060A27D12B123694B4411
S2140015D023611449237E097899421ED90133237664
S2140015E0BBF1000F1BD0D2B1E37DC3B1B8F1000F41
S2140015F015D1032F13D0A1684B1C10D0109B224688
S214001600009330460123FFF7F9FEA07507E0012F8F
S214001610DAD0032F08BFA376CDE70023A375A07DFD
S2140016200BE700BF784802002DE9F04F0E469846BB
S21400163000238BB004464FF0FF31104617468DF856
S214001640133001F0FBF8B6F5801F3BD3B21C53D124
S214001650E56A6B1C57D12046616A17F086FE054680
S214001660B31C18BF0123DFF810910193636A626C04
S2140016700293236805A902FB053AE36B05225B6922
S2140016805046984705A818F05AFA18F07DFA5046C2
S21400169018F085FA4FF0000B824601464B1C05D029
S2140016A0636C81EA0A025B42134232D02946204626
S2140016B017F05BFE029BAB424DD0BBF1000F4DD145
S2140016C00546D3E7314605AA04F1080018F0EAF803
S2140016D00146481C10D0384601F0B0F801223946C1
S2140016E020460DF1130317F04CFF28B19DF8133078
S2140016F088F80030002003E0237C002BA8D12D20A2
S2140017000BB0BDE8F08F2368ED1A636CB5FBF3F5FC
S214001710A6E7484601F092F80DF113034946204625
S214001720019A17F02EFF034690B1B21C03D0D9F8E9
S2140017300020B2420CD19DF8132003930D4B88F87D
S214001740002049461A6838461FF0D5FF039B9B4683
S214001750D9F80810A2E7BBF1000FD0D0B6F5801F6D
S214001760C8D2314698F800307A6804F1080000F0D4
S21400177093FFBFE774480200DC1700202DE9F34111
S2140017800446174698460E46194D816AE36A8B4210
S2140017902AD04B1C18E0284601F050F801222946B2
S2140017A020460DF1070317F0ECFE30B143462946FC
S2140017B020469DF80720B847B0B1A9684A1C05D056
S2140017C0012E0AD0E36A9942E5D10DE06968204609
S2140017D017F058FE012E0146D8D16B6881EA030245
S2140017E0636C5B421A42D1D002B0BDE8F08100BF04
S2140017F0B01700202DE9F041036B9046826B076816
S2140018009A4288BF8363426C436A90B002FB0377B8
S214001810C36B0E46052201A95B6904463846984705
S21400182001A818F08CF901280146307057D0656C75
S214001830E26B2368606AD2F814C005FB003005220C
S21400184006A9E04706A818F07AF901284FF0000527
S21400185023D0D4E90A3201219342CDE90B458DF815
S21400186034800E958DF83C102AD11946204617F084
S21400187009FE236B626C14339B1AE06223630C9B95
S21400188053B99DF83C303BB1626A616C2368E06BEB
S21400189001FB023118F00BF90C9DE36B05225B6926
S2140018A001A93846984701A818F049F9307028462B
S2140018B0236BA26B9A4288BFA36310B0BDE8F08189
S2140018C0237C33B91C490BAA04F1080000F032FF50
S2140018D0D5E72046194A0BABFFF750FFCFE7237C2E
S2140018E023BB2246164904F1080000F023FF616A74
S2140018F0204617F05BFD616A421C204617F024FD67
S214001900054620B9236B626C1344143B23632046C0
S214001910A16A17F0B7FD2368A062C01A636CB0FB1B
S214001920F3F06062204617F0F0FDB6E7002320468D
S214001930044AFFF723FFDAE725200000A11F000076
S214001940D5950100A79501002DE9F04F9A468BB07A
S2140019509DF85030DFF850B10293DBF81030804627
S21400196053450D461646C0F09980D146DBF8043044
S2140019700193B9F1000F00F08D80D8F83C300122B9
S2140019805B6907A90198984707A818F04AF8DBF89A
S2140019900030984240F0858007A818F04EF80428DA
S2140019A0074614D107A818F04FF8019B029A044680
S2140019B03B44002A3FD1864212D91446361A404686
S2140019C0019917F05FFDA9EB04090190D1E7D8F85B
S2140019D03C3002225B69019808A9984708A8E2E70C
S2140019E0841B544528BF5446032C03EB0607AAEB7A
S2140019F0040A4FEA94021CD9D8F83C3029463846E7
S214001A005B69984724F0030304F003061F441D4453
S214001A10002ED4D0D8F83C3001225B6908A938469D
S214001A2098473246284608A935441FF064FE00262B
S214001A30C5E72646ECE7074600F003020392034498
S214001A402A1804920593049BDD1B059BD81B039B59
S214001A509F420FD1002FB2D0D8F83C30012208A9FF
S214001A605B6998473A46284608A91FF00FFE78B9E2
S214001A703D44A4E7D8F83C30012208A95B699847A2
S214001A800422284608A91FF001FE08B9043FDAE739
S214001A904FF0360948460BB0BDE8F08F4FF06309AB
S214001AA0F8E74FF06F09F5E7341800202DE9F04FFE
S214001AB099B00F4609920A69416C0E931439D31DEA
S214001AC0B3FBF1F3013302EBC302036B044693420C
S214001AD0C0F00D820023DFF820940D93E36A484699
S214001AE01946079300F0AAFED7E9033604930E9B27
S214001AF0022B4ED1CC2E40F08A81099B002B42D07F
S214001B003946204617F0D2FD656C079A6B1E1340C7
S214001B101490ED1AE36B01225B6916A97868984762
S214001B2016A817F082FF00280CBF04230823782E7F
S214001B3006933DD9012300254FF0080A05933B681C
S214001B4005990E98C9F80030C9F8106017F08FFF95
S214001B504FEA9A0310930023DDF81CB089F81400AE
S214001B600B930F9308930C93616C4A1E0BEA0202C8
S214001B708B1A002E38D05544AB4240D8236B5B1AE4
S214001B8013442363ABE0049B1B681493082306935B
S214001B90D0E7656C079A6B1E1340782EA5EB0305FD
S214001BA016D8FB7D7BB9099B002BB3D10423069383
S214001BB0331DAB4210D9A6B1082DBBD8042500238F
S214001BC0AA460593BBE7099B002BA3D10823EEE7A3
S214001BD0099B002B9ED1D9E7002505954FF0040AF6
S214001BE0ADE704250596F9E75345C7D3B0460BEB9A
S214001BF00A030393089B002B18BF032313E0A3EBF1
S214001C000A039E42B0460BEB0A0228BF98469E4245
S214001C100392EFD90123D9F8102089F8173096429D
S214001C2071D1C9F804B0089399F81730002B6CD01E
S214001C3099F818200899D31C09EBC3030132C3F89E
S214001C4004B0A3F80880997289F81820B8F1000F3C
S214001C5014D00E9B022B5BD10B9B7BB90F9B43448E
S214001C60032B0BD9E36B01229B69039814A99847B1
S214001C700546002840F03D8101230B93089B16A8DB
S214001C800193059B009399F814204346396800F0A9
S214001C908BFDE36B58469B69109A16A99847051E5C
S214001CA00D9B18BF5B4652460D9359464346204649
S214001CB017F015FC236B08F10302A3EB0A0322F0CE
S214001CC003029B1AC9F808002363002D40F0118117
S214001CD00F9BDDF80CB04344A6EB08060F9359465D
S214001CE0204617F0CFFB00258346002E7FF43CAF3E
S214001CF0814A3968936804F10800E36252680E9BD3
S214001D0000F0CAFCDEE002238DE7C9F804B09DE7C8
S214001D10099B002B30D1049BB8F1030F43440A9370
S214001D2027D9DDE90301E36B4FEA98029B699847E0
S214001D300546002865D118F003025FD0049B28F002
S214001D4003052B440493039B1D444FF0FF33049973
S214001D5015A815931FF0CFFCE36B28469B6901225C
S214001D6015A9984705460A9B0493002D86D0039B29
S214001D7099E74246039DE8E7039B0A9307F1200391
S214001D801193FB7D78689BB100233D7E0C9AD9B2F7
S214001D908D4211D9119903F1010C31F8331091429B
S214001DA026D9069907EBC303D8690A44104403E012
S214001DB00C9B069A13441844E36B01225B6915A931
S214001DC09847159B012213930C9B0A9804330C9397
S214001DD0E36B13A99B699847039B0A9A43449B1A93
S214001DE0042B054607D978B9134604330A93C8E787
S214001DF06346521ACBE70A9B0393B6E70A9B049303
S214001E003CE70A9B0493B2E70A9B0393AFE770266E
S214001E1004F1080303932368079A606CA2EB030A95
S214001E20BAFBF0FA00FB0A3017F0B9FEE16A80460A
S214001E30204617F027FBA26A82424AD0626CD9F885
S214001E400830511E0B40216B2568891A0B4423630A
S214001E500D9BE0625D1BB5FBF2F5AA4536D1079BEC
S214001E60B3EB080A12D0E36B4FEA9A0241469B692D
S214001E7098478346E36A079A5344E362236B0398C2
S214001E809B1A4344236317F0DEFCDA462368616C32
S214001E90E06B01FB053117F0F7FD204617F035FA29
S214001EA0204617F032FB2063BAF1000F11D03A69D2
S214001EB0616CD31D1439B3FBF1F3013302EBC3029B
S214001EC09042A8D2304619B0BDE8F08F4FF0000A15
S214001ED0DCE73A69616CD31D1439B3FBF1F30133C7
S214001EE002EBC302236B9342BFF4F8ADEAE71C266D
S214001EF0E8E72E468CE700BFDC1700202DE9F34705
S214001F001E4643690446B342884617469DF8289005
S214001F103DD300258DF80750204617F0C2F9D4F8B7
S214001F2030A082450AD2236AB5EB430F06D20022C0
S214001F3020460DF10701FFF75DFC30B39DF8073032
S214001F40012B05D1002220460DF10701FFF752FCB8
S214001F50B9F1030F06D03146204617F08DF9256BF0
S214001F60854218D30D4D4FF0FF31284600F066FC31
S214001F704B46002229462046C5E90376C5F8008070
S214001F8002B0BDE8F047FFF791BD0135C4E7622017
S214001F9002B0BDE8F0871C20FAE700BF0818002052
S214001FA0032A2DE9F34106460D4617461C4606D180
S214001FB0237A012B23D0012002B0BDE8F081DFF8A0
S214001FC06080096842460DF10703FFF72DFB60604D
S214001FD00028EDD19DF80720237A032AE8D0D8F808
S214001FE004106A689142E3D1012B2969D4F80CC029
S214001FF007D172690CEB0103934202D92074207C4E
S214002000DAE708316144E1603B4601222946304662
S214002010FFF74CFD60600028CAD00020CCE700BF68
S214002020081800202DE9F341089C032A1746266865
S21400203006D1237A012B24D0012002B0BDE8F0811E
S214002040DFF89080304642460DF10703FFF7ECFAC2
S21400205060600028EDD12568D8F80400A96AD5F894
S21400206044C04840CCF100031840227AE1D1012A4E
S21400207009D1E268D8F8103013447269934202D945
S2140020802074207CD9E72868EB6A1B1A081AB3FB71
S214002090FCF3B0FBFCF083420BD1706CF36A421E7B
S2140020A01340326B121A13442846336317F0EAF9CA
S2140020B0E862D8F81020E36808321344E36001228F
S2140020C03B4604492068FFF7F1FC60600028B0D06A
S2140020D00020B2E7081800202DE9F04F4FF0FF333C
S2140020E04FF6FF720025044600F10806C0E90923F2
S2140020F08BB0C3620562056330460F4617F0A3FB3C
S214002100204617F002F920BB2046394617F07DF925
S214002110204617F0FAF820BB5E200BB0BDE8F08F23
S214002120E26B2368606CD2F814C000FB0530052211
S21400213005A9E04705A817F002FD012828D1294681
S214002140204617F033F9421C2946204617F0FCF8C3
S2140021500135E3699D42E3D3204617F0D6F8002800
S214002160D2D000254FF0FF394FF6FF73CA46A84677
S214002170C4E90853E369984514D3A5EB0905012D76
S21400218036D84FF6FF72636A934246D16720C4E79B
S21400219017F0FFFC0028DBD02946204617F006F98A
S2140021A00246D1E72368E26B606C576900FB083093
S2140021B0052205A9B84705A817F0C1FC834605A85F
S2140021C017F094FC0746584617F0DEFC68B15745F2
S2140021D038BFC4F82480B94528BFB946BD4238BFC9
S2140021E03D46BA46236A0133236208F10108C1E777
S2140021F04FF6FF7300256362E3699D42C1D2676CA8
S2140022002068E36B052207FB05005B6905A9984774
S21400221005A817F06BFC0135EEE7E26B676C2068EB
S214002220694607FB030055690522A847684617F06C
S2140022305DFC626A2368606C504D00FB023017F04C
S214002240AEFC4FF0FF33A062E3622A466FF0010156
S214002250204605ABFFF7E8F900284FD1AD682946C0
S2140022602046E56217F02DF8206320B92046E16A83
S21400227017F008F9E0622946204617F003F90546EC
S214002280A36A9D423CD16569626CE91C143AB1FBB5
S214002290F2F14FF0000805EBC1050335B5FBF2F58A
S2140022A0C1460235E36999453CD3A8455AD2204633
S2140022B0616A17F05AF80027064604F1400AB84546
S2140022C012D8626C2368694602FB0639E36B052266
S2140022D05B6948469847684617F008FC534602462E
S2140022E04946E06B17F05DFC3146204617F03DF896
S2140022F00137AF420646E2D364200EE7A56AAEE792
S2140023002946204616F0DDFF236B29460344074680
S2140023102363204617F0B6F80546002FB0D1C4E96F
S2140023200B07ADE7636C2768052203FB0977E36BB1
S21400233005A95B693846984705A817F000FC17F012
S21400234023FC60B1384617F02AFC0146204616F0FA
S214002350B8FF636C143B984208BF08F1010809F106
S21400236001099FE7304617F06EFA0023204619460B
S214002370034AFFF703FA0020CFE600BF0818002044
S214002380719501000023624A2DE9F04117680E4658
S2140023900446136018B921252846BDE8F08190F858
S2140023A034500DB309680268914240F0A980716804
S2140023B04268914240F0A480B1688268914240F041
S2140023C09F80F168C268914240F09A803169426904
S2140023D0914240F09580B169C26B914240F0908086
S2140023E072691D468261D7E750222946D0F83880A8
S2140023F01FF076F9D6E90212336804F1080023606C
S2140024007368C4F838806360336963617369A36175
S21400241017F02BFAB36904F14000E3639B68984712
S21400242094F8432020B1E561002AB4D05B25B3E7D9
S214002430656C002DF7D06668B6FBF5F3E361002AFD
S214002440A9D0B542F2D82268B2FBF5F105FB1122FD
S214002450002A57D105FB1363002B53D1204616F0F4
S21400246020FFA369043303449E424DD340F63472E2
S2140024706369CC3B934249D8B5F5805FD6D3032138
S214002480204616F037FFD4E90001E36B1B68984737
S2140024900546E36B0220DB6898471DB1002384F8ED
S2140024A034301DE039462046FFF716FE6428054600
S2140024B004D139462046FFF70FFE0546636C143BF1
S2140024C0002DEBD1226A204602FB03F616F0E9FE49
S2140024D0A369043303449E4206D284F834505A2536
S2140024E0E06B17F085F857E70123D4E90001094AA5
S2140024F084F8343013680133136017F050FAEFE7AE
S2140025005D2549E7592547E75A2545E75F2543E70F
S2140025106C110020681100202DE9FF410F469046FF
S2140025201E46054698B390F8343093B3B1F5801F35
S21400253031D21A4C022116F0DDFE224639462846D4
S2140025400DF10F03FFF770F8024678B101234246FB
S2140025500093394633462846FFF7D0FC0446E86B1E
S21400256017F046F8204604B0BDE8F0819DF80F301D
S214002570012BEBD12169B142E8D1009341463346A5
S2140025802846FFF7E1F904460028DFD1E7E72124D3
S214002590E8E71124E6E72924E4E700BF3418002022
S2140025A02DE9FF410C4616461F46054680B390F8B7
S2140025B034307BB3B1F5801F2ED2DFF86080012166
S2140025C016F098FE2146424628460DF10F03FFF707
S2140025D02BF8044670B99DF80F30012B11D1D8F8AE
S2140025E01030BB4212D10246009031462846FFF713
S2140025F0ABF90446E86B16F0FBFF204604B0BDE8D6
S214002600F081022B14BF2D246024F3E76324F1E746
S2140026102124F2E71124F0E72924EEE734180020FD
S2140026202DE9F3411F4600230C46164605463B603F
S21400263050B390F834304BB3B1F5801F28D2DFF892
S2140026405480012116F056FE2146424628460DF1DA
S2140026500703FEF7E9FF0446A0B99DF80730032BF1
S21400266010D0022B0AD10123336004233B60E86BB1
S21400267016F0BEFF204602B0BDE8F081D8F8103054
S2140026803060F3E72D24F2E72124F3E71124F1E785
S2140026902924EFE7341800202DE9F043466886B376
S2140026A0056898464FF0000CA946AE4655F83C40E3
S2140026B00CF1010CC4F31307013401D0B94217D052
S2140026C066450EF1080EF1D12F46002403E0A6421F
S2140026D007F1080712D055F8343001340133F6D12B
S2140026E0C1F3130141EA0851C7E90012BDE8F083BF
S2140026F041EA0851CEE90012BDE8F083B8F1030FB5
S21400270003D101230372BDE8F083002303E09E4259
S21400271009F10809F5D055F833400133C4F30754DE
S214002720032CF4D1C1F3130343EA0853C9E900327A
S214002730BDE8F0832DE9F0410646406882B0C0B19E
S2140027400F4690460024336853F8345003EBC40316
S214002750C5F30752C5F31301013504F1010406D091
S2140027605B683046CDF80080B84710B17068844288
S214002770E9D302B0BDE8F081024B1968024B186835
S214002780FFF700BE1C2900203C29002008B521F0D8
S2140027909CFD014B186008BD60180020014B1868AE
S2140027A021F08EBD6018002073B504462248012A29
S2140027B000EAC1119DF8185023F07C4007D9961EF8
S2140027C0012E28D9073303F07F03194308E09DF84C
S2140027D01C300A43DB0603F0C053134343F060414A
S2140027E00023C4E900108DF80730B5B12022214639
S2140027F00DF1070017F0EFF91A220DF10700211D61
S21400280017F0E9F9082063689DF8072043EA826319
S214002810636002B070BD1143E2E71B220DF10700B2
S214002820214617F0D8F923689DF80720042043EACC
S214002830C2632360EDE700BF80FFFF0738B5094B92
S2140028400D461A68002104461EF04AFF00234FF08A
S214002850FF322383C4E900252361A260E382A376C6
S21400286038BD00BF744802000138C0B205289ABFC0
S214002870014B185C01207047794802002DE9F041B1
S2140028800746154600240E46596888B0490A0129AD
S21400289022464FEA510104F10104F8D8DC78997811
S2140028A024031B88C90201F4006104F480540C431D
S2140028B0C3F30A035203234492B24FF000089C1855
S2140028C0274B6FEA0444039325F07843ED4302A9AF
S2140028D00DF107001B2202938DF8078017F07BF995
S2140028E09DF80720029B02A943EAC2630DF1070088
S2140028F01B2225F07845049302958DF8078017F083
S2140029006AF99DF80720029B6FEA144443EAC26303
S21400291005934FF0FF330794069307A9BB6901227E
S21400292006F110009847BB6905A90446012206F186
S21400293008009847BB69404518BF044604A9012211
S214002940301D98470122404518BF0446BB693046F3
S21400295003A99847404508BF204608B0BDE8F08167
S21400296001009AB2044BD3F88420D206FBD4D3F8E5
S2140029708400C0F3811070470040005038B5184BF3
S2140029800546D3F824010C4600F00700062823D895
S214002990DFE800F0040A121A1E0E1600012305B125
S2140029A0286004B1236038BD20F078FB0523F6E7E5
S2140029B020F074FB0623F2E720F0B0FB0323EEE7DB
S2140029C020F0ACFB0423EAE720F0A4FB0223E6E7B2
S2140029D020F0AAFB0723E2E700231846DFE700BF44
S2140029E00080005038B5104B0546D3F800310C4631
S2140029F003F00303022B0BD0032B0DD0012B0FD1BA
S214002A0020F08CFB032305B1286004B1236038BD99
S214002A1020F08EFB0823F6E720F086FB0723F2E77C
S214002A2001230020EFE700BF0080005038B5104BB0
S214002A300546D3F820310C4603F00303022B0BD0D7
S214002A40032B0DD0012B0FD120F028FB052305B159
S214002A50286004B1236038BD20F060FB0323F6E74E
S214002A6020F058FB0223F2E701230020EFE700BF27
S214002A700080005038B5104B0546D3F840310C4660
S214002A8003F00303022B0BD0032B0DD0012B0FD129
S214002A9021F010FC092305B1286004B1236038BD7D
S214002AA020F046FB0823F6E721F007FC0B23F2E7AD
S214002AB001230020EFE700BF0080005038B5104B20
S214002AC00546D3F860310C4603F00303022B0BD007
S214002AD0032B0DD0012B0FD121F0ECFB092305B100
S214002AE0286004B1236038BD20F022FB0823F6E7F7
S214002AF021F0E3FB0B23F2E701230020EFE700BF02
S214002B00008000502E4B98424AD022D82D4B984237
S214002B1040D014D82C4B984239D00AD82B4B984228
S214002B2032D02B4B98422FD02A4B98422CD00020E4
S214002B307047294B9842FAD1284B186F7047284B9C
S214002B4098422AD0274B9842F1D1244BD3F88000E4
S214002B507047254B98422BD009D8244B984223D057
S214002B60234B9842E3D11D4BD3F88C007047214B82
S214002B70984221D003F5740303F510539842D6D13A
S214002B80164BD3F898007047144B986D7047134B4C
S214002B90586E7047114B586F7047104B986F7047C0
S214002BA00E4BD3F8840070470C4BD3F88800704760
S214002BB00A4BD3F890007047084BD3F89400704740
S214002BC00048E8010024F400C0CF6A0080841E009C
S214002BD000093D0040420F00405DC6000080E00F47
S214002BE0C0EA210180BA8C01007E560380D54302DC
S214002BF0006CDC020090D00373B50D4600210E4B2E
S214002C000191D3F88041064604F00304012C09D054
S214002C10022C0CD00C460EB1019B336005B12C6023
S214002C2002B070BD01A8FFF701FF0F24F3E720F004
S214002C3071FA0190EFE700BF0080005038B5104BE6
S214002C400546D3F840320C4603F00303022B0BD0A4
S214002C50032B0DD0012B0FD121F02CFB092305B13E
S214002C60286004B1236038BD20F062FA0823F6E736
S214002C7021F023FB0B23F2E700231846EFE700BF03
S214002C800080005038B5144B0546D3F800020C46B9
S214002C9000F0070004281BD8DFE800F003090D1138
S214002CA01500012305B1286004B1236038BD21F06A
S214002CB001FB0923F6E720F03BFA0823F2E721F0B0
S214002CC0FCFA0B23EEE720F00FFA0E23800AE9E762
S214002CD000231846E6E700BF0080005010B40D4CF5
S214002CE00B46D4F8204204F00304012C0AD0022C30
S214002CF00CD008B1002101600BB100221A605DF80B
S214002D00044B70475DF8044BFFF790BE5DF8044B2C
S214002D10FFF7B0BE00800050B0F5207F1FD009D866
S214002D20B0F5007F15D003D868B1B0F5C07F0AD0E3
S214002D3000200CE0B0F5607FFAD10B4BD3F8800092
S214002D40C0F3011003E0084B186FC0F303300130E6
S214002D507047054BD3F89000C0F30460F7E7024BCA
S214002D60186FC0F38020F2E7008000504FF4003266
S214002D700E4B014610B500209A66FFF7CDFF48437C
S214002D8041F671320A490B4B884294BF002001205D
S214002D90DC69DA639A6822F4401242EA00529A60CA
S214002DA0E20344BF0022DA6310BD00BF009000506B
S214002DB0005A620200000350420910B50FD0012AE3
S214002DC00FD00A4B0A4C022A18BF234600F01F00F9
S214002DD049B103F58053012282401A6010BD1346A4
S214002DE0F4E7044BF2E703F50053F4E7688000507D
S214002DF060820050648000501FB50021B0F5807FCF
S214002E000446019100F0068100F29D80612800F2E0
S214002E1095801F2805D8002840F0928020F064F99D
S214002E20DCE0A0F12004412C00F28A8001A353F8D4
S214002E3024F000BF1D2E0000E12F00001D2E000014
S214002E40E12F0000013000000130000001300000DA
S214002E5001300000E12F0000E12F0000BB2F000032
S214002E60752F00003730000041300000752F00003D
S214002E70E12F0000E12F0000E12F0000412F0000AD
S214002E80412F0000412F0000412F0000412F00007D
S214002E90412F00000B300000972F0000E12F0000AC
S214002EA0E12F0000E12F0000553000004B300000FD
S214002EB0E12F0000412F0000412F0000412F0000AD
S214002EC0412F0000412F0000412F0000412F00003D
S214002ED0412F0000412F0000412F0000412F00002D
S214002EE0412F0000412F00001D2E0000412F000042
S214002EF01D2E00001D2E00001D2E000001300000BB
S214002F00412F0000412F0000412F0000412F0000FC
S214002F10412F0000412F0000412F0000412F0000EC
S214002F20412F0000412F0000412F0000412F0000DC
S214002F30412F00001D2E00001D2E000080284BD0C3
S214002F40019804B010BDB0F5A06F5ED028D8B0F5DB
S214002F50607F50D019D8B0F5007F4CD004D8B0F5BB
S214002F60C07F3FF45BAFEBE7B0F5207F38D0B0F51D
S214002F70407FE5D120F0B8F802464FF42070FFF706
S214002F80CBFEB2FBF0F2520833E0B0F5806F37D0DC
S214002F90B0F5906FD4D1002101A8FFF7EFFCCFE782
S214002FA0B0F5E06F51D00DD8B0F5C06F43D0B0F596
S214002FB0D06F45D0B0F5B06FC2D1002101A8FFF7A1
S214002FC01BFEBDE7B0F5F06F44D0B0F5086FB7D183
S214002FD001A8FFF707FDB3E720F066F80190AFE71A
S214002FE020F082F802464FF42070FFF795FEB2FB01
S214002FF0F0F20192A4E720F057F802462046F4E7E4
S214003000002101A8FFF712FD9AE7002101A8FFF7AB
S21400301065FE95E74FF0E02302911B695B0705D537
S21400302020F062F80290029B019389E703A902A8A8
S214003030FFF720FDF7E7002101A8FFF71BFD7FE75C
S214003040002101A8FFF71EFE7AE7002101A8FFF77E
S214003050F5FD75E7002101A8FFF730FD70E700BF1A
S21400306008B58020FFF7C8FE034B98429EBF4FF47A
S2140030708032024B1A6708BD005A620200A0005058
S2140030801FB503460020B3F5807F01906FD027D888
S214003090382B00F082800BD8243B092B0FD8092B45
S2140030A00DD8DFE803F05F5F5F5F0C0C5A0C3675D7
S2140030B0522B57D007D83D2B3AD03E2B72D00198D2
S2140030C005B05DF804FB802BF9D1394B1B6F03F07C
S2140030D00703013B032BF2D8DFE803F03D36393B0C
S2140030E0B3F5D06F54D019D8B3F5A06F55D00AD821
S2140030F0B3F5806F36D0B3F5906FE0D1002001A90C
S214003100FFF73CFCDBE7B3F5B06F26D0B3F5C06F36
S214003110D5D1002001A9FFF7ADFCD0E7B3F5006FCD
S214003120ECD00AD8B3F5E06F3CD0B3F5F06FC6D15B
S214003130002001A9FFF7C2FCC1E7B3F5086FBED1B6
S21400314001A9FFF74FFCBAE705230193B7E703236E
S214003150FBE70723F9E70223F7E7002001A9FFF7BB
S2140031604BFDACE7002001A9FFF760FCA7E74FF096
S214003170E02302901B695B0705D51FF0B5FF0C2303
S2140031800393039BE1E703A902A8FFF773FCF8E7A4
S214003190002001A9FFF776FD91E7002001A9FFF7BF
S2140031A09DFD8CE7002001A9FFF748FD87E700BFDB
S2140031B0008000504FF48032074B0849586E03F5E4
S2140031C080535A660B6A23F001030B62C3035CBF8D
S2140031D0034B5A66704700BF0080005000C007507F
S2140031E000A0005008B5FFF74BFF082811D009389B
S2140031F0012802D94FF6FF7008BD4FF40012064BA7
S2140032005A6603F5D8335B6ADB07F3D54FF4FA70DA
S214003210F2E7024B1888EFE700900050A22A002041
S21400322008B5FFF72DFF03280ABF024B4FF6FF70C5
S214003230188808BDA02A0020F8B504468020FFF7AD
S2140032401FFF032800F087804FF40022424B022124
S2140032505A6645F60E03414AC2F88030404B9962E2
S214003260012103F580539962936DD903FCD4D4E908
S21400327000131B0543EA0163E17B94F820500B43DF
S214003280217BE77E43EA0143617B6D0143EA01331C
S214003290A17B43EA811313619169D4E904031B06F9
S2140032A043EA806301F000410B43A17E94F82300BB
S2140032B00B43217E43EA0143617E43EA0123936187
S2140032C0136AE66923F00D0394F8221043EA870395
S2140032D0002E2DD11362966A94F8213045EA031326
S2140032E026F033052B4343F0010393621D4D1B4B21
S2140032F09A6D35EA0202FBD10222194DAA621A65BE
S2140033009A6D5200FCD41A69A56822F4700242EA4B
S21400331005521A614FF00042114B9A6119B9022208
S21400332003F580539A6278B901220F4B9A620BE03C
S214003330334343F008031362936A23F033030343D3
S2140033402B4343EA4103936294F824301BB1034BAA
S214003350064AC3F88020F8BD0090005000C0005018
S21400336000D000500300014000E00050F1A7FFFF2E
S214003370014B93F9000070471B260020F0B5D0E9FA
S21400338001434FF480061A4A4178057856664FF492
S214003390D156022702F5B8325662164E4F2977608C
S2140033A04FF0010728BF4F2106F580567760166953
S2140033B0F603FCD441EA052151611B01417B43EA37
S2140033C004230B43017B43EA41039360C37B817B69
S2140033D01B0143EA4113417C0B43017C43EA410352
S2140033E05360837C13B16FF4D1535362F0BD00BFBA
S2140033F00090005000100250014B1880704700BF2C
S214003400A22A0020014B1880704700BFA02A002087
S2140034104FF4001208B5184B5A660223174A536039
S214003420936813F48033FBD1012822D11FF076FE77
S214003430134B984215D003F5122303F5F863984210
S21400344013D0104B00EB8002400AB3FBF0F3520A95
S2140034500A49CA620B6301234B620022074B5A607B
S21400346008BD45F67A13084AF2E745F61A03074AF6
S214003470EEE75362F1E700BF0090005000400250B4
S21400348000F0490264666666D8B80500BBCF050042
S214003490B0F5207F10B50C4642D008D8B0F5007FB6
S2140034A033D003D888B1B0F5C07F0ED010BDB0F5CC
S2140034B0607FFBD11F4A4C1ED2F8803023F03003C9
S2140034C043EA0413C2F88030F0E716F0A2FB16F0C9
S2140034D0AEFB4FF48031184B164A1967136F013C48
S2140034E023F4704343EA043313671FF0FDFD0446DC
S2140034F0FFF738FAC0F10201204616F092FB00F002
S21400350035F8BDE81040FFF7ABBD0A4A4C1ED2F8AE
S214003510903023F0F85343EA0463C2F89030C5E7CE
S214003520044A4C1E136F23F4806343EA8423136714
S214003530BCE700BF008000500090005008B5012195
S214003540022000F085F94FF42070FFF7E5FB054BED
S214003550187016F05EFB16F06AFB4FF48032024BD2
S2140035601A6708BD1A2600200090005008B54FF4D0
S214003570C070FFF741FCBDE808400449884294BF8C
S214003580012102214FF42070FFF782BF80F0FA027B
S21400359038B504461FF0A8FD0546FFF7E3F9C0F16D
S2140035A00201284616F03DFB0121002000F090F9AC
S2140035B02CB1FFF7DBFFBDE83840FFF751BD034BEA
S2140035C04FF420701978FFF763FFF4E71A260020FF
S2140035D04FF4C02270B50546FFF794FA314B044607
S2140035E05A6603F598335A68012A04D12E494A6070
S2140035F09A699207FCD18020FFF742FD052807D183
S21400360016F007FB16F013FB4FF48032254B1A67B3
S214003610264B24F040749D4230D0254B9D4230D03E
S2140036201FF03CFD8542064603D90121284600F0DE
S2140036304FF9204BDA6812F0060FFBD199689C60B0
S2140036409A68624012F4F81F1ED12846FDF7F0FA79
S2140036508020FFF715FD05280DD11FF045FD044617
S214003660FFF780F9C0F10201204616F0DAFAFFF7FC
S2140036707DFFFFF7F5FCAE420CD270BD44F000743F
S214003680CEE744F08074CBE780209960FFF7F8FC23
S214003690052805D0BDE870400121002000F018B9CB
S2140036A03546DAE70090005000E0015040420F0037
S2140036B080841E000000015010B5224B70B94FF4F4
S2140036C00031214A1860516602F598325268012A84
S2140036D003D11E4AD2F800211A6010BD1B68002BC9
S2140036E0FBD01B4A5268012AF7D0184A8020C2F83D
S2140036F00031FFF7C5FC05281FD14FF4C070FFF757
S2140037000BFB0128044604D102214FF4C070FFF7DA
S214003710BFFE07220F4B1A610122A3F580535A60A1
S2140037200B4A1369DB07FCD5012CD6D12146BDE830
S21400373010404FF4C070FFF7ABBE0122064B5A6034
S214003740CBE700BF641800200090005000800050B7
S21400375000C0015000E0015000D00150044A4178FA
S214003760536F23F4407343EA01235367704700BF47
S2140037700040005010B5044610B10020FFF79CFF33
S214003780124A136943F00403136120F057FA16F047
S21400379053FA0F4B5B6E5B0142BF0E4B0E4AC3F8EB
S2140037A0202420F092FD20F057FF20F089FD16F02F
S2140037B044FA01F02FFF1CB9BDE810401FF094BC7E
S2140037C00120BDE81040FFF777BF00BF00ED00E026
S2140037D00080005000E003500000FF0F10B50446C4
S2140037E010B10020FFF768FF104A136943F0040386
S2140037F013610F4B5B6E5B0142BF0E4B0E4AC3F864
S214003800202420F01BFA20F060FD20F025FF20F099
S21400381057FD01F0FFFE1CB9BDE810401FF064BC68
S2140038200120BDE81040FFF747BF00BF00ED00E0F5
S2140038300080005000E003500000FF0F034A0179AB
S214003840D36E23F030030B43D3667047004000501E
S214003850F8B504461C4BD3F88420D106FBD4D3F825
S2140038608430C3F381139C422CD01FF01DFC012C26
S214003870064602D1214616F0D4F920F026FD4FF078
S2140038800072124B07465A66204616F0DDF94FF4D2
S21400389080630D4D621E93402B676B6E9A0103D4B6
S2140038A0D5F884309B060AD5384620F009FD022C50
S2140038B008D13046BDE8F840002116F0B2B9D5F878
S2140038C08430EAE7F8BD00BF0040005000600050BA
S2140038D010B50C4608B91FF0E7FB074B21461B78CE
S2140038E03BB1064B984204D80120BDE81040FFF7D4
S2140038F0AFBF0220F9E700BF1C260020005A620274
S2140039000278034B012100201A70FFF7E1BF00BFC9
S2140039101C2600204FF0004238B5264B26495A6632
S21400392001224A604AF6CD3103F50B235D6C19641B
S214003930154030BB9968C9070BD4002401221F4BE1
S2140039405A6015B11E4B1F4A1A641DF0C0F8204677
S21400395038BD1A498A601C4AD96ACC0705D49042F9
S21400396001D10724EAE70130F6E79042E5D1F8E70F
S2140039700132DC6A14F0080406D08A42F8D1072423
S214003980DFE700221049F4E78A42F8D020220B4BEA
S2140039900B495A620122A3F580539A6023460A4ACD
S2140039A0486A800603D49342E9D00133F8E793428D
S2140039B0C7D1E4E70090005000500950006009505D
S2140039C0004009503254FFFF40420F004FF00042C3
S2140039D038B5174B174C5A66012203F50C235A606C
S2140039E04AF6CD33656C2364437893401343124AFA
S2140039F0D363C3788178A2689B0043EA011322F060
S214003A0074021343A3600279837943EA0223236195
S214003A104279C37943EA022363610078FFF77AFFAD
S214003A20EB0744BF054B23641DF051F8012038BD59
S214003A300090005000400950004000503254FFFFF4
S214003A40F8B504460D461F4616464AB101238B407C
S214003A503021184A01FB0022F7B141F21001535001
S214003A6004EB4403072D4FF00F014FEA031316D85B
S214003A70A80006FA00F281400F48184416F0E5F850
S214003A804EB9012330210B4AAB4001FB042277B12B
S214003A9041F210015350F8BD42F21001DFE7A5F1E4
S214003AA00800800006FA00F281400448E5E742F28A
S214003AB01001EFE700C0035004C003500CC00350D1
S214003AC010B5152000F00EFE0024FF22064B2146FE
S214003AD05C6520209A625C60FFF76EF92146BDE8BF
S214003AE010402120FFF768B900000450044A054B37
S214003AF0002908BF1346012282401A60704700BFA3
S214003B00401004504020045010B5012104462020E7
S214003B10FFF752F901212120FFF74EF90122114B40
S214003B2015205A60227812069A606178A27842EAD6
S214003B3001429A61FF229A6200229A631A644FF049
S214003B4000425A654FF0FF3203F500531A6500F045
S214003B50F7FD1520E17816F00FF9BDE810401520A6
S214003B6000F0D2BD00000450F8B50125C3B2DFF85E
S214003B708CC0D1F800E09D408F7ACB7A0C46097B4A
S214003B80CCF850500CF5005C4CF820E04FF0300EAE
S214003B90184E1B050EFB006094F80DC043EA074361
S214003BA043EA415322F00302C0F860C0C3650267CF
S214003BB020F094FB104B5D65237A13B1336C2B43D6
S214003BC03364637A13B1B36B2B43B3632279A3795F
S214003BD043EA0243094A93616179E37943EA014380
S214003BE005498B61034B55639D64BDE8F84020F0A2
S214003BF070BB00BF000004500010045000200450AA
S214003C0010B50124C0B2844020F068FB044B5A6D06
S214003C1022EA04025A659C62BDE8104020F059BBB7
S214003C200000045010B50124C0B2844020F056FBBA
S214003C30074BDA6A224208D15B6B9C430CBF012417
S214003C40002420F046FB204610BD0024F9E700BF04
S214003C500000045070B5054620F040FB3022084BAB
S214003C605E6B02FB05335C6E20F033FB0123EDB286
S214003C70AB4033420ABFC4F30A100020013070BDC7
S214003C80000004504FF40032054B9A6641F671323C
S214003C9003F51C33DA63012203F50053DA6070473C
S214003CA00090005041F671320121064BDA6303F5AD
S214003CB00052D1600022DA634FF40032A3F51833C5
S214003CC09A66704700000350CB784A7810B55B01BF
S214003CD00C7843EA82030A79234343EA02130C2250
S214003CE0424302F1B0421363012C02BF8A78024BB2
S214003CF043F8202010BD00BFE880035008B54FF001
S214003D00B0435A686AB958B15B680BB115F0ACFF9E
S214003D1001210D4B596015F0A7FF4FF0B043D96055
S214003D2008BD5B680BB115F09FFF0028F0D115F0B9
S214003D309BFF4FF0B0430222DA6015F095FF012298
S214003D40024B5A60ECE700BF0010005800200058F5
S214003D504FF0B0414B6810B50BB115F085FF01224E
S214003D600B4BC4785A608378934043EA84034478C4
S214003D702343047943EA0413447943EAC4038B607B
S214003D80044B5A600378C3F10203CB6010BD00BF3A
S214003D9000200058001000584FF48032064B5A6638
S214003DA003F5E6235B69C3F38512827003F03F02D6
S214003DB01B0B42700370704700900050014B986CCC
S214003DC0D96C70470080E00F024B1868C0F30740BC
S214003DD0704700BF0080E00F0120034B9B680A334A
S214003DE003F01F03984070470080E00F70B505464B
S214003DF016461C4621B94FF42070FEF7FDFF01461B
S214003E00402C1BD003D8DCB1202C1BD070BD602CFE
S214003E10FCD1042303FB06F2530803EB4113B3FB68
S214003E20F2F3094A203B02EAC303AA6822F06002C2
S214003E30AA60AA681443AC60EB61E7E70623E9E7EB
S214003E401023E7E70823E5E7F8FF7F00012200F5E7
S214003E5080535A6040F6AA6341F20502436100238C
S214003E600B498360C365C26000F500520361C361FD
S214003E70C364916407498365884203D103650023C0
S214003E80436502E004498842F8D001235360704736
S214003E90FFFF010000C005500000065070B50D463B
S214003EA0FFF7D4FF012300F580567360AB7C044611
S214003EB01BB1836843F080438360EB7C5BB1354A7B
S214003EC02B7D944245D1A2F51032C2F88C31E36DB9
S214003ED043F08003E3652A8A6B7B20461343EA8916
S214003EE01343E3602B7BD5E90112FFF77FFF6B7D61
S214003EF01BB1A36843F48033A360AB7D1BB1A368FA
S214003F0043F40043A360EB7D2A7E1B07120502F4F0
S214003F10E00203F0E0431343A365697E1D4A8B1E4F
S214003F20012B1D4B1FD894421BD002F580429442B1
S214003F300CBF01224FF0FF3203EB4213022041F286
S214003F401C620329985020D10423F3652B78636103
S214003F5070BD124A944204BFA2F52032C2F89C31CA
S214003F60B5E70022E8E794420DD00C4A94420CBF15
S214003F7001224FF0FF3203EB4213022042F21C6292
S214003F8001299850DFE70022F5E7042204F50053E4
S214003F90DA65DBE700C0055000C00350000006509D
S214003FA0034BD3F82424D3F820041040704700BFF6
S214003FB000C003502DE9F8431E4B0546D3F81033D6
S214003FC04B1E0E2B0E46174690F8009044781DD9CF
S214003FD009B34FF000082846D7B120F085F909EB61
S214003FE04903072C4FF00F014FEA031315D8A4001E
S214003FF0114808FA04F2A140184415F051FEBEB963
S21400400028468FB1BDE8F84320F06EB98846E2E74F
S21400401015F055FEE3E78846E1E7083CA4000748AC
S21400402008FA04F2A140E7E7BDE8F84315F047BEFA
S214004030BDE8F88300C0035004C003500CC0035012
S2140040404FF48032084B5A6603F5E6235B691A0B79
S214004050027003F03F0242704FF6FF72C3F38513FF
S21400406042808380704700BF00900050014B986CE0
S214004070D96C70470080E00F70B504461CF0F3FD65
S214004080064630B90FCC044D0FC594E8030085E80A
S2140040900300304670BD00BF6818002047F6FF7367
S2140040A09A42F0B56FD002296FD8394B5B5C012B72
S2140040B06BD8384DDF0005EBC30415F83330A17814
S2140040C0012B13D10025E078401AA84202D80844F4
S2140040D0C0B2F0BD431B6668A0EB530336F913600D
S2140040E09642D4BF1D4603F1FF30EEE76068002815
S2140040F0EFD0B0F90040944204DBB0F9024094429D
S214004100B8BF144683883D44FF2B19BFC8224FF022
S214004110280CB0F90620B0F908C0A2EB04030CBFC7
S2140041200126002693FBFCF333446E781BB29E42B6
S21400413001DD002B01DA731E1BB24FF47A7C0133CB
S2140041409BB2071D5D1E2DB24FEAC50E00EBC505DE
S214004150EA88AD689E4214FB025222EAE27202F13D
S2140041605C02B2FBFCF204DD37F8335001339542B3
S214004170E8D200EB0E039888904228BF104688428B
S21400418038BF0846A4E7FF20A3E70020A1E700BF4A
S2140041907F480200681800200229F0B555D82C4B3D
S2140041A0585C012851D82B4C04EBC00114F83000A1
S2140041B04B6801280FD1C8788C78904294BFC4EB26
S2140041C00001C4EB0201001BCAB28242C8BF002233
S2140041D033F91200F0BD002B37D08878904202D316
S2140041E0B3F90200F6E7CC78B3F900009442F1D9AF
S2140041F04C789988013CA1F1FF06714203F1040551
S214004200E4B2714103F10C07CEB2B44216D805EB06
S214004210C1014FF47A756A43B1F902404968521AEF
S21400422004EBD47102EB610292FBF4F29042D1DB14
S214004230B3F902009042CDDC10B2CBE737F831C0BC
S2140042404E1C9445E3D33146DEE70348C2E700BF81
S2140042507F480200681800200080FFFF08B5044869
S214004260FFF70AFFBDE8084001201CF000BD00BFB4
S2140042708448020000487047A42A00207FB5022226
S214004280084B0949CDE901234FF00073CDE903132C
S214004290052301A94FF0FF3005931CF031FD07B050
S2140042A05DF804FB006A18000002040006289ABFA6
S2140042B0014B185C00207047084902004FF400527A
S2140042C0034B00209A660322C3F86022704700BFA3
S2140042D0009000504FF40052034B00209A660322D1
S2140042E0C3F86022704700BF00A000502DE9F04FD1
S2140042F089B007460E4601F0C5FAC00709D4042463
S214004300012016F07FF980B3013CF9D16FF09200DE
S21400431028E0102200210DEB02001DF0E1F904A8B0
S21400432001F012FB049B002BE9D0059B002BE6D086
S214004330069B002BE3D0079B002BE0D00025DFF880
S214004340808008F10409B54219D34FF48A7401F04D
S21400435093FA00F00E03062B2DD1C30501D501F00C
S214004360BDFA002009B0BDE8F08F01F085FA10F024
S2140043700E03FAD0022BF8D04105DFD5C4E701F0D2
S21400438075FAA6EB050A8400544528BF544699E8FA
S214004390030000238DE80300CDE9054307EB050B7A
S2140043A0CDF810B0029404AAD8F8003007CA16F068
S2140043B0CBF82544C7E724FA03F3DA07A6D5C6E701
S2140043C02C49020070B504460D461FF087FF1C2CD2
S2140043D0064608D80C2C0AD8082C2CD013D8BB2399
S2140043E0E340DB0718D4002321242B801EE00123A2
S2140043F0174AA340134224D1122C26D00D2CF2D1FA
S2140044004FF4F06005E0092C18D00C2CEBD14FF4DB
S214004410C060FEF7E7FE02E08020FEF701FF4FF6E1
S214004420FF7398420CBF0E240024288030461FF0ED
S21400443050FF204670BD4FF48060EEE74FF490606A
S214004440EBE700230F242B80F0E74FF4E060E0E773
S21400445000805110B8B1036813F4E07F03F03F000A
S214004460C3F382120AD0012A0DD1084B41B103F5DD
S2140044708053012282401A6000207047044BF5E703
S21400448003F50053F5E70E20704700BF6880005024
S2140044906480005030B58BB06C466C4D0FCD0FC4A9
S2140044A02B686B4A2360FF238DF80130D2F84C311D
S2140044B013F4802340F0BE80D2F850218DF80130EE
S2140044C09DF801306C46FF2B08BF2A236846614DD5
S2140044D08DF80130FEF752FF3220FEF78DFF0FCD2C
S2140044E00FC40FCD0FC495E8030084E80300584BB3
S2140044F0D3F84C21110340F18880A3F5FE431C88B5
S214004500B4F5807F28BF79248DF81940FEF730FF78
S214004510044484F3080450488DF81840FCF78EFBDA
S2140045206846FEF789FE3220FEF76CFF4B48FFF721
S2140045304FF84B4C01213520FEF73EFC0020FEF7DD
S21400454067FFFEF7FBFF236F002023F0070343F00F
S21400455003032367FFF71CF8236F23F474432367D2
S214004560404BD3F8FC20D20153D4D4F88030C4F8A2
S21400457080303B4BD3F8202122F0030242F00202A7
S214004580C3F82021D3F8242122F0070242F00202C9
S214004590C3F82421D3F8802122F0030242F001025E
S2140045A0C3F88021D3F8402122F0030242F0020231
S2140045B0C3F84021D3F8602122F0030242F0020241
S2140045C0C3F86021D3F8402222F0030242F0020230
S2140045D0C3F84022D3F8002222F0070242F002027B
S2140045E0C3F80022D3F8202222F0030242F0010290
S2140045F0C3F82022FEF7DEFD4FF0E022002013690C
S21400460043F0040313610BB030BDD3F85041E4B25D
S2140046107AE7D3F8FC2022F08072C3F8FC20D4F8A6
S2140046208020C4F88020D3F8FC2042F08072C3F8C3
S214004630FC209EE74FF07E6393F89C2093F99C3015
S214004640002BFFF63DAF8DF8012039E73849020010
S2140046500080E00F4C49020000F0490200B4C40498
S2140046600080005000ED00E007B56B46054A106874
S214004670516803C36846FFF7A9F9002003B05DF848
S21400468004FB00BF744902000028ACBF00F1604084
S214004690064B4FEA0111C9B2ABBF00F5614000F00E
S2140046A00F0080F800131954704700BF14ED00E0A7
S2140046B008B51FF013FE0A4B1A786AB901221A7061
S2140046C01FF007FE6FF00402104605210132FFF7C7
S2140046D0DBFF402AF8D108BDBDE808401FF0F9BD51
S2140046E01D26002000280CDB01220649430900F0A5
S2140046F01F008240203341F82320BFF34F8FBFF3C3
S2140047006F8F704700E100E0002807DB01234109B6
S214004710034A00F01F00834042F82130704700BF74
S21400472000E100E0054B421153F8223000F01F0074
S21400473023FA00F0C04300F00100704700E100E0FB
S214004740002808DB01224309034900F01F008240CD
S214004750603341F82320704700E100E010B50446BE
S2140047601FF0B3FD024B1C601FF0AAFD002010BD19
S2140047708418002010B51FF0A8FD034B1C681FF01E
S2140047809FFD204610BD00BF84180020034B022268
S214004790186800238068194611F008BD342A0020E6
S2140047A03021037A02464B4303F1A04303F58023EE
S2140047B0D86E07491B6F884208D113F0020006D056
S2140047C05069536B1B1A5842584170470020704777
S2140047D01E26002070B5044608B9012070BD057A73
S2140047E02846FCF791FD30236B4303F1A04303F505
S2140047F080232846DE6EFCF7A7FD0A4B9E421CBFB0
S214004800042384F8543094F8503094F854002BB1B4
S214004810022803D1012384F85430DFE70428DCD1D2
S214004820F8E700BF1E26002010222DE9F04188B0D0
S214004830044600210DEB02001CF052FF4FF44473B7
S214004840ADF81230344B207ACDE90533FCF75CFD29
S2140048502046FFF7A5FF0546207A25B1FCF774FD34
S21400486008B0BDE8F0810DF10B011EF0BDFC9DF80F
S2140048700B70002F48D1204615F032FB03A90646E0
S214004880207A1EF0D3FC039B3946013B9DB204F10F
S2140048900C03102218461F46D4F804801CF020FF94
S2140048A0E2681E4BC5F30A05134030222D0145F081
S2140048B040751D43237AC4E90358534303F1A043CC
S2140048C0666103F580231A6F217E520862F3410168
S2140048D02176196F227E27F0030761F30002227605
S2140048E01B6FA2699B0863F39F0247F00207A26151
S2140048F0079723680A4904AA0B600094094B207A9C
S214004900FCF7DCFC207AA9E79DF81C3065F3410330
S2140049108DF81C30EDE700BF1E2600200F80FFFC40
S21400492088180020199F01002DE9F0410C46154615
S214004930064686B05822002120461F461CF0D0FEB0
S21400494095E80300EB682A69E362C4E90C232A7D34
S21400495084E8030084F84420AA7DA364012384F835
S2140049604C3084F84D300C9B84F84520E3630D9B57
S214004970A76323642B7A84F84E306B7A84F84F3022
S214004980344B34607360344BB360344B3361344B18
S2140049907361344BF360FCF75DFC38B1324B9842E0
S2140049A004D01027384606B0BDE8F081002104F197
S2140049B00800FCF7D7FB07460028F2D14FF00108A5
S2140049C02A4B33622A4B84F85480B361294BF36137
S2140049D09DF83C3084F8510084F853309DF8383008
S2140049E0204684F85230697D84F8508015F045FAE8
S2140049F095F90900FFF7A4FE95F90900FFF784FE74
S214004A00CDE903770297236BCDE900836368E26AFA
S214004A102168207A14F016FC07460028C1D13022FF
S214004A20237A4FF48011534342F2640203F1A04309
S214004A3003F58023995095F90800FFF781FE95F954
S214004A400800FFF761FE3046FFF788FE2046FFF7B6
S214004A50EBFEA7E75BA10100779F01006F9E0100B8
S214004A60759E01001D9F0100038000F0D5470000E1
S214004A707B9E0100DB9E01002DE9F34105682C7A40
S214004A802046FCF741FC3022194B02FB0431CE6E67
S214004A9018498E4225D1287A0DF1070102FB003312
S214004AA0D3F86C801F6F1EF09FFB9DF8073063B92C
S214004AB0B04508D02846FFF773FE90B901230C4A8C
S214004AC0A34093640DE0BB07F4D41FF007FC01235A
S214004AD0094AA3405365A2F58052936253631FF0C0
S214004AE0F8FB204602B0BDE8F041FCF72DBC00BF45
S214004AF0000004501E260020002004502DE9FF412F
S214004B0001271C46564B0A9D0193564B9046009330
S214004B100A46CDE902772946534BFFF705FF0646BE
S214004B20002840F0958023683946AB6563683A20D4
S214004B30EB65637A85F86130237A85F86030E37A2E
S214004B4085F86330A37A85F86230637B85F8653034
S214004B50237B85F86430E37B85F86730A37B85F894
S214004B606630FEF729F93B460422617A207AFEF782
S214004B7067FF3B460222E17AA07AFEF761FF3946DC
S214004B806068FEF719F988F8006041462068FFF76C
S214004B9085F91422637C5B0103F1A04303F57033AF
S214004BA0C3F81C26617A227A42EA0142C3F8342608
S214004BB0E17AA27A42EA0142C3F82C2685F86860B8
S214004BC098F81930032B49D8DFE803F03446021C66
S214004BD0022385F8683000230422E17BA07BFEF7E1
S214004BE02FFF022741F21C61627C204B03EB421030
S214004BF04750E07BA17BB13241EA004103EB421310
S214004C00996017E0012785F8683002220023617B4F
S214004C10207BFEF715FF637B227B617C42EA034222
S214004C20134B49015A500422236803F58053DA6572
S214004C30002FD0D1237A0F4A85F86030637A052199
S214004C4085F86130206800F500539A6415F014F872
S214004C50304604B0BDE8F0810027D4E72326F7E706
S214004C60A1A2010025A3010019A3010000C0035062
S214004C7024D60350FFFF010073B50024684600F0F9
S214004C80C1F90C4B00981C600B4B0C4D1C600C4E75
S214004C900C4B306018602C6015F0DDFB2046019B45
S214004CA03268013BDB0853802B6801332B6002B06F
S214004CB070BD00BF9C18002098180020A018002087
S214004CC0A8180020A41800202DE9F04F0E46002753
S214004CD0984689B0054606A81446059700F092F94E
S214004CE0731C14BFB3464FF0080BB8F1000F00F06A
S214004CF0BC80C8F80070002D00F0B980079BAB425E
S214004D0040F2B5801FF0EAFA073505AB25F0070537
S214004D103146009381463B462246284600F07CF901
S214004D20059E074606B130B948461FF0D2FA19204C
S214004D3009B0BDE8F08FDFF84CA17388DAF80010F0
S214004D40DA00C0EBC3030139272BCAF8001074D968
S214004D50002C50D1854205F1080347D0594630460D
S214004D60029315F004FB0446029B0590059A02EB9D
S214004D70030B584615F06FFB059905F10F034A889B
S214004D80C3F3CF03D21AABF80220CA88ABF80430BC
S214004D9072B3D31A9BB201EBC202ABF80630938013
S214004DA08B88ED08A380BBF80430002231465846B5
S214004DB06580E38000F0A8F9237843F001032370B0
S214004DC0DAF800300133CAF800302C4A4846136837
S214004DD008343B4413602A4A11688B4288BF13602C
S214004DE01FF077FA0020C8F80040A1E73446BDE778
S214004DF0ABF80620D4E7F41820460293039215F089
S214004E002AFB029BF91DC90805986180D91DC908AF
S214004E10A180C18879B1C900039ACD1DAA1A3A4467
S214004E20C2F3CF020144E2808A80013BDB08438064
S214004E30A388C380C0E7E180F7E7012C19D106F10B
S214004E400803B3FBFBF20BFB1233A3B15946304603
S214004E5015F08DFA04462378012243F0010331460B
S214004E602046237000F050F9AFE7222060E72120AB
S214004E705EE78542EAD13446EDE700BF9C18002085
S214004E8098180020A01800202DE9F347044668462D
S214004E9000F0B8F8002C00F0AB801FF01FFA14F8F2
S214004EA0086CF30704D534F806ECBEF1000F05D104
S214004EB01FF00FFA012002B0BDE8F0874D494E4DB5
S214004EC00A68D5F80080A2EBCE020A6034F8041C0B
S214004ED00EF1010308F10102A4F1080C9BB22A604E
S214004EE0B9B3ACEBC10292F800A0B2F806901AF083
S214004EF0010F578806F002061FD1FEB9A9EB07017D
S214004F00012926D80EF102031F44BBB2C5F8008063
S214004F1034F8026CFEB9013B9BB214F8081C6FF320
S214004F20000104F8081C002124F8061C538013789E
S214004F30D18061F30003137031E056B119448BB28F
S214004F4014F8081C6FF3410104F8081C0021918036
S214004F50DEE76246DCE70CEBC608DDE900710F44CD
S214004F60B845D8D21CF83670414617F001072AD04B
S214004F70013B9BB214F8085C6FF3000504F8085C6C
S214004F80002524F8065C5380137865F3000313703D
S214004F90C2F107030B44C3F3CF03D3808B801749BA
S214004FA00B681BB1934201D85B8803B90A601449A9
S214004FB00B681BB1934201D35B8803B90A601FF0EC
S214004FC088F9002077E7A6EB0E06012ED0D8B8F8B1
S214004FD00260A8F802703344B8F806702E689BB2D8
S214004FE0013E1FB108EBC7012E60C3E72E6094E7B1
S214004FF0222060E79C180020A0180020A818002097
S214005000A41800200249034A0160521A4260704701
S214005010F82A002000800020F0B506460020059FF4
S2140050204C1C08BF08213860BAB91F480568002D17
S21400503038D0B5F802E0DB0003EBCE0EC1F1000C71
S2140050402878C0070BD52ABBE888B0B105EBC005A9
S214005050B5F802E003EBCE0EF2E71448E6E7B645F5
S214005060F1D35AB905F10804B4FBF1F001FB104482
S214005070A0190CB17045E7D83D60F0BD08290FD0E7
S2140050806C88013405EBC404A01B00EA0C00201A4F
S2140050908645F1D2A8880028EFD0A5EBC005D7E753
S2140050A03046E9E72846E8E7A8180020A4180020BC
S2140050B0134B13B51B6804460846FBB121B9684676
S2140050C0FFF7A0FF6CB900980378D90707D55CB93D
S2140050D0C3889BB100EBC3000378DA07F8D402B0AC
S2140050E010BD084B1868EFE7012C07D183882BB159
S2140050F0A0EBC3000378DB07F8D4F0E70020EEE768
S214005100A0180020A4180020F8B5154F05460C4638
S2140051103B68144EB2B1994209D041B13368994206
S21400512004D129460120FFF7C3FF3060F8BD2946A9
S2140051300020FFF7BDFF33683860A342F1D0002C93
S214005140EFD0F3E7994205D13D603368A34204D11E
S2140051503560EBE79842F7D3F7E7AB42F8D3E5E7DD
S214005160A8180020A4180020BFF35F8F074B5A6AC8
S21400517022F480325A62D3F8942022F00102C3F857
S2140051809420BFF34F8FBFF36F8F704700ED00E0A2
S21400519038B5FFF7E9FF274A2748D2F8C030274D31
S2140051A023F0FF0343F0A003C2F8C030244B04688A
S2140051B09D4204F101011DD1224BC2F89840C2F86D
S2140051C09C3003F5FF437E33C2F8A0300160BFF386
S2140051D05F8F0522174BC3F894205A6A42F4803238
S2140051E05A62BFF34F8FBFF36F8FBFF34F8FBFF37C
S2140051F06F8F38BD23F01F03203BB3F1005F09D348
S214005200C2F898400F4C43F00103C2F89C40C2F825
S214005210A03001600C4B0168064A23F01F0343F0E0
S2140052200303C2F89810C2F89C30084B0131C2F84C
S214005230A030CBE700ED00E0AC180020E02800200E
S2140052400027002003000020FF280020E17F002028
S2140052502DE9F0410D461146DFF8E080D8F8004011
S214005260B4F5807F34BF00271A27FFF77DFF1F297C
S2140052702ED90021C2061CBF20F01F0020302E4E63
S214005280EB0618BF25F01F05CBB29C4235D8D6F8E2
S214005290C03020F01F0023F47F4343F48073C6F829
S2140052A0C03040F003041FF019F8D8F8003025F09D
S2140052B01F0141F00301C6F89830C6F89C40C6F8B6
S2140052C0A0101FF006F8D8F800300133C8F80030F8
S2140052D0BFF35F8F0522184BC3F894205A6A42F436
S2140052E080325A62BFF34F8FBFF36F8FBFF34F8F7B
S2140052F0BFF36F8F3846BDE8F081C6F89830D6F811
S2140053009C30D6F8A02023F01F03984222F01F02FC
S21400531001D195420BD0904201D89D4209D2D6F8D1
S2140053209830013123F0FF03C6F89830ACE7002729
S214005330CEE72827CCE700BF00ED00E0AC18002041
S214005340BFF34F8F0549064BCA6802F4E062134369
S214005350CB60BFF34F8F00BFFDE700BF00ED00E05E
S2140053600400FA0538B5416004461EF0AEFF054657
S2140053702146044813F0FCFE2846BDE838401EF0DF
S2140053809FBF00BFB0180020014813F0EEBE00BF5C
S214005390B018002070B51EF098FF174E0546174847
S2140053A014F0E3FC3378CBB900F072F9044620B170
S2140053B028461EF085FF204670BDFFF7E5FF1EF06D
S2140053C0CFFE0F4B1C601EF0CFFD0E4B0E4A186032
S2140053D0536F43F00103536715F047F800F078F871
S2140053E015F05AF8094B002418600123284633703C
S2140053F01EF066FFDFE700BF2C2600208049020073
S214005400B4180020DC18002000400050B818002017
S21400541038B504461EF059FF0F4D02462B78FF2B79
S21400542004D1B4B1BDE838401EF04ABF1BB9002C09
S214005430F8D0012103E0002C0CBFFF2101210B4412
S214005440DBB22B70B3FA83F304495B0910460B708A
S214005450E8E71946F3E700BF2826002027260020A5
S214005460054B1B685843054B00F5742000F23F209F
S214005470B0FBF3F0704700BFDC18002040420F007E
S21400548073B5114E0446337883420FD04FF4007341
S2140054900E4DADF8043058B101A8FEF75FF9402074
S2140054A0FFF7DEFF2B68181A2860347002B070BD54
S2140054B08DF8050001A8FEF751F94020FFF7D0FF50
S2140054C02B681844F0E700BFCF2A002014190020EC
S2140054D073B5002401A88DF80440FEF711FA2046A3
S2140054E0FFF7CEFF3F4B40491A6F404802F00702D5
S2140054F00A60D3F800113E4D01F0030101604FF43D
S21400550000203C49032A48664FF40030486601F5FF
S21400551098318969C1F3400129705BD0D3F8202106
S21400552002F00302022A55D0D3F8243103F0070311
S214005530981E43424341304C4FF4C8702370FFF727
S2140055408FFF0A222D4B2E4918602E4E0B68013A0B
S21400555012F0FF0246F8040BF9D1034400EBC0003A
S21400556003440B602B78284D63B323781D4A3BB960
S214005570D2F8003103F00303591E4B424B4123700F
S214005580D2F8003103F00303022B25D0032B26D0DC
S214005590012B17D11DF0C2FD024698B11B4B1C4EC5
S2140055A0DC6800231946C4F30B04013404EB8404BE
S2140055B00138E4FB060110F0B3FBFFF751FF2B6840
S2140055C003442B601F20FFF74BFF2B6803442B6020
S2140055D002B070BD0123AEE71DF0AAFDDCE71DF0AA
S2140055E0A3FDD9E700800050181900201C190020E0
S2140055F0302600200090005031260020E0180020C1
S214005600E4180020E81800201419002000C00150FB
S21400561040420F000122154B10B55A67144B154C2B
S2140056201B7813B302201EF0E5FFF0B11EF0EEFC6F
S214005630D8B1A36DD90302D5E36D9A0715D40D4BE7
S2140056409B6DDB0711D401220B4B1A701EF0C6FFB0
S214005650BDE81040094B0A4A1860136F23F0070391
S21400566043F0030313671DF03FBD10BD00D000508C
S2140056703126002000C000502E26002010190020E1
S214005680008000500122014B1A707047312600201E
S21400569070B51EF023FE144E05463478FCB9134B45
S2140056A01C60134B1C60134B1C6000F02BF8012091
S2140056B01EF0B6FF1EF09EFD0F4B0246186020B986
S2140056C028461EF006FE232070BD234640F2E73132
S2140056D00A4810F025FB0A4B186001233370284651
S2140056E01EF0F7FD0020EFE73426002030190020DA
S2140056F02C190020381900203419002018FCFFFF50
S214005700281900201FB500241B4B18689A880290A1
S214005710D3F806009B7A00901848ADF80C208DF858
S214005720043014F022FB02A88DF808408DF80C40D7
S214005730FEF70EFB694601208DF80040FEF7C4FA1E
S2140057404FF0B04240F2FF31936923F47F7323F0A9
S214005750030393610A4B5961936A13F00803FBD164
S21400576013620120FEF7CAFA0C20FEF7E9FF0C20B0
S214005770FEF7CAFF04B010BD944902007C4902003F
S2140057800020005810B51EF0A9FD4FF0B0430446A7
S2140057905B695A06074A03F0010003F0510348BF4D
S2140057A040F0020053611EF047FC2046BDE8104062
S2140057B01EF08FBD002000581FB503F03FFD15F00A
S2140057C0C4FF16F0C9FF064A01AB10685168127A8A
S2140057D003C301A81A7001F085FF05B05DF804FB4D
S2140057E0484A0200024A0349034809F099BA00BF32
S2140057F0A0490200B8490200004A02004FF0805259
S214005800014B5A60704700BF00ED00E0F8B50E4649
S2140058100546D0B1C9B10E4B0E4F19683868FCF773
S214005820B1FD044678B9062332460B493868FCF7C2
S214005830B7FE044638B901232A4608493868FCF7FB
S214005840AFFE00B12C702046F8BD2124FBE700BF58
S2140058501C2900203C2900202C0004003C000400E9
S214005860014B1868704700BF0040025C014B586847
S214005870704700BF0010025C014B186B704700BFFA
S2140058800010025C014B1868704700BF0010025CF5
S214005890014B9860704700BF0010025C014B186413
S2140058A0704700BF0010025C014B5864704700BF91
S2140058B00010025C014B5863704700BF0010025C8A
