S028000062745F736F635F656E657267795F68617276657374696E675F73656E736F725F322E73333745
S214000000C00A0020A10B000063C3010063C3010007
S214000010E7DB010063C3010063C3010063C30100A3
S21400002063C3010063C3010063C3010063C301002F
S21400003063C3010063C3010095DC010063C30100D4
S21400004063C3010063C3010063C3010063C301000F
S21400005063C3010063C3010063C3010063C30100FF
S21400006063C3010063C3010063C3010063C30100EF
S214000070316C000063C3010063C30100310A000055
S21400008027BB010063C301009108000063C30100A1
S21400009063C301004114000063C3010063C3010091
S2140000A063C301009D0F00007D0F000063C30100C5
S2140000B063C30100BD6A010063C30100217501002E
S2140000C05B4B0200574B0200FD6C0100714B0200B7
S2140000D05F4B0200F1740100634B02006175010082
S2140000E0354C0100F94D0100CD75010063C30100D8
S2140000F063C3010063C3010063C3010063C301005F
S21400010063C3010063C3010063C3010063C301004E
S21400011063C3010063C3010063C3010063C301003E
S21400012063C3010063C3010063C3010063C301002E
S21400013063C3010063C3010063C3010063C301001E
S21400014082B030BF074BD3F8F030DB0704D500236E
S2140001500193019B052B01DD02B07047019B013323
S214000160F6E700BF00ED00E0F0B5114A114C124E64
S21400017000F00105E3695F0713D40DB9334213D1CC
S21400018003EA00078F4207D10B4A1A40002A0CBF29
S21400019000206FF00100F0BD013AEBD16FF00200D5
S2140001A0F9E74FF0FF30F6E76FF00100F3E700BF26
S2140001B08096980000000350020001000B4B70B5BB
S2140001C0D96911F480310DD101244FF48072084EA4
S2140001D0084DF46020462C641A61FFF7C5FF3464AE
S2140001E0EC6070BD6FF00100FBE700BF000003503D
S2140001F000100350002003504FF4003238B50F4B68
S2140002000F4C9A6641F671330122E569E3630D4BA4
S2140002100021DA60022360612120236105F4803525
S214000220FFF7A2FF10B92120FFF79EFF0122064B21
S214000230DA600DB10023E36338BD00BF00900050C4
S21400024000000350001003500020035070B5134CFC
S2140002506061E3695B071ED40E4656F8043B8D18B2
S214000260A361AE420BD10423002121202361FFF7B6
S2140002707BFF58B9BDE870402120FFF775BF082105
S2140002800846FFF771FF10B10423236170BD56F8CE
S214000290043BA361E5E74FF0FF30F7E700000350AB
S2140002A02DE9F84315464FF40032184B89469A66F6
S2140002B041F6713203F51C33DF69DA630122064624
S2140002C003F58053DFF84C8007F48037DA6055B9C1
S2140002D0284601220E4BDA601FB10022A3F5005318
S2140002E0DA63BDE8F88306F5005404EA0804A41BA4
S2140002F0AC4228BF2C46494622463046FFF7A6FFAA
S2140003000028E6D12644A1442D1BE0E700900050CB
S2140003100020035000E0FFFF000000000000000087
S214000320013800D0FCE7704707B588B10BA3D3E9C6
S21400033000230949C1E90223CDE900234FF0FF322B
S2140003404FF0FF33086923F096FE03B05DF804FB18
S21400035000220023EDE700BF480B00200DD5015515
S214000360200000000348044B834202D0034B03B135
S214000370184770473C2C00203C2C00200000000052
S214000380064B0749C91A891048BF0131491003D0E6
S214000390044B0BB101481847704700BF3C2C0020A7
S2140003A03C2C00200000000010B5064C237843B912
S2140003B0FFF7D8FF044B13B10448AFF300800123C6
S2140003C0237010BDFE26002000000000ECCD0200C9
S2140003D008B5054B1BB105490548AFF30080BDE8DD
S2140003E00840FFF7CDBF00BF00000000A00D0020B2
S2140003F0ECCD0200A3F5803A704700BF174B002BE8
S21400040008BF134B9D46FFF7F5FF00218B460F46AE
S2140004101348144A121A24F04CFC0E4B002B00D042
S21400042098470D4B002B00D0984700200021040071
S2140004300D000D48002802D00C48AFF3008017F0DE
S21400044093FC200029001BF008FB17F0D3FA00BF2E
S214000450000008000000000000000000C00A0020A5
S214000460C00A002020280020000000000000000035
S214000470034B5A6812B19A6A002AFAD1704700BF35
S2140004800040065013B5044601A9092028F03EF89E
S214000490019B5C434FF47A73B4FBF3F402F068FC00
S2140004A00020611E02F058FCFFF7E2FF0122034B1A
S2140004B0DA60FFF7DDFF02B010BD00BF0040065057
S2140004C0354B30B593E807004FF400739DB0ADF898
S2140004D00430002304AD85E807000B213D2002937D
S2140004E08DF80C3003F046FA01213D2002F07AFE2A
S2140004F0012002F005FC012440F201131220ADF8A1
S21400050018308DF81A4005F001FC0222234B2846CD
S2140005109A6102F0C9FB01A803F082FC204D02A8F4
S21400052003F0BEFC1F4B28462B601BF0F8FB88BB75
S214000530284607A91BF0A1FD60BB4FF08073CDE9EC
S21400054008304FF41673184A0A93184B8DF82F008C
S214000550CDE90F230C9340F2063340F6C412ADF8F3
S214000560443040F6F613CDE9122340F6D863104A1D
S214000570CDE914300F4B2846CDE917320E4B07A9AC
S214000580CDE91932224607948DF8344016941B9311
S2140005901BF01EFC1DB030BDA887020000500650A0
S2140005A0BC0D00200C2A00200402020000010102FB
S2140005B0F71BDA0580B14F011C8122000368A24AAE
S2140005C023F47F4323F00703934273B505D09F4A75
S2140005D0934200F0F68002B070BD02F0C9FBFFF750
S2140005E047FF02229A4B9B4CDA6021469A48FFF757
S2140005F03FFF1BF0D2FB20B92388984A5BBAA2F8CB
S2140006000730974D28460FF063FF044620B3954DFC
S214000610954928681CF06DFD944928681CF069FD12
S2140006201BF048FE1BF047FE914B924A00939249FE
S2140006304FF49A7328681CF05CFD90492346904A54
S21400064028681CF056FD204600F06CFA8D49286894
S2140006501CF04FFD00BEFDE701232022009311464B
S214000660034628780FF04EFF044620B37D4D7E49A2
S21400067028681CF03EFD7D4928681CF03AFD1BF0FA
S21400068019FE1BF018FE7A4B7A4A00937A4940F21C
S2140006903D1328681CF02DFD78492346784A2868C3
S2140006A01CF027FD204600F03DFA764928681CF02D
S2140006B020FD00BEFDE7694B01465A7D28780FF005
S2140006C061FF044620B3674D674928681CF011FD9A
S2140006D0664928681CF00DFD1BF0ECFD1BF0EBFDD9
S2140006E0634B644A0093644940F2451328681CF043
S2140006F000FD62492346624A28681CF0FAFC204640
S21400070000F010FA5F4928681CF0F3FC00BEFDE715
S2140007100246014628780FF015FF064620B3514CD6
S214000720514920681CF0E5FC504920681CF0E1FCAB
S2140007301BF0C0FD1BF0BFFD4D4B4E4A00934E49CB
S2140007404FF4A47320681CF0D4FC4C4933464C4A42
S21400075020681CF0CEFC304600F0E4F949492068D9
S2140007601CF0C7FC00BEFDE7287803210FF020FF31
S214000770054600283FF42FAF3A4C3B4920681CF052
S214000780B8FC3A4920681CF0B4FC1BF093FD1BF043
S21400079092FD374B374A009337494FF4A7732068CA
S2140007A01CF0A7FC35492B46354A20681CF0A1FCF6
S2140007B0284600F0B7F9334920681CF09AFC00BEC2
S2140007C0FDE7314C2378012B31D80A20FFF75AFE7B
S2140007D0012003F031FB224B032118780FF0E8FECE
S2140007E0054620B31F4C204920681CF082FC1F4998
S2140007F020681CF07EFC1BF05DFD1BF05CFD234BAF
S2140008001C4A00931C4940F26B1320681CF071FCD4
S2140008101A492B461A4A20681CF06BFC284600F042
S21400082081F9184920681CF064FC00BEFDE72378B7
S214000830022B05D146F2A810FFF724FE03F0F8FBC2
S214000840237801332370C6E6A0000100A00004014F
S21400085000400650B80D0020BC0D0020002C0020E3
S214000860162C0020B00E00203087020032870200CF
S2140008709887020037870200408702004F870200F1
S2140008804C87020064870200FF260020758702005E
S2140008900222014B5A6170470060065008B50448B2
S2140008A027F03EFEBDE80840024800F087BB00BFC8
S2140008B028890200182A0020064B1B681A7A022A8A
S2140008C004D812B11B68044A13607047032AF9D093
S2140008D0704700BF2C2A0020C40D002070B5234DA1
S2140008E0A8B012AC0FCD0FC495E80700292384E802
S2140008F007001F4A1F49CDE903231F4B0024CDE9FB
S21400090005134FF4807307934FF4A023CDE90944F1
S2140009100B94089319AD08AE0FCECDE90E44109493
S2140009200FC5164B0DAE2B60154B1EAD0D930FCE9F
S2140009300FC52020134B12AA2B60134B19A9239323
S214000940124B2694CDE92403114B12482793124BE1
S214000950009303AB05F060FD054621464FF4E130F9
S2140009601BF0F1FC284628B070BD00BFBC87020013
S2140009700000065000050006000800072400065088
S214000980020005003C000650002700200001010080
S214000990402A0020800E0020C80D0020831E012B58
S2140009A010B50C4619D801290DD8184B04221B691E
S2140009B005210020C3F3401303F07CFB24B1144B45
S2140009C018680368F3B910BD114B18680368002B4C
S2140009D0F9D0BDE8104005F0EDBC8B1E012B0CD8FD
S2140009E00128F0D8BDE810400022084B05211B69FD
S2140009F01046C3F3401303F05DBB0029E4D0012981
S214000A00DDD0E0E7BDE810401CF042BD00C003505A
S214000A10542A002008B50449044805F0F3FEBDE852
S214000A200840FFF75BBF00BF582A0020A80E002032
S214000A3001481CF0B2BD00BF800E0020014B5A6A70
S214000A4018681047800E002003784278C3F34203EC
S214000A5043EAC203DBB20C2B32D9242B09D84B2233
S214000A601A4912FB03130A22B3FBF2F303F17800D0
S214000A707047732B09D89622154912FB03130A22D6
S214000A80B3FBF2F303F596707047942B09D8E02277
S214000A90104912FB03130A22B3FBF2F303F2C6500B
S214000AA07047C52B0ED840F2C71202FB03F00A238C
S214000AB0A0F58430CE38B0FBF3F000F6B3007047F4
S214000AC07120704741F26710704700BF36FCFFFF89
S214000AD057EAFFFF859AFFFF012208B5074B1A70F9
S214000AE00022074B1A700422064B1A701F22064B70
S214000AF01A7005F041F9054B186008BD192C002046
S214000B0020270020182C0020172C0020B00E0020D4
S214000B10024B034918681CF0ECBA00BFB00E002068
S214000B20D887020070B50C4C0C49064620681CF0AD
S214000B30E0FA05F021F90546206805F011F930467F
S214000B40FFF7E6FF284605F00BF920680449BDE8E4
S214000B5070401CF0CEBA00BFB00E0020DA8702004C
S214000B60DC87020008B5034827F0DAFCBDE8084039
S214000B701AF095BF28890200014827F0D1BC00BFB3
S214000B80288902000348044A0449121A92101BF0EE
S214000B90E9BB00BF40010000200300002028002021
S214000BA008B5154B83F30A8800F030F8FFF7EAFF24
S214000BB0124B13498B4212D30020124B12498B4220
S214000BC018D3FFF71BFC186850F82240586840F806
S214000BD02240013298688242F5D30C33EAE70022BD
S214000BE0F8E71C6844F8220001325C68A242F8D399
S214000BF00833E4E70022F8E700000020F4CD020006
S214000C0000CE020000CE020000CE02004FF40041EB
S214000C10134B144A70B59A60D3F88820124D42F4EC
S214000C207002C3F88820114A05F5005491664FF00B
S214000C30FF3222664FF6DF7262660222C3F8D020C9
S214000C40BFF34F8FBFF36F8F4FF44036032005F08E
S214000C5079F80320E66005F059F82E6170BD00BFF4
S214000C6000ED00E00000000000800044009000500E
S214000C70014B1860704700BF642A0020054B1860BF
S214000C80054B1B6F03F00703032B01D126F092BA26
S214000C90704700BF6C2A002000800050BFF34F8FC3
S214000CA00549064BCA6802F4E0621343CB60BFF303
S214000CB04F8F00BFFDE700BF00ED00E00400FA051F
S214000CC0002307B52948019327F02AFC4FF4407308
S214000CD0012204216846ADF8003000F0C3F8012276
S214000CE0234B0520C3F8442401A927F014FC002850
S214000CF039D1204BD3F8F02042F00102C3F8F0209F
S214000D00D3F8FC2042F08072C3F8FC201A4AA3F500
S214000D105D431A60019B194A03F5D52303F2FC4391
S214000D20B3FBF2F3164A013B13610223C2F8F0301C
S214000D304FF48073C2F804334FF06043114AC3F88F
S214000D40B02F114AC3F8802ED3F8002E42F48072DA
S214000D50C3F8002EFF2283F82020D3F8002E22F4BA
S214000D608072C3F8002E03B05DF804FB28890200E9
S214000D7000D0035000ED00E0FF030040F8590D00DE
S214000D80000004E055CEACC5090001004FF06043FA
S214000D90D3F8802E30B5D20715D501240B4D8440EC
S214000DA0D5F8FC2042F08072C5F8FC20D3F8002E5F
S214000DB02243C3F8002E53F82020002AF0D003F870
S214000DC02010002030BD1120FCE700BF00ED00E041
S214000DD02DE9F04104460C254FF00108124E0CB3E5
S214000DE014F001000BD0002024F0010405FB006283
S214000DF05768002FF3D09168C0B2B847EFE7224695
S214000E00013020284FEA520201D0D307F8D508FA5D
S214000E1000F20F2824EA0204E8D9103805FB006225
S214000E20B432E5E7BDE8F081B40E002008B50C4802
S214000E3027F076FB192004F077FF28B1192004F07C
S214000E4081FF192004F062FF1A2004F06DFF28B11C
S214000E501A2004F077FF1A2004F058FF002008BD7F
S214000E60288902002DE9F0410E461746054610B3C4
S214000E700F2922D80378DBB1013BDBB2022B1CD84A
S214000E80104AD35C6A78D340DB0716D50E4BD3F8EE
S214000E901043A4B927F05EFA80463A462846314603
S214000EA003F07AFD404627F050FA2046BDE8F08170
S214000EB040F2FF13E6E72224F7E72124F5E70224B1
S214000EC0F3E700BFDF87020000C0035010B50446FA
S214000ED008B30378E3B1013BDBB2022B1DD8104AFE
S214000EE0D35C6278D340DB0717D527F033FA0122AC
S214000EF0617823788A4030214B4341F2100103F198
S214000F00A04303F570335A5027F01FFA002010BD97
S214000F1040F2FF13E5E72220F9E72120F7E700BFBC
S214000F20DF87020010B5044608B30378E3B1013B3F
S214000F30DBB2022B1DD8104AD35C6278D340DB07A5
S214000F4017D527F007FA0122617823788A403021E6
S214000F504B4342F2100103F1A04303F570335A509D
S214000F6027F0F3F9002010BD40F2FF13E5E722203A
S214000F70F9E72120F7E700BFDF87020008B503F096
S214000F8001FD054B00F0553020F05020C3F820043A
S214000F90BDE80840FFF71CBF00E0035008B503F0AB
S214000FA0F1FC054B00F0AA3020F0A020C3F8200486
S214000FB0BDE80840FFF70CBF00E0035070B50368BB
S214000FC02B4A0446934286B04ED02A4A934249D1D1
S214000FD00125294827F0A4FAA3880122ADF800309D
S214000FE0E3880A216846ADF80430FFF73BFF01228C
S214000FF00A2101A8FFF736FF0A266846FFF792FF88
S214001000642005F02FFE6846FFF760FF642005F0B9
S21400101029FE013EF1D103212B0103F1A04202F586
S2140010207032C2F890146079217903F1A04341EA46
S2140010300041C2F89414E179A27903F5703342EACC
S2140010400142C3F8982440F20113ADF80830E36873
S21400105020680493A36802A90393237C8DF81430B8
S21400106003F0A6F806B070BD00250448B2E700BF3E
S2140010700000015A008006502089020024890200E0
S21400108038B5054603F0D0F9044C012801D1013CDF
S21400109000D138BD284603F0ADF8F6E7E19304002A
S2140010A02DE9F04F9A46564B85B01B7806460F46FC
S2140010B01546DDF83C909DF844B0DDF85080002BD6
S2140010C000F09780072A00F296800E9B002B00F017
S2140010D09280B9F1000F00F08E80129BB3F5006F7E
S2140010E000F38980012803D1109B002B00F0838039
S2140010F0444B03EB05131B7B002B7ED0424C102287
S2140011000021684623F0D5FD04EB45141022A7BB4A
S2140011103946204623F0CDFD43F210036380BBF131
S214001120000F03D1E37843F00303E370364A0E9BC7
S21400113002EB451CCCE90193129B6901581E9DF8F1
S2140011404C30C0F30A0003F003039B0643EA001E7C
S21400115053582E48012E00EA03004EEA0003CDF84D
S21400116000A0535017D0B8F1000F2ED19CF80230D3
S21400117068F304138CF8023027E00021204623F0A1
S21400118098FD4FF444736380BBF1000FCED1E37833
S21400119043F03003C9E713230CF1100ECCF80C30E3
S2140011A09CE80F008EE80F006FF00301DCF81C20AF
S2140011B0109B61F39F02012FCCF81C20CCF8143052
S2140011C003D1CCF81890CCF8043000270D4A29013A
S2140011D002EB051342F80180159A28465A606946C4
S2140011E022469F605E7303F0B9F9384605B0BDE845
S2140011F0F08F0748FAE70748F8E70748F6E700BF22
S214001200212700201C1100201C1000200F80FFF357
S214001210028000F0018000F0078000F038B5124B25
S21400122005461B78DBB1E0B127F094F80F4A00239F
S2140012301146147B54B92B6001251A0101EB0313E8
S2140012401D738C5027F081F8204638BD0133082BDB
S21400125002F11002EDD127F078F80548F5E70548C9
S214001260F3E70548F1E700BF212700201C11002006
S214001270048000F0028000F0018000F038B527F00E
S21400128069F8002305460B4A147B6CB90133082B1A
S21400129002F11002F8D103F00DF9074B28461C7036
S2140012A027F053F8204603E0284627F04EF8034878
S2140012B038BD00BF1C11002021270020058000F04B
S2140012C00D4B10B51B78044693B1072812D827F0AB
S2140012D041F80A4B03EB04131A7B2AB100241C7353
S2140012E027F033F8204610BD27F02FF80448FAE719
S2140012F00448F8E70448F6E7212700201C110020E0
S214001300068000F0028000F0018000F0154B13B557
S2140013101868002301908DF8043027F01BF8124B54
S2140013201C7824B127F011F8104802B010BD012235
S2140013301A7027F00AF80E4B01A81C731C7783F866
S2140013402C4083F83C4083F84C4083F85C4083F89C
S2140013506C4083F87C4008238DF8073003F0CEF805
S2140013602046E2E7E287020021270020038000F003
S2140013701C110020F8B50D4D2D7885B1072810DC1E
S2140013800B4D060105EB0014277B67B1AB5100251A
S214001390069BA560636003F0E1F82846F8BD0548A3
S2140013A0FCE70548FAE70548F8E700BF21270020D4
S2140013B01C110020028000F0018000F0078000F081
S2140013C00A4A08B512785AB107280BD8084A02EB21
S2140013D000131B7B43B1002103F082F8002008BDF8
S2140013E00448FCE70448FAE70448F8E72127002009
S2140013F01C110020028000F0018000F0078000F041
S2140014000A4A08B512785AB107280BD8084A02EBE0
S21400141000131B7B43B1012103F062F8002008BDD6
S2140014200448FCE70448FAE70448F8E721270020C8
S2140014301C110020028000F0018000F0078000F000
S214001440184B2DE9F0411F6D5B6D1F4000D5FEE780
S21400145001260025144CDFF85880374218D0236840
S214001460C8F85060A3B1A168284601316268A1603F
S2140014709847637B012B0BD150B90C4B03EB4513FC
S2140014801A7B60F341021A731A7F60F341021A77DF
S2140014900135082D4FEA460604F11004DDD1BDE8FB
S2140014A0F08100BF000004501C1100201C1000201A
S2140014B0002004502DE9F04F144605460E469B4684
S2140014C0C36B87B001225B6902A960689847EB6B23
S2140014D001225B6903A93046984702A81BF093FBDC
S2140014E0074648B10023A37563754FF0FF33A3602A
S2140014F0002007B0BDE8F08F03A81BF091FB012386
S214001500A375237E04EBC303DE611F846368B342C6
S2140015100ED1206003A81BF0A5FB4FF0FF3320750B
S214001520A360237D043B022B26D80023A375DFE7A8
S21400153023681A1A53425341A37503A81BF092FB63
S214001540237D834218BFA77503A81BF06DFB0746D3
S21400155002A81BF069FB874218BF002303A818BF28
S214001560A3751BF069FB074602A81BF065FB8742C4
S2140015701CBF0023A375D4E703A81BF055FB80B15E
S214001580EB6B022230465B6904A9984704A81BF05F
S2140015905AFB0346207D032839D8DFE800F03838A8
S2140015A0040903A8F3E7CC22237E04EBC3031A84C2
S2140015B001F0EAFA109B187003A8277E1BF028FBA0
S2140015C004EBC70787F82200237E03A804EBC303B7
S2140015D0B3F8209093F822701BF026FB804603A8F1
S2140015E01BF02AFB8246B8F1000F15D0EB6B0222E7
S2140015F030465B6904A9984704A81BF0E9FA6075B1
S214001600637D6BB90023A3754FF0000838E0227E97
S21400161004EBC2021384CBE703A81BF0C4FAEEE780
S21400162094F81680B8F1000FEED0B9F1000F09D18A
S214001630DFB10123E375637E002B4FD1012F42D12A
S214001640677614E06B6C06EB0A02594286EA0200E3
S21400165008421CBF0021A175591E0A409B1A9945D5
S214001660D0D8A37D002BE3D1CEE7E37D43B94FF07E
S21400167000084B465246314628461BF002F8A0604A
S214001680A27D12B123694B4423611A49237E09784F
S21400169099422AD901332376BBF1000F27D032B303
S2140016A0E37D23B3B8F1000F21D1032F1FD0A1682B
S2140016B04B1C1CD0109B2246009328460123FFF7A4
S2140016C0F9FEA07513E095F8343063B9EB6A013380
S2140016D0CFD1032FCDD10123A376C8E7012FCFD0DA
S2140016E0032FC4D1F7E79846C3E70023A375A07D70
S2140016F0FFE600BF088802002DE9F04F0E46984628
S21400170000238BB004464FF0FF31104617468DF885
S214001710133001F023FAB6F5801F3BD3B21C53D129
S214001720E56A6B1C57D12046616A1AF0F0FE054642
S214001730B31C18BF0123DFF810910193636A626C33
S2140017400293236805A902FB053AE36B05225B6951
S2140017505046984705A81BF0F1FA1BF014FB5046BC
S2140017601BF01CFB4FF0000B824601464B1C05D0BD
S214001770636C81EA0A025B42134232D02946204655
S2140017801AF0C5FE029BAB424DD0BBF1000F4DD107
S2140017900546D3E7314605AA04F108001BF081F997
S2140017A00146481C10D0384601F0D8F901223946C7
S2140017B020460DF113031AF0B6FF28B19DF813303A
S2140017C088F80030002003E0237C002BA8D12D20D1
S2140017D00BB0BDE8F08F2368ED1A636CB5FBF3F52C
S2140017E0A6E7484601F0BAF90DF11303494620462C
S2140017F0019A1AF098FF034690B1B21C03D0D9F8AC
S2140018000020B2420CD19DF8132003930D4B88F8AC
S214001810002049461A68384623F056FA039B9B4632
S214001820D9F80810A2E7BBF1000FD0D0B6F5801F9C
S214001830C8D2314698F800307A6804F1080001F002
S214001840BBF8BFE704880200101800202DE9F3411A
S2140018500446174698460E46194D816AE36A8B423F
S2140018602AD04B1C18E0284601F078F901222946B8
S21400187020460DF107031AF056FF30B143462946BD
S21400188020469DF80720B847B0B1A9684A1C05D085
S214001890012E0AD0E36A9942E5D10DE06968204638
S2140018A01AF0C2FE012E0146D8D16B6881EA030207
S2140018B0636C5B421A42D1D002B0BDE8F08100BF33
S2140018C0E41700202DE9F04F4FF0FF334FF6FF727C
S2140018D00025044600F10806C0E909238BB0C36260
S2140018E00562056330460F461BF0ACF820461AF03A
S2140018F0DEFD20BB204639461AF059FE20461AF077
S214001900D6FD20BB5E200BB0BDE8F08FE26B2368EF
S214001910606CD2F814C000FB0530052205A9E0472C
S21400192005A81BF00BFA012828D1294620461AF0F4
S2140019300FFE421C294620461AF0D8FD0135E36901
S2140019409D42E3D320461AF0B2FD0028D2D00025EF
S2140019504FF0FF394FF6FF73CA46A846C4E908534E
S214001960E369984514D3A5EB0905012D36D84FF643
S214001970FF72636A934246D16720C4E71BF008FAF9
S2140019800028DBD0294620461AF0E2FD0246D1E7C1
S2140019902368E26B606C576900FB0830052205A9D6
S2140019A0B84705A81BF0CAF9834605A81BF09DF9A1
S2140019B0074658461BF0E7F968B1574538BFC4F8E4
S2140019C02480B94528BFB946BD4238BF3D46BA4611
S2140019D0236A0133236208F10108C1E74FF6FF735B
S2140019E000256362E3699D42C1D2676C2068E36BA1
S2140019F0052207FB05005B6905A9984705A81BF0AB
S214001A0074F90135EEE7E26B676C2068694607FB00
S214001A10030055690522A84768461BF066F9626A06
S214001A202368606C4B4D00FB02301BF0B7F94FF09B
S214001A30FF33A062E3622A466FF00101204605AB41
S214001A40FFF75AFE002846D1AD6829462046E562D3
S214001A501AF009FD206320B92046E16A1AF0E4FD79
S214001A60E062294620461AF0DFFD0546A36A9D423D
S214001A7033D120461AF0CAFC00278046B946E369EF
S214001A8099453CD3B84559D92046616A1AF03FFDBE
S214001A900026054604F1400AB74212D8626C236855
S214001AA0694602FB0539E36B05225B6948469847A1
S214001AB068461BF01AF9534602464946E06B1BF08F
S214001AC06FF9294620461AF022FD0136B045054634
S214001AD0E2D1642017E7A56AB7E7294620461AF040
S214001AE0C2FC236B294603440746236320461AF0AC
S214001AF09BFD0546002FB9D1C4E90B07B6E7636C1A
S214001B002568052203FB0955E36B05A95B69284692
S214001B10984705A81BF012F91BF035F958B128466E
S214001B201BF03CF9014620461AF09DFC636C143B02
S214001B30984208BF013709F10109A0E730461AF0BC
S214001B4081FF002320461946034AFFF77FFE002048
S214001B50D9E600BF3C18002015C701002DE9F0416A
S214001B60036B9046826B07689A4288BF8363426C19
S214001B70436A90B002FB0377C36B0E46052201A9A9
S214001B805B6904463846984701A81BF0D7F8012839
S214001B900146307057D0656CE26B2368606AD2F8F5
S214001BA014C005FB0030052206A9E04706A81BF076
S214001BB0C5F801284FF0000523D0D4E90A320121E8
S214001BC09342CDE90B458DF834800E958DF83C1088
S214001BD02AD1194620461AF027FD236B626C14336F
S214001BE09B1AE06223630C9B53B99DF83C303BB1D3
S214001BF0626A616C2368E06B01FB02311BF056F8E9
S214001C000C9DE36B05225B6901A93846984701A83D
S214001C101BF094F830702846236BA26B9A4288BF5C
S214001C20A36310B0BDE8F081237C33B91C490BAA2E
S214001C3004F1080000F00EFFD5E72046194A0BAB6A
S214001C40FFF704FECFE7237C23BB2246164904F1A8
S214001C50080000F0FFFE616A20461AF079FC616A0F
S214001C60421C20461AF042FC054620B9236B626CE3
S214001C701344143B23632046A16A1AF0D5FC23685C
S214001C80A062C01A636CB0FBF3F0606220461AF0E4
S214001C900EFDB6E700232046044AFFF7D7FDDAE735
S214001CA0D12300004D230000AFC701004BC7010041
S214001CB073B50D46D11E4A421C461B7E4A419A42C7
S214001CC026D129682368994222D3636899421FD88F
S214001CD0114E0DF107033246FFF70EFDC0B97268CC
S214001CE06B689A4214D19DF80730DA1E534253416E
S214001CF0227E93420CD1636901336361D4E90323E6
S214001D00934205D22968A26842F823100133236162
S214001D10012002B070BD00BF3C1800202DE9F04F36
S214001D209A468BB09DF85030DFF850B10293DBF83E
S214001D301030804653450D461646C0F09980D14671
S214001D40DBF804300193B9F1000F00F08D80D8F86D
S214001D503C3001225B6907A90198984707A81AF04A
S214001D605FFFDBF80030984240F0858007A81AF045
S214001D7063FF0428074614D107A81AF064FF019BE6
S214001D80029A04463B44002A3FD1864212D91446A2
S214001D90361A404601991AF047FCA9EB040901904F
S214001DA0D1E7D8F83C3002225B69019808A9984729
S214001DB008A8E2E7841B544528BF5446032C03EBCF
S214001DC00607AAEB040A4FEA94021CD9D8F83C305E
S214001DD0294638465B69984724F0030304F0030657
S214001DE01F441D44002ED4D0D8F83C3001225B6935
S214001DF008A9384698473246284608A9354422F0AE
S214001E0063FF0026C5E72646ECE7074600F0030218
S214001E10039203442A1804920593049BDD1B059B3A
S214001E20D81B039B9F420FD1002FB2D0D8F83C306E
S214001E30012208A95B6998473A46284608A922F075
S214001E400EFF78B93D44A4E7D8F83C30012208A933
S214001E505B6998470422284608A922F000FF08B9C3
S214001E60043FDAE74FF0360948460BB0BDE8F08F7E
S214001E704FF06309F8E74FF06F09F5E768180020A0
S214001E802DE9F0410F4616469846044688B060B3E2
S214001E9090F83450FDB101211AF0FEFA00210E9B95
S214001EA0CDE90511CDE902379DF83C30CDF8048028
S214001EB08DF81C30237C04968BB90D4901AA04F1D9
S214001EC0080000F0C7FDDDE90553E06B002E08BFF3
S214001ED01D461AF07AFC284608B0BDE8F081204678
S214001EE0044A01ABFFF7B2FCEDE70546F3E700BF97
S214001EF079C70100B11C00002DE9F04F99B00F46DC
S214001F0009920A69416C0E931439D31DB3FBF1F3A1
S214001F10013302EBC302036B04469342C0F0B38165
S214001F200023DFF824940D93E36A48461946079386
S214001F3000F014FED7E9033604930E9B022B4ED115
S214001F40CC2E40F08A81099B002B42D03946204691
S214001F501AF099FC656C079A6B1E13401490ED1AE4
S214001F60E36B01225B6916A97868984716A81AF0F1
S214001F705BFE00280CBF04230823782E06933DD969
S214001F80012300254FF0080A05933B6805990E9833
S214001F90C9F80030C9F810601AF068FE4FEA9A03D4
S214001FA010930023DDF81CB089F814000B930F93F0
S214001FB008930C93616C4A1E0BEA02028B1A002EE1
S214001FC038D05544AB4240D8236B5B1A1344236386
S214001FD0ABE0049B1B68149308230693D0E7656C5C
S214001FE0079A6B1E1340782EA5EB030516D8FB7DCB
S214001FF07BB9099B002BB3D104230693331DAB4258
S21400200010D9A6B1082DBBD804250023AA460593EF
S214002010BBE7099B002BA3D10823EEE7099B002B07
S2140020209ED1D9E7002505954FF0040AADE70425B3
S2140020300596F9E75345C7D3B0460BEB0A0303935F
S214002040089B002B18BF032313E0A3EB0A039E4252
S214002050B0460BEB0A0228BF98469E420392EFD981
S2140020600123D9F8102089F81730964271D1C9F8A3
S21400207004B0089399F81730002B6CD099F8182004
S2140020800899D31C09EBC3030132C3F804B0A3F8C4
S2140020900880997289F81820B8F1000F14D00E9BAA
S2140020A0022B5BD10B9B7BB90F9B4344032B0BD9B5
S2140020B0E36B01229B69039814A9984705460028FC
S2140020C040F0E38001230B93089B16A80193059B21
S2140020D0009399F814204346396800F0F5FCE36B4A
S2140020E058469B69109A16A99847051E0D9B18BF5F
S2140020F05B4652460D935946434620461AF0C1FAAF
S214002100236B08F10302A3EB0A0322F003029B1AD7
S214002110C9F808002363002D40F0B7800F9BDDF858
S2140021200CB04344A6EB08060F93594620461AF017
S2140021307BFA00258346002E7FF43CAF824A39683E
S214002140936804F10800E36252680E9B00F034FCCA
S21400215084E002238DE7C9F804B09DE7099B002BB5
S21400216030D1049BB8F1030F43440A9327D9DDE925
S2140021700301E36B4FEA98029B69984705460028DF
S21400218065D118F003025FD0049B28F003052B44AA
S2140021900493039B1D444FF0FF33049915A8159331
S2140021A022F092FDE36B28469B69012215A9984709
S2140021B005460A9B0493002D86D0039B99E742466A
S2140021C0039DE8E7039B0A9307F120031193FB7D29
S2140021D078689BB100233D7E0C9AD9B28D4211D906
S2140021E0119903F1010C31F83310914226D9069962
S2140021F007EBC303D8690A44104403E00C9B069A15
S21400220013441844E36B01225B6915A99847159B94
S214002210012213930C9B0A9804330C93E36B13A9C7
S2140022209B699847039B0A9A43449B1A042B0546CE
S21400223007D978B9134604330A93C8E76346521A97
S214002240CBE70A9B0393B6E70A9B04933CE70A9BFB
S2140022500493B2E70A9B0393AFE77026304619B0A3
S214002260BDE8F08F4FF0000A4FE03A69616CD31D6D
S2140022701439B3FBF1F3013302EBC302236B934231
S214002280BFF452AE5DE01C26E8E73D2D59D104F1BF
S214002290080303932368079A606CA2EB030ABAFB51
S2140022A0F0FA00FB0A301AF079FDE16A8046204613
S2140022B01AF0BAF9A26A8242D7D0626CD9F808300E
S2140022C0511E0B40216B2668891A0B4423630D9B15
S2140022D0E0629E1BB6FBF2F6B245C3D1079BB3EB9A
S2140022E0080A12D0E36B4FEA9A0241469B69984768
S2140022F08346E36A079A5344E362236B03989B1A68
S214002300434423631AF09EFBDA462368616CE06B55
S21400231001FB06311AF0B7FC20461AF0C8F8204632
S2140023201AF0C5F92063BAF1000F9ED03A69616CC5
S214002330D31D1439B3FBF1F3013302EBC302904211
S214002340A8D22E468AE700BF10180020032A2DE9DF
S214002350F34106460D4617461C4606D1237A012B46
S21400236023D0012002B0BDE8F081DFF86080096864
S21400237042460DF10703FFF7BFF960600028EDD174
S2140023809DF80720237A032AE8D0D8F804106A6854
S2140023909142E3D1012B2969D4F80CC007D17269A8
S2140023A00CEB0103934202D92074207CDAE7083153
S2140023B06144E1603B46012229463046FFF79CFD1A
S2140023C060600028CAD00020CCE700BF3C18002080
S2140023D02DE9F341089C032A1746266806D1237A7E
S2140023E0012B24D0012002B0BDE8F081DFF89080F8
S2140023F0304642460DF10703FFF77EF9606000287D
S214002400EDD12568D8F80400A96AD5F844C048403C
S214002410CCF100031840227AE1D1012A09D1E26802
S214002420D8F8103013447269934202D92074207C85
S214002430D9E72868EB6A1B1A081AB3FBFCF3B0FB53
S214002440FCF083420BD1706CF36A421E1340326B71
S214002450121A1344284633631AF0E6F8E862D8F8EE
S2140024601020E36808321344E36001223B46044927
S2140024702068FFF741FD60600028B0D00020B2E77A
S2140024803C1800202DE9F0410025634B0E46D3F89A
S214002490008004461D6018B921252846BDE8F08155
S2140024A090F8347007B30A6803689A4240F0AA802E
S2140024B04A6843689A4240F0A5808A6883689A42D0
S2140024C040F0A080CA68C3689A4240F09B800A69C0
S2140024D043699A4240F096808A69C36B9A4240F0FC
S2140024E091804B698361D8E768223946856B22F074
S2140024F0E0FBD6E90212336804F108002360736833
S214002500A5636360336963617369A3611AF0ACFA0B
S214002510B36904F14000E3639B68984720B9676C91
S21400252017B16368B3FBF7F794F84330E761002B05
S214002530B2D00023656C2366002D6BD0002F69D0C7
S2140025402368B3FBF5F205FB1233002B5CD16768FA
S214002550B7FBF5F605FB1676002E55D1204619F08A
S21400256072FFA369043303449F424FD340F634728C
S2140025706369CC3B93424BD8B5F5805F4AD30321C1
S214002580204619F089FFD4E90001E36B1B689847E1
S2140025900546E36B0220DB6898472DB184F834606B
S2140025A0E06B1AF012F978E741462046FFF78AF901
S2140025B06428054604D141462046FFF783F90546C0
S2140025C0636C143BD5B9226A204602FB03F619F069
S2140025D03AFFA369043303449E4203D284F834507E
S2140025E05A25DDE70123D4E900010C4A84F834308B
S2140025F01368013313601AF0D1FAD1E7002384F888
S2140026003430CDE75D2548E7592546E75A2544E7A7
S2140026105F2542E75B2540E7A01100209C110020C3
S2140026202DE9FF410C4616461F46054680B390F836
S21400263034307BB3B1F5801F2ED2DFF860800121E5
S21400264019F02AFF2146424628460DF10F03FFF7F0
S21400265053F8044670B99DF80F30012B11D1D8F805
S2140026601030BB4212D10246009031462846FFF792
S21400267055FB0446E86B1AF0A8F8204604B0BDE8FF
S214002680F081022B14BF2D246024F3E76324F1E7C6
S2140026902124F2E71124F0E72924EEE76818002049
S2140026A02DE9F04385B00C4617461E460546DDF874
S2140026B0308098B390F8343093B3B1F5801F31D2A0
S2140026C0DFF86490012119F0E7FE21464A462846C5
S2140026D00DF10F03FFF710F8044688B99DF80F3088
S2140026E0012B14D1D9F8102006EB08039A4213D315
S2140026F000904346324639462846FFF70FFB04460D
S214002700E86B1AF062F8204605B0BDE8F083022BAD
S21400271014BF2D246024F3E76324F1E72124F2E7B5
S2140027201124F0E72924EEE7681800202DE9F3418C
S2140027301F4600230C46164605463B6050B390F8ED
S21400274034304BB3B1F5801F28D2DFF85480012116
S21400275019F0A2FE2146424628460DF10703FEF771
S214002760CBFF0446A0B99DF80730032B10D0022BF0
S2140027700AD10123336004233B60E86B1AF025F886
S214002780204602B0BDE8F081D8F810303060F3E79C
S2140027902D24F2E72124F3E71124F1E72924EFE7BB
S2140027A06818002073B50446056B19F04CFE636E7E
S2140027B003449D422CBF00230123854294BF00257D
S2140027C02D1A207C84F85030656584F85800A8B12E
S2140027D000230C4E1A461946204600961AF020F999
S2140027E0002305461A461946204600961AF021F997
S2140027F0E3682844984294BF0020C01AE06502B0FF
S21400280070BD00BFFFFF0F002DE9F3471E4643696A
S2140028100446B342884617469DF828904ED30025B6
S2140028208DF80750204619F00EFED4F830A08245E9
S2140028300AD2236AB5EB430F06D2002220460DF1DA
S2140028400701FFF78BF9B8B39DF80730012B05D1C8
S214002850002220460DF10701FFF780F9B9F1030FBA
S21400286006D03146204619F0DEFD256B854227D37B
S214002870144D4FF0FF31284600F070F94B462946BC
S21400288000222046C5E90376C5F80080FFF734FB32
S214002890236E054663B12046FFF784FF94F8503058
S2140028A013B994F858301BB1236E04F150009847C2
S2140028B0284602B0BDE8F0870135B3E76225F7E7A2
S2140028C01C25F5E73C1800202DE9FF410F469046F1
S2140028D01E46054698B390F8343093B3B1F5801F82
S2140028E031D21A4C022119F0D7FD22463946284625
S2140028F00DF10F03FEF700FF024678B101234246B2
S2140029000093394633462846FFF77EFF0446E86BB9
S21400291019F05BFF204604B0BDE8F0819DF80F304B
S214002920012BEBD12169B142E8D1009341463346F1
S2140029302846FFF7F3F904460028DFD1E7E721240D
S214002940E8E71124E6E72924E4E700BF681800203A
S21400295030B50C46054685B028B390F8343023B31E
S214002960B1F5801F23D2022119F096FD0DF10F0359
S214002970214628460F4AFEF7BFFE034688B99DF853
S2140029800F20032A0DD00322214600920246284635
S214002990FFF73AFF0446E86B19F017FF204605B02C
S2140029A030BD2D24F7E72124F8E71124F6E7292483
S2140029B0F4E700BF681800202DE9F043466886B3A8
S2140029C0056898464FF0000CA946AE4655F83C40C0
S2140029D00CF1010CC4F31307013401D0B94217D02F
S2140029E066450EF1080EF1D12F46002403E0A642FC
S2140029F007F1080712D055F8343001340133F6D108
S214002A00C1F3130141EA0851C7E90012BDE8F0839B
S214002A1041EA0851CEE90012BDE8F083B8F1030F91
S214002A2003D101230372BDE8F083002303E09E4236
S214002A3009F10809F5D055F833400133C4F30754BB
S214002A40032CF4D1C1F3130343EA0853C9E9003257
S214002A50BDE8F0832DE9F0410646406882B0C0B17B
S214002A600F4690460024336853F8345003EBC403F3
S214002A70C5F30752C5F31301013504F1010406D06E
S214002A805B683046CDF80080B84710B17068844265
S214002A90E9D302B0BDE8F081024B1968024B186812
S214002AA0FFF7F0BC702A0020902A002008B525F019
S214002AB048FC014B186008BD94180020014B1868AC
S214002AC025F03ABC9418002073B504462248012A23
S214002AD000EAC1119DF8185023F07C4007D9961ED5
S214002AE0012E28D9073303F07F03194308E09DF829
S214002AF01C300A43DB0603F0C053134343F0604127
S214002B000023C4E900108DF80730B5B12022214615
S214002B100DF107001AF05EF91A220DF10700211DCB
S214002B201AF058F9082063689DF8072043EA826384
S214002B30636002B070BD1143E2E71B220DF107008F
S214002B4021461AF047F923689DF80720042043EA37
S214002B50C2632360EDE700BF80FFFF0738B5094B6F
S214002B600D461A680021044622F0A3F800234FF011
S214002B70FF322383C4E900252361A260E382A376A3
S214002B8038BD00BF048802000138C0B205289ABFCD
S214002B90014B185C01207047098802002DE9F041BE
S214002BA00746154600240E46596888B0490A01298A
S214002BB022464FEA510104F10104F8D8DC789978EE
S214002BC024031B88C90201F4006104F480540C43FA
S214002BD0C3F30A035203234492B24FF000089C1832
S214002BE0274B6FEA0444039325F07843ED4302A98C
S214002BF00DF107001B2202938DF807801AF0EAF801
S214002C009DF80720029B02A943EAC2630DF1070064
S214002C101B2225F07845049302958DF807801AF05C
S214002C20D9F89DF80720029B6FEA144443EAC26372
S214002C3005934FF0FF330794069307A9BB6901225B
S214002C4006F110009847BB6905A90446012206F163
S214002C5008009847BB69404518BF044604A90122EE
S214002C60301D98470122404518BF0446BB693046D0
S214002C7003A99847404508BF204608B0BDE8F08144
S214002C8001009AB2034B5A6812B19A6A002AFAD126
S214002C90704700BF00400650024A936A0342FCD1C8
S214002CA0704700BF00400650436870B5B3FA83F320
S214002CB0104DC3F11F046B6801460BB1FFF7E2FF2E
S214002CC001260D4B20205E60FFF7E6FF0A7A4B7860
S214002CD043EA420343EA04134A7AAB608B7A43EA38
S214002CE042036B62054B5E600B7813B1FFF7CAFFB9
S214002CF0EE6070BD00400650006006500050065062
S214002D00124910B504462020FFF7C6FF4B6843B9AA
S214002D1034B14B680BB1FFF7B5FF01220C4B5A607C
S214002D2010BD4B680BB1FFF7ADFF002CF5D1FFF7D8
S214002D30A9FF0223CB60FFF7A5FFBDE810400122E4
S214002D40044B20205A60FFF7A7BF00BF0040065084
S214002D50005006500060065008B51020FFF79CFF94
S214002D60024B1963BDE80840FFF796BF00400650C7
S214002D7008B5FFF787FF02230449CB6000230B62E8
S214002D80FFF780FF0123CB6008BD00BF0040065060
S214002D90044BD3F88420D206FBD4D3F88400C0F3C7
S214002DA0811070470040005038B5184B0546D3F8E0
S214002DB024010C4600F00700062823D8DFE800F0C0
S214002DC0040A121A1E0E1600012305B1286004B16B
S214002DD0236038BD24F0C8F90523F6E724F0C4F9CB
S214002DE00623F2E724F000FA0323EEE724F0FCF9CA
S214002DF00423EAE724F0F4F90223E6E724F0FAF9DC
S214002E000723E2E700231846DFE700BF00800050F4
S214002E1038B5104B0546D3F800310C4603F00303D3
S214002E20022B0BD0032B0DD0012B0FD124F0DCF995
S214002E30032305B1286004B1236038BD24F0DEF911
S214002E400823F6E724F0D6F90723F2E7012300204B
S214002E50EFE700BF0080005038B5104B0546D3F8AA
S214002E6020310C4603F00303022B0BD0032B0DD0AE
S214002E70012B0FD124F078F9052305B1286004B1A1
S214002E80236038BD24F0B0F90323F6E724F0A8F950
S214002E900223F2E701230020EFE700BF0080005086
S214002EA038B5104B0546D3F840310C4603F0030303
S214002EB0022B0BD0032B0DD0012B0FD125F034FAAB
S214002EC0092305B1286004B1236038BD24F096F9C3
S214002ED00823F6E725F02BFA0B23F2E70123002060
S214002EE0EFE700BF0080005038B5104B0546D3F81A
S214002EF060310C4603F00303022B0BD0032B0DD0DE
S214002F00012B0FD125F010FA092305B1286004B172
S214002F10236038BD24F072F90823F6E725F007FA97
S214002F200B23F2E701230020EFE700BF00800050EC
S214002F302E4B98424AD022D82D4B984240D014D8D7
S214002F402C4B984239D00AD82B4B984232D02B4B78
S214002F5098422FD02A4B98422CD000207047294BFD
S214002F609842FAD1284B186F7047284B98422AD0BF
S214002F70274B9842F1D1244BD3F880007047254B5D
S214002F8098422BD009D8244B984223D0234B984202
S214002F90E3D11D4BD3F88C007047214B984221D0CB
S214002FA003F5740303F510539842D6D1164BD3F8A5
S214002FB098007047144B986D7047134B586E7047C7
S214002FC0114B586F7047104B986F70470E4BD3F8E5
S214002FD0840070470C4BD3F8880070470A4BD3F830
S214002FE090007047084BD3F8940070470048E801FB
S214002FF00024F400C0CF6A0080841E0000093D0053
S21400300040420F00405DC6000080E00FC0EA21018C
S21400301080BA8C01007E560380D54302006CDC0229
S2140030200090D00373B50D4600210E4B0191D3F8E6
S2140030308041064604F00304012C09D0022C0CD073
S2140030400C460EB1019B336005B12C6002B070BD1A
S21400305001A8FFF701FF0F24F3E724F0C1F8019061
S214003060EFE700BF0080005038B5104B0546D3F898
S21400307040320C4603F00303022B0BD0032B0DD07B
S214003080012B0FD125F050F9092305B1286004B1B2
S214003090236038BD24F0B2F80823F6E725F047F998
S2140030A00B23F2E700231846EFE700BF008000502E
S2140030B038B5144B0546D3F800020C4600F007005E
S2140030C004281BD8DFE800F003090D1115000123C2
S2140030D005B1286004B1236038BD25F025F9092321
S2140030E0F6E724F08BF80823F2E725F020F90B2307
S2140030F0EEE724F05FF80E23800AE9E7002318467F
S214003100E6E700BF0080005010B40D4C0B46D4F824
S214003110204204F00304012C0AD0022C0CD008B183
S214003120002101600BB100221A605DF8044B704765
S2140031305DF8044BFFF790BE5DF8044BFFF7B0BE9A
S21400314000800050B0F5207F1FD009D8B0F5007F72
S21400315015D003D868B1B0F5C07F0AD000200CE0C7
S214003160B0F5607FFAD10B4BD3F88000C0F30110A6
S21400317003E0084B186FC0F3033001307047054B6F
S214003180D3F89000C0F30460F7E7024B186FC0F363
S2140031908020F2E7008000504FF400320E4B0146CC
S2140031A010B500209A66FFF7CDFF484341F671320E
S2140031B00A490B4B884294BF00200120DC69DA6381
S2140031C09A6822F4401242EA00529A60E20344BF30
S2140031D00022DA6310BD00BF00900050005A620261
S2140031E000000350420910B50FD0012A0FD00A4B39
S2140031F00A4C022A18BF234600F01F0049B103F507
S2140032008053012282401A6010BD1346F4E7044B37
S214003210F2E703F50053F4E7688000506082005040
S214003220648000501FB50021B0F5807F04460191F0
S21400323000F0068100F29D80612800F295801F282C
S21400324005D8002840F0928023F0B4FFDCE0A0F11F
S2140032502004412C00F28A8001A353F824F000BF1A
S214003260493200000D340000493200000D340000E1
S2140032702D3400002D3400002D3400002D340000C5
S2140032800D3400000D340000E7330000A1330000C9
S214003290633400006D340000A13300000D340000DC
S2140032A00D3400000D3400006D3300006D33000057
S2140032B06D3300006D3300006D3300006D33000089
S2140032C037340000C33300000D3400000D34000016
S2140032D00D34000081340000773400000D34000007
S2140032E06D3300006D3300006D3300006D33000059
S2140032F06D3300006D3300006D3300006D33000049
S2140033006D3300006D3300006D3300006D33000038
S2140033106D330000493200006D3300004932000072
S21400332049320000493200002D3400006D330000A1
S2140033306D3300006D3300006D3300006D33000008
S2140033406D3300006D3300006D3300006D330000F8
S2140033506D3300006D3300006D3300006D330000E8
S214003360493200004932000080284BD0019804B052
S21400337010BDB0F5A06F5ED028D8B0F5607F50D0F5
S21400338019D8B0F5007F4CD004D8B0F5C07F3FF414
S2140033905BAFEBE7B0F5207F38D0B0F5407FE5D1E6
S2140033A023F008FF02464FF42070FFF7CBFEB2FB77
S2140033B0F0F2520833E0B0F5806F37D0B0F5906F7A
S2140033C0D4D1002101A8FFF7EFFCCFE7B0F5E06FFE
S2140033D051D00DD8B0F5C06F43D0B0F5D06F45D002
S2140033E0B0F5B06FC2D1002101A8FFF71BFEBDE704
S2140033F0B0F5F06F44D0B0F5086FB7D101A8FFF76D
S21400340007FDB3E723F0B6FE0190AFE723F0D2FE48
S21400341002464FF42070FFF795FEB2FBF0F20192E1
S214003420A4E723F0A7FE02462046F4E7002101A801
S214003430FFF712FD9AE7002101A8FFF765FE95E762
S2140034404FF0E02302911B695B0705D523F0B2FE1F
S2140034500290029B019389E703A902A8FFF720FDCB
S214003460F7E7002101A8FFF71BFD7FE7002101A871
S214003470FFF71EFE7AE7002101A8FFF7F5FD75E7C6
S214003480002101A8FFF730FD70E700BF08B58020D7
S214003490FFF7C8FE034B98429EBF4FF48032024BA4
S2140034A01A6708BD005A620200A000501FB5034606
S2140034B00020B3F5807F01906FD027D8382B00F01E
S2140034C082800BD8243B092B0FD8092B0DD8DFE8B8
S2140034D003F05F5F5F5F0C0C5A0C3675522B57D0AB
S2140034E007D83D2B3AD03E2B72D0019805B05DF838
S2140034F004FB802BF9D1394B1B6F03F00703013B0C
S214003500032BF2D8DFE803F03D36393BB3F5D06F36
S21400351054D019D8B3F5A06F55D00AD8B3F5806F3C
S21400352036D0B3F5906FE0D1002001A9FFF73CFC40
S214003530DBE7B3F5B06F26D0B3F5C06FD5D100206A
S21400354001A9FFF7ADFCD0E7B3F5006FECD00AD8C1
S214003550B3F5E06F3CD0B3F5F06FC6D1002001A9FB
S214003560FFF7C2FCC1E7B3F5086FBED101A9FFF7AC
S2140035704FFCBAE705230193B7E70323FBE70723CE
S214003580F9E70223F7E7002001A9FFF74BFDACE7B8
S214003590002001A9FFF760FCA7E74FF0E0230290A8
S2140035A01B695B0705D523F005FE0C230393039BDD
S2140035B0E1E703A902A8FFF773FCF8E7002001A9DA
S2140035C0FFF776FD91E7002001A9FFF79DFD8CE748
S2140035D0002001A9FFF748FD87E700BF00800050E4
S2140035E04FF48032074B0849586E03F580535A66ED
S2140035F00B6A23F001030B62C3035CBF034B5A66DE
S214003600704700BF0080005000C0075000A0005068
S21400361008B5FFF74BFF082811D00938012802D952
S2140036204FF6FF7008BD4FF40012064B5A6603F5BE
S214003630D8335B6ADB07F3D54FF4FA70F2E7024B38
S2140036401888EFE700900050EE2B002008B5FFF733
S2140036502DFF03280ABF024B4FF6FF70188808BDDF
S214003660EC2B0020F8B504468020FFF71FFF032848
S21400367000F087804FF40022424B02215A6645F63E
S2140036800E03414AC2F88030404B9962012103F58F
S21400369080539962936DD903FCD4D4E900131B05BB
S2140036A043EA0163E17B94F820500B43217BE77EDD
S2140036B043EA0143617B6D0143EA0133A17B43EAA0
S2140036C0811313619169D4E904031B0643EA8063FE
S2140036D001F000410B43A17E94F823000B43217EAA
S2140036E043EA0143617E43EA01239361136AE66974
S2140036F023F00D0394F8221043EA8703002E2DD101
S2140037001362966A94F8213045EA031326F03305CF
S2140037102B4343F0010393621D4D1B4B9A6D35EA14
S2140037200202FBD10222194DAA621A659A6D520056
S214003730FCD41A69A56822F4700242EA05521A619E
S2140037404FF00042114B9A6119B9022203F58053DB
S2140037509A6278B901220F4B9A620BE0334343F02A
S21400376008031362936A23F0330303432B4343EAAD
S2140037704103936294F824301BB1034B064AC3F806
S2140037808020F8BD0090005000C0005000D00050CF
S2140037900300014000E00050F1A7FFFF014B93F942
S2140037A00000704723270020014B1880704700BF99
S2140037B0EC2B00204FF4001208B5184B5A66022373
S2140037C0174A5360936813F48033FBD1012822D143
S2140037D023F00AFD134B984215D003F5122303F588
S2140037E0F863984213D0104B00EB8002400AB3FBFC
S2140037F0F0F3520A0A49CA620B6301234B620022A5
S214003800074B5A6008BD45F67A13084AF2E745F6B4
S2140038101A03074AEEE75362F1E700BF0090005034
S2140038200040025000F0490264666666D8B805009B
S214003830BBCF0500B0F5207F10B50C4642D008D8A7
S214003840B0F5007F33D003D888B1B0F5C07F0ED076
S21400385010BDB0F5607FFBD11F4A4C1ED2F88030F9
S21400386023F0300343EA0413C2F88030F0E719F07F
S214003870CFFA19F0DBFA4FF48031184B164A196765
S214003880136F013C23F4704343EA0433136723F0B9
S21400389091FC0446FFF77CFAC0F10201204619F0BD
S2140038A0BFFA00F035F8BDE81040FFF7EFBD0A4A52
S2140038B04C1ED2F8903023F0F85343EA0463C2F863
S2140038C09030C5E7044A4C1E136F23F4806343EA26
S2140038D084231367BCE700BF0080005000900050B0
S2140038E008B50121022000F0E5FA4FF42070FFF73A
S2140038F029FC054B187019F08BFA19F097FA4FF45B
S2140039008032024B1A6708BD222700200090005024
S21400391008B54FF4C070FFF785FCBDE808400449C1
S214003920884294BF012102214FF42070FFF782BF26
S21400393080F0FA0238B5044623F03CFC0546FFF753
S21400394027FAC0F10201284619F06AFA0121002080
S21400395000F0F0FA2CB1FFF7DBFFBDE83840FFF7C8
S21400396095BD034B4FF420701978FFF763FFF4E71B
S21400397022270020B0F5807F70B50C4600F0F88056
S21400398029D8382800F04B8110D82438092816D8B2
S214003990092814D8DFE810F0DC00DC00DC00DC00CE
S2140039A013001300CD00130047003301522800F027
S2140039B0CF8005D83D2851D03E2800F0428170BD0A
S2140039C08028FCD18B1E052B00F2B080DFE803F0C8
S2140039D0AB99AE69AEA8B0F5D06F00F0108132D8C2
S2140039E0B0F5A06F00F01B8116D8B0F5806F00F020
S2140039F0AF80B0F5906FE2D1023C052C8CBF002161
S214003A00984B994A98BF195DD2F8243123F00703E2
S214003A100B43C2F82431D2E7B0F5B06F00F08980CE
S214003A20B0F5C06FCBD1083C032C8CBF00218F4B68
S214003A308D4A98BF195DD2F8403123F003030B433B
S214003A40C2F84031BBE7B0F5006FD5D016D8B0F558
S214003A50E06F00F0F680B0F5F06FB0D1083C032CB4
S214003A608CBF0021824B804A98BF195DD2F8603126
S214003A7023F003030B43C2F86031A0E7B0F5086FEC
S214003A809DD1CC1E052C8CBF00217A4B764A98BF60
S214003A90195DD2F8003123F003030B43C2F800315E
S214003AA08DE7002502260121022000F003FA19F016
S214003AB0AFF919F0BBF94FF480316F4B6A4A1967BA
S214003AC0136F23F007033343136723F073FB064695
S214003AD0FFF75EF9C0F10201304619F0A1F90121A5
S214003AE0002000F027FAFFF713FFFFF7CFFC002DAA
S214003AF07FF465AF032C7FF462AF01225F4B9A62BE
S214003B005DE74FF400225C4B0E465A66012203F531
S214003B1040539D6A03F58053C5F340059A62C2E799
S214003B2000250426BFE700250126BCE700252E4613
S214003B30B9E7022C03D0A4F10F056C426C414A4A47
S214003B40D2F8803123F003032343C2F8803136E7EE
S214003B50023C032C8CBF0021494B434A98BF195D99
S214003B60D2F8203123F003030B43C2F8203126E7B6
S214003B70A1F10804082C3FF622AF01A353F824F065
S214003B80A53B0000A53B0000BF390000A53B000098
S214003B90D33B0000BF390000BF390000BF3900002A
S214003BA0A53B00004FF480322F4B3649586E03F584
S214003BB080535A660B6AC00343F001030B625CBF76
S214003BC0314B5A664FF0E022136923F00403136169
S214003BD0F5E64FF48032244B2A49586E03F580539D
S214003BE05A660B6A23F001030B62C1035CBF264BC7
S214003BF05A664FF0E022136943F00403E7E7083CF7
S214003C00062C8CBF0021214B174A98BF195DD2F8AD
S214003C10003223F007030B43C2F80032CFE60F2C26
S214003C200DD0A4F110035C425C4164000E4AD2F849
S214003C30203223F003032343C2F82032BFE60124D8
S214003C40F4E7083C032C8CBF0021114B064A98BFB2
S214003C50195DD2F8403223F003030B43C2F840321A
S214003C60ADE600BF1C8802000080005022880200DB
S214003C70228802000F8802000090005000E00050EA
S214003C802688020000C0075000A0005015880200D9
S214003C90228802004FF4C02270B50546FFF748F9A7
S214003CA0314B04465A6603F598335A68012A04D104
S214003CB02E494A609A699207FCD18020FFF7F6FBEE
S214003CC0052807D119F0A4F819F0B0F84FF480329F
S214003CD0254B1A67264B24F040749D4230D0254B66
S214003CE09D4230D023F040FA8542064603D9012192
S214003CF0284600F01FF9204BDA6812F0060FFBD1B9
S214003D0099689C609A68624012F4F81F1ED1284693
S214003D10FCF7AEFF8020FFF7C9FB05280DD123F086
S214003D2049FA0446FFF734F8C0F10201204619F0BC
S214003D3077F8FFF7EDFDFFF7A9FBAE420CD270BD9A
S214003D4044F00074CEE744F08074CBE7802099609E
S214003D50FFF7ACFB052805D0BDE870400121002028
S214003D6000F0E8B83546DAE70090005000E0015071
S214003D7040420F0080841E000000015010B5224B08
S214003D8070B94FF40031214A1860516602F5983236
S214003D905268012A03D11E4AD2F800211A6010BDCB
S214003DA01B68002BFBD01B4A5268012AF7D0184A22
S214003DB08020C2F80031FFF779FB05281FD14FF4A9
S214003DC0C070FFF7BFF90128044604D102214FF462
S214003DD0C070FFF72FFD07220F4B1A610122A3F5D3
S214003DE080535A600B4A1369DB07FCD5012CD6D1E9
S214003DF02146BDE810404FF4C070FFF71BBD0122FE
S214003E00064B5A60CBE700BF981800200090005081
S214003E100080005000C0015000E0015000D001506A
S214003E20044A4178536F23F4407343EA01235367EF
S214003E30704700BF0040005010B5044610B1002087
S214003E40FFF79CFF124A136943F00403136123F043
S214003E503DFF18F0F0FF0F4B5B6E5B0142BF0E4B51
S214003E600E4AC3F8202424F06CFA24F059FC24F0FF
S214003E7063FA18F0E1FF02F0F3FD1CB9BDE810404C
S214003E8023F098B90120BDE81040FFF777BF00BFC8
S214003E9000ED00E00080005000E003500000FF0F3F
S214003EA0034A0179D36E23F030030B43D366704781
S214003EB000400050F8B504461C4BD3F88420D106C9
S214003EC0FBD4D3F88430C3F381139C422CD023F068
S214003ED051F9012C064602D1214618F0A1FF24F024
S214003EE030FA4FF00072124B07465A66204618F01A
S214003EF0ACFF4FF480630D4D621E93402B676B6ED4
S214003F009A0103D4D5F884309B060AD5384624F0A7
S214003F1013FA022C08D13046BDE8F840002118F00C
S214003F207FBFD5F88430EAE7F8BD00BF00400050F8
S214003F300060005010B50C4608B923F01BF9074B7B
S214003F4021461B783BB1064B984204D80120BDE8B9
S214003F501040FFF7AFBF0220F9E700BF242700207C
S214003F60005A62020278034B012100201A70FFF704
S214003F70E1BF00BF242700204FF0004238B5264B93
S214003F8026495A6601224A604AF6CD3103F50B23CC
S214003F905D6C1964154030BB9968C9070BD40024C2
S214003FA001221F4B5A6015B11E4B1F4A1A6420F09F
S214003FB080F8204638BD1A498A601C4AD96ACC0760
S214003FC005D4904201D10724EAE70130F6E7904293
S214003FD0E5D1F8E70132DC6A14F0080406D08A421C
S214003FE0F8D10724DFE700221049F4E78A42F8D028
S214003FF020220B4B0B495A620122A3F580539A608C
S21400400023460A4A486A800603D49342E9D001331D
S214004010F8E79342C7D1E4E70090005000500950FB
S21400402000600950004009503254FFFF40420F0024
S2140040304AF6E8531A4C80B51A4FE56EE66E2366CC
S21400404024F078F9FFF74CFC3B6F012023F00703C0
S21400405043F001033B67FFF76DFC0020FFF78CFF82
S21400406018F0F1FE18F0F0FE7B6E25F003055B01FC
S21400407044BF0D4B0D4A45F0020548BFC3F8202447
S21400408046F003060A4BE566E666E566E666E5661E
S214004090E666E566E666E5665B6A30BFFEE700BF95
S2140040A0004000500080005000E003500000FF0F6A
S2140040B000400950F8B504460D461F4616464AB15C
S2140040C001238B403021184A01FB0022F7B141F250
S2140040D01001535004EB4403072D4FF00F014FEA35
S2140040E0031316D8A80006FA00F281400F481844B9
S2140040F018F0B2FE4EB9012330210B4AAB4001FB4B
S214004100042277B141F210015350F8BD42F210017B
S214004110DFE7A5F10800800006FA00F281400448B7
S214004120E5E742F21001EFE700C0035004C0035079
S2140041300CC00350F8B505460E4614465AB303F0B5
S2140041400307836823F44073836024F0FAF8AA68B0
S21400415082EA072303F440735340AB6024F0ECF884
S21400416036B9104B9D4217D12E20FFF75BF8064656
S214004170AB680D4BDA5D62430DD0A2EBC403013B86
S2140041803344B3FBF2F3AA68013B920702D5002B37
S21400419008BF0123AB61F8BD044B9D42E8D12F2038
S2140041A0E3E700BF0000015A2A880200008006509C
S2140041B038B500230E4A036400F50053DA634A78E4
S2140041C004460D4600F108037AB903F5805302222F
S2140041D01A602046D5E901122B7BFFF7ABFF20467D
S2140041E02978BDE8384018F046BE03F50053EEE7E0
S2140041F0FFFF1F00874B70B5984219D0864B984238
S21400420040F00581854B9968C26B12F4C06F15D0DB
S21400421091050FD5FD225A7009221A7000220264F9
S21400422093F90110012900D15A7093F9010070BD6D
S2140042307B4BE8E75605EFD5FE22ECE71C78082C0A
S21400424000F2E180DFE814F009001F00450053008B
S21400425070007E009C00A700D6004C880A88E50601
S2140042600AD5120A02F0060242F0F0020121197085
S2140042704263C1600120DAE702F0FE02A10748BFF0
S21400428042F00102F2E7160608D5802100F500523A
S214004290D1634FF608721A80022318E05506E9D556
S2140042A0402400F50052D4634A88D40604D502227E
S2140042B01A700B784363DDE796076AD507221A70F3
S2140042C01B7901EBC3031B89012BD3D10823C360E1
S2140042D0D0E71506D9D45406CCD5402400F50052B4
S2140042E0D4634A88920754D503221A708CE74C8808
S2140042F00A88E60643BF120A02F0060242F0F002FF
S21400430002F0FE02650709D51C7942F0010201EBB6
S214004310C4010989012904BF0821C160042119705C
S2140043200123C3604263A5E71406AED45206A1D5A6
S214004330402400F50052D4634A88560729D5072240
S2140043401A7097E71A795D8801EBC2042689AE4297
S2140043500FD800240132D2B21A715C804C886507EF
S214004360C2D4E40702D4012A7FF64EAF08221A70A0
S21400437092E76268691C5980525D42630622DFE755
S214004380160682D455067FF575AF402400F5005218
S214004390D4630522A9E794067FF56CAF456A214CE5
S2140043A046691A793440B4F5003F04BF466A4FF4B4
S2140043B0005601EBC20100F500540A8908BFE66307
S2140043C02026E6635C88A24281BF4968661C5E8040
S2140043D00D5559888A42C9D90424012AC46004D0DC
S2140043E0013A914201D10822C2601A78092A3FF4A4
S2140043F015AF3FE7D2057FF53DAF4FF4807100F56E
S2140044000052D16308E74FF609321A8006E76FF0CC
S21400441003000CE70000015A00800650A818002090
S2140044209C180020200002001D4B10B4984207D0B4
S2140044301C4B98422FD06FF003005DF8044B70477A
S214004440194B0269D20744BF2022C2604A889407EB
S21400445002D50C89002CEED0520702D50A8A002A13
S214004460E9D04FF480721A60002299601A71C02356
S214004470C3604369DB0510D4202200F50053DA63DD
S2140044800A4A5DF8044BDA634FF4FC6200F5805389
S2140044901A64FFF7AFBE064BD3E7436AE9E700BFEF
S2140044A00000015A008006509C180020FFFF1F00E5
S2140044B0A818002010B5152001F016FC0024FF22D5
S2140044C0064B21465C6520209A625C60FEF78AFEF9
S2140044D02146BDE810402120FEF784BE00000450AF
S2140044E0044A054B002908BF1346012282401A6081
S2140044F0704700BF401004504020045010B5012102
S21400450004462020FEF76EFE01212120FEF76AFEFB
S2140045100122114B15205A60227812069A606178A3
S214004520A27842EA01429A61FF229A6200229A63C6
S2140045301A644FF000425A654FF0FF3203F50053FD
S2140045401A6501F0FFFB1520E17818F084FDBDE840
S2140045501040152001F0DABB00000450F8B5012524
S214004560C3B21E4FD1F800C09D408E7ACB7A0C465F
S214004570097B3D6507F5005747F820C04FF0300C23
S2140045800CFB00F01B05677B00F1A04043EA0643E6
S21400459000F5802043EA415322F003020766C36514
S2140045A0026723F0D7FE0E4B227A5D6502B11D64CA
S2140045B0627A02B19D632279A37943EA0243074AED
S2140045C093616179E37943EA014305498B61054BC1
S2140045D055639D64BDE8F84023F0B7BE0020045044
S2140045E0001004500000045010B50124C0B28440EE
S2140045F023F0B0FE044B5A6D22EA04025A659C6210
S214004600BDE8104023F0A1BE0000045010B5012400
S214004610C0B2844023F09EFE074BDA6A224208D1DD
S2140046205B6B9C430CBF0124002423F08EFE2046C7
S21400463010BD0024F9E700BF0000045070B5054621
S21400464023F088FE3022084B5E6B02FB05335C6E5F
S21400465023F07BFE0123EDB2AB4033420ABFC4F326
S2140046600A100020013070BD000004504FF40032E4
S214004670054B9A6641F6713203F51C33DA63012264
S21400468003F50053DA6070470090005041F671322F
S2140046900121064BDA6303F50052D1600022DA638B
S2140046A04FF40032A3F518339A66704700000350A3
S2140046B0CB784A7810B55B010C7843EA82030A7916
S2140046C0234343EA02130C22424302F1B04213632F
S2140046D0012C02BF8A78024B43F8202010BD00BF91
S2140046E0E880035008B54FF0B0435A686AB958B12D
S2140046F05B680BB118F0C9FB01210D4B596018F02F
S214004700C4FB4FF0B043D96008BD5B680BB118F02E
S214004710BCFB0028F0D118F0B8FB4FF0B0430222E3
S214004720DA6018F0B2FB0122024B5A60ECE700BFD9
S21400473000100058002000584FF0B0414B6810B5EC
S2140047400BB118F0A2FB01220B4BC4785A60837899
S214004750934043EA840344782343047943EA0413EA
S214004760447943EAC4038B60044B5A600378C3F170
S2140047700203CB6010BD00BF002000580010005898
S2140047804FF48032064B5A6603F5E6235B69C3F3A3
S2140047908512827003F03F021B0B42700370704755
S2140047A000900050014B986CD96C70470080E00F69
S2140047B0024B1868C0F30740704700BF0080E00F48
S2140047C00120034B9B680A3303F01F039840704791
S2140047D00080E00F70B5054616461C4621B94FF41A
S2140047E02070FEF71FFD0146402C1BD003D8DCB11D
S2140047F0202C1BD070BD602CFCD1042303FB06F2DA
S214004800530803EB4113B3FBF2F36021084A203B45
S21400481002EAC30305F50052916005F580529460E4
S214004820EB61E7E70623E9E71023E7E70823E5E778
S214004830F8FF7F00012200F580535A6040F6AA6315
S21400484041F20502436100230B498360C365C260E1
S21400485000F500520361C361C36491640749836530
S214004860884203D103650023436502E00449884279
S214004870F8D0012353607047FFFF010000C00550C9
S2140048800000065070B50D46FFF7D4FF012300F573
S21400489080567360AB7C04461BB1836843F080434C
S2140048A08360EB7C4BB1344A2B7D944243D1A2F516
S2140048B01032C2F88C318023F3652A8A6B7B20463F
S2140048C01343EA891343E3602B7BD5E90112FFF714
S2140048D081FF6B7D1BB1A36843F48033A360AB7D7F
S2140048E01BB1A36843F40043A360EB7D2A7E1B073D
S2140048F0120502F4E00203F0E0431343A365697E69
S2140049001D4A8B1E012B1D4B1FD894421BD002F54F
S214004910804294420CBF01224FF0FF3203EB421359
S214004920022041F21C620329985020D10423F3652B
S2140049302B78636170BD124A944204BFA2F5203200
S214004940C2F89C31B7E70022E8E794420DD00C4A43
S21400495094420CBF01224FF0FF3203EB42130220B9
S21400496042F21C6201299850DFE70022F5E7042294
S21400497004F50053DA65DBE700C0055000C00350BD
S21400498000000650034BD3F82424D3F8200410402C
S214004990704700BF00C003502DE9F8431E4B054684
S2140049A0D3F810334B1E0E2B0E46174690F8009089
S2140049B044781DD909B34FF000082846D7B123F034
S2140049C0CFFC09EB4903072C4FF00F014FEA031306
S2140049D015D8A400114808FA04F2A140184418F0AB
S2140049E070FABEB928468FB1BDE8F84323F0B8BCCC
S2140049F08846E2E718F074FAE3E78846E1E7083C01
S214004A00A400074808FA04F2A140E7E7BDE8F84327
S214004A1018F066BABDE8F88300C0035004C003501F
S214004A200CC003504FF48032084B5A6603F5E62359
S214004A305B691A0B027003F03F0242704FF6FF727A
S214004A40C3F3851342808380704700BF00900050F8
S214004A50014B986CD96C70470080E00F70B5044627
S214004A601FF0F1FB064630B90FCC044D0FC594E895
S214004A70030085E80300304670BD00BFB418002070
S214004A8047F6FF739A42F0B56FD002296FD8394BBC
S214004A905B5C012B6BD8384DDF0005EBC30415F8C3
S214004AA03330A178012B13D10025E078401AA842B4
S214004AB002D80844C0B2F0BD431B6668A0EB53039F
S214004AC036F913609642D4BF1D4603F1FF30EEE779
S214004AD060680028EFD0B0F90040944204DBB0F9DB
S214004AE002409442B8BF144683883D44FF2B19BF4A
S214004AF0C8224FF0280CB0F90620B0F908C0A2EB87
S214004B0004030CBF0126002693FBFCF333446E78A7
S214004B101BB29E4201DD002B01DA731E1BB24FF45E
S214004B207A7C01339BB2071D5D1E2DB24FEAC50E7F
S214004B3000EBC505EA88AD689E4214FB025222EAE5
S214004B40E27202F15C02B2FBFCF204DD37F833508D
S214004B5001339542E8D200EB0E039888904228BFB6
S214004B601046884238BF0846A4E7FF20A3E7002087
S214004B70A1E700BF2E880200B41800200229F0B575
S214004B8055D82C4B585C012851D82B4C04EBC0014F
S214004B9014F830004B6801280FD1C8788C78904202
S214004BA094BFC4EB0001C4EB0201001BCAB28242F0
S214004BB0C8BF002233F91200F0BD002B37D088782A
S214004BC0904202D3B3F90200F6E7CC78B3F90000BE
S214004BD09442F1D94C789988013CA1F1FF067142C4
S214004BE003F10405E4B2714103F10C07CEB2B442FE
S214004BF016D805EBC1014FF47A756A43B1F9024045
S214004C004968521A04EBD47102EB610292FBF4F28B
S214004C109042D1DBB3F902009042CDDC10B2CBE774
S214004C2037F831C04E1C9445E3D33146DEE70348DF
S214004C30C2E700BF2E880200B41800200080FFFFE5
S214004C4008B50448FFF70AFFBDE8084001201FF03A
S214004C50FEBA00BF3488020000487047F02B0020E0
S214004C6006289ABF014B185C00207047B8880200DF
S214004C704FF40052034B00209A660322C3F86022CA
S214004C80704700BF009000504FF40052034B0020C6
S214004C909A660322C3F86022704700BF00A0005047
S214004CA000F01F02A0F50620A0F55060812810D85D
S214004CB0012309494009934051F820201A4341F83E
S214004CC02020064951F8202022EA030241F820203D
S214004CD070474FF0FF307047E4180020D0180020CF
S214004CE000F01F03A0F50620A0F55060812810B53F
S214004CF019D801210D4A4009994052F820300B433B
S214004D000B4942F82030D1E9004323448C68234401
S214004D10CC68096923445B1804D1C2E90033C2E9B0
S214004D200233136110BD4FF0FF30FBE7D0180020B0
S214004D30E41800202DE9F04FA7B003921F46044662
S214004D400822CDE90401414021FA02F34B409807BE
S214004D5002F1080218BF9B00202A1C44F4D18123CC
S214004D60B4FBF3F303EBC313E41A7F4B04F50624FA
S214004D701B7804F55064002B39D1FDF78DFE0546EF
S214004D8000286FD10146402206A81FF092FF294650
S214004D90402216A81FF08DFF744D754EA84610359C
S214004DA0AE4228BF2E467348013E00964346102268
S214004DB0006806A917F034FE4FF0000B81460DF18F
S214004DC0180AD94541D16B48009643461022006820
S214004DD016A917F02EFE4FF00008834616AEC34500
S214004DE046D1654B9D42D8D101225F4B1A704FF0D9
S214004DF081080026DFF894B1A4F50625A5F55063D2
S214004E005B095BF8232004F01F01CA40D20746D492
S214004E105A4A52F82330CB40DB0732D58123002E86
S214004E2008BF2646A5F6FF44B4FBF3F303EBC31313
S214004E30E41A04F50624B8F1010804F55064DBD141
S214004E40039B03B3FEB1344625E05AF8040BFFF784
S214004E5027FF013009D10022434B1A70424B1B78C2
S214004E60002BC4D16FF091000FE00BF1010BA8E707
S214004E7056F8040BFFF734FF0130EFD008F10108B5
S214004E80ADE7039B23B96FF08B0027B0BDE8F08F2A
S214004E90002E18BF3446329B00201C60F5E7309B7E
S214004EA013B10023309A1360319B13B10023319A5B
S214004EB013604FF0100ADFF8BC90CDF800A0002376
S214004EC03A462146D9F80000FDF7EAFB002838D11B
S214004ED030993A682A4BE9B19A42C1F800A01CD032
S214004EE02146D9F80000FDF733FD0028CBD1D7E9DD
S214004EF00223DDE90410834208BF8A422AD08123B8
S214004F00A5F6FF45B5FBF3F303EBC313ED1A05F562
S214004F10062490E79A42EAD0E2E7319B002BE6D0DF
S214004F202146D9F8000016AAFDF700FC48B9319BC7
S214004F30309A1B681268934294D39B1A319A136076
S214004F40D5E7104B9842CBD06328C9D00E4B984279
S214004F50CDD087E7039B002B9DD07B68012B9AD191
S214004F606FF0840091E700BF25270020006D080041
S214004F70816D0800902A0020906D0800D01800204F
S214004F80105D175EFFDF00F0FEDF00F0E418002083
S214004F902DE9F04F87B08246894698461646DDF8DA
S214004FA040B02AB1002B53D040F26C739A4252D8CC
S214004FB0BBF1010F52D8002406F110073946012034
S214004FC0059418F03DFD054600284AD021463A468D
S214004FD01FF06FFE05ABCDE9014300942B4601227E
S214004FE050464946FFF7A6FE044680B110F18C0FE6
S214004FF008BF6FF08D043A46002128461FF059FE80
S214005000284618F0FFFC204607B0BDE8F08F164B88
S214005010C5E902A92B60C5F804B02EB13246414658
S21400502005F110001FF050FE059E10483B462A462C
S21400503031460068FDF748FC38B93046FFF730FEC9
S214005040013008BF6FF08604D5E76FF09104D2E711
S2140050506FF08604D7E76FF09104D4E76FF085040D
S214005060D1E76FF08C04CEE7105D175E902A002023
S2140050702DE9F0438DB08146DDE914780E461546DD
S2140050801C469BB1B8F1000F05D16FF0860630467E
S2140050900DB0BDE8F083002FF7D0B7F1005FF4D372
S2140050A0C3F1005303F500439F42EED810220021BF
S2140050B008A81FF0FEFD002207AB029305AB019384
S2140050C006AB31460093484608ABCDE90522FFF70C
S2140050D031FE06460028DAD1059BA4B1AB4215D8AE
S2140050E053EA0504D1D1069B0B48C8F8004000944B
S2140050F03A46079900682B44FDF7D2FA002818BFF5
S2140051006FF09106C3E7AB42EDD2BEE75B1B9C4255
S21400511028BF1C46E7E700BF902A002030B58DB0B8
S2140051200C4605461022002108A81FF0C2FD0022EA
S21400513007AB029305AB019306AB214600932846C6
S21400514008ABCDE90522FFF7F5FD044608BB099B31
S214005150012B21D0079D134B29461868FDF7F8FB55
S214005160E8B9A5F50623A3F55063812B05F01F02C9
S2140051700DD801210C485B09914050F823204A4085
S21400518040F823202846FFF7ABFD013001D16FF031
S214005190860420460DB030BD6FF08404F9E76FF04A
S2140051A09104F6E7902A0020E41800202DE9F04F3D
S2140051B089B007460E4601F04BFEC00709D404240A
S2140051C0012019F0F8F880B3013CF9D16FF0920095
S2140051D028E0102200210DEB02001FF06AFD04A853
S2140051E001F098FE049B002BE9D0059B002BE6D02F
S2140051F0069B002BE3D0079B002BE0D00025DFF8B2
S214005200808008F10409B54219D34FF48A7401F07E
S21400521019FE00F00E03062B2DD1C30501D501F0B3
S21400522043FE002009B0BDE8F08F01F00BFE10F041
S2140052300E03FAD0022BF8D04105DFD5C4E701F003
S214005240FBFDA6EB050A8400544528BF544699E8A2
S214005250030000238DE80300CDE9054307EB050BAB
S214005260CDF810B0029404AAD8F8003007CA18F097
S2140052709BFF2544C7E724FA03F3DA07A6D5C6E75B
S214005280E48802002DE9F0438BB01746DDE91545AA
S214005290DDE913269C46DDE91738894621B96FF00B
S2140052A086000BB0BDE8F083002FF8D00EB9002CB6
S2140052B0F5D1129909B9002AF1D10DB9002BEED11A
S2140052C0B8F1000FEBD0244A944541D10288B2F5DC
S2140052D0105F3DD14288B7EBD20FE0D322F04001F9
S2140052E0802902D0B2F5807FD9D16CB3AE421CD2F1
S2140052F03219954219D29C42D1D8314622462846C8
S2140053001FF0BDFC2E4614F00F03C8D1CDE901975F
S214005310CDE90336CDE90543CDE907540993FFF7F8
S214005320A7FC38B16FF09200BBE79C42EBD96FF058
S2140053308900B6E707AA04A901A801F0AFFE054652
S214005340FFF7A2FC0543EDD10020C8F80040A8E70F
S2140053506FF08500A5E700BF004440042DE9F04F3C
S214005360A9B0834617469A460E46DDF8C890DDF883
S214005370D88029B96FF08603184629B0BDE8F08FAB
S214005380002AF7D0B9F1000FF4D0349B002BF1D0EF
S214005390B8F1000FEED00024424B0CAD93E80700A6
S2140053A085E807003C22214619A818941FF081FCC6
S2140053B03388728803F4E040B0F5804FDAD03A4E76
S2140053C03A480BEA060646F01066864263D1B2F506
S2140053D0807F60D147F2121293425CD10620344A95
S2140053E0BAF11F0FD3680E940B931369126800FB73
S2140053F003F3CDE90C23BDD9339B402BBAD9359B9B
S2140054001F2B4BD909F1010220261292402299F84F
S21400541000300F97042B18AFCDE91324CDE9157291
S214005420109611941794A5D1FFF722FC0346002886
S214005430A2D10B9B15AACDE9086305AB07CA83E882
S214005440070002AB12AA07CA83E80700DDE91001CD
S2140054508DE803000F9B95E8070001F0F9FE05466E
S214005460FFF712FC55EA000384D13D46349A20AE7D
S2140054702C4603CCB44210605160254602F1080267
S214005480F6D100221146B9540132402AFBD120221F
S214005490C8F8002070E76FF085036DE76FF08903AA
S2140054A06AE700BF348A02000000FFF60000020927
S2140054B0488A0200F0B50E461D468BB0002853D031
S2140054C0002951D0002A4FD0002B4DD0048804F478
S2140054D04F43B3F5824F03D06FF085000BB0F0BD9D
S2140054E0E3B224F0FF04B4F5E24FB0F802C0F3D103
S2140054F0122B01D0172BEFD10CF10701B2EBD10F15
S2140055004FEAD10733D31D4A04ACBCF5807F07CAE7
S21400551084E80700E0D1122B07D1194B1A691B68E3
S2140055201344CDE90432002306930023CDE9076730
S2140055300993FFF79DFB0028D0D1124A02AB92E8F0
S214005540030083E803000AAB13E903008DE80300B9
S214005550079B94E8070018F0ACFD0446FFF794FBA1
S214005560204307D12F60B9E76FF08600B6E76FF0EB
S2140055708900B3E76FF09200B0E700BF348A0200FC
S214005580488A0200DC8802002DE9F0438FB01D46F1
S214005590DDE916C600285CD000295AD0002A58D06B
S2140055A0002B56D0BCF1000F53D0002E51D00388EC
S2140055B003F44F44B4F5824F51D1DCB223F0FF031D
S2140055C0B3F5824F40884AD0122C01D0172C46D112
S2140055D0C31DB2EBD30F4FEAD3083AD34FEA4802C3
S2140055E0571C674538D8B0F5807F38D1122C18BFC5
S2140055F04FF000094FF0000308BF1C4CCDE9081817
S21400560005F1010114BF4C46D4F80C90CDE90B12FD
S2140056100A930D93FFF72CFBC0B9CDE9058902ABC1
S21400562008AA07CA83E807000EAB13E903008DE853
S21400563003000B9B94E8070018F05AFD0446FFF79A
S21400564023FB20430ED104232B7037600FB0BDE838
S214005650F0836FF08600F9E76FF08900F6E76FF0E9
S2140056608500F3E76FF09200F0E700BF488A02007B
S2140056702DE9F04389B00E4615461F46DDF84880F2
S21400568020B96FF0860009B0BDE8F0830029F8D095
S214005690002AF6D0B8F1000FF3D0038803F44F4287
S2140056A0B2F5824F02D06FF08500ECE7DAB2122A2C
S2140056B001D0172AF7D123F0FF03B3F5E24F41D10B
S2140056C04488C8F8004044B9EB00B3F5807FC8F8BA
S2140056D00030E8D1122A0DD108E0E31DB5EBD30F58
S2140056E0CFD1B4F5807FDED1122A29D1354B1C6884
S2140056F01B691C440023194670192C4414F801CD6C
S21400570010F8012D1143B2EB0C020CBF4FF0FF3C1A
S2140057104FF0000C86420CEA030343EA0203EDD185
S2140057200029AED0002BACDA109B9D4246D82A4604
S214005730314638461FF0C8FA119B00201D60A2E7CC
S2140057400024D7E73378042B9BD16B1EDB005B0865
S214005750B3F5807FC8F80030A5D1122A06F1010300
S21400576018BF4FF000094FF0400205934FF00003BA
S2140057700ABF144C4C46D4F80C90CDE90623FFF72C
S21400578077FA00287FF47FAFCDF80C90D8F8003079
S2140057900733DB08029308AB13E903008DE8030028
S2140057A0059B94E8070018F050FD0446FFF76CFAD6
S2140057B000287FF468AF002CB6D062E76FF089004F
S2140057C061E700BF488A02000388B3F5105F0ED178
S2140057D04388DB08103B102B0CD8084A22FA03F348
S2140057E013F0010F14BF00206FF0860070476FF0B3
S2140057F0850070476FF08600704700BF010101000A
S2140058002DE9F04F8FB01546DDE918A91E46DDF8E4
S21400581068801C9F09B300B3B8F1000F1DD0E7B134
S214005820BAF1000F02D1B9F1000F16D1274B26F4BA
S2140058307E129A42B0F802B044D1FFF7C5FF044684
S214005840A8BBB5EBDB0F4FEADB0306D316F47C1FD1
S214005850C6F3054504D0102D03D96FF0860426E064
S21400586010251B9A95422AD8CDE901130023102251
S214005870CDE905930DF12809CDE9033ACDE90823D2
S214005880CDF81C90FFF7F4F9044680B907AA04A9DE
S21400589001A801F017FC0646FFF7F6F9044656B9CC
S2140058A058B92A46494640461FF00EFA3D60204643
S2140058B00FB0BDE8F08F6FF092040025F6E76FF0AA
