S02B00007A69676265655F6770645F736F635F656E657267795F68617276657374696E675F73656E736F722E76
S21400000000100020C1120000E9F30000E9F3000030
S214000010E9F30000E9F30000E9F30000E9F300006B
S214000020E9F30000E9F30000E9F30000E9F300005B
S214000030E9F30000E9F30000E9F30000E9F300004B
S214000040E9F30000E9F30000E9F30000E9F300003B
S214000050E9F30000E9F30000E9F30000E9F300002B
S214000060E9F30000E9F30000E9F30000E9F300001B
S214000070ED6F0000E9F30000E9F30000E9F300008B
S214000080E9F30000E9F30000450F0000E9F3000083
S214000090E9F30000B11E0000E9F30000E9F30000F8
S2140000A0E9F30000D9190000B9190000E9F30000CF
S2140000B0E9F3000045CE0000E9F30000A9D80000EF
S2140000C0F12F0100ED2F010085D000000730010060
S2140000D0F52F010079D80000F92F0100E9D80000BB
S2140000E0CDBC00001DBD000055D90000E9F300009E
S2140000F0E9F30000E9F30000E9F30000E9F300008B
S214000100E9F30000E9F30000E9F30000E9F300007A
S214000110E9F30000E9F30000E9F30000E9F300006A
S214000120E9F30000E9F30000E9F30000E9F300005A
S214000130E9F30000E9F300000111000093EB000072
S21400014082B030BF074BD3F8F030DB0704D500236E
S2140001500193019B052B01DD02B07047019B013323
S214000160F6E700BF00ED00E0F0B5114A114C124E64
S21400017000F00105E3695F0713D40DB9334213D1CC
S21400018003EA00078F4207D10B4A1A40002A0CBF29
S21400019000206FF00100F0BD013AEBD16FF00200D5
S2140001A0F9E74FF0FF30F6E76FF00100F3E700BF26
S2140001B08096980000000350020001000B4B70B5BB
S2140001C0D96911F480310DD101244FF48072084EA4
S2140001D0084DF46020462C641A61FFF7C5FF3464AE
S2140001E0EC6070BD6FF00100FBE700BF000003503D
S2140001F000100350002003504FF4003238B50F4B68
S2140002000F4C9A6641F671330122E569E3630D4BA4
S2140002100021DA60022360612120236105F4803525
S214000220FFF7A2FF10B92120FFF79EFF0122064B21
S214000230DA600DB10023E36338BD00BF00900050C4
S21400024000000350001003500020035070B5134CFC
S2140002506061E3695B071ED40E4656F8043B8D18B2
S214000260A361AE420BD10423002121202361FFF7B6
S2140002707BFF58B9BDE870402120FFF775BF082105
S2140002800846FFF771FF10B10423236170BD56F8CE
S214000290043BA361E5E74FF0FF30F7E700000350AB
S2140002A02DE9F84315464FF40032184B89469A66F6
S2140002B041F6713203F51C33DF69DA630122064624
S2140002C003F58053DFF84C8007F48037DA6055B9C1
S2140002D0284601220E4BDA601FB10022A3F5005318
S2140002E0DA63BDE8F88306F5005404EA0804A41BA4
S2140002F0AC4228BF2C46494622463046FFF7A6FFAA
S2140003000028E6D12644A1442D1BE0E700900050CB
S20C0003100020035000E0FFFF8F
S214000320013800D0FCE770472DE9F04F93B0CDE9D7
S2140003300A32DDE91C530E9353EC102BCDE908016D
S214000340104619468DED060B1E9E0DF0E7FF80B198
S214000350DDE906014FF0FF32C54B0EF007F840B955
S214000360DDE906014FF0FF326FF480130DF0E0FF79
S21400037070B1DDE908019DED060B0E9B1E96CDE9DA
S2140003801C53DDE90A3213B0BDE8F04F00F088B91F
S2140003900022DDE9060100230DF0CAFF002800F068
S2140003A03381DDE906A303F1004BCBF30A5016F4C4
S2140003B08063A0F2FF3008BF06250F930DF0DCFC2B
S2140003C09BA3D3E900230DF041FD9BA3D3E90023B3
S2140003D00DF086FBCBF31304894644F07F5180462C
S2140003E00022A44B504641F440110DF077FB94A335
S2140003F0D3E900230DF02AFD02460B464046494647
S2140004000DF06EFB0DF0BCFF04460DF0B5FC8EA3A0
S214000410D3E90023804689460DF018FD0022964B4E
S2140004200DF05EFB0DF0ACFF89A3D3E90023074671
S214000430494640460DF00AFD8046384689460DF08E
S2140004409BFC85A3D3E900230DF000FD02460B4676
S214000450404649460DF042FB02460B46CDE90C23CA
S2140004600DF0F4FCDDE90C2380468946104619465B
S2140004700DF036FB0022CDE91001804B4046494680
S2140004800DF00EFE00227E4B0DF02AFB02460B46B8
S214000490404649460DF004FE00227A4B0DF020FB44
S2140004A002460B46404649460DF0FAFDDDE90C23B0
S2140004B08046894600204FF080410DF00FFB024633
S2140004C00B46404649460DF00BFB02460B46DDE95F
S2140004D010010DF0E5FD07F2FF3700226A4B0DF024
S2140004E0FFFA00223B050DF0B1FC52465B46804603
S2140004F089460DF03BFF002840F08980CDE90C8945
S21400050004F16303C72B34BF0427052731051BD529
S21400051053A3D3E90023504659460DF01DFF00288B
S2140005207FD051A3D3E90023504659460DF000FF73
S214000530002876D00027A542C6BF2C1B04F1FF3545
S21400054000253C4646F480660E9B9F422CBF4FF02B
S2140005500008A3EB070816F0020903D0002F18BF07
S2140005604FF000083CB1DDE90C23504659460DF02B
S21400057097FD82468B46DDE90601002200230DF03A
S214000580D7FE10B10BF100439B46DDE9080126F4C7
S2140005900063CDE90183DDE90A324BEC10AB009530
S2140005A000F07EF802465FB3DDE9091316F0200F6F
S2140005B000F10105089E0CBF65204520B047DDE927
S2140005C008010523002205930A23002CCDE90232F8
S2140005D007F1FF374FEAD473B8BF64422A46019347
S2140005E004970A9B009411F0C6FF0246B9F1000F6B
S2140005F006D00B9BC41A0B9B1A190E9BA34245D818
S214000600104613B0BDE8F08FDDE906ABCDE600225C
S214000610404649461A4B0DF043FD013CCDE90C011E
S2140006206EE7002D90D00F9B002B8DD0013D8BE701
S214000630FB799F501344D33FB3C8608B288AC63FCC
S21400064061436F63A787D23F71A379094F930A402E
S2140006501655B5BBB16B0240EF39FAFE422EE63FA7
S2140006602D431CEBE2361A3F0000000080842E412A
S214000670FFFFEF7F0000F83F0000E03F00002C4047
S21400068000002440000018400000F03F2020DDE974
S2140006900913089DA8470134ADE700BF000000001D
S2140006A02DE9F04F5BEC10AB97B0CDE90501DDE925
S2140006B02057CDE90723504652465B465946229EB0
S2140006C00DF02CFE70B90323CDE902760193B04BF2
S2140006D00093DDE90501DDE9072311F06CFE17B094
S2140006E0BDE8F08F4FF0FF326FF480135046594646
S2140006F00DF01EFE28B10423CDE902760193A54B2A
S214000700E6E74FF0FF3250465946A34B0DF02EFE5B
S21400071068B1A24A06F00403002B08BF0322A04BD0
S2140007201CBF13460422CDE902760192D0E750465C
S21400073093A3D3E9002359460DF018FE38B992A3C7
S214000740D3E90023504659460DF0F2FD68B1DDE9C5
S2140007500723DDE905014BEC10ABCDE921762095AA
S21400076017B0BDE8F04FFFF7DFBD0022002350466C
S21400077059460DF0DDFD002800F09A805B46524693
S214000780002000210DF0AAF9012382468B4609932A
S21400079016F4806400F08E80092D40F28E800024CE
S2140007A030210EABA5F109020134202C03F8011B01
S2140007B0A5EB040901D09442F6D1594650460DF0F7
S2140007C0DFFD784B054603EBC90393ED007B8DED0B
S2140007D00A7B0DF0D1FA02460B46504659460DF0FC
S2140007E07DF9DDE90A230DF031FB02460B46CDE923
S2140007F00C230DF0EDFD80460DF0AEFA02460B46DA
S214000800DDE90C010DF06AF902460B46CDE90C2332
S2140008100022654B0DF0AAFD002851D008F1010812
S21400082040460DF099FA02460B46DDE90A010DF046
S21400083089FD10B14FF000080135B9F1000F50D115
S21400084028460DF099FA02460B46504659460DF0DA
S21400085045F90022544B804689460DF069FD30B1BB
S214000860002240464946504B0DF080FD10B1E80787
S21400087000D501350A210EAB1A19202C0AD095FB9B
S214000880F1F001FB1055303502F8015B01340546E6
S2140008900028F2D106F00302012A57D1002F55D0C6
S2140008A0099A12B916F00C0F00D0013F302245E02D
S2140008B009906DE74FF006097FE7A94600247CE71C
S2140008C00022DDE90C01384B0DF032FD0028B4D1D2
S2140008D0B8F1000F02D018F0010FAED008F10108F1
S2140008E0ABE70A210EAB2344202C0ED0B8FBF1F068
S2140008F001FB1082B8F1090F02F1300209F1FF394D
S21400090004F1010403F8012B11D83021A1440EAAEA
S214000910202CAFD0A14504F101030AD11C4609F1F1
S21400092058030DEB03092E2309F8203CA2E7804666
S214000930DAE7A1541C46EBE71A550134A74205D95D
S214000940202CF9D1CDE902760194C1E6202CF9D00D
S214000950099A3AB12D2104F158026A4402F8201C83
S2140009600134EFE7710704D504F158022B216A44DD
S214000970F4E73207E6D504F1580220216A44EDE791
S2140009800000000065CDCD410000000065CDCDC162
S214000990F14B0100F54B0100FFFFEF7FE84B010034
S2140009A0ED4B0100004C01000000E03F0348044B03
S2140009B0834202D0034B03B1184770472C2B00200C
S2140009C02C2B002000000000064B0749C91A89108E
S2140009D048BF0131491003D0044B0BB101481847FA
S2140009E0704700BF2C2B00202C2B0020000000009E
S2140009F010B5064C237843B9FFF7D8FF044B13B164
S214000A000448AFF300800123237010BD4C2600205D
S214000A1000000000C496010008B5054B1BB105494F
S214000A200548AFF30080BDE80840FFF7CDBF00BF24
S214000A300000000098120020C4960100A3F5803A3A
S214000A40704700BF174B002B08BF134B9D46FFF7A0
S214000A50F5FF00218B460F461348144A121A12F06F
S214000A6055FB0E4B002B00D098470D4B002B00D0AB
S214000A7098470020002104000D000D48002802D0F1
S214000A800C48AFF300800EF00DF8200029000EF0A1
S214000A9034F80DF04DFE00BF000008000000000016
S214000AA0000000000010002000100020D4270020C6
S214000AB0000000000000000008B512F02FFD022222
S214000AC0014B1A7008BD00BF4F26002010B5044623
S214000AD006F07CFE90F82B30052B03D80122044B41
S214000AE01A7010BD2046BDE8104012F017BD00BFBA
S214000AF04F2600200422014B1A7070474F26002014
S214000B00F0B589B006F062FE5E4B04461B785E4880
S214000B1023B109B0BDE8F0400EF040BD0EF041FD37
S214000B2094F82B30594D052B2FD8297831B902204F
S214000B30574A06F0A7FA012003F04AFE2B78002B4E
S214000B4000F09D80052B00F09A804F480EF026FDA1
S214000B502E78022E5FD1204610F0F7FE204606F0D3
S214000B601DFB4C4A0021022006F08CFA94F82B302C
S214000B7000210220484A06F085FA002342482B70DE
S214000B8009B0BDE8F0400EF00CBD062BD6D12B7890
S214000B9013B904232B70D1E7052BCFD13F4B1E781A
S214000BA0002ECBD1102303A88DF81030039603F047
S214000BB043FE0B214FF4F06003F0B4FB01213D200F
S214000BC002F0CEFF01213C2002F0CAFF344A05ABFA
S214000BD007CA83E8070040F2011202271846ADF85C
S214000BE01C208DF8146002F01DFD02F07FFD2D49DB
S214000BF0304602F06FFD2C4B12209F6105F012FD6F
S214000C00012002F03BFD31463846284A06F03AFA03
S214000C1003F0D0FE92E7012E0AD1204606F01CFD16
S214000C2094F82B3013B1204606F0B8FA204A99E71C
S214000C30042E9BD1002603A91E4803960EF0FBF84F
S214000C401D4B642205934FF40053ADF81830039BF8
S214000C502146B3FBF2F38DF81A30012305AA66731A
S214000C6030460093072306F089FC204606F096FAE5
S214000C7031460220114A06F005FA05232B7009B00A
S214000C80F0BD00BF4D260020D04401004F260020B6
S214000C90F0390100FA390100223A01004E26002000
S214000CA08C3A0100905F010000500650F5390100B3
S214000CB0083A0100D0120020A0010020153A0100D9
S214000CC013B5044612F074FC002360430549CDE9D1
S214000CD00033B0FBF1F1044A044812F044FE02B0BF
S214000CE010BD00BF40420F00F5EA0000F8120020D9
S214000CF0002307B505480DF107018DF8073012F0FF
S214000D0039FC9DF8070003B05DF804FBF8120020DC
S214000D10002307B54FF47A71CDE90033034A04483F
S214000D2012F06AFC03B05DF804FB00BFCD0A0000B9
S214000D30D812002073B5144603460D4600910220D3
S214000D4000210D4A06F09EF974B16B1EDBB2FC2B37
S214000D500AD80A4E254414F8013B324600210220E8
S214000D6006F090F9AC42F6D100210220044A06F0C3
S214000D7089F9002002B070BD333A01004E3A0100F6
S214000D80513A010010B5084B084C1968206802F06B
S214000D90B1F820680EF0C0FF20B12068BDE8104012
S214000DA00EF099BF10BD00BF282A0020482A002058
S214000DB0F0B5154607460C461A4685B053BB1A4989
S214000DC01A4E0091306819460EF058FF68B9306820
S214000DD00EF066FF384606F0A1F92B4622464AF684
S214000DE0A111306802F062FA11E04AF6A1113068EB
S214000DF003AB02AA02F08CF910B9029B002BE6D1D5
S214000E002B4622464AF6A111306802F041F900202E
S214000E1005B0F0BD012BFAD104480A462B464AF627
S214000E20A1110068DEE700BFFFFF0F00482A002080
S214000E3010B598B010F089FB002000F067F906F0B6
S214000E40CFF906F013FA06F0F9FC31480EF029FB4C
S214000E5001281ED141F2883003A912F0AFFB0346E9
S214000E6030B9CDE900002B4A03992B4812F07BFDE0
S214000E7006F0ACFC90F82B30052B07D8274A00214B
S214000E80022006F0FFF80122254B1A700122254B9E
S214000E901A70254C254B204623600DF08EFF90BB24
S214000EA0204603A90EF037F968BB01224FF0807385
S214000EB0CDE903234FF416731D4906931D4B059089
S214000EC0CDE90B13089340F2063340F6C411ADF893
S214000ED0343040F6F613CDE90E1340F6D8631649C3
S214000EE0CDE91030154B8DF81F00CDE91331144BAA
S214000EF02046CDE9153103A98DF8242012921793C8
S214000F000DF0B4FF10B10122054B1A7018B010BDD9
S214000F10B8440100B90A0000B0120020543A01009B
S214000F204D2600204E260020D0120020BC2900208E
S214000F300402020000010102F71BDA0580B14F012E
S214000F401C8122000222014B5A6170470060065045
S214000F5030B585B0044606F039FC054620460EF04E
S214000F60A0FA012803461CD1104A944219D195F8DC
S214000F702B2041F28830062A28BF04230C4A03A9F6
S214000F80137012F01BFB034630B9CDE90000094A86
S214000F900399094812F0E7FC0123084A137005B0CC
S214000FA030BD054812F0BAFA0023F6E7B84401004F
S214000FB04F260020B90A0000B01200204E2600205E
S214000FC01FB5094B094A1868094B01A91860094B57
S214000FD01360094A0192094A1268CDE902230FF00C
S214000FE016FA05B05DF804FBD4290020C0200020C6
S214000FF0C4200020C82900207E440100D41500200B
S21400100038B505F045FB0446064D2B68D3F8B0020C
S21400101005F032FB28680FF00EFA2046BDE838408F
S21400102005F02ABBD429002008B5044812F041FC7C
S214001030BDE80840024800F0DFBC00BF08480100D9
S214001040D8290020064B1B681A7A022A04D812B147
S2140010501B68044A13607047032AF9D0704700BF24
S214001060EC290020D415002070B51D4DA0B00AACA8
S2140010700FCD0FC495E8070084E8070000244FF45E
S21400108080136E46CDE901440394009311AD0FCE54
S2140010900FC5144BCDE906442B60134B089416ADD0
S2140010A005AE05930FCE0FC5104B20222B60104BBC
S2140010B011A91B9340F20113CDE91C230D4B0AAA7C
S2140010C01F930D480D4B1E9405F002FB0546214666
S2140010D04FF4E1300EF07AF9284620B070BD00BF1C
S2140010E0984401003400035A010010003C00035AE3
S2140010F050260020002A00208C160020D81500203C
S21400110001480FF099BD00BF8C160020014B1868EF
S214001110704700BF142A002030B5002589B01F4B49
S2140011201F4904A8CDE905550795049307F004F96F
S2140011301C4C206000B9FEE729461B4A07F008FB56
S2140011400621206804F06CFB00B1FEE71749206812
S21400115007F02AFB00B1FEE708220023CDE90023B2
S2140011604FF0FF324FF0FF33206811F06BFB00B1F9
S214001170FEE70F4B20681B8802A9ADF80830ADF8D3
S2140011800C3011F047FB00B1FEE7206803A911F010
S21400119057FB00B1FEE709B030BD00BFBFEB000053
S2140011A0A1EB0000142A0020ABEB000007001100A2
S2140011B0B444010001480EF06FB900BFB844010006
S2140011C001480EF0E8B900BFD04401000378427829
S2140011D0C3F3420343EAC203DBB20C2B32D9242BFF
S2140011E009D84B221A4912FB03130A22B3FBF2F367
S2140011F003F178007047732B09D89622154912FB25
S21400120003130A22B3FBF2F303F596707047942B90
S21400121009D8E022104912FB03130A22B3FBF2F3AB
S21400122003F2C6507047C52B0ED840F2C71202FB19
S21400123003F00A23A0F58430CE38B0FBF3F000F6B6
S214001240B30070477120704741F26710704700BFC7
S21400125036FCFFFF57EAFFFF859AFFFF08B50348F5
S21400126012F027FBBDE808400DF051BC084801000D
S214001270014812F01EBB00BF0848010007B5082051
S2140012800EF072F90222064B6846CDE900230EF0F6
S21400129061F8082003B05DF804EB0EF070B900BFEB
S2140012A0006A18100348044A0449121A92100EF0F5
S2140012B09CB800BF4001000018030000D42700209F
S2140012C008B5154B83F30A8800F030F8FFF7EAFFFD
S2140012D0124B13498B4212D30020124B12498B42F9
S2140012E018D3FFF7AFFB186850F82240586840F84C
S2140012F02240013298688242F5D30C33EAE7002296
S214001300F8E71C6844F8220001325C68A242F8D371
S2140013100833E4E70022F8E700000020CC9601003E
S214001320D8960100D8960100D89601004FF40041E7
S214001330134B144A70B59A60D3F88820124D42F4C5
S2140013407002C3F88820114A05F5005491664FF0E4
S214001350FF3222664FF6DF7262660222C3F8D020A2
S214001360BFF34F8FBFF36F8F4FF44036032005F067
S21400137075F90320E66005F055F92E6170BD00BFD3
S21400138000ED00E0000000000080004400900050E7
S214001390014B1860704700BF1C2A0020054B1860E0
S2140013A0054B1B6F03F00703032B01D111F00EBF93
S2140013B0704700BF242A002000800050BFF34F8FE4
S2140013C00549064BCA6802F4E0621343CB60BFF3DC
S2140013D04F8F00BFFDE700BF00ED00E00400FA05F8
S2140013E070B5D0B1C9B10E4E431E013913F8014F86
S2140013F02046325D02F00302012A11F8012F08BFD1
S21400140004F12000B55C05F00305012D08BF20326D
S214001410801A01D1002CE9D170BD0120FCE700BF85
S214001420C395010030B5056887B0AB8804461848F8
S214001430ADF80C3012F03DFA0022012103A800F0AE
S214001440FDF80DF10B0103A800F0B2F99DF80B3082
S21400145083F001032B70AB79022B15D14FF0FF33CD
S2140014600022CDE9043304A90A4B009403A800F037
S2140014704FFA049B009401330CBF04220122054B53
S21400148005A903A800F0C2F9002007B030BD00BFD0
S21400149008480100ADF40000002307B52948019371
S2140014A012F007FA4FF44073012204216846ADF8A3
S2140014B0003000F0C3F80122234B0520C3F8442473
S2140014C001A912F0F1F9002839D1204BD3F8F02009
S2140014D042F00102C3F8F020D3F8FC2042F08072FC
S2140014E0C3F8FC201A4AA3F55D431A60019B194A0B
S2140014F003F5D52303F2FC43B3FBF2F3164A013B94
S21400150013610223C2F8F0304FF48073C2F804333C
S2140015104FF06043114AC3F8B02F114AC3F8802E2B
S214001520D3F8002E42F48072C3F8002EFF2283F810
S2140015302020D3F8002E22F48072C3F8002E03B0C9
S2140015405DF804FB0848010000D0035000ED00E001
S214001550FF030040F8590D00000004E055CEACC56E
S214001560090001004FF06043D3F8802E30B5D20753
S21400157015D501240B4D8440D5F8FC2042F080722E
S214001580C5F8FC20D3F8002E2243C3F8002E53F8EB
S2140015902020002AF0D003F82010002030BD1120B3
S2140015A0FCE700BF00ED00E02DE9F04104460C2505
S2140015B04FF00108124E0CB314F001000BD00020BF
S2140015C024F0010405FB00625768002FF3D09168F1
S2140015D0C0B2B847EFE72246013020284FEA520251
S2140015E001D0D307F8D508FA00F20F2824EA02043F
S2140015F0E8D9103805FB0062B432E5E7BDE8F081B3
S214001600A816002008B50C4812F053F9192005F06A
S21400161017F828B1192005F021F8192005F002F86E
S2140016201A2005F00DF828B11A2005F017F81A2030
S21400163004F0F8FF002008BD084801002DE9F0413D
S2140016400E461746054610B30F2922D80378DBB19D
S214001650013BDBB2022B1CD8104AD35C6A78D3401D
S214001660DB0716D50E4BD3F81043A4B912F008F9D1
S21400167080463A462846314603F0ACFE404612F015
S214001680FAF82046BDE8F08140F2FF13E6E7222490
S214001690F7E72124F5E70224F3E700BFE84401005A
S2140016A000C0035010B5044608B30378E3B1013B0D
S2140016B0DBB2022B1DD8104AD35C6278D340DB071E
S2140016C017D512F0DDF80122617823788A403021A0
S2140016D04B4341F2100103F1A04303F570335A5017
S2140016E012F0C9F8002010BD40F2FF13E5E72220F3
S2140016F0F9E72120F7E700BFE844010010B50446EB
S21400170008B30378E3B1013BDBB2022B1DD8104AC5
S214001710D35C6278D340DB0717D512F0B1F801220C
S214001720617823788A4030214B4342F2100103F15E
S214001730A04303F570335A5012F09DF8002010BDF8
S21400174040F2FF13E5E72220F9E72120F7E700BF84
S214001750E844010038B50D46044610B309B30378D3
S214001760E3B1013BDBB2022B1DD8104AD35C627892
S214001770D340DB0717D512F083F830222378534383
S21400178003F1A04303F570331B696278D34003F07E
S21400179001032B7012F06FF8002038BD40F2FF13E3
S2140017A0E5E72220F9E72120F7E700BFE84401003B
S2140017B038B50D46044610B309B30378E3B1013BD0
S2140017C0DBB2022B1DD8104AD35C6278D340DB070D
S2140017D017D512F055F830222378534303F1A0436F
S2140017E003F570335B696278D34003F001032B7016
S2140017F012F041F8002038BD40F2FF13E5E7222042
S214001800F9E72120F7E700BFE84401002DE9F041A1
S2140018100D46164698460446002851D000294FD05B
S2140018200378002B42D05A1ED2B2022A03D9FF2BCD
S21400183007D0212042E0234B9B5C4278D340DA0756
S214001840F7D5022E01D9042EF3D112F019F8237819
S2140018500746FF2B05D032462046296803F000FED7
S21400186028602B68013309D12378FF2B06D1164B4D
S2140018706078D3F824140EF0F6FC286029684B1C18
S21400188018D00C23114A03FB0122069BC2F80480E1
S21400189093602378FF2B04D001230D4A8B40C2F8B7
S2140018A02434384611F0E7FF002007E040F2FF132B
S2140018B04278C3E7384611F0DEFF2D20BDE8F08100
S2140018C02220FBE7E844010000C00350A8160020D1
S2140018D000D003500F2810B5044613D811F0D0FFDF
S2140018E00123094AA340C2F82034C2F824340C224B
S2140018F0064B02FB04330024C3E9014411F0BBFF8E
S214001900204610BD2120FCE700E00350A81600206A
S2140019102DE9F0410D4690461F460446002842D069
S214001920002940D00378002B33D0591EC9B20229B3
S21400193003D9FF2B07D0212033E01C4B42785B5C99
S214001940D340DA07F7D511F09BFF23780646FF2B26
S21400195005D042462046296803F008FE28602A681B
S214001960531C1AD00C23124903FB0211069BC1F824
S214001970B870C1F8BC302378FF2B05D00123103295
S21400198093400C4AC2F82434304611F074FF00200D
S21400199007E040F2FF134278D2E7304611F06BFFC3
S2140019A02D20BDE8F0812220FBE700BFE8440100BF
S2140019B0A816002000D0035008B503F0F1FC054B34
S2140019C000F0553020F05020C3F82004BDE8084051
S2140019D0FFF7EABD00E0035008B503F0E1FC054B55
S2140019E000F0AA3020F0A020C3F82004BDE808408C
S2140019F0FFF7DABD00E0035070B503682B4A0446D3
S214001A00934286B04ED02A4A934249D101252948AE
S214001A1011F04FFFA3880122ADF80030E3880A21B9
S214001A206846ADF80430FFF709FE01220A2101A836
S214001A30FFF704FE0A266846FFF760FE642005F0FE
S214001A40EFFA6846FFF72EFE642005F0E9FA013E3D
S214001A50F1D103212B0103F1A04202F57032C2F846
S214001A6090146079217903F1A04341EA0041C2F85D
S214001A709414E179A27903F5703342EA0142C3F87F
S214001A80982440F20113ADF80830E3682068049308
S214001A90A36802A90393237C8DF8143003F074F92D
S214001AA006B070BD00250448B2E700BF0000015A2A
S214001AB000800650004801000448010038B505467D
S214001AC003F09EFA044C012801D1013C00D138BD38
S214001AD0284603F07BF9F6E7E193040013B50446C5
S214001AE00A4811F0E6FEA2780421B2FA82F22378C0
S214001AF052098DF8043063780DEB01008DF805303F
S214001B00FFF79CFD002002B010BD00BF0848010092
S214001B102DE9F04F9A46564B85B01B7806460F4681
S214001B201546DDF83C909DF844B0DDF85080002B5B
S214001B3000F09780072A00F296800E9B002B00F09C
S214001B409280B9F1000F00F08E80129BB3F5006F03
S214001B5000F38980012803D1109B002B00F08380BE
S214001B60444B03EB05131B7B002B7ED0424C10220C
S214001B700021684611F0CAFA04EB45141022A7BBF0
S214001B803946204611F0C2FA43F210036380BBF1D7
S214001B90000F03D1E37843F00303E370364A0E9B4D
S214001BA002EB451CCCE90193129B6901581E9DF877
S214001BB04C30C0F30A0003F003039B0643EA001E02
S214001BC053582E48012E00EA03004EEA0003CDF8D3
S214001BD000A0535017D0B8F1000F2ED19CF8023059
S214001BE068F304138CF8023027E00021204611F039
S214001BF08DFA4FF444736380BBF1000FCED1E378C7
S214001C0043F03003C9E713230CF1100ECCF80C3068
S214001C109CE80F008EE80F006FF00301DCF81C2034
S214001C20109B61F39F02012FCCF81C20CCF81430D7
S214001C3003D1CCF81890CCF8043000270D4A2901BF
S214001C4002EB051342F80180159A28465A60694649
S214001C5022469F605E7303F06DFA384605B0BDE815
S214001C60F08F0748FAE70748F8E70748F6E700BFA7
S214001C707026002010190020101800200F80FFF397
S214001C80028000F0018000F0078000F038B5124BAB
S214001C9005461B78DBB1E0B111F0F2FD0F4A0023D8
S214001CA01146147B54B92B6001251A0101EB03136E
S214001CB01D738C5011F0DFFD204638BD0133082B14
S214001CC002F11002EDD111F0D6FD0548F5E7054802
S214001CD0F3E70548F1E700BF702600201019002042
S214001CE0048000F0028000F0018000F038B511F0AA
S214001CF0C7FD002305460B4A147B6CB90133082B3D
S214001D0002F11002F8D103F0C1F9074B28461C7007
S214001D1011F0B1FD204603E0284611F0ACFD034863
S214001D2038BD00BF1019002070260020058000F086
S214001D300D4B10B51B78044693B1072812D811F046
S214001D409FFD0A4B03EB04131A7B2AB100241C7375
S214001D5011F091FD204610BD11F08DFD0448FAE704
S214001D600448F8E70448F6E770260020101900201B
S214001D70068000F0028000F0018000F0154B13B5DD
S214001D801868002301908DF8043011F079FD124B8D
S214001D901C7824B111F06FFD104802B010BD01226E
S214001DA01A7011F068FD0E4B01A81C731C7783F89F
S214001DB02C4083F83C4083F84C4083F85C4083F822
S214001DC06C4083F87C4008238DF8073003F082F9D6
S214001DD02046E2E7EB44010070260020038000F076
S214001DE010190020F8B50D4D2D7885B1072810DCA8
S214001DF00B4D060105EB0014277B67B1AB510025A0
S214001E00069BA560636003F095F92846F8BD054873
S214001E10FCE70548FAE70548F8E700BF702600200B
S214001E2010190020028000F0018000F0078000F00A
S214001E300A4A08B512785AB107280BD8084A02EBA6
S214001E4000131B7B43B1002103F036F9002008BDC8
S214001E500448FCE70448FAE70448F8E77026002040
S214001E6010190020028000F0018000F0078000F0CA
S214001E700A4A08B512785AB107280BD8084A02EB66
S214001E8000131B7B43B1012103F016F9002008BDA7
S214001E900448FCE70448FAE70448F8E77026002000
S214001EA010190020028000F0018000F0078000F08A
S214001EB0184B2DE9F0411F6D5B6D1F4000D5FEE706
S214001EC001260025144CDFF85880374218D02368C6
S214001ED0C8F85060A3B1A168284601316268A160C5
S214001EE09847637B012B0BD150B90C4B03EB451382
S214001EF01A7B60F341021A731A7F60F341021A7765
S214001F000135082D4FEA460604F11004DDD1BDE880
S214001F10F08100BF000004501019002010180020A7
S214001F20002004502DE9F04F144605460E469B4609
S214001F30C36B87B001225B6902A960689847EB6BA8
S214001F4001225B6903A93046984702A80DF0DBFF23
S214001F50074648B10023A37563754FF0FF33A360AF
S214001F60002007B0BDE8F08F03A80DF0D9FF0123CD
S214001F70A375237E04EBC303DE611F846368B3424C
S214001F800ED1206003A80DF0EDFF4FF0FF33207553
S214001F90A360237D043B022B26D80023A375DFE72E
S214001FA023681A1A53425341A37503A80DF0DAFFAB
S214001FB0237D834218BFA77503A80DF0B5FF07461B
S214001FC002A80DF0B1FF874218BF002303A818BF70
S214001FD0A3750DF0B1FF074602A80DF0ADFF8742CE
S214001FE01CBF0023A375D4E703A80DF09DFF80B1A6
S214001FF0EB6B022230465B6904A9984704A80DF0F3
S214002000A2FF0346207D032839D8DFE800F03838E1
S214002010040903A8F3E7CC22237E04EBC3031A8447
S21400202001F070FA109B187003A8277E0DF070FF61
S21400203004EBC70787F82200237E03A804EBC3033C
S214002040B3F8209093F822700DF06EFF804603A838
S2140020500DF072FF8246B8F1000F15D0EB6B02222E
S21400206030465B6904A9984704A80DF031FF6075F7
S214002070637D6BB90023A3754FF0000838E0227E1D
S21400208004EBC2021384CBE703A80DF00CFFEEE7C7
S21400209094F81680B8F1000FEED0B9F1000F09D110
S2140020A0DFB10123E375637E002B4FD1012F42D1B0
S2140020B0677614E06B6C06EB0A02594286EA020069
S2140020C008421CBF0021A175591E0A409B1A99455B
S2140020D0D0D8A37D002BE3D1CEE7E37D43B94FF004
S2140020E000084B465246314628460DF0F8FBA060E5
S2140020F0A27D12B123694B4423611A49237E0978D5
S21400210099422AD901332376BBF1000F27D032B388
S214002110E37D23B3B8F1000F21D1032F1FD0A168B0
S2140021204B1C1CD0109B2246009328460123FFF729
S214002130F9FEA07513E095F8343063B9EB6A013305
S214002140CFD1032FCDD10123A376C8E7012FCFD05F
S214002150032FC4D1F7E79846C3E70023A375A07DF5
S214002160FFE600BF104501002DE9F04F0E469846E9
S21400217000238BB004464FF0FF31104617468DF80B
S214002180133001F0A9F9B6F5801F3BD3B21C53D12A
S214002190E56A6B1C57D12046616A0DF0E6FA0546E3
S2140021A0B31C18BF0123DFF810910193636A626CB9
S2140021B00293236805A902FB053AE36B05225B69D7
S2140021C05046984705A80DF039FF0DF05CFF5046C5
S2140021D00DF064FF4FF0000B824601464B1C05D005
S2140021E0636C81EA0A025B42134232D029462046DB
S2140021F00DF0BBFA029BAB424DD0BBF1000F4DD1A8
S2140022000546D3E7314605AA04F108000DF0CDFDDA
S2140022100146481C10D0384601F05EF901223946C6
S21400222020460DF113030DF0ACFB28B19DF81330DA
S21400223088F80030002003E0237C002BA8D12D2056
S2140022400BB0BDE8F08F2368ED1A636CB5FBF3F5B1
S214002250A6E7484601F040F90DF11303494620462B
S214002260019A0DF08EFB034690B1B21C03D0D9F84C
S2140022700020B2420CD19DF8132003930D4B88F832
S214002280002049461A68384610F064FF039B9B46B8
S214002290D9F80810A2E7BBF1000FD0D0B6F5801F22
S2140022A0C8D2314698F800307A6804F1080001F088
S2140022B041F8BFE70C450100042000202DE9F3415A
S2140022C00446174698460E46194D816AE36A8B42C5
S2140022D02AD04B1C18E0284601F0FEF801222946B9
S2140022E020460DF107030DF04CFB30B1434629465E
S2140022F020469DF80720B847B0B1A9684A1C05D00B
S214002300012E0AD0E36A9942E5D10DE069682046BD
S2140023100DF0B8FA012E0146D8D16B6881EA0302A7
S214002320636C5B421A42D1D002B0BDE8F08100BFB8
S214002330D81F00202DE9F04F4FF0FF334FF6FF7205
S2140023400025044600F10806C0E909238BB0C362E5
S2140023500562056330460F460DF0F8FC20460DF08A
S214002360D4F920BB204639460DF04FFA20460DF032
S214002370CCF920BB5E200BB0BDE8F08FE26B236883
S214002380606CD2F814C000FB0530052205A9E047B2
S21400239005A80DF053FE012828D1294620460DF049
S2140023A005FA421C294620460DF0CEF90135E369B0
S2140023B09D42E3D320460DF0A8F90028D2D0002590
S2140023C04FF0FF394FF6FF73CA46A846C4E90853D4
S2140023D0E369984514D3A5EB0905012D36D84FF6C9
S2140023E0FF72636A934246D16720C4E70DF050FE41
S2140023F00028DBD0294620460DF0D8F90246D1E762
S2140024002368E26B606C576900FB0830052205A95B
S214002410B84705A80DF012FE834605A80DF0E5FDA9
S214002420074658460DF02FFE68B1574538BFC4F82A
S2140024302480B94528BFB946BD4238BF3D46BA4696
S214002440236A0133236208F10108C1E74FF6FF73E0
S21400245000256362E3699D42C1D2676C2068E36B26
S214002460052207FB05005B6905A9984705A80DF03E
S214002470BCFD0135EEE7E26B676C2068694607FB3A
S214002480030055690522A84768460DF0AEFD626A4E
S2140024902368606C4B4D00FB02300DF0FFFD4FF0E3
S2140024A0FF33A062E3622A466FF00101204605ABC7
S2140024B0FFF75AFE002846D1AD6829462046E56259
S2140024C00DF0FFF8206320B92046E16A0DF0DAF936
S2140024D0E062294620460DF0D5F90546A36A9D42DE
S2140024E033D120460DF0C0F800278046B946E36990
S2140024F099453CD3B84559D92046616A0DF035F95F
S2140025000026054604F1400AB74212D8626C2368DA
S214002510694602FB0539E36B05225B694846984726
S21400252068460DF062FD534602464946E06B0DF0E4
S214002530B7FD294620460DF018F90136B045054688
S214002540E2D1642017E7A56AB7E7294620460DF0D2
S214002550B8F8236B294603440746236320460DF04C
S21400256091F90546002FB9D1C4E90B07B6E7636CAD
S2140025702568052203FB0955E36B05A95B69284618
S214002580984705A80DF05AFD0DF07DFD58B1284678
S2140025900DF084FD014620460DF093F8636C143B65
S2140025A0984208BF013709F10109A0E730460DF04F
S2140025B0CDFB002320461946034AFFF77FFE002086
S2140025C0D9E600BF3020002071F900002DE9F04167
S2140025D0036B9046826B07689A4288BF8363426C9F
S2140025E0436A90B002FB0377C36B0E46052201A92F
S2140025F05B6904463846984701A80DF01FFD012880
S2140026000146307057D0656CE26B2368606AD2F87A
S21400261014C005FB0030052206A9E04706A80DF009
S2140026200DFD01284FF0000523D0D4E90A32012120
S2140026309342CDE90B458DF834800E958DF83C100D
S2140026402AD1194620460DF01DF9236B626C14330F
S2140026509B1AE06223630C9B53B99DF83C303BB158
S214002660626A616C2368E06B01FB02310DF09EFC30
S2140026700C9DE36B05225B6901A93846984701A8C3
S2140026800DF0DCFC30702846236BA26B9A4288BFA4
S214002690A36310B0BDE8F081237C33B91C490BAAB4
S2140026A004F1080000F094FED5E72046194A0BAB6B
S2140026B0FFF704FECFE7237C23BB2246164904F12E
S2140026C0080000F085FE616A20460DF06FF8616A2A
S2140026D0421C20460DF038F8054620B9236B626C84
S2140026E01344143B23632046A16A0DF0CBF82368FD
S2140026F0A062C01A636CB0FBF3F0606220460DF077
S21400270004F9B6E700232046044AFFF7D7FDDAE7C8
S214002710412E0000BD2D00000BFA0000A7F90000B6
S21400272073B50D46D11E4A421C461B7E4A419A424C
S21400273026D129682368994222D3636899421FD814
S214002740114E0DF107033246FFF70EFDC0B9726851
S2140027506B689A4214D19DF80730DA1E53425341F3
S214002760227E93420CD1636901336361D4E903236B
S214002770934205D22968A26842F8231001332361E8
S214002780012002B070BD00BF302000202DE9F04FC0
S2140027909A468BB09DF85030DFF850B10293DBF8C4
S2140027A01030804653450D461646C0F09980D146F7
S2140027B0DBF804300193B9F1000F00F08D80D8F8F3
S2140027C03C3001225B6907A90198984707A80DF0DD
S2140027D0A7FBDBF80030984240F0858007A80DF094
S2140027E0ABFB0428074614D107A80DF0ACFB019BF1
S2140027F0029A04463B44002A3FD1864212D9144628
S214002800361A404601990DF03DF8A9EB04090190EF
S214002810D1E7D8F83C3002225B69019808A99847AE
S21400282008A8E2E7841B544528BF5446032C03EB54
S2140028300607AAEB040A4FEA94021CD9D8F83C30E3
S214002840294638465B69984724F0030304F00306DC
S2140028501F441D44002ED4D0D8F83C3001225B69BA
S21400286008A9384698473246284608A9354410F045
S21400287071FC0026C5E72646ECE7074600F0030293
S214002880039203442A1804920593049BDD1B059BC0
S214002890D81B039B9F420FD1002FB2D0D8F83C30F4
S2140028A0012208A95B6998473A46284608A910F00D
S2140028B003FC78B93D44A4E7D8F83C30012208A9C7
S2140028C05B6998470422284608A910F0F5FB08B96A
S2140028D0043FDAE74FF0360948460BB0BDE8F08F04
S2140028E04FF06309F8E74FF06F09F5E75C2000202A
S2140028F02DE9F0410F4616469846044688B060B368
S21400290090F83450FDB101210CF0F4FE00210E9B2E
S214002910CDE90511CDE902379DF83C30CDF80480AD
S2140029208DF81C30237C04968BB90D4901AA04F15E
S214002930080000F04DFDDDE90553E06B002E08BFF2
S2140029401D460DF070F8284608B0BDE8F081204618
S214002950044A01ABFFF7B2FCEDE70546F3E700BF1C
S214002960D5F90000212700002DE9F04F99B00F4659
S21400297009920A69416C0E931439D31DB3FBF1F327
S214002980013302EBC302036B04469342C0F0B381EB
S2140029900023DFF824940D93E36A4846194607930C
S2140029A000F09AFDD7E9033604930E9B022B4ED116
S2140029B0CC2E40F08A81099B002B42D03946204617
S2140029C00DF08FF8656C079A6B1E13401490ED1A85
S2140029D0E36B01225B6916A97868984716A80DF084
S2140029E0A3FA00280CBF04230823782E06933DD9AB
S2140029F0012300254FF0080A05933B6805990E98B9
S214002A00C9F80030C9F810600DF0B0FA4FEA9A0322
S214002A1010930023DDF81CB089F814000B930F9375
S214002A2008930C93616C4A1E0BEA02028B1A002E66
S214002A3038D05544AB4240D8236B5B1A134423630B
S214002A40ABE0049B1B68149308230693D0E7656CE1
S214002A50079A6B1E1340782EA5EB030516D8FB7D50
S214002A607BB9099B002BB3D104230693331DAB42DD
S214002A7010D9A6B1082DBBD804250023AA46059375
S214002A80BBE7099B002BA3D10823EEE7099B002B8D
S214002A909ED1D9E7002505954FF0040AADE7042539
S214002AA00596F9E75345C7D3B0460BEB0A030393E5
S214002AB0089B002B18BF032313E0A3EB0A039E42D8
S214002AC0B0460BEB0A0228BF98469E420392EFD907
S214002AD00123D9F8102089F81730964271D1C9F829
S214002AE004B0089399F81730002B6CD099F818208A
S214002AF00899D31C09EBC3030132C3F804B0A3F84A
S214002B000880997289F81820B8F1000F14D00E9B2F
S214002B10022B5BD10B9B7BB90F9B4344032B0BD93A
S214002B20E36B01229B69039814A998470546002881
S214002B3040F0E38001230B93089B16A80193059BA6
S214002B40009399F814204346396800F07BFCE36B49
S214002B5058469B69109A16A99847051E0D9B18BFE4
S214002B605B4652460D935946434620460CF0B7FE48
S214002B70236B08F10302A3EB0A0322F003029B1A5D
S214002B80C9F808002363002D40F0B7800F9BDDF8DE
S214002B900CB04344A6EB08060F93594620460CF0AB
S214002BA071FE00258346002E7FF43CAF824A3968CA
S214002BB0936804F10800E36252680E9B00F0BAFBCB
S214002BC084E002238DE7C9F804B09DE7099B002B3B
S214002BD030D1049BB8F1030F43440A9327D9DDE9AB
S214002BE00301E36B4FEA98029B6998470546002865
S214002BF065D118F003025FD0049B28F003052B4430
S214002C000493039B1D444FF0FF33049915A81593B6
S214002C1010F0A0FAE36B28469B69012215A9984795
S214002C2005460A9B0493002D86D0039B99E74246EF
S214002C30039DE8E7039B0A9307F120031193FB7DAE
S214002C4078689BB100233D7E0C9AD9B28D4211D98B
S214002C50119903F1010C31F83310914226D90699E7
S214002C6007EBC303D8690A44104403E00C9B069A9A
S214002C7013441844E36B01225B6915A99847159B1A
S214002C80012213930C9B0A9804330C93E36B13A94D
S214002C909B699847039B0A9A43449B1A042B054654
S214002CA007D978B9134604330A93C8E76346521A1D
S214002CB0CBE70A9B0393B6E70A9B04933CE70A9B81
S214002CC00493B2E70A9B0393AFE77026304619B029
S214002CD0BDE8F08F4FF0000A4FE03A69616CD31DF3
S214002CE01439B3FBF1F3013302EBC302236B9342B7
S214002CF0BFF452AE5DE01C26E8E73D2D59D104F145
S214002D00080303932368079A606CA2EB030ABAFBD6
S214002D10F0FA00FB0A300DF0C1F9E16A8046204661
S214002D200CF0B0FDA26A8242D7D0626CD9F80830A7
S214002D30511E0B40216B2668891A0B4423630D9B9A
S214002D40E0629E1BB6FBF2F6B245C3D1079BB3EB1F
S214002D50080A12D0E36B4FEA9A0241469B699847ED
S214002D608346E36A079A5344E362236B03989B1AED
S214002D70434423630CF0EAFFDA462368616CE06B99
S214002D8001FB06310DF0FFF820460CF0BEFC204695
S214002D900CF0BBFD2063BAF1000F9ED03A69616C5F
S214002DA0D31D1439B3FBF1F3013302EBC302904297
S214002DB0A8D22E468AE700BF04200020032A2DE969
S214002DC0F34106460D4617461C4606D1237A012BCC
S214002DD023D0012002B0BDE8F081DFF860800968EA
S214002DE042460DF10703FFF7BFF960600028EDD1FA
S214002DF09DF80720237A032AE8D0D8F804106A68DA
S214002E009142E3D1012B2969D4F80CC007D172692D
S214002E100CEB0103934202D92074207CDAE70831D8
S214002E206144E1603B46012229463046FFF79CFD9F
S214002E3060600028CAD00020CCE700BF3020002009
S214002E402DE9F341089C032A1746266806D1237A03
S214002E50012B24D0012002B0BDE8F081DFF890807D
S214002E60304642460DF10703FFF77EF96060002802
S214002E70EDD12568D8F80400A96AD5F844C04840C2
S214002E80CCF100031840227AE1D1012A09D1E26888
S214002E90D8F8103013447269934202D92074207C0B
S214002EA0D9E72868EB6A1B1A081AB3FBFCF3B0FBD9
S214002EB0FCF083420BD1706CF36A421E1340326BF7
S214002EC0121A1344284633630CF0DCFCE862D8F888
S214002ED01020E36808321344E36001223B460449AD
S214002EE02068FFF741FD60600028B0D00020B2E700
S214002EF0302000202DE9F0410025634B0E46D3F824
S214002F00008004461D6018B921252846BDE8F081DA
S214002F1090F8347007B30A6803689A4240F0AA80B3
S214002F204A6843689A4240F0A5808A6883689A4255
S214002F3040F0A080CA68C3689A4240F09B800A6945
S214002F4043699A4240F096808A69C36B9A4240F081
S214002F5091804B698361D8E768223946856B10F00B
S214002F60D5F8D6E90212336804F1080023607368C6
S214002F70A5636360336963617369A3610CF0F8FE4F
S214002F80B36904F14000E3639B68984720B9676C17
S214002F9017B16368B3FBF7F794F84330E761002B8B
S214002FA0B2D00023656C2366002D6BD0002F69D04D
S214002FB02368B3FBF5F205FB1233002B5CD1676880
S214002FC0B7FBF5F605FB1676002E55D120460CF01D
S214002FD068FBA369043303449F424FD340F6347220
S214002FE06369CC3B93424BD8B5F5805F4AD3032147
S214002FF020460CF07FFBD4E90001E36B1B68984782
S2140030000546E36B0220DB6898472DB184F83460F0
S214003010E06B0CF008FD78E741462046FFF78AF99A
S2140030206428054604D141462046FFF783F9054645
S214003030636C143BD5B9226A204602FB03F60CF0FB
S21400304030FBA369043303449E4203D284F8345011
S2140030505A25DDE70123D4E900010C4A84F8343010
S2140030601368013313600CF01DFFD1E7002384F8CA
S2140030703430CDE75D2548E7592546E75A2544E72D
S2140030805F2542E75B2540E7941900209019002051
S2140030902DE9FF410C4616461F46054680B390F8BC
S2140030A034307BB3B1F5801F2ED2DFF8608001216B
S2140030B00CF020FB2146424628460DF10F03FFF791
S2140030C053F8044670B99DF80F30012B11D1D8F88B
S2140030D01030BB4212D10246009031462846FFF718
S2140030E055FB0446E86B0CF09EFC204604B0BDE899
S2140030F0F081022B14BF2D246024F3E76324F1E74C
S2140031002124F2E71124F0E72924EEE75C200020D2
S2140031102DE9F3411F4600230C46164605463B6044
S21400312050B390F834304BB3B1F5801F28D2DFF897
S214003130548001210CF0DEFA2146424628460DF165
S2140031400703FFF711F80446A0B99DF80730032BD4
S21400315010D0022B0AD10123336004233B60E86BB6
S2140031600CF061FC204602B0BDE8F081D8F81030C3
S2140031703060F3E72D24F2E72124F3E71124F1E78A
S2140031802924EFE75C20002073B50446056B0CF09D
S21400319088FA636E03449D422CBF002301238542B8
S2140031A094BF00252D1A207C84F85030656584F87D
S2140031B05800A8B100230C4E1A4619462046009621
S2140031C00CF05CFD002305461A461946204600967C
S2140031D00CF05DFDE3682844984294BF0020C01AB6
S2140031E0E06502B070BD00BFFFFF0F002DE9F3479A
S2140031F01E4643690446B342884617469DF8289003
S2140032004ED300258DF8075020460CF04AFAD4F825
S21400321030A082450AD2236AB5EB430F06D20022BD
S21400322020460DF10701FFF7D1F9B8B39DF8073036
S214003230012B05D1002220460DF10701FFF7C6F944
S214003240B9F1030F06D0314620460CF01AFA256B6A
S214003250854227D3144D4FF0FF31284600F03CF945
S2140032604B46294600222046C5E90376C5F800806D
S214003270FFF77AFB236E054663B12046FFF784FF0F
S21400328094F8503013B994F858301BB1236E04F1FB
S21400329050009847284602B0BDE8F0870135B3E7EE
S2140032A06225F7E71C25F5E7302000202DE9FF41D1
S2140032B00F4690461E46054698B390F8343093B3B2
S2140032C0B1F5801F31D21A4C02210CF013FA2246B7
S2140032D0394628460DF10F03FEF746FF024678B141
S2140032E0012342460093394633462846FFF77EFFC1
S2140032F00446E86B0CF097FB204604B0BDE8F0816E
S2140033009DF80F30012BEBD12169B142E8D1009333
S214003310414633462846FFF739FA04460028DFD1EF
S214003320E7E72124E8E71124E6E72924E4E700BFDD
S2140033305C2000202DE9F043466886B30568984671
S2140033404FF0000CA946AE4655F83C400CF1010C77
S214003350C4F31307013401D0B94217D066450EF105
S214003360080EF1D12F46002403E0A64207F1080715
S21400337012D055F8343001340133F6D1C1F31301BD
S21400338041EA0851C7E90012BDE8F08341EA085156
S214003390CEE90012BDE8F083B8F1030F03D1012394
S2140033A00372BDE8F083002303E09E4209F108099A
S2140033B0F5D055F833400133C4F30754032CF4D149
S2140033C0C1F3130343EA0853C9E90032BDE8F083AA
S2140033D02DE9F0410646406882B0C0B10F469046DF
S2140033E00024336853F8345003EBC403C5F3075284
S2140033F0C5F31301013504F1010406D05B683046BD
S214003400CDF80080B84710B170688442E9D302B0A6
S214003410BDE8F081024B1968024B1868FFF76ABDD9
S214003420282A0020482A002008B510F020FA014B70
S214003430186008BD88200020014B186810F012BAEA
S2140034408820002073B504462248012A00EAC111EC
S2140034509DF8185023F07C4007D9961E012E28D9D7
S214003460073303F07F03194308E09DF81C300A4336
S214003470DB0603F0C053134343F060410023C4E966
S21400348000108DF80730B5B1202221460DF1070057
S2140034900CF020FE1A220DF10700211D0CF01AFE7A
S2140034A0082063689DF8072043EA8263636002B0E1
S2140034B070BD1143E2E71B220DF1070021460CF018
S2140034C009FE23689DF80720042043EAC2632360B0
S2140034D0EDE700BF80FFFF0738B5094B0D461A68B9
S2140034E0002104460FF012FE00234FF0FF32238324
S2140034F0C4E900252361A260E382A37638BD00BF3D
S2140035000C4501000138C0B205289ABF014B185C73
S21400351001207047114501002DE9F0410746154688
S21400352000240E46596888B0490A012922464FEA07
S214003530510104F10104F8D8DC78997824031B883B
S214003540C90201F4006104F480540C43C3F30A0377
S2140035505203234492B24FF000089C18274B6FEAA0
S2140035600444039325F07843ED4302A90DF10700C8
S2140035701B2202938DF807800CF0ACFD9DF8072007
S214003580029B02A943EAC2630DF107001B2225F045
S2140035907845049302958DF807800CF09BFD9DF806
S2140035A00720029B6FEA144443EAC26305934FF078
S2140035B0FF330794069307A9BB69012206F11000A2
S2140035C09847BB6905A90446012206F108009847FA
S2140035D0BB69404518BF044604A90122301D984720
S2140035E00122404518BF0446BB69304603A99847E8
S2140035F0404508BF204608B0BDE8F08101009AB2F9
S214003600034B5A6812B19A6A002AFAD1704700BF73
S21400361000400650024A936A0342FCD1704700BF3E
S21400362000400650436870B5B3FA83F3104DC3F1FB
S2140036301F046B6801460BB1FFF7E2FF01260D4B36
S21400364020205E60FFF7E6FF0A7A4B7843EA4203E3
S21400365043EA04134A7AAB608B7A43EA42036B620E
S214003660054B5E600B7813B1FFF7CAFFEE6070BDC6
S214003670004006500060065000500650124910B533
S21400368004462020FFF7C6FF4B6843B934B14B68A9
S2140036900BB1FFF7B5FF01220C4B5A6010BD4B680B
S2140036A00BB1FFF7ADFF002CF5D1FFF7A9FF022302
S2140036B0CB60FFF7A5FFBDE810400122044B202099
S2140036C05A60FFF7A7BF00BF0040065000500650E4
S2140036D00060065008B51020FFF79CFF024B1963E8
S2140036E0BDE80840FFF796BF0040065008B5FFF754
S2140036F087FF02230449CB6000230B62FFF780FF9D
S2140037000123CB6008BD00BF00400650044BD3F831
S2140037108420D206FBD4D3F88400C0F3811070470F
S2140037200040005038B5184B0546D3F824010C4627
S21400373000F00700062823D8DFE800F0040A121A73
S2140037401E0E1600012305B1286004B1236038BDA3
S2140037500FF016FD0523F6E70FF012FD0623F2E73D
S2140037600FF04EFD0323EEE70FF04AFD0423EAE7D1
S2140037700FF042FD0223E6E70FF048FD0723E2E7DD
S21400378000231846DFE700BF0080005038B5104B16
S2140037900546D3F800310C4603F00303022B0BD08A
S2140037A0032B0DD0012B0FD10FF02AFD032305B1FB
S2140037B0286004B1236038BD0FF02CFD0823F6E71F
S2140037C00FF024FD0723F2E701230020EFE700BFF8
S2140037D00080005038B5104B0546D3F820310C4613
S2140037E003F00303022B0BD0032B0DD0012B0FD1BC
S2140037F00FF0C6FC052305B1286004B1236038BD70
S2140038000FF0FEFC0323F6E70FF0F6FC0223F2E7C8
S21400381001230020EFE700BF0080005038B5104BB2
S2140038200546D3F840310C4603F00303022B0BD0B9
S214003830032B0DD0012B0FD110F00CF8092305B186
S214003840286004B1236038BD0FF0E4FC0823F6E7D7
S21400385010F003F80B23F2E701230020EFE700BF88
S2140038600080005038B5104B0546D3F860310C4642
S21400387003F00303022B0BD0032B0DD0012B0FD12B
S2140038800FF0E8FF092305B1286004B1236038BDB6
S2140038900FF0C0FC0823F6E70FF0DFFF0B23F2E77C
S2140038A001230020EFE700BF008000502E4B984217
S2140038B04AD022D82D4B984240D014D82C4B984250
S2140038C039D00AD82B4B984232D02B4B98422FD067
S2140038D02A4B98422CD000207047294B9842FAD1A8
S2140038E0284B186F7047284B98422AD0274B98428F
S2140038F0F1D1244BD3F880007047254B98422BD04B
S21400390009D8244B984223D0234B9842E3D11D4B31
S214003910D3F88C007047214B984221D003F57403EE
S21400392003F510539842D6D1164BD3F8980070473B
S214003930144B986D7047134B586E7047114B586F69
S2140039407047104B986F70470E4BD3F88400704743
S2140039500C4BD3F8880070470A4BD3F8900070479A
S214003960084BD3F8940070470048E8010024F400A0
S214003970C0CF6A0080841E0000093D0040420F0050
S214003980405DC6000080E00FC0EA210180BA8C01CD
S214003990007E560380D54302006CDC020090D00304
S2140039A073B50D4600210E4B0191D3F880410646B3
S2140039B004F00304012C09D0022C0CD00C460EB1E6
S2140039C0019B336005B12C6002B070BD01A8FFF703
S2140039D001FF0F24F3E70FF00FFC0190EFE700BFA5
S2140039E00080005038B5104B0546D3F840320C46E0
S2140039F003F00303022B0BD0032B0DD0012B0FD1AA
S214003A000FF028FF092305B1286004B1236038BDF4
S214003A100FF000FC0823F6E70FF01FFF0B23F2E77A
S214003A2000231846EFE700BF0080005038B5144B5F
S214003A300546D3F800020C4600F0070004281BD801
S214003A40DFE800F003090D111500012305B1286019
S214003A5004B1236038BD0FF0FDFE0923F6E70FF032
S214003A60D9FB0823F2E70FF0F8FE0B23EEE70FF082
S214003A70ADFB0E23800AE9E700231846E6E700BF01
S214003A800080005010B40D4C0B46D4F8204204F0D1
S214003A900304012C0AD0022C0CD008B100210160CE
S214003AA00BB100221A605DF8044B70475DF8044BBA
S214003AB0FFF790BE5DF8044BFFF7B0BE00800050E5
S214003AC0B0F5207F1FD009D8B0F5007F15D003D8F9
S214003AD068B1B0F5C07F0AD000200CE0B0F5607F7A
S214003AE0FAD10B4BD3F88000C0F3011003E0084B6B
S214003AF0186FC0F3033001307047054BD3F89000C1
S214003B00C0F30460F7E7024B186FC0F38020F2E7BB
S214003B10008000504FF400320E4B014610B50020D6
S214003B209A66FFF7CDFF484341F671320A490B4BC0
S214003B30884294BF00200120DC69DA639A6822F488
S214003B40401242EA00529A60E20344BF0022DA635F
S214003B5010BD00BF00900050005A620200000350E3
S214003B60420910B50FD0012A0FD00A4B0A4C022A80
S214003B7018BF234600F01F0049B103F58053012209
S214003B8082401A6010BD1346F4E7044BF2E703F5D3
S214003B900053F4E768800050608200506480005054
S214003BA01FB50021B0F5807F0446019100F0068124
S214003BB000F29D80612800F295801F2805D8002815
S214003BC040F092800FF002FBDCE0A0F12004412CD4
S214003BD000F28A8001A353F824F000BFC53B000022
S214003BE0893D0000C53B0000893D0000A93D00005E
S214003BF0A93D0000A93D0000A93D0000893D000048
S214003C00893D0000633D00001D3D0000DF3D0000D3
S214003C10E93D00001D3D0000893D0000893D000093
S214003C20893D0000E93C0000E93C0000E93C00005A
S214003C30E93C0000E93C0000E93C0000B33D000020
S214003C403F3D0000893D0000893D0000893D0000A1
S214003C50FD3D0000F33D0000893D0000E93C00000A
S214003C60E93C0000E93C0000E93C0000E93C0000BB
S214003C70E93C0000E93C0000E93C0000E93C0000AB
S214003C80E93C0000E93C0000E93C0000E93C00009B
S214003C90C53B0000E93C0000C53B0000C53B0000FA
S214003CA0C53B0000A93D0000E93C0000E93C0000DF
S214003CB0E93C0000E93C0000E93C0000E93C00006B
S214003CC0E93C0000E93C0000E93C0000E93C00005B
S214003CD0E93C0000E93C0000E93C0000C53B000070
S214003CE0C53B000080284BD0019804B010BDB0F54D
S214003CF0A06F5ED028D8B0F5607F50D019D8B0F548
S214003D00007F4CD004D8B0F5C07F3FF45BAFEBE744
S214003D10B0F5207F38D0B0F5407FE5D10FF056FAE9
S214003D2002464FF42070FFF7CBFEB2FBF0F25208CB
S214003D3033E0B0F5806F37D0B0F5906FD4D1002166
S214003D4001A8FFF7EFFCCFE7B0F5E06F51D00DD834
S214003D50B0F5C06F43D0B0F5D06F45D0B0F5B06FBA
S214003D60C2D1002101A8FFF71BFEBDE7B0F5F06F3A
S214003D7044D0B0F5086FB7D101A8FFF707FDB3E749
S214003D800FF004FA0190AFE70FF020FA02464FF466
S214003D902070FFF795FEB2FBF0F20192A4E70FF059
S214003DA0F5F902462046F4E7002101A8FFF712FDC8
S214003DB09AE7002101A8FFF765FE95E74FF0E0239C
S214003DC002911B695B0705D50FF000FA0290029B73
S214003DD0019389E703A902A8FFF720FDF7E7002172
S214003DE001A8FFF71BFD7FE7002101A8FFF71EFED5
S214003DF07AE7002101A8FFF7F5FD75E7002101A885
S214003E00FFF730FD70E700BF08B58020FFF7C8FE5B
S214003E10034B98429EBF4FF48032024B1A6708BD90
S214003E20005A620200A000501FB503460020B3F5FA
S214003E30807F01906FD027D8382B00F082800BD877
S214003E40243B092B0FD8092B0DD8DFE803F05F5F62
S214003E505F5F0C0C5A0C3675522B57D007D83D2B8B
S214003E603AD03E2B72D0019805B05DF804FB802B4B
S214003E70F9D1394B1B6F03F00703013B032BF2D834
S214003E80DFE803F03D36393BB3F5D06F54D019D890
S214003E90B3F5A06F55D00AD8B3F5806F36D0B3F51A
S214003EA0906FE0D1002001A9FFF73CFCDBE7B3F5FB
S214003EB0B06F26D0B3F5C06FD5D1002001A9FFF7AB
S214003EC0ADFCD0E7B3F5006FECD00AD8B3F5E06FE1
S214003ED03CD0B3F5F06FC6D1002001A9FFF7C2FCB5
S214003EE0C1E7B3F5086FBED101A9FFF74FFCBAE7EB
S214003EF005230193B7E70323FBE70723F9E702232C
S214003F00F7E7002001A9FFF74BFDACE7002001A969
S214003F10FFF760FCA7E74FF0E02302901B695B0702
S214003F2005D50FF053F90C230393039BE1E703A990
S214003F3002A8FFF773FCF8E7002001A9FFF776FD5B
S214003F4091E7002001A9FFF79DFD8CE7002001A95D
S214003F50FFF748FD87E700BF008000504FF480322F
S214003F60074B0849586E03F580535A660B6A23F0D0
S214003F7001030B62C3035CBF034B5A66704700BF66
S214003F800080005000C0075000A00050F8B504465E
S214003F908020FFF749FF032800F087804FF40022B7
S214003FA0424B02215A6645F60E03414AC2F880305B
S214003FB0404B9962012103F580539962936DD903B2
S214003FC0FCD4D4E900131B0543EA0163E17B94F8B3
S214003FD020500B43217BE77E43EA0143617B6D0162
S214003FE043EA0133A17B43EA811313619169D4E963
S214003FF004031B0643EA806301F000410B43A17EE5
S21400400094F823000B43217E43EA0143617E43EA92
S21400401001239361136AE66923F00D0394F82210D6
S21400402043EA8703002E2DD11362966A94F8213056
S21400403045EA031326F033052B4343F0010393624E
S2140040401D4D1B4B9A6D35EA0202FBD10222194D1B
S214004050AA621A659A6D5200FCD41A69A56822F401
S214004060700242EA05521A614FF00042114B9A6103
S21400407019B9022203F580539A6278B901220F4BD0
S2140040809A620BE0334343F008031362936A23F00B
S214004090330303432B4343EA4103936294F82430EB
S2140040A01BB1034B064AC3F88020F8BD00900050B1
S2140040B000C0005000D000500300014000E0005057
S2140040C0F1A7FFFF014B93F900007047722600200E
S2140040D0F0B5D0E901434FF480061A4A41780578D6
S2140040E056664FF4D156022702F5B8325662164E7F
S2140040F04F2977604FF0010728BF4F2106F58056FD
S21400410077601669F603FCD441EA052151611B016C
S214004110417B43EA04230B43017B43EA410393605C
S214004120C37B817B1B0143EA4113417C0B43017C2B
S21400413043EA41035360837C13B16FF4D153536257
S214004140F0BD00BF0090005000100250014B1880D8
S214004150704700BF062B0020014B1880704700BF39
S214004160042B00204FF4001208B5184B5A660223A1
S214004170174A5360936813F48033FBD1012822D189
S2140041800FF03EF8134B984215D003F5122303F5B3
S214004190F863984213D0104B00EB8002400AB3FB42
S2140041A0F0F3520A0A49CA620B6301234B620022EB
S2140041B0074B5A6008BD45F67A13084AF2E745F6FB
S2140041C01A03074AEEE75362F1E700BF009000507B
S2140041D00040025000F0490264666666D8B80500E2
S2140041E0BBCF0500B0F5207F10B50C4642D008D8EE
S2140041F0B0F5007F33D003D888B1B0F5C07F0ED0BD
S21400420010BDB0F5607FFBD11F4A4C1ED2F880303F
S21400421023F0300343EA0413C2F88030F0E70BF0D3
S21400422077FF0BF083FF4FF48031184B164A19675F
S214004230136F013C23F4704343EA043313670EF014
S214004240C5FF0446FFF762FAC0F1020120460BF0F4
S21400425067FF00F035F8BDE81040FFF7D5BD0A4A05
S2140042604C1ED2F8903023F0F85343EA0463C2F8A9
S2140042709030C5E7044A4C1E136F23F4806343EA6C
S21400428084231367BCE700BF0080005000900050F6
S21400429008B50121022000F0D9FA4FF42070FFF78C
S2140042A00FFC054B18700BF033FF0BF03FFF4FF47D
S2140042B08032024B1A6708BD71260020009000501D
S2140042C008B54FF4C070FFF76BFCBDE80840044922
S2140042D0884294BF012102214FF42070FFF782BF6D
S2140042E080F0FA0238B504460EF070FF0546FFF778
S2140042F00DFAC0F1020128460BF012FF0121002042
S21400430000F0E4FA2CB1FFF7DBFFBDE83840FFF71A
S2140043107BBD034B4FF420701978FFF763FFF4E77B
S21400432071260020B0F5807F70B50C4600F0F8804E
S21400433029D8382800F04B8110D82438092816D8F8
S214004340092814D8DFE810F0DC00DC00DC00DC0014
S21400435013001300CD00130047003301522800F06D
S214004360CF8005D83D2851D03E2800F0428170BD50
S2140043708028FCD18B1E052B00F2B080DFE803F00E
S214004380AB99AE69AEA8B0F5D06F00F0108132D808
S214004390B0F5A06F00F01B8116D8B0F5806F00F066
S2140043A0AF80B0F5906FE2D1023C052C8CBF0021A7
S2140043B0984B994A98BF195DD2F8243123F0070329
S2140043C00B43C2F82431D2E7B0F5B06F00F0898015
S2140043D0B0F5C06FCBD1083C032C8CBF00218F4BAF
S2140043E08D4A98BF195DD2F8403123F003030B4382
S2140043F0C2F84031BBE7B0F5006FD5D016D8B0F59F
S214004400E06F00F0F680B0F5F06FB0D1083C032CFA
S2140044108CBF0021824B804A98BF195DD2F860316C
S21400442023F003030B43C2F86031A0E7B0F5086F32
S2140044309DD1CC1E052C8CBF00217A4B764A98BFA6
S214004440195DD2F8003123F003030B43C2F80031A4
S2140044508DE7002502260121022000F0F7F90BF077
S21400446057FE0BF063FE4FF480316F4B6A4A1967B4
S214004470136F23F00703334313670EF0A7FE0646B9
S214004480FFF744F9C0F1020130460BF049FE012166
S214004490002000F01BFAFFF713FFFFF7B5FC002D16
S2140044A07FF465AF032C7FF462AF01225F4B9A6204
S2140044B05DE74FF400225C4B0E465A66012203F578
S2140044C040539D6A03F58053C5F340059A62C2E7E0
S2140044D000250426BFE700250126BCE700252E465A
S2140044E0B9E7022C03D0A4F10F056C426C414A4A8E
S2140044F0D2F8803123F003032343C2F8803136E735
S214004500023C032C8CBF0021494B434A98BF195DDF
S214004510D2F8203123F003030B43C2F8203126E7FC
S214004520A1F10804082C3FF622AF01A353F824F0AB
S21400453055450000554500006F43000055450000F6
S214004540834500006F4300006F4300006F43000088
S214004550554500004FF480322F4B3649586E03F510
S21400456080535A660B6AC00343F001030B625CBFBC
S214004570314B5A664FF0E022136923F004031361AF
S214004580F5E64FF48032244B2A49586E03F58053E3
S2140045905A660B6A23F001030B62C1035CBF264B0D
S2140045A05A664FF0E022136943F00403E7E7083C3D
S2140045B0062C8CBF0021214B174A98BF195DD2F8F4
S2140045C0003223F007030B43C2F80032CFE60F2C6D
S2140045D00DD0A4F110035C425C4164000E4AD2F890
S2140045E0203223F003032343C2F82032BFE601241F
S2140045F0F4E7083C032C8CBF0021114B064A98BFF9
S214004600195DD2F8403223F003030B43C2F8403260
S214004610ADE600BF24450100008000502A45010099
S2140046202A450100174501000090005000E00050A8
S2140046302E45010000C0075000A000501D45010097
S2140046402A4501004FF4C02270B50546FFF72EF943
S214004650314B04465A6603F598335A68012A04D14A
S2140046602E494A609A699207FCD18020FFF7DCFB4E
S214004670052807D10BF04CFD0BF058FD4FF48032A7
S214004680254B1A67264B24F040749D4230D0254BAC
S2140046909D4230D00EF074FD8542064603D90121B6
S2140046A0284600F013F9204BDA6812F0060FFBD10B
S2140046B099689C609A68624012F4F81F1ED12846DA
S2140046C0FCF766FE8020FFF7AFFB05280DD10EF045
S2140046D07DFD0446FFF71AF8C0F1020120460BF0F4
S2140046E01FFDFFF7EDFDFFF78FFBAE420CD270BD4E
S2140046F044F00074CEE744F08074CBE780209960E5
S214004700FFF792FB052805D0BDE870400121002088
S21400471000F0DCB83546DAE70090005000E00150C3
S21400472040420F0080841E000000015010B5224B4E
S21400473070B94FF40031214A1860516602F598327C
S2140047405268012A03D11E4AD2F800211A6010BD11
S2140047501B68002BFBD01B4A5268012AF7D0184A68
S2140047608020C2F80031FFF75FFB05281FD14FF409
S214004770C070FFF7A5F90128044604D102214FF4C2
S214004780C070FFF72FFD07220F4B1A610122A3F519
S21400479080535A600B4A1369DB07FCD5012CD6D12F
S2140047A02146BDE810404FF4C070FFF71BBD012244
S2140047B0064B5A60CBE700BF8C20002000900050CC
S2140047C00080005000C0015000E0015000D00150B1
S2140047D010B5044610B10020FFF7A8FF124A13696F
S2140047E043F0040313610BF0A6FC0BF0A5FC0F4B83
S2140047F05B6E5B0142BF0E4B0E4AC3F820240FF0DF
S21400480036F80FF0E9F80FF02DF80BF097FC0BF0E8
S21400481094FC1CB9BDE810400EF0D8BC0120BDE8E1
S2140048201040FFF783BF00BF00ED00E0008000509F
S21400483000E003500000FF0F034A0179D36E23F017
S21400484030030B43D366704700400050F8B504466B
S2140048501C4BD3F88420D106FBD4D3F88430C3F3A2
S21400486081139C422CD00EF091FC012C064602D1FE
S21400487021460BF055FC0EF0FAFF4FF00072124B7B
S21400488007465A6620460BF05CFC4FF480630D4DDD
S214004890621E93402B676B6E9A0103D4D5F8843062
S2140048A09B060AD538460EF0DDFF022C08D13046AE
S2140048B0BDE8F84000210BF033BCD5F88430EAE7B9
S2140048C0F8BD00BF004000500060005010B50C4618
S2140048D008B90EF05BFC074B21461B783BB1064B34
S2140048E0984204D80120BDE81040FFF7AFBF022071
S2140048F0F9E700BF73260020005A62024FF000421C
S21400490038B5264B26495A6601224A604AF6CD310A
S21400491003F50B235D6C1964154030BB9968C90715
S2140049200BD4002401221F4B5A6015B11E4B1F4AA0
S2140049301A640DF09EFF204638BD1A498A601C4A4C
S214004940D96ACC0705D4904201D10724EAE70130A2
S214004950F6E79042E5D1F8E70132DC6A14F0080485
S21400496006D08A42F8D10724DFE700221049F4E790
S2140049708A42F8D020220B4B0B495A620122A3F53B
S21400498080539A6023460A4A486A800603D49342B4
S214004990E9D00133F8E79342C7D1E4E7009000502E
S2140049A00050095000600950004009503254FFFF83
S2140049B040420F004AF6E8531A4C80B51A4FE56E8F
S2140049C0E66E23660EF04CFFFFF762FC3B6F01209D
S2140049D023F0070343F001033B67FFF783FC002047
S2140049E0FFF78CFF0BF0ABFB0BF0AAFB7B6E25F002
S2140049F003055B0144BF0D4B0D4A45F0020548BF59
S214004A00C3F8202446F003060A4BE566E666E5662C
S214004A10E666E566E666E566E666E5665B6A30BF18
S214004A20FEE700BF004000500080005000E003504A
S214004A300000FF0F0040095010B504460BF08CFB39
S214004A40002341F202020849E360A360226104F5F4
S214004A500052E3616361A36123626362E362A3645D
S214004A605164A36210BD00BF7F370C0138B5044601
S214004A70154639B91848844214BF08463820FFF74F
S214004A808FF801466368A36803F0E003402B1AD052
S214004A9003D8D3B1202B1AD038BD602B19D0802B69
S214004AA0FAD101236B434901B1FBF3F10B4A2039DC
S214004AB0204602EAC10201210BF04AFBA262BDE8D1
S214004AC038400BF045BB0623ECE71023EAE7082343
S214004AD0E8E70423E6E700BF0000035AF8FF7F007C
S214004AE0F8B5436804460D4616461BB140F2FF7102
S214004AF00BF02EFB2046FFF79FFFE9896B7B2269B0
S214004B000B43298A22F44C520B4322F00302134330
S214004B102361A268297E2B7B22F080420B4322F081
S214004B20E20213436A6904F580511343AA68A3603E
S214004B30EB69002A34D1A06840F00040A060002B4A
S214004B4033D15EB396F82030DBB101238B614B6026
S214004B50204629780BF01DFB236CDB4313F4405FE3
S214004B60FAD1F8BD96F820305BB101238B614B601B
S214004B7020466968FFF77AFFEAE796F82030002BB0
S214004B8078D196F82230606996F8216020F0090006
S214004B903343034343F001034B6161E00123D6E74F
S214004BA01BB9002EDED10123E1E7987A1F7A400474
S214004BB0D4F808C040EA8750304F0CEA070738435D
S214004BC09F8807F4C04738435F7840EA87005F7BDA
S214004BD040EAC7009F7B40EA07109F7840EA87209C
S214004BE0A060D4F80CC0D3E9040738432CF4D817D7
S214004BF027F4C06738439F7940EA8720DF7940EA88
S214004C004720E0601878012805D1E06840F00400ED
S214004C10E0601B4806E0032828D1E06840F0040066
S214004C20E06018480127C0F8C070587A086218B1CA
S214004C30E06840F40060E060D87A48B1E068124F5F
S214004C4040F40040E060187B00F00F00C7F88000DA
S214004C50E069DB7B20F003000343E361002E8CD188
S214004C6001234B60002A3FF473AF81E70238012826
S214004C70D7D9CEE701238B61F2E700BFE39BBDFFE8
S214004C8000E4035000D4035000900350F8B50446E7
S214004C900D461F4616464AB101238B403021184A5E
S214004CA001FB0022F7B141F21001535004EB44031C
S214004CB0072D4FF00F014FEA031316D8A80006FA87
S214004CC000F281400F4818440BF08FFA4EB90123CA
S214004CD030210B4AAB4001FB042277B141F21001B0
S214004CE05350F8BD42F21001DFE7A5F1080080003E
S214004CF006FA00F281400448E5E742F21001EFE7C9
S214004D0000C0035004C003500CC00350F8B505465D
S214004D100E4614465AB303F00307836823F4407321
S214004D2083600EF0A4FDAA6882EA072303F44073AA
S214004D305340AB600EF096FD36B9104B9D4217D12E
S214004D402E20FEF72DFF0646AB680D4BDA5D62435C
S214004D500DD0A2EBC403013B3344B3FBF2F3AA68C5
S214004D60013B920702D5002B08BF0123AB61F8BDBB
S214004D70044B9D42E8D12F20E3E700BF0000015A14
S214004D80324501000080065038B500230E4A036401
S214004D9000F50053DA634A7804460D4600F108032E
S214004DA07AB903F5805302221A602046D5E901122B
S214004DB02B7BFFF7ABFF20462978BDE838400BF089
S214004DC023BA03F50053EEE7FFFF1F00874B70B5CD
S214004DD0984219D0864B984240F00581854B9968D9
S214004DE0C26B12F4C06F15D091050FD5FD225A7014
S214004DF009221A700022026493F90110012900D1D9
S214004E005A7093F9010070BD7B4BE8E75605EFD565
S214004E10FE22ECE71C78082C00F2E180DFE814F0B4
S214004E2009001F004500530070007E009C00A7008C
S214004E30D6004C880A88E5060AD5120A02F0060251
S214004E4042F0F002012119704263C1600120DAE7E6
S214004E5002F0FE02A10748BF42F00102F2E7160682
S214004E6008D5802100F50052D1634FF608721A80EB
S214004E70022318E05506E9D5402400F50052D46315
S214004E804A88D40604D502221A700B784363DDE7FD
S214004E9096076AD507221A701B7901EBC3031B8994
S214004EA0012BD3D10823C360D0E71506D9D4540606
S214004EB0CCD5402400F50052D4634A88920754D5D6
S214004EC003221A708CE74C880A88E60643BF120A4B
S214004ED002F0060242F0F00202F0FE02650709D573
S214004EE01C7942F0010201EBC4010989012904BFC3
S214004EF00821C160042119700123C3604263A5E73D
S214004F001406AED45206A1D5402400F50052D46350
S214004F104A88560729D507221A7097E71A795D88B6
S214004F2001EBC2042689AE420FD800240132D2B269
S214004F301A715C804C886507C2D4E40702D4012A43
S214004F407FF64EAF08221A7092E76268691C598095
S214004F50525D42630622DFE7160682D455067FF5C9
S214004F6075AF402400F50052D4630522A9E79406E5
S214004F707FF56CAF456A214C46691A793440B4F522
S214004F80003F04BF466A4FF4005601EBC20100F52D
S214004F9000540A8908BFE6632026E6635C88A242BE
S214004FA081BF4968661C5E800D5559888A42C9D9FA
S214004FB00424012AC46004D0013A914201D1082297
S214004FC0C2601A78092A3FF415AF3FE7D2057FF58D
S214004FD03DAF4FF4807100F50052D16308E74FF6FD
S214004FE009321A8006E76FF003000CE70000015A4A
S214004FF0008006509C200020902000202000020008
S2140050001D4B10B4984207D01C4B98422FD06FF01F
S21400501003005DF8044B7047194B0269D20744BF82
S2140050202022C2604A88940702D50C89002CEED054
S214005030520702D50A8A002AE9D04FF480721A6015
S214005040002299601A71C023C3604369DB0510D43F
S214005050202200F50053DA630A4A5DF8044BDA634F
S2140050604FF4FC6200F580531A64FFF7AFBE064BA0
S214005070D3E7436AE9E700BF0000015A0080065004
S21400508090200020FFFF1F009C20002010B5152058
S21400509001F0B6FA0024FF22064B21465C6520206C
S2140050A09A625C60FEF75CFD2146BDE81040212058
S2140050B0FEF756BD00000450044A054B002908BF01
S2140050C01346012282401A60704700BF4010045009
S2140050D04020045010B5012104462020FEF740FD74
S2140050E001212120FEF73CFD0122114B15205A60BC
S2140050F0227812069A606178A27842EA01429A61A2
S214005100FF229A6200229A631A644FF000425A65A0
S2140051104FF0FF3203F500531A6501F09FFA152091
S214005120E1780BF0F8FCBDE81040152001F07ABAE3
S21400513000000450F8B50125C3B21E4FD1F800C0D8
S2140051409D408E7ACB7A0C46097B3D6507F5005765
S21400515047F820C04FF0300C0CFB00F01B05677BB7
S21400516000F1A04043EA064300F5802043EA41539D
S21400517022F003020766C36502670EF081FB0E4B42
S214005180227A5D6502B11D64627A02B19D6322795E
S214005190A37943EA0243074A93616179E37943EAD4
S2140051A0014305498B61054B55639D64BDE8F84096
S2140051B00EF061BB002004500010045000000450A4
S2140051C010B50124C0B284400EF05AFB044B5A6D51
S2140051D022EA04025A659C62BDE810400EF04BBB02
S2140051E00000045010B50124C0B284400EF048FB05
S2140051F0074BDA6A224208D15B6B9C430CBF012442
S21400520000240EF038FB204610BD0024F9E700BF4E
S2140052100000045070B505460EF032FB3022084BF5
S2140052205E6B02FB05335C6E0EF025FB0123EDB2D0
S214005230AB4033420ABFC4F30A100020013070BDF1
S214005240000004504FF40032054B9A6641F6713266
S21400525003F51C33DA63012203F50053DA60704766
S2140052600090005041F671320121064BDA6303F5D7
S2140052700052D1600022DA634FF40032A3F51833EF
S2140052809A66704700000350CB784A7810B55B01E9
S2140052900C7843EA82030A79234343EA02130C227A
S2140052A0424302F1B0421363012C02BF8A78024BDC
S2140052B043F8202010BD00BFE880035008B54FF02B
S2140052C0B0435A686AB958B15B680BB10AF0A6FFDA
S2140052D001210D4B59600AF0A1FF4FF0B043D96091
S2140052E008BD5B680BB10AF099FF0028F0D10AF000
S2140052F095FF4FF0B0430222DA600AF08FFF0122DA
S214005300024B5A60ECE700BF00100058002000581F
S2140053104FF0B0414B6810B50BB10AF07FFF012289
S2140053200B4BC4785A608378934043EA84034478EE
S2140053302343047943EA0413447943EAC4038B60A5
S214005340044B5A600378C3F10203CB6010BD00BF64
S21400535000200058001000584FF48032064B5A6662
S21400536003F5E6235B69C3F38512827003F03F0200
S2140053701B0B42700370704700900050024B186879
S214005380C0F30740704700BF0080E00F0120034BCA
S2140053909B680A3303F01F03984070470080E00FB5
S2140053A0034BD3F82424D3F820041040704700BFE2
S2140053B000C00350064BDA6E02F03002202A06D0F8
S2140053C0DA6E22F0300208B142F01002DA66704758
S2140053D0004000502DE9F8431E4B0546D3F8103325
S2140053E04B1E0E2B0E46174690F8009044781DD99B
S2140053F009B34FF000082846D7B10EF047FA09EB7C
S2140054004903072C4FF00F014FEA031315D8A400E9
S214005410114808FA04F2A14018440AF007FFBEB982
S21400542028468FB1BDE8F8430EF030BA8846E2E76A
S2140054300AF00BFFE3E78846E1E7083CA4000748CC
S21400544008FA04F2A140E7E7BDE8F8430AF0FDBE1B
S214005450BDE8F88300C0035004C003500CC00350DE
S2140054602DE9F0412B4B1746D3F810234A1C06466D
S2140054700C46407804D1D3F824140AF0F4FE04460F
S214005480002C2FDB072C4FF0030532782DDC4FEA7B
S214005490840805FA08F529461F4802FA08F20AF0B9
S2140054A0C5FE294672781D4802F0030202FA08F289
S2140054B00AF0BCFE012317F0050F194A18BF194958
S2140054C003FA04F30CBFC2F81034C1F8103417F016
S2140054D0060F18BF134AC2F814340123104AA3401B
S2140054E0C2F820342046BDE8F081A4F108084FEA4F
S2140054F0880805FA08F529460B4802FA08F20AF069
S21400550095FE7278294602F00302084802FA08F26D
S214005510CEE700BF00C0035000C4035008C40350C9
S21400552000E0035000D0035004C403500CC40350E2
S21400553038B505460C4C0140D4F8303423EA000355
S214005540C4F83034D4F830341943C4F83014D4F8DE
S2140055502C340343C4F82C34012004F50054FFF720
S21400556029FFC4F8205438BD00C00350124B70B554
S214005570D3F8103306460AF090FE0446481C15463B
S21400558003D1621C05D1204670BD631CFBD08C4243
S2140055900ED13046032185F00102FFF71BFF0120E4
S2140055A004F1100305FA03F19840FFF7C1FFEAE79C
S2140055B04FF0FF34E7E700BF00C0035070B5044665
S2140055C00DF08AF9064630B90FCC044D0FC594E8A5
S2140055D0030085E80300304670BD00BFA820002009
S2140055E047F6FF739A42F0B56FD002296FD8394B51
S2140055F05B5C012B6BD8384DDF0005EBC30415F858
S2140056003330A178012B13D10025E078401AA84248
S21400561002D80844C0B2F0BD431B6668A0EB530333
S21400562036F913609642D4BF1D4603F1FF30EEE70D
S21400563060680028EFD0B0F90040944204DBB0F96F
S21400564002409442B8BF144683883D44FF2B19BFDE
S214005650C8224FF0280CB0F90620B0F908C0A2EB1B
S21400566004030CBF0126002693FBFCF333446E783C
S2140056701BB29E4201DD002B01DA731E1BB24FF4F3
S2140056807A7C01339BB2071D5D1E2DB24FEAC50E14
S21400569000EBC505EA88AD689E4214FB025222EA7A
S2140056A0E27202F15C02B2FBFCF204DD37F8335022
S2140056B001339542E8D200EB0E039888904228BF4B
S2140056C01046884238BF0846A4E7FF20A3E700201C
S2140056D0A1E700BF36450100A82000200229F0B54A
S2140056E055D82C4B585C012851D82B4C04EBC001E4
S2140056F014F830004B6801280FD1C8788C78904297
S21400570094BFC4EB0001C4EB0201001BCAB2824284
S214005710C8BF002233F91200F0BD002B37D08878BE
S214005720904202D3B3F90200F6E7CC78B3F9000052
S2140057309442F1D94C789988013CA1F1FF06714258
S21400574003F10405E4B2714103F10C07CEB2B44292
S21400575016D805EBC1014FF47A756A43B1F90240D9
S2140057604968521A04EBD47102EB610292FBF4F220
S2140057709042D1DBB3F902009042CDDC10B2CBE709
S21400578037F831C04E1C9445E3D33146DEE7034874
S214005790C2E700BF36450100A82000200080FFFFBA
S2140057A008B50448FFF70AFFBDE8084001200DF0E1
S2140057B097B800BF3C45010073B504460DF092F85B
S2140057C048BB694620460DF089F800B1FEE7134E47
S2140057D09DF8003032789A421DD00C2B09D0204616
S2140057E002F0CCFF054620460C490DF064F810B1D7
S2140057F0FEE76425F7E7294620460DF043F800B19A
S214005800FEE73378042B06D1694620460DF066F88D
S2140058109DF80030337002B070BD00BF082B00202A
S21400582070B5052905460E468CB013D80023B1B1D5
S2140058306422CDE9053307939623023ECDE9012382
S214005840CDE903230DF0C1F8032E0ED8DFE806F0ED
S2140058501D2126288B1F032B26D9212402E00CF0BD
S2140058608CFF344620460CB070BD284603F06EF818
S214005870044630B9284601A902F024FE0446002852
S214005880F0D028460DF0ABF8ECE7284603F064F8B5
S214005890EEE7002128460DF0B1F8E9E70221F9E726
S2140058A0284603F04DF8E3E72C22002101A80DF06E
S2140058B02DFC194A194B2846CDE902236423B6224B
