S02B00007A69676265655F6770645F736F635F656E657267795F68617276657374696E675F7377697463682E7E
S21400000000100020C1070000C9930000C99300003B
S214000010C9930000C9930000C9930000C99300006B
S214000020C9930000C9930000C9930000C99300005B
S214000030C9930000C9930000C9930000C99300004B
S214000040C9930000C9930000C9930000C99300003B
S214000050C9930000C9930000C9930000C99300002B
S214000060C9930000C9930000C9930000C99300001B
S214000070592D0000C9930000C9930000C9930000E1
S214000080C9930000C9930000C9930000C9930000FB
S214000090C9930000C9930000C9930000C9930000EB
S2140000A0C99300000D0E0000ED0D0000C99300007E
S2140000B0C993000095820000C9930000F58C0000EB
S2140000C085AE000081AE0000D58400009BAE000027
S2140000D089AE0000C58C00008DAE0000358D000096
S2140000E02171000071710000A58D0000C993000009
S2140000F0C9930000C9930000C9930000C99300008B
S214000100C9930000C9930000C9930000C99300007A
S214000110C9930000C9930000C9930000C99300006A
S214000120C9930000C9930000C9930000C99300005A
S214000130C9930000C9930000C9930000C99300004A
S21400014082B030BF074BD3F8F030DB0704D500236E
S2140001500193019B052B01DD02B07047019B013323
S214000160F6E700BF00ED00E0F0B5114A114C124E64
S21400017000F00105E3695F0713D40DB9334213D1CC
S21400018003EA00078F4207D10B4A1A40002A0CBF29
S21400019000206FF00100F0BD013AEBD16FF00200D5
S2140001A0F9E74FF0FF30F6E76FF00100F3E700BF26
S2140001B08096980000000350020001000B4B70B5BB
S2140001C0D96911F480310DD101244FF48072084EA4
S2140001D0084DF46020462C641A61FFF7C5FF3464AE
S2140001E0EC6070BD6FF00100FBE700BF000003503D
S2140001F000100350002003504FF4003238B50F4B68
S2140002000F4C9A6641F671330122E569E3630D4BA4
S2140002100021DA60022360612120236105F4803525
S214000220FFF7A2FF10B92120FFF79EFF0122064B21
S214000230DA600DB10023E36338BD00BF00900050C4
S21400024000000350001003500020035070B5134CFC
S2140002506061E3695B071ED40E4656F8043B8D18B2
S214000260A361AE420BD10423002121202361FFF7B6
S2140002707BFF58B9BDE870402120FFF775BF082105
S2140002800846FFF771FF10B10423236170BD56F8CE
S214000290043BA361E5E74FF0FF30F7E700000350AB
S2140002A02DE9F84315464FF40032184B89469A66F6
S2140002B041F6713203F51C33DF69DA630122064624
S2140002C003F58053DFF84C8007F48037DA6055B9C1
S2140002D0284601220E4BDA601FB10022A3F5005318
S2140002E0DA63BDE8F88306F5005404EA0804A41BA4
S2140002F0AC4228BF2C46494622463046FFF7A6FFAA
S2140003000028E6D12644A1442D1BE0E700900050CB
S20C0003100020035000E0FFFF8F
S2140003180348044B834202D0034B03B11847704787
S214000328281C0020281C002000000000064B074957
S214000338C91A891048BF0131491003D0044B0BB1C4
S21400034801481847704700BF281C0020281C0020BA
S2140003580000000010B5064C237843B9FFF7D8FF15
S214000368044B13B10448AFF300800123237010BD7B
S2140003784018002000000000A802010008B5054B40
S2140003881BB105490548AFF30080BDE80840FFF7F4
S214000398CDBF00BF0000000030120020A8020100F8
S2140003A8A3F5803A704700BF174B002B08BF134BC6
S2140003B89D46FFF7F5FF00218B460F461348144A63
S2140003C8121A0AF0CFFD0E4B002B00D098470D4BA3
S2140003D8002B00D098470020002104000D000D488F
S2140003E8002802D00C48AFF3008008F039FF200040
S2140003F8290008F05EFF08F021FF00BF0000080093
S214000408000000000000000000100020001000207F
S214000418A4190020000000000000000010B50446E3
S21400042802F0E8FF90F82B302046052B9EBF0122ED
S214000438024B1A70BDE810400AF0C8BE42180020E9
S21400044830B585B002F0D6FF90F82B300446062B60
S214000458294D14D12B7823B9284B1B786BB9032365
S2140004682B702B78002B44D0052B42D0013B032B56
S21400047822D8DFE803F0231B272E0423F0E7052BFA
S214000488EFD82B78002BECD14FF47A7003A90AF03A
S214000498EDFE034630B9CDE90000194A039919481C
S2140004A80BF094F8012001F04BFBDAE7204609F040
S2140004B8ABFB204602F0ACFC002319E0204602F015
S2140004C8FFFEF9E7204602F0A3FC01220B4B1A7048
S2140004D8F2E7222300208DF80C30012321466073B2
S2140004E803AA009302F082FE204602F091FC052340
S2140004F82B7005B030BD00BF421800204118002000
S214000508250400004812002013B504460AF0A8FE89
S214000518002360430549CDE90033B0FBF1F1044AF6
S21400052804480BF034F802B010BD00BF40420F007C
S214000538B192000068120020002307B505480DF1A7
S21400054807018DF807300AF06DFE9DF8070003B026
S2140005585DF804FB681200202DE9F7431F464FF0AC
S214000568FF3380460D4616464FF40034DFF8749085
S2140005780193042220460DEB02010AF0E3FCD0B9F1
S214000588B4F5003F0BD1D7B14FF0FF34012F0ED191
S21400059801F002FC3246294604F120001CE0203C0B
S2140005A8002FF3D13246214628460AF0E3FC002005
S2140005B803B0BDE8F08320344C45DAD1E3E7404683
S2140005C802F0E6FB01F0E8FB4FF400300BF050F8C1
S2140005D8324629464FF400300BF04EF801F0ECFB9B
S2140005E8E5E700BF2000070008B509F0F2F800208C
S2140005F800F056F802F02EFC02F072FC02F032FF11
S2140006080E4808F0F1FE012803D102220C4B1A709E
S21400061808BD02F0EFFE90F82B309A1F5142514168
S214000628084A052B1170F3D8002000F039F86FF04F
S2140006383B010AF06FF80122014BE8E794B6000088
S214000648421800204118002008B501F041FC012896
S2140006580ED1104B04205A6E4FF480230E495203D5
S21400066858BF0E4A4B6601F51041086258BF5366DC
S21400067802F038F800F078F809F026F801F0FCFFE8
S21400068809F01BF802F008F802F070F8BDE8084018
S21400069800F060B8008000500090005000A00050A5
S2140006A8014B1868704700BF8C1B002030B500252A
S2140006B889B01F4B1F4904A8CDE905550795049333
S2140006C803F0A6F81C4C206000B9FEE729461B4A32
S2140006D803F0AAFA0621206801F042FE00B1FEE700
S2140006E81749206803F0CCFA00B1FEE70822002379
S2140006F8CDE900234FF0FF324FF0FF33206809F0B2
S214000708E9FF00B1FEE70F4B20681B8802A9ADF889
S2140007180830ADF80C3009F0C5FF00B1FEE72068D8
S21400072803A909F0D5FF00B1FEE709B030BD00BF48
S21400073845930000279300008C1B0020319300008F
S2140007480700110090B60000014808F048BE00BF38
S21400075894B6000008B5034808F0B1FFBDE80840A5
S21400076808F0B1BD6CB70000014808F0A8BF00BF8C
S2140007786CB7000007B5082008F09AFE02238DF82B
S2140007880030054B6846019308F0DEFD082003B0EC
S2140007985DF804EB08F097BE006A18100348044A90
S2140007A80449121A921008F00CBE00BF400100005F
S2140007B818030000A419002008B500F02FF8FFF76A
S2140007C8EDFF124B12498B4212D30020114B1249EF
S2140007D88B4218D3FFF7E8FD186850F8224058688F
S2140007E840F82240013298688242F5D30C33EAE793
S2140007F80022F8E71C6844F8220001325C68A2422E
S214000808F8D30833E4E70022F8E700BFB002010097
S214000818BC020100BC020100BC0201004FF400410A
S214000828134B144A70B59A60D3F88820124D42F4D8
S2140008387002C3F88820114A05F5005491664FF0F7
S214000848FF3222664FF6DF7262660222C3F8D020B5
S214000858BFF34F8FBFF36F8F4FF44036032001F07E
S21400086877FF0320E66001F057FF2E6170BD00BFDA
S21400087800ED00E0000000000080004400900050FA
S214000888014B1860704700BF941B0020054B18608A
S214000898054B1B6F03F00703032B01D10AF09EBB21
S2140008A8704700BF9C1B00200080005030B50568CC
S2140008B887B0AB8804461848ADF80C3008F0FFFE41
S2140008C80022012103A800F0FDF80DF10B0103A892
S2140008D800F084F99DF80B3083F001032B70AB7998
S2140008E8022B15D14FF0FF330022CDE9043304A9BB
S2140008F80A4B009403A800F021FA049B00940133E5
S2140009080CBF04220122054B05A903A800F094F9A0
S214000918002007B030BD00BF6CB70000FD93000094
S214000928002307B52948019308F0C9FE4FF4407321
S214000938012204216846ADF8003000F0C3F8012211
S214000948234B0520C3F8442401A90AF0C7FD002854
S21400095839D1204BD3F8F02042F00102C3F8F0203A
S214000968D3F8FC2042F08072C3F8FC201A4AA3F59C
S2140009785D431A60019B194A03F5D52303F2FC432D
S214000988B3FBF2F3164A013B13610223C2F8F030B8
S2140009984FF48073C2F804334FF06043114AC3F82B
S2140009A8B02F114AC3F8802ED3F8002E42F4807276
S2140009B8C3F8002EFF2283F82020D3F8002E22F456
S2140009C88072C3F8002E03B05DF804FB6CB7000015
S2140009D800D0035000ED00E0FF030040F8590D007A
S2140009E8000004E055CEACC5090001004FF0604396
S2140009F8D3F8802E30B5D20715D501240B4D844088
S214000A08D5F8FC2042F08072C5F8FC20D3F8002EFA
S214000A182243C3F8002E53F82020002AF0D003F80B
S214000A282010002030BD1120FCE700BF00ED00E0DC
S214000A382DE9F04104460C254FF00108124E0CB380
S214000A4814F001000BD0002024F0010405FB00621E
S214000A585768002FF3D09168C0B2B847EFE7224630
S214000A68013020284FEA520201D0D307F8D508FAF9
S214000A7800F20F2824EA0204E8D9103805FB0062C1
S214000A88B432E5E7BDE8F0818812002008B50C48C6
S214000A9808F015FE192001F04DFE28B1192001F0C6
S214000AA857FE192001F038FE1A2001F043FE28B13F
S214000AB81A2001F04DFE1A2001F02EFE002008BD77
S214000AC86CB700002DE9F0410E461746054610B3F0
S214000AD80F2922D80378DBB1013BDBB2022B1CD8E6
S214000AE8104AD35C6A78D340DB0716D50E4BD3F88A
S214000AF81043A4B90AF0DEFC80463A46284631463A
S214000B0801F008FA40460AF0D0FC2046BDE8F0811D
S214000B1840F2FF13E6E72224F7E72124F5E702244C
S214000B28F3E700BFACB6000000C0035010B504469B
S214000B3808B30378E3B1013BDBB2022B1DD8104A99
S214000B48D35C6278D340DB0717D50AF0B3FC0122E2
S214000B58617823788A4030214B4341F2100103F133
S214000B68A04303F570335A500AF09FFC002010BDCE
S214000B7840F2FF13E5E72220F9E72120F7E700BF58
S214000B88ACB6000010B5044608B30378E3B1013BE1
S214000B98DBB2022B1DD8104AD35C6278D340DB0741
S214000BA817D50AF087FC0122617823788A4030211D
S214000BB84B4342F2100103F1A04303F570335A5039
S214000BC80AF073FC002010BD40F2FF13E5E7222070
S214000BD8F9E72120F7E700BFACB6000038B50D46A8
S214000BE8044610B309B30378E3B1013BDBB2022B2A
S214000BF81DD8104AD35C6278D340DB0717D50AF0B5
S214000C0859FC30222378534303F1A04303F570338D
S214000C185B696278D34003F001032B700AF045FC49
S214000C28002038BD40F2FF13E5E72220F9E721202F
S214000C38F7E700BFACB600002DE9F0410D461646B2
S214000C4898460446002851D000294FD00378002B38
S214000C5842D05A1ED2B2022A03D9FF2B07D021202F
S214000C6842E0234B9B5C4278D340DA07F7D5022E46
S214000C7801D9042EF3D10AF01DFC23780746FF2B72
S214000C8805D032462046296801F08AF928602B6884
S214000C98013309D12378FF2B06D1164B6078D3F899
S214000CA8241408F059FC286029684B1C18D00C231B
S214000CB8114A03FB0122069BC2F80480936023783E
S214000CC8FF2B04D001230D4A8B40C2F82434384643
S214000CD80AF0EBFB002007E040F2FF134278C3E778
S214000CE838460AF0E2FB2D20BDE8F0812220FBE71B
S214000CF8ACB6000000C003508812002000D0035095
S214000D080F2810B5044613D80AF0D4FB0123094A65
S214000D18A340C2F82034C2F824340C22064B02FB47
S214000D2804330024C3E901440AF0BFFB204610BD83
S214000D382120FCE700E00350881200202DE9F0414E
S214000D480D4690461F460446002842D0002940D04B
S214000D580378002B33D0591EC9B2022903D9FF2BBA
S214000D6807D0212033E01C4B42785B5CD340DA077F
S214000D78F7D50AF09FFB23780646FF2B05D0424698
S214000D882046296801F092F928602A68531C1AD070
S214000D980C23124903FB0211069BC1F8B870C1F870
S214000DA8BC302378FF2B05D00123103293400C4A21
S214000DB8C2F8243430460AF078FB002007E040F2F8
S214000DC8FF134278D2E730460AF06FFB2D20BDE8C5
S214000DD8F0812220FBE700BFACB600008812002096
S214000DE800D0035008B501F07BF8054B00F05530ED
S214000DF820F05020C3F82004BDE80840FFF718BECE
S214000E0800E0035008B501F06BF8054B00F0AA3077
S214000E1820F0A020C3F82004BDE80840FFF708BE6D
S214000E2800E00350044BD3F88420D206FBD4D3F852
S214000E388400C0F3811070470040005038B5184B46
S214000E480546D3F824010C4600F00700062823D8E8
S214000E58DFE800F0040A121A1E0E1600012305B178
S214000E68286004B1236038BD0AF092F80523F6E737
S214000E780AF08EF80623F2E70AF0CAF80323EEE72C
S214000E880AF0C6F80423EAE70AF0BEF80223E6E703
S214000E980AF0C4F80723E2E700231846DFE700BF96
S214000EA80080005038B5104B0546D3F800310C4684
S214000EB803F00303022B0BD0032B0DD0012B0FD10D
S214000EC80AF0A6F8032305B1286004B1236038BDEC
S214000ED80AF0A8F80823F6E70AF0A0F80723F2E7CE
S214000EE801230020EFE700BF0080005038B5104B04
S214000EF80546D3F820310C4603F00303022B0BD02B
S214000F08032B0DD0012B0FD10AF042F8052305B1AB
S214000F18286004B1236038BD0AF07AF80323F6E7A0
S214000F280AF072F80223F2E701230020EFE700BF79
S214000F380080005038B5104B0546D3F840310C46B3
S214000F4803F00303022B0BD0032B0DD0012B0FD17C
S214000F580AF09CFA092305B1286004B1236038BD5D
S214000F680AF060F80823F6E70AF093FA0B23F2E78C
S214000F7801230020EFE700BF0080005038B5104B73
S214000F880546D3F860310C4603F00303022B0BD05A
S214000F98032B0DD0012B0FD10AF078FA092305B1DF
S214000FA8286004B1236038BD0AF03CF80823F6E749
S214000FB80AF06FFA0B23F2E701230020EFE700BFE1
S214000FC8008000502E4B98424AD022D82D4B98428B
S214000FD840D014D82C4B984239D00AD82B4B98427C
S214000FE832D02B4B98422FD02A4B98422CD0002038
S214000FF87047294B9842FAD1284B186F7047284BF0
S21400100898422AD0274B9842F1D1244BD3F8800037
S2140010187047254B98422BD009D8244B984223D0AA
S214001028234B9842E3D11D4BD3F88C007047214BD5
S214001038984221D003F5740303F510539842D6D18D
S214001048164BD3F898007047144B986D7047134B9F
S214001058586E7047114B586F7047104B986F704713
S2140010680E4BD3F8840070470C4BD3F888007047B3
S2140010780A4BD3F890007047084BD3F89400704793
S2140010880048E8010024F400C0CF6A0080841E00EF
S21400109800093D0040420F00405DC6000080E00F9A
S2140010A8C0EA210180BA8C01007E560380D543022F
S2140010B8006CDC020090D00373B50D4600210E4B81
S2140010C80191D3F88041064604F00304012C09D0A8
S2140010D8022C0CD00C460EB1019B336005B12C6077
S2140010E802B070BD01A8FFF701FF0F24F3E709F06F
S2140010F88BFF0190EFE700BF0080005038B5104B1B
S2140011080546D3F840320C4603F00303022B0BD0F7
S214001118032B0DD0012B0FD10AF0B8F9092305B11E
S214001128286004B1236038BD09F07CFF0823F6E781
S2140011380AF0AFF90B23F2E700231846EFE700BFE3
S2140011480080005038B5144B0546D3F800020C460C
S21400115800F0070004281BD8DFE800F003090D118B
S2140011681500012305B1286004B1236038BD0AF0D4
S2140011788DF90923F6E709F055FF0823F2E70AF088
S21400118888F90B23EEE709F029FF0E23800AE9E722
S21400119800231846E6E700BF0080005010B40D4C48
S2140011A80B46D4F8204204F00304012C0AD0022C83
S2140011B80CD008B1002101600BB100221A605DF85E
S2140011C8044B70475DF8044BFFF790BE5DF8044B80
S2140011D8FFF7B0BE00800050B0F5207F1FD009D8BA
S2140011E8B0F5007F15D003D868B1B0F5C07F0AD037
S2140011F800200CE0B0F5607FFAD10B4BD3F88000E6
S214001208C0F3011003E0084B186FC0F30330013039
S2140012187047054BD3F89000C0F30460F7E7024B1D
S214001228186FC0F38020F2E7008000504FF40032B9
S2140012380E4B014610B500209A66FFF7CDFF4843CF
S21400124841F671320A490B4B884294BF00200120B0
S214001258DC69DA639A6822F4401242EA00529A601D
S214001268E20344BF0022DA6310BD00BF00900050BE
S214001278005A620200000350420910B50FD0012A36
S2140012880FD00A4B0A4C022A18BF234600F01F004C
S21400129849B103F58053012282401A6010BD1346F7
S2140012A8F4E7044BF2E703F50053F4E768800050D0
S2140012B860820050648000501FB50021B0F5807F22
S2140012C80446019100F0068100F29D80612800F234
S2140012D895801F2805D8002840F0928009F07EFEE9
S2140012E8DCE0A0F12004412C00F28A8001A353F828
S2140012F824F000BFE5120000A9140000E512000063
S214001308A9140000C9140000C9140000C91400007C
S214001318C9140000A9140000A914000083140000D2
S2140013283D140000FF140000091500003D140000DD
S214001338A9140000A9140000A9140000091400004C
S214001348091400000914000009140000091400001C
S21400135809140000D31400005F140000A91400004C
S214001368A9140000A91400001D150000131500009C
S214001378A91400000914000009140000091400004C
S21400138809140000091400000914000009140000DC
S21400139809140000091400000914000009140000CC
S2140013A80914000009140000E512000009140000E2
S2140013B8E5120000E5120000E5120000C91400005E
S2140013C8091400000914000009140000091400009C
S2140013D8091400000914000009140000091400008C
S2140013E8091400000914000009140000091400007C
S2140013F809140000E5120000E512000080284BD012
S214001408019804B010BDB0F5A06F5ED028D8B0F52E
S214001418607F50D019D8B0F5007F4CD004D8B0F50E
S214001428C07F3FF45BAFEBE7B0F5207F38D0B0F570
S214001438407FE5D109F0D2FD02464FF42070FFF751
S214001448CBFEB2FBF0F2520833E0B0F5806F37D02F
S214001458B0F5906FD4D1002101A8FFF7EFFCCFE7D5
S214001468B0F5E06F51D00DD8B0F5C06F43D0B0F5E9
S214001478D06F45D0B0F5B06FC2D1002101A8FFF7F4
S2140014881BFEBDE7B0F5F06F44D0B0F5086FB7D1D6
S21400149801A8FFF707FDB3E709F080FD0190AFE765
S2140014A809F09CFD02464FF42070FFF795FEB2FB4C
S2140014B8F0F20192A4E709F071FD02462046F4E72F
S2140014C8002101A8FFF712FD9AE7002101A8FFF7FF
S2140014D865FE95E74FF0E02302911B695B0705D58B
S2140014E809F07CFD0290029B019389E703A902A8F4
S2140014F8FFF720FDF7E7002101A8FFF71BFD7FE7B0
S214001508002101A8FFF71EFE7AE7002101A8FFF7D1
S214001518F5FD75E7002101A8FFF730FD70E700BF6D
S21400152808B58020FFF7C8FE034B98429EBF4FF4CD
S2140015388032024B1A6708BD005A620200A00050AB
S2140015481FB503460020B3F5807F01906FD027D8DB
S214001558382B00F082800BD8243B092B0FD8092B98
S2140015680DD8DFE803F05F5F5F5F0C0C5A0C36752A
S214001578522B57D007D83D2B3AD03E2B72D0019825
S21400158805B05DF804FB802BF9D1394B1B6F03F0CF
S2140015980703013B032BF2D8DFE803F03D36393B5F
S2140015A8B3F5D06F54D019D8B3F5A06F55D00AD874
S2140015B8B3F5806F36D0B3F5906FE0D1002001A95F
S2140015C8FFF73CFCDBE7B3F5B06F26D0B3F5C06F8A
S2140015D8D5D1002001A9FFF7ADFCD0E7B3F5006F21
S2140015E8ECD00AD8B3F5E06F3CD0B3F5F06FC6D1AF
S2140015F8002001A9FFF7C2FCC1E7B3F5086FBED10A
S21400160801A9FFF74FFCBAE705230193B7E70323C1
S214001618FBE70723F9E70223F7E7002001A9FFF70E
S2140016284BFDACE7002001A9FFF760FCA7E74FF0E9
S214001638E02302901B695B0705D509F0CFFC0C2355
S2140016480393039BE1E703A902A8FFF773FCF8E7F7
S214001658002001A9FFF776FD91E7002001A9FFF712
S2140016689DFD8CE7002001A9FFF748FD87E700BF2E
S214001678008000504FF48032074B0849586E03F537
S21400168880535A660B6A23F001030B62C3035CBFE0
S214001698034B5A66704700BF0080005000C00750D2
S2140016A800A00050F8B504468020FFF749FF03283D
S2140016B800F087804FF40022424B02215A6645F616
S2140016C80E03414AC2F88030404B9962012103F567
S2140016D880539962936DD903FCD4D4E900131B0593
S2140016E843EA0163E17B94F820500B43217BE77EB5
S2140016F843EA0143617B6D0143EA0133A17B43EA78
S214001708811313619169D4E904031B0643EA8063D5
S21400171801F000410B43A17E94F823000B43217E81
S21400172843EA0143617E43EA01239361136AE6694B
S21400173823F00D0394F8221043EA8703002E2DD1D8
S2140017481362966A94F8213045EA031326F03305A7
S2140017582B4343F0010393621D4D1B4B9A6D35EAEC
S2140017680202FBD10222194DAA621A659A6D52002E
S214001778FCD41A69A56822F4700242EA05521A6176
S2140017884FF00042114B9A6119B9022203F58053B3
S2140017989A6278B901220F4B9A620BE0334343F002
S2140017A808031362936A23F0330303432B4343EA85
S2140017B84103936294F824301BB1034B064AC3F8DE
S2140017C88020F8BD0090005000C0005000D00050A7
S2140017D80300014000E00050F1A7FFFF014B93F91A
S2140017E80000704744180020014B1880704700BF5F
S2140017F8081C00204FF4001208B5184B5A6602233E
S214001808174A5360936813F48033FBD1012822D11A
S21400181809F0FEFB134B984215D003F5122303F587
S214001828F863984213D0104B00EB8002400AB3FBD3
S214001838F0F3520A0A49CA620B6301234B6200227C
S214001848074B5A6008BD45F67A13084AF2E745F68C
S2140018581A03074AEEE75362F1E700BF009000500C
S2140018680040025000F0490264666666D8B8050073
S214001878BBCF0500B0F5207F10B50C4642D008D87F
S214001888B0F5007F33D003D888B1B0F5C07F0ED04E
S21400189810BDB0F5607FFBD11F4A4C1ED2F88030D1
S2140018A823F0300343EA0413C2F88030F0E707F069
S2140018B816FE07F022FE4FF48031184B164A1967B9
S2140018C8136F013C23F4704343EA0433136709F0AB
S2140018D885FB0446FFF7A6FAC0F10201204607F08A
S2140018E806FE00F035F8BDE81040FFF719BE0A4AB4
S2140018F84C1ED2F8903023F0F85343EA0463C2F83B
S2140019089030C5E7044A4C1E136F23F4806343EAFD
S21400191884231367BCE700BF008000500090005087
S21400192808B50121022000F049F94FF42070FFF7AE
S21400193853FC054B187007F0D2FD07F0DEFD4FF498
S2140019488032024B1A6708BD4318002000900050EA
S21400195808B54FF4C070FFF7AFFCBDE8084004496F
S214001968884294BF012102214FF42070FFF782BFFE
S21400197880F0FA0238B5044609F030FB0546FFF752
S21400198851FAC0F10201284607F0B1FD01210020F6
S21400199800F054F92CB1FFF7DBFFBDE83840FFF73D
S2140019A8BFBD034B4FF420701978FFF763FFF4E7C9
S2140019B8431800204FF4C02270B50546FFF702FB17
S2140019C8314B04465A6603F598335A68012A04D1FF
S2140019D82E494A609A699207FCD18020FFF7B0FD2D
S2140019E8052807D107F07BFD07F087FD4FF4803206
S2140019F8254B1A67264B24F040749D4230D0254B61
S214001A089D4230D009F0C4FA8542064603D9012122
S214001A18284600F013F9204BDA6812F0060FFBD1BF
S214001A2899689C609A68624012F4F81F1ED128468E
S214001A38FEF726FF8020FFF783FD05280DD109F065
S214001A48CDFA0446FFF7EEF9C0F10201204607F08A
S214001A584EFDFFF77DFFFFF763FDAE420CD270BD6B
S214001A6844F00074CEE744F08074CBE78020996099
S214001A78FFF766FD052805D0BDE870400121002067
S214001A8800F0DCB83546DAE70090005000E0015078
S214001A9840420F0080841E000000015010B5224B03
S214001AA870B94FF40031214A1860516602F5983231
S214001AB85268012A03D11E4AD2F800211A6010BDC6
S214001AC81B68002BFBD01B4A5268012AF7D0184A1D
S214001AD88020C2F80031FFF733FD05281FD14FF4E8
S214001AE8C070FFF779FB0128044604D102214FF4A1
S214001AF8C070FFF7BFFE07220F4B1A610122A3F53D
S214001B0880535A600B4A1369DB07FCD5012CD6D1E3
S214001B182146BDE810404FF4C070FFF7ABBE012267
S214001B28064B5A60CBE700BFF01300200090005029
S214001B380080005000C0015000E0015000D0015065
S214001B4810B5044610B10020FFF7A8FF124A136923
S214001B5843F00403136107F0D5FC07F0D4FC0F4BE1
S214001B685B6E5B0142BF0E4B0E4AC3F8202409F099
S214001B7898FC09F085FD09F08FFC07F0C6FC07F015
S214001B88C3FC1CB9BDE8104009F028BA0120BDE81E
S214001B981040FFF783BF00BF00ED00E00080005054
S214001BA800E003500000FF0F034A0179D36E23F0CC
S214001BB830030B43D366704700400050F8B5044620
S214001BC81C4BD3F88420D106FBD4D3F88430C3F357
S214001BD881139C422CD009F0E1F9012C064602D16B
S214001BE8214607F084FC09F05CFC4FF00072124BAB
S214001BF807465A66204607F089FC4FF480630D4D69
S214001C08621E93402B676B6E9A0103D4D5F8843016
S214001C189B060AD5384609F03FFC022C08D1304608
S214001C28BDE8F840002107F062BCD5F88430EAE742
S214001C38F8BD00BF004000500060005010B50C46CC
S214001C4808B909F0ABF9074B21461B783BB1064BA0
S214001C58984204D80120BDE81040FFF7AFBF022025
S214001C68F9E700BF45180020005A62024FF000420C
S214001C7838B5264B26495A6601224A604AF6CD31BF
S214001C8803F50B235D6C1964154030BB9968C907CA
S214001C980BD4002401221F4B5A6015B11E4B1F4A55
S214001CA81A6408F02EFD204638BD1A498A601C4A78
S214001CB8D96ACC0705D4904201D10724EAE7013057
S214001CC8F6E79042E5D1F8E70132DC6A14F008043A
S214001CD806D08A42F8D10724DFE700221049F4E745
S214001CE88A42F8D020220B4B0B495A620122A3F5F0
S214001CF880539A6023460A4A486A800603D4934269
S214001D08E9D00133F8E79342C7D1E4E700900050E2
S214001D180050095000600950004009503254FFFF37
S214001D2840420F004FF0004238B5174B174C5A6622
S214001D38012203F50C235A604AF6CD33656C2364FA
S214001D48437893401343124AD363C3788178A268D2
S214001D589B0043EA011322F074021343A36002793E
S214001D68837943EA022323614279C37943EA02234B
S214001D7863610078FFF77AFFEB0744BF054B2364DF
S214001D8808F0BFFC012038BD009000500040095004
S214001D98004000503254FFFF4FF40032054B9A665D
S214001DA841F6713203F51C33DA63012203F500535A
S214001DB8DA6070470090005041F671320121064BF8
S214001DC8DA6303F50052D1600022DA634FF400327A
S214001DD8A3F518339A66704700000350CB784A7804
S214001DE810B55B010C7843EA82030A79234343EA79
S214001DF802130C22424302F1B0421363012C02BFC5
S214001E088A78024B43F8202010BD00BFE8800350B4
S214001E1808B54FF0B0435A686AB958B15B680BB159
S214001E2807F075FB01210D4B596007F070FB4FF06A
S214001E38B043D96008BD5B680BB107F068FB0028A3
S214001E48F0D107F064FB4FF0B0430222DA6007F0E7
S214001E585EFB0122024B5A60ECE700BF00100058F8
S214001E68002000584FF0B0414B6810B50BB107F092
S214001E784EFB01220B4BC4785A608378934043EAA2
S214001E88840344782343047943EA0413447943EAF1
S214001E98C4038B60044B5A600378C3F10203CB601B
S214001EA810BD00BF00200058001000584FF48032C4
S214001EB8064B5A6603F5E6235B69C3F38512827000
S214001EC803F03F021B0B42700370704700900050EF
S214001ED8024B1868C0F30740704700BF0080E00F49
S214001EE8034BD3F82424D3F820041040704700BFCF
S214001EF800C00350064BDA6E02F03002202A06D0E5
S214001F08DA6E22F0300208B142F01002DA66704744
S214001F18004000502DE9F8431E4B0546D3F8103311
S214001F284B1E0E2B0E46174690F8009044781DD987
S214001F3809B34FF000082846D7B109F0C1FA09EBF3
S214001F484903072C4FF00F014FEA031315D8A400D6
S214001F58114808FA04F2A140184407F0E0FABEB99E
S214001F6828468FB1BDE8F84309F0AABA8846E2E7E2
S214001F7807F0E4FAE3E78846E1E7083CA4000748E8
S214001F8808FA04F2A140E7E7BDE8F84307F0D6BA36
S214001F98BDE8F88300C0035004C003500CC00350CB
S214001FA82DE9F0412B4B1746D3F810234A1C06465A
S214001FB80C46407804D1D3F8241407F0CDFA04462A
S214001FC8002C2FDB072C4FF0030532782DDC4FEA68
S214001FD8840805FA08F529461F4802FA08F207F0A9
S214001FE89EFA294672781D4802F0030202FA08F2A1
S214001FF807F095FA012317F0050F194A18BF194973
S21400200803FA04F30CBFC2F81034C1F8103417F002
S214002018060F18BF134AC2F814340123104AA34007
S214002028C2F820342046BDE8F081A4F108084FEA3B
S214002038880805FA08F529460B4802FA08F207F058
S2140020486EFA7278294602F00302084802FA08F285
S214002058CEE700BF00C0035000C4035008C40350B6
S21400206800E0035000D0035004C403500CC40350CF
S21400207838B505460C4C0140D4F8303423EA000342
S214002088C4F83034D4F830341943C4F83014D4F8CB
S2140020982C340343C4F82C34012004F50054FFF70D
S2140020A829FFC4F8205438BD00C00350124B70B541
S2140020B8D3F81033064607F069FA0446481C154656
S2140020C803D1621C05D1204670BD631CFBD08C4230
S2140020D80ED13046032185F00102FFF71BFF0120D1
S2140020E804F1100305FA03F19840FFF7C1FFEAE789
S2140020F84FF0FF34E7E700BF00C0035070B5044652
S21400210808F032FB064630B90FCC044D0FC594E8EC
S214002118030085E80300304670BD00BFF4130020B6
S21400212847F6FF739A42F0B56FD002296FD8394B3D
S2140021385B5C012B6BD8384DDF0005EBC30415F844
S2140021483330A178012B13D10025E078401AA84235
S21400215802D80844C0B2F0BD431B6668A0EB530320
S21400216836F913609642D4BF1D4603F1FF30EEE7FA
S21400217860680028EFD0B0F90040944204DBB0F95C
S21400218802409442B8BF144683883D44FF2B19BFCB
S214002198C8224FF0280CB0F90620B0F908C0A2EB08
S2140021A804030CBF0126002693FBFCF333446E7829
S2140021B81BB29E4201DD002B01DA731E1BB24FF4E0
S2140021C87A7C01339BB2071D5D1E2DB24FEAC50E01
S2140021D800EBC505EA88AD689E4214FB025222EA67
S2140021E8E27202F15C02B2FBFCF204DD37F833500F
S2140021F801339542E8D200EB0E039888904228BF38
S2140022081046884238BF0846A4E7FF20A3E7002008
S214002218A1E700BFAFB60000F41300200229F0B50E
S21400222855D82C4B585C012851D82B4C04EBC001D0
S21400223814F830004B6801280FD1C8788C78904283
S21400224894BFC4EB0001C4EB0201001BCAB2824271
S214002258C8BF002233F91200F0BD002B37D08878AB
S214002268904202D3B3F90200F6E7CC78B3F900003F
S2140022789442F1D94C789988013CA1F1FF06714245
S21400228803F10405E4B2714103F10C07CEB2B4427F
S21400229816D805EBC1014FF47A756A43B1F90240C6
S2140022A84968521A04EBD47102EB610292FBF4F20D
S2140022B89042D1DBB3F902009042CDDC10B2CBE7F6
S2140022C837F831C04E1C9445E3D33146DEE7034861
S2140022D8C2E700BFAFB60000F41300200080FFFF7F
S2140022E808B50448FFF70AFFBDE80840012008F0D3
S2140022F83FBA00BFB4B6000073B5044608F03AFA11
S21400230848BB6946204608F031FA00B1FEE7134E8E
S2140023189DF8003032789A421DD00C2B09D0204602
S21400232801F098FC054620460C4908F00CFA10B156
S214002338FEE76425F7E72946204608F0EBF900B1E2
S214002348FEE73378042B06D16946204608F00EFAD5
S2140023589DF80030337002B070BD00BF0A1C002024
S21400236870B5052905460E468CB013D80023B1B1C2
S2140023786422CDE9053307939623023ECDE901236F
S214002388CDE9032308F06DFA032E0ED8DFE806F031
S2140023981D2126288B1F032B26D9212402E008F0AE
S2140023A834F9344620460CB070BD284601F03AFD94
S2140023B8044630B9284601A901F0F0FA0446002878
S2140023C8F0D0284608F05EFAECE7284601F030FD23
S2140023D8EEE70021284608F057FAE9E70221F9E770
S2140023E8284601F019FDE3E72C22002101A808F091
S2140023F8B9FD194A194B2846CDE902236423B622AB
S2140024080693CDE90432C023079340F20B1301A9C3
S214002418ADF82C3001F0BAFC044650B9082E284610
S2140024280ED0092E0FD0072E07D001F0DDFC04468B
S21400243860B1284608F0F2F9B4E701F0DBFCF6E7ED
S21400244801F0E4FCF3E701F0DBFCF0E7082128469E
S21400245808F0DBF8A6E700BF0100A00202010201AF
S2140024687FB50222084B0949CDE901234FF00073D6
S214002478CDE90313052301A94FF0FF30059308F0B3
S214002488C2F907B05DF804FB006A180000020400F1
S2140024984FF40052034B00209A660322C3F86022CA
S2140024A8704700BF009000504FF40052034B0020C6
S2140024B89A660322C3F86022704700BF00A0005047
S2140024C8B8B1036813F4E07F03F03F00C3F3821249
S2140024D80AD0012A0DD1084B41B103F580530122D9
S2140024E882401A6000207047044BF5E703F5005356
S2140024F8F5E70E20704700BF6880005064800050E3
S21400250830B58BB06C46564D0FCD0FC40FCD0FC4EB
S21400251895E8030084E80300524BD3F84C211103D6
S21400252840F18880A3F5FE431C88B4F5807F28BF59
S21400253879248DF81940FFF751F9044484F3080408
S21400254849488DF81840FEF7A1F96846FFF7AAF83B
S2140025583220FFF749F94548FFF72CFA444C012189
S2140025683520FEF789FE0020FFF744F9FFF7D8F973
S214002578236F002023F0070343F003032367FFF7C6
S214002588F9F9236F23F4744323673A4BD3F8FC20F6
S214002598D20153D4D4F88030C4F88030344BD3F802
S2140025A8202122F0030242F00202C3F82021D3F8C9
S2140025B8242122F0070242F00202C3F82421D3F8AD
S2140025C8802122F0030242F00102C3F88021D3F8EA
S2140025D8402122F0030242F00102C3F84021D3F85A
S2140025E8602122F0030242F00102C3F86021D3F80A
S2140025F8402222F0030242F00102C3F84022D3F838
S214002608002222F0070242F00102C3F80022D3F8A3
S214002618202222F0030242F00102C3F82022FFF72C
S21400262829F84FF0E0220020136943F004031361F1
S2140026380BB030BDD3F85041E4B27AE7D3F8FC20AB
S21400264822F08072C3F8FC20D4F88020C4F88020DA
S214002658D3F8FC2042F08072C3F8FC209EE700BF47
S21400266838B700000080E00F00F0490200B4C40448
S2140026780080005000ED00E007B56B46054A10687C
S214002688516803C36846FFF74DFB002003B05DF8AA
S21400269804FB00BF60B7000013B50024064A68466E
S2140026A8536F43F00103536700948DF80440FFF717
S2140026B87BFA204602B010BD004000500028ACBF90
S2140026C800F16040064B4FEA0111C9B2ABBF00F5F6
S2140026D8614000F00F0080F800131954704700BFDF
S2140026E814ED00E008B508F0E5FE0A4B1A786AB95A
S2140026F801221A7008F0D9FE6FF004021046052170
S2140027080132FFF7DBFF402AF8D108BDBDE80840D4
S21400271808F0CBBE46180020002807DB0123410935
S214002728034A00F01F00834042F82130704700BF7C
S21400273800E100E0054B421153F8223000F01F007C
S21400274823FA00F0C04300F00100704700E100E003
S214002758002808DB01224309034900F01F008240D5
S214002768603341F82320704700E100E073B5002489
S214002778684600F0C1F90C4B00981C600B4B0C4DDA
S2140027881C600C4E0C4B306018602C6007F000F88C
S2140027982046019B3268013BDB0853802B680133D7
S2140027A82B6002B070BD00BF101400200C1400206F
S2140027B8141400201C140020181400202DE9F04FD3
S2140027C80E460027984689B0054606A8144605977B
S2140027D800F092F9731C14BFB3464FF0080BB8F11B
S2140027E8000F00F0BC80C8F80070002D00F0B9801B
S2140027F8079BAB4240F2B58008F05CFE073505AB98
S21400280825F007053146009381463B462246284672
S21400281800F07CF9059E074606B130B9484608F030
S21400282844FE192009B0BDE8F08FDFF84CA1738884
S214002838DAF80010DA00C0EBC3030139272BCAF810
S214002848001074D9002C50D1854205F1080347D0F2
S21400285859463046029306F039FF0446029B059017
S214002868059A02EB030B584606F092FF059905F108
S2140028780F034A88C3F3CF03D21AABF80220CA88DC
S214002888ABF8043072B3D31A9BB201EBC202ABF8B2
S214002898063093808B88ED08A380BBF804300022AE
S2140028A8314658466580E38000F0A8F9237843F05F
S2140028B801032370DAF800300133CAF800302C4AD6
S2140028C84846136808343B4413602A4A11688B420A
S2140028D888BF136008F0E9FD0020C8F80040A1E7AB
S2140028E83446BDE7ABF80620D4E7F4182046029332
S2140028F8039206F04DFF029BF91DC90805986180F2
S214002908D91DC908A180C18879B1C900039ACD1D0F
S214002918AA1A3A44C2F3CF020144E2808A80013BF5
S214002928DB084380A388C380C0E7E180F7E7012C73
S21400293819D106F10803B3FBFBF20BFB1233A3B164
S2140029485946304606F0C2FE04462378012243F074
S214002958010331462046237000F050F9AFE72220E5
S21400296860E721205EE78542EAD13446EDE700BFFE
S214002978101400200C140020141400202DE9F3472E
S2140029880446684600F0B8F8002C00F0AB8008F063
S21400299891FD14F8086CF30704D534F806ECBEF17C
S2140029A8000F05D108F081FD012002B0BDE8F087D0
S2140029B84D494E4D0A68D5F80080A2EBCE020A6053
S2140029C834F8041C0EF1010308F10102A4F1080C06
S2140029D89BB22A60B9B3ACEBC10292F800A0B2F879
S2140029E806901AF0010F578806F002061FD1FEB9A6
S2140029F8A9EB0701012926D80EF102031F44BBB232
S214002A08C5F8008034F8026CFEB9013B9BB214F896
S214002A18081C6FF3000104F8081C002124F8061CA3
S214002A2853801378D18061F30003137031E056B1F8
S214002A3819448BB214F8081C6FF3410104F8081CFB
S214002A4800219180DEE76246DCE70CEBC608DDE98C
S214002A5800710F44B845D8D21CF83670414617F0B6
S214002A6801072AD0013B9BB214F8085C6FF30005F7
S214002A7804F8085C002524F8065C5380137865F390
S214002A8800031370C2F107030B44C3F3CF03D380CC
S214002A988B8017490B681BB1934201D85B8803B932
S214002AA80A6014490B681BB1934201D35B8803B9CB
S214002AB80A6008F0FAFC002077E7A6EB0E06012E5F
S214002AC8D0D8B8F80260A8F802703344B8F8067090
S214002AD82E689BB2013E1FB108EBC7012E60C3E704
S214002AE82E6094E7222060E71014002014140020BB
S214002AF81C140020181400200249034A0160521AC8
S214002B0842607047281C002000800020F0B506466A
S214002B180020059F4C1C08BF08213860BAB91F481A
S214002B280568002D38D0B5F802E0DB0003EBCE0EC2
S214002B38C1F1000C2878C0070BD52ABBE888B0B1CD
S214002B4805EBC005B5F802E003EBCE0EF2E7144835
S214002B58E6E7B645F1D35AB905F10804B4FBF1F037
S214002B6801FB1044A0190CB17045E7D83D60F0BDD4
S214002B7808290FD06C88013405EBC404A01B00EAB2
S214002B880C00201A8645F1D2A8880028EFD0A5EBBD
S214002B98C005D7E73046E9E72846E8E71C140020D2
S214002BA818140020134B13B51B6804460846FBB1DF
S214002BB821B96846FFF7A0FF6CB900980378D907D3
S214002BC807D55CB9C3889BB100EBC3000378DA0766
S214002BD8F8D402B010BD084B1868EFE7012C07D1EF
S214002BE883882BB1A0EBC3000378DB07F8D4F0E7A3
S214002BF80020EEE71414002018140020F8B5154F2E
S214002C0805460C463B68144EB2B1994209D041B10C
S214002C183368994204D129460120FFF7C3FF306084
S214002C28F8BD29460020FFF7BDFF33683860A34289
S214002C38F1D0002CEFD0F3E7994205D13D60336818
S214002C48A34204D13560EBE79842F7D3F7E7AB42E7
S214002C58F8D3E5E71C1400201814002070B508F017
S214002C6829FC144E05463478FCB9134B1C60134BEC
S214002C781C60134B1C6000F02BF8012008F0D1FCF8
S214002C8808F0D8FB0F4B0246186020B9284608F013
S214002C980CFC232070BD234640F2E7310A4806F0B4
S214002CA83DF90A4B186001233370284608F0FDFBEF
S214002CB80020EFE7491800202814002024140020DC
S214002CC8301400202C14002018FCFFFF20140020CD
S214002CD81FB500241B4B18689A880290D3F8060084
S214002CE89B7A00901848ADF80C208DF8043006F052
S214002CF8E6FC02A88DF808408DF80C40FFF7B2F8FD
S214002D08694601208DF80040FFF768F84FF0B0429A
S214002D1840F2FF31936923F47F7323F00303936132
S214002D280A4B5961936A13F00803FBD1136201201A
S214002D38FFF76EF80C20FFF70BFD0C20FFF7ECFCF6
S214002D4804B010BD7CB7000068B70000002000582B
S214002D5810B508F0AFFB4FF0B04304465B695A065F
S214002D68074A03F0010003F0510348BF40F0020091
S214002D78536108F099FA2046BDE8104008F095BB64
S214002D88002000580146014806F050BF4A180020A7
S214002D9810B50446416A0D4806F048FF0C4A04F18F
S214002DA8120304F1220153F8040B8B4242F8040B79
S214002DB8F9D1227C054B1A75627C5A7594F829203D
S214002DC89A7594F82B20DA7510BD00BF4A180020B3
S214002DD84E1800200D4B30B51A4652F8041B03F166
S214002DE81404416200F1120152F8045BA24241F851
S214002DF8045BF9D11A7D02745A7D42749A7DDB7D94
S214002E0880F8292080F82B3030BD00BF4A180020F3
S214002E1810B50446FFF7BCFF2046BDE81040012366
S214002E2820220149FDF798BB4A18002010B5044631
S214002E38002320220349FDF78FFB2046BDE81040FB
S214002E48FFF7C8BF4A1800200122014B1A707047C6
S214002E586A180020014B1860704700BFB4140020A1
S214002E68024B01460022186807F081BBB414002004
S214002E78024B01220021186807F070BBB41400202A
S214002E8870B50D4B0D4604461E6886B030B100235B
S214002E9830461A4607F067FB60B1FEE7074A03AB01
S214002EA807CA83E80700224629463046009407F0FA
S214002EB85CFBF1E706B070BDB414002088B70000CC
S214002EC80A4610B50C46014604480123006807F078
S214002ED87AFC844200D0FEE710BD00BFB414002080
S214002EE810B50B4C802300220A49206807F06DFCB9
S214002EF8802800D0FEE700224FF6FF71206807F012
S214002F089AFC00B1FEE7044B1B7803B9FEE710BD38
S214002F18B4140020341400206A1800200146014822
S214002F2806F084BE811800200146014806F07EBEE1
S214002F38741800200246842038B5074B074C93F9CE
S214002F4800500221802300FB054007F03AF80038BD
S214002F5818BF0120404238BD6B180020B814002066
S214002F6830B50E4C87B094F9005004240144104440
S214002F7804910090002184200594094C019300FBDD
S214002F8805400D23CDE90211064A07F06DFA003810
S214002F9818BF0120404207B030BD00BF6B180020A4
S214002FA8B814002079180020F0B5144C9BB01646CB
S214002FB89DF8802094F900C004249D180544014417
S214002FC80344842005940E4C06AF00FB0C40049185
S214002FD8019231460093CDE902570D23094A07F0BE
S214002FE843FA044632463946284607F0C3FF201EF1
S214002FF818BF012040421BB0F0BD00BF6B18002070
S214003008B8140020791800202DE9F0418CB00DF195
S21400301820081F460C4643461646026801F1100C67
S21400302807921D4620686168083403C564452B4628
S214003038F7D11046FFF772FF0E48FFF77BFF0E4BDF
S214003048842593F9000004230C4CCDE904730193FE
S21400305807AB009310210D2305FB0040CDE902863F
S214003068074A07F001FA003818BF012040420CB0A2
S214003078BDE8F08194B700006B180020B814002053
S21400308879180020F0B51F688DB0036807AE069360
S21400309835460B4601F1100C2C461868596808335B
S2140030A803C463452546F7D1136838460B93FFF7E4
S2140030B83BFF0F48FFF73EFF0E4B842593F90000B1
S2140030C804230BAA04920C4C129A0593019306ABA0
S2140030D8CDE90262009310210D2305FB0040074A44
S2140030E807F0D8F9003818BF012040420DB0F0BDEF
S2140030F894B700006B180020B81400206C18002045
S214003108F0B51646CC180519114A34449BB0044449
S21400311892F900C004940422842401440D4806AFA2
S21400312804FB0C000592019300910D233146CDE96E
S2140031380257094A07F0AEF9044632463946284689
S21400314807F018FF201E18BF012040421BB0F0BD34
S2140031586B180020B81400206C1800202DE9F047E2
S21400316800274FF00D0A1B4B04461B4E1B481F70CA
S2140031781546894606F021FF52463946304607F07E
S214003188F1FE52464FF0050ADFF8548039464046AD
S21400319807F0E8FE4046216806F048FD216808F179
S2140031A8040006F043FD3946304688F80CA006F0C1
S2140031B83DFD2168301D06F039FD284686F80CA02E
S2140031C8FFF7ACFE2846FFF7AFFE4846BDE8F047D7
S2140031D8FFF7B0BE6B1800206C180020B81400204B
S2140031E87918002000487047861800202DE9F74F08
S2140031F81D4691F8283006460C4617469DF830902E
S214003208002B58D03B2DA8BF3B2501280AD8486A72
S21400321801304862FFF7B6FD606AFFF77FFE606A16
S214003228FFF782FE2B4630463A462449009406F0BD
S21400323881FB002506464FF47A78DFF880A03146F1
S2140032485046FFF73DFEFFF713FE07F0E4FA94F842
S2140032582910074694F82800FFF712FEFFF708FE25
S214003268637BBBB107F0D7FAA37B94F829B008FBB9
S2140032780373E77B181A08FB07F713D13846FDF7E0
S21400328843F95846FFF7ECFDFDF756F90028FBD141
S214003298FFF7EEFD0135EBB29945D0D8002003B014
S2140032A8BDE8F08FFDF730F9FDF746F90028E5D0C0
S2140032B806F08CFAF8E74FF0FF30F0E70619002022
S2140032C82DE9F04390F82B50044691B08DBB0126AB
S2140032D8DFF81C81058298F8003080F828600BBB60
S2140032E81D464FF0E3093F4A86811068127906901A
S2140032F88DF81C2006AF17F8013B214684F82930C4
S21400330801200223009602AA0135ADF80890FFF7BF
S2140033186DFF052DEFD188F8006084F82B6011B09A
S214003328BDE8F083012B01D106F000FC88F80050B8
S214003338F5E7013D052D52D8DFE805F02F03513596
S214003348454502AA1746284B03F110061546186885
S2140033585968083303C5B3422A46F7D10025234BDC
S214003368666A07AA3946069320460BAB2574FFF70C
S2140033784BFE31460CA806F059FC01232146009363
S21400338828461C2306AAFFF731FF94F82B30042B97
S214003398C5D0022384F82B30C1E706F0C7FB00220D
S2140033A8134B1A70BBE7E2238DF818300123014649
S2140033B80093002006AAFFF719FF052011B0BDE804
S2140033C8F04300F067B8E2238DF818300123014671
S2140033D80093002006AAFFF709FF0620EEE7002361
S2140033E8D8E700BFA4B70000AAB70000E002E3F3DE
S2140033F886190020004870473C150020F0B50022CA
S21400340885B06D464272154A0346026040F60132A0
S2140034182C460285124A02F110072E46106851689B
S214003428083203C6BA423546F7D103F1120504AE90
S214003438224603CAB24228606960144605F10805A8
S214003448F6D101225A7340F21452DA8140F203424E
S2140034581A82002283F82B2005B0F0BD44332211CF
S214003468BAB7000010B5074C2046FFF7C7FF20463E
S214003478FFF7DCFC2046626A04F11201FFF76EFED5
S214003488204610BD3C150020014B83F829007047E4
S2140034983C150020014B83F82B0070473C15002094
S2140034A8004870473C1500200322024B186019613B
S2140034B85A6370470000025C3F22034B1A631022CF
S2140034C8DA6103229A6370470000025C024AD36BF3
S2140034D89B07FCD4704700BF0000025C044B9B6A45
S2140034E813F0240F14BF012000208000704700BF8F
S2140034F80000025C08B5FFF7F1FF064BDB6B23F410
S2140035087F4323F0EF0303431EBF0122024BC3F899
S214003518FC2F08BD0000025C00F0FF3F4368182B34
S2140035280AD0202B1DD0102B2BD1174BD3F80434E0
S214003538DB010AD401207047134BD3F804349A01F0
S214003548F8D50B6843F008030B6003680F4A9342EC
S21400355810D10B6843F040030B6000234360002043
S2140035687047094BD3F804345B01E3D50B6843F086
S2140035780403E9E7064A9342F1D10B6843F0800357
S214003588EAE70720704700BF0000025C88190020A1
S214003598871900200B4607B50749D1F80414C90750
S2140035A808D5002100920246084600F01BF803B032
S2140035B85DF804FB0120FAE70000025C0B4607B53D
S2140035C80749D1F80414C90708D500920121024614
S2140035D8002000F007F803B05DF804FB0120FAE7C6
S2140035E80000025CF0B51C465B6815468DB01A07ED
S2140035F8129E1AD1CBB17268934216D10C4B0D4A63
S21400360853F8217009AB07CA83E807001A4629460B
S214003618CDE90533CDE90333CDE90163009447F4DA
S214003628807006F06FFB0DB0F0BD0720FBE700BF0B
S214003638D8B70000CCB70000F0B504460B4B0C4ECC
S214003648586800B9F0BDC579C5F3840556F8255005
S2140036582D78A54208D1457905F00F07B1EB871FED
S21400366802D1B2EB151FEDD00833E9E7E0B700004A
S214003678A01B002010B5044680B1C06B40B123687B
S214003688074ADB79C3F3840352F823305B6998470B
S2140036982046BDE81040482100F0AEB810BD00BF77
S2140036A8A01B002038B505460C46A9B148220021C3
S2140036B807F058FCE379094AC3F3840352F8233029
S2140036C81B6913B900202C6038BD9847E8630028AA
S2140036D8F8D1A0F5C340F7E70148F5E7A01B00209E
S2140036E8009FFFFF70B4DCB2012C27D804682CB307
S2140036F8E57905F00305012D05D8657905F00F0570
S214003708B2EB851F1AD10372E579012B42600D4E84
S214003718C06BC5F3840508D0637903F0F004302C39
S21400372803D003F0E003402B04D156F825309B68FD
S21400373870BC184756F82530DB68F9E7024870BCB5
S214003748704700BFA01B0020009FFFFFD0F800C0F6
S2140037582DE9F341DDF820800E469E46BCF1000FA9
S21400376803D1204802B0BDE8F0810025C8F8005013
S2140037789CF8045015F01F052FD09CF8057007F02C
S214003788F007102F14D1AA4229D1C8F800209CF8B7
S21400379807201549C2F3840251F8222090F9081030
S2140037A854683246A446C06B02B0BDE8F041604794
S2140037B8902F05D1CDE90028C06B06F005FDD1E7AE
S2140037C8994208D1436A002BCBD1B2FBF5F305FB2F
S2140037D81324002CC5D10548C4E70548C2E70548A8
S2140037E8C0E700BF009FFFFFA01B0020809FFFFFD1
S2140037F8809CFFFF809DFFFF10B50A46044619B15E
S214003808024B00211B68984710BD00BFAC1B002068
S214003818F0B50D4604468BB018B9002420460BB008
S214003828F0BD1A4E3768002FF7D12022394602A875
S21400383807F098FB236801A80193154B1B88ADF881
S2140038481430144B1B68079300F070F804460028E1
S214003858E3D0306000F090F82046394606F04FFF77
S214003868204606F095FE38B10020306000F084F857
S214003878204606F088FED0E7204600F00BFA00281F
S214003888F2D1002DCAD02046A847C7E76815002001
S21400389838B900003CB90000024B1868003818BF59
S2140038A80120704768150020431E033306D8044BD2
S2140038B8984228BF1846642838BF6420704700BF5F
S2140038C840420F0038B505460C4641B10B6833B187
S2140038D81B68013303D0CB680BB18B684BB907F074
S2140038E829FA00204FF4B672412100F0FDF9212094
S2140038F838BD084602F046FA00230A4A85F83031F1
S214003908C5E93743C2E9003363694BB1064A422129
S21400391810684FF4C572C31A5842584100F0E4F9CB
S2140039280020E5E7801B0020B0170020F8B5044605
S21400393807F0B7FD002607460E4B1B6893B19E6836
S214003948AEB196F82420D20711D435460FCC0FC551
S2140039580FCC0FC523682B6096F8243043F001037C
S21400396886F82430384607F097FD3046F8BD1B68C1
S214003978E4E700BFB41B002010B5044618B9054B91
S214003988054A136010BD00F0B7FBD4F8E830002BEA
S214003998F6D1F4E77BA50000B01B002008B5024668
S2140039A80868FFF781FF08604868FFF77DFF4860F2
S2140039B88868FFF779FF8860C868FFF775FF0B69A6
S2140039C8C860581C03D00B48834228BF03460B61C7
S2140039D84B69581C03D00748834228BF03468869AA
S2140039E84B61FFF761FFBDE808408861104601F0AB
S2140039F885B900BF40420F00D0F8E0302DE9F0410D
S214003A0805460C4613B1838D8B424CD0D5F8DC3076
S214003A18002B4BD09E68002E48D0D868002845D08A
S214003A28013800B200281ADB002106E0128A591C69
S214003A38A24217D209B2884211DB0B1803EBD373E4
S214003A485B1003EBC30206EB8202B2F80EC003F16A
S214003A58FF3EA445EAD90FFA8EF08842EDDA212017
S214003A68BDE8F0814FF6FF7299B29142F7D09BB24B
S214003A7803EBC30306EB83062846B6F9122095F82F
S214003A882411D5F8F080FEF74BFB0746B8F1000F77
S214003A9804D00023324628461946C047AC85C5F8E8
S214003AA8E06085F82D710020BDE8F0810E20BDE8A5
S214003AB8F08100BF2DE9F04782B004460F4616464F
S214003AC801F062FB00285ED1454D2B68D4F8DCA0D7
S214003AD8D4F8E0800BB1534562D04FF00009AF60D0
S214003AE801F068FB0128074651D12B68DAF8001068
S214003AF8D8F8002013B1186888425CD0204607F032
S214003B0822F8C5E900A8D4F8F0508DF80760002D13
S214003B1858D00022204611460DF10703A847204634
S214003B2800F02AFE0546B9F1000F0FD076B9D4F892
S214003B3888300BBB012F05D025B12A4B0021032066
S214003B485B689847284602B0BDE8F087B5FA85F066
S214003B584FF485623321400900F0C6F83146204606
S214003B6800F0FCFE204B05461B6841462046984759
S214003B78D4F88830002BDDD000224FF4007320469E
S214003B8800F0CAFAD6E70023154D6B609DE70021C2
S214003B98012000F001FB01F00DFB0128FBD1A4E792
S214003BA86B68002B99D0434597D1AB689F4215D0D8
S214003BB84FF0010993E7696811B109689142A0D0EE
S214003BC859689BE794F8281094F82D3132469942A4
S214003BD828BF1946204600F04FFDA0E70025B1E7AC
S214003BE8801B0020BC1B0020B01B0020F8B50E462A
S214003BF8054607F056FC314607462846FFF7FCFE02
S214003C08044620B1384607F047FC2046F8BD01F0C8
S214003C189DFA224631462846FFF74CFF04463846AA
S214003C2807F03AFC2046F8BD084B10B4002A14BF2B
S214003C3814461C46064B1C6019B15DF8044B06F08A
S214003C48F5BC08465DF8044B704700BF7BA500002E
S214003C58B01B002013B50446694606F087FD2046CB
S214003C6806F097FEFF28024606D020469DF800106C
S214003C78FEF7D4FA02B010BD0048FBE70080FFFF4D
S214003C8808B50B460249194006F07AFD002008BD23
S214003C98070011004FF4007307B50A490DF1060234
S214003CA8ADF8063006F0A1FDBDF80630B3F5007F86
S214003CB805D1022808BF002003B05DF804FB2120C8
S214003CC8FAE700BF6C15002038B5044D044C054BC8
S214003CD8286021601A6005F01EFB38BD6C170020AE
S214003CE8B81B00207017002010B550B90548064BC1
S214003CF80160064802601868054B18601868FFF7E8
S214003D08E3FF10BDB81B00206815002070170020C0
S214003D186C1700202DE9F0418AB001AC05460B4629
S214003D282746194A02F1200C2646106851680832C0
S214003D3803C662453446F7D1002B08BF3B4600272A
S214003D4810681C463060384603F10C0690B95FFAD6
S214003D5887F842462846218806F03CFF50B9424676
S214003D682846E18806F047FF20B9424631462846ED
S214003D7806F053FF0137032F06F1080604F1020484
S214003D88E4D10AB0BDE8F08148B90000F0B589B0C2
S214003D9805460E4601F0C0FA044600BB01AC06F123
S214003DA80C070FCF0FC497E8070084E8070001A99F
S214003DB82846FFF7F3FD2846311D07F07EF804462F
S214003DC848B92846074900F04DFF044618B9284662
S214003DD801F06CFA044628463168FFF79BFF204638
S214003DE809B0F0BD40B90000014906F016BD00BF95
S214003DF895520000014906F010BD00BFA55200000C
S214003E08014906F00ABD00BFD9AB0000014906F01B
S214003E1804BD00BFD5AB0000014906F012BD00BFC7
S214003E28E5530000014906F00CBD00BF1154000020
S214003E38014906F006BD00BFB95300002DE9F0435E
S214003E488F7880460F2F0C4685B003D9212005B001
S214003E58BDE8F08327B90123374A00201370F6E738
S214003E680D784E78EDB9002EF0D194F90310E0885D
S214003E7802F03CFD2128E9D055EA0603A088DFF8C1
S214003E88C89013D002F086FD4FF60403B9F8002058
S214003E9801469A424BD1AE42334638BF2B460026DF
S214003EA82DE0082DD2D8082ED0D8DEE702F072FD15
S214003EB84FF6040501464FF60500204A136E9BB2DE
S214003EC8AB4208BF0346B1F5803FA9F800300FD9CA
S214003ED802230825136680230126C2F880302B4665
S214003EE849084FF6FF720139914228BF114608E08B
S214003EF88023012608251666C2F880302B4600293E
S214003F08EFD1002202920122013FFFB200920197F0
S214003F182A4608F1F80002F0EBFB1EB14FF48012B7
S214003F28074B5A65074BA2681A60022394E70348B2
S214003F380266A9F80030AEE78919002000C001B86B
S214003F4800D001B87C170020101C002010B50446CD
S214003F58D0F818210B4B4FF40061C3F8CC2090F82A
S214003F682420D20102F4006204F036FF94F82430CC
S214003F7813F0100F4FF4007314BF034A034A136478
S214003F8810BD00BF003E00B0001002B8002002B806
S214003F9837B50C46234D59B90A46012104F01CFFD3
S214003FA8214BEC645C6003B0BDE8304004F06EBFA3
S214003FB80122114604F010FF07221C4B0121DA608B
S214003FC8237901A885F84C306379019306F063FFDE
S214003FD8019BC2B2D34000F00F0040EA031085F8F8
S214003FE84D00A27985F84E20E27985F84F202068A2
S214003FF8286501939BB1012102888B4208D8237952
S214004008013B13440A4A136204F040FF03B030BD74
S21400401830F811500131AA4228BF2A46EDE71A4661
S214004028EDE700BF003F00B04C3F00B0006000B8AE
S214004038004000B8431C07D06FF0FF02034B104047
S2140040485A62A3F580535862704700BF00E000B874
S21400405810B504234FF03A4101240A4AD1F8180152
S214004068C2F81831C2F814314C634FF4005111638A
S214004078410742BFC2F81431A2F58052C2F818317F
S21400408810BD00BF002000BAF8B504460F46164615
S21400409807F007FA0546A047044620B1284607F069
S2140040A8FBF92046F8BD04F051F804220549D1F87A
S2140040B8F03E23EA07033343C1F8F03E024B1A6486
S2140040C8ECE700BF003000B0002002B800F018038C
S2140040D8182B0AD003070AD440F2011310F0100078
S2140040E818BF1846034BD86770470020FAE7012028
S2140040F8F8E700BF003F00B038B10368044A002B59
S21400410808BF1346034A13607047014BFAE700BF1F
S214004118A7A80000C81B002010B4D0E952412240CE
S2140041280B4052EA030104D003495DF8044B0968C2
S21400413808475DF8044B7047C81B0020024B986E72
S21400414800F00F00704700BF003F00B00F2938B5D9
S21400415805460C460ED801F02DF801280CD1074A62
S2140041682846936E23F00F032343936606F064FDF8
S214004178002038BD2120FCE70220FAE7003F00B007
S214004188014BD86E704700BF003F00B0014B0020BF
S214004198D9667047003F00B003282DE9F3478846E4
S2140041A856D82D4B13F800902C4B1E5C2C4B13F84E
S2140041B800A007F076F9074603F016FF054640B15B
S2140041C800230022CDE9003301200023002103F05C
S2140041D837FD03F011FF48B100230022CDE9003374
S2140041E8002000234FF4004103F02AFD76B31D4B50
S2140041F8DC6C04F008041C4B31464846DC6404F0CA
S21400420803F8012352463146484604F08BF8174B0C
S214004218DC646DB1164B1868D0F89010F83002F0D0
S21400422861FF14490868FFF705FF4FF0FF330B607E
S214004238B8F1000F04D0104B002103205B689847A4
S214004248384602B0BDE8F04707F026B93446D2E74C
S21400425802B0BDE8F08700BF74B9000070B900006E
S2140042686CB90000004000B8006000B8005000B804
S21400427868150020C41B0020BC1B00200F4A136CC6
S21400428813F0A00F15D1506C10F0040013D10C4B8E
S214004298D3F8F03E23F07F4323F0FF035BB1D368E7
S2140042A8C3F30362092A07D0B2F10C0018BF012035
S2140042B87047002070470120704700BF000002B812
S2140042C8003000B0F8B507460D46164683B1FFF72E
S2140042D8BFFE29463846BC8A01F02AF9B44228BFF0
S2140042E8344629462246094801F03EFA2046F8BDDB
S2140042F84FF03A420124D368D26A03F00703063324
S2140043089C40C2F30C03E41AA4B2E7E70C0000BA18
S21400431870B50D46064620B91A4B1B68A3B10E2089
S21400432811E000F047FF012829D1174B93F9004008
S214004338C4F12704641BC4F11C03002BB8BF5B42FE
S214004348232B0CDD212070BDA1F10B03002BB8BF79
S2140043585B42232BF6DC0C4B19700020F3E786F83B
S214004368265007F09EF8094AE402136A04F4FF246C
S21400437823F4FF231C43146207F08EF8EDE70220AF
S214004388E1E700BF681500208A19002000C000B8C1
S21400439810B5FFF7DBFD03F0BFF907F082F80A4A0D
S2140043A80121D2F8C83E044623F02003C2F8C83ECE
S2140043B80222064B08469A60054B5B6898472046DB
S2140043C807F06AF8002010BD003000B0001002B8F0
S2140043D8BC1B0020094B08465A6A91020BD4D3F836
S2140043E80021D20708D4D3F8803013F4706F14BFB6
S2140043F80120002070470120704700BF004001B828
S214004408F8B50D46D0F8903002EA010423EA010315
S2140044182343C0F890303D4A01F00B0323EA040119
S214004428D1642340A2F580526F070646D36410D5A0
S2140044380121FFF7CFFF60B103F088FE4FF4007349
S21400444814F0040F14BF324A324A53620422324B25
S2140044581A64E90606D514F0100F14BF00221B22B2
S2140044682E4B5A652A061DD5230616D54FF400127C
S214004478274B1A62012203F58053C3F8002107F080
S21400448810F80E210746032002F07CFD40F20122B8
S214004498224B3846DA6206F0FFFF214606F1F8009E
S2140044A802F020FEEF0503D5E00529D502F03AFD17
S2140044B8A90503D5A20526D502F040FD15F0600F24
S2140044C809D0D6F8E410304606F0EAF98022144BF4
S2140044D89867144B1A612B0510D503F037FE124A5D
S2140044E814F4006FD2F8F03E14BF43F0006323F0D4
S2140044F80063C2F8F03E0422074B1A640020F8BD99
S21400450802F00AFDD4E702F013FDD7E7006000B812
S214004518005001B8006001B8002002B8004000B89A
S214004528003F00B0000002B8003000B00A78022A47
S21400453811D0101F4242424152004B781201022B02
S2140045480BD0191F4B424B415B000549054842EA10
S2140045588312FFF799BD0122EFE70123F5E700BFB5
S214004568F0FFFF00055200000B78022B10D0181F32
S214004578434243415B004A78022A0BD0111F4A4245
S2140045884A4152000F21044843EA8202FFF77CBDE5
S2140045980123F0E70122F5E7315200002DE9F84340
S2140045A80E780446042E0D4690F824810BD1002779
S2140045B85FFA87F9484601F033FC08B14E4602E038
S2140045C80137042FF4D1304601F02AFC002849D0E0
S2140045D894F82431B34209D1AA88D4F8A4309A4270
S2140045E804D16A88B4F826319A4238D084F824610F
S2140045F8AB883046A4F828316B88A4F82631AB88F7
S21400460804F59275C4F8A430FF2384F8293006F020
S21400461899FB84F82800284601F0C2FB18BB2846F8
S21400462801F0F4FBF8B9D4F8E03053B194F824114B
S214004638414506D02046B3F91220FDF771FD84F8EF
S2140046482D01204601F030FC0949A4F82801012371
S214004658084AD1F8FC1004F1F80003F005F9002028
S214004668BDE8F88321200C2384F82431F8E700BF3E
S214004678004F00B0A43F00B070B5054690F824017E
S2140046880C460C281FD0FF2901D1212070BD1AB175
S2140046984FF0FF320D4B1A6006F054FB064695F8AD
S2140046A8240101F0F3FB844228BF0446E4B2B44276
S2140046B838BF3446E0B285F8290001F0F1FCFF283F
S2140046C8E3D00020E2E70220E0E700BFD01B00208E
S2140046D810B590F8243104460C2B44D0D0F8E030BE
S2140046E880F82810DBB3D0F8F020D2B990F82D3136
S2140046F88B421CD300222046FFF7BEFF48BB1B4B4D
S2140047081B7813F0FD0F23D1204601F0CDFB184986
S2140047180123184AD1F8FC1004F1F80003F0A4F8B5
S21400472816E0B0F94020B3F912309A42E2DD0022D2
S214004738204694F82D11FFF79FFF50B9C4F8E00003
S214004748204605F097FF4FF6FF739842014601D1C1
S214004758002010BD2046BDE81040FFF747BAFF23EB
S21400476880F82930F4E70220F3E700BF141C002085
S214004778004F00B0A43F00B0D0F89830012B01D10C
S2140047880020704770B5054650498EB006F014FBF9
S214004798D5F8E0600146AC8DC5F8E40026B133686C
S2140047A813B15B68002B6BD106F07BFE06F074FE37
S2140047B80123D5F8E4108DF80E30B389D6E9012028
S2140047C8E31A9BB200FB03224148ADF80C3003689D
S2140047D80292994207D0284606F062F880223D49A0
S2140047E83D4B88671A613D4C3B4E00F0E3FC0128C0
S2140047F8FBD1236CD907F8D4336CDA01F5D4D5F895
S214004808E41028460D919DF80E20029908AB02F098
S21400481809FD002831D100F0CDFC0128FBD12E4A35
S2140048282E49136CDB01FCD40B6CDE07F9D408A9FF
S21400483801A802F019FF00BBAA8D294B5A6495F807
S214004848243060F3410385F8243006F02AFAD5F8B8
S214004858E03002465B691968431EDBB2FD2B049103
S21400486814D9CC1C12D91F4B01311B6815D0D81C83
S21400487810D8284604A904930AE002200EB070BD9A
S2140048881A68032A90D99B6A5B0E94E7284604A9FF
S21400489806F0F1F900200EB070BDD91C04D82846E1
S2140048A804A9049306F0E7F9D5F84C319B0506D41D
S2140048B895F8243043F0020385F82430EAE72846C2
S2140048C84FF4803105F06AFFE4E700BFFC4F00B004
S2140048D878170020003F00B0000002B800C002B8F9
S2140048E8008001B8DC1B002010B50C4619B106F094
S2140048F86AF900B10434204602F04CF8024B4042F4
S214004908C3F8E00E002010BD003000B0438E70B52E
S21400491893420C4615461CD3436C8B4208BF0024B2
S21400492806F0BFFD4FF49C530B490646CA68C2F30F
S2140049380362D340DA0702D50B6C9B0304D401222A
S2140049482946204601F002F8304606F0A5FD00206C
S21400495870BD2120FCE700BF000002B8F8B5044689
S2140049680E4619B990F824305A0647D44FF6FF7306
S214004978218ED4F8E470994204D0354B1B680BB1ED
S21400498820469847334D2B68BB4255D0324B1B68A0
S2140049983BB11FB13A68002A50D0BF683946204656
S2140049A898470727204601F07FFA002E3AD004F0F1
S2140049B86DFA0620294B94F9262093F900302849E9
S2140049C8C3F127039B1A0A6ADB0222F4FF2203F4C8
S2140049D8FF2313430B62D4F8E420224B2A6098671F
S2140049E801F0C6FB002501211F4A204B1170204606
S2140049F883F8845006F020F92846F8BD4FF6FF7174
S214004A08144DD0F8E4702A6866F386139742018638
S214004A1880F8243017D0104B1B68002BB9D101F052
S214004A2843FA072712493B46124AD1F8FC1004F10C
S214004A38F80002F019FFBAE70127B3E71746204641
S214004A4839469847ADE701F02FFA0127EAE700BF95
S214004A588417002078170020801700208A19002065
S214004A6800C000B8006000B88B190020003F00B0F6
S214004A78004F00B0A43F00B0054A12681AB190F87B
S214004A881E1119B91047084602F09CBA014870472B
S214004A987417002000FEFFFF334B2DE9F7431C6810
S214004AA801F4007900F00103174653EA09020646A6
S214004AB80D4632D04FF0000823B300230022012011
S214004AC80021CDE9008803F0BBF841462046FFF7F1
S214004AD8D3FF01224146E085104605F098FDD4F83C
S214004AE8901004F1F80002F0FDFA20490868FFF774
S214004AF8A1FA4FF0FF330B6094F8243043F0040318
S214004B0884F82430B9F1000F07D00121204605F0BB
S214004B1845FE25F4007506430D432B4632462046CF
S214004B28FFF7FAFAFB070FD51149124A0868002161
S214004B38136811600121104A117003B198470F4B92
S214004B48002102205B68984717F00E0F08D04FF434
S214004B5800723B21002003B0BDE8F043FFF7C4B85D
S214004B6803B0BDE8F08300BF68150020C41B002012
S214004B78881700208C1700208C190020BC1B0020EA
S214004B8808B558220021064806F0ECF91022FF2145
S214004B98044806F0E7F904F079F9002008BD00BFDC
S214004BA8F43E00B0383F00B073B574210C236D2274
S214004BB8A0F81411822180F824314FF6FF734FF0C5
S214004BC8FF35C0E941120026C0F8002164220446D9
S214004BD8838580F82A301E4BC0E94322C36300F160
S214004BE8480343641B4B80F82660C0E90C35C0F8C0
S214004BF8A450058503F008FA2046FFF7C1FF94F98C
S214004C0826102046FFF784FB6023134A40F6FF7100
S214004C18D3644FF03A4211631167104A2946D364A9
S214004C2840220F4B20461A64D4F89020FFF7E8FB82
S214004C380E230022CDE9003340F20223104619461F
S214004C4802F0FEFF01F000F9304602B070BD00BF6A
S214004C580700FFFFFFFF4000004000B8005000B804
S214004C68002002B810B50C46FFF78AFFCCB1A3782F
S214004C78082B18D8E278082A15D843EA021313F046
S214004C88FF030CBF19466168084AC2F8F410217879
S214004C9882F84811617882F84B3182F8491104F09D
S214004CA8F5F8002010BD2120FCE700BF003E00B04C
S214004CB8012A10B512D8032B10D803EB8202012361
S214004CC8074C934094F84A01DBB221B10343002015
S214004CD884F84A3110BD20EA0303F8E72120F9E7F3
S214004CE8003E00B0044BD3F8F03E13F0806F14BFBC
S214004CF823200020704700BF003000B00246F8B5F9
S214004D08B0F8284100F1F805FFF7ECFF0B688E684D
S214004D18013304BFD2F800310B604B68013304BF7F
S214004D28D2F80C314B60771C3BD1D2F80831CF68EB
S214004D388B607E1C3CD1D2F804610F69CE600137C7
S214004D4804BFD2F8F8700F614F69013704BFD2F874
S214004D58FC704F618F69013704BFD2F810718F61FC
S214004D688F6967BBC0F1640408688C6110B16D2850
S214004D7838BF6D20C2F808314B68C2E94006C2E960
S214004D8843340B692846C2F8F8304B690F49C2F815
S214004D98FC30D1F8FC1007230D4A02F065FD002010
S214004DA8F8BD04F16D031B1AB34238BF3346BEE79D
S214004DB804F17406361ABE4238BF3E46BDE76D3467
S214004DC8241ABC4238BF3C46CEE700BF004F00B0AE
S214004DD8A43F00B038B506F064FB4FF6FF710A4AE8
S214004DE813888B4203D106F057FB0E2038BD074CBC
S214004DF8074D1B046566A4F580546366118006F0AB
S214004E084BFB0020F2E700BF121C0020006001B830
S214004E180000FFFF2DE9F74304460F4615461E46D9
S214004E28FFF72CFA28B3204605F0E5FC78B9744B52
S214004E38D3F8F02E1EB10E2003B0BDE8F08302F0C2
S214004E483003102BF7D002F0C002402AF3D0DFF868
S214004E58E08102F061FCD8F81430DE07EBD506F0E6
S214004E6820FB0646032001F02DFC20B1304606F054
S214004E7813FB0220E0E7D8F8142012F00608F5D154
S214004E88304606F009FB5E4B4FF400612046D3F827
S214004E98F09ED3F8D06E03F0B3FF40B14FF4007223
S214004EA80121584B08461A64424605F0B0FB3946BD
S214004EB82046FEF79BFE524BC3F8F09EC3F8D06E12
S214004EC80028B9D194F82430980601D4002D57D07C
S214004ED8C5F3400003F000F9022315F4807F1FBFD6
S214004EE8494A002113644FF03A420BBF454A916184
S214004EF81364536303F02AF94FF4806315F0040F24
S214004F0814BF424A424A15F0400F53624FF004025B
S214004F183C4B28461A644FF0400314BF3D4A3E4AAD
S214004F28C2F88830FFF7D2F8204605F057FD38B1AA
S214004F384FF4807315F0010F14BF334A314A1364D7
S214004F48A90646D54FF6FF72E38F93420FD0334A31
S214004F583349526E100CC2F301120132B3FBF2F35E
S214004F6808802A4A2A492F481B0448665366003D8B
S214004F7818BF012594F8243065F3451384F82430C7
S214004F88204605F020FEF0B1204605F027FDD0B1FA
S214004F984FF40031204603F033FF431C03229BB234
S214004FA8214801A905F0BDFE9DF8042002F007037C
S214004FB8052B9DF8053015D112070DD443F48073E0
S214004FC81A4AC2F8D830002003B0BDE8F04305F00E
S214004FD8B3BEFFF7FFFECAE713F0040F09D19DF82A
S214004FE80630EBE703F03002202A05D113F0010F54
S214004FF8F4E74FF48073E3E79DF80630E0E700BF78
S214005008003000B0002002B8001002B8005001B806
S214005018006001B800D000B800E000B8004001B851
S214005028121C00200000FFFF0C0000BA003E00B073
S21400503800C001B82DE9F3410646884615461F46C6
S21400504806F02FFA0446032001F03CFB38B1204650
S21400505806F022FA0E24204602B0BDE8F0810420AD
S21400506801F030FB0028F2D1204606F015FA01239D
S2140050782A4641463046FFF7CDFE04460028EAD1C8
S214005088DFF8C4804FB388F8000039463046FEF78C
S214005098D5FE00284AD198F80030012B1AD02022D5
S2140050A8234B1A64234B9B6FB3F5817F1DD20120D7
S2140050B805F05BFE06F0F5F91F4B06461B680193E4
S2140050C8BBB901F067FB2B0625D401F0A7FB02F05D
S2140050D8D9FF25E002F0EAFFBDE798F80030012B7B
S2140050E8F8D0002BDBD12124B5E78022134B1A61B8
S2140050F8DDE7042001F0F0F900230122042001A9CD
S21400510801F008FA0028DCD103F038F821243046EC
S21400511806F0C2F99FE70022094B9A6701F07EFB6A
S214005128084B01215B6800209847F0E7044692E7A1
S214005138001002B8003F00B07C170020000002B83C
S21400514800C001B8BC1B00208919002008B50B4B0D
S214005158D3F84C114B1C10D011F080410DD1084BE0
S2140051681B6813B10320FFF717F84FF08062054B52
S214005178DA6401225A6102229A6208BD0080E00FB2
S21400518868150020001002B84FF40022034B186C74
S21400519803F500531A64C0F3C0407047000002B815
S2140051A8024B034A00201A60704700BF8017002091
S2140051B8993F00000F4BDB68C3F30363013B0B2BDF
S2140051C80FD8DFE803F006060C06060606080A08E7
S2140051D808080220704704207047052070470320FF
S2140051E87047054B5B6913F0060F0CBF01200420BF
S2140051F8704700BF000002B800C001B8094AD3686B
S214005208C3F303630B2B08D06FF49050184100F0DB
S214005218010080F0010040007047106C10F48030E8
S214005228EDD17047000002B80C4AD368C3F3036395
S214005238062B07D8042BD8B20BD8C31E58425841A1
S21400524840007047072B06D1D2F844010028ECD15D
S2140052587047022070470020704700BF000002B861
S214005268094BDB68C3F303639A1E012A8CBF00222E
S2140052780122012B02701EBF4FF4026222FA03F3CA
S21400528803F001030B707047000002B8024B0022BF
S214005298196805F06EBC00BFC4B90000024B0122B5
S2140052A8196805F066BC00BFC0B9000010B5FF223B
S2140052B84FF6FF71044605F08DFC68B9FF224FF6DD
S2140052C8FF71204605F097FC30B92046BDE810402F
S2140052D8FF22024905F0A1BC10BD00BF78B9000046
S2140052E810B55B0743EA02439DF8082043EAC1630A
S2140052F8520502F0BC621A43064942F4C8720446D4
S21400530803F06AFD002220461146FFF7FFFA002048
S21400531810BD00BF9007E12D37B50C460546094A73
S21400532809490A4801F0EAFB94F828302846009311
S21400533894F82B3094F8292094F82A10FFF7D0FF19
S21400534803B030BD2CBA000034BA0000FCB9000027
S21400535813B590F825300446033BDBB2072B96BFFF
S214005368104A0021D15CFEF711FF012001F008F871
S2140053784FF4F0620C4BDA644FF40072A3F58053D6
S214005388DA6494F82530053B012B08D80421074B2E
S21400539801229B6E0DEB0100019300F0D7FA02B0D4
S2140053A810BD00BF80B90000006000B8004001B81A
S2140053B8012310B580F816312823C0F8FC300423E2
S2140053C8044680F82530044B196805F02FF9204666
S2140053D8FFF7BEFF002010BDD4B90000012310B5AA
S2140053E880F816312823C0F8FC300723044680F8D6
S2140053F82530044B196805F019F92046FFF7A8FF71
S214005408002010BDC8B90000012310B580F8163179
S2140054182823C0F8FC300223044680F82530044BC5
S214005428196805F003F92046FFF792FF002010BD23
S214005438D8B90000012910B5044604D90239012953
S21400544815D90E2012E00C4B19680523012284F8A2
S21400545816214FF4BC7284F82530C4F8FC20204688
S21400546805F0E4F82046FFF773FF002010BD034B55
S21400547819680623EAE700BFD0B90000CCB90000D7
S21400548838B5184B04461D6845B1EB6833B1286833
S21400549801F086FCAB68186801F082FC124B1B68AA
S2140054A82BB1DA681AB19B68186801F079FC0F4BC3
S2140054B81B682BB1DA681AB19B68186801F070FC93
S2140054C80B4B1B682BB1DA681AB19B68186801F099
S2140054D867FC2046FFF798FF2046BDE83840FFF7F0
S2140054E837BF00BFD8B90000D4B90000D0B9000053
S2140054F8CCB9000010B54FF4F06204460020094B02
S21400550884F8160184F82500DA6400F039FF0649A5
S21400551804F1F8000223BDE81040044AD1F8FC1054
S21400552802F0A2B9006000B8004F00B0A43F00B077
S21400553810B590F82500A0B1304BD3F8BC2012F077
S214005548060F01D004280DD94FF470622C4BDA6090
S2140055584FF48072A3F58053DA600022274BC3F815
S214005568B82010BD02F0020412F0040202D00B7834
S2140055789B0637D4002C39D00B7803F00F03072B83
S21400558834D14B78022B31D98B7813F03E0F2DD0BF
S214005598CC7814F0040F29D014F0010F0CBF0423A4
S2140055A80A23A40748BF0633CB5CFBB1002A14BF06
S2140055B802220122042840F6FF7003F01F0108BFEC
S2140055C84900013940EA01310E4801654FF4706020
S2140055D80B491202C860A1F58051CA60074AC2F892
S2140055E8B830BEE7002CC7D18B7823B90023054A0C
S2140055F813650122EAE70222DCE700BF003E00B09E
S214005608006000B8004000B80A68064B12F0802F09
S2140056181CBF42F20101C3F82812C3F88822C3F857
S2140056288C227047004001B8F0B585B06C460E462F
S2140056380B4B074615460FCB84E80F00094BD3F8EB
S2140056484822009226B16B1EDBB2FD2B88BF326063
S2140056582A462146384605F00EFB05B0F0BD00BFC9
S21400566888B900000080E00F30B50823054685B0ED
S21400567880B9094AC2F8FC3351B96C46074B0FCBC0
S21400568884E80F00064B2A4621461868FFF7CCFF29
S21400569805B030BD034AEDE7001002B898B900001F
S2140056A868150020002002B84FF03A43D3F81421BA
S2140056B8D2031ED54FF480320E49C1F81421A1F545
S2140056C88051C1F818215A6DD1B2C2F30722C3F827
S2140056D8A410C3F8A4200422C3F8A4200022C3F808
S2140056E8A420C3F8A420C3F8A420C3F8A420C3F8B1
S2140056F8A4207047002000BAF0220B4B01219A64C0
S214005708A022A3F580539A644FF03A43426CC3F83C
S214005718F410FC21C3F8CC10C3F8D0204FF4005284
S214005728C3F8F020704700BF006000B8F8B50D4613
S2140057384FF03A441746064605F0B3FE0123042107
S214005748074A6363E76026616561C2F81411054A73
S214005758C2F8843105F0A0FE0DB102236363F8BDDC
S214005768002000BA00E100E02DE9F04105460124DA
S214005778006800F00700063004FA00F3A868EC6832
S2140057885E1EA04262D000EA060E6C6810441E43F5
S2140057980640A3EB0E000EEB040C8242644618D9B2
S2140057A8D31A0EEB030298B1431E052B04D94B1CE3
S2140057B8ACEB0303022B59D80B460844ACEB010E9E
S2140057C803EB0E0113F8014B83420C70F8D1014627
S2140057D86C688AB1531E052B01F1010302D9E01A41
S2140057E8022812D80A44611E00E0013313F8010C9F
S2140057F8934201F8010FF8D105F053FE0223AE607C
S214005808AB62BDE8F04105F047BE0B46204622F0E5
S214005818030E8E4453F804CB734540F804CBF9D1F5
S21400582822F00303D01A920701EB030C04EB0307DC
S214005838E2D0CA5C0128E254DED09CF80130022887
S2140058487B70D9D09CF80230BB70D5E7042A35D9CE
S2140058580878043AA86148780431A86111F8020C5F
S214005868A86111F8010CA861A8688CE70B4620F01F
S21400587803070F44ACEB010E1C684EF803400433D4
S214005888BB42F9D120F0030310F0030F01EB030E1F
S214005898A0EB03040CEB030728D011F80380012CB7
S2140058A80CF8038022D09EF80130022C7B7018BFBB
