S02B00007A69676265655F6770645F736F635F656E657267795F68617276657374696E675F73656E736F722E76
S21400000000100020FD120000D5F30000D5F300001C
S214000010D5F30000D5F30000D5F30000D5F30000BB
S214000020D5F30000D5F30000D5F30000D5F30000AB
S214000030D5F30000D5F30000D5F30000D5F300009B
S214000040D5F30000D5F30000D5F30000D5F300008B
S214000050D5F30000D5F30000D5F30000D5F300007B
S214000060D5F30000D5F30000D5F30000D5F300006B
S21400007085700000D5F30000D5F30000D5F300002E
S214000080D5F30000D5F30000450F0000D5F30000BF
S214000090D5F30000E51E0000D5F30000D5F3000000
S2140000A0D5F300000D1A0000ED190000D5F300008E
S2140000B0D5F3000041CE0000D5F30000A1D8000023
S2140000C0E32A0100DF2A010081D00000F92A01009E
S2140000D0E72A010071D80000EB2A0100E1D80000F1
S2140000E0CDBC00001DBD000051D90000D5F30000B6
S2140000F0D5F30000D5F30000D5F30000D5F30000DB
S214000100D5F30000D5F30000D5F30000D5F30000CA
S214000110D5F30000D5F30000D5F30000D5F30000BA
S214000120D5F30000D5F30000D5F30000D5F30000AA
S214000130D5F30000D5F300003D1100007DEB000074
S21400014082B030BF074BD3F8F030DB0704D500236E
S2140001500193019B052B01DD02B07047019B013323
S214000160F6E700BF00ED00E0F0B5114A114C124E64
S21400017000F00105E3695F0713D40DB9334213D1CC
S21400018003EA00078F4207D10B4A1A40002A0CBF29
S21400019000206FF00100F0BD013AEBD16FF00200D5
S2140001A0F9E74FF0FF30F6E76FF00100F3E700BF26
S2140001B08096980000000350020001000B4B70B5BB
S2140001C0D96911F480310DD101244FF48072084EA4
S2140001D0084DF46020462C641A61FFF7C5FF3464AE
S2140001E0EC6070BD6FF00100FBE700BF000003503D
S2140001F000100350002003504FF4003238B50F4B68
S2140002000F4C9A6641F671330122E569E3630D4BA4
S2140002100021DA60022360612120236105F4803525
S214000220FFF7A2FF10B92120FFF79EFF0122064B21
S214000230DA600DB10023E36338BD00BF00900050C4
S21400024000000350001003500020035070B5134CFC
S2140002506061E3695B071ED40E4656F8043B8D18B2
S214000260A361AE420BD10423002121202361FFF7B6
S2140002707BFF58B9BDE870402120FFF775BF082105
S2140002800846FFF771FF10B10423236170BD56F8CE
S214000290043BA361E5E74FF0FF30F7E700000350AB
S2140002A02DE9F84315464FF40032184B89469A66F6
S2140002B041F6713203F51C33DF69DA630122064624
S2140002C003F58053DFF84C8007F48037DA6055B9C1
S2140002D0284601220E4BDA601FB10022A3F5005318
S2140002E0DA63BDE8F88306F5005404EA0804A41BA4
S2140002F0AC4228BF2C46494622463046FFF7A6FFAA
S2140003000028E6D12644A1442D1BE0E700900050CB
S20C0003100020035000E0FFFF8F
S214000320013800D0FCE770472DE9F04F93B0CDE9D7
S2140003300A32DDE91C530E9353EC102BCDE908016D
S214000340104619468DED060B1E9E0DF0E5FF80B19A
S214000350DDE906014FF0FF32C54B0EF005F840B957
S214000360DDE906014FF0FF326FF480130DF0DEFF7B
S21400037070B1DDE908019DED060B0E9B1E96CDE9DA
S2140003801C53DDE90A3213B0BDE8F04F00F088B91F
S2140003900022DDE9060100230DF0C8FF002800F06A
S2140003A03381DDE906A303F1004BCBF30A5016F4C4
S2140003B08063A0F2FF3008BF06250F930DF0DAFC2D
S2140003C09BA3D3E900230DF03FFD9BA3D3E90023B5
S2140003D00DF084FBCBF31304894644F07F5180462E
S2140003E00022A44B504641F440110DF075FB94A337
S2140003F0D3E900230DF028FD02460B464046494649
S2140004000DF06CFB0DF0BAFF04460DF0B3FC8EA3A6
S214000410D3E90023804689460DF016FD0022964B50
S2140004200DF05CFB0DF0AAFF89A3D3E90023074675
S214000430494640460DF008FD8046384689460DF090
S21400044099FC85A3D3E900230DF0FEFC02460B467B
S214000450404649460DF040FB02460B46CDE90C23CC
S2140004600DF0F2FCDDE90C2380468946104619465D
S2140004700DF034FB0022CDE91001804B4046494682
S2140004800DF00CFE00227E4B0DF028FB02460B46BC
S214000490404649460DF002FE00227A4B0DF01EFB48
S2140004A002460B46404649460DF0F8FDDDE90C23B2
S2140004B08046894600204FF080410DF00DFB024635
S2140004C00B46404649460DF009FB02460B46DDE961
S2140004D010010DF0E3FD07F2FF3700226A4B0DF026
S2140004E0FDFA00223B050DF0AFFC52465B46804607
S2140004F089460DF039FF002840F08980CDE90C8947
S21400050004F16303C72B34BF0427052731051BD529
S21400051053A3D3E90023504659460DF01BFF00288D
S2140005207FD051A3D3E90023504659460DF0FEFE76
S214000530002876D00027A542C6BF2C1B04F1FF3545
S21400054000253C4646F480660E9B9F422CBF4FF02B
S2140005500008A3EB070816F0020903D0002F18BF07
S2140005604FF000083CB1DDE90C23504659460DF02B
S21400057095FD82468B46DDE90601002200230DF03C
S214000580D5FE10B10BF100439B46DDE9080126F4C9
S2140005900063CDE90183DDE90A324BEC10AB009530
S2140005A000F07EF802465FB3DDE9091316F0200F6F
S2140005B000F10105089E0CBF65204520B047DDE927
S2140005C008010523002205930A23002CCDE90232F8
S2140005D007F1FF374FEAD473B8BF64422A46019347
S2140005E004970A9B009411F03FFD0246B9F1000FF4
S2140005F006D00B9BC41A0B9B1A190E9BA34245D818
S214000600104613B0BDE8F08FDDE906ABCDE600225C
S214000610404649461A4B0DF041FD013CCDE90C0120
S2140006206EE7002D90D00F9B002B8DD0013D8BE701
S214000630FB799F501344D33FB3C8608B288AC63FCC
S21400064061436F63A787D23F71A379094F930A402E
S2140006501655B5BBB16B0240EF39FAFE422EE63FA7
S2140006602D431CEBE2361A3F0000000080842E412A
S214000670FFFFEF7F0000F83F0000E03F00002C4047
S21400068000002440000018400000F03F2020DDE974
S2140006900913089DA8470134ADE700BF000000001D
S2140006A02DE9F04F5BEC10AB97B0CDE90501DDE925
S2140006B02057CDE90723504652465B465946229EB0
S2140006C00DF02AFE70B90323CDE902760193B04BF4
S2140006D00093DDE90501DDE9072311F0E5FB17B01E
S2140006E0BDE8F08F4FF0FF326FF480135046594646
S2140006F00DF01CFE28B10423CDE902760193A54B2C
S214000700E6E74FF0FF3250465946A34B0DF02CFE5D
S21400071068B1A24A06F00403002B08BF0322A04BD0
S2140007201CBF13460422CDE902760192D0E750465C
S21400073093A3D3E9002359460DF016FE38B992A3C9
S214000740D3E90023504659460DF0F0FD68B1DDE9C7
S2140007500723DDE905014BEC10ABCDE921762095AA
S21400076017B0BDE8F04FFFF7DFBD0022002350466C
S21400077059460DF0DBFD002800F09A805B46524695
S214000780002000210DF0A8F9012382468B4609932C
S21400079016F4806400F08E80092D40F28E800024CE
S2140007A030210EABA5F109020134202C03F8011B01
S2140007B0A5EB040901D09442F6D1594650460DF0F7
S2140007C0DDFD784B054603EBC90393ED007B8DED0D
S2140007D00A7B0DF0CFFA02460B46504659460DF0FE
S2140007E07BF9DDE90A230DF02FFB02460B46CDE927
S2140007F00C230DF0EBFD80460DF0ACFA02460B46DE
S214000800DDE90C010DF068F902460B46CDE90C2334
S2140008100022654B0DF0A8FD002851D008F1010814
S21400082040460DF097FA02460B46DDE90A010DF048
S21400083087FD10B14FF000080135B9F1000F50D117
S21400084028460DF097FA02460B46504659460DF0DC
S21400085043F90022544B804689460DF067FD30B1BF
S214000860002240464946504B0DF07EFD10B1E80789
S21400087000D501350A210EAB1A19202C0AD095FB9B
S214000880F1F001FB1055303502F8015B01340546E6
S2140008900028F2D106F00302012A57D1002F55D0C6
S2140008A0099A12B916F00C0F00D0013F302245E02D
S2140008B009906DE74FF006097FE7A94600247CE71C
S2140008C00022DDE90C01384B0DF030FD0028B4D1D4
S2140008D0B8F1000F02D018F0010FAED008F10108F1
S2140008E0ABE70A210EAB2344202C0ED0B8FBF1F068
S2140008F001FB1082B8F1090F02F1300209F1FF394D
S21400090004F1010403F8012B11D83021A1440EAAEA
S214000910202CAFD0A14504F101030AD11C4609F1F1
S21400092058030DEB03092E2309F8203CA2E7804666
S214000930DAE7A1541C46EBE71A550134A74205D95D
S214000940202CF9D1CDE902760194C1E6202CF9D00D
S214000950099A3AB12D2104F158026A4402F8201C83
S2140009600134EFE7710704D504F158022B216A44DD
S214000970F4E73207E6D504F1580220216A44EDE791
S2140009800000000065CDCD410000000065CDCDC162
S2140009908D46010091460100FFFFEF7F844601006F
S2140009A089460100984601000000E03F0348044BDA
S2140009B0834202D0034B03B118477047AC2A00208D
S2140009C0AC2A002000000000064B0749C91A89100F
S2140009D048BF0131491003D0044B0BB101481847FA
S2140009E0704700BFAC2A0020AC2A002000000000A0
S2140009F010B5064C237843B9FFF7D8FF044B13B164
S214000A000448AFF300800123237010BDDC250020CE
S214000A10000000006491010008B5054B1BB10549B4
S214000A200548AFF30080BDE80840FFF7CDBF00BF24
S214000A30000000008012002064910100A3F5803AB7
S214000A40704700BF174B002B08BF134B9D46FFF7A0
S214000A50F5FF00218B460F461348144A121A12F06F
S214000A60CEF80E4B002B00D098470D4B002B00D035
S214000A7098470020002104000D000D48002802D0F1
S214000A800C48AFF300800EF00BF8200029000EF0A3
S214000A9032F80DF04BFE00BF00000800000000001A
S214000AA00000000000100020001000206427002036
S214000AB0000000000000000008B512F087FA0222CD
S214000AC0014B1A7008BD00BFDF25002010B5044694
S214000AD006F0C2FE90F82B30052B03D80122044BFB
S214000AE01A7010BD2046BDE8104012F06FBA00BF65
S214000AF0DF2500200422014B1A707047DF250020F6
S214000B00F0B589B006F0A8FE5E4B04461B785E483A
S214000B1023B109B0BDE8F0400EF027BD0EF028FD69
S214000B2094F82B30594D052B2FD8297831B902204F
S214000B30574A06F0F3FA012003F01CFE2B78002B30
S214000B4000F09D80052B00F09A804F480EF00DFDBA
S214000B502E78022E5FD1204610F070FC204606F05C
S214000B6069FB4C4A0021022006F0D8FA94F82B3094
S214000B7000210220484A06F0D1FA002342482B7092
S214000B8009B0BDE8F0400EF0F3BC062BD6D12B78AA
S214000B9013B904232B70D1E7052BCFD13F4B1E781A
S214000BA0002ECBD1102303A88DF81030039603F047
S214000BB015FE0B214FF4F06003F086FB01213D206B
S214000BC002F0A0FF01213C2002F09CFF344A05AB56
S214000BD007CA83E8070040F2011202271846ADF85C
S214000BE01C208DF8146002F0EFFC02F051FD2D4938
S214000BF0304602F041FD2C4B12209F6105F0E6FCCA
S214000C00012002F00DFD31463846284A06F086FAE5
S214000C1003F0A2FE92E7012E0AD1204606F062FDFE
S214000C2094F82B3013B1204606F004FB204A99E7CF
S214000C30042E9BD1002603A91E4803960EF0F0F85A
S214000C401D4B642205934FF40053ADF81830039BF8
S214000C502146B3FBF2F38DF81A30012305AA66731A
S214000C6030460093072306F0D3FC204606F0E2FA4F
S214000C7031460220114A06F051FA05232B7009B0BE
S214000C80F0BD00BFDD250020703F0100DF250020FD
S214000C90903401009A340100C2340100DE250020A1
S214000CA02C350100905F010000500650953401007D
S214000CB0A8340100B8120020A0010020B5340100BD
S214000CC013B5044612F0CCF9002360430549CDE97C
S214000CD00033B0FBF1F1044A044812F08AFB02B07C
S214000CE010BD00BF40420F00F1EA0000E0120020F5
S214000CF0002307B505480DF107018DF8073012F0FF
S214000D0091F99DF8070003B05DF804FBE01200209F
S214000D10002307B54FF47A71CDE90033034A04483F
S214000D2012F0C2F903B05DF804FB00BFCD0A000064
S214000D30C012002073B5144603460D4600910220EB
S214000D4000210D4A06F0EAF974B16B1EDBB2FC2BEB
S214000D500AD80A4E254414F8013B324600210220E8
S214000D6006F0DCF9AC42F6D100210220044A06F077
S214000D70D5F9002002B070BDD3340100EE34010076
S214000D80F134010010B5084B084C1968206802F0D1
S214000D9019F920680EF096FF20B12068BDE81040D3
S214000DA00EF06FBF10BD00BFA4290020C42900208C
S214000DB0F0B5154607460C461A4685B053BB1A4989
S214000DC01A4E0091306819460EF037FF68B9306841
S214000DD00EF03CFF384606F0EDF92B4622464AF662
S214000DE0A111306802F0B8F911E04AF6A111306896
S214000DF003AB02AA02F034FA10B9029B002BE6D12C
S214000E002B4622464AF6A111306802F0E9F9002086
S214000E1005B0F0BD012BFAD104480A462B464AF627
S214000E20A1110068DEE700BFFFFF0F00C429002005
S214000E3010B598B010F002F9002000F085F906F021
S214000E401BFA06F05FFA06F03FFD31480EF010FB85
S214000E5001281ED141F2883003A912F007F9034693
S214000E6030B9CDE900002B4A03992B4812F0C1FA9D
S214000E7006F0F2FC90F82B30052B07D8274A002105
S214000E80022006F04BF90122254B1A700122254B51
S214000E901A70254C254B204623600DF083FF90BB2F
S214000EA0204603A90EF02CF968BB01224FF0807390
S214000EB0CDE903234FF416731D4906931D4B059089
S214000EC0CDE90B13089340F2063340F6C411ADF893
S214000ED0343040F6F613CDE90E1340F6D8631649C3
S214000EE0CDE91030154B8DF81F00CDE91331144BAA
S214000EF02046CDE9153103A98DF8242012921793C8
S214000F000DF0A9FF10B10122054B1A7018B010BDE4
S214000F10583F0100B90A000098120020F43401007E
S214000F20DD250020DE250020B81200204C290020F8
S214000F300402020000010102F71BDA0580B14F012E
S214000F401C8122000222014B5A6170470060065045
S214000F5030B585B0044606F07FFC054620460EF008
S214000F6087FA012803461CD1104A944219D195F8F5
S214000F702B2041F28830062A28BF04230C4A03A9F6
S214000F80137012F073F8034630B9CDE90000094A31
S214000F900399094812F02DFA0123084A137005B088
S214000FA030BD054812F012F80023F6E7583F01005E
S214000FB0DF250020B90A000098120020DE25002058
S214000FC01FB5094B094A1868094B01A91860094B57
S214000FD01360094A0192094A1268CDE902230FF00C
S214000FE0EAF905B05DF804FB6429002054200020CF
S214000FF058200020582900201E3F0100BC15002064
S21400100038B505F019FB0446064D2B68D3F8B00238
S21400101005F006FB28680FF0E2F92046BDE83840E8
S21400102005F0FEBA6429002008B504F065F9012829
S2140010300ED1114B04205A6E4FF480230F495203F1
S21400104058BF0F4A4B6601F51041086258BF5366F9
S21400105005F090FA00F02AF90FF02EFD0FF02EFDA5
S2140010600FF020FD05F060FA05F01AFD00F014F907
S214001070BDE8084002F0A0B9008000500090005083
S21400108000A0005008B504480FF00EFDBDE808406B
S214001090024800F0CBBC00BFA44201006829002033
S2140010A0064B1B681A7A022A04D812B11B68044A37
S2140010B013607047032AF9D0704700BF7C290020D0
S2140010C0BC15002030B5184D8FB007AC0FCD0FC43F
S2140010D095E8070084E807000E2200210DEB0200C9
S2140010E011F08DFD4FF48012104B01A9CDE90123BC
S2140010F03E238DF80C303F238DF80D300C4B07AA9D
S21400110004932023059301230A488DF818300A4BD0
S21400111005F0B2FA044600214FF4E1300EF04BF928
S21400112020460FB030BD00BF383F01003400035AE0
S214001130E025002024160020C015002001480FF0EE
S21400114046BD00BF24160020014B1868704700BF3C
S2140011509029002030B5002589B01F4B1F4904A8F0
S214001160CDE905550795049307F02CF91C4C206033
S21400117000B9FEE729461B4A07F030FB0621206827
S21400118004F00CFB00B1FEE71749206807F052FB9D
S21400119000B1FEE708220023CDE900234FF0FF321E
S2140011A04FF0FF33206811F0C8F800B1FEE70F4B90
S2140011B020681B8802A9ADF80830ADF80C3011F095
S2140011C0A4F800B1FEE7206803A911F0B4F800B156
S2140011D0FEE709B030BD00BFA9EB00008BEB0000B6
S2140011E09029002095EB000007001100543F0100F5
S2140011F001480EF038B900BF583F010001480EF014
S214001200B1B900BF703F010003784278C3F34203D0
S21400121043EAC203DBB20C2B32D9242B09D84B226B
S2140012201A4912FB03130A22B3FBF2F303F1780008
S2140012307047732B09D89622154912FB03130A220E
S214001240B3FBF2F303F596707047942B09D8E022AF
S214001250104912FB03130A22B3FBF2F303F2C65043
S2140012607047C52B0ED840F2C71202FB03F00A23C4
S214001270A0F58430CE38B0FBF3F000F6B30070472C
S2140012807120704741F26710704700BF36FCFFFFC1
S21400129057EAFFFF859AFFFF08B503480FF004FCE6
S2140012A0BDE808400DF031BCA442010001480FF033
S2140012B0FBBB00BFA442010007B508200EF03BF9B7
S2140012C002238DF80030054B684601930EF037F880
S2140012D0082003B05DF804EB0EF038B9006A181069
S2140012E00348044A0449121A92100EF074B800BF5C
S2140012F040010000180300006427002008B500F035
S2140013002FF8FFF7EDFF124B12498B4212D3002045
S214001310114B12498B4218D3FFF794FB186850F80C
S2140013202240586840F82240013298688242F5D33D
S2140013300C33EAE70022F8E71C6844F82200013282
S2140013405C68A242F8D30833E4E70022F8E700BF5F
S2140013506C9101007891010078910100789101006C
S2140013604FF40041134B144A70B59A60D3F88820A6
S214001370124D42F47002C3F88820114A05F5005455
S21400138091664FF0FF3222664FF6DF7262660222E7
S214001390C3F8D020BFF34F8FBFF36F8F4FF44036A4
S2140013A0032005F02FF90320E66005F00FF92E6103
S2140013B070BD00BF00ED00E00000000000800044AB
S2140013C000900050014B1860704700BF982900201D
S2140013D0054B1860054B1B6F03F00703032B01D169
S2140013E011F06CBC704700BFA029002000800050A0
S2140013F0BFF34F8F0549064BCA6802F4E0621343F9
S214001400CB60BFF34F8F00BFFDE700BF00ED00E0ED
S2140014100400FA0570B5D0B1C9B10E4E431E0139AD
S21400142013F8014F2046325D02F00302012A11F83C
S214001430012F08BF04F12000B55C05F00305012D5F
S21400144008BF2032801A01D1002CE9D170BD0120DE
S214001450FCE700BF6390010030B5056887B0AB8835
S21400146004461848ADF80C300FF01EFB0022012190
S21400147003A800F0FDF80DF10B0103A800F0B2F987
S2140014809DF80B3083F001032B70AB79022B15D13E
S2140014904FF0FF330022CDE9043304A90A4B009431
S2140014A003A800F04FFA049B009401330CBF0422FB
S2140014B00122054B05A903A800F0C2F9002007B0D9
S2140014C030BD00BFA44201007BF40000002307B536
S2140014D0294801930FF0E8FA4FF4407301220421E3
S2140014E06846ADF8003000F0C3F80122234B052013
S2140014F0C3F8442401A911F023FF002839D1204B5A
S214001500D3F8F02042F00102C3F8F020D3F8FC2014
S21400151042F08072C3F8FC201A4AA3F55D431A60B5
S214001520019B194A03F5D52303F2FC43B3FBF2F300
S214001530164A013B13610223C2F8F0304FF4807361
S214001540C2F804334FF06043114AC3F8B02F114A73
S214001550C3F8802ED3F8002E42F48072C3F8002E13
S214001560FF2283F82020D3F8002E22F48072C3F8DE
S214001570002E03B05DF804FBA442010000D0035027
S21400158000ED00E0FF030040F8590D00000004E005
S21400159055CEACC5090001004FF06043D3F8802E4D
S2140015A030B5D20715D501240B4D8440D5F8FC2064
S2140015B042F08072C5F8FC20D3F8002E2243C3F810
S2140015C0002E53F82020002AF0D003F82010002028
S2140015D030BD1120FCE700BF00ED00E02DE9F04132
S2140015E004460C254FF00108124E0CB314F001000F
S2140015F00BD0002024F0010405FB00625768002F82
S214001600F3D09168C0B2B847EFE7224601302028F1
S2140016104FEA520201D0D307F8D508FA00F20F2895
S21400162024EA0204E8D9103805FB0062B432E5E784
S214001630BDE8F0813C16002008B50C480FF034FADF
S214001640192004F0D1FF28B1192004F0DBFF19207F
S21400165004F0BCFF1A2004F0C7FF28B11A2004F0DB
S214001660D1FF1A2004F0B2FF002008BDA4420100FA
S2140016702DE9F0410E461746054610B30F2922D82D
S2140016800378DBB1013BDBB2022B1CD8104AD35CDB
S2140016906A78D340DB0716D50E4BD3F81043A4B9AF
S2140016A011F03AFE80463A462846314603F050FE90
S2140016B0404611F02CFE2046BDE8F08140F2FF13B4
S2140016C0E6E72224F7E72124F5E70224F3E700BF44
S2140016D0883F010000C0035010B5044608B30378E5
S2140016E0E3B1013BDBB2022B1DD8104AD35C627813
S2140016F0D340DB0717D511F00FFE0122617823785F
S2140017008A4030214B4341F2100103F1A04303F518
S21400171070335A5011F0FBFD002010BD40F2FF134D
S214001720E5E72220F9E72120F7E700BF883F010020
S21400173010B5044608B30378E3B1013BDBB2022BD5
S2140017401DD8104AD35C6278D340DB0717D511F05A
S214001750E3FD0122617823788A4030214B4342F230
S214001760100103F1A04303F570335A5011F0CFFD7A
S214001770002010BD40F2FF13E5E72220F9E7212004
S214001780F7E700BF883F010038B50D46044610B3A2
S21400179009B30378E3B1013BDBB2022B1DD8104A34
S2140017A0D35C6278D340DB0717D511F0B5FD302245
S2140017B02378534303F1A04303F570331B69627823
S2140017C0D34003F001032B7011F0A1FD002038BDBB
S2140017D040F2FF13E5E72220F9E72120F7E700BFF4
S2140017E0883F010038B50D46044610B309B30378A8
S2140017F0E3B1013BDBB2022B1DD8104AD35C627802
S214001800D340DB0717D511F087FD302223785343EA
S21400181003F1A04303F570335B696278D34003F0AD
S21400182001032B7011F073FD002038BD40F2FF134A
S214001830E5E72220F9E72120F7E700BF883F01000F
S2140018402DE9F0410D46164698460446002851D02C
S21400185000294FD00378002B42D05A1ED2B2022A5B
S21400186003D9FF2B07D0212042E0234B9B5C427814
S214001870D340DA07F7D5022E01D9042EF3D111F0A2
S2140018804BFD23780746FF2B05D0324620462968B5
S21400189003F0A4FD28602B68013309D12378FF2BC1
S2140018A006D1164B6078D3F824140EF0B2FC2860EC
S2140018B029684B1C18D00C23114A03FB0122069BF7
S2140018C0C2F8048093602378FF2B04D001230D4ACE
S2140018D08B40C2F82434384611F019FD002007E08A
S2140018E040F2FF134278C3E7384611F010FD2D2072
S2140018F0BDE8F0812220FBE7883F010000C00350CE
S2140019003C16002000D003500F2810B5044613D80C
S21400191011F002FD0123094AA340C2F82034C2F8A0
S21400192024340C22064B02FB04330024C3E9014492
S21400193011F0EDFC204610BD2120FCE700E003502E
S2140019403C1600202DE9F0410D4690461F46044601
S214001950002842D0002940D00378002B33D0591EEF
S214001960C9B2022903D9FF2B07D0212033E01C4B34
S21400197042785B5CD340DA07F7D511F0CDFC2378CC
S2140019800646FF2B05D042462046296803F0ACFDEC
S21400199028602A68531C1AD00C23124903FB021134
S2140019A0069BC1F8B870C1F8BC302378FF2B05D071
S2140019B00123103293400C4AC2F82434304611F00A
S2140019C0A6FC002007E040F2FF134278D2E730463C
S2140019D011F09DFC2D20BDE8F0812220FBE700BF22
S2140019E0883F01003C16002000D0035008B503F0E5
S2140019F095FC054B00F0553020F05020C3F820042D
S214001A00BDE80840FFF7EABD00E0035008B503F064
S214001A1085FC054B00F0AA3020F0A020C3F8200477
S214001A20BDE80840FFF7DABD00E0035070B5036874
S214001A302B4A0446934286B04ED02A4A934249D156
S214001A40012529480FF030F8A3880122ADF80030B0
S214001A50E3880A216846ADF80430FFF709FE012244
S214001A600A2101A8FFF704FE0A266846FFF760FE73
S214001A70642005F021FB6846FFF72EFE642005F083
S214001A801BFB013EF1D103212B0103F1A04202F51D
S214001A907032C2F890146079217903F1A04341EACC
S214001AA00041C2F89414E179A27903F5703342EA52
S214001AB00142C3F8982440F20113ADF80830E368F9
S214001AC020680493A36802A90393237C8DF814303E
S214001AD003F014F906B070BD00250448B2E700BF55
S214001AE00000015A008006509C420100A0420100FE
S214001AF038B5054603F03EFA044C012801D1013CF6
S214001B0000D138BD284603F01BF9F6E7E193040040
S214001B1013B504460A480EF0C7FFA2780421B2FAAD
S214001B2082F2237852098DF8043063780DEB0100B9
S214001B308DF80530FFF79CFD002002B010BD00BFF9
S214001B40A44201002DE9F04F9A46564B85B01B780B
S214001B5006460F461546DDF83C909DF844B0DDF885
S214001B605080002B00F09780072A00F296800E9B8C
S214001B70002B00F09280B9F1000F00F08E80129BCF
S214001B80B3F5006F00F38980012803D1109B002B6A
S214001B9000F08380444B03EB05131B7B002B7ED0A9
S214001BA0424C10220021684611F029F804EB451437
S214001BB01022A7BB3946204611F021F843F2100345
S214001BC06380BBF1000F03D1E37843F00303E370B7
S214001BD0364A0E9B02EB451CCCE90193129B690129
S214001BE0581E9DF84C30C0F30A0003F003039B0612
S214001BF043EA001E53582E48012E00EA03004EEA20
S214001C000003CDF800A0535017D0B8F1000F2ED126
S214001C109CF8023068F304138CF8023027E00021A9
S214001C20204610F0ECFF4FF444736380BBF1000FC6
S214001C30CED1E37843F03003C9E713230CF1100E3E
S214001C40CCF80C309CE80F008EE80F006FF0030114
S214001C50DCF81C20109B61F39F02012FCCF81C209F
S214001C60CCF8143003D1CCF81890CCF80430002708
S214001C700D4A290102EB051342F80180159A284601
S214001C805A60694622469F605E7303F00BFA384638
S214001C9005B0BDE8F08F0748FAE70748F8E70748B9
S214001CA0F6E700BF00260020A4180020A417002096
S214001CB00F80FFF3028000F0018000F0078000F044
S214001CC038B5124B05461B78DBB1E0B111F024FBAA
S214001CD00F4A00231146147B54B92B6001251A01C4
S214001CE001EB03131D738C5011F011FB204638BD19
S214001CF00133082B02F11002EDD111F008FB054864
S214001D00F5E70548F3E70548F1E700BF00260020A1
S214001D10A4180020048000F0028000F0018000F08B
S214001D2038B511F0F9FA002305460B4A147B6CB956
S214001D300133082B02F11002F8D103F05FF9074BCC
S214001D4028461C7011F0E3FA204603E0284611F0FE
S214001D50DEFA034838BD00BFA41800200026002085
S214001D60058000F00D4B10B51B78044693B107288C
S214001D7012D811F0D1FA0A4B03EB04131A7B2AB1DE
S214001D8000241C7311F0C3FA204610BD11F0BFFAF0
S214001D900448FAE70448F8E70448F6E70026002077
S214001DA0A4180020068000F0028000F0018000F0F9
S214001DB0154B13B51868002301908DF8043011F008
S214001DC0ABFA124B1C7824B111F0A1FA104802B0FD
S214001DD010BD01221A7011F09AFA0E4B01A81C735E
S214001DE01C7783F82C4083F83C4083F84C4083F8FB
S214001DF05C4083F86C4083F87C4008238DF80730FD
S214001E0003F020F92046E2E78B3F01000026002081
S214001E10038000F0A4180020F8B50D4D2D7885B18C
S214001E20072810DC0B4D060105EB0014277B67B175
S214001E30AB510025069BA560636003F033F9284686
S214001E40F8BD0548FCE70548FAE70548F8E700BF8F
S214001E5000260020A4180020028000F0018000F078
S214001E60078000F00A4A08B512785AB107280BD83E
S214001E70084A02EB00131B7B43B1002103F0D4F8A1
S214001E80002008BD0448FCE70448FAE70448F8E7E1
S214001E9000260020A4180020028000F0018000F038
S214001EA0078000F00A4A08B512785AB107280BD8FE
S214001EB0084A02EB00131B7B43B1012103F0B4F880
S214001EC0002008BD0448FCE70448FAE70448F8E7A1
S214001ED000260020A4180020028000F0018000F0F8
S214001EE0078000F0184B2DE9F0411F6D5B6D1F4019
S214001EF000D5FEE701260025144CDFF8588037424F
S214001F0018D02368C8F85060A3B1A16828460131EC
S214001F106268A1609847637B012B0BD150B90C4BCC
S214001F2003EB45131A7B60F341021A731A7F60F3C2
S214001F3041021A770135082D4FEA460604F11004CF
S214001F40DDD1BDE8F08100BF00000450A4180020D9
S214001F50A4170020002004502DE9F04F1446064632
S214001F600D469B46C36B87B001225B6902A9606879
S214001F709847F36B01225B6903A92846984702A895
S214001F800DF097FF074648B10023A37563754FF021
S214001F90FF33A360002007B0BDE8F08F03A80DF064
S214001FA095FF0123A375237E04EBC303DD611F8425
S214001FB06368AB420ED1206003A80DF0A9FF4FF076
S214001FC0FF332075A360237D043B022B26D8002315
S214001FD0A375DFE723681A1A53425341A37503A873
S214001FE00DF096FF237D834218BFA77503A80DF05A
S214001FF071FF074602A80DF06DFF874218BF002349
S21400200003A818BFA3750DF06DFF074602A80DF0D4
S21400201069FF87421CBF0023A375D4E703A80DF011
S21400202059FF80B1F36B022228465B6904A99847E2
S21400203004A80DF05EFF0346207D032839D8DFE8AC
S21400204000F03838040903A8F3E7CC22237E04EB1B
S214002050C3031A8401F028FA109B187003A8277E81
S2140020600DF02CFF04EBC70787F82200237E03A899
S21400207004EBC303B3F8209093F822700DF02AFF08
S214002080804603A80DF02EFF8246B8F1000F15D04B
S214002090F36B022228465B6904A9984704A80DF052
S2140020A0EDFE6075637D6BB90023A3754FF00008E5
S2140020B038E0227E04EBC2021384CBE703A80DF0BF
S2140020C0C8FEEEE794F81680B8F1000FEED0B9F12E
S2140020D0000F09D1DFB10123627EE375002A44D1E7
S2140020E09F4218D1677614E0736C05EB0A025942DA
S2140020F085EA020008421CBF0021A175591E0A404D
S2140021009B1A9945D0D8A37D002BE3D1CEE7E37D7B
S21400211043B94FF000084B465246294630460DF06C
S214002120BDFBA060A27D12B123694B442361144914
S214002130237E097899421ED901332376BBF1000F1E
S2140021401BD0D2B1E37DC3B1B8F1000F15D1032F78
S21400215013D0A1684B1C10D0109B2246009330462B
S2140021600123FFF7F9FEA07507E0012FDAD0032F51
S21400217008BFA376CDE70023A375A07D0BE700BFBD
S214002180B03F01002DE9F04F0E46984600238BB075
S21400219004464FF0FF31104617468DF8133001F015
S2140021A06DF9B6F5801F3BD3B21C53D1E56A6B1CA4
S2140021B057D12046616A0DF0B7FA0546B31C18BF22
S2140021C00123DFF810910193636A626C029323681F
S2140021D005A902FB053AE36B05225B695046984762
S2140021E005A80DF001FF0DF024FF50460DF02CFF62
S2140021F04FF0000B824601464B1C05D0636C81EA0B
S2140022000A025B42134232D0294620460DF08CFA71
S214002210029BAB424DD0BBF1000F4DD10546D3E734
S214002220314605AA04F108000DF095FD0146481C4C
S21400223010D0384601F022F90122394620460DF129
S21400224013030DF07DFB28B19DF8133088F800309D
S214002250002003E0237C002BA8D12D200BB0BDE886
S214002260F08F2368ED1A636CB5FBF3F5A6E74846D6
S21400227001F004F90DF1130349462046019A0DF0CA
S2140022805FFB034690B1B21C03D0D9F80020B242DF
S2140022900CD19DF8132003930D4B88F80020494677
S2140022A01A68384610F0CFFC039B9B46D9F80810F6
S2140022B0A2E7BBF1000FD0D0B6F5801FC8D23146DA
S2140022C098F800307A6804F1080001F005F8BFE7D6
S2140022D0AC3F0100981F00202DE9F3410446174645
S2140022E098460E46194D816AE36A8B422AD04B1CEB
S2140022F018E0284601F0C2F80122294620460DF1D2
S21400230007030DF01DFB30B14346294620469DF8D5
S2140023100720B847B0B1A9684A1C05D0012E0AD0DC
S214002320E36A9942E5D10DE0696820460DF089FA26
S214002330012E0146D8D16B6881EA0302636C5B42CA
S2140023401A42D1D002B0BDE8F08100BF6C1F002059
S2140023502DE9F041036B9046826B07689A4288BF6E
S2140023608363426C436A90B002FB0377C36B0E46EE
S214002370052201A95B6904463846984701A80DF076
S21400238033FE01280146307057D0656CE26B236837
S214002390606AD2F814C005FB0030052206A9E047A3
S2140023A006A80DF021FE01284FF0000523D0D4E941
S2140023B00A3201219342CDE90B458DF834800E9503
S2140023C08DF83C102AD1194620460DF03AFA236BB8
S2140023D0626C14339B1AE06223630C9B53B99DF81E
S2140023E03C303BB1626A616C2368E06B01FB0231F2
S2140023F00DF0B2FD0C9DE36B05225B6901A9384622
S214002400984701A80DF0F0FD30702846236BA26BAC
S2140024109A4288BFA36310B0BDE8F081237C33B92D
S2140024201C490BAA04F1080000F0A4FFD5E72046DB
S214002430194A0BABFFF750FFCFE7237C23BB22469E
S214002440164904F1080000F095FF616A20460DF079
S2140024508CF9616A421C20460DF055F9054620B9F4
S214002460236B626C1344143B23632046A16A0DF071
S214002470E8F92368A062C01A636CB0FBF3F06062F0
S21400248020460DF021FAB6E700232046044AFFF75F
S21400249023FFDAE7652C0000E12B0000C9F90000F5
S2140024A065F9000073B50D46D11E4A421C461B7ED8
S2140024B04A419A4226D129682368994222D3636802
S2140024C099421FD8114E0DF107033246FFF75AFE08
S2140024D0C0B972686B689A4214D19DF80730DA1E4C
S2140024E053425341227E93420CD1636901336361A8
S2140024F0D4E90323934205D22968A26842F8231040
S21400250001332361012002B070BD00BFC41F00204C
S2140025102DE9F04F9A468BB09DF85030DFF850B159
S2140025200293DBF81030804653450D461646C0F041
S2140025309980D146DBF804300193B9F1000F00F022
S2140025408D80D8F83C3001225B6907A9019898472E
S21400255007A80DF0BBFCDBF80030984240F0858001
S21400256007A80DF0BFFC0428074614D107A80DF0F5
S214002570C0FC019B029A04463B44002A3FD1864297
S21400258012D91446361A404601990DF05AF9A9EBAD
S21400259004090190D1E7D8F83C3002225B69019823
S2140025A008A9984708A8E2E7841B544528BF544664
S2140025B0032C03EB0607AAEB040A4FEA94021CD985
S2140025C0D8F83C30294638465B69984724F0030320
S2140025D004F003061F441D44002ED4D0D8F83C3027
S2140025E001225B6908A9384698473246284608A95A
S2140025F0354410F028FB0026C5E72646ECE70746DC
S21400260000F00302039203442A1804920593049BE5
S214002610DD1B059BD81B039B9F420FD1002FB2D01A
S214002620D8F83C30012208A95B6998473A46284604
S21400263008A910F0BAFA78B93D44A4E7D8F83C30B7
S214002640012208A95B6998470422284608A910F0C9
S214002650ACFA08B9043FDAE74FF0360948460BB043
S214002660BDE8F08F4FF06309F8E74FF06F09F5E724
S214002670F01F00202DE9F0410F4616469846044606
S21400268088B060B390F83450FDB101210DF011F818
S21400269000210E9BCDE90511CDE902379DF83C30AF
S2140026A0CDF804808DF81C30237C04968BB90D4938
S2140026B001AA04F1080000F05DFEDDE90553E06BB9
S2140026C0002E08BF1D460DF08DF9284608B0BDE85F
S2140026D0F0812046044A01ABFFF7FEFDEDE7054614
S2140026E0F3E700BF93F90000A52400002DE9F04FA2
S2140026F099B00F4609920A69416C0E931439D31D9E
S214002700B3FBF1F3013302EBC302036B04469342BF
S214002710C0F00D820023DFF820940D93E36A48464C
S2140027201946079300F0AAFED7E9033604930E9BDA
S214002730022B4ED1CC2E40F08A81099B002B42D032
S214002740394620460DF0ACF9656C079A6B1E1340AF
S2140027501490ED1AE36B01225B6916A97868984716
S21400276016A80DF0B7FB00280CBF04230823782E0C
S21400277006933DD9012300254FF0080A05933B68D0
S21400278005990E98C9F80030C9F810600DF0C4FB22
S2140027904FEA9A0310930023DDF81CB089F8140062
S2140027A00B930F9308930C93616C4A1E0BEA02027C
S2140027B08B1A002E38D05544AB4240D8236B5B1A98
S2140027C013442363ABE0049B1B681493082306930F
S2140027D0D0E7656C079A6B1E1340782EA5EB0305B1
S2140027E016D8FB7D7BB9099B002BB3D10423069337
S2140027F0331DAB4210D9A6B1082DBBD80425002343
S214002800AA460593BBE7099B002BA3D10823EEE756
S214002810099B002B9ED1D9E7002505954FF0040AA9
S214002820ADE704250596F9E75345C7D3B0460BEB4D
S2140028300A030393089B002B18BF032313E0A3EBA4
S2140028400A039E42B0460BEB0A0228BF98469E42F9
S2140028500392EFD90123D9F8102089F81730964251
S21400286071D1C9F804B0089399F81730002B6CD0D2
S21400287099F818200899D31C09EBC3030132C3F852
S21400288004B0A3F80880997289F81820B8F1000FF0
S21400289014D00E9B022B5BD10B9B7BB90F9B434442
S2140028A0032B0BD9E36B01229B69039814A9984765
S2140028B00546002840F03D8101230B93089B16A88F
S2140028C00193059B009399F814204346396800F05D
S2140028D08BFDE36B58469B69109A16A99847051E10
S2140028E00D9B18BF5B4652460D93594643462046FD
S2140028F00CF0D4FF236B08F10302A3EB0A0322F0CB
S21400290003029B1AC9F808002363002D40F01181CA
S2140029100F9BDDF80CB04344A6EB08060F93594610
S21400292020460CF08EFF00258346002E7FF43CAF39
S214002930814A3968936804F10800E36252680E9B86
S21400294000F0CAFCDEE002238DE7C9F804B09DE77C
S214002950099B002B30D1049BB8F1030F43440A9324
S21400296027D9DDE90301E36B4FEA98029B69984794
S2140029700546002865D118F003025FD0049B28F0B6
S21400298003052B440493039B1D444FF0FF33049927
S21400299015A8159310F057F9E36B28469B6901229A
S2140029A015A9984705460A9B0493002D86D0039BDD
S2140029B099E74246039DE8E7039B0A9307F1200345
S2140029C01193FB7D78689BB100233D7E0C9AD9B2AB
S2140029D08D4211D9119903F1010C31F8331091424F
S2140029E026D9069907EBC303D8690A44104403E0C6
S2140029F00C9B069A13441844E36B01225B6915A9E5
S214002A009847159B012213930C9B0A9804330C934A
S214002A10E36B13A99B699847039B0A9A43449B1A46
S214002A20042B054607D978B9134604330A93C8E73A
S214002A306346521ACBE70A9B0393B6E70A9B0493B6
S214002A403CE70A9B0493B2E70A9B0393AFE7702622
S214002A5004F1080303932368079A606CA2EB030A49
S214002A60BAFBF0FA00FB0A300DF0EEFAE16A804697
S214002A7020460CF0E6FEA26A82424AD0626CD9F882
S214002A800830511E0B40216B2568891A0B442363BE
S214002A900D9BE0625D1BB5FBF2F5AA4536D1079BA0
S214002AA0B3EB080A12D0E36B4FEA9A0241469B69E1
S214002AB098478346E36A079A5344E362236B039876
S214002AC09B1A434423630DF017F9DA462368616CBA
S214002AD0E06B01FB05310DF02CFA20460CF0F4FDFE
S214002AE020460CF0F1FE2063BAF1000F11D03A69CF
S214002AF0616CD31D1439B3FBF1F3013302EBC3024F
S214002B009042A8D2304619B0BDE8F08F4FF0000AC8
S214002B10DCE73A69616CD31D1439B3FBF1F301337A
S214002B2002EBC302236B9342BFF4F8ADEAE71C2620
S214002B30E8E72E468CE700BF981F00202DE9F347F4
S214002B401E4643690446B342884617469DF82890B9
S214002B503DD300258DF8075020460CF081FDD4F8B3
S214002B6030A082450AD2236AB5EB430F06D2002274
S214002B7020460DF10701FFF7EBFB30B39DF8073059
S214002B80012B05D1002220460DF10701FFF7E0FBDF
S214002B90B9F1030F06D0314620460CF04CFD256BEC
S214002BA0854218D30D4D4FF0FF31284600F066FCE5
S214002BB04B46002229462046C5E90376C5F8008024
S214002BC002B0BDE8F047FFF791BD0135C4E76220CB
S214002BD002B0BDE8F0871C20FAE700BFC41F002043
S214002BE0032A2DE9F34106460D4617461C4606D134
S214002BF0237A012B23D0012002B0BDE8F081DFF854
S214002C006080096842460DF10703FFF7BBFA606073
S214002C100028EDD19DF80720237A032AE8D0D8F8BB
S214002C2004106A689142E3D1012B2969D4F80CC0DC
S214002C3007D172690CEB0103934202D92074207C01
S214002C40DAE708316144E1603B4601222946304616
S214002C50FFF74CFD60600028CAD00020CCE700BF1C
S214002C60C41F00202DE9F341089C032A1746266856
S214002C7006D1237A012B24D0012002B0BDE8F081D2
S214002C80DFF89080304642460DF10703FFF77AFAE8
S214002C9060600028EDD12568D8F80400A96AD5F848
S214002CA044C04840CCF100031840227AE1D1012A02
S214002CB009D1E268D8F8103013447269934202D9F9
S214002CC02074207CD9E72868EB6A1B1A081AB3FB25
S214002CD0FCF3B0FBFCF083420BD1706CF36A421E2F
S214002CE01340326B121A1344284633630CF0A9FDC6
S214002CF0E862D8F81020E36808321344E360012243
S214002D003B4604492068FFF7F1FC60600028B0D01D
S214002D100020B2E7C41F00202DE9F04F4FF0FF332C
S214002D204FF6FF720025044600F10806C0E90923A5
S214002D308BB0C3620562056330460F460CF0DCFFBD
S214002D4020460CF0C1FC20BB204639460CF03CFD6A
S214002D5020460CF0B9FC20BB5E200BB0BDE8F08F1F
S214002D60E26B2368606CD2F814C000FB05300522C5
S214002D7005A9E04705A80DF037F9012828D129460E
S214002D8020460CF0F2FC421C294620460CF0BBFC08
S214002D900135E3699D42E3D320460CF095FC0028FC
S214002DA0D2D000254FF0FF394FF6FF73CA46A8462B
S214002DB0C4E90853E369984514D3A5EB0905012D2A
S214002DC036D84FF6FF72636A934246D16720C4E74F
S214002DD00DF034F90028DBD0294620460CF0C5FC5F
S214002DE00246D1E72368E26B606C576900FB083047
S214002DF0052205A9B84705A80DF0F6F8834605A8EC
S214002E000DF0C9F8074658460DF013F968B1574556
S214002E1038BFC4F82480B94528BFB946BD4238BF7C
S214002E203D46BA46236A0133236208F10108C1E72A
S214002E304FF6FF7300256362E3699D42C1D2676C5B
S214002E402068E36B052207FB05005B6905A9984728
S214002E5005A80DF0A0F80135EEE7E26B676C206878
S214002E60694607FB030055690522A84768460DF02A
S214002E7092F8626A2368606C504D00FB02300DF0D9
S214002E80E3F84FF0FF33A062E3622A466FF00101D9
S214002E90204605ABFFF776F900284FD1AD682946E6
S214002EA02046E5620CF0ECFB206320B92046E16A80
S214002EB00CF0C7FCE062294620460CF0C2FC054632
S214002EC0A36A9D423CD16569626CE91C143AB1FB69
S214002ED0F2F14FF0000805EBC1050335B5FBF2F53E
S214002EE0C1460235E36999453CD3A8455AD22046E7
S214002EF0616A0CF019FC0027064604F1400AB84542
S214002F0012D8626C2368694602FB0639E36B052219
S214002F105B694846984768460DF03DF853460246BA
S214002F204946E06B0DF092F8314620460CF0FCFB6B
S214002F300137AF420646E2D364200EE7A56AAEE745
S214002F40294620460CF09CFB236B29460344074683
S214002F50236320460CF075FC0546002FB0D1C4E96B
S214002F600B07ADE7636C2768052203FB0977E36B65
S214002F7005A95B693846984705A80DF035F80DF0A9
S214002F8058F860B138460DF05FF8014620460CF060
S214002F9077FB636C143B984208BF08F1010809F1FF
S214002FA001099FE730460CF0A7FE0023204619468D
S214002FB0034AFFF791F90020CFE600BFC41F0020A8
S214002FC02FF900000023624A2DE9F04117680E46EB
S214002FD00446136018B921252846BDE8F08190F80C
S214002FE034500DB309680268914240F0A9807168B8
S214002FF04268914240F0A480B1688268914240F0F5
S2140030009F80F168C268914240F09A8031694269B7
S214003010914240F09580B169C26B914240F0908039
S21400302072691D468261D7E750222946D0F838805B
S2140030300FF0E5FDD6E90212336804F108002360BC
S2140030407368C4F838806360336963617369A36129
S2140030500CF064FEB36904F14000E3639B68984794
S21400306094F8432020B1E561002AB4D05B25B3E78D
S214003070656C002DF7D06668B6FBF5F3E361002AB1
S214003080A9D0B542F2D82268B2FBF5F105FB1122B1
S214003090002A57D105FB1363002B53D120460CF0B2
S2140030A0DFFAA369043303449E424DD340F63472DC
S2140030B06369CC3B934249D8B5F5805FD6D30321EC
S2140030C020460CF0F6FAD4E90001E36B1B6898473B
S2140030D00546E36B0220DB6898471DB1002384F8A1
S2140030E034301DE039462046FFF716FE64280546B4
S2140030F004D139462046FFF70FFE0546636C143BA5
S214003100002DEBD1226A204602FB03F60CF0A8FA4B
S214003110A369043303449E4206D284F834505A25E9
S214003120E06B0CF05FFC57E70123D4E90001094A85
S21400313084F834301368013313600CF089FEEFE72F
S2140031405D2549E7592547E75A2545E75F2543E7C3
S21400315028190020241900202DE9FF410F4690462B
S2140031601E46054698B390F8343093B3B1F5801FE9
S21400317031D21A4C02210CF09CFA224639462846D7
S2140031800DF10F03FEF7FEFF024678B1012342461B
S2140031900093394633462846FFF7D0FC0446E86BD2
S2140031A00CF020FC204604B0BDE8F0819DF80F30FE
S2140031B0012BEBD12169B142E8D100934146334659
S2140031C02846FFF7A5F904460028DFD1E7E72124C3
S2140031D0E8E71124E6E72924E4E700BFF01F002013
S2140031E02DE9FF410C4616461F46054680B390F86B
S2140031F034307BB3B1F5801F2ED2DFF8608001211A
S2140032000CF057FA2146424628460DF10F03FEF70A
S214003210B9FF044670B99DF80F30012B11D1D8F8CC
S2140032201030BB4212D10246009031462846FFF7C6
S2140032306FF90446E86B0CF0D5FB204604B0BDE8F9
S214003240F081022B14BF2D246024F3E76324F1E7FA
S2140032502124F2E71124F0E72924EEE7F01F0020EE
S2140032602DE9F3411F4600230C46164605463B60F3
S21400327050B390F834304BB3B1F5801F28D2DFF846
S214003280548001210CF015FA2146424628460DF1DD
S2140032900703FEF777FF0446A0B99DF80730032B17
S2140032A010D0022B0AD10123336004233B60E86B65
S2140032B00CF098FB204602B0BDE8F081D8F810303C
S2140032C03060F3E72D24F2E72124F3E71124F1E739
S2140032D02924EFE7F01F00202DE9F043466886B367
S2140032E0056898464FF0000CA946AE4655F83C4097
S2140032F00CF1010CC4F31307013401D0B94217D006
S21400330066450EF1080EF1D12F46002403E0A642D2
S21400331007F1080712D055F8343001340133F6D1DE
S214003320C1F3130141EA0851C7E90012BDE8F08372
S21400333041EA0851CEE90012BDE8F083B8F1030F68
S21400334003D101230372BDE8F083002303E09E420D
S21400335009F10809F5D055F833400133C4F3075492
S214003360032CF4D1C1F3130343EA0853C9E900322E
S214003370BDE8F0832DE9F0410646406882B0C0B152
S2140033800F4690460024336853F8345003EBC403CA
S214003390C5F30752C5F31301013504F1010406D045
S2140033A05B683046CDF80080B84710B1706884423C
S2140033B0E9D302B0BDE8F081024B1968024B1868E9
S2140033C0FFF700BEA4290020C429002008B50FF08E
S2140033D09AFF014B186008BD1C200020014B18689E
S2140033E00FF08CBF1C20002073B504462248012A2B
S2140033F000EAC1119DF8185023F07C4007D9961EAC
S214003400012E28D9073303F07F03194308E09DF8FF
S2140034101C300A43DB0603F0C053134343F06041FD
S2140034200023C4E900108DF80730B5B120222146EC
S2140034300DF107000CF024FE1A220DF10700211DE5
S2140034400CF01EFE082063689DF8072043EA82639E
S214003450636002B070BD1143E2E71B220DF1070066
S21400346021460CF00DFE23689DF80720042043EA51
S214003470C2632360EDE700BF80FFFF0738B5094B46
S2140034800D461A68002104460FF0B9FB00234FF0E2
S214003490FF322383C4E900252361A260E382A3767A
S2140034A038BD00BFAC3F01000138C0B205289ABF46
S2140034B0014B185C01207047B13F01002DE9F04137
S2140034C00746154600240E46596888B0490A012961
S2140034D022464FEA510104F10104F8D8DC789978C5
S2140034E024031B88C90201F4006104F480540C43D1
S2140034F0C3F30A035203234492B24FF000089C1809
S214003500274B6FEA0444039325F07843ED4302A962
S2140035100DF107001B2202938DF807800CF0B0FD1A
S2140035209DF80720029B02A943EAC2630DF107003B
S2140035301B2225F07845049302958DF807800CF041
S2140035409FFD9DF80720029B6FEA144443EAC2637E
S21400355005934FF0FF330794069307A9BB69012232
S21400356006F110009847BB6905A90446012206F13A
S21400357008009847BB69404518BF044604A90122C5
S214003580301D98470122404518BF0446BB693046A7
S21400359003A99847404508BF204608B0BDE8F0811B
S2140035A001009AB2034B5A6812B19A6A002AFAD1FD
S2140035B0704700BF00400650024A936A0342FCD19F
S2140035C0704700BF00400650436870B5B3FA83F3F7
S2140035D0104DC3F11F046B6801460BB1FFF7E2FF05
S2140035E001260D4B20205E60FFF7E6FF0A7A4B7837
S2140035F043EA420343EA04134A7AAB608B7A43EA0F
S21400360042036B62054B5E600B7813B1FFF7CAFF8F
S214003610EE6070BD00400650006006500050065038
S214003620124910B504462020FFF7C6FF4B6843B981
S21400363034B14B680BB1FFF7B5FF01220C4B5A6053
S21400364010BD4B680BB1FFF7ADFF002CF5D1FFF7AF
S214003650A9FF0223CB60FFF7A5FFBDE810400122BB
S214003660044B20205A60FFF7A7BF00BF004006505B
S214003670005006500060065008B51020FFF79CFF6B
S214003680024B1963BDE80840FFF796BF004006509E
S21400369008B5FFF787FF02230449CB6000230B62BF
S2140036A0FFF780FF0123CB6008BD00BF0040065037
S2140036B0044BD3F88420D206FBD4D3F88400C0F39E
S2140036C0811070470040005038B5184B0546D3F8B7
S2140036D024010C4600F00700062823D8DFE800F097
S2140036E0040A121A1E0E1600012305B1286004B142
S2140036F0236038BD0FF0BCFA0523F6E70FF0B8FAE2
S2140037000623F2E70FF0F4FA0323EEE70FF0F0FAE1
S2140037100423EAE70FF0E8FA0223E6E70FF0EEFAF2
S2140037200723E2E700231846DFE700BF00800050CB
S21400373038B5104B0546D3F800310C4603F00303AA
S214003740022B0BD0032B0DD0012B0FD10FF0D0FA8C
S214003750032305B1286004B1236038BD0FF0D2FA08
S2140037600823F6E70FF0CAFA0723F2E70123002042
S214003770EFE700BF0080005038B5104B0546D3F881
S21400378020310C4603F00303022B0BD0032B0DD085
S214003790012B0FD10FF06CFA052305B1286004B198
S2140037A0236038BD0FF0A4FA0323F6E70FF09CFA67
S2140037B00223F2E701230020EFE700BF008000505D
S2140037C038B5104B0546D3F840310C4603F00303DA
S2140037D0022B0BD0032B0DD0012B0FD10FF088FD41
S2140037E0092305B1286004B1236038BD0FF08AFABA
S2140037F00823F6E70FF07FFD0B23F2E701230020F6
S214003800EFE700BF0080005038B5104B0546D3F8F0
S21400381060310C4603F00303022B0BD0032B0DD0B4
S214003820012B0FD10FF064FD092305B1286004B108
S214003830236038BD0FF066FA0823F6E70FF05BFD4D
S2140038400B23F2E701230020EFE700BF00800050C3
S2140038502E4B98424AD022D82D4B984240D014D8AE
S2140038602C4B984239D00AD82B4B984232D02B4B4F
S21400387098422FD02A4B98422CD000207047294BD4
S2140038809842FAD1284B186F7047284B98422AD096
S214003890274B9842F1D1244BD3F880007047254B34
S2140038A098422BD009D8244B984223D0234B9842D9
S2140038B0E3D11D4BD3F88C007047214B984221D0A2
S2140038C003F5740303F510539842D6D1164BD3F87C
S2140038D098007047144B986D7047134B586E70479E
S2140038E0114B586F7047104B986F70470E4BD3F8BC
S2140038F0840070470C4BD3F8880070470A4BD3F807
S21400390090007047084BD3F8940070470048E801D1
S2140039100024F400C0CF6A0080841E0000093D0029
S21400392040420F00405DC6000080E00FC0EA210163
S21400393080BA8C01007E560380D54302006CDC0200
S2140039400090D00373B50D4600210E4B0191D3F8BD
S2140039508041064604F00304012C09D0022C0CD04A
S2140039600C460EB1019B336005B12C6002B070BDF1
S21400397001A8FFF701FF0F24F3E70FF0B5F9019058
S214003980EFE700BF0080005038B5104B0546D3F86F
S21400399040320C4603F00303022B0BD0032B0DD052
S2140039A0012B0FD10FF0A4FC092305B1286004B148
S2140039B0236038BD0FF0A6F90823F6E70FF09BFC4E
S2140039C00B23F2E700231846EFE700BF0080005005
S2140039D038B5144B0546D3F800020C4600F0070035
S2140039E004281BD8DFE800F003090D111500012399
S2140039F005B1286004B1236038BD0FF079FC0923B7
S214003A00F6E70FF07FF90823F2E70FF074FC0B23BC
S214003A10EEE70FF053F90E23800AE9E70023184675
S214003A20E6E700BF0080005010B40D4C0B46D4F8FB
S214003A30204204F00304012C0AD0022C0CD008B15A
S214003A40002101600BB100221A605DF8044B70473C
S214003A505DF8044BFFF790BE5DF8044BFFF7B0BE71
S214003A6000800050B0F5207F1FD009D8B0F5007F49
S214003A7015D003D868B1B0F5C07F0AD000200CE09E
S214003A80B0F5607FFAD10B4BD3F88000C0F301107D
S214003A9003E0084B186FC0F3033001307047054B46
S214003AA0D3F89000C0F30460F7E7024B186FC0F33A
S214003AB08020F2E7008000504FF400320E4B0146A3
S214003AC010B500209A66FFF7CDFF484341F67132E5
S214003AD00A490B4B884294BF00200120DC69DA6358
S214003AE09A6822F4401242EA00529A60E20344BF07
S214003AF00022DA6310BD00BF00900050005A620238
S214003B0000000350420910B50FD0012A0FD00A4B0F
S214003B100A4C022A18BF234600F01F0049B103F5DD
S214003B208053012282401A6010BD1346F4E7044B0E
S214003B30F2E703F50053F4E7688000506082005017
S214003B40648000501FB50021B0F5807F04460191C7
S214003B5000F0068100F29D80612800F295801F2803
S214003B6005D8002840F092800FF0A8F8DCE0A0F11D
S214003B702004412C00F28A8001A353F824F000BFF1
S214003B80693B00002D3D0000693B00002D3D000014
S214003B904D3D00004D3D00004D3D00004D3D0000F8
S214003BA02D3D00002D3D0000073D0000C13C0000FB
S214003BB0833D00008D3D0000C13C00002D3D00000F
S214003BC02D3D00002D3D00008D3C00008D3C00008A
S214003BD08D3C00008D3C00008D3C00008D3C0000BC
S214003BE0573D0000E33C00002D3D00002D3D000049
S214003BF02D3D0000A13D0000973D00002D3D00003A
S214003C008D3C00008D3C00008D3C00008D3C00008B
S214003C108D3C00008D3C00008D3C00008D3C00007B
S214003C208D3C00008D3C00008D3C00008D3C00006B
S214003C308D3C0000693B00008D3C0000693B0000A5
S214003C40693B0000693B00004D3D00008D3C0000D4
S214003C508D3C00008D3C00008D3C00008D3C00003B
S214003C608D3C00008D3C00008D3C00008D3C00002B
S214003C708D3C00008D3C00008D3C00008D3C00001B
S214003C80693B0000693B000080284BD0019804B0D7
S214003C9010BDB0F5A06F5ED028D8B0F5607F50D0CC
S214003CA019D8B0F5007F4CD004D8B0F5C07F3FF4EB
S214003CB05BAFEBE7B0F5207F38D0B0F5407FE5D1BD
S214003CC00EF0FCFF02464FF42070FFF7CBFEB2FB6F
S214003CD0F0F2520833E0B0F5806F37D0B0F5906F51
S214003CE0D4D1002101A8FFF7EFFCCFE7B0F5E06FD5
S214003CF051D00DD8B0F5C06F43D0B0F5D06F45D0D9
S214003D00B0F5B06FC2D1002101A8FFF71BFEBDE7DA
S214003D10B0F5F06F44D0B0F5086FB7D101A8FFF743
S214003D2007FDB3E70EF0AAFF0190AFE70EF0C6FF5F
S214003D3002464FF42070FFF795FEB2FBF0F20192B8
S214003D40A4E70EF09BFF02462046F4E7002101A8F8
S214003D50FFF712FD9AE7002101A8FFF765FE95E739
S214003D604FF0E02302911B695B0705D50EF0A6FF16
S214003D700290029B019389E703A902A8FFF720FDA2
S214003D80F7E7002101A8FFF71BFD7FE7002101A848
S214003D90FFF71EFE7AE7002101A8FFF7F5FD75E79D
S214003DA0002101A8FFF730FD70E700BF08B58020AE
S214003DB0FFF7C8FE034B98429EBF4FF48032024B7B
S214003DC01A6708BD005A620200A000501FB50346DD
S214003DD00020B3F5807F01906FD027D8382B00F0F5
S214003DE082800BD8243B092B0FD8092B0DD8DFE88F
S214003DF003F05F5F5F5F0C0C5A0C3675522B57D082
S214003E0007D83D2B3AD03E2B72D0019805B05DF80E
S214003E1004FB802BF9D1394B1B6F03F00703013BE2
S214003E20032BF2D8DFE803F03D36393BB3F5D06F0D
S214003E3054D019D8B3F5A06F55D00AD8B3F5806F13
S214003E4036D0B3F5906FE0D1002001A9FFF73CFC17
S214003E50DBE7B3F5B06F26D0B3F5C06FD5D1002041
S214003E6001A9FFF7ADFCD0E7B3F5006FECD00AD898
S214003E70B3F5E06F3CD0B3F5F06FC6D1002001A9D2
S214003E80FFF7C2FCC1E7B3F5086FBED101A9FFF783
S214003E904FFCBAE705230193B7E70323FBE70723A5
S214003EA0F9E70223F7E7002001A9FFF74BFDACE78F
S214003EB0002001A9FFF760FCA7E74FF0E02302907F
S214003EC01B695B0705D50EF0F9FE0C230393039BD5
S214003ED0E1E703A902A8FFF773FCF8E7002001A9B1
S214003EE0FFF776FD91E7002001A9FFF79DFD8CE71F
S214003EF0002001A9FFF748FD87E700BF00800050BB
S214003F004FF48032074B0849586E03F580535A66C3
S214003F100B6A23F001030B62C3035CBF034B5A66B4
S214003F20704700BF0080005000C0075000A000503F
S214003F30F8B504468020FFF749FF032800F0878085
S214003F404FF40022424B02215A6645F60E03414AC0
S214003F50C2F88030404B9962012103F58053996284
S214003F60936DD903FCD4D4E900131B0543EA01631F
S214003F70E17B94F820500B43217BE77E43EA014324
S214003F80617B6D0143EA0133A17B43EA8113136130
S214003F909169D4E904031B0643EA806301F00041FB
S214003FA00B43A17E94F823000B43217E43EA014392
S214003FB0617E43EA01239361136AE66923F00D03E9
S214003FC094F8221043EA8703002E2DD11362966AD6
S214003FD094F8213045EA031326F033052B4343F0CB
S214003FE0010393621D4D1B4B9A6D35EA0202FBD10D
S214003FF00222194DAA621A659A6D5200FCD41A69FB
S214004000A56822F4700242EA05521A614FF0004297
S214004010114B9A6119B9022203F580539A6278B956
S21400402001220F4B9A620BE0334343F008031362FE
S214004030936A23F0330303432B4343EA410393621B
S21400404094F824301BB1034B064AC3F88020F8BD11
S2140040500090005000C0005000D000500300014007
S21400406000E00050F1A7FFFF014B93F900007047F6
S21400407002260020F0B5D0E901434FF480061A4A24
S2140040804178057856664FF4D156022702F5B832C5
S2140040905662164E4F2977604FF0010728BF4F2112
S2140040A006F5805677601669F603FCD441EA0521CA
S2140040B051611B01417B43EA04230B43017B43EA26
S2140040C041039360C37B817B1B0143EA4113417C20
S2140040D00B43017C43EA41035360837C13B16FF4C6
S2140040E0D1535362F0BD00BF009000500010025044
S2140040F0014B1880704700BF862A0020014B1880AD
S214004100704700BF842A00204FF4001208B5184BF1
S2140041105A660223174A5360936813F48033FBD120
S214004120012822D10EF0E4FD134B984215D003F57A
S214004130122303F5F863984213D0104B00EB80026D
S214004140400AB3FBF0F3520A0A49CA620B63012322
S2140041504B620022074B5A6008BD45F67A13084AA0
S214004160F2E745F61A03074AEEE75362F1E700BFA7
S214004170009000500040025000F0490264666666F7
S214004180D8B80500BBCF0500B0F5207F10B50C46AB
S21400419042D008D8B0F5007F33D003D888B1B0F548
S2140041A0C07F0ED010BDB0F5607FFBD11F4A4C1EFD
S2140041B0D2F8803023F0300343EA0413C2F880308C
S2140041C0F0E70BF07BFF0BF087FF4FF48031184BC6
S2140041D0164A1967136F013C23F4704343EA04330D
S2140041E013670EF06BFD0446FFF762FAC0F102019A
S2140041F020460BF06BFF00F035F8BDE81040FFF7E7
S214004200D5BD0A4A4C1ED2F8903023F0F85343EA44
S2140042100463C2F89030C5E7044A4C1E136F23F4BB
S214004220806343EA84231367BCE700BF0080005026
S2140042300090005008B50121022000F0D9FA4FF492
S2140042402070FFF70FFC054B18700BF037FF0BF0D4
S21400425043FF4FF48032024B1A6708BD0126002048
S2140042600090005008B54FF4C070FFF76BFCBDE837
S21400427008400449884294BF012102214FF420706F
S214004280FFF782BF80F0FA0238B504460EF016FD3E
S2140042900546FFF70DFAC0F1020128460BF016FF9F
S2140042A00121002000F0E4FA2CB1FFF7DBFFBDE8A7
S2140042B03840FFF77BBD034B4FF420701978FFF7AB
S2140042C063FFF4E701260020B0F5807F70B50C464A
S2140042D000F0F88029D8382800F04B8110D8243810
S2140042E0092816D8092814D8DFE810F0DC00DC000E
S2140042F0DC00DC0013001300CD0013004700330180
S214004300522800F0CF8005D83D2851D03E2800F036
S214004310428170BD8028FCD18B1E052B00F2B08038
S214004320DFE803F0AB99AE69AEA8B0F5D06F00F049
S214004330108132D8B0F5A06F00F01B8116D8B0F50A
S214004340806F00F0AF80B0F5906FE2D1023C052C94
S2140043508CBF0021984B994A98BF195DD2F824313A
S21400436023F007030B43C2F82431D2E7B0F5B06F51
S21400437000F08980B0F5C06FCBD1083C032C8CBF11
S21400438000218F4B8D4A98BF195DD2F8403123F03B
S21400439003030B43C2F84031BBE7B0F5006FD5D03E
S2140043A016D8B0F5E06F00F0F680B0F5F06FB0D13B
S2140043B0083C032C8CBF0021824B804A98BF195DB5
S2140043C0D2F8603123F003030B43C2F86031A0E754
S2140043D0B0F5086F9DD1CC1E052C8CBF00217A4B02
S2140043E0764A98BF195DD2F8003123F003030B43D9
S2140043F0C2F800318DE7002502260121022000F0D8
S214004400F7F90BF05BFE0BF067FE4FF480316F4B55
S2140044106A4A1967136F23F00703334313670EF0D6
S2140044204DFC0646FFF744F9C0F1020130460BF09A
S2140044304DFE0121002000F01BFAFFF713FFFFF7E7
S214004440B5FC002D7FF465AF032C7FF462AF01222C
S2140044505F4B9A625DE74FF400225C4B0E465A664D
S214004460012203F540539D6A03F58053C5F34005CA
S2140044709A62C2E700250426BFE700250126BCE7AE
S21400448000252E46B9E7022C03D0A4F10F056C4296
S2140044906C414A4AD2F8803123F003032343C2F822
S2140044A0803136E7023C032C8CBF0021494B434A3F
S2140044B098BF195DD2F8203123F003030B43C2F8EE
S2140044C0203126E7A1F10804082C3FF622AF01A30D
S2140044D053F824F0F9440000F944000013430000A8
S2140044E0F944000027450000134300001343000072
S2140044F013430000F94400004FF480322F4B364936
S214004500586E03F580535A660B6AC00343F00103E6
S2140045100B625CBF314B5A664FF0E022136923F002
S21400452004031361F5E64FF48032244B2A49586E93
S21400453003F580535A660B6A23F001030B62C1032E
S2140045405CBF264B5A664FF0E022136943F0040323
S214004550E7E7083C062C8CBF0021214B174A98BF82
S214004560195DD2F8003223F007030B43C2F800327D
S214004570CFE60F2C0DD0A4F110035C425C41640022
S2140045800E4AD2F8203223F003032343C2F8203227
S214004590BFE60124F4E7083C032C8CBF0021114B36
S2140045A0064A98BF195DD2F8403223F003030B4346
S2140045B0C2F84032ADE600BFC43F010000800050A4
S2140045C0CA3F0100CA3F0100B73F010000900050FB
S2140045D000E00050CE3F010000C0075000A0005091
S2140045E0BD3F0100CA3F01004FF4C02270B505462A
S2140045F0FFF72EF9314B04465A6603F598335A688E
S214004600012A04D12E494A609A699207FCD180207B
S214004610FFF7DCFB052807D10BF050FD0BF05CFD27
S2140046204FF48032254B1A67264B24F040749D4287
S21400463030D0254B9D4230D00EF01AFB8542064600
S21400464003D90121284600F013F9204BDA6812F04E
S214004650060FFBD199689C609A68624012F4F81FB6
S2140046601ED12846FCF7AEFE8020FFF7AFFB0528DC
S2140046700DD10EF023FB0446FFF71AF8C0F1020135
S21400468020460BF023FDFFF7EDFDFFF78FFBAE4254
S2140046900CD270BD44F00074CEE744F08074CBE7D3
S2140046A080209960FFF792FB052805D0BDE8704092
S2140046B00121002000F0DCB83546DAE70090005013
S2140046C000E0015040420F0080841E0000000150B0
S2140046D010B5224B70B94FF40031214A186051666C
S2140046E002F598325268012A03D11E4AD2F80021F8
S2140046F01A6010BD1B68002BFBD01B4A5268012AAB
S214004700F7D0184A8020C2F80031FFF75FFB052873
S2140047101FD14FF4C070FFF7A5F90128044604D155
S21400472002214FF4C070FFF72FFD07220F4B1A61CE
S2140047300122A3F580535A600B4A1369DB07FCD5A8
S214004740012CD6D12146BDE810404FF4C070FFF7CB
S2140047501BBD0122064B5A60CBE700BF202000207D
S214004760009000500080005000C0015000E0015052
S21400477000D0015010B5044610B10020FFF7A8FF86
S214004780124A136943F0040313610BF0AAFC0BF002
S214004790A9FC0F4B5B6E5B0142BF0E4B0E4AC3F883
S2140047A020240EF0B0FD0EF06FFE0EF0A7FD0BF00D
S2140047B09BFC0BF098FC1CB9BDE810400EF07EBACE
S2140047C00120BDE81040FFF783BF00BF00ED00E00A
S2140047D00080005000E003500000FF0F034A0179FC
S2140047E0D36E23F030030B43D3667047004000506F
S2140047F0F8B504461C4BD3F88420D106FBD4D3F876
S2140048008430C3F381139C422CD00EF037FA012C6F
S214004810064602D121460BF059FC0EF074FD4FF00F
S2140048200072124B07465A6620460BF060FC4FF4A7
S21400483080630D4D621E93402B676B6E9A0103D406
S214004840D5F884309B060AD538460EF057FD022C64
S21400485008D13046BDE8F84000210BF037BCD5F84B
S2140048608430EAE7F8BD00BF00400050006000500A
S21400487010B50C4608B90EF001FA074B21461B7816
S2140048803BB1064B984204D80120BDE81040FFF724
S214004890AFBF0220F9E700BF03260020005A6202DD
S2140048A04FF0004238B5264B26495A6601224A6028
S2140048B04AF6CD3103F50B235D6C1964154030BB09
S2140048C09968C9070BD4002401221F4B5A6015B102
S2140048D01E4B1F4A1A640DF047FD204638BD1A4984
S2140048E08A601C4AD96ACC0705D4904201D10724B5
S2140048F0EAE70130F6E79042E5D1F8E70132DC6AF4
S21400490014F0080406D08A42F8D10724DFE7002214
S2140049101049F4E78A42F8D020220B4B0B495A6222
S2140049200122A3F580539A6023460A4A486A800605
S21400493003D49342E9D00133F8E79342C7D1E4E7C2
S2140049400090005000500950006009500040095087
S2140049503254FFFF40420F004AF6E8532DE9F0417B
S2140049601B4C1C4FE56EE66E23660EF0CCFC8046B4
S214004970FFF760FC3B6F012023F0070343F00103C1
S2140049803B67FFF781FC0020FFF78AFF0BF0ADFBCB
S2140049900BF0ACFB7B6E25F003055B0144BF0E4BB2
S2140049A00E4A45F0020548BFC3F8202446F0030629
S2140049B00B4BE566E666E566E666E566E666E5668C
S2140049C0E666E5664046BDE8F0415B6A0EF096BCDA
S2140049D0004000500080005000E003500000FF0F31
S2140049E00040095010B504460BF08CFB002341F242
S2140049F002020849E360A360226104F50052E36105
S214004A006361A36123626362E362A3645164A36289
S214004A1010BD00BF7F370C0138B50446154639B9BE
S214004A201848844214BF08463820FFF78BF8014622
S214004A306368A36803F0E003402B1AD003D8D3B111
S214004A40202B1AD038BD602B19D0802BFAD1012329
S214004A506B434901B1FBF3F10B4A2039204602EAC9
S214004A60C10201210BF04AFBA262BDE838400BF000
S214004A7045BB0623ECE71023EAE70823E8E7042310
S214004A80E6E700BF0000035AF8FF7F00F8B543686A
S214004A9004460D4616461BB140F2FF710BF02EFB86
S214004AA02046FFF79FFFE9896B7B22690B43298A23
S214004AB022F44C520B4322F0030213432361A268F4
S214004AC02B7B297E22F0804222F0E2020B43134326
S214004AD06A69AF681343A3601FB9A36843F0004335
S214004AE0A360EB69002B57D0987A1A7A4004A16825
S214004AF040EA82503E4A0A4010439A8802F4C04276
S214004B0010435A7840EA82005A7B40EAC2009A7BF9
S214004B1040EA02109A7840EA8220A060E168D3E971
S214004B20042021F4D81121F4C06102430A43997984
S214004B3042EA8122D97942EA4122E2601A78012AC1
S214004B4005D1E26842F00402E2602A4A06E0032A3F
S214004B503DD1E26842F00402E260274A0121C2F831
S214004B60C0105A7A04F580510A621AB1E26842F41B
S214004B700062E260DA7A4AB1E268204942F4004212
S214004B80E2601A7B02F00F02C1F88020E269DB7B4C
S214004B9022F003021343E36136B196F8203004F5A1
S214004BA08051C3B101238B61052120460BF0C7FA63
S214004BB01FB13A466968FFF72FFF204629780BF0A9
S214004BC0DBFA236CDB4313F4405FFAD1F8BD023AFC
S214004BD0012AC2D9B9E7626996F8223096F8210010
S214004BE022F009020343134343F001034B61DBE762
S214004BF0E39BBDFF00E4035000D403500090035035
S214004C00F8B504460D461F4616464AB101238B40AA
S214004C103021184A01FB0022F7B141F2100153502F
S214004C2004EB4403072D4FF00F014FEA031316D889
S214004C30A80006FA00F281400F4818440BF0ABFAC1
S214004C404EB9012330210B4AAB4001FB042277B159
S214004C5041F210015350F8BD42F21001DFE7A5F112
S214004C600800800006FA00F281400448E5E742F2B8
S214004C701001EFE700C0035004C003500CC00350FF
S214004C80F8B505460E4614465AB303F00307836884
S214004C9023F4407383600EF036FBAA6882EA07238B
S214004CA003F440735340AB600EF028FB36B9104B4C
S214004CB09D4217D12E20FEF745FF0646AB680D4BEA
S214004CC0DA5D62430DD0A2EBC403013B3344B3FB71
S214004CD0F2F3AA68013B920702D5002B08BF012316
S214004CE0AB61F8BD044B9D42E8D12F20E3E700BF3F
S214004CF00000015AD23F01000080065038B500235C
S214004D000E4A036400F50053DA634A7804460D46FB
S214004D1000F108037AB903F5805302221A60204690
S214004D20D5E901122B7BFFF7ABFF20462978BDE8BB
S214004D3038400BF03FBA03F50053EEE7FFFF1F00C5
S214004D40874B70B5984219D0864B984240F0058143
S214004D50854B9968C26B12F4C06F15D091050FD5BC
S214004D60FD225A7009221A700022026493F901107B
S214004D70012900D15A7093F9010070BD7B4BE8E71A
S214004D805605EFD5FE22ECE71C78082C00F2E180F1
S214004D90DFE814F009001F004500530070007E0095
S214004DA09C00A700D6004C880A88E5060AD5120A99
S214004DB002F0060242F0F002012119704263C1605F
S214004DC00120DAE702F0FE02A10748BF42F0010226
S214004DD0F2E7160608D5802100F50052D1634FF69B
S214004DE008721A80022318E05506E9D5402400F51B
S214004DF00052D4634A88D40604D502221A700B786F
S214004E004363DDE796076AD507221A701B7901EB24
S214004E10C3031B89012BD3D10823C360D0E7150633
S214004E20D9D45406CCD5402400F50052D4634A8821
S214004E30920754D503221A708CE74C880A88E60637
S214004E4043BF120A02F0060242F0F00202F0FE022F
S214004E50650709D51C7942F0010201EBC4010989F6
S214004E60012904BF0821C160042119700123C36011
S214004E704263A5E71406AED45206A1D5402400F539
S214004E800052D4634A88560729D507221A7097E736
S214004E901A795D8801EBC2042689AE420FD8002439
S214004EA00132D2B21A715C804C886507C2D4E4071E
S214004EB002D4012A7FF64EAF08221A7092E7626883
S214004EC0691C5980525D42630622DFE7160682D4CB
S214004ED055067FF575AF402400F50052D4630522D1
S214004EE0A9E794067FF56CAF456A214C46691A79A6
S214004EF03440B4F5003F04BF466A4FF4005601EB59
S214004F00C20100F500540A8908BFE6632026E6635E
S214004F105C88A24281BF4968661C5E800D55598830
S214004F208A42C9D90424012AC46004D0013A9142B5
S214004F3001D10822C2601A78092A3FF415AF3FE76C
S214004F40D2057FF53DAF4FF4807100F50052D16376
S214004F5008E74FF609321A8006E76FF003000CE701
S214004F600000015A00800650302000202420002037
S214004F70200002001C4B10B4984207D01B4B9842EE
S214004F802ED06FF003005DF8044B7047184B026993
S214004F90D20744BF2022C2604A88940702D50C89F3
S214004FA0002CEED0520702D50A8A002AE9D04FF428
S214004FB080721A60002299601A71C023C360436928
S214004FC0DB050FD4202200F50053DA63094A5DF8AA
S214004FD0044BDA63036C43F4FC630364FFF7B0BE70
S214004FE0054BD4E7436AEAE70000015A0080065002
S214004FF024200020FFFF1F003020002010B51520C1
S21400500001F0D2FA0024FF22064B21465C652020E0
S2140050109A625C60FEF776FD2146BDE810402120CE
S214005020FEF770BD00000450044A054B002908BF77
S2140050301346012282401A60704700BF4010045099
S2140050404020045010B5012104462020FEF75AFDEA
S21400505001212120FEF756FD0122114B15205A6032
S214005060227812069A606178A27842EA01429A6132
S214005070FF229A6200229A631A644FF000425A6531
S2140050804FF0FF3203F500531A6501F0BBFA152006
S214005090E1780BF01AFDBDE81040152001F096BA35
S2140050A000000450F8B50125C3B2DFF88CC0D1F873
S2140050B000E09D408F7ACB7A0C46097BCCF85050A6
S2140050C00CF5005C4CF820E04FF0300E184E1B0537
S2140050D00EFB006094F80DC043EA074343EA4153D1
S2140050E022F00302C0F860C0C36502670EF014F930
S2140050F0104B5D65237A13B1336C2B433364637AAC
S21400510013B1B36B2B43B3632279A37943EA02430B
S214005110094A93616179E37943EA014305498B6162
S214005120034B55639D64BDE8F8400EF0F0B800BF31
S21400513000000450001004500020045010B5012454
S214005140C0B284400EF0E8F8044B5A6D22EA04021E
S2140051505A659C62BDE810400EF0D9B800000450B5
S21400516010B50124C0B284400EF0D6F8074BDA6AB8
S214005170224208D15B6B9C430CBF012400240EF036
S214005180C6F8204610BD0024F9E700BF0000045012
S21400519070B505460EF0C0F83022084B5E6B02FB79
S2140051A005335C6E0EF0B3F80123EDB2AB4033422C
S2140051B00ABFC4F30A100020013070BD000004507E
S2140051C04FF40032054B9A6641F6713203F51C33F4
S2140051D0DA63012203F50053DA607047009000504E
S2140051E041F671320121064BDA6303F50052D160B5
S2140051F00022DA634FF40032A3F518339A6670473C
S21400520000000350CB784A7810B55B010C7843EA6F
S21400521082030A79234343EA02130C22424302F133
S214005220B0421363012C02BF8A78024B43F8202059
S21400523010BD00BFE880035008B54FF0B0435A6871
S2140052406AB958B15B680BB10AF0BEFF01210D4B7D
S21400525059600AF0B9FF4FF0B043D96008BD5B68EB
S2140052600BB10AF0B1FF0028F0D10AF0ADFF4FF005
S214005270B0430222DA600AF0A7FF0122024B5A600E
S214005280ECE700BF00100058002000584FF0B04177
S2140052904B6810B50BB10AF097FF01220B4BC47890
S2140052A05A608378934043EA84034478234304791E
S2140052B043EA0413447943EAC4038B60044B5A6000
S2140052C00378C3F10203CB6010BD00BF0020005876
S2140052D0001000584FF48032064B5A6603F5E6235A
S2140052E05B69C3F38512827003F03F021B0B4270AA
S2140052F00370704700900050024B1868C0F30740D8
S214005300704700BF0080E00F0120034B9B680A3304
S21400531003F01F03984070470080E00F034BD3F85C
S2140053202424D3F820041040704700BF00C0035068
S214005330064BDA6E02F03002202A06D0DA6E22F031
S214005340300208B142F01002DA66704700400050A2
S2140053502DE9F8431E4B0546D3F810334B1E0E2B93
S2140053600E46174690F8009044781DD909B34FF0C2
S21400537000082846D7B10DF0D5FF09EB4903072CE6
S2140053804FF00F014FEA031315D8A400114808FA8E
S21400539004F2A14018440AF01FFFBEB928468FB198
S2140053A0BDE8F8430DF0BEBF8846E2E70AF023FFEB
S2140053B0E3E78846E1E7083CA400074808FA04F259
S2140053C0A140E7E7BDE8F8430AF015BFBDE8F8835B
S2140053D000C0035004C003500CC003502DE9F04138
S2140053E02B4B1746D3F810234A1C06460C4640782B
S2140053F004D1D3F824140AF00CFF0446002C2FDB4B
S214005400072C4FF0030532782DDC4FEA840805FAA6
S21400541008F529461F4802FA08F20AF0DDFE29467A
S21400542072781D4802F0030202FA08F20AF0D4FE6F
S214005430012317F0050F194A18BF194903FA04F398
S2140054400CBFC2F81034C1F8103417F0060F18BF9E
S214005450134AC2F814340123104AA340C2F8203479
S2140054602046BDE8F081A4F108084FEA880805FA4E
S21400547008F529460B4802FA08F20AF0ADFE7278E3
S214005480294602F00302084802FA08F2CEE700BFF7
S21400549000C0035000C4035008C4035000E003508B
S2140054A000D0035004C403500CC4035038B505465E
S2140054B00C4C0140D4F8303423EA0003C4F83034EE
S2140054C0D4F830341943C4F83014D4F82C340343D9
S2140054D0C4F82C34012004F50054FFF729FFC4F863
S2140054E0205438BD00C00350124B70B5D3F81033AB
S2140054F006460AF0A8FE0446481C154603D1621C60
S21400550005D1204670BD631CFBD08C420ED13046C0
S214005510032185F00102FFF71BFF012004F11003B1
S21400552005FA03F19840FFF7C1FFEAE74FF0FF34B2
S214005530E7E700BF00C0035070B504460CF047FF15
S214005540064630B90FCC044D0FC594E8030085E835
S2140055500300304670BD00BF3C20002047F6FF73B6
S2140055609A42F0B56FD002296FD8394B5B5C012B9D
S2140055706BD8384DDF0005EBC30415F83330A1783F
S214005580012B13D10025E078401AA84202D808441F
S214005590C0B2F0BD431B6668A0EB530336F9136038
S2140055A09642D4BF1D4603F1FF30EEE76068002840
S2140055B0EFD0B0F90040944204DBB0F902409442C8
S2140055C0B8BF144683883D44FF2B19BFC8224FF04E
S2140055D0280CB0F90620B0F908C0A2EB04030CBFF3
S2140055E00126002693FBFCF333446E781BB29E42E2
S2140055F001DD002B01DA731E1BB24FF47A7C0133F7
S2140056009BB2071D5D1E2DB24FEAC50E00EBC50509
S214005610EA88AD689E4214FB025222EAE27202F168
S2140056205C02B2FBFCF204DD37F8335001339542DE
S214005630E8D200EB0E039888904228BF10468842B6
S21400564038BF0846A4E7FF20A3E70020A1E700BF75
S214005650D63F01003C2000200229F0B555D82C4B3F
S214005660585C012851D82B4C04EBC00114F83000CC
S2140056704B6801280FD1C8788C78904294BFC4EB51
S2140056800001C4EB0201001BCAB28242C8BF00225E
S21400569033F91200F0BD002B37D08878904202D341
S2140056A0B3F90200F6E7CC78B3F900009442F1D9DA
S2140056B04C789988013CA1F1FF06714203F104057C
S2140056C0E4B2714103F10C07CEB2B44216D805EB32
S2140056D0C1014FF47A756A43B1F902404968521A1B
S2140056E004EBD47102EB610292FBF4F29042D1DB40
S2140056F0B3F902009042CDDC10B2CBE737F831C0E8
S2140057004E1C9445E3D33146DEE70348C2E700BFAC
S214005710D63F01003C2000200080FFFF08B504486B
S214005720FFF70AFFBDE8084001200CF054BE00BF9A
S214005730DC3F010073B504460CF04FFE48BB6946DB
S21400574020460CF046FE00B1FEE7134E9DF80030F2
S21400575032789A421DD00C2B09D0204603F054F81C
S214005760054620460C490CF021FE10B1FEE76425E4
S214005770F7E7294620460CF000FE00B1FEE7337836
S214005780042B06D1694620460CF023FE9DF8003017
S214005790337002B070BD00BF882A002070B505299E
S2140057A005460E468CB013D80023B1B16422CDE96D
S2140057B0053307939623023ECDE90123CDE9032363
S2140057C00CF082FE032E0ED8DFE806F01D212628F8
S2140057D08B1F032B26D9212402E00CF049FD34460A
S2140057E020460CB070BD284603F0F6F8044630B9E3
S2140057F0284601A902F0ACFE04460028F0D0284650
S2140058000CF073FEECE7284603F0ECF8EEE7002118
S21400581028460CF06CFEE9E70221F9E7284603F07B
S214005820D5F8E3E72C22002101A80DF0E8F9194A83
S214005830194B2846CDE902236423B6220693CDE908
S2140058400432C023079340F20B1301A9ADF82C30A5
S21400585003F076F8044650B9082E28460ED0092ED6
S2140058600FD0072E07D003F099F8044660B12846FB
S2140058700CF007FEB4E703F097F8F6E703F0A0F89D
S214005880F3E703F097F8F0E7082128460CF0F0FC61
S214005890A6E700BF0100A002020102017FB50222B6
S2140058A0084B0949CDE901234FF00073CDE90313F6
S2140058B0052301A94FF0FF3005930CF0D7FD07B084
