S02B00007A69676265655F6770645F736F635F656E657267795F68617276657374696E675F7377697463685F4D
S2140000000010002041070000018E0000018E000055
S214000010018E0000018E0000018E0000018E00009F
S214000020018E0000018E0000018E0000018E00008F
S214000030018E0000018E0000018E0000018E00007F
S214000040018E0000018E0000018E0000018E00006F
S214000050018E0000018E0000018E0000018E00005F
S214000060018E0000018E0000018E0000018E00004F
S2140000705D270000018E0000018E0000018E00004A
S214000080018E0000018E0000018E0000018E00002F
S214000090018E0000018E0000018E0000018E00001F
S2140000A0018E0000850C0000650C0000018E00002B
S2140000B0018E0000357D0000018E0000998700004B
S2140000C0D5AD0000D1AD0000757F0000EBAD00009F
S2140000D0D9AD000069870000DDAD0000D9870000BB
S2140000E0BD6B00000D6C000045880000018E00000E
S2140000F0018E0000018E0000018E0000018E0000BF
S214000100018E0000018E0000018E0000018E0000AE
S214000110018E0000018E0000018E0000018E00009E
S214000120018E0000018E0000018E0000018E00008E
S214000130018E0000018E0000018E0000018E00007E
S21400014082B030BF074BD3F8F030DB0704D500236E
S2140001500193019B052B01DD02B07047019B013323
S214000160F6E700BF00ED00E0F0B5114A114C124E64
S21400017000F00105E3695F0713D40DB9334213D1CC
S21400018003EA00078F4207D10B4A1A40002A0CBF29
S21400019000206FF00100F0BD013AEBD16FF00200D5
S2140001A0F9E74FF0FF30F6E76FF00100F3E700BF26
S2140001B08096980000000350020001000B4B70B5BB
S2140001C0D96911F480310DD101244FF48072084EA4
S2140001D0084DF46020462C641A61FFF7C5FF3464AE
S2140001E0EC6070BD6FF00100FBE700BF000003503D
S2140001F000100350002003504FF4003238B50F4B68
S2140002000F4C9A6641F671330122E569E3630D4BA4
S2140002100021DA60022360612120236105F4803525
S214000220FFF7A2FF10B92120FFF79EFF0122064B21
S214000230DA600DB10023E36338BD00BF00900050C4
S21400024000000350001003500020035070B5134CFC
S2140002506061E3695B071ED40E4656F8043B8D18B2
S214000260A361AE420BD10423002121202361FFF7B6
S2140002707BFF58B9BDE870402120FFF775BF082105
S2140002800846FFF771FF10B10423236170BD56F8CE
S214000290043BA361E5E74FF0FF30F7E700000350AB
S2140002A02DE9F84315464FF40032184B89469A66F6
S2140002B041F6713203F51C33DF69DA630122064624
S2140002C003F58053DFF84C8007F48037DA6055B9C1
S2140002D0284601220E4BDA601FB10022A3F5005318
S2140002E0DA63BDE8F88306F5005404EA0804A41BA4
S2140002F0AC4228BF2C46494622463046FFF7A6FFAA
S2140003000028E6D12644A1442D1BE0E700900050CB
S20C0003100020035000E0FFFF8F
S2140003180348044B834202D0034B03B11847704787
S214000328341C0020341C002000000000064B07493F
S214000338C91A891048BF0131491003D0044B0BB1C4
S21400034801481847704700BF341C0020341C0020A2
S2140003580000000010B5064C237843B9FFF7D8FF15
S214000368044B13B10448AFF300800123237010BD7B
S21400037854180020000000002402010008B5054BB0
S2140003881BB105490548AFF30080BDE80840FFF7F4
S214000398CDBF00BF0000000030120020240201007C
S2140003A8A3F5803A704700BF174B002B08BF134BC6
S2140003B89D46FFF7F5FF00218B460F461348144A63
S2140003C8121A0AF077FD0E4B002B00D098470D4BFB
S2140003D8002B00D098470020002104000D000D488F
S2140003E8002802D00C48AFF3008008F089FC2000F3
S2140003F8290008F0AEFC08F071FC00BF00000800F9
S214000408000000000000000000100020001000207F
S214000418B8190020000000000000000010B50446CF
S21400042802F0F0FC90F82B302046052B9EBF0122E8
S214000438024B1A70BDE810400AF090BE561800200D
S21400044830B585B002F0DEFC90F82B300446062B5B
S214000458294D14D12B7823B9284B1B786BB9032365
S2140004682B702B78002B44D0052B42D0013B032B56
S21400047822D8DFE803F0231B272E0423F0E7052BFA
S214000488EFD82B78002BECD14FF47A7003A90AF03A
S214000498B5FE034630B9CDE90000194A0399194854
S2140004A80BF069F8012001F087FADAE7204609F030
S2140004B853FB204602F0AEF9002319E0204602F06E
S2140004C807FCF9E7204602F0A5F901220B4B1A7043
S2140004D8F2E7222300208DF80C30012321466073B2
S2140004E803AA009302F086FB204602F093F9052340
S2140004F82B7005B030BD00BF5618002055180020D8
S214000508250400004812002013B504460AF070FEC1
S214000518002360430549CDE90033B0FBF1F1044AF6
S21400052804480BF009F802B010BD00BF40420F00A7
S214000538518D000068120020002307B505480DF10C
S21400054807018DF807300AF035FE9DF8070003B05E
S2140005585DF804FB681200202DE9F7431F464FF0AC
S214000568FF3380460D4616464FF40034DFF8749085
S2140005780193042220460DEB02010AF08BFCD0B949
S214000588B4F5003F0BD1D7B14FF0FF34012F0ED191
S21400059801F03EFB3246294604F120001CE0203CD0
S2140005A8002FF3D13246214628460AF08BFC00205D
S2140005B803B0BDE8F08320344C45DAD1E3E7404683
S2140005C802F0E8F801F024FB4FF400300BF010F8C6
S2140005D8324629464FF400300BF00EF801F028FB9F
S2140005E8E5E700BF2000070008B509F09AF80020E4
S2140005F800F02AF802F030F902F074F902F03AFC3A
S2140006080E4808F00DFC012803D102220C4B1A7084
S21400061808BD02F0F7FB90F82B309A1F5142514163
S214000628084A052B1170F3D8002000F00DF86FF07B
S2140006383B010AF015F80122014BE8E714B6000062
S2140006485618002055180020014B1868704700BF40
S2140006589C1B002030B5002589B01F4B1F4904A8F5
S214000668CDE905550795049302F0DAFD1C4C206089
S21400067800B9FEE729461B4A02F0DEFF062120687D
S21400068801F0AAFD00B1FEE71749206803F000F85C
S21400069800B1FEE708220023CDE900234FF0FF3221
S2140006A84FF0FF33206809F0BBFF00B1FEE70F4BA1
S2140006B820681B8802A9ADF80830ADF80C3009F0A0
S2140006C897FF00B1FEE7206803A909F0A7FF00B16D
S2140006D8FEE709B030BD00BFF58D0000D78D0000DD
S2140006E89C1B0020E18D00000700110010B60000DA
S2140006F8014808F090BB00BF14B6000008B50348D0
S2140007080AF0C3FEBDE8084008F02DBBF0B60000AE
S21400071801480AF0BABE00BFF0B600000348044A13
S2140007280449121A921008F068BB00BF4001000086
S21400073818030000B819002008B5154B83F30A887B
S21400074800F030F8FFF7EAFF124B13498B4212D33A
S2140007580020124B12498B4218D3FFF725FE186863
S21400076850F82240586840F8224001329868824281
S214000778F5D30C33EAE70022F8E71C6844F82200B1
S21400078801325C68A242F8D30833E4E70022F8E7AF
S214000798000000202C020100380201003802010087
S2140007A8380201004FF40041134B144A70B59A60A2
S2140007B8D3F88820124D42F47002C3F88820114AF4
S2140007C805F5005491664FF0FF3222664FF6DF7249
S2140007D862660222C3F8D020BFF34F8FBFF36F8F35
S2140007E84FF44036032001F0D3FE0320E66001F004
S2140007F8B3FE2E6170BD00BF00ED00E000000000F3
S2140008080080004400900050014B1860704700BFFD
S214000818A41B0020054B1860054B1B6F03F007034D
S214000828032B01D10AF082BB704700BFAC1B002027
S2140008380080005030B5056887B0AB880446184875
S214000848ADF80C300AF021FE0022012103A800F0C2
S21400085875F80DF10B0103A800F0FCF89DF80B30B5
S21400086883F001032B70AB79022B15D14FF0FF33C1
S2140008780022CDE9043304A90A4B009403A800F02B
S21400088899F9049B009401330CBF04220122054BFE
S21400089805A903A800F00CF9002007B030BD00BF7A
S2140008A8F0B60000358E00002DE9F04104460C2510
S2140008B84FF00108124E0CB314F001000BD00020C4
S2140008C824F0010405FB00625768002FF3D09168F6
S2140008D8C0B2B847EFE72246013020284FEA520256
S2140008E801D0D307F8D508FA00F20F2824EA020444
S2140008F8E8D9103805FB0062B432E5E7BDE8F081B8
S2140009088812002008B50C480AF0BFFD192001F02F
S21400091831FE28B1192001F03BFE192001F01CFE1B
S2140009281A2001F027FE28B11A2001F031FE1A20FD
S21400093801F012FE002008BDF0B600002DE9F041D7
S2140009480E461746054610B30F2922D80378DBB1A2
S214000958013BDBB2022B1CD8104AD35C6A78D34022
S214000968DB0716D50E4BD3F81043A4B90AF074FD6E
S21400097880463A462846314601F008FA40460AF0CC
S21400098866FD2046BDE8F08140F2FF13E6E7222424
S214000998F7E72124F5E70224F3E700BF2CB60000AA
S2140009A800C0035010B5044608B30378E3B1013B12
S2140009B8DBB2022B1DD8104AD35C6278D340DB0723
S2140009C817D50AF049FD0122617823788A4030213C
S2140009D84B4341F2100103F1A04303F570335A501C
S2140009E80AF035FD002010BD40F2FF13E5E722208F
S2140009F8F9E72120F7E700BF2CB6000010B504463B
S214000A0808B30378E3B1013BDBB2022B1DD8104ACA
S214000A18D35C6278D340DB0717D50AF01DFD0122A8
S214000A28617823788A4030214B4342F2100103F163
S214000A38A04303F570335A500AF009FD002010BD94
S214000A4840F2FF13E5E72220F9E72120F7E700BF89
S214000A582CB6000038B50D46044610B309B3037823
S214000A68E3B1013BDBB2022B1DD8104AD35C627897
S214000A78D340DB0717D50AF0EFFC30222378534320
S214000A8803F1A04303F570335B696278D34003F043
S214000A9801032B700AF0DBFC002038BD40F2FF1380
S214000AA8E5E72220F9E72120F7E700BF2CB600008B
S214000AB82DE9F0410D46164698460446002851D0C2
S214000AC800294FD00378002B42D05A1ED2B2022AF1
S214000AD803D9FF2B07D0212042E0234B9B5C4278AA
S214000AE8D340DA07F7D5022E01D9042EF3D10AF03F
S214000AF8B3FC23780746FF2B05D0324620462968E4
S214000B0801F08AF928602B68013309D12378FF2B76
S214000B1806D1164B6078D3F8241408F022FA286019
S214000B2829684B1C18D00C23114A03FB0122069B8C
S214000B38C2F8048093602378FF2B04D001230D4A63
S214000B488B40C2F8243438460AF081FC002007E0BF
S214000B5840F2FF134278C3E738460AF078FC2D20A7
S214000B68BDE8F0812220FBE72CB6000000C0035049
S214000B788812002000D003500F2810B5044613D85A
S214000B880AF06AFC0123094AA340C2F82034C2F8D6
S214000B9824340C22064B02FB04330024C3E9014428
S214000BA80AF055FC204610BD2120FCE700E0035063
S214000BB8881200202DE9F0410D4690461F4604464F
S214000BC8002842D0002940D00378002B33D0591E85
S214000BD8C9B2022903D9FF2B07D0212033E01C4BCA
S214000BE842785B5CD340DA07F7D50AF035FC237801
S214000BF80646FF2B05D042462046296801F092F9A2
S214000C0828602A68531C1AD00C23124903FB0211C9
S214000C18069BC1F8B870C1F8BC302378FF2B05D006
S214000C280123103293400C4AC2F8243430460AF0A6
S214000C380EFC002007E040F2FF134278D2E7304669
S214000C480AF005FC2D20BDE8F0812220FBE700BF56
S214000C582CB600008812002000D0035008B501F01A
S214000C687BF8054B00F0553020F05020C3F82004E0
S214000C78BDE80840FFF718BE00E0035008B501F0CD
S214000C886BF8054B00F0AA3020F0A020C3F820042B
S214000C98BDE80840FFF708BE00E00350044BD3F851
S214000CA88420D206FBD4D3F88400C0F381107047A2
S214000CB80040005038B5184B0546D3F824010C46BA
S214000CC800F00700062823D8DFE800F0040A121A06
S214000CD81E0E1600012305B1286004B1236038BD36
S214000CE80AF0FEF80523F6E70AF0FAF80623F2E714
S214000CF80AF036F90323EEE70AF032F90423EAE7A6
S214000D080AF02AF90223E6E70AF030F90723E2E7B1
S214000D1800231846DFE700BF0080005038B5104BA8
S214000D280546D3F800310C4603F00303022B0BD01C
S214000D38032B0DD0012B0FD10AF012F9032305B1AE
S214000D48286004B1236038BD0AF014F90823F6E7D2
S214000D580AF00CF90723F2E701230020EFE700BFAB
S214000D680080005038B5104B0546D3F820310C46A5
S214000D7803F00303022B0BD0032B0DD0012B0FD14E
S214000D880AF0AEF8052305B1286004B1236038BD23
S214000D980AF0E6F80323F6E70AF0DEF80223F2E79D
S214000DA801230020EFE700BF0080005038B5104B45
S214000DB80546D3F840310C4603F00303022B0BD04C
S214000DC8032B0DD0012B0FD10AF032FB092305B1F6
S214000DD8286004B1236038BD0AF0CCF80823F6E78B
S214000DE80AF029FB0B23F2E701230020EFE700BFF8
S214000DF80080005038B5104B0546D3F860310C46D5
S214000E0803F00303022B0BD0032B0DD0012B0FD1BD
S214000E180AF00EFB092305B1286004B1236038BD2B
S214000E280AF0A8F80823F6E70AF005FB0B23F2E712
S214000E3801230020EFE700BF008000502E4B9842A9
S214000E484AD022D82D4B984240D014D82C4B9842E2
S214000E5839D00AD82B4B984232D02B4B98422FD0F9
S214000E682A4B98422CD000207047294B9842FAD13A
S214000E78284B186F7047284B98422AD0274B984221
S214000E88F1D1244BD3F880007047254B98422BD0DD
S214000E9809D8244B984223D0234B9842E3D11D4BC4
S214000EA8D3F88C007047214B984221D003F5740381
S214000EB803F510539842D6D1164BD3F898007047CE
S214000EC8144B986D7047134B586E7047114B586FFC
S214000ED87047104B986F70470E4BD3F884007047D6
S214000EE80C4BD3F8880070470A4BD3F8900070472D
S214000EF8084BD3F8940070470048E8010024F40033
S214000F08C0CF6A0080841E0000093D0040420F00E2
S214000F18405DC6000080E00FC0EA210180BA8C015F
S214000F28007E560380D54302006CDC020090D00396
S214000F3873B50D4600210E4B0191D3F88041064645
S214000F4804F00304012C09D0022C0CD00C460EB178
S214000F58019B336005B12C6002B070BD01A8FFF795
S214000F6801FF0F24F3E709F0F7FF0190EFE700BF52
S214000F780080005038B5104B0546D3F840320C4672
S214000F8803F00303022B0BD0032B0DD0012B0FD13C
S214000F980AF04EFA092305B1286004B1236038BD6B
S214000FA809F0E8FF0823F6E70AF045FA0B23F2E70C
S214000FB800231846EFE700BF0080005038B5144BF2
S214000FC80546D3F800020C4600F0070004281BD894
S214000FD8DFE800F003090D111500012305B12860AC
S214000FE804B1236038BD0AF023FA0923F6E709F0AE
S214000FF8C1FF0823F2E70AF01EFA0B23EEE709F012
S21400100895FF0E23800AE9E700231846E6E700BFA7
S2140010180080005010B40D4C0B46D4F8204204F063
S2140010280304012C0AD0022C0CD008B10021016060
S2140010380BB100221A605DF8044B70475DF8044B4C
S214001048FFF790BE5DF8044BFFF7B0BE0080005077
S214001058B0F5207F1FD009D8B0F5007F15D003D88B
S21400106868B1B0F5C07F0AD000200CE0B0F5607F0C
S214001078FAD10B4BD3F88000C0F3011003E0084BFD
S214001088186FC0F3033001307047054BD3F8900053
S214001098C0F30460F7E7024B186FC0F38020F2E74E
S2140010A8008000504FF400320E4B014610B5002069
S2140010B89A66FFF7CDFF484341F671320A490B4B53
S2140010C8884294BF00200120DC69DA639A6822F41B
S2140010D8401242EA00529A60E20344BF0022DA63F2
S2140010E810BD00BF00900050005A62020000035076
S2140010F8420910B50FD0012A0FD00A4B0A4C022A13
S21400110818BF234600F01F0049B103F5805301229B
S21400111882401A6010BD1346F4E7044BF2E703F565
S2140011280053F4E7688000506082005064800050E6
S2140011381FB50021B0F5807F0446019100F00681B6
S21400114800F29D80612800F295801F2805D80028A7
S21400115840F0928009F0EAFEDCE0A0F12004412C81
S21400116800F28A8001A353F824F000BF5D11000046
S214001178211300005D110000211300004113000038
S2140011884113000041130000411300002113000022
S21400119821130000FB120000B512000077130000B0
S2140011A881130000B512000021130000211300006F
S2140011B82113000081120000811200008112000035
S2140011C88112000081120000811200004B130000FB
S2140011D8D71200002113000021130000211300007D
S2140011E8951300008B1300002113000081120000E5
S2140011F88112000081120000811200008112000096
S2140012088112000081120000811200008112000085
S2140012188112000081120000811200008112000075
S2140012285D110000811200005D1100005D110000D4
S2140012385D110000411300008112000081120000B9
S2140012488112000081120000811200008112000045
S2140012588112000081120000811200008112000035
S2140012688112000081120000811200005D1100004A
S2140012785D11000080284BD0019804B010BDB0F571
S214001288A06F5ED028D8B0F5607F50D019D8B0F5DA
S214001298007F4CD004D8B0F5C07F3FF45BAFEBE7D7
S2140012A8B0F5207F38D0B0F5407FE5D109F03EFE96
S2140012B802464FF42070FFF7CBFEB2FBF0F252085E
S2140012C833E0B0F5806F37D0B0F5906FD4D10021F9
S2140012D801A8FFF7EFFCCFE7B0F5E06F51D00DD8C7
S2140012E8B0F5C06F43D0B0F5D06F45D0B0F5B06F4D
S2140012F8C2D1002101A8FFF71BFEBDE7B0F5F06FCD
S21400130844D0B0F5086FB7D101A8FFF707FDB3E7DB
S21400131809F0ECFD0190AFE709F008FE02464FF42D
S2140013282070FFF795FEB2FBF0F20192A4E709F0F1
S214001338DDFD02462046F4E7002101A8FFF712FD6E
S2140013489AE7002101A8FFF765FE95E74FF0E0232E
S21400135802911B695B0705D509F0E8FD0290029B20
S214001368019389E703A902A8FFF720FDF7E7002104
S21400137801A8FFF71BFD7FE7002101A8FFF71EFE67
S2140013887AE7002101A8FFF7F5FD75E7002101A817
S214001398FFF730FD70E700BF08B58020FFF7C8FEEE
S2140013A8034B98429EBF4FF48032024B1A6708BD23
S2140013B8005A620200A000501FB503460020B3F58D
S2140013C8807F01906FD027D8382B00F082800BD80A
S2140013D8243B092B0FD8092B0DD8DFE803F05F5FF5
S2140013E85F5F0C0C5A0C3675522B57D007D83D2B1E
S2140013F83AD03E2B72D0019805B05DF804FB802BDE
S214001408F9D1394B1B6F03F00703013B032BF2D8C6
S214001418DFE803F03D36393BB3F5D06F54D019D822
S214001428B3F5A06F55D00AD8B3F5806F36D0B3F5AC
S214001438906FE0D1002001A9FFF73CFCDBE7B3F58D
S214001448B06F26D0B3F5C06FD5D1002001A9FFF73D
S214001458ADFCD0E7B3F5006FECD00AD8B3F5E06F73
S2140014683CD0B3F5F06FC6D1002001A9FFF7C2FC47
S214001478C1E7B3F5086FBED101A9FFF74FFCBAE77D
S21400148805230193B7E70323FBE70723F9E70223BE
S214001498F7E7002001A9FFF74BFDACE7002001A9FC
S2140014A8FFF760FCA7E74FF0E02302901B695B0795
S2140014B805D509F03BFD0C230393039BE1E703A93D
S2140014C802A8FFF773FCF8E7002001A9FFF776FDEE
S2140014D891E7002001A9FFF79DFD8CE7002001A9F0
S2140014E8FFF748FD87E700BF008000504FF48032C2
S2140014F8074B0849586E03F580535A660B6A23F063
S21400150801030B62C3035CBF034B5A66704700BFF8
S2140015180080005000C0075000A00050F8B50446F0
S2140015288020FFF749FF032800F087804FF4002249
S214001538424B02215A6645F60E03414AC2F88030ED
S214001548404B9962012103F580539962936DD90344
S214001558FCD4D4E900131B0543EA0163E17B94F845
S21400156820500B43217BE77E43EA0143617B6D01F4
S21400157843EA0133A17B43EA811313619169D4E9F5
S21400158804031B0643EA806301F000410B43A17E77
S21400159894F823000B43217E43EA0143617E43EA25
S2140015A801239361136AE66923F00D0394F8221069
S2140015B843EA8703002E2DD11362966A94F82130E9
S2140015C845EA031326F033052B4343F001039362E1
S2140015D81D4D1B4B9A6D35EA0202FBD10222194DAE
S2140015E8AA621A659A6D5200FCD41A69A56822F494
S2140015F8700242EA05521A614FF00042114B9A6196
S21400160819B9022203F580539A6278B901220F4B62
S2140016189A620BE0334343F008031362936A23F09D
S214001628330303432B4343EA4103936294F824307D
S2140016381BB1034B064AC3F88020F8BD0090005043
S21400164800C0005000D000500300014000E00050E9
S214001658F1A7FFFF014B93F90000704758180020C8
S214001668014B1880704700BF141C00204FF400126E
S21400167808B5184B5A660223174A5360936813F442
S2140016888033FBD1012822D109F06AFC134B98421B
S21400169815D003F5122303F5F863984213D0104BC0
S2140016A800EB8002400AB3FBF0F3520A0A49CA620A
S2140016B80B6301234B620022074B5A6008BD45F6B0
S2140016C87A13084AF2E745F61A03074AEEE7536222
S2140016D8F1E700BF009000500040025000F04902B9
S2140016E864666666D8B80500BBCF0500B0F5207FEF
S2140016F810B50C4642D008D8B0F5007F33D003D8D2
S21400170888B1B0F5C07F0ED010BDB0F5607FFBD1B4
S2140017181F4A4C1ED2F8803023F0300343EA0413E5
S214001728C2F88030F0E707F0DFFB07F0EBFB4FF47A
S2140017388031184B164A1967136F013C23F470431F
S21400174843EA0433136709F0F1FB0446FFF7A6FAE9
S214001758C0F10201204607F0CFFB00F035F8BDE8DF
S2140017681040FFF719BE0A4A4C1ED2F8903023F0F4
S214001778F85343EA0463C2F89030C5E7044A4C1E9F
S214001788136F23F4806343EA84231367BCE700BF20
S214001798008000500090005008B50121022000F09B
S2140017A849F94FF42070FFF753FC054B187007F003
S2140017B89BFB07F0A7FB4FF48032024B1A6708BD65
S2140017C8571800200090005008B54FF4C070FFF777
S2140017D8AFFCBDE808400449884294BF01210221B5
S2140017E84FF42070FFF782BF80F0FA0238B504463F
S2140017F809F09CFB0546FFF751FAC0F1020128469E
S21400180807F07AFB0121002000F054F92CB1FFF70D
S214001818DBFFBDE83840FFF7BFBD034B4FF4207031
S2140018281978FFF763FFF4E7571800204FF4C02233
S21400183870B50546FFF702FB314B04465A6603F5BA
S21400184898335A68012A04D12E494A609A69920741
S214001858FCD18020FFF7B0FD052807D107F044FB30
S21400186807F050FB4FF48032254B1A67264B24F0BE
S21400187840749D4230D0254B9D4230D009F030FB55
S2140018888542064603D90121284600F013F9204B65
S214001898DA6812F0060FFBD199689C609A68624075
S2140018A812F4F81F1ED12846FEF7AEFF8020FFF779
S2140018B883FD05280DD109F039FB0446FFF7EEF93C
S2140018C8C0F10201204607F017FBFFF77DFFFFF780
S2140018D863FDAE420CD270BD44F00074CEE744F00F
S2140018E88074CBE780209960FFF766FD052805D051
S2140018F8BDE870400121002000F0DCB83546DAE784
S2140019080090005000E0015040420F0080841E0006
S2140019180000015010B5224B70B94FF40031214A2F
S2140019281860516602F598325268012A03D11E4A99
S214001938D2F800211A6010BD1B68002BFBD01B4A8A
S2140019485268012AF7D0184A8020C2F80031FFF7FB
S21400195833FD05281FD14FF4C070FFF779FB012827
S214001968044604D102214FF4C070FFF7BFFE0722D9
S2140019780F4B1A610122A3F580535A600B4A13696C
S214001988DB07FCD5012CD6D12146BDE810404FF424
S214001998C070FFF7ABBE0122064B5A60CBE700BF0C
S2140019A8F0130020009000500080005000C0015046
S2140019B800E0015000D0015010B5044610B10020D8
S2140019C8FFF7A8FF124A136943F00403136107F0F0
S2140019D89EFA07F09DFA0F4B5B6E5B0142BF0E4BFB
S2140019E80E4AC3F8202409F02EFD09F009FE09F076
S2140019F825FD07F08FFA07F08CFA1CB9BDE81040F1
S214001A0809F094BA0120BDE81040FFF783BF00BF75
S214001A1800ED00E00080005000E003500000FF0FDB
S214001A28034A0179D36E23F030030B43D36670471D
S214001A3800400050F8B504461C4BD3F88420D10665
S214001A48FBD4D3F88430C3F381139C422CD009F01E
S214001A584DFA012C064602D1214607F04DFA09F048
S214001A68F2FC4FF00072124B07465A66204607F003
S214001A7852FA4FF480630D4D621E93402B676B6ECF
S214001A889A0103D4D5F884309B060AD5384609F05F
S214001A98D5FC022C08D13046BDE8F840002107F0F6
S214001AA82BBAD5F88430EAE7F8BD00BF00400050EE
S214001AB80060005010B50C4608B909F017FA074B35
S214001AC821461B783BB1064B984204D80120BDE856
S214001AD81040FFF7AFBF0220F9E700BF59180020F3
S214001AE8005A62024FF0004238B5264B26495A661D
S214001AF801224A604AF6CD3103F50B235D6C196462
S214001B08154030BB9968C9070BD4002401221F4B27
S214001B185A6015B11E4B1F4A1A6408F098FD2046F5
S214001B2838BD1A498A601C4AD96ACC0705D490423F
S214001B3801D10724EAE70130F6E79042E5D1F8E755
S214001B480132DC6A14F0080406D08A42F8D1072469
S214001B58DFE700221049F4E78A42F8D020220B4B30
S214001B680B495A620122A3F580539A6023460A4A13
S214001B78486A800603D49342E9D00133F8E79342D3
S214001B88C7D1E4E7009000500050095000600950A3
S214001B98004009503254FFFF40420F004FF0004209
S214001BA838B5174B174C5A66012203F50C235A60B2
S214001BB84AF6CD33656C2364437893401343124A40
S214001BC8D363C3788178A2689B0043EA011322F0A6
S214001BD874021343A3600279837943EA02232361DC
S214001BE84279C37943EA022363610078FFF77AFFF4
S214001BF8EB0744BF054B236408F029FD012038BDD8
S214001C080090005000400950004000503254FFFF3A
S214001C184FF40032054B9A6641F6713203F51C33D1
S214001C28DA63012203F50053DA607047009000502B
S214001C3841F671320121064BDA6303F50052D16092
S214001C480022DA634FF40032A3F518339A66704719
S214001C5800000350CB784A7810B55B010C7843EA4D
S214001C6882030A79234343EA02130C22424302F111
S214001C78B0421363012C02BF8A78024B43F8202037
S214001C8810BD00BFE880035008B54FF0B0435A684F
S214001C986AB958B15B680BB107F03EF901210D4BE4
S214001CA8596007F039F94FF0B043D96008BD5B6852
S214001CB80BB107F031F90028F0D107F02DF94FF0F5
S214001CC8B0430222DA6007F027F90122024B5A6075
S214001CD8ECE700BF00100058002000584FF0B04155
S214001CE84B6810B50BB107F017F901220B4BC478F7
S214001CF85A608378934043EA8403447823430479FC
S214001D0843EA0413447943EAC4038B60044B5A60DD
S214001D180378C3F10203CB6010BD00BF0020005853
S214001D28001000584FF48032064B5A6603F5E62337
S214001D385B69C3F38512827003F03F021B0B427087
S214001D480370704700900050024B1868C0F30740B5
S214001D58704700BF0080E00F034BD3F82424D3F865
S214001D6820041040704700BF00C00350064BDA6ED0
S214001D7802F03002202A06D0DA6E22F0300208B1CD
S214001D8842F01002DA667047004000502DE9F8432A
S214001D981E4B0546D3F810334B1E0E2B0E46174621
S214001DA890F8009044781DD909B34FF000082846EB
S214001DB8D7B109F057FB09EB4903072C4FF00F0181
S214001DC84FEA031315D8A400114808FA04F2A140F4
S214001DD8184407F0A9F8BEB928468FB1BDE8F843FD
S214001DE809F040BB8846E2E707F0ADF8E3E7884627
S214001DF8E1E7083CA400074808FA04F2A140E7E730
S214001E08BDE8F84307F09FB8BDE8F88300C0035064
S214001E1804C003500CC003502DE9F0412B4B174665
S214001E28D3F810234A1C06460C46407804D1D3F84B
S214001E38241407F096F80446002C2FDB072C4FF0E6
S214001E48030532782DDC4FEA840805FA08F529469A
S214001E581F4802FA08F207F067F8294672781D4804
S214001E6802F0030202FA08F207F05EF8012317F000
S214001E78050F194A18BF194903FA04F30CBFC2F82C
S214001E881034C1F8103417F0060F18BF134AC2F8FA
S214001E9814340123104AA340C2F820342046BDE873
S214001EA8F081A4F108084FEA880805FA08F52946DB
S214001EB80B4802FA08F207F037F87278294602F05B
S214001EC80302084802FA08F2CEE700BF00C0035033
S214001ED800C4035008C4035000E0035000D0035069
S214001EE804C403500CC4035038B505460C4C0140D6
S214001EF8D4F8303423EA0003C4F83034D4F8303445
S214001F081943C4F83014D4F82C340343C4F82C34DA
S214001F18012004F50054FFF729FFC4F8205438BD03
S214001F2800C00350124B70B5D3F81033064607F0BE
S214001F3832F80446481C154603D1621C05D12046D3
S214001F4870BD631CFBD08C420ED13046032185F051
S214001F580102FFF71BFF012004F1100305FA03F145
S214001F689840FFF7C1FFEAE74FF0FF34E7E700BF06
S214001F7800C0035070B5044608F09CFB064630B90E
S214001F880FCC044D0FC594E8030085E803003046DF
S214001F9870BD00BFF413002047F6FF739A42F0B5F1
S214001FA86FD002296FD8394B5B5C012B6BD8384D44
S214001FB8DF0005EBC30415F83330A178012B13D1E5
S214001FC80025E078401AA84202D80844C0B2F0BDFE
S214001FD8431B6668A0EB530336F913609642D4BFDA
S214001FE81D4603F1FF30EEE760680028EFD0B0F931
S214001FF80040944204DBB0F902409442B8BF14464D
S21400200883883D44FF2B19BFC8224FF0280CB0F92F
S2140020180620B0F908C0A2EB04030CBF0126002670
S21400202893FBFCF333446E781BB29E4201DD002B13
S21400203801DA731E1BB24FF47A7C01339BB2071D7C
S2140020485D1E2DB24FEAC50E00EBC505EA88AD68E1
S2140020589E4214FB025222EAE27202F15C02B2FBD2
S214002068FCF204DD37F8335001339542E8D200EB32
S2140020780E039888904228BF1046884238BF084604
S214002088A4E7FF20A3E70020A1E700BF2FB60000C3
S214002098F41300200229F0B555D82C4B585C0128BB
S2140020A851D82B4C04EBC00114F830004B680128BB
S2140020B80FD1C8788C78904294BFC4EB0001C4EB6B
S2140020C80201001BCAB28242C8BF002233F91200BE
S2140020D8F0BD002B37D08878904202D3B3F90200BF
S2140020E8F6E7CC78B3F900009442F1D94C78998891
S2140020F8013CA1F1FF06714203F10405E4B2714107
S21400210803F10C07CEB2B44216D805EBC1014FF462
S2140021187A756A43B1F902404968521A04EBD471D9
S21400212802EB610292FBF4F29042D1DBB3F90200B3
S2140021389042CDDC10B2CBE737F831C04E1C944540
S214002148E3D33146DEE70348C2E700BF2FB60000F8
S214002158F41300200080FFFF08B50448FFF70AFFC5
S214002168BDE80840012008F0A9BA00BF34B6000050
S21400217873B5044608F0A4FA48BB6946204608F03A
S2140021889BFA00B1FEE7134E9DF8003032789A426B
S2140021981DD00C2B09D0204601F064FA05462046CF
S2140021A80C4908F076FA10B1FEE76425F7E72946E9
S2140021B8204608F055FA00B1FEE73378042B06D11E
S2140021C86946204608F078FA9DF80030337002B069
S2140021D870BD00BF161C002070B5052905460E46C2
S2140021E88CB013D80023B1B16422CDE90533079328
S2140021F89623023ECDE90123CDE9032308F0D3FA5E
S214002208032E0ED8DFE806F01D2126288B1F032B89
S21400221826D9212402E008F09EF9344620460CB060
S21400222870BD284601F006FB044630B9284601A9C9
S21400223801F0BCF804460028F0D0284608F0BDFA9D
S214002248ECE7284601F0FCFAEEE70021284608F0FD
S214002258C3FAE9E70221F9E7284601F0E5FAE3E7D9
S2140022682C22002101A808F025FE194A194B2846F9
S214002278CDE902236423B6220693CDE90432C023AF
S214002288079340F20B1301A9ADF82C3001F086FA3B
S214002298044650B9082E28460ED0092E0FD0072E11
S2140022A807D001F0A9FA044660B1284608F062FA99
S2140022B8B4E701F0A7FAF6E701F0B0FAF3E701F0A1
S2140022C8A7FAF0E70821284608F045F9A6E700BF70
S2140022D80100A002020102017FB50222084B09494B
S2140022E8CDE901234FF00073CDE90313052301A9B7
S2140022F84FF0FF30059308F032FA07B05DF804FB9C
S214002308006A1800000204004FF40052034B002035
S2140023189A660322C3F86022704700BF00900050F8
S2140023284FF40052034B00209A660322C3F860223B
S214002338704700BF00A0005030B58BB06C46554DB6
S2140023480FCD0FC40FCD0FC495E8030084E8030033
S214002358514BD3F84C21120340F18780A3F5FE4376
S2140023681C88B4F5807F28BF79248DF81940FFF7BC
S21400237871F9044484F3080448488DF81840FEF7B9
S21400238849FA6846FFF7CAF83220FFF769F9444861
S214002398FFF74CFA434C444809F077F80020FFF75B
S2140023A865F9FFF7F9F9236F002023F0070343F0D8
S2140023B803032367FFF71AFA236F3C4923F4744391
S2140023C823673B4BD3F8FC2012F0807251D1C1F83A
S2140023D88020344BD3F8202122F0030242F0020278
S2140023E8C3F82021D3F8242122F0070242F0020283
S2140023F8C3F82421D3F8802122F0030242F0010218
S214002408C3F88021D3F8402122F0030242F00102EB
S214002418C3F84021D3F8602122F0030242F00102FB
S214002428C3F86021D3F8402222F0030242F00102EA
S214002438C3F84022D3F8002222F0070242F0010235
S214002448C3F80022D3F8202222F0030242F0010249
S214002458C3F82022FFF74AF84FF0E022002013695D
S21400246843F0040313610BB030BDD3F85041E4B217
S2140024787BE7D3F8FC2022F08072C3F8FC20002209
S214002488C1F88020D3F8FC2042F08072C3F8FC2004
S2140024989FE700BFB8B600000080E00F00F04902D2
S2140024A800B4C40400800050ECB600000090005051
S2140024B800ED00E007B56B46054A1068516803C38F
S2140024C86846FFF76BFB002003B05DF804FB00BF0F
S2140024D8E0B6000013B50024064A6846536F43F07A
S2140024E80103536700948DF80440FFF799FA2046D5
S2140024F802B010BD004000500028ACBF00F160409C
S214002508064B4FEA0111C9B2ABBF00F5614000F0B7
S2140025180F0080F800131954704700BF14ED00E050
S21400252808B508F099FF0B4B1A7872B901221A7091
S21400253808F08DFF6FF0040210460132052152B2F2
S214002548FFF7DAFF402AF7D108BDBDE8084008F0D3
S2140025587EBF00BF5A180020002807DB0123410968
S214002568034A00F01F00834042F82130704700BF3E
S21400257800E100E0054B421153F8223000F01F003E
S21400258823FA00F0C04300F00100704700E100E0C5
S214002598002808DB01224309034900F01F00824097
S2140025A8603341F82320704700E100E007B568462D
S2140025B800F01AF8DDE900010022034B03B05DF8CD
S2140025C804EB07F068B800BF0C14002007B50093AA
S2140025D813460A460146034806F090FF03B05DF826
S2140025E804FB00BF0C1400200249034A0160521A7B
S2140025F842607047381C0020008000200048704762
S2140026080C14002008B5FFF7D1FFFFF79DFB012843
S2140026180ED1124B04205A6E4FF4802310495203F1
S21400262858BF104A4B6601F51041086258BF5366FA
S21400263807F04DF8FFF774FFFFF73CFF06F048FD7C
S214002648FFF748FF00F010F807F042F807F04FF8D9
S21400265806F097FBBDE8084007F03BB8008000503E
S2140026680090005000A0005070B508F0F5FE144E1B
S21400267805463478FCB9134B1C60134B1C60134B8F
S2140026881C6000F02BF8012008F0A8FE08F09AFE5F
S2140026980F4B0246186020B9284608F0D8FE2320BB
S2140026A870BD234640F2E7310A4806F087F90A4B20
S2140026B8186001233370284608F0C9FE0020EFE7AB
S2140026C85D1800203C140020381400204414002014
S2140026D84014002018FCFFFF341400201FB5002407
S2140026E8194B18689A880290D3F806009B7A0090CF
S2140026F81648ADF80C208DF8043008F0C6FE02A87F
S2140027088DF808408DF80C40FFF7E8FA6946012076
S2140027188DF80040FFF79EFA40F2FF320C4B9A61A4
S2140027285A614FF0B042936A13F00803FBD1136264
S2140027380120FFF7A9FA0C20FFF72AFF0C20FFF765
S2140027480BFF04B010BD00BF00B70000E8B60000DD
S2140027580020005810B508F07FFE4FF0B04304463E
S2140027685B695A06074A03F0010003F0510348BFA5
S21400277840F00200536108F05FFD2046BDE81040B7
S21400278808F065BE002000580146014807F0F6B973
S2140027985E18002010B50446416A0D4807F0EEF9A9
S2140027A80C4A04F1120304F1220153F8040B8B427D
S2140027B842F8040BF9D1227C054B1A75627C5A75CF
S2140027C894F829209A7594F82B20DA7510BD00BF66
S2140027D85E180020621800200D4B30B51A4652F8D5
S2140027E8041B03F11404416200F1120152F8045B61
S2140027F8A24241F8045BF9D11A7D02745A7D4274EC
S2140028089A7DDB7D80F8292080F82B3030BD00BF0C
S2140028185E18002010B50446FFF7BCFF2046BDE84A
S2140028281040012320220149FDF796BE5E180020BD
S21400283810B50446002320220349FDF78DFE2046E6
S214002848BDE81040FFF7C8BF5E1800200122014B04
S2140028581A7070477E180020014B1860704700BF3A
S214002868C8140020024B01460022186807F027BE4D
S214002878C8140020024B01220021186807F016BE73
S214002888C814002070B50D4B0D4604461E6886B069
S21400289830B1002330461A4607F00DFE60B1FEE759
S2140028A8074A03AB07CA83E807002246294630468C
S2140028B8009407F002FEF1E706B070BDC8140020C9
S2140028C80CB700000A4610B50C460146044801231A
S2140028D8006807F01EFF844200D0FEE710BD00BF68
S2140028E8C8140020002313B50B4C009380220B4914
S2140028F8206807F010FF024600B1FEE74FF6FF71AA
S214002908206807F044FF00B1FEE7054B1B7803B9C3
S214002918FEE702B010BD00BFC8140020481400200F
S2140029287E1800200146014807F028B995180020AF
S2140029380146014807F022B988180020024684207C
S21400294838B5074B074C93F900500221802300FB4B
S214002958054007F0DEFA003818BF0120404238BDAF
S2140029687F180020CC14002030B50E4C87B094F9A0
S214002978005004240144104404910090002184204F
S2140029880594094C019300FB05400D23CDE902117F
S214002998064A07F011FD003818BF0120404207B06C
S2140029A830BD00BF7F180020CC1400208D180020F2
S2140029B8F0B5144C9BB016469DF8802094F900C0DC
S2140029C804249D18054401440344842005940E4CB1
S2140029D806AF00FB0C400491019231460093CDE906
S2140029E802570D23094A07F0E7FC044632463946E3
S2140029F8284608F067FA201E18BF012040421BB080
S214002A08F0BD00BF7F180020CC1400208D180020D1
S214002A182DE9F0418CB00DF120081F460C464346C0
S214002A281646026801F1100C07921D462068616878
S214002A38083403C564452B46F7D11046FFF772FFE6
S214002A480E48FFF77BFF0E4B842593F900000423FE
S214002A580C4CCDE90473019307AB009310210D23AA
S214002A6805FB0040CDE90286074A07F0A5FC0038BA
S214002A7818BF012040420CB0BDE8F08118B700002E
S214002A887F180020CC1400208D180020F0B51F6891
S214002A988DB0036807AE069335460B4601F1100C59
S214002AA82C4618685968083303C463452546F7D189
S214002AB8136838460B93FFF73BFF0F48FFF73EFFB8
S214002AC80E4B842593F9000004230BAA04920C4CA1
S214002AD8129A0593019306ABCDE902620093102182
S214002AE80D2305FB0040074A07F07CFC003818BF9A
S214002AF8012040420DB0F0BD18B700007F18002036
S214002B08CC14002080180020F0B51646CC180519FD
S214002B18114A34449BB0044492F900C00494042239
S214002B28842401440D4806AF04FB0C00059201936B
S214002B3800910D233146CDE90257094A07F052FCA9
S214002B48044632463946284608F0BCF9201E18BF07
S214002B58012040421BB0F0BD7F180020CC14002096
S214002B68801800202DE9F04700274FF00D0A1B4B70
S214002B7804461B4E1B481F701546894607F0C5F9C4
S214002B8852463946304608F095F952464FF0050A3F
S214002B98DFF854803946404608F08CF940462168EC
S214002BA806F0ECFF216808F1040006F0E7FF394656
S214002BB8304688F80CA006F0E1FF2168301D06F0C4
S214002BC8DDFF284686F80CA0FFF7ACFE2846FFF780
S214002BD8AFFE4846BDE8F047FFF7B0BE7F180020B6
S214002BE880180020CC1400208D180020004870475C
S214002BF89A1800202DE9F74F1D4691F8283006460A
S214002C080C4617469DF83090002B5CD03B2DA8BF8D
S214002C183B2501280AD8486A01304862FFF7B4FD08
S214002C28606AFFF77FFE606AFFF782FE2B46304633
S214002C383A462649009406F025FE002506464FF437
S214002C487A78DFF888A031465046FFF73BFEFFF754
S214002C5811FE4FF0FF3007F08AFD94F8291007465A
S214002C6894F82800FFF70EFEFFF704FE637BCBB14F
S214002C784FF0FF3007F07BFDA37B94F829B008FBE4
S214002C880373E77B181A08FB07F713D13846FDF7D6
S214002C983BFC5846FFF7E6FDFDF74EFC0028FBD147
S214002CA8FFF7E8FD0135EBB29945CCD8002003B014
S214002CB8BDE8F08FFDF728FCFDF73EFC0028E5D0C0
S214002CC806F02CFDF8E74FF0FF30F0E71A19002061
S214002CD82DE9F04390F82B50044691B08DBB0126A1
S214002CE8DFF81C81058298F8003080F828600BBB56
S214002CF81D464FF0E3093F4A868110681279069010
S214002D088DF81C2006AF17F8013B214684F82930B9
S214002D1801200223009602AA0135ADF80890FFF7B5
S214002D2869FF052DEFD188F8006084F82B6011B094
S214002D38BDE8F083012B01D106F0A0FE88F800500C
S214002D48F5E7013D052D52D8DFE805F02F0351358C
S214002D58454502AA1746284B03F11006154618687B
S214002D685968083303C5B3422A46F7D10025234BD2
S214002D78666A07AA3946069320460BAB2574FFF702
S214002D8847FE31460CA806F0F9FE012321460093BB
S214002D9828461C2306AAFFF72DFF94F82B30042B91
S214002DA8C5D0022384F82B30C1E706F067FE002260
S214002DB8134B1A70BBE7E2238DF81830012301463F
S214002DC80093002006AAFFF715FF052011B0BDE8FE
S214002DD8F04300F067B8E2238DF818300123014667
S214002DE80093002006AAFFF705FF0620EEE700235B
S214002DF8D8E700BF28B700002EB70000E002E3F3CC
S214002E089A1900200048704750150020F0B5002297
S214002E1885B06D464272154A0346026040F6013296
S214002E282C460285124A02F110072E461068516891
S214002E38083203C6BA423546F7D103F1120504AE86
S214002E48224603CAB24228606960144605F108059E
S214002E58F6D101225A7340F21452DA8140F2034244
S214002E681A82002283F82B2005B0F0BD44332211C5
S214002E783EB7000010B5074C2046FFF7C7FF2046B0
S214002E88FFF7D6FC2046626A04F11201FFF76AFED5
S214002E98204610BD50150020014B83F829007047C6
S214002EA850150020014B83F82B0070475015002062
S214002EB800487047501500200322024B186019611D
S214002EC85A6370470000025C3F22034B1A631022C5
S214002ED8DA6103229A6370470000025C024AD36BE9
S214002EE89B07FCD4704700BF0000025C044B9B6A3B
S214002EF813F0240F14BF012000208000704700BF85
S214002F080000025C08B5FFF7F1FF064BDB6B23F405
S214002F187F4323F0EF0303431EBF0122024BC3F88F
S214002F28FC2F08BD0000025C00F0FF3F4368182B2A
S214002F380AD0202B1DD0102B2BD1174BD3F80434D6
S214002F48DB010AD401207047134BD3F804349A01E6
S214002F58F8D50B6843F008030B6003680F4A9342E2
S214002F6810D10B6843F040030B6000234360002039
S214002F787047094BD3F804345B01E3D50B6843F07C
S214002F880403E9E7064A9342F1D10B6843F080034D
S214002F98EAE70720704700BF0000025C9C19002083
S214002FA89B1900200B4607B50749D1F80414C90732
S214002FB808D5002100920246084600F01BF803B028
S214002FC85DF804FB0120FAE70000025C0B4607B533
S214002FD80749D1F80414C90708D50092012102460A
S214002FE8002000F007F803B05DF804FB0120FAE7BC
S214002FF80000025CF0B51C465B6815468DB01A07E3
S214003008129E1AD1CBB17268934216D10C4B0D4A58
S21400301853F8217009AB07CA83E807001A46294601
S214003028CDE90533CDE90333CDE90163009447F4D0
S214003038807006F00FFE0DB0F0BD0720FBE700BF5E
S2140030485CB7000050B70000F0B504460B4B0C4EBA
S214003058586800B9F0BDC579C5F3840556F82550FB
S2140030682D78A54208D1457905F00F07B1EB871FE3
S21400307802D1B2EB151FEDD00833E9E764B70000BC
S214003088B01B002010B5044680B1C06B40B1236861
S214003098074ADB79C3F3840352F823305B69984701
S2140030A82046BDE81040482100F0AEB810BD00BF6D
S2140030B8B01B002038B505460C46A9B148220021A9
S2140030C807F0F8FEE379094AC3F3840352F823307D
S2140030D81B6913B900202C6038BD9847E8630028A0
S2140030E8F8D1A0F5C340F7E70148F5E7B01B002084
S2140030F8009FFFFF70B4DCB2012C27D804682CB3FD
S214003108E57905F00305012D05D8657905F00F0565
S214003118B2EB851F1AD10372E579012B42600D4E7A
S214003128C06BC5F3840508D0637903F0F004302C2F
S21400313803D003F0E003402B04D156F825309B68F3
S21400314870BC184756F82530DB68F9E7024870BCAB
S214003158704700BFB01B0020009FFFFFD0F800C0DC
S2140031682DE9F341DDF820800E469E46BCF1000F9F
S21400317803D1204802B0BDE8F0810025C8F8005009
S2140031889CF8045015F01F052FD09CF8057007F022
S214003198F007102F14D1AA4229D1C8F800209CF8AD
S2140031A807201549C2F3840251F8222090F9081026
S2140031B854683246A446C06B02B0BDE8F04160478A
S2140031C8902F05D1CDE90028C06B06F0A5FFD1E702
S2140031D8994208D1436A002BCBD1B2FBF5F305FB25
S2140031E81324002CC5D10548C4E70548C2E705489E
S2140031F8C0E700BF009FFFFFB01B0020809FFFFFB7
S214003208809CFFFF809DFFFF10B50A46044619B153
S214003218024B00211B68984710BD00BFBC1B00204E
S214003228F0B50D4604468BB018B9002420460BB0FE
S214003238F0BD1A4E3768002FF7D12022394602A86B
S21400324807F038FE236801A80193154B1B88ADF8D4
S2140032581430144B1B68079300F070F804460028D7
S214003268E3D0306000F090F82046394607F0EDF9D4
S214003278204607F035F938B10020306000F084F8B1
S214003288204607F028F9D0E7204600F00BFA002879
S214003298F2D1002DCAD02046A847C7E77C150020E3
S2140032A8BCB80000C0B80000024B1868003818BF49
S2140032B8012070477C150020431E033306D8044BB4
S2140032C8984228BF1846642838BF6420704700BF55
S2140032D840420F0038B505460C4641B10B6833B17D
S2140032E81B68013303D0CB680BB18B684BB907F06A
S2140032F8C9FC00204FF4C172412100F0FDF92120DD
S21400330838BD084602F066FA00230A4A85F83031C6
S214003318C5E93743C2E9003363694BB1064A42211F
S21400332810684FF4D272C31A5842584100F0E4F9B4
S2140033380020E5E7901B0020C4170020F8B50446D7
S21400334808F081F8002607460E4B1B6893B19E6866
S214003358AEB196F82420D20711D435460FCC0FC547
S2140033680FCC0FC523682B6096F8243043F0010372
S21400337886F82430384608F061F83046F8BD1B68F1
S214003388E4E700BFC41B002010B5044618B9054B77
S214003398054A136010BD00F0B7FBD4F8E830002BE0
S2140033A8F6D1F4E7CBA40000C01B002008B50246FF
S2140033B80868FFF781FF08604868FFF77DFF4860E8
S2140033C88868FFF779FF8860C868FFF775FF0B699C
S2140033D8C860581C03D00B48834228BF03460B61BD
S2140033E84B69581C03D00748834228BF03468869A0
S2140033F84B61FFF761FFBDE808408861104601F0A1
S214003408A1B900BF40420F00D0F8E0302DE9F041E6
S21400341805460C4613B1838D8B424CD0D5F8DC306C
S214003428002B4BD09E68002E48D0D868002845D080
S214003438013800B200281ADB002106E0128A591C5F
S214003448A24217D209B2884211DB0B1803EBD373DA
S2140034585B1003EBC30206EB8202B2F80EC003F160
S214003468FF3EA445EAD90FFA8EF08842EDDA21200D
S214003478BDE8F0814FF6FF7299B29142F7D09BB241
S21400348803EBC30306EB83062846B6F9122095F825
S2140034982411D5F8F080FEF77FFD0746B8F1000F37
S2140034A804D00023324628461946C047AC85C5F8DE
S2140034B8E06085F82D710020BDE8F0810E20BDE89B
S2140034C8F08100BF2DE9F04782B004460F46164645
S2140034D801F082FB00285ED1454D2B68D4F8DCA0AD
S2140034E8D4F8E0800BB1534562D04FF00009AF60C6
S2140034F801F088FB0128074651D12B68DAF800103E
S214003508D8F8002013B1186888425CD0204607F027
S214003518D1FAC5E900A8D4F8F0508DF80760002D58
S21400352858D00022204611460DF10703A84720462A
S21400353800F028FE0546B9F1000F0FD076B9D4F88A
S21400354888300BBB012F05D025B12A4B002103205C
S2140035585B689847284602B0BDE8F087B5FA85F05C
S21400356840F207523321400900F0C6F8314620469B
S21400357800F018FF204B05461B6841462046984732
S214003588D4F88830002BDDD000224FF40073204694
S21400359800F0CAFAD6E70023154D6B609DE70021B8
S2140035A8012000F0F9FA01F02DFB0128FBD1A4E771
S2140035B86B68002B99D0434597D1AB689F4215D0CE
S2140035C84FF0010993E7696811B109689142A0D0E4
S2140035D859689BE794F8281094F82D31324699429A
S2140035E828BF1946204600F01FFDA0E70025B1E7D2
S2140035F8901B0020CC1B0020C01B0020F8B50E46F0
S214003608054607F020FF314607462846FFF7FCFE2A
S214003618044620B1384607F011FF2046F8BD01F0F1
S214003628BDFA224631462846FFF74CFF0446384680
S21400363807F004FF2046F8BD084B10B4002A14BF54
S21400364814461C46064B1C6019B15DF8044B06F080
S21400365893BF08465DF8044B704700BFCBA4000034
S214003668C01B002013B50446694607F025F8204617
S21400367807F01DF9FF28024606D020469DF80010E0
S214003688FEF708FD02B010BD0048FBE70080FFFF0C
S21400369808B50B460249194007F018F8002008BD7F
S2140036A8070011004FF4007307B50A490DF106022A
S2140036B8ADF8063007F045F8BDF80630B3F5007FDC
S2140036C805D1022808BF002003B05DF804FB2120BE
S2140036D8FAE700BF8015002038B5044D044C054BAA
S2140036E8286021601A6005F06EFB38BD8017002040
S2140036F8C81B00208417002010B550B90548064B93
S2140037080160064802601868054B18601868FFF7DD
S214003718E3FF10BDC81B00207C150020841700207E
S214003728801700202DE9F0418AB001AC05460B460B
S2140037382746194A02F1200C2646106851680832B6
S21400374803C662453446F7D1002B08BF3B46002720
S21400375810681C463060384603F10C0690B95FFACC
S21400376887F842462846218807F0EBF950B94246C2
S2140037782846E18807F0F6F920B942463146284639
S21400378807F002FA0137032F06F1080604F10204CF
S214003798E4D10AB0BDE8F081CCB80000F0B589B035
S2140037A805460E4601F0E0FA044600BB01AC06F1F9
S2140037B80C070FCF0FC497E8070084E8070001A995
S2140037C82846FFF7F3FD2846311D07F01EFB044682
S2140037D848B92846074900F069FF044618B928463C
S2140037E801F08CFA044628463168FFF79BFF20460E
S2140037F809B0F0BDC4B80000014906F0BABF00BF62
S214003808E54C0000014906F0B4BF00BFF54C0000C7
S214003818014906F0AEBF00BF47AB0000014906F0FD
S214003828A8BF00BF43AB0000014906F0B6BF00BF03
S214003838354E0000014906F0B0BF00BF614E0000DB
S214003848014906F0AABF00BF094E00002DE9F04363
S2140038588F7880460F2F0C4685B003D9212005B0F7
S214003868BDE8F08327B90123374A00201370F6E72E
S2140038780D784E78EDB9002EF0D194F90310E08853
S21400388802F06AFD2128E9D055EA0603A088DFF889
S214003898C89013D002F0B4FD4FF60403B9F8002020
S2140038A801469A424BD1AE42334638BF2B460026D5
S2140038B82DE0082DD2D8082ED0D8DEE702F0A0FDDD
S2140038C84FF6040501464FF60500204A136E9BB2D4
S2140038D8AB4208BF0346B1F5803FA9F800300FD9C0
S2140038E802230825136680230126C2F880302B465B
S2140038F849084FF6FF720139914228BF114608E081
S2140039088023012608251666C2F880302B46002933
S214003918EFD1002202920122013FFFB200920197E6
S2140039282A4608F1F80002F025FC1EB14FF4801272
S214003938074B5A65074BA2681A60022394E70348A8
S2140039480266A9F80030AEE79D19002000C001B84D
S21400395800D001B8901700201C1C002010B50446A3
S214003968D0F818210B4B4FF40061C3F8CC2090F820
S2140039782420D20102F4006204F07EFF94F824307A
S21400398813F0100F4FF4007314BF034A034A13646E
S21400399810BD00BF003E00B0001002B8002002B8FC
S2140039A837B50C46234D59B90A46012104F064FF81
S2140039B8214BEC645C6003B0BDE8304004F0B6BF51
S2140039C80122114604F058FF07221C4B0121DA6039
S2140039D8237901A885F84C306379019307F003FA38
S2140039E8019BC2B2D34000F00F0040EA031085F8EE
S2140039F84D00A27985F84E20E27985F84F20206898
S214003A08286501939BB1012102888B4208D8237947
S214003A18013B13440A4A136204F088FF03B030BD22
S214003A2830F811500131AA4228BF2A46EDE71A4657
S214003A38EDE700BF003F00B04C3F00B0006000B8A4
S214003A48004000B8431C07D06FF0FF02034B10403D
S214003A585A62A3F580535862704700BF00E000B86A
S214003A6810B504234FF03A4101240A4AD1F8180148
S214003A78C2F81831C2F814314C634FF40051116380
S214003A88410742BFC2F81431A2F58052C2F8183175
S214003A9810BD00BF002000BAF8B504460F4616460B
S214003AA807F0D1FC0546A047044620B1284607F093
S214003AB8C5FC2046F8BD04F099F804220549D1F85B
S214003AC8F03E23EA07033343C1F8F03E024B1A647C
S214003AD8ECE700BF003000B0002002B800F0180382
S214003AE8182B0AD003070AD440F2011310F010006E
S214003AF818BF1846034BD86770470020FAE701201E
S214003B08F8E700BF003F00B038B10368044A002B4E
S214003B1808BF1346034A13607047014BFAE700BF15
S214003B28F7A70000D81B002010B4D0E95241224065
S214003B380B4052EA030104D003495DF8044B0968B8
S214003B4808475DF8044B7047D81B00200F2938B586
S214003B5805460C460ED801F055F801280CD1074A40
S214003B682846936E23F00F032343936607F01BF84B
S214003B78002038BD2120FCE70220FAE7003F00B00D
S214003B88014BD86E704700BF003F00B0014B0020C5
S214003B98D9667047003F00B003282DE9F3478846EA
S214003BA855D82C4B13F800902B4B1E5C2B4B13F858
S214003BB800A007F048FC074603F064FF054640B13E
S214003BC800230022CDE9003301200023002103F062
S214003BD885FD03F05FFF48B100230022CDE90033DE
S214003BE8002000234FF4004103F078FD6EB31C4B11
S214003BF8DC6C04F008041B4B3146DC64484604F0D1
S214003C0853F852463146484604F0DCF8164BDC6456
S214003C186DB1164B1868D0F89010F83002F0B0FF67
S214003C2813490868FFF70EFF4FF0FF330B60B8F133
S214003C38000F04D00F4B002103205B6898473846D6
S214003C4802B0BDE8F04707F0F9BB3446D3E702B048
S214003C58BDE8F087F8B80000F4B80000F0B8000037
S214003C68004000B8006000B8005000B87C1500207E
S214003C78D41B0020CC1B00200F4A136C13F0A00F97
S214003C8815D1506C10F0040013D10C4BD3F8F03E4D
S214003C9823F07F4323F0FF035BB1D368C3F30362CB
S214003CA8092A07D0B2F10C0018BF0120704700207F
S214003CB870470120704700BF000002B8003000B00F
S214003CC870B50D46064620B91A4B1B68A3B10E20E0
S214003CD811E000F097FF012829D1174B93F900400F
S214003CE8C4F12704641BC4F11C03002BB8BF5B4255
S214003CF8232B0CDD212070BDA1F10B03002BB8BFD0
S214003D085B42232BF6DC0C4B19700020F3E786F891
S214003D18265007F098FB094AE402136A04F4FF24C5
S214003D2823F4FF231C43146207F088FBEDE7022008
S214003D38E1E700BF7C1500209E19002000C000B8EF
S214003D4810B5FFF70BFE03F035FA07F07CFB0A4ABE
S214003D580121D2F8C83E044623F02003C2F8C83E24
S214003D680222064B08469A60054B5B689847204631
S214003D7807F064FB002010BD003000B0001002B849
S214003D88CC1B0020094B08465A6A91020BD4D3F87C
S214003D980021D20708D4D3F8803013F4706F14BF0C
S214003DA80120002070470120704700BF004001B87E
S214003DB8F8B50D46D0F8903002EA010423EA01036C
S214003DC82343C0F890303D4A01F00B0323EA040170
S214003DD8D1642340A2F580526F070646D36410D5F7
S214003DE80121FFF7CFFF60B103F000FF4FF4007327
S214003DF814F0040F14BF324A324A53620422324B7C
S214003E081A64E90606D514F0100F14BF00221B2208
S214003E182E4B5A652A061DD5230616D54FF40012D2
S214003E28274B1A62012203F58053C3F8002107F0D6
S214003E380AFB0E210746032002F0F2FD40F201229B
S214003E48224B3846DA6207F0F9FA214606F1F800FE
S214003E5802F096FEEF0503D5E00529D502F0B0FD81
S214003E68A90503D5A20526D502F0B6FD15F0600F04
S214003E7809D0D6F8E410304606F0BAFC8022144B77
S214003E889867144B1A612B0510D503F0AFFE124A3B
S214003E9814F4006FD2F8F03E14BF43F0006323F02A
S214003EA80063C2F8F03E0422074B1A640020F8BDEF
S214003EB802F080FDD4E702F089FDD7E7006000B87D
S214003EC8005001B8006001B8002002B8004000B8F1
S214003ED8003F00B0000002B8003000B00A78022A9E
S214003EE811D0101F4242424152004B781201022B59
S214003EF80BD0191F4B424B415B000549054842EA67
S214003F088312FFF7C9BD0122EFE70123F5E700BFDB
S214003F18F0FFFF00554C00000B78022B10D0181F3E
S214003F28434243415B004A78022A0BD0111F4A429B
S214003F384A4152000F21044843EA8202FFF7ACBD0B
S214003F480123F0E70122F5E7814C00002DE9F8434C
S214003F580E780446042E0D4690F824810BD10027CF
S214003F685FFA87F9484601F083FC08B14E4602E03E
S214003F780137042FF4D1304601F07AFC002849D0E6
S214003F8894F82431B34209D1AA88D4F8A4309A42C6
S214003F9804D16A88B4F826319A4238D084F8246165
S214003FA8AB883046A4F828316B88A4F82631AB884D
S214003FB804F59275C4F8A430FF2384F8293006F077
S214003FC869FE84F82800284601F012FC18BB28462B
S214003FD801F044FCF8B9D4F8E03053B194F8241151
S214003FE8414506D02046B3F91220FDF7D5FF84F8E0
S214003FF82D01204601F080FC0949A4F82801012378
S214004008084AD1F8FC1004F1F80003F07BF9002008
S214004018BDE8F88321200C2384F82431F8E700BF94
S214004028004F00B0A43F00B070B5054690F82401D4
S2140040380C460C281FD0FF2901D1212070BD1AB1CB
S2140040484FF0FF320D4B1A6006F024FE064695F830
S214004058240101F043FC844228BF0446E4B2B4427B
S21400406838BF3446E0B285F8290001F041FDFF2844
S214004078E3D00020E2E70220E0E700BFDC1B0020D8
S21400408810B590F8243104460C2B44D0D0F8E03014
S21400409880F82810DBB3D0F8F020D2B990F82D318C
S2140040A88B421CD300222046FFF7BEFF48BB1B4BA3
S2140040B81B7813F0FD0F23D1204601F01DFC18498C
S2140040C80123184AD1F8FC1004F1F80003F01AF995
S2140040D816E0B0F94020B3F912309A42E2DD002229
S2140040E8204694F82D11FFF79FFF50B9C4F8E0005A
S2140040F8204606F065FA4FF6FF739842014601D14E
S214004108002010BD2046BDE81040FFF777BAFF2311
S21400411880F82930F4E70220F3E700BF201C0020CF
S214004128004F00B0A43F00B0F0B51D46144B04463F
S2140041381B780F46164685B05BB1D0F8E030E3B181
S21400414802AAB3F912300092002204F055FF05B017
S214004158F0BD02A906F0B0FA9DF808103A462046C7
S214004168FDF71AFF014626B92A462046FFF75CFFE8
S214004178EDE72046FFF784FFE9E71846E7E700BFC4
S21400418832B60000D0F89830012B01D100207047D5
S21400419870B5054650498EB006F0B6FDD5F8E06015
S2140041A80146AC8DC5F8E40026B1336813B15B68E8
S2140041B8002B6BD107F047F907F040F90123D5F833
S2140041C8E4108DF80E30B389D6E90120E31A9BB2C5
S2140041D800FB03224148ADF80C300368029299426E
S2140041E807D0284606F004FB80223D493D4B8867E9
S2140041F81A613D4C3B4E00F005FD0128FBD1236CAF
S214004208D907F8D4336CDA01F5D4D5F8E410284683
S2140042180D919DF80E20029908AB02F051FD00287A
S21400422831D100F0EFFC0128FBD12E4A2E49136C41
S214004238DB01FCD40B6CDE07F9D408A901A802F050
S21400424861FF00BBAA8D294B5A6495F8243060F3A9
S214004258410385F8243006F0C6FCD5F8E03002465F
S2140042685B691968431EDBB2FD2B049114D9CC1C7C
S21400427812D91F4B01311B6815D0D81C10D82846F8
S21400428804A904930AE002200EB070BD1A68032A37
S21400429890D99B6A5B0E94E7284604A906F08DFC25
S2140042A800200EB070BDD91C04D8284604A9049373
S2140042B806F083FCD5F84C319B0506D495F82430D7
S2140042C843F0020385F82430EAE728464FF48031A5
S2140042D806F00AFAE4E700BFFC4F00B08C1700208F
S2140042E8003F00B0000002B800C002B8008001B865
S2140042F8E81B002010B50C4619B106F01BFC00B1EF
S2140043080434204602F07CF8024B4042C3F8E00E24
S214004318002010BD003000B0438E70B593420C46A6
S21400432815461CD3436C8B4208BF002407F08BF855
S2140043384FF49C530B490646CA68C2F30362D3403F
S214004348DA0702D50B6C9B0304D4012229462046C3
S21400435801F024F8304607F071F8002070BD2120DF
S214004368FCE700BF000002B8F8B507460D4614463D
S2140043788BB1FFF775FB29463846BE8A00F000FE6B
S214004388B44228BF3446A4B222462946044800F060
S21400439813FF2046F8BD06F0DBFA0646F0E700BF36
S2140043A80C0000BAF8B504460E4619B990F8243041
S2140043B85A0647D44FF6FF73218ED4F8E470994214
S2140043C804D0354B1B680BB120469847334D2B68F5
S2140043D8BB4255D0324B1B683BB11FB13A68002A26
S2140043E850D0BF683946204698470727204601F030
S2140043F883FA002E3AD004F099FA0620294B94F94D
S214004408262093F900302849C3F127039B1A0A6A25
S214004418DB0222F4FF2203F4FF2313430B62D4F8D3
S214004428E420224B2A60986701F0CAFB0025012188
S2140044381F4A204B1170204683F8845006F0B3FBC1
S2140044482846F8BD4FF6FF71144DD0F8E4702A6878
S21400445866F386139742018680F8243017D0104BEF
S2140044681B68002BB9D101F047FA072712493B46CB
S214004478124AD1F8FC1004F1F80002F043FFBAE73C
S2140044880127B3E71746204639469847ADE701F0B7
S21400449833FA0127EAE700BF981700208C17002098
S2140044A8941700209E19002000C000B8006000B8CD
S2140044B89F190020003F00B0004F00B0A43F00B096
S2140044C8054A12681AB190F81E1119B9104708461D
S2140044D802F0C6BA014870478817002000FEFFFFA2
S2140044E8334B2DE9F7431C6801F4007900F001030B
S2140044F8174653EA090206460D4632D04FF0000822
S21400450823B30023002201200021CDE9008803F010
S214004518E5F841462046FFF7D3FF01224146E085ED
S214004528104606F01AF8D4F8901004F1F80002F0D5
S21400453827FB20490868FFF785FA4FF0FF330B6022
S21400454894F8243043F0040384F82430B9F1000FBB
S21400455807D00121204606F0C7F825F40075064363
S2140045680D432B4632462046FFF7DEFAFB070FD5EB
S2140045781149124A08680021136811600121104A7F
S214004588117003B198470F4B002102205B689847CB
S21400459817F00E0F08D04FF409723B21002003B025
S2140045A8BDE8F043FFF7A8B803B0BDE8F08300BF46
S2140045B87C150020D41B00209C170020A017002084
S2140045C8A0190020CC1B002008B558220021064858
S2140045D806F070FC1022FF21044806F06BFC04F07D
S2140045E8A5F9002008BD00BFF43E00B0383F00B073
S2140045F873B574210C236D22A0F81411822180F85B
S21400460824314FF6FF734FF0FF35C0E941120026FC
S214004618C0F8002164220446838580F82A301E4BA1
S214004628C0E94322C36300F1480343641B4B80F888
S2140046382660C0E90C35C0F8A450058503F032FAA8
S2140046482046FFF7C1FF94F926102046FFF738FBEF
S2140046586023134A40F6FF71D3644FF03A42116361
S2140046681167104A2946D36440220F4B20461A6425
S214004678D4F89020FFF79CFB0E230022CDE90033E8
S21400468840F202231046194603F028F801F004F910
S214004698304602B070BD00BF0700FFFFFFFF4000B6
S2140046A8004000B8005000B8002002B810B50C460C
S2140046B8FFF78AFFCCB1A378082B18D8E278082A27
S2140046C815D843EA021313F0FF030CBF19466168B6
S2140046D8084AC2F8F410217882F84811617882F8FE
S2140046E84B3182F8491104F021F9002010BD212031
S2140046F8FCE700BF003E00B0012A10B512D8032B15
S21400470810D803EB82020123074C934094F84A0121
S214004718DBB221B10343002084F84A3110BD20EAF9
S2140047280303F8E72120F9E7003E00B0044BD3F86E
S214004738F03E13F0806F14BF23200020704700BFA0
S214004748003000B00246F8B5B0F8284100F1F80588
S214004758FFF7ECFF0B688E68013304BFD2F8003110
S2140047680B604B68013304BFD2F80C314B60771CE2
S2140047783BD1D2F80831CF688B607E1C3CD1D2F88A
S21400478804610F69CE60013704BFD2F8F8700F6174
S2140047984F69013704BFD2F8FC704F618F69013743
S2140047A804BFD2F810718F618F6967BBC0F16404CB
S2140047B808688C6110B16D2838BF6D20C2F80831C2
S2140047C84B68C2E94006C2E943340B692846C2F87A
S2140047D8F8304B690F49C2F8FC30D1F8FC100723B3
S2140047E80D4A02F08FFD0020F8BD04F16D031B1A78
S2140047F8B34238BF3346BEE704F17406361ABE42E3
S21400480838BF3E46BDE76D34241ABC4238BF3C4626
S214004818CEE700BF004F00B0A43F00B038B506F0A2
S21400482812FE4FF6FF710A4A13888B4203D106F030
S21400483805FE0E2038BD074C074D1B046566A4F51B
S21400484880546366118006F0F9FD0020F2E700BF89
S2140048581E1C0020006001B80000FFFF2DE9F7438A
S21400486804460F4615461E46FFF706FA38B3A38ACF
S2140048782BB3204605F06BFF78B9744BD3F8F02EAF
S2140048881EB10E2003B0BDE8F08302F03003102BF3
S214004898F7D002F0C002402AF3D0DFF8E08102F039
S2140048A889FCD8F81430DE07EBD506F0CCFD0646B2
S2140048B8032001F055FC20B1304606F0BFFD02206B
S2140048C8E0E7D8F8142012F00608F5D1304606F0CE
S2140048D8B5FD5E4B4FF400612046D3F8F09ED3F842
S2140048E8D06E03F0DDFF40B14FF400720121584B43
S2140048F808461A64424605F030FE39462046FEF75A
S2140049087DFE524BC3F8F09EC3F8D06E0028B9D18E
S21400491894F82430980601D4002D57D0C5F34000EB
S21400492803F02AF9022315F4807F1FBF494A0021A5
S21400493813644FF03A420BBF454A916113645363C0
S21400494803F054F94FF4806315F0040F14BF424A7D
S214004958424A15F0400F53624FF004023C4B28467B
S2140049681A644FF0400314BF3D4A3E4AC2F88830E6
S214004978FFF7B4F8204605F0BFFF38B14FF4807350
S21400498815F0010F14BF334A314A1364A90646D5F9
S2140049984FF6FF72E38F93420FD0334A3349526E75
S2140049A8100CC2F301120132B3FBF2F308802A4A54
S2140049B82A492F481B0448665366003D18BF012540
S2140049C894F8243065F3451384F82430204606F01E
S2140049D8B1F8F0B1204605F08FFFD0B14FF40031A2
S2140049E8204603F05DFF431C03229BB2214801A921
S2140049F806F03FF99DF8042002F00703052B9DF802
S214004A08053015D112070DD443F480731A4AC2F83C
S214004A18D830002003B0BDE8F04306F035B9FFF7FC
S214004A28FDFECAE713F0040F09D19DF80630EBE740
S214004A3803F03002202A05D113F0010FF4E74FF4F3
S214004A488073E3E79DF80630E0E700BF003000B06B
S214004A58002002B8001002B8005001B8006001B883
S214004A6800D000B800E000B8004001B81E1C0020C6
S214004A780000FFFF0C0000BA003E00B000C001B8FE
S214004A882DE9F3410646884615461F4606F0DBFC28
S214004A980446032001F064FB38B1204606F0CEFC3D
S214004AA80E24204602B0BDE8F081042001F058FB31
S214004AB80028F2D1204606F0C1FC01232A464146CA
S214004AC83046FFF7CBFE04460028EAD1DFF8C88058
S214004AD85FB388F8000039463046FEF7B7FE002870
S214004AE84CD198F80030012B1CD02022244B1A6495
S214004AF8244B9B6FB3F5817F1FD2012006F0DDF8AB
S214004B0806F0A1FC204B06461B680193CBB901F0C2
S214004B1883FB15F0800526D101F0C2FB284602F07B
S214004B28FFFF25E003F012F8BBE798F80030012BEA
S214004B38F8D0002BD9D12124B3E78022134B1A6171
S214004B48DBE7042001F016FA00230122042001A95D
S214004B5801F02EFA0028DAD103F060F82124304656
S214004B6806F06CFC9DE70022094B9A6701F098FB5B
S214004B78084B01215B6800209847F0E7044690E759
S214004B88001002B8003F00B090170020000002B8DE
S214004B9800C001B8CC1B00209D19002008B50B4B9F
S214004BA8D3F84C114B1C10D011F080410DD1084B96
S214004BB81B6813B10320FEF7EFFF4FF08062054B2A
S214004BC8DA6401225A6102229A6208BD0080E00F68
S214004BD87C150020001002B84FF40022034B186C16
S214004BE803F500531A64C0F3C0407047000002B8CB
S214004BF8024B034A00201A60704700BF9417002033
S214004C08A93900000F4BDB68C3F30363013B0B2B8A
S214004C180FD8DFE803F006060C06060606080A089C
S214004C2808080220704704207047052070470320B4
S214004C387047054B5B6913F0060F0CBF0120042074
S214004C48704700BF000002B800C001B8094AD36820
S214004C58C3F303630B2B08D06FF49050184100F091
S214004C68010080F0010040007047106C10F480309E
S214004C78EDD17047000002B80C4AD368C3F303634B
S214004C88062B07D8042BD8B20BD8C31E5842584157
S214004C9840007047072B06D1D2F844010028ECD113
S214004CA87047022070470020704700BF000002B817
S214004CB8094BDB68C3F303639A1E012A8CBF0022E4
S214004CC80122012B02701EBF4FF4026222FA03F380
S214004CD803F001030B707047000002B8024B002275
S214004CE8196805F0FDBE00BF4CB90000024B012252
S214004CF8196805F0F5BE00BF48B9000010B5FF22D8
S214004D084FF6FF71044605F01CFF68B9FF224FF600
S214004D18FF71204605F026FF30B92046BDE8104052
S214004D28FF22024905F030BF10BD00BF00B90000E1
S214004D3810B55B0743EA02439DF8082043EAC163BF
S214004D48520502F0BC621A43064942F4C872044689
S214004D5803F092FD002220461146FFF7DDFA0020F8
S214004D6810BD00BF9007E12D37B50C460546094A29
S214004D7809490A4801F010FC94F8283028460093A0
S214004D8894F82B3094F8292094F82A10FFF7D0FFCF
S214004D9803B030BDB4B90000BCB9000084B9000047
S214004DA813B590F825300446033BDBB2072B96BFB5
S214004DB8104A0021D15CFEF7E9FE012001F02EF82A
S214004DC84FF4F0620C4BDA644FF40072A3F580538C
S214004DD8DA6494F82530053B012B08D80421074BE4
S214004DE801229B6E0DEB0100019300F0D7FA02B08A
S214004DF810BD00BF08B90000006000B8004001B848
S214004E08012310B580F816312823C0F8FC30042397
S214004E18044680F82530044B196805F0ADFB20469B
S214004E28FFF7BEFF002010BD5CB90000012310B5D7
S214004E3880F816312823C0F8FC300723044680F88B
S214004E482530044B196805F097FB2046FFF7A8FFA6
S214004E58002010BD50B90000012310B580F81631A7
S214004E682823C0F8FC300223044680F82530044B7B
S214004E78196805F081FB2046FFF792FF002010BD59
S214004E8860B90000012910B5044604D90239012981
S214004E9815D90E2012E00C4B19680523012284F858
S214004EA816214FF4BC7284F82530C4F8FC2020463E
S214004EB805F062FB2046FFF773FF002010BD034B8A
S214004EC819680623EAE700BF58B9000054B900007D
S214004ED838B5184B04461D6845B1EB6833B12868E9
S214004EE801F0ACFCAB68186801F0A8FC124B1B6814
S214004EF82BB1DA681AB19B68186801F09FFC0F4B53
S214004F081B682BB1DA681AB19B68186801F096FC22
S214004F180B4B1B682BB1DA681AB19B68186801F04E
S214004F288DFC2046FFF798FF2046BDE83840FFF77F
S214004F3837BF00BF60B900005CB9000058B9000070
S214004F4854B9000010B54FF4F06204460020094B2F
S214004F5884F8160184F82500DA6400F05FFF064935
S214004F6804F1F8000223BDE81040044AD1F8FC100A
S214004F7802F0C8B9006000B8004F00B0A43F00B007
S214004F8810B590F82500A0B1304BD3F8BC2012F02D
S214004F98060F01D004280DD94FF470622C4BDA6046
S214004FA84FF48072A3F58053DA600022274BC3F8CB
S214004FB8B82010BD02F0020412F0040202D00B78EA
S214004FC89B0637D4002C39D00B7803F00F03072B39
S214004FD834D14B78022B31D98B7813F03E0F2DD075
S214004FE8CC7814F0040F29D014F0010F0CBF04235A
S214004FF80A23A40748BF0633CB5CFBB1002A14BFBC
S21400500802220122042840F6FF7003F01F0108BFA1
S2140050184900013940EA01310E4801654FF47060D5
S2140050280B491202C860A1F58051CA60074AC2F847
S214005038B830BEE7002CC7D18B7823B90023054AC1
S21400504813650122EAE70222DCE700BF003E00B053
S214005058006000B8004000B80A68064B12F0802FBF
S2140050681CBF42F20101C3F82812C3F88822C3F80D
S2140050788C227047004001B8F0B585B06C460E46E5
S2140050880B4B074615460FCB84E80F00094BD3F8A1
S2140050984822009226B16B1EDBB2FD2B88BF326019
S2140050A82A462146384605F088FD05B0F0BD00BF03
S2140050B810B900000080E00F30B50823054685B01B
S2140050C880B9094AC2F8FC3351B96C46074B0FCB76
S2140050D884E80F00064B2A4621461868FFF7CCFFDF
S2140050E805B030BD034AEDE7001002B820B900004D
S2140050F87C150020002002B84FF03A43D3F814215C
S214005108D2031ED54FF480320E49C1F81421A1F5FA
S2140051188051C1F818215A6DD1B2C2F30722C3F8DC
S214005128A410C3F8A4200422C3F8A4200022C3F8BD
S214005138A420C3F8A420C3F8A420C3F8A420C3F866
S214005148A4207047002000BAF0220B4B01219A6475
S214005158A022A3F580539A644FF03A43426CC3F8F2
S214005168F410FC21C3F8CC10C3F8D0204FF400523A
S214005178C3F8F020704700BF006000B8F8B50D46C9
S2140051884FF03A441746064606F05DF90123042117
S214005198074A6363E76026616561C2F81411054A29
S2140051A8C2F8843106F04AF90DB102236363F8BDEC
S2140051B8002000BA00E100E02DE9F0410546012490
S2140051C8006800F00700063004FA00F3A868EC68E8
S2140051D85E1EA04262D000EA060E6C6810441E43AB
S2140051E80640A3EB0E000EEB040C8242644618D968
S2140051F8D31A0EEB030298B1431E052B04D94B1C99
S214005208ACEB0303022B59D80B460844ACEB010E53
S21400521803EB0E0113F8014B83420C70F8D10146DC
S2140052286C688AB1531E052B01F1010302D9E01AF6
S214005238022812D80A44611E00E0013313F8010C54
S214005248934201F8010FF8D106F0FDF80223AE608C
S214005258AB62BDE8F04106F0F1B80B46204622F0F6
S214005268030E8E4453F804CB734540F804CBF9D1AB
S21400527822F00303D01A920701EB030C04EB030792
S214005288E2D0CA5C0128E254DED09CF8013002283D
S2140052987B70D9D09CF80230BB70D5E7042A35D984
S2140052A80878043AA86148780431A86111F8020C15
S2140052B8A86111F8010CA861A8688CE70B4620F0D5
S2140052C803070F44ACEB010E1C684EF8034004338A
S2140052D8BB42F9D120F0030310F0030F01EB030ED5
S2140052E8A0EB03040CEB030728D011F80380012C6D
S2140052F80CF8038022D09EF80130022C7B7018BF71
S2140053089EF80230084418BFBB7088E7013A032AA3
S21400531812D8DFE802F00F1507020B4613F8012B28
S2140053281946AA610A4612F8013BAB61114611F804
S214005338013BAB610B78AB61BDE8F08108446EE7D2
S2140053480A46F3E72DE9F7430746884614464FF022
S2140053580109860106F13A460C36356AC5F30C058E
S21400536885B1F368A54228BFA5B22A46414630460D
S214005378CDF800909BB205F038FC641BEDD103B065
S214005388BDE8F083002CFAD00223034AFF00BB4096
S214005398C2F81431F3E700BF001000BA38B50B4660
S2140053A8154601464FF03A4468B101221048C4F841
S2140053B8F4201A46FFF700FF25B14FF03A430422BF
S2140053C8C3F8F42038BD73B1D4F8D8209A4284BF05
S2140053D80122C4F8F4204FF03A42C2F8D43002232F
S2140053E8C2F8F430E8E70123C4F8F430E4E700BF75
S2140053F8CC0000BA38B5044606F025F84FF03A4215
S2140054080121238F054651674BB3B3FA83F3C3F1E3
S2140054181903DBB2A069C2F8B410C2F88C300723AF
S214005428C2F89000C2F8B0304FF4A02302F500523C
S214005438C2F81431A2F58052C2F8183100220C4B7B
S2140054481A600C4B1B6C5B0209D54FF480020A4BA2
S21400545804F1F8001A64D4F8901001F091FB0023C8
S214005468638707232846A387BDE8384005F0E6BFCC
S214005478A4170020000002B8002002B82DE9F8435F
S21400548805460C46B1B1D0F81880078F05F0DBFF4B
S214005498B5F83AC0791E01EA0C0323F00702032C7C
S2140054A80646DFF8F8E042445ED1DEF8004024B94C
S2140054B805F0C4FF0E20BDE8F88324F00104DEF8EA
S2140054C8000020F00100A04253D10023CEF800309F
S2140054D8238894426FEA43436FEA534323803ED1BE
S2140054E8AB8F08EB07091846083880B202F10804A3
S2140054F84C4528BF4446082804D9B4F800E0BEF551
S214005508804F40D263440F431B1A3B409BB26B87C5
S214005518A887947811884FF03A42C1F30C01916538
S214005528C2F89830C2F8B0004FF48022174B04F047
S2140055380704C3F814210122154BC3F88421FFF78A
S214005548DBFD042C0BD14FF48002124B05F1F8005A
S2140055581B6C114B1A64D5F8901001F011FB3046FD
S21400556805F06CFF0020A6E7601E012898BF1446C9
S214005578A5E7A88F4344E31A48BFDB1908389842C2
S214005588A6DC304694E72246AEE700BF002000BA05
S21400559800E100E0000002B8002002B8A4170020CE
S2140055A8154B10B519688A8F4B8F088F134401382E
S2140055B8073B8C69034023F007031C4402F10803E9
S2140055C84FF03A429BB28B87C2F8B0304FF4802235
S2140055D80A4BC3F814210122094BC3F88421A0788A
S2140055E800F00700042803D1064AD3681B03FCD43E
S2140055F8054B1C6010BD00BF7C150020002000BABB
S21400560800E100E0000002B8A417002010B5064C20
S214005618216839B1CB0703D4044B1868FFF72EFF6F
S2140056280023236010BD00BFA41700207C150020AF
S2140056384FF480320C4B0D49C3F818214FF03A430B
S214005648C1F81421D3F8AC10D3F88C20012302F04B
S214005658070206329340C1F30C01083B994201D871
S214005668FFF74ABD704700BF002000BA001000BA16
S2140056782DE9F04780460C4616468769058F05F0E3
S214005688E2FEB8F83A2005F1FF3C02EA0C0323F0E4
S2140056980701032C82463944B8F83C0019D14A4C15
S2140056A824689CB90244073A02EA0C0222F0070270
S2140056B8BC183B44E31A48BF5B19834210DB5046CC
S2140056C805F0BCFE00242046BDE8F08724F001045F
S2140056D8EFE7012C02D0022CEBD108380C46E8E79D
S2140056E8002E3FD08C4241D14FF03A42D2F8589023
S2140056F84FF03A41D1F8AC20B8F81270C2F30C0259
S214005708934247DA2588B5F5804FD8D2A378C5F3F3
S2140057180C0503F007037A1EA5EB09053A43052B8B
S214005728337005EA02052DD82DB2E84340F241420F
S2140057380421C00FFDF7E0FF7580E3783374D8F8CE
S2140057481C207B1E03EA0903D118B160A9B213FA1C
S21400575885F5AF422FBF0023FF1AB780F26024BF3B
S214005768B180F360504605F069FEACE7A4F1080284
S214005778974284BFED0802EBC502B2F80090C9F361
S2140057880C09B5E7114B5B6D003B18BF0123A5EB71
S214005798C305C9E74B6D7A1EA3EB09033A431A40C3
S2140057A80B4915B2002DCB680BDCC3F30363D81E78
S2140057B843424341DB0033708B6C72801B0A3374A0
S2140057C8BDE70823F7E700BFA4170020004000B88D
S2140057D8000002B8054BA822D3F84C013121431C1F
S2140057E80CBF0120C0F38070FDF786BF0080E00F75
S2140057F838B5134D0446297819B92022114805F002
S21400580859FB6188104A23785180002113700F4A8B
S214005818022BC2F8CC104FF0FF010D4A0D4B117049
S2140058284FF007010C4A4FF00000C2F8FC130CBFFB
S21400583804220122C3F8FC2301232B7038BD00BFC5
S214005848A1190020E03F00B0201C0020004001B84D
S214005858291C0020001002B8002002B8034B1A6862
S21400586802609B8883800020704700BF201C0020B1
S21400587810B5044600F0F4FE064BD3F8F83724B902
S21400588883F40033C3F3404010BDA31E584258416A
S214005898FAE700BF000002B84FF63F720A4BD3F88B
S2140058A8FC37934206D0094AC3F301131370E0226B
