S02B000062745F736F635F656E657267795F68617276657374696E675F6170706C69636174696F6E5F6F627341
S31508000000C00A0020D90A00083BCA01083BCA0108F1
S31508000010C7DD01083BCA01083BCA01083BCA0108FB
S315080000203BCA01083BCA01083BCA01083BCA01088A
S315080000303BCA01083BCA010891DF01083BCA01080F
S315080000403BCA01083BCA01083BCA01083BCA01086A
S315080000503BCA01083BCA01083BCA01083BCA01085A
S315080000603BCA0108C509000831C901083BCA01088D
S315080000703BCA01083BCA01083BCA01083BCA01083A
S315080000803BCA01083BCA01083BCA01083BCA01082A
S315080000903BCA0108DD1200083BCA01083BCA010831
S315080000A03BCA01083BCA01083BCA01083BCA01080A
S315080000B03BCA01087595010891A00108495B020829
S315080000C0455B020835980108555B02084D5B020836
S315080000D065A00108515B0208D1A001083DA10108ED
S315080000E03BCA01083BCA01083BCA01083BCA0108CA
S315080000F061D801083BCA01083BCA01083BCA010886
S315080001003BCA01083BCA01083BCA01083BCA0108A9
S315080001103BCA01083BCA01083BCA01083BCA010899
S315080001203BCA01083BCA01083BCA01083BCA010889
S315080001303BCA01083BCA01083BCA01083BCA010879
S315080001403BCA01083BCA01083BCA0108EDDE0108A3
S31508000150ED7B01083BCA0108F35A0208F95A02085E
S315080001603BCA01083BCA01083BCA01083BCA010849
S31508000170F0B5114A114C124E00F00105E3695F070C
S3150800018013D40DB9334213D103EA00078F4207D1BE
S315080001900B4A1A40002A0CBF00206FF00100F0BD80
S315080001A0013AEBD16FF00200F9E74FF0FF30F6E7BE
S315080001B06FF00100F3E700BF809698000000035037
S315080001C0020001000B4B70B5D96911F480310DD1CD
S315080001D001244FF48072084E084DF46020462C64C2
S315080001E01A61FFF7C5FF3464EC6070BD6FF001005B
S315080001F0FBE700BF00000350001003500020035027
S315080002004FF4803238B50E4B0E4C9A66E56941F6C6
S31508000210713315400122E3630B4B0021DA60022398
S31508000220606121202361FFF7A3FF10B92120FFF7A2
S315080002309FFF0122054BDA600DB10023E36338BD49
S315080002400090005000000350001003500020035097
S3150800025070B5134C6061E3695B071ED40E4656F809
S31508000260043B8D18A361AE420BD104230021212043
S315080002702361FFF77DFF58B9BDE870402120FFF7DD
S3150800028077BF08210846FFF773FF10B104232361DF
S3150800029070BD56F8043BA361E5E74FF0FF30F7E77A
S315080002A0000003502DE9F84315464FF48032184BE9
S315080002B089469A6603F51C33DF690646174041F6F8
S315080002C07132DA63012203F58053DFF84C80DA6075
S315080002D055B9284601220F4BDA601FB10022A3F553
S315080002E00053DA63BDE8F88306F5005404EA080407
S315080002F0A41BAC4228BF2C46494622463046FFF787
S31508000300A7FF0028E6D12644A1442D1BE0E700BF3D
S31508000310009000500020035000E0FFFF000000009E
S3150800032000000000000000000000000000000000BF
S31508000330002370B5404C05468AB0E36318B10088BF
S3150800034023600BF075FE3D4824F0B8FF3C4E3D4B4C
S31508000350304633603C4B736021F039FA0021304651
S3150800036012F02EFE32A3D3E90023A062C4E90623C5
S3150800037021F038FAD4E9062319431043C4E90601E3
S31508000380CDE900014FF0FF334FF0FF32A06A24F0A9
S31508000390E9FF02224FF0FF31A06A24F0E8FF0120AE
S315080003A00BF092FB4FF4007300222849A06A25F04F
S315080003B031F8B0F5007F38D100239422CDE9073310
S315080003C009933C23CDE9033205939623A06A03A932
S315080003D0069312F0DDFE35B3287C0CF063F805466B
S315080003E0F0B9A06A25F0F6F80CF00AF80BF04EFB07
S315080003F020B14FF48070002108F084FD0BF056FB05
S3150800040020B14FF40060002108F07CFD21F010FBBC
S31508000410012012F02BFE0E4A0E49A06A21F0D5F9EA
S3150800042028460AB070BDFF20D7E70725F8E700BFC2
S315080004300DD5015520000000300B0020690345EC5E
S31508000440341D00204DB90008441D0020341B00202F
S3150800045073170208B31702080348044B834202D0F5
S31508000460034B03B118477047EC290020EC290020FC
S3150800047000000000064B0749C91A891048BF013118
S31508000480491003D0044B0BB101481847704700BF09
S31508000490EC290020EC2900200000000010B5064CCD
S315080004A0237843B9FFF7D8FF044B13B10448AFF3D9
S315080004B000800123237010BD2825002000000000BD
S315080004C0CCCC020808B5054B1BB105490548AFF366
S315080004D00080BDE80840FFF7CDBF00BF0000000060
S315080004E0A80D0020CCCC0208A3F5803A704700BFBF
S315080004F0174B002B08BF134B9D46FFF7F5FF00214E
S315080005008B460F461348144A121A25F0C4FB0E4BA5
S31508000510002B00D098470D4B002B00D098470020A1
S31508000520002104000D000D48002802D00C48AFF346
S3150800053000801AF0C3F9200029001CF088F91AF087
S3150800054003F800BF000008000000000000000000DB
S31508000550C00A0020C00A0020402600200000000033
S31508000560000000000122014B1A707047C0290020C4
S3150800057008B51CF013FA1CF012FA034B0349186865
S31508000580BDE808401DF0B9B9600E0020487302089E
S315080005902DE9F04F0368AA4A23F47F4323F00703A3
S315080005A0934204468DB006D002F5802293426FD05E
S315080005B00DB0BDE8F08FA34C00222346012144F27A
S315080005C065000FF021F823789F485BB31CF07BFA8F
S315080005D00422002011460FF043F89C4C054620B330
S315080005E09B4920681DF089F99A4920681DF085F90C
S315080005F01CF0D4F91CF0D3F9974B984A0093984904
S31508000600772320681DF079F996492B46964A206883
S315080006101DF073F9284600F00DFA944920681DF07C
S315080006206CF9FEE71CF052FAD2E7022101200FF01E
S315080006302FF8054608B3864920681DF05EF98549F6
S3150800064020681DF05AF91CF0A9F91CF0A8F9824B8C
S31508000650824A009382497C2320681DF04EF981491D
S315080006602B46814A20681DF048F9284600F0E2F931
S315080006707E4920681DF041F9FEE71CF08FF91CF051
S315080006808EF97B4920680DB0BDE8F04F1DF035B9ED
S315080006900025877DDFF8E481DFF8049200F1170A68
S315080006A0AF4285D90AEB05035B781AF80560083B63
S315080006B0012B13D805F1020BD344721E4146584646
S315080006C0099225F0BEFA002800F09C804946584653
S315080006D0099A25F0B6FA002800F0AD8001362E44B6
S315080006E0F5B2DDE71870574B1A7872B3187056488A
S315080006F01CF0ECF9012144F26500524A0EF06EFF37
S31508000700054640B3514C524920681DF0F6F8514948
S3150800071020681DF0F2F81CF041F91CF040F9554B21
S315080007204E4A00934E49B32320681DF0E6F84D491A
S315080007302B464D4A20681DF0E0F8284600F07AF965
S315080007404A4920681DF0D9F8FEE701223E481A708A
S315080007501CF0B9F9CEE748480DF12B0105F0E8FD84
S315080007609DF82B30002B36D00025444E374F1CF011
S3150800077015F91CF014F9D7F800801DF087FB94F9D9
S315080007800D3002460793A37B4046069363793C499E
S315080007900593A3790493E3790393237A0293637AFF
S315080007A00193A37A009333461DF0A7F8334B9E4274
S315080007B025D1244B334A1978334B002918BF1A46DA
S315080007C0324938681DF099F81CF0E8F81CF0E7F88B
S315080007D02F49386857E74FF47A700BA905F02CFEB5
S315080007E00028C1D1254E00252A4A2B46CDE90055B9
S315080007F00B9921481DF026FB002EB7D1D8E62A46CC
S315080008002549DEE7254B1A78002A7FF46BAF1A488C
S315080008100DF12B0105F08CFD9DF82B30002B7FF494
S31508000820C7AE4FF47A700BA905F006FE00287FF4D0
S31508000830BFAE0646D7E7E58B194E6DBAADB295E75A
S31508000840A00001002925002000750208600E00207E
S31508000850EA73020894730208D574020899730208A9
S31508000860A2730208B1730208AE730208C6730208BF
S31508000870D7730208AA740208C00D0020B629002002
S31508000880EC730208907302088D730208417402081B
S31508000890867402086505000866740208C0290020E7
S315080008A0AC29002030B5214D95B00DAC0FCD0FC445
S315080008B095E80700032384E807008DF84D302923BF
S315080008C01B4A1C49CDE902231B4B0E22CDE9041312
S315080008D000210DF12600069125F0DDF94FF4802060
S315080008E0164B07A9CDE9070309238DF824300A23F7
S315080008F08DF82530124B0DAA0A9320230B9301235A
S315080009008DF831300F4B1048009302AB04F0BEFA55
S3150800091004469DF832304FF4E130002B0CBF03211A
S3150800092000211CF07BF8204615B030BDE47402089F
S3150800093000C00550000500060009000824C005503F
S315080009402A250020E00D0020340E0020831E012BEE
S3150800095010B512D8012922D8114B04221B6C052187
S315080009600020C3F3401301F0A3FF0E4B1B68186861
S31508000970A8B1BDE81040436A18478B1E012B0CD856
S3150800098001280CD8BDE810400022054B05211B6C38
S315080009901046C3F3401301F08BBF0129E5D910BDFA
S315080009A000C003500028002008B50449044805F093
S315080009B013F8BDE80840FFF775BF00BF04280020FC
S315080009C0580E002001481DF033B900BF340E002030
S315080009D0014B1A6A18681047340E002001481CF0AB
S315080009E06FB800BF00750208012208B5074B1A70D8
S315080009F00022074B1A700422064B1A701F22064B58
S31508000A001A7004F0A3F8054B186008BDC629002023
S31508000A104A250020C5290020C4290020600E002090
S31508000A20024B034918681CF068BF00BF600E00201F
S31508000A301875020870B50C4C0C49064620681CF05F
S31508000A405CFF04F083F80546206804F073F8304626
S31508000A50FFF7E6FF284604F06DF820680449BDE86C
S31508000A6070401CF04ABF00BF600E00201A750208CD
S31508000A701C75020808B503481CF08BFEBDE8084043
S31508000A801BF00EBFC887020801481CF082BE00BFD3
S31508000A90C887020807B508201BF0FBFF02238DF85C
S31508000AA00030054B684601931BF07CFF082003B015
S31508000AB05DF804EB1BF0F8BF006A18100348044AF7
S31508000AC00449121A92101BF0B9BF00BF7001000842
S31508000AD0300300084026002008B500F02FF8FFF77D
S31508000AE0EDFF124B12498B4212D30020114B1249CB
S31508000AF08B4218D3FFF7FCFC186850F82240586858
S31508000B0040F82240013298688242F5D30C33EAE76E
S31508000B100022F8E71C6844F8220001325C68A24209
S31508000B20F8D30833E4E70022F8E700BFD4CC02087C
S31508000B30E0CC0208E0CC0208E0CC02084FF4804181
S31508000B40124B134A70B59A60D3F88820114D42F4B7
S31508000B507002C3F88820104A05F5005491664FF0D4
S31508000B60FF3222660D4A62660222C3F8D020BFF31E
S31508000B704F8FBFF36F8F4FF44036002003F0B8FF56
S31508000B800020E66003F0A6FF2E6170BD00ED00E0D0
S31508000B90000000080080004400900050F7FF37006E
S31508000BA0014B1868704700BF10280020014B1860D9
S31508000BB0704700BF10280020084B1B6F03F007037F
S31508000BC0022B04D0032B05D0012B05D0FEE7044BDE
S31508000BD018687047034BFBE70348704700800050CE
S31508000BE01028002018280020002D310108B5FFF72D
S31508000BF0E3FF054B1B6FC3F303330133B0FBF3F07D
S31508000C00024B186008BD00BF008000500C28002069
S31508000C100048704700B4C404014B1868704700BF09
S31508000C2018280020054B1860054B1B6F03F00703B7
S31508000C30032B01D1FFF7DABF704700BF1828002041
S31508000C400080005000487047002D31014FF0B44332
S31508000C509868C0F304400C280AD8DFE800F00B09AE
S31508000C6009090909072119091B1D1F000F487047A3
S31508000C70002070479B6803F04073B3F1807F11D062
S31508000C80B3F1007F10D00A4A002B08BF1046704700
S31508000C90084870470848704708487047084870472A
S31508000CA0084870470848704708487047405DC600BE
S31508000CB000093D00C0EA210180BA8C010048E8011C
S31508000CC0005A62020024F40080841E0040420F008D
S31508000CD0014B1868704700BF14280020034B58685A
S31508000CE0C0F30800003818BF0120704700ED00E087
S31508000CF013B50024294801941CF04BFD0123042256
S31508000D000321204601F0D4FD20461BF07EFF012278
S31508000D10234B0520C3F8442401A91CF030FD002804
S31508000D2039D1204BD3F8F02042F00102C3F8F02065
S31508000D30D3F8FC2042F08072C3F8FC201A4AA3F5C7
S31508000D405D431A60019B194A03F5D52303F2FC4358
S31508000D50B3FBF2F3164A013B13610223C2F8F030E3
S31508000D604FF48073C2F804334FF06043114AC3F856
S31508000D70B02F114AC3F8802ED3F8002E42F48072A1
S31508000D80C3F8002EFF2283F82020D3F8002E22F481
S31508000D908072C3F8002E02B010BD00BFC8870208D3
S31508000DA000D0035000ED00E0FF030040F8590D00A5
S31508000DB0000004E055CEACC5090001004FF06043C1
S31508000DC0D3F8802E30B5D20715D501240B4D8440B3
S31508000DD0D5F8FC2042F08072C5F8FC20D3F8002E26
S31508000DE02243C3F8002E53F82020002AF0D003F837
S31508000DF02010002030BD1120FCE700BF00ED00E008
S31508000E0010B5044606481CF0C4FCA3782078B3FA4B
S31508000E1083F3042261785B0901F04AFD002010BDC6
S31508000E20C887020810B501224378017884783020F3
S31508000E309A40054B00FB01331CB903F501531A60B0
S31508000E4010BD03F58253FAE700C0035010B501221E
S31508000E5043780178847830209A40054B00FB0133AB
S31508000E601CB903F582531A6010BD03F50153FAE75E
S31508000E7000C003500122437801789A403023594331
S31508000E80014B5A50704700BF40F0035010213023E1
S31508000E900246007813FB001305495B585178CB408E
S31508000EA003F0010093780BB980F00100704700BF8A
S31508000EB030C003502DE9F04F9A46564B85B01B7843
S31508000EC006460F461546DDF83C909DF844B0DDF819
S31508000ED05080002B00F09780072A00F296800E9B20
S31508000EE0002B00F09280B9F1000F00F08E80129B63
S31508000EF0B3F5006F00F38980012803D1109B002BFE
S31508000F0000F08380444B03EB05131B7B002B7ED03C
S31508000F10424C10220021684624F0BDFE04EB45141D
S31508000F201022A7BB3946204624F0B5FE43F210032B
S31508000F306380BBF1000F03D1E37843F00303E3704A
S31508000F40364A0E9B02EB451CCCE90193129B6901BC
S31508000F50581E9DF84C30C0F30A0003F003039B06A5
S31508000F6043EA001E53582E48012E00EA03004EEAB3
S31508000F700003CDF800A0535017D0B8F1000F2ED1BA
S31508000F809CF8023068F304138CF8023027E000213D
S31508000F90204624F080FE4FF444736380BBF1000FB3
S31508000FA0CED1E37843F03003C9E713230CF1100ED2
S31508000FB0CCF80C309CE80F008EE80F006FF00301A8
S31508000FC0DCF81C20109B61F39F02012FCCF81C2033
S31508000FD0CCF8143003D1CCF81890CCF8043000279C
S31508000FE00D4A290102EB051342F80180159A284695
S31508000FF05A60694622469F605E7301F0EDFC3846EA
S3150800100005B0BDE8F08F0748FAE70748F8E707484C
S31508001010F6E700BF4B250020640F0020640E002071
S315080010200F80FFF3028000F0018000F0078000F0D7
S3150800103038B5124B05461B78DBB1E0B11BF019FD3C
S315080010400F4A00231146147B54B92B6001251A0157
S3150800105001EB03131D738C501BF011FD204638BDA0
S315080010600133082B02F11002EDD11BF008FD0548EB
S31508001070F5E70548F3E70548F1E700BF4B250020EB
S31508001080640F0020048000F0028000F0018000F068
S3150800109038B51BF0EEFC002305460B4A147B6CB9E9
S315080010A00133082B02F11002F8D101F041FC074B7D
S315080010B028461C701BF0E3FC204603E028461BF07C
S315080010C0DEFC034838BD00BF640F00204B25002016
S315080010D0058000F00D4B10B51B78044693B1072820
S315080010E012D81BF0C6FC0A4B03EB04131A7B2AB171
S315080010F000241C731BF0C3FC204610BD1BF0BFFC6C
S315080011000448FAE70448F8E70448F6E74B250020C0
S31508001110640F0020068000F0028000F0018000F0D5
S31508001120154B13B51868002301908DF804301BF091
S31508001130A0FC124B1C7824B11BF0A1FC104802B08D
S3150800114010BD01221A701BF09AFC0E4B01A81C73E5
S315080011501C7783F82C4083F83C4083F84C4083F88E
S315080011605C4083F86C4083F87C4008238DF8073090
S3150800117001F002FC2046E2E71F7502084B25002015
S31508001180038000F0640F00200A4A08B512785AB1A5
S3150800119007280BD8084A02EB00131B7B43B1002132
S315080011A001F0DCFB002008BD0448FCE70448FAE728
S315080011B00448F8E74B250020640F0020028000F061
S315080011C0018000F0078000F00A4A08B512785AB183
S315080011D007280BD8084A02EB00131B7B43B10121F1
S315080011E001F0BCFB002008BD0448FCE70448FAE708
S315080011F00448F8E74B250020640F0020028000F021
S31508001200018000F0078000F00A4A08B5127852B14A
S3150800121007280AD8084A02EB00131B7B3BB101F0EA
S3150800122027FC002008BD0548FCE70548FAE70548FD
S31508001230F8E700BF4B250020640F0020028000F06D
S31508001240018000F0078000F00D4B1B7893B107284A
S3150800125012D889B10B4B03EB00131B7B73B10A4BF6
S315080012601A6D01238340134214BF01230023002073
S315080012700B70704705487047054870470548704722
S315080012804B250020640F002000000450028000F067
S31508001290018000F0078000F00B4A10B512780C4662
S315080012A062B107280CD859B1084A02EB00131B7B18
S315080012B043B101F0EFFB2070002010BD0448FCE7A5
S315080012C00448FAE70448F8E74B250020640F002095
S315080012D0028000F0018000F0078000F0184B2DE92D
S315080012E0F0411F6D5B6D1F4000D5FEE70126002506
S315080012F0144CDFF85880374218D02368C8F8506075
S31508001300A3B1A168284601316268A1609847637B4A
S31508001310012B0BD150B90C4B03EB45131A7B60F329
S3150800132041021A731A7F60F341021A770135082DB4
S315080013304FEA460604F11004DDD1BDE8F08100BF8E
S3150800134000000450640F0020640E002000200450A2
S31508001350024B1968024B186811F03EBA1C28002087
S315080013603C28002070B59400224605460E4625F016
S31508001370E3FF431C0AD058B922463146284624F0D2
S3150800138060FC0028034808BF002070BD0248FCE73F
S315080013900248FAE710E000F021E000F024E000F04F
S315080013A010B5044625F0CCFF431C10D088B901F0CF
S315080013B0EBFB234620F003002044984201D100208D
S315080013C010BD53F8042B0132F7D00348F8E7034859
S315080013D0F6E70348F4E700BF0EE000F021E000F06E
S315080013E024E000F008B51BF03DFB014B186008BD72
S315080013F0D4160020014B18681BF038BBD416002001
S31508001400044BD3F88420D206FBD4D3F88400C0F367
S3150800141081107047004000502E4B98424AD022D87F
S315080014202D4B984240D014D82C4B984239D00AD824
S315080014302B4B984232D02B4B98422FD02A4B9842AE
S315080014402CD000207047294B9842FAD1284B186FA8
S315080014507047284B98422AD0274B9842F1D1244B03
S31508001460D3F880007047254B98422BD009D8244BD7
S31508001470984223D0234B9842E3D11D4BD3F88C00D6
S315080014807047214B984221D003F5740303F5105396
S315080014909842D6D1164BD3F898007047144B986DDE
S315080014A07047134B586E7047114B586F7047104B67
S315080014B0986F70470E4BD3F8840070470C4BD3F8DF
S315080014C0880070470A4BD3F890007047084BD3F84A
S315080014D0940070470048E8010024F400C0CF6A0071
S315080014E080841E0000093D0040420F00405DC60092
S315080014F00080E00FC0EA210180BA8C01007E560305
S3150800150080D54302006CDC020090D00338B5104B3E
S315080015100546D3F880300C4603F00303022B0BD0A4
S31508001520032B0DD0012B0FD1FFF746FB0E2305B178
S31508001530286004B1236038BDFFF788FB0723F6E768
S31508001540FFF72EFB0623F2E700231846EFE700BF56
S315080015500080005038B5184B0546D3F820010C46D4
S3150800156000F00700062823D8DFE800F0040A0E1664
S31508001570121A1E00012305B1286004B1236038BD84
S31508001580FFF70EFB0523F6E7FFF746FB0323F2E713
S31508001590FFF75CFB0723EEE7FFF754FB0223EAE7B6
S315080015A0FFF7FEFA0623E6E7FFF736FB0423E2E732
S315080015B000231846DFE700BF0080005038B5174BF8
S315080015C00546D3F828310C4603F00703013B052BE3
S315080015D020D8DFE803F003131B0F0B17FFF7E0FA19
S315080015E0052305B1286004B1236038BDFFF7D8FA92
S315080015F00623F6E7FFF72AFB0723F2E7FFF70CFBBC
S315080016000323EEE7FFF708FB0423EAE7FFF71AFBD5
S315080016100223E6E700231846E3E700BF00800050F0
S3150800162073B50D460021114B0191D3F8804106464A
S3150800163004F00304022C13D0032C0CD0012C13D174
S3150800164001A8FFF787FF10240EB1019B336005B18F
S315080016502C6002B070BDFFF7F9FA07240190F3E792
S31508001660FFF7F0FA0190EFE70C46EDE7008000502F
S31508001670002337B50193164B0546D3F820320C469E
S3150800168003F00703042B21D8DFE803F0030B111638
S315080016901B0001230DB1019A2A6004B1236003B02F
S315080016A030BD002101A8FFF789FF1223F2E7FFF7F3
S315080016B0CDFA07230190EDE71BF0CEF90A23019036
S315080016C0E8E7FFF705FB09230190E3E70023E1E7D5
S315080016D00080005038B5104B0546D3F840310C460B
S315080016E003F00303022B0BD0032B0DD0012B0FD1D4
S315080016F01BF0B2F90A2305B1286004B1236038BD8E
S31508001700FFF7E6FA0923F6E71BF0A9F90C23F2E737
S3150800171001230020EFE700BF00800050002337B503
S315080017200193164B0546D3F860320C4603F00703BF
S31508001730013B032B1FD8DFE803F0020E1914002122
S3150800174001A8FFF707FF10230DB1019A2A6004B11B
S31508001750236003B030BD002101A8FFF7BBFF1123AA
S31508001760F2E7FFF773FA07230190EDE7FFF76AFA46
S3150800177002230190E8E70023E6E700BF0080005057
S31508001780002337B50193164B0546D3F894320C4619
S3150800179003F00703013B032B1FD8DFE803F0020E13
S315080017A01914002101A8FFF7D5FE10230DB1019ADF
S315080017B02A6004B1236003B030BD002101A8FFF7F9
S315080017C089FF1123F2E7FFF741FA07230190EDE7B6
S315080017D0FFF738FA02230190E8E70023E6E700BF9F
S315080017E00080005038B5144B0546D3F800020C4665
S315080017F000F0070004281BD8DFE800F003090D11E4
S315080018001500012305B1286004B1236038BD1BF01B
S3150800181023F90A23F6E7FFF75BFA0923F2E71BF039
S315080018201EF90C23EEE7FFF7E1F90F23800AE9E733
S3150800183000231846E6E700BF0080005038B5144B71
S315080018400546D3F808020C4600F0070004281BD802
S31508001850DFE800F003090D111500012305B1286022
S3150800186004B1236038BD1BF0F7F80A23F6E7FFF743
S315080018702FFA0923F2E71BF0F2F80C23EEE7FFF73D
S31508001880B5F90F23800AE9E700231846E6E700BF03
S315080018900080005038B5104B0546D3F840320C4648
S315080018A003F00303022B0BD0032B0DD0012B0FD112
S315080018B01BF0D2F80A2305B1286004B1236038BDAD
S315080018C0FFF706FA0923F6E71BF0C9F80C23F2E737
S315080018D001230020EFE700BF0080005038B5104B09
S315080018E00546D3F860310C4603F00303022B0BD0F0
S315080018F0032B0DD0012B0FD11BF0AEF80A2305B12F
S31508001900286004B1236038BDFFF7E2F90923F6E73A
S315080019101BF0A5F80C23F2E701230020EFE700BF30
S3150800192000800050B0F5207F1FD009D8B0F5007FA1
S3150800193015D003D868B1B0F5C07F0AD000200CE0F6
S31508001940B0F5607FFAD10B4BD3F88000C0F30110D5
S3150800195003E0084B186FC0F3033001307047054B9E
S31508001960D3F89000C0F30460F7E7024B186FC0F392
S315080019708020F2E70080005002464FF48030104B7A
S3150800198010B598660020FFF7CDFF504341F6713237
S315080019900C4BDC69DA635A6804F4803422F440128A
S315080019A059B90949884294BF00200120000502431D
S315080019B05A600CB10022DA6310BD0449F2E700BF91
S315080019C00090005000000350005A6202002D3101B9
S315080019D0430905D0012B0CD0022B084B18BF002356
S315080019E000F01F0039B103F58053012282401A60C6
S315080019F07047034BF4E703F50053F6E76880005099
S31508001A00648000501FB5002180280446CDE90011E6
S31508001A1000F0A58035D85E2846D85E2844D8DFE889
S31508001A2000F0A243434343434343434343434343AF
S31508001A304343434343434343434343434343434368
S31508001A404343A2AAA2AABABABABABAAAC44DDA71C2
S31508001A504DAAAAAA4343434343434343AAAAAA799E
S31508001A60E4AA43434343434343434343434343BAB9
S31508001A70A2A2A2DF4D4DE9885EBF43434343439983
S31508001A80A200B0F5B06F00F090802DD8B0F5207F99
S31508001A9071D00CD8B0F5C07F65D0B0F5007F65D0A1
S31508001AA0B0F5807F00F08680009804B010BDB0F5D0
S31508001AB0607F6BD00DD8B0F5407FF5D1FFF796F86B
S31508001AC002464FF42070FFF72DFFB2FBF0F25208E2
S31508001AD05AE0B0F5806F5ED0B0F5A06FE4D1002172
S31508001AE06846FFF7C5FDDFE7B0F5106F78D016D862
S31508001AF0B0F5E06F79D00AD8B0F5C06F6BD0B0F505
S31508001B00D06FD1D100216846FFF76CFECCE7B0F55F
S31508001B10F06FC9D100216846FFF7E0FEC4E7B0F5CB
S31508001B20406F3DD013D8B0F5206F63D0B0F5286F5D
S31508001B30BAD10021324B0391D3F8703203F0030374
S31508001B40012B02D103A8FFF7C5FD039B3CE0B0F5C6
S31508001B50486FA9D100216846FFF712FEA4E7FFF7F0
S31508001B602BF80090A0E7FFF741F8FAE7FFF724F80B
S31508001B700246204604E0FFF739F802464FF4207083
S31508001B80FFF7D0FEB2FBF0F200928DE701A8FFF74F
S31508001B90BDFC019AEDE700216846FFF7DBFC83E709
S31508001BA000216846FFF70AFD7EE700216846FFF731
S31508001BB037FD79E74FF0E02302911B695B0705D5EE
S31508001BC0FFF714F80290029B00936DE703A902A899
S31508001BD0FFF780FDF7E700216846FFF77BFD63E71F
S31508001BE000216846FFF72AFE5EE700216846FFF7F0
S31508001BF051FE59E700216846FFF790FD54E700BFFC
S31508001C000080005008B58020FFF7FCFE034B984281
S31508001C109EBF4FF48032024B1A6708BD005A620213
S31508001C2000A000501FB503460020B3F5807F019041
S31508001C3000F0C18064D85D2B55D84C2B07D82D2BC6
S31508001C4048D8232B2CD8019805B05DF804FB4D3BEA
S31508001C50102BF8D801A252F823F000BFAD1D0008DA
S31508001C60471C0008471C0008471C0008631D00089D
S31508001C70471C0008471C0008311E0008811D000883
S31508001C80271D0008271E0008471C0008471C0008D7
S31508001C90471C0008471C0008471C00083B1E000894
S31508001CA0243B092BCFD801A252F823F0AD1D00081A
S31508001CB0AD1D0008AD1D0008AD1D0008AD1D0008CE
S31508001CC0471C0008A31D0008471C0008431D000800
S31508001CD0E31D00083D2B7FD03E2BB4D1002001A97F
S31508001CE0FFF7D8FDAFE7802BADD1594B1B6F03F03B
S31508001CF00703013B032BA6D8DFE803F0514E858D79
S31508001D00B3F5F06F68D021D8B3F5B06F49D00FD8C6
S31508001D10B3F5607F00F0838095D3B3F5806F45D027
S31508001D20B3F5A06F8FD1002001A9FFF7A1FC8AE7C0
S31508001D30B3F5D06F55D0B3F5E06FCFD0B3F5C06F1C
S31508001D4081D1002001A9FFF7C5FC7CE7B3F5206F18
S31508001D506ED00BD8B3F5086F48D0B3F5106F7FF483
S31508001D6072AF002001A9FFF769FD6CE7B3F5406F74
S31508001D7059D0B3F5486F60D0B3F5286F7FF463AFD9
S31508001D80334BD3F8703203F00303012B5AD0022BDE
S31508001D900CBF1523002300E00523019353E7022314
S31508001DA0FBE7002001A9FFF73BFC4CE7002001A94F
S31508001DB0FFF7D0FB47E74FF0E02302901B695B076C
S31508001DC005D5FEF713FF0D230393039BE5E703A948
S31508001DD002A8FFF77FFCF8E7002001A9FFF77EFDC0
S31508001DE031E7002001A9FFF7FDFC2CE7184BD3F8D3
S31508001DF0003103F00303022B07D0032B09D0012B74
S31508001E000BD1FEF709FF0323C7E7FEF761FF092396
S31508001E10C3E71AF01FFE0823BFE70123BDE701A9A0
S31508001E20FFF774FB0FE7002001A9FFF7C7FB0AE7D6
S31508001E30002001A9FFF772FC05E7002001A9FFF7BA
S31508001E409FFC00E7002103A8FFF744FC1123A4E741
S31508001E50008000504FF48032074B0849586E03F54E
S31508001E6080535A664B6A23F001034B62C3035CBF77
S31508001E70034B5A66704700BF0080005000C00750E9
S31508001E8000A0005008B5FFF7CDFE092811D00A3882
S31508001E90012802D94FF6FF7008BD4FF48002064BA1
S31508001EA05A6603F5D8335B6ADB07F3D54FF4FA7045
S31508001EB0F2E7024B1888EFE7009000509A290020B5
S31508001EC008B5FFF7AFFE03280ABF024B4FF6FF70AF
S31508001ED0188808BD9829002038B504468020FFF7E1
S31508001EE0A1FE032800F083804FF48012524B4FF076
S31508001EF0A0615A6645F60E02504BC3F88020504A38
S31508001F0091624FF4803102F5805291629A6DD20344
S31508001F10FCD4996D11F08041FBD1D4E90002120579
S31508001F2042EA0062E07B0243207B42EA0042607B91
S31508001F3042EA0032A07B42EA80121A619869D4E923
S31508001F400452120642EA856200F000400243A07E6F
S31508001F50E57E0243207E42EA0042607E42EA002293
S31508001F609A611A6AE06922F00F0242EA8502354D43
S31508001F7000283DD11A6294F82420996A94F8200022
S31508001F80D200294042EA40120A4394F8211042EA54
S31508001F90011242F480329A622B49284A936D31EA3B
S31508001FA00303FBD14FF08071254881621369A56848
S31508001FB023F4700343EA055313614FF0004383612A
S31508001FC094F822300BB9214B996294F823303BB927
S31508001FD04FF480321D4B9A62184A936D5B00FCD40D
S31508001FE094F825301BB1154B194AC3F8802038BD23
S31508001FF0024342F0080202281A6208D119614FF416
S315080020000852996113484FF47F411AF0B1FD0B4904
S3150800201094F822308A6A94F820001B062A4043EA7C
S315080020204013134394F8242043EAC20394F8232068
S3150800203043EA02438B62D3E7009000500040005AFF
S315080020400050005AC7FFFEFE030001000060005A58
S31508002050F1A7FFFF3440005A70B5194CFF28A66A4D
S315080020602BD8A36D4FF0807113F4803F18BF4FF43F
S315080020708032144B18BF9A629962134AA36992F97F
S31508002080005023F47F03054423F47F4343EA0023E7
S3150800209085F3080543EA0543A36132460B481AF05F
S315080020A067FDA36DDB0301D4002070BD32464FF4F3
S315080020B0803106481AF05CFDF6E72120F5E700BFF7
S315080020C00040005A0050005AC72900202840005AEC
S315080020D0014B93F900007047C72900204FF480335D
S315080020E011481249826A8B62836D03F00303032B3E
S315080020F0FAD14FF080730E488B620B4B996D30EA1C
S315080021000101FBD1012009490865996D8907FCD4AD
S31508002110054B996D8807FCD5996D8907FCD5054946
S3150800212005481AF025BD00BF0040005A0050005A65
S3150800213003000100000001012840005AF0B5D0E96B
S3150800214001434FF400061A4A4178057856664FF45B
S31508002150D156022702F5B8325662164E4F297760D5
S315080021604FF0010728BF4F2106F58056776016699C
S31508002170F603FCD441EA052151611B01417B43EA80
S3150800218004230B43017B43EA41039360C37B817BB2
S315080021901B0143EA4113417C0B43017C43EA41039B
S315080021A05360837C13B16FF4D1535362F0BD00BF03
S315080021B00090005000100250014B1880704700BF75
S315080021C09A290020014B1880704700BF98290020E3
S315080021D04FF4800208B5184B5A660223174A536013
S315080021E0936813F48033FBD1012822D1FEF714FD3E
S315080021F0134B984215D003F5122303F5F86398425A
S3150800220013D0104B00EB8002400AB3FBF0F3520ADE
S315080022100A49CA620B6301234B620022074B5A60C4
S3150800222008BD45F67A13084AF2E745F61A03074A3F
S31508002230EEE75362F1E700BF0090005000400250FD
S3150800224000F0490264666666D8B80500BBCF05008B
S31508002250B0F5207F10B50C465DD008D8B0F5007FE4
S315080022604ED003D8C0B1B0F5C07F15D010BDB0F5BB
S31508002270607FFBD12C4B4C1ED3F8FC202B4912F067
S31508002280807F4FEA041427D1D1F8803023F0300339
S315080022902343C1F88030E9E71AF079FC1AF085FC87
S315080022A04FF48031224B214A1967136F013C23F4FE
S315080022B0704343EA04331367FEF798FC0446FFF7B6
S315080022C09FF8C0F1020120461AF069FC00F042F8B6
S315080022D0BDE81040FFF796BCD3F8FC2022F08072C8
S315080022E0C3F8FC20D1F8802022F030022243C1F83E
S315080022F08020D3F8FC2042F08072C3F8FC20B5E7B2
S315080023000A4A4C1ED2F8903023F0F85343EA046385
S31508002310C2F89030AAE7054A4C1E136F23F480636F
S3150800232043EA84231367A1E700ED00E0008000502C
S315080023300090005008B50121022000F06DF91AF04E
S3150800234026FC1AF032FC4FF48032014B1A6708BD9E
S315080023500090005008B54FF4C070FFF753FBBDE876
S3150800236008400449884294BF012102214FF4207095
S31508002370FFF76EBF80F0FA024FF4C02270B505462B
S31508002380FFF74AF8314B04465A6603F598335A68FC
S31508002390012A04D12E494A605A689207FCD4802043
S315080023A0FFF740FC052807D11AF0F1FB1AF0FDFBF0
S315080023B04FF48032254B1A67264B24F040749D4211
S315080023C030D0254B9D4230D0FEF7EAFB85420646C3
S315080023D003D90121284600F05FF9204BDA6812F08C
S315080023E0060FFBD199689C609A68624012F4F81F40
S315080023F01ED12846FEF7DAFB8020FFF713FC0528D6
S315080024000DD1FEF7F3FB0446FEF7FAFFC0F1020111
S3150800241020461AF0C4FBFFF79DFFFFF7F3FBAE4219
S315080024200CD270BD44F00074CEE744F08074CBE75C
S3150800243080209960FFF7F6FB052805D0BDE87040B7
S315080024400121002000F028B93546DAE7009000504F
S3150800245000E0015040420F0080841E000000015039
S31508002460304B314A984251D020D8A3F5B703A3F58B
S315080024705863984246D00DD82C4B984231D02C4BF5
S31508002480984239D02B4B4FF4002198421DD0002397
S31508002490516622E0284B4FF400219842F7D1274B8A
S315080024A0D3F8BC30516623F0407316E0244B9842AB
S315080024B030D0244B984231D0234B4FF40021984218
S315080024C0E5D11E4BD3F8C830ECE71C4BD3F8A03047
S315080024D0516623F0407343F000734FF0B4429360A3
S315080024E070474FF40021154BD3F8A030516623F0FE
S315080024F0407343F08073F0E7104BD3F8A0304FF4E5
S315080025000021CFE70D4BD3F8B830F8E70B4BD3F8DB
S31508002510C030F4E7094BD3F8CC30F0E7074BD3F8D3
S31508002520D030ECE7C0EA21010090005080841E00FC
S3150800253000093D0040420F000024F4000080E00F2F
S315080025400048E801005A620280BA8C01024A536BBD
S315080025500342FCD1704700BF00400950044A417845
S31508002560536F23F4407343EA01235367704700BF50
S31508002570004000500E4A10B51369044643F00403A0
S31508002580136103F075FC1AF02CFB0A4B5B6E5B01BA
S3150800259042BF094B094AC3F8202430BF1AF022FB70
S315080025A003F0A0FC1CB9BDE81040FEF71FBB10BD28
S315080025B000ED00E00080005000E003500000FF0F2F
S315080025C00C4A10B51369044643F0040313610A4B19
S315080025D05B6E5B0142BF094B094AC3F8202403F02E
S315080025E047FC30BF03F07EFC1CB9BDE81040FEF77F
S315080025F0FDBA10BD00ED00E00080005000E0035079
S315080026000000FF0F034A0179D36E23F030030B4312
S31508002610D366704700400050F8B504461C4BD3F803
S315080026208420D106FBD4D3F88430C3F381139C42AB
S315080026302CD0FEF7C1FA012C064602D121461AF023
S31508002640AEFA1AF00FFA4FF00072124B07465A66A6
S3150800265020461AF0CAFA4FF480630D4D621E934065
S315080026602B676B6E9A0103D4D5F884309B060AD57E
S3150800267038461AF0FBF9022C08D13046BDE8F84076
S3150800268000211AF08CBAD5F88430EAE7F8BD00BF05
S31508002690004000500060005010B50C4608B9FEF71F
S315080026A08BFA074B21461B783BB1064B984204D858
S315080026B00120BDE81040FFF7AFBF0220F9E700BFD1
S315080026C04C250020005A62020278034B01210020A3
S315080026D01A70FFF7E1BF00BF4C2500204FF00042FB
S315080026E038B5244B244C5A664AF6CD33656C0146F8
S315080026F005F00105236428BB0120FFF727FF63685F
S31508002700DB0715D51D4B586008461D4B226BD207B3
S315080027100CD4984208D1072415B1174B194A1A64E4
S3150800272022F038FE204638BD0130EFE79842F2D055
S315080027300024F1E70132236B13F0080305D08A421F
S31508002740F8D1E8E700220E49F5E78A42E3D02021CE
S315080027500A4A91620121A2F5805251600649084A47
S31508002760886A800603D49342D5D00133F8E79342AA
S31508002770DDE700BF00900050004009500060095096
S3150800278040420F003254FFFF4FF0004238B5164B57
S3150800279001465A664AF6CD33144C154A656C2364CD
S315080027A043780B205B0043F00103D363FFF7CEFEAB
S315080027B063688A7823F4F87343EA02136360CA7875
S315080027C04B7943EA0223A3600A798B7943EA022309
S315080027D023610878FFF782FFEB0744BF054B2364A4
S315080027E022F0D8FD012038BD009000500040095065
S315080027F0004000503254FFFF4FF00042124B70B5B4
S315080028005D6E03F580535A664AF6CD3304460F4982
S3150800281080204E6C0B64FFF799FE0B6A23F00F03BA
S315080028200F2C94BF234343F00F030B62F30744BFF7
S31508002830074B0B64002DA2BF4FF00042054B5A66AA
S3150800284022F0A8FD70BD00BF00800050004009506E
S315080028503254FFFF00A000504FF00042104B70B5F5
S315080028605D6E03F580535A664AF6CD3304460D4924
S3150800287080204E6C0B64FFF769FE0B6A23F4F8534D
S3150800288043EA04230B62F30744BF074B0B64002D8E
S31508002890A2BF4FF00042054B5A6622F07BFD70BD81
S315080028A000800050004009503254FFFF00A000503D
S315080028B02DE9F04105460F461E4690464AB10123CA
S315080028C03022194C8B4002FB004436B304F582547F
S315080028D023600F21072F05EB450388BFA7F10804DE
S315080028E04FEA0313114895BFBC00A40004330C3308
S315080028F008FA04F2A14018441AF078F9B8F1000F62
S3150800290009D101233021084ABB4001FB05223EB10B
S3150800291002F582521360BDE8F08104F50154D7E749
S3150800292002F50152F6E700BF00C0035030C003505D
S3150800293010B5152002F0BCF80024FF22064B2146EC
S315080029405C6520209A625C60FFF742F82146BDE884
S3150800295010402120FFF73CB800000450044A054BFC
S31508002960002908BF1346012282401A60704700BF3B
S31508002970401004504020045010B501210446202080
S31508002980FFF726F801212120FFF722F80122114B33
S3150800299015205A60227812069A606178A27842EA6F
S315080029A001429A61FF229A6200229A631A644FF0E2
S315080029B000425A654FF0FF3203F500531A6502F0DC
S315080029C097F81520E17802F0A1F8BDE81040152027
S315080029D002F080B800000450F8B50125C3B2D1F85A
S315080029E000E091F80AC00F7B0C469D40CB7A1D4942
S315080029F01D4E0D65810001F1A04101F58821C1F840
S31508002A0004E04FF0300E0EFB00601B05617B43EAC5
S31508002A100C4343EA475322F003020166C365026783
S31508002A201AF027F8114B5D65237A13B1336C2B43E3
S31508002A303364637A13B1B36B2B43B3632279A379F7
S31508002A4043EA0243074A93616179E37943EA01431A
S31508002A5006498B61044B55639D64BDE8F8401AF03E
S31508002A600EB800BF002004500000045000100450A7
S31508002A7010B50124C0B2844019F0FBFF044B5A6D0F
S31508002A8022EA04025A659C62BDE8104019F0F7BFB5
S31508002A900000045010B50124C0B2844019F0E9FFC3
S31508002AA0074BDA6A224208D15B6B9C430CBF0124B0
S31508002AB0002419F0E4FF204610BD0024F9E700BF02
S31508002AC0000004504FF48032054B9A6641F6713285
S31508002AD003F51C33DA63012203F50053DA60704705
S31508002AE00090005041F671320121064BDA6303F576
S31508002AF00052D1600022DA634FF48032A3F518330E
S31508002B009A66704700000350013831289ABF024B75
S31508002B10185C0020704700BF4575020838B5C2F337
S31508002B200625044602F0070241B942EA052242F4A4
S31508002B3040220634074B43F8242038BD1146284660
S31508002B401AF064F802462846FFF7DEFF163442EA12
S31508002B500022EFE7008003504FF48032064B5A6696
S31508002B6003F5E6239B69C3F38512827003F03F02DF
S31508002B701B0B42700370704700900050014B986C15
S31508002B80D96C70470080E00F0120034B9B680A331D
S31508002B9003F01F03984070470080E00F70B50546A4
S31508002BA016461C4621B94FF42070FEF72BFF014646
S31508002BB0402C1BD003D8DCB1202C1BD070BD602C58
S31508002BC0FCD1042303FB06F2530803EB4113B3FBC2
S31508002BD0F2F3094A203B02EAC303AA6822F060021C
S31508002BE0AA60AA681443AC60EB61E7E70623E9E745
S31508002BF01023E7E70823E5E7F8FF7F00012100F542
S31508002C00805310B5596040F6AA6341F20502436144
S31508002C100023094C8360C365C26000F50052036156
S31508002C20C361C3649464054C8365A04204BF03650D
S31508002C304365516010BD00BFFFFF010000C005508D
S31508002C4070B50D46FFF7DAFF012300F5805673606D
S31508002C50AB7C04461BB1836843F080438360EB7CFE
S31508002C605BB1244B9C4202BF2A7DA3F51033C3F8FF
S31508002C70C821E36D43F08003E3652A8A6B7B20460F
S31508002C801343EA891343E3602B7BD5E90112FFF767
S31508002C9085FF6B7D1BB1A36843F48033A360AB7DCE
S31508002CA01BB1A36843F40043A360EB7D2A7E1B0790
S31508002CB0120502F4E00203F0E0431343A3656B7EBA
S31508002CC09A1E012A4FF0020209D80B49032BC1F8B4
S31508002CD0202709D10423F3652B78636170BD074962
S31508002CE0012BC1F82027F4E7042204F50053DA651E
S31508002CF0F2E700BF00C0055000D0035000E00350C3
S31508002D00034B5A68D20702D5DA69002AF9D1704707
S31508002D1000800A50054B9A689107FCD45A689207B6
S31508002D20F9D4DA69002AF6D1704700BF00800A5044
S31508002D3008B5FFF7E5FF0222014B1A6108BD00BF7F
S31508002D4000800A5008B5FFF7E5FF0122024B03F59C
S31508002D5080514A601A6108BD00800A5008B5044BC4
S31508002D605968012903D1FFF7E3FF024B596008BDF3
S31508002D7000800A5000A00A5010B5064CFFF7CAFF9B
S31508002D806368012B03D1FFF7E9FFFFF7C3FF037859
S31508002D90E36010BD00800A50B8B94A680B7812B1D2
S31508002DA0127843EAC2034A7843EA42038A6812B1B0
S31508002DB0127843EA82138A7843EA8203CA6812B110
S31508002DC0127843EA4223014A9364704700800A5006
S31508002DD008B9014B5964704700900A5008B9014B6D
S31508002DE05964704700A00A5008B9014B1964704726
S31508002DF000A00A5010B9024B186C704700207047A3
S31508002E0000800A5048B911B1012903D07047044B14
S31508002E10D86C7047024B186D70470020704700BF8A
S31508002E2000800A5040B911B1012903D07047034BFD
S31508002E30DA647047014B1A65704700BF00800A5074
S31508002E4010B9024B586D70470020704700800A5031
S31508002E5038B50446054D22F0C1FA0FCC0FC594E8E3
S31508002E60030085E80300002038BD00BFD8160020FF
S31508002E7047F6FF739A42F0B56FD002296FD8394BDF
S31508002E805B5C012B6BD8384DDF0005EBC30415F8E6
S31508002E903330A178012B13D10025E078401AA842D7
S31508002EA002D80844C0B2F0BD431B6668A0EB5303C2
S31508002EB036F913609642D4BF1D4603F1FF30EEE79C
S31508002EC060680028EFD0B0F90040944204DBB0F9FE
S31508002ED002409442B8BF144683883D44FF2B19BF6D
S31508002EE0C8224FF0280CB0F90620B0F908C0A2EBAA
S31508002EF004030CBF0126002693FBFCF333446E78CB
S31508002F001BB29E4201DD002B01DA731E1BB24FF481
S31508002F107A7C01339BB2071D5D1E2DB24FEAC50EA2
S31508002F2000EBC505EA88AD689E4214FB025222EA08
S31508002F30E27202F15C02B2FBFCF204DD37F83350B0
S31508002F4001339542E8D200EB0E039888904228BFD9
S31508002F501046884238BF0846A4E7FF20A3E70020AA
S31508002F60A1E700BF77750208D81600200229F0B538
S31508002F7055D82C4B585C012851D82B4C04EBC00172
S31508002F8014F830004B6801280FD1C8788C78904225
S31508002F9094BFC4EB0001C4EB0201001BCAB2824213
S31508002FA0C8BF002233F91200F0BD002B37D088784D
S31508002FB0904202D3B3F90200F6E7CC78B3F90000E1
S31508002FC09442F1D94C789988013CA1F1FF067142E7
S31508002FD003F10405E4B2714103F10C07CEB2B44221
S31508002FE016D805EBC1014FF47A756A43B1F9024068
S31508002FF04968521A04EBD47102EB610292FBF4F2AF
S315080030009042D1DBB3F902009042CDDC10B2CBE797
S3150800301037F831C04E1C9445E3D33146DEE7034802
S31508003020C2E700BF77750208D81600200080FFFFA8
S3150800303008B50448FFF70CFFBDE80840012022F058
S31508003040D1B900BF7C750208004870479C2900204A
S315080030507FB50222084B0949CDE901234FF00073D9
S31508003060CDE90313072301A94FF0FF30059322F09A
S31508003070EDF907B05DF804FB006A180000020600C7
S3150800308008B5B0B14FF480620B4B9A661AF080F817
S315080030904FF098435A6CD202FCD54FF48062586DB3
S315080030A0064B10F470209A6604D0BDE8084019F063
S315080030B0E6BD212008BD00BF0090005000A00050CA
S315080030C02DE9F0418CB08846DDE912761D460446A6
S315080030D0002847D0002945D0002F43D0002E41D0E4
S315080030E013F00F033ED120482049A360002A08BFE9
S315080030F00146E361C4E90013404609A919F0BBFE7D
S3150800310068BB204609991AF03AF8294620461AF06B
S3150800311036F86946404600F081FA00BB6946204603
S315080031201AF019F8404603A919F0A4FFB8B92046C1
S3150800313003A91AF010F806970127204645F000550E
S3150800314006A9079708951AF006F8204609A90996C8
S315080031500A970B951AF009F82046FFF791FF0CB06D
S31508003160BDE8F0812120FAE700010004000101040E
S31508003170F0B50C4617461E46054695B0002874D08D
S31508003180002972D0002A70D0002B6ED0036B0F2B4B
S315080031905BD80023364A3846C4E90023A360E361B6
S315080031A011A919F068FE00285BD12046119919F07B
S315080031B0E6FF296B20460F2984BF01F00F01103165
S315080031C019F0DDFF384602A900F028FA002848D190
S315080031D0204602A919F0BFFF384605A919F04AFF8B
S315080031E000283ED1204605A919F0B5FF0122214B3A
S315080031F0089509920A932B6B05F1100003F00F014D
S3150800320041F000510B900F2B0C920D910E900F92DE
S3150800321043F00052109226D90A9B08A923F00053BE
S3150800322020460A9319F097FF0BA9204619F093FF39
S315080032300123119612930F4B204611A9139319F0E7
S3150800324094FF2046FFF71CFF0BE000F120030190D6
S3150800325000930122102339462046FFF731FF002844
S3150800326097D015B0F0BD0EA9DFE72120F9E700BF1A
S3150800327000000404100000202DE9F04F9BB00C4616
S3150800328090461F460546DDF89090002800F0B2806B
S31508003290002900F0AF80002A00F0AC80002B00F077
S315080032A0A980026B02EB09031B09B3EB121F02F09C
S315080032B00F0600F0978000234F4A8B60C1E9002370
S315080032C0CB61404617A919F0D6FD0346002840F001
S315080032D0858006EB090B204617992BF00F0A19F083
S315080032E04EFF5146204619F04AFF404602A900F013
S315080032F095F90346002871D1204602A919F02BFF3B
S31508003300404605A919F0B6FE0346002866D14FF0D7
S315080033100108019005A9204619F01DFF374A2046E5
S3150800332008A90895CDF824800A9219F014FF46F0EA
S315080033300051AAEB060605F1100346F000560B935A
S31508003340CDF830800D910E97CDF83C8010960D99EA
S31508003350204621F000510D910BA9009319F0FBFEB0
S3150800336020460EA919F0F7FE019B244A1193AAF1EB
S31508003370100343F00053CDF84880139305F120035A
S315080033801493CDF854801692139B204643F080433D
S315080033901393139B11A923F00053139319F0E5FE19
S315080033A0204614A919F0E1FE144A17A920461795D4
S315080033B0CDF86080199219F0D8FE2046FFF760FE16
S315080033C0AAEB0B0149440190ABEB0A020098394479
S315080033D022F06CFC019B2A6B4A442A6318461BB0F0
S315080033E0BDE8F08F10304A463946304422F05EFC7C
S315080033F00023F0E72123F1E7030200041000002070
S315080034002DE9FF474FF000080E4617460446CDF84B
S315080034100080002859D022B90025284604B0BDE806
S31508003420F087002951D032F0030902F0030A1FD0B1
S315080034304FF0E063C0E9003801230191C0F8088025
S315080034400293C0F81C8049F0005301A9039319F0B0
S315080034508CFE4946204619F092FE2046FFF710FEDC
S31508003460054628B14A464146304622F014FCD4E7C0
S31508003470BAF1000FD0D04FF000084FF0E063C4E96E
S3150800348000380123CDF804D00293114B204601A938
S31508003490C4F80880C4F81C80039319F066FE04215A
S315080034A0204619F06CFE2046FFF7EAFD054608B1EE
S315080034B03A46D8E7009A4E44EB00013522FA03F360
S315080034C0AA4506F8013BF7D1A6E72125A5E700BFDF
S315080034D004000020F0B50F4616461D46044693B074
S315080034E010B9212013B0F0BD0029FAD0002AF8D06F
S315080034F0002BF6D0002331461A46384619F060FCF0
S315080035000028EFD1304602A919F0F6FB0028E9D1C8
S31508003510EB68022B0AD039683F48029A81426B69E8
S3150800352002D01830814270D19A42DAD82B68002B23
S31508003530D7D14FF060623846C4E90023A360E3613F
S3150800354001A919F098FC0028CCD10199204621F44C
S31508003550F061019119F013FE6946284619F08BFCB3
S315080035600028BFD12046009919F009FE384609A956
S3150800357000F054F80028B5D1204609A919F0EBFD4A
S3150800358038460CA919F076FD0028ABD120460CA9BF
S3150800359019F0E1FDEB684BB1284606A900F03EF8A4
S315080035A000289FD1204606A919F0D5FD304603A963
S315080035B019F060FD002895D1B368DA040CD59B0490
S315080035C027D50621F36932691B6801FB03225B00D4
S315080035D043F0005303920593204603A919F0BBFD57
S315080035E028460FA919F046FD00287FF47BAF204630
S315080035F00FA919F0BAFD03252046FFF741FD01285A
S315080036007FF470AF013DF7D16CE7B3EB420F8DD273
S3150800361067E7292066E700BF200000B090B189B1AE
S3150800362001234B60C368013B012B08D88269064B0E
S315080036301AB10A6000208B607047044AF9E74FF018
S315080036400053F7E72120704708000020308702085A
S3150800365006289ABF014B185C002070473887020875
S3150800366030B5154B87B00293144B0390049346F676
S3150800367011030D46059300F077F91428044616D170
S31508003680684619F032FE4FF0A843032202A95A638E
S3150800369019601D619A63DA6B9207FCD1142C02D16A
S315080036A0684619F030FE00F093F9044601E0002858
S315080036B0E9D0204607B030BDF016002004000020EF
S315080036C02DE9F04FB1B005468C469E46E8466F4E4A
S315080036D0DDF8EC90409C06F1100A474630687168A0
S315080036E0083603C75645B846F7D13E9B03EB020892
S315080036F0C8F1000A0AF00F0AB9F1000F00F09D8020
S31508003700C9F1000707F00F070121DDF8FCB044F006
S315080037100050C4F11006CDF810B00591069030029D
S3150800372000F4F85040F021000790B9F1000F40F07E
S315080037308680CDF820D047F00050002D00F0848018
S31508003740099121210A9041EA07210B9142F0005084
S31508003750CDF830C03D9B08A94FEA0A2C0D910E9072
S315080037604CF041000F901093002A75D13E9B1191A1
S3150800377043F0005312933C9B1390149310AB15938C
S31508003780434B444A169340F611031793424B0021C4
S31508003790002D08BF1346189314AB19933F4B1022FC
S315080037A01A9311231B931CAB184622F074FA0122B4
S315080037B01D92002246F0804603461E96239205B9BE
S315080037C0EB46102CCDF880B024AE4BD1012322460F
S315080037D0002130462193229422F05DFA20AB002185
S315080037E025938F4218BF334647F0804226923A9A6D
S315080037F02CA828922993B2FA82F35B0949EA8373C3
S3150800380010222B912A9322F046FAB9F1000F00D024
S3150800381028AED04448F080432CA918A82D962E939C
S31508003820FFF71EFF30B92DB90346A34225D100285C
S3150800383018BF2C2031B0BDE8F08F102764E7CDF80B
S3150800384020E049F0005078E7002C3FF479AF04A94E
S31508003850099101210A9076E73E9B0CAA1192412014
S31508003860129388E71022002130462193229422F0F1
S3150800387012FA002CB2D10123B1E703F1C0026A445F
S3150800388012F8C02C01331043CFE700BF3F87020868
S3150800389010000020548702085887020804000020F8
S315080038A0F0B5C0299FB0DDE9244557D0B1F5807F32
S315080038B004D0802948D029201FB0F0BD01265CB16C
S315080038C040F2344702941024039604942124019765
S315080038D00594069502AC0AE040F2144702941024B7
S315080038E003960494212405940124019706950794C8
S315080038F001251024089409950A9221220B950C9407
S315080039000D92174A0AAD0E92164A0F95109242F674
S3150800391011021192129313951494159201AA1692F4
S31508003920D3B112AB1793042318931123199316AB2B
S315080039301A901B9340F61103C9081C911AA806A9E8
S315080039401D93FFF78DFEB7E7012614B94FF482677A
S31508003950C4E74FF48667B5E70EABE3E70F20ABE79E
S31508003960508702081000001038B5164B5A6E42F000
S3150800397004025A66D3F8802242F00102C3F8802274
S31508003980114B5B68C3F3080343B14FF0A842D36BEE
S3150800399013F0430FFBD11424204638BD4FF0A8433B
S315080039A0DC6B14F04304FBD1084D2B681BB90421CA
S315080039B0284603F087F92B68013343F000432B6050
S315080039C0EAE700BF0080005000ED00E0F016002096
S315080039D0014B00205B68704700ED00E0012300F012
S315080039E01F02A0F506200949A0F55060400993403A
S315080039F051F820201A4341F82020054951F8202083
S31508003A0022EA030241F82020704700BF0817002069
S31508003A10F41600200121A0F506230E4AA3F55063EB
S31508003A205B0900F01F00814052F82300014342F869
S31508003A3023100949D1E90030034488680344C8685B
S31508003A40096903445B1802BFC2E90033C2E90233BD
S31508003A5013617047F4160020081700202DE9F04F6F
S31508003A60A9B003921D4604460822339ECDE90401F7
S31508003A70414021FA02F34B40980702F1080218BFA9
S31508003A809B00202A1C44F4D18123B4FBF3F303EBF7
S31508003A90C313E41A734B04F506241B7804F5506423
S31508003AA0002B3ED1FDF754FC074620B16FF091007C
S31508003AB029B0BDE8F08F0146402208A822F0EBF8AD
S31508003AC04022394618A822F0E6F8DFF8B481DFF874
S31508003AD0B491C3460BF10F0ACDF800A0102208A92D
S31508003AE05B46D9F8000021F028FA0022014608F1C1
S31508003AF0100808AF914246D1CDF800A05B461022C7
S31508003B00D9F8000018A921F021FA4FF0000A8346D7
S31508003B1018AFD34541D1544B9845DAD10122514BC0
S31508003B201A704FF0810A4FF00008DFF85CB1A4F56F
S31508003B300627A7F550635B095BF8232004F01F01ED
S31508003B40CA40D2073DD4494A52F82330CB40DB0756
S31508003B502AD5B8F1000F08BFA0468123A7F6FF476C
S31508003B60B7FBF3F303EBC313FF1A07F50624BAF101
S31508003B70010A04F55064DAD1039BBBB1B8F1000F12
S31508003B8014D0444619E057F8040BCDE90612FFF79E
S31508003B9025FF079A06990132ACE757F8040BFFF799
S31508003BA039FF0AF1010AB4E7039B13B96FF08B00DA
S31508003BB07EE7B8F1000F18BF4446349B00201C600E
S31508003BC076E7329B13B10023329A13600EB10023B5
S31508003BD033601023DFF8AC9000932A460023214671
S31508003BE0D9F800000EF06AFF60BB32992A68204BAC
S31508003BF0C9B99A4206D02146D9F800000EF0F6FF58
S31508003C000028D3D1D5E90223DDE90410834208BF91
S31508003C108A42A2D1039B002BCFD06B68012BCCD153
S31508003C206FF0840044E7102032999A420860E2D186
S31508003C30002EE7D033462146D9F8000018AA0EF020
S31508003C4091FF48B10B4B9842D5D00B4B9842D2D036
S31508003C500A4B9842D6D029E7329A336812689B1ADB
S31508003C603360CFE74D25002000710800F4160020C8
S31508003C70105D175EFFDF00F011E000F0FEDF00F0D8
S31508003C80006D08003C280020081700202DE9F04F99
S31508003C9087B08246894698461646DDF840B02AB16E
S31508003CA0002B4FD040F26C739A424ED8BBF1010FED
S31508003CB04ED8002406F110073946012005941AF05B
S31508003CC06CF80546002846D021463A4621F0E3FF1F
S31508003CD005ABCDE9014300942B46012250464946DF
S31508003CE0FFF7BCFE044680B110F18C0F08BF6FF0D9
S31508003CF08D043A460021284621F0CDFF28461AF0C1
S31508003D002EF8204607B0BDE8F08F144BC5E902A986
S31508003D102B60C5F804B02EB13246414605F11000B5
S31508003D2021F0C4FF059E0E483B462A4631460068E8
S31508003D300EF02CFE18B93046FFF750FED9E76FF0A3
S31508003D409104D6E76FF08604DBE76FF09104D8E7B5
S31508003D506FF08504D5E76FF08C04D2E7105D175E27
S31508003D603C2800202DE9F0438DB08146DDE9147822
S31508003D700E4615461C469BB1B8F1000F05D16FF0EB
S31508003D80860630460DB0BDE8F083002FF7D0B7F1B0
S31508003D90005FF4D3C3F1005303F580239F42EED8A6
S31508003DA01022002108A821F076FF002207AB029313
S31508003DB005AB019306AB31460093484608ABCDE9FF
S31508003DC00522FFF74BFE06460028DAD1059BA4B16B
S31508003DD0AB4215D853EA0504D1D1069B0B48C8F85F
S31508003DE0004000943A46079900682B440EF066FE98
S31508003DF0002818BF6FF09106C3E7AB42EDD2BEE7C5
S31508003E005B1B9C4228BF1C46E7E700BF3C280020F6
S31508003E1030B58DB00C4605461022002108A821F0C1
S31508003E203AFF002207AB029305AB019306AB214686
S31508003E300093284608ABCDE90522FFF70FFE044696
S31508003E40D8B9099B012B1BD0079D104B294618682A
S31508003E500EF0CCFEB8B90122A5F506230C49A3F548
S31508003E6050635B0905F01F00824051F82300424069
S31508003E70284641F82320FFF7CDFD20460DB030BD7A
S31508003E806FF08404F9E76FF09104F6E73C28002008
S31508003E90081700202DE9F0410D4614461E46C2B00B
S31508003EA010B96FF086000DE00029FAD0002AF8D084
S31508003EB0002BF6D0038803F44F42B2F5824F04D0A4
S31508003EC06FF0850042B0BDE8F081DAB2122AF7D168
S31508003ED023F0FF03B3F5E24F27D143883360FBB9DC
S31508003EE0E3003360B3F5807FEAD1002318464349DF
S31508003EF02E19214411F8014D16F8012D1043121BF5
S31508003F000CBF4FF0FF340024B54203EA040343EA2A
S31508003F100203EFD10028C4D0002BC2DA0020D1E773
S31508003F20DA1DB4EBD20FDDD0BBE7B3F5824F61D112
S31508003F300B78042BB5D120220021684621F0ABFE70
S31508003F40684618F0CAFE002851D10027842239464F
S31508003F500DEB0200209721F09EFE202201234FF050
S31508003F60880839460DEB0200013C8DF88030013592
S31508003F7021F091FE202239460D9410A8E4000C95F4
S31508003F80640821F088FE20AD2022394618A8149529
S31508003F90CDF8548021F07FFEE02CCDE91C58346022
S31508003FA003D0B4F5807F7FF47CAF154B07340893B4
S31508003FB010934FF400530A934FF48043E408129386
S31508003FC008AA18AB6846640010A91994FFF782FA84
S31508003FD033680733DB085A0033B10021531E013B0F
S31508003FE0297005F10105FAD2002897D059E76FF034
S31508003FF0920067E76FF0960064E700BF5C870208E7
S3150800400020000080F8B5134642880C460732072A76
S315080040104FEAD20101D0A1426DD146680588C7682A
S3150800402020221846002121F036FE360A034626B11C
S31508004030012E11D06FF08B00F8BD002C5BD041F239
S315080040400102954205D0B5F5885F02D0B5F5905FB7
S315080040501BD15C600020EFE7C660002C4BD041F214
S31508004060010295420BD15C60B90707F001021FD423
S31508004070002AEFD19A6842F080729A60EAE7B5F5AD
S31508004080885FF0D0B5F5905FEDD0B5F5105F0AD131
S31508004090182C03D0202C01D0102C2CD1C3E90044B5
S315080040A0002ED7D0E0E705F44F42B2F5824F02D092
S315080040B06FF08500C0E7EAB2122AF9D1202CF7D1B1
S315080040C00E4A25F0FF05B5F5E24F1A600CD0B5F596
S315080040D0824F10D14FF4005217F4705F09D017F4CD
S315080040E0864F04D09A60E3E74FF48042F4E742F43F
S315080040F080629A60D4E76FF086009DE72000008012
S315080041002DE9F041174600221C4643688CB01B0A6D
S3150800411080460D46009204D0012B56D06FF08B00D6
S315080041208EE0008820F0FF03B3F5824F15D1B8F86A
S3150800413002200732D208009219F03DF9002800F053
S31508004140E1800B78042B05D1013FB7EB420F05F14F
S31508004150010503D06FF0860072E00097009E2246A4
S3150800416031464046FFF74EFF002869D1FA1CC4E9DC
S31508004170030522F003026261002E00F0A4802022CB
S31508004180002101A821F087FD3146404601AAFFF724
S3150800419039FF002840F097802368019A9A4240F038
S315080041A092806368029A9A4240F08D80A368039AC7
S315080041B09A4240F08880A369079A9A4240F0838021
S315080041C0E369089A9A423BD07DE0032FC2D90B785F
S315080041D0012B40F09A80497800294BD0F7390829F5
S315080041E09CD801A353F821F0514200080D4200085B
S315080041F01D410008474200081D4100086B4200089F
S315080042001D4100085B420008634200084FF410563F
S31508004210F8253F4F1C22002102A821F03CFD03236C
S315080042200197CDE90435039601AA09AD134603CBD8
S31508004230AB42206061601A4604F10804F6D10020FA
S315080042400CB0BDE8F08110274FF08076FA25E1E73B
S3150800425020274FF00076F725DCE7FE252C4F2D4E5C
S31508004260D8E7FF252A4F2C4ED4E74FF41056FC25E5
S31508004270274FCFE72B2F7FF66DAF2022204621F060
S315080042800AFD05F110032361AB070DD001AB05F15B
S3150800429028061A4628686968083503C2B5421346CF
S315080042A0F7D1286801AD10606B68103F2360AB68D2
S315080042B069466360EB682046A36001236761E36093
S315080042C018F01AFD28B120220021204621F0E3FC2F
S315080042D040E7B8F80030009E03F44F42B2F5824F2B
S315080042E00ED1DAB2122A0BD123F0FF03B3F5824FAF
S315080042F006D1730062691C339A42BFF43DAFE2E708
S315080043003346F7E76FF085009AE76FF0910097E775
S3150800431020000080004400020044000370B50E46E9
S315080043201446054610B96FF0860070BD0029FAD00C
S315080043303822002121F0AFFC094B24F47E129A4260
S315080043400AD13388B3F5105F06D1C4F30543102BA1
S31508004350E9D800202C60E8E76FF08500E5E700BFA4
S315080043600002C003F0B50F4616461D4604468BB03C
S3150800437088B302B97BBB2022002102A821F08BFC5E
S3150800438002A818F0AAFC20B16FF0920420460BB0E0
S31508004390F0BD2368114A23F47E13934215D135B92B
S315080043A0002402A818F0A3FC0028EFD0ECE7334657
S315080043B03A46009502A9201DFEF75EFF012807D0A0
S315080043C00028EDD06FF09204EBE76FF08804E8E779
S315080043D06FF08B04E5E76FF08604D7E70002C003A9
S315080043E02DE9F0418CB0884616461D460446129FB4
S315080043F0002840D0002A3ED0002B3CD0002F3AD0CF
S31508004400102B036828BF102513F47C1FC3F305423D
S3150800441002D0954228BF15461A4A23F47E139342C2
S315080044202CD12022002104A821F035FC002304A861
S31508004430CDE90033CDE9023318F04FFC40B96B469D
S31508004440424604A9201DFEF793FE30B100233B60C7
S315080044506FF092000CB0BDE8F08104A818F047FC94
S3150800446004460028F2D12A466946304621F01EFC49
S3150800447020463D60EEE76FF08600EBE76FF08800B8
S31508004480E8E700BF0002C0032DE9F0410E461746D3
S315080044909846044600B3F9B1F2B19822002121F0FA
S315080044A0FAFB3146069A04F16000FFF737FF054626
S315080044B0A0B92346424639463046FFF721FE05464F
S315080044C060B97288D208A2F110011029E26503D8F2
S315080044D00A4BCB40DB0704D46FF086052846BDE8B7
S315080044E0F08163691C329342F6D304F1200318461F
S315080044F0216921F0DBFB2061F0E700BF0101010023
S315080045000023C36001F13803036120230A6843616D
S315080045108B6D0B4922F47E128A42436003D001F563
S3150800452080718A4208D1102B01D0182B02D1036062
S3150800453000207047202BFAD06FF08800704700BF24
S315080045400001C00370B505460C4618F092FA0C2D0A
S31508004550064616D80C2D18D8DFE805F01B1B171BC6
S315080045601B2A171B2E17311734000123194AAB4093
S3150800457013421DD1132D2AD00D2D06D14FF4F0600C
S3150800458022E0A5F10D03122BEFD900232380212465
S3150800459009E08020FDF794FC4FF6FF7398422080CF
S315080045A00CBF0E240024304618F069FA204670BD68
S315080045B0002323800F24F6E74FF48060EAE74FF4E0
S315080045C04060E7E74FF4C060FDF75CFCE4E74FF4B2
S315080045D0E060F9E7008023D4B8B1036813F4E07FFC
S315080045E003F03F00C3F382120AD0012A0DD1084B0B
S315080045F041B103F58053012282401A6000207047BA
S31508004600044BF5E703F50053F5E70E20704700BFA6
S31508004610688000506480005030B58BB06D46774C8A
S315080046200FCC0FC554F8043B68462B604FF07E63E9
S3150800463093F89C306D46FF2B08BF25238DF8013073
S31508004640FDF77CFD3220FDF7B7FD0FCC0FC50FCC6B
S315080046500FC594E8030085E80300694BD3F84C219D
S31508004660110340F1AE80A3F5FE431C884FF6FF7395
S315080046709C4208BF64248DF81940FDF729FD0444BF
S3150800468084F308045F488DF81840FCF7CBFA6846AF
S31508004690FDF722FC3220FDF795FD5B48FDF76CFE21
S315080046A05A48FDF7DDFE5A4C01213620FDF790F9F0
S315080046B00020FDF78DFDFDF73DFE236F002023F05A
S315080046C0070343F003032367236F23F4744343F478
S315080046D08063236718F06EFA4E4BD3F8FC20D2019C
S315080046E073D4D4F8803023F0030343F00103C4F8ED
S315080046F08030D4F88030C4F88030454CD4F8203166
S3150800470023F0070343F00203C4F82031D4F8283114
S3150800471023F0070343F00203C4F82831D4F88031A4
S3150800472023F0030343F00103C4F88031D4F8403181
S3150800473023F0030343F00203C4F84031D4F8603190
S3150800474023F0030343F00203C4F86031D4F840327F
S3150800475023F0030343F00203C4F84032D4F80032CE
S3150800476023F0070343F00203C4F80032D4F80832F2
S3150800477023F0070343F00203C4F80832D4F8703272
S3150800478023F0030343F00103C4F87032D4F820324F
S3150800479023F0070343F00103C4F82032FDF75AFB60
S315080047A04FF0E0220020136963F004031361D4F884
S315080047B0603223F0070343F00103C4F860320BB0FC
S315080047C030BDD3F85041E4B255E7D3F8FC2022F0C7
S315080047D08072C3F8FC20D4F8802022F0030242F04D
S315080047E00102C4F88020D4F88020C4F88020D3F8C9
S315080047F0FC2042F08072C3F8FC207EE77C87020822
S315080048000080E00FC017530200B4C404C0EA2101B7
S315080048100080005000ED00E007B5094B18689A883B
S315080048209B7900906846ADF804208DF80630FDF7B0
S31508004830ABFF0C20FDF7E0FF002003B05DF804FB9A
S31508004840B887020870B501F007FD0446E8B901F01B
S315080048502DFF01F0EBFD4FF4167343430C4A03F5A5
S31508004860742303F23F23B3FBF2F30A490A480B60A9
S315080048700A230268094D0E68013B45F8046B0E6869
S3150800488013F0FF033244F6D10260204670BD00BF24
S3150800489040420F0050170020201700202417002040
S315080048A0012208B5034B1A7019F0F0FA024B18608A
S315080048B008BD00BF4E2500201C17002010B501F0CA
S315080048C0B5FD044618F0CBF8844207D919F0ECFA7E
S315080048D020B10122024B1860024B1A7010BD00BFAE
S315080048E01C1700204E250020F8B51F4C2378E3B18D
S315080048F019F0CCFA1D4B1E4D1B68C01A28602B6890
S31508004900A3B12B682B6001F091FD4FF4167250434A
S31508004910184A00F5742000F23F20B0FBF2F02B682D
S315080049202B68834204D900232370F8BD0123E9E7E5
S315080049301148124E0378296856F82320104F511A49
S315080049403A68521A29683A6046F823100A21093249
S31508004950B2FBF1F20B4D0133DBB22A60B3FBF1F285
S3150800496001FB12330370DEE74E2500201C170020DA
S315080049704C17002040420F004F2500202417002026
S315080049802017002050170020014B1868704700BFF9
S315080049905017002070B502212C2000F0B7F84FF40C
S315080049A0801204250E4C0F4B0F4E5A6604F5005321
S315080049B05E672C205D671E671D6700F099F82C203E
S315080049C000F088F804F580535E675D67A36A23F0F4
S315080049D00073A362A36A43F48053A36270BD00BF49
S315080049E00040005A00900050010000A0064B074AFC
S315080049F0996D11F0050F01D0117811B10028F7D182
S31508004A0070470120704700BF0040005A502500201B
S31508004A10164B10B51C6F14F0040111D0144A116717
S31508004A20082191629B6DDA0701D4FFF747FF01F071
S31508004A304BF901F02BF9012001F0E4FD19F036FAE3
S31508004A40E30706D501220A4B1A67FFF74DFF01F067
S31508004A501DF914F000521CBF054B1A67002CBEBF87
S31508004A604FF00042024B1A6710BD00BF0040005AC3
S31508004A700060005A6FF00403502110B50A480B4C29
S31508004A8013F0800F03F1010206D123444C2A83F860
S31508004A9000131346F4D110BD03F00F03043B03447F
S31508004AA019761346ECE700BF00ED00E000E100E0F0
S31508004AB000280CDB01220649430900F01F0082404A
S31508004AC0203341F82320BFF34F8FBFF36F8F704712
S31508004AD000E100E0002807DB01234109034A00F052
S31508004AE01F00834042F82130704700BF00E100E014
S31508004AF0002808DB01224309034900F01F00824011
S31508004B00603341F82320704700E100E00028ACBF7D
S31508004B1000F16040064B4FEA0111C9B2ABBF00F580
S31508004B20614000F00F0080F800131954704700BF69
S31508004B3014ED00E010B5044617F094FF024B1C6014
S31508004B4017F094FF002010BD5417002010B517F079
S31508004B5089FF034B1C6817F089FF204610BD00BF6C
S31508004B6054170020034B0222186800238068194650
S31508004B7015F0A0BD4829002030B51446054687B073
S31508004B80104618F004FF6369024683423CBFD4E925
S31508004B9003315B181B1A7BB10F490494039100215A
S31508004BA0CDE90131012300932846D4E9001317F013
S31508004BB090FF002007B030BD0122627694F82D20C0
S31508004BC0002AF6D084F835301321E3692046984741
S31508004BD02046636A9847ECE7794B00082DE9F047C9
S31508004BE088B004460F461646984617F042FF814697
S31508004BF0002E7AD0237E03F0FF02002B00F0A2805D
S31508004C00204618F0C4FE6569A84205D1637ED4E93A
S31508004C10033213445D1B01E0F9D9451BB54228BF91
S31508004C20354617F026FF94F82D308246002B6DD1B5
S31508004C302A463846616921F039F863692E462B44BD
S31508004C40636121E0037803F0FD0111295BD1216B33
S31508004C50814205D1A3F111014B424B4184F834300E
S31508004C60013E6369216B01328B4203F1010308BFE0
S31508004C702363636195426069E4D1D4E90323216B18
S31508004C801344994200D122630025D4E903236169BC
S31508004C901344994208BF6261207A6576FCF774FA74
S31508004CA0204618F074FE6369834232D1257694F85B
S31508004CB02D30E568656103B125632046636A984728
S31508004CC0214B049403930023029323692A460193F4
S31508004CD00123009363682168207A17F0FAFE207A88
S31508004CE0FCF772FA504617F0CAFE4846C8F8006044
S31508004CF017F0C5FED8F80030002B0CBF1B2000208B
S31508004D0008B0BDE8F08707F8013BAAE72E4600225F
S31508004D10B0E70123207A23760DF11E01FCF7BCFAD1
S31508004D209DF81E30002BDAD00DF11F01207AFCF712
S31508004D308BFA9DF81F100029D1D12246207AFFF759
S31508004D401BFFCCE71646D0E7794B00082DE9F04162
S31508004D500C461546064686B04022002120461F46C8
S31508004D6020F099FF95E8030000232A692376EB686B
S31508004D7084E80300C4E904232A7DE36084F82C2030
S31508004D80AA7D2363012384F8343084F835300C9BDC
S31508004D9084F82D2023620D9BE76163620E9BA36254
S31508004DA02B7A84F836306B7A84F837302D4B34609A
S31508004DB073602D4BB3602D4B33612D4B73612D4BB7
S31508004DC0F360FCF7ADF938B12B4B984204D01024A8
S31508004DD0204606B0BDE8F081002104F10800FCF782
S31508004DE027F907460028F2D14FF00108234B336212
S31508004DF0234B84F83C80B361224BF3619DF8403025
S31508004E0084F8390084F83B309DF83C30204684F815
S31508004E103A30697D84F8388018F0F6FD95F909006E
S31508004E20FFF766FE95F90900FFF754FE164B049442
S31508004E30CDE902732369CDE900836368E2682168D6
S31508004E40207A17F046FE04460028C0D195F90800D6
S31508004E50FFF74EFE95F90800FFF73CFE3046FFF7D0
S31508004E6069FEB5E759DA0108DD4B00087DD9010866
S31508004E7083D90108AFD90108038000F057D9010882
S31508004E8009DA010889D90108794B00082DE9F041AA
S31508004E9001271C465B4B86B002935B4B0C9D019326
S31508004EA05A4B904600930A46CDE903772946584B54
S31508004EB0FFF74CFF0646002840F09B8023683946DA
S31508004EC02B6463683A206B64637A85F84930237AE1
S31508004ED085F84830E37A85F84B30A37A85F84A3066
S31508004EE0637B85F84D30237B85F84C30E37B85F86A
S31508004EF04F30A37B85F84E30FCF76AFD3B4604220B
S31508004F00617A207AFDF7D4FC3B460222E17AA07A40
S31508004F10FDF7CEFC39466068FCF75AFD88F8006054
S31508004F2041462068FDF78CFE1420617C394B01F15F
S31508004F30390252019850607A227A03EB411342EA09
S31508004F400042C3F83827E17AA27A42EA0142C3F856
S31508004F50302785F8506098F81930032B4FD8DFE8CA
S31508004F6003F0394C021C022385F850300023042232
S31508004F70E17BA07BFDF79CFC0220617C254B01F1BF
S31508004F80B9025201985003EB411341F22C71E07BB0
S31508004F90A27B42EA00425A501CE0012785F85030AD
S31508004FA002220023617B207BFDF782FC617B227B4A
S31508004FB0637C42EA014241F228715B0103F1A04396
S31508004FC003F570335A500422236803F58053DA65D3
S31508004FD0002FCBD1237A2A6C85F84830637A0521CD
S31508004FE085F84930D36C206843F00403D36417F07E
S31508004FF02AFE304606B0BDE8F0810027CEE7232614
S31508005000F7E700BF87DB01087BDB010813DC010833
S3150800501007DC010800C0035073B50024684600F099
S31508005020C7F90C4B00981C600B4B0C4D1C600C4EC2
S315080050300C4B306018602C6018F0BFFE2046019BB0
S315080050403268013BDB0853802B6801332B6002B0C2
S3150800505070BD00BF5C17002058170020601700209D
S3150800506068170020641700202DE9F04F00279246A4
S3150800507087B04A1C0E4614BF0C4608249946059765
S31508005080002B00F0B0801F60002800F0AE800730CB
S3150800509020F0070517F0EDFC05AB314602900093AA
S315080050A052463B46284600F08DF9059E804606B1D5
S315080050B030B9029817F0E3FC192007B0BDE8F08F65
S315080050C0DFF83CB17788DBF80010FB00C0EBC707B8
S315080050D00139272FCBF800106CD9BAF1000F48D147
S315080050E0854205F1080740D02146304618F0F1FD03
S315080050F004460590059B1F44384618F05EFE059940
S3150800510005F10F034A88C3F3CF03D21A7A80CA88F7
S31508005110BB8062B3D31A9BB201EBC202FB809380B9
S315080051208B88ED08A380BB88002231463846658007
S31508005130E38000F0BFF9237843F001032370DBF81E
S3150800514000300133CBF800302B4A02981368083434
S3150800515043441360294A11688B4288BF136017F0CD
S315080051608EFC0020C9F80040A7E73446C2E7FA805B
S31508005170D6E7F4192046039318F01FFE08F1070234
S31508005180D20805996280FA1DD208A280CA887AB127
S31508005190D200039BD01DC31A4344C3F3CF030A446A
S315080051A0E3809380A388013FFF084F80CB80C2E746
S315080051B0E280F7E7BAF1010F19D106F10803B3FB4C
S315080051C0F4F204FB1233A3B12146304618F081FDF0
S315080051D004462378012243F0010331462046237012
S315080051E000F068F9B0E7222067E7212065E78542E5
S315080051F0EAD13446EDE700BF5C17002058170020B7
S31508005200601700202DE9F3470446684600F0D0F8F9
S31508005210002C00F0C28017F02CFC14F8085CEB0791
S3150800522004D534F806ECBEF1000F05D117F027FCBB
S31508005230012002B0BDE8F087DFF870C134F8041C1D
S31508005240DCF800800EF1010208F10103A4F108065A
S3150800525092B2CCF80030002938D0A6EBC10393F8F7
S3150800526000A0B3F806901AF0010F5F8805F0020552
S3150800527020D105BBA9EB0701012927D80EF10202A7
S315080052801744BAB2CCF8008034F8025C05BB14F8AF
S31508005290085C511E6FF3000504F8085C002589B206
S315080052A024F8065C5980197865F300011970002105
S315080052B0D98031E055B111448AB214F8081C6FF34D
S315080052C0410104F8081C00219980DDE73346DBE735
S315080052D006EBC508DDE900710F44B845D7D216F8C4
S315080052E03560414616F001062ED014F8086C551E96
S315080052F06FF3000604F8086C002624F8066C1C7880
S31508005300ADB266F300045D801C70C3F107040C445B
S31508005310C4F3CF04DC808C80214C216819B19942F2
S3150800532001D8498801B923601E4C216819B19942F0
S3150800533001D3498801B923601B490B689B1A0B6086
S3150800534017F09DFB002074E7A5EB0E05012DCCD8C0
S31508005350B8F80250A8F8026001352A44B8F8065091
S3150800536092B2C5B108EBC501DCF80050013DCCF896
S31508005370005014F8085C6FF3000504F8085C002573
S3150800538024F8065C541E5C801C7865F300041C70C7
S315080053900029BAD18BE72946E6E7222049E700BF6C
S315080053A068170020641700205C170020601700208B
S315080053B00249034A0160521A42607047F0290020E8
S315080053C000000420F0B506460020059F4C1C08BFC7
S315080053D008213860BAB91F480568002D38D0B5F8D5
S315080053E002E0DB0003EBCE0EC1F1000C2878C00703
S315080053F00BD52ABBE888B0B105EBC005B5F802E0C5
S3150800540003EBCE0EF2E71448E6E7B645F1D35AB9F0
S3150800541005F10804B4FBF1F001FB1044A0190CB126
S315080054207045E7D83D60F0BD08290FD06C88013477
S3150800543005EBC404A01B00EA0C00201A8645F1D22D
S31508005440A8880028EFD0A5EBC005D7E73046E9E7DE
S315080054502846E8E76817002064170020134B13B5A1
S315080054601B6804460846FBB121B96846FFF7A0FF4A
S315080054706CB900980378D90707D55CB9C3889BB17E
S3150800548000EBC3000378DA07F8D402B010BD084B66
S315080054901868EFE7012C07D183882BB1A0EBC3006E
S315080054A00378DB07F8D4F0E70020EEE76017002062
S315080054B064170020F8B5124F05460C463B68114E96
S315080054C0B2B1994209D041B13368994204D129460B
S315080054D00120FFF7C3FF3060F8BD29460020FFF71B
S315080054E0BDFF33683860A342F1D0002CEFD0F3E754
