S02B000062745F736F635F656E657267795F68617276657374696E675F6170706C69636174696F6E5F6F627341
S31508000000C00A0020290B0008259801082598010830
S3150800001095B2010825980108259801082598010830
S3150800002025980108259801082598010825980108AA
S3150800003025980108259801081DB301082598010887
S31508000040259801082598010825980108259801088A
S31508000050259801082598010825980108259801087A
S3150800006025980108150A00088397010825980108AC
S31508000070259801082598010825980108259801085A
S31508000080259801082598010825980108259801084A
S3150800009025980108D912000825980108259801080D
S315080000A025980108E50E0008C50E000825980108E0
S315080000B025980108815701082D6201087F24020846
S315080000C07B240208BD5901089524020883240208E6
S315080000D0FD610108872402086D620108D9620108DA
S315080000E025980108259801082598010825980108EA
S315080000F0A7AB010825980108259801082598010845
S3150800010025980108259801082598010825980108C9
S3150800011025980108259801082598010825980108B9
S3150800012025980108259801082598010825980108A9
S315080001302598010825980108259801082598010899
S3150800014025980108259801082598010835580208B8
S31508000150F53C010825980108692402086F2402085D
S315080001602598010825980108259801082598010869
S31508000170F0B5114A114C124E00F00105E3695F070C
S3150800018013D40DB9334213D103EA00078F4207D1BE
S315080001900B4A1A40002A0CBF00206FF00100F0BD80
S315080001A0013AEBD16FF00200F9E74FF0FF30F6E7BE
S315080001B06FF00100F3E700BF809698000000035037
S315080001C0020001000B4B70B5D96911F480310DD1CD
S315080001D001244FF48072084E084DF46020462C64C2
S315080001E01A61FFF7C5FF3464EC6070BD6FF001005B
S315080001F0FBE700BF00000350001003500020035027
S315080002004FF4803238B50E4B0E4C9A66E56941F6C6
S31508000210713315400122E3630B4B0021DA60022398
S31508000220606121202361FFF7A3FF10B92120FFF7A2
S315080002309FFF0122054BDA600DB10023E36338BD49
S315080002400090005000000350001003500020035097
S3150800025070B5134C6061E3695B071ED40E4656F809
S31508000260043B8D18A361AE420BD104230021212043
S315080002702361FFF77DFF58B9BDE870402120FFF7DD
S3150800028077BF08210846FFF773FF10B104232361DF
S3150800029070BD56F8043BA361E5E74FF0FF30F7E77A
S315080002A0000003502DE9F84315464FF48032184BE9
S315080002B089469A6603F51C33DF690646174041F6F8
S315080002C07132DA63012203F58053DFF84C80DA6075
S315080002D055B9284601220F4BDA601FB10022A3F553
S315080002E00053DA63BDE8F88306F5005404EA080407
S315080002F0A41BAC4228BF2C46494622463046FFF787
S31508000300A7FF0028E6D12644A1442D1BE0E700BF3D
S31508000310009000500020035000E0FFFF000000009E
S3150800032000000000000000000000000000000000BF
S31508000330002370B5424C05468AB0E36318B10088BD
S3150800034023600BF087F90BF02FFB3E4821F0BDFA2E
S315080003503D4E3E4B304633603D4B73601EF089FB85
S31508000360002130460FF02AF933A3D3E90023A0620F
S31508000370C4E906231EF088FBD4E906231943104373
S31508000380C4E90601CDE900014FF0FF334FF0FF3213
S31508000390A06A21F041FB02224FF0FF31A06A21F04A
S315080003A040FB01200AF0DAFE4FF4007300222949C7
S315080003B0A06A21F038FCB0F5007F39D100239422D9
S315080003C0079309933C23CDE90332059396230693B5
S315080003D05023A06A03A908930FF00AFA35B3287CBC
S315080003E00BF046FB0546F0B9A06A21F011FD0BF0AB
S315080003F0CDFB0AF095FE20B14FF48070002107F07E
S315080004009DFF0AF09DFE20B14FF40060002107F021
S3150800041095FF1EF004FC012021F02BFA0E4A0F4925
S31508000420A06A1EF024FB28460AB070BDFF20D7E755
S315080004300725F8E7AFF300800DD501552000000029
S31508000440300B0020690345EC701D002095AF0008AD
S31508000450801D0020701B002017EA010857EA0108D2
S315080004600348044B834202D0034B03B11847704735
S31508000470402B0020402B002000000000064B0749B7
S31508000480C91A891048BF0131491003D0044B0BB172
S3150800049001481847704700BF402B0020402B00201A
S315080004A00000000010B5064C237843B9FFF7D8FFC3
S315080004B0044B13B10448AFF300800123237010BD29
S315080004C03A260020000000001CB2020808B5054BB9
S315080004D01BB105490548AFF30080BDE80840FFF7A2
S315080004E0CDBF00BF00000000B00D00201CB20208FE
S315080004F0A3F5803A704700BF174B002B08BF134B74
S315080005009D46FFF7F5FF00218B460F461348144A10
S31508000510121A22F060F80E4B002B00D098470D4BAC
S31508000520002B00D098470020002104000D000D483C
S31508000530002802D00C48AFF3008016F08DFA200090
S31508000540290019F0A0F816F0CDF800BF0000080041
S315080005500000000000000000C00A0020C00A0020B9
S315080005606027002000000000000000000122014B67
S315080005701A707047142B002008B519F004F919F001
S3150800058003F9034B03491868BDE808401AF05ABB3B
S31508000590840E0020A85802082DE9F04F0368AC4ADB
S315080005A023F47F4323F00703934204468DB006D015
S315080005B002F58022934271D00DB0BDE8F08FA54CAC
S315080005C000222346012144F265000EF0B1FC23788F
S315080005D0A14863B319F081F90422002011460EF0F0
S315080005E0D3FC9E4C054628B39D4920681AF02AFB81
S315080005F09C4920681AF026FB19F0C5F819F0C4F8CA
S31508000600994B9A4A00939A49782320681AF01AFB5C
S3150800061098492B46984A20681AF014FB284600F099
S3150800062031FA964920681AF00DFB00BEFDE719F06D
S3150800063057F9D1E7022101200EF0BEFC054610B39A
S31508000640874920681AF0FEFA864920681AF0FAFAED
S3150800065019F099F819F098F8834B844A009384495D
S315080006607D2320681AF0EEFA82492B46824A2068D2
S315080006701AF0E8FA284600F005FA804920681AF0C8
S31508000680E1FA00BEFDE719F07EF819F07DF87C491D
S3150800069020680DB0BDE8F04F1AF0D4BA0025877D62
S315080006A0DFF8E881DFF8089200F1170AAF4283D92C
S315080006B00AEB05035B781AF80560083B012B13D88B
S315080006C005F1020BD344721E41465846099221F0A1
S315080006D058FF002800F09E8049465846099A21F09E
S315080006E050FF002800F0AF8001362E44F5B2DDE752
S315080006F01870584B1A78002A2FD01870564819F0D7
S31508000700EFF8012144F26500524A0EF0FBFB05465C
S3150800071048B3524C524920681AF094FA5149206855
S315080007201AF090FA19F02FF819F02EF8554B4F4A8F
S3150800073000934F49B42320681AF084FA4D492B4692
S315080007404D4A20681AF07EFA284600F09BF94B4974
S3150800075020681AF077FA00BEFDE701223E481A70B3
S3150800076019F0BBF8CDE748480DF12B0124F0DAFB68
S315080007709DF82B30002B36D00025444E374F19F004
S3150800078002F819F001F8D7F8008025F010F894F966
S315080007900D3002460793A37B4046069363793C498E
S315080007A00593A3790493E3790393237A0293637AEF
S315080007B00193A37A009333461AF044FA334B9E42C8
S315080007C025D1244B334A1978334B002918BF1A46CA
S315080007D0324938681AF036FA18F0D5FF18F0D4FFFF
S315080007E02F49386855E74FF47A700BA924F008FCAE
S315080007F00028C1D1254E00252A4A2B46CDE90055A9
S315080008000B99214824F0AFFF002EB7D1D4E62A462B
S315080008102549DEE7254B1A78002A7FF469AF1A487E
S315080008200DF12B0124F07EFB9DF82B30002B7FF475
S31508000830C3AE4FF47A700BA924F0E2FB00287FF4CC
S31508000840BBAE0646D7E7E58B194E6DBAADB295E74E
S31508000850A00001003B260020685A0208840E0020EA
S315080008604A590208F4580208355A0208F958020883
S3150800087002590208115902080E5902082659020897
S31508000880375902080A5A0208C80D00200A2B002008
S315080008904C590208F0580208ED580208A1590208F6
S315080008A0E65902086D050008C6590208142B0020EF
S315080008B0002B0020064B1B681A7A022A04D812B1AC
S315080008C01B68044A13607047032AF9D0704700BFB3
S315080008D02C290020E80D002030B5214D95B00DAC2F
S315080008E00FCD0FC495E80700032384E807008DF8A9
S315080008F04D3029231B4A1C49CDE902231B4B0E22E6
S31508000900CDE9041300210DF12600069121F063FEBE
S315080009104FF48020164B07A9CDE9070309238DF864
S3150800092024300A238DF82530124B0DAA0A9320236A
S315080009300B9301238DF831300F4B1048009302AB0F
S3150800094004F09CFB04469DF832304FF4E130002B4E
S315080009500CBF0321002118F056FF204615B030BD04
S315080009604C5A020800C00550000500060009000898
S3150800097024C005503C260020EC0D0020580E00200F
S31508000980831E012B10B50C4619D801290DD8184B12
S3150800099004221B6C05210020C3F3401303F0B8F9A9
S315080009A024B1144B18680368F3B910BD114B1868C5
S315080009B00368002BF9D0BDE8104004F01DBB8B1E60
S315080009C0012B0CD80128F0D8BDE810400022084BAE
S315080009D005211B6C1046C3F3401303F099B900298F
S315080009E0E4D00129DDD0E0E7BDE810401AF048BBA5
S315080009F000C003504029002008B50449044804F003
S31508000A0077FFBDE80840FFF767BF00BF442900200D
S31508000A107C0E002001481AF0ADBB00BF580E00201E
S31508000A20014B1A6A18681047580E0020014818F03A
S31508000A3051BF00BF685A0208012208B5074B1A7051
S31508000A400022074B1A700422064B1A701F22064B07
S31508000A501A7004F04FF9054B186008BD1A2B0020D0
S31508000A605C260020192B0020182B0020840E00205D
S31508000A70024B034918681AF0E5B800BF840E002037
S31508000A80805A020870B50C4C0C49064620681AF0C4
S31508000A90D9F804F02FF90546206804F01FF9304606
S31508000AA0FFF7E6FF284604F019F920680449BDE86F
S31508000AB070401AF0C7B800BF840E0020825A020898
S31508000AC0845A020808B503481AF064F8BDE80840D5
S31508000AD018F002BE3C6D020801481AF05BB800BF68
S31508000AE03C6D020807B5082018F0B1FE02238DF800
S31508000AF00030054B6846019318F049FE082003B0FC
S31508000B005DF804EB18F0AEBE006A18100348044AF4
S31508000B100449121A921018F086BE00BF7001000828
S31508000B20300300086027002008B500F02FF8FFF70B
S31508000B30EDFF124B12498B4212D30020114B12497A
S31508000B408B4218D3FFF7D8FC186850F8224058682B
S31508000B5040F82240013298688242F5D30C33EAE71E
S31508000B600022F8E71C6844F8220001325C68A242B9
S31508000B70F8D30833E4E70022F8E700BF24B20208F6
S31508000B8030B2020830B2020830B202084FF480418F
S31508000B90124B134A70B59A60D3F88820114D42F467
S31508000BA07002C3F88820104A05F5005491664FF084
S31508000BB0FF3222660D4A62660222C3F8D020BFF3CE
S31508000BC04F8FBFF36F8F4FF44036002004F078F84C
S31508000BD00020E66004F058F82E6170BD00ED00E0D4
S31508000BE0000000080080004400900050F7FF37001E
S31508000BF0014B1860704700BF50290020054B18604C
S31508000C00054B1B6F03F00703032B01D123F0E8B94B
S31508000C10704700BF5829002000800050002307B500
S31508000C202948019319F0B6FF4FF4407301220421B5
S31508000C306846ADF8003000F0C3F80122234B0520C2
S31508000C40C3F8442401A924F003FD002839D1204B18
S31508000C50D3F8F02042F00102C3F8F020D3F8FC20C4
S31508000C6042F08072C3F8FC201A4AA3F55D431A6065
S31508000C70019B194A03F5D52303F2FC43B3FBF2F3B0
S31508000C80164A013B13610223C2F8F0304FF4807311
S31508000C90C2F804334FF06043114AC3F8B02F114A23
S31508000CA0C3F8802ED3F8002E42F48072C3F8002EC3
S31508000CB0FF2283F82020D3F8002E22F48072C3F88E
S31508000CC0002E03B05DF804FB3C6D020800D003500B
S31508000CD000ED00E0FF030040F8590D00000004E0B5
S31508000CE055CEACC5090001004FF06043D3F8802EFD
S31508000CF030B5D20715D501240B4D8440D5F8FC2014
S31508000D0042F08072C5F8FC20D3F8002E2243C3F8BF
S31508000D10002E53F82020002AF0D003F820100020D7
S31508000D2030BD1120FCE700BF00ED00E02DE9F041E1
S31508000D3004460C254FF00108124E0CB314F00100BE
S31508000D400BD0002024F0010405FB00625768002F31
S31508000D50F3D09168C0B2B847EFE7224601302028A1
S31508000D604FEA520201D0D307F8D508FA00F20F2845
S31508000D7024EA0204E8D9103805FB0062B432E5E734
S31508000D80BDE8F081880E002008B50C4819F002FF6E
S31508000D90192003F087FF28B1192003F091FF1920C5
S31508000DA003F072FF1A2003F07DFF28B11A2003F022
S31508000DB087FF1A2003F068FF002008BD3C6D020873
S31508000DC02DE9F0410E469046054618B30F2923D85B
S31508000DD00378E3B1012B03D0022B18D0032B1BD1C8
S31508000DE03F236A78D340DB0716D50D4BD3F810435B
S31508000DF0A4B924F00BFB074642462846314603F0C1
S31508000E00DDF9384624F0FDFA2046BDE8F08140F2C7
S31508000E10FF33E6E72224F7E72124F5E70224F3E780
S31508000E2000C0035010B50446E8B10378C3B1012BDE
S31508000E3003D0022B14D0032B17D13F236278D3405B
S31508000E40DB0712D524F0E2FA0122637821789A406A
S31508000E5030235943064B5A5024F0D3FA002010BDCC
S31508000E6040F2FF33EAE72220F9E72120F7E700BF3F
S31508000E7040D0035010B50446E8B10378C3B1012B3E
S31508000E8003D0022B14D0032B17D13F236278D3400B
S31508000E90DB0712D524F0BAFA0122637821789A4042
S31508000EA030235943064B5A5024F0ABFA002010BDA4
S31508000EB040F2FF33EAE72220F9E72120F7E700BFEF
S31508000EC040E0035008B503F06FF9054B00F05530C4
S31508000ED020F05020C3F82004BDE80840FFF726BFDD
S31508000EE000E0035008B503F05FF9054B00F0AA309F
S31508000EF020F0A020C3F82004BDE80840FFF716BF7D
S31508000F0000E0035013B504460A4819F043FEA278D8
S31508000F100421B2FA82F2237852098DF804306378F4
S31508000F200DEB01008DF80530FFF74AFF002002B0EF
S31508000F3010BD00BF3C6D02082DE9F04F9A46564B8E
S31508000F4085B01B7806460F461546DDF83C909DF899
S31508000F5044B0DDF85080002B00F09780072A00F295
S31508000F6096800E9B002B00F09280B9F1000F00F0DE
S31508000F708E80129BB3F5006F00F38980012803D198
S31508000F80109B002B00F08380444B03EB05131B7B5F
S31508000F90002B7ED0424C10220021684621F01BFB14
S31508000FA004EB45141022A7BB3946204621F013FB53
S31508000FB043F210036380BBF1000F03D1E37843F0DB
S31508000FC00303E370364A0E9B02EB451CCCE90193FA
S31508000FD0129B6901581E9DF84C30C0F30A0003F0B5
S31508000FE003039B0643EA001E53582E48012E00EAC7
S31508000FF003004EEA0003CDF800A0535017D0B8F10D
S31508001000000F2ED19CF8023068F304138CF80230D6
S3150800101027E00021204621F0DEFA4FF4447363806E
S31508001020BBF1000FCED1E37843F03003C9E71323B1
S315080010300CF1100ECCF80C309CE80F008EE80F006F
S315080010406FF00301DCF81C20109B61F39F02012F4F
S31508001050CCF81C20CCF8143003D1CCF81890CCF876
S31508001060043000270D4A290102EB051342F80180D6
S31508001070159A28465A60694622469F605E7302F0B2
S31508001080DBFE384605B0BDE8F08F0748FAE70748A3
S31508001090F8E70748F6E700BF5D260020F0100020B5
S315080010A0F00F00200F80FFF3028000F0018000F0AF
S315080010B0078000F038B5124B05461B78DBB1E0B166
S315080010C024F0A4F90F4A00231146147B54B92B6067
S315080010D001251A0101EB03131D738C5024F091F9B5
S315080010E0204638BD0133082B02F11002EDD124F059
S315080010F088F90548F5E70548F3E70548F1E700BF2D
S315080011005D260020F0100020048000F0028000F028
S31508001110018000F038B524F079F9002305460B4A1A
S31508001120147B6CB90133082B02F11002F8D102F0D6
S315080011302FFE074B28461C7024F063F9204603E06F
S31508001140284624F05EF9034838BD00BFF010002099
S315080011505D260020058000F00D4B10B51B7804466F
S3150800116093B1072812D824F051F90A4B03EB04135C
S315080011701A7B2AB100241C7324F043F9204610BDBB
S3150800118024F03FF90448FAE70448F8E70448F6E784
S315080011905D260020F0100020068000F0028000F096
S315080011A0018000F0154B13B51868002301908DF8DF
S315080011B0043024F02BF9124B1C7824B124F021F9C1
S315080011C0104802B010BD01221A7024F01AF90E4B0D
S315080011D001A81C731C7783F82C4083F83C4083F8DD
S315080011E04C4083F85C4083F86C4083F87C400823C5
S315080011F08DF8073002F0F0FD2046E2E7875A02082C
S315080012005D260020038000F0F0100020F8B50D4D93
S315080012102D7885B1072810DC0B4D060105EB001467
S31508001220277B67B1AB510025069BA560636002F07A
S3150800123003FE2846F8BD0548FCE70548FAE70548D1
S31508001240F8E700BF5D260020F0100020028000F0BD
S31508001250018000F0078000F00A4A08B512785AB1F2
S3150800126007280BD8084A02EB00131B7B43B1002161
S3150800127002F0A4FD002008BD0448FCE70448FAE78C
S315080012800448F8E75D260020F0100020028000F0F0
S31508001290018000F0078000F00A4A08B512785AB1B2
S315080012A007280BD8084A02EB00131B7B43B1012120
S315080012B002F084FD002008BD0448FCE70448FAE76C
S315080012C00448F8E75D260020F0100020028000F0B0
S315080012D0018000F0078000F0184B2DE9F0411F6DE2
S315080012E05B6D1F4000D5FEE701260025144CDFF88C
S315080012F05880374218D02368C8F85060A3B1A1684F
S31508001300284601316268A1609847637B012B0BD19F
S3150800131050B90C4B03EB45131A7B60F341021A7361
S315080013201A7F60F341021A770135082D4FEA4606FF
S3150800133004F11004DDD1BDE8F08100BF00000450BF
S31508001340F0100020F00F0020002004502DE9F04F87
S31508001350144606460D469B46C36B87B001225B6959
S3150800136002A960689847F36B01225B6903A92846BE
S31508001370984702A818F0DFFE074648B10023A37570
S3150800138063754FF0FF33A360002007B0BDE8F08F08
S3150800139003A818F0DDFE0123A375237E04EBC3031F
S315080013A0DD611F846368AB420ED1206003A818F084
S315080013B0F1FE4FF0FF332075A360237D043B022B1B
S315080013C026D80023A375DFE723681A1A5342534128
S315080013D0A37503A818F0DEFE237D834218BFA77500
S315080013E003A818F0B9FE074602A818F0B5FE87420A
S315080013F018BF002303A818BFA37518F0B5FE074643
S3150800140002A818F0B1FE87421CBF0023A375D4E7D3
S3150800141003A818F0A1FE80B1F36B022228465B6987
S3150800142004A9984704A818F0A6FE0346207D0328B9
S3150800143039D8DFE800F03838040903A8F3E7CC22E6
S31508001440237E04EBC3031A8401F0B6F9109B1870C7
S3150800145003A8277E18F074FE04EBC70787F8220056
S31508001460237E03A804EBC303B3F8209093F82270F5
S3150800147018F072FE804603A818F076FE8246B8F188
S31508001480000F15D0F36B022228465B6904A998471A
S3150800149004A818F035FE6075637D6BB90023A37543
S315080014A04FF0000838E0227E04EBC2021384CBE733
S315080014B003A818F010FEEEE794F81680B8F1000FAE
S315080014C0EED0B9F1000F09D1DFB10123627EE375D1
S315080014D0002A44D19F4218D1677614E0736C05EB55
S315080014E00A02594285EA020008421CBF0021A1757A
S315080014F0591E0A409B1A9945D0D8A37D002BE3D1E3
S31508001500CEE7E37D43B94FF000084B4652462946DD
S31508001510304618F07BFBA060A27D12B123694B44CC
S3150800152023611449237E097899421ED9013323760B
S31508001530BBF1000F1BD0D2B1E37DC3B1B8F1000FE8
S3150800154015D1032F13D0A1684B1C10D0109B22462F
S31508001550009330460123FFF7F9FEA07507E0012F37
S31508001560DAD0032F08BFA376CDE70023A375A07DA5
S315080015700BE700BFAC5A02082DE9F04F0E46984615
S3150800158000238BB004464FF0FF31104617468DF8FE
S31508001590133001F0FBF8B6F5801F3BD3B21C53D1CC
S315080015A0E56A6B1C57D12046616A18F075FA05463C
S315080015B0B31C18BF0123DFF810910193636A626CAC
S315080015C00293236805A902FB053AE36B05225B69CA
S315080015D05046984705A818F049FE18F06CFE504684
S315080015E018F074FE4FF0000B824601464B1C05D0DE
S315080015F0636C81EA0A025B42134232D029462046CE
S3150800160018F04AFA029BAB424DD0BBF1000F4DD100
S315080016100546D3E7314605AA04F1080018F0D9FCB7
S315080016200146481C10D0384601F0B0F80122394668
S3150800163020460DF1130318F03BFB28B19DF8133033
S3150800164088F80030002003E0237C002BA8D12D2049
S315080016500BB0BDE8F08F2368ED1A636CB5FBF3F5A4
S31508001660A6E7484601F092F80DF1130349462046CD
S31508001670019A18F01DFB034690B1B21C03D0D9F8A5
S315080016800020B2420CD19DF8132003930D4B88F825
S31508001690002049461A68384620F0A8FF039B9B4657
S315080016A0D9F80810A2E7BBF1000FD0D0B6F5801F15
S315080016B0C8D2314698F800307A6804F1080000F07C
S315080016C093FFBFE7A85A0208E41700202DE9F34163
S315080016D00446174698460E46194D816AE36A8B42B8
S315080016E02AD04B1C18E0284601F050F8012229465A
S315080016F020460DF1070318F0DBFA30B143462946B8
S3150800170020469DF80720B847B0B1A9684A1C05D0FD
S31508001710012E0AD0E36A9942E5D10DE069682046B0
S3150800172018F047FA012E0146D8D16B6881EA030200
S31508001730636C5B421A42D1D002B0BDE8F08100BFAB
S31508001740B81700202DE9F041036B9046826B0768B5
S315080017509A4288BF8363426C436A90B002FB037760
S31508001760C36B0E46052201A95B69044638469847AD
S3150800177001A818F07BFD01280146307057D0656C2A
S31508001780E26B2368606AD2F814C005FB00300522B4
S3150800179006A9E04706A818F069FD01284FF00005DC
S315080017A023D0D4E90A3201219342CDE90B458DF8BD
S315080017B034800E958DF83C102AD11946204618F02B
S315080017C0F8F9236B626C14339B1AE06223630C9B53
S315080017D053B99DF83C303BB1626A616C2368E06B93
S315080017E001FB023118F0FAFC0C9DE36B05225B69DC
S315080017F001A93846984701A818F038FD30702846E0
S31508001800236BA26B9A4288BFA36310B0BDE8F08130
S31508001810237C33B91C490BAA04F1080000F032FFF7
S31508001820D5E72046194A0BABFFF750FFCFE7237CD5
S3150800183023BB2246164904F1080000F023FF616A1B
S31508001840204618F04AF9616A421C204618F013F936
S31508001850054620B9236B626C1344143B2363204668
S31508001860A16A18F0A6F92368A062C01A636CB0FBD7
S31508001870F3F06062204618F0DFF9B6E70023204649
S31508001880044AFFF723FFDAE7751F0008F11E000870
S31508001890039D0108D59C01082DE9F04F9A468BB0A7
S315080018A09DF85030DFF850B10293DBF810308046CF
S315080018B053450D461646C0F09980D146DBF80430EC
S315080018C00193B9F1000F00F08D80D8F83C30012261
S315080018D05B6907A90198984707A818F039FCDBF84F
S315080018E00030984240F0858007A818F03DFC04288F
S315080018F0074614D107A818F03EFC019B029A044635
S315080019003B44002A3FD1864212D91446361A40462D
S31508001910019918F04EF9A9EB04090190D1E7D8F816
S315080019203C3002225B69019808A9984708A8E2E7B3
S31508001930841B544528BF5446032C03EB0607AAEB21
S31508001940040A4FEA94021CD9D8F83C30294638468E
S315080019505B69984724F0030304F003061F441D44FB
S31508001960002ED4D0D8F83C3001225B6908A9384645
S3150800197098473246284608A9354420F037FE0026FF
S31508001980C5E72646ECE7074600F003020392034440
S315080019902A1804920593049BDD1B059BD81B039B01
S315080019A09F420FD1002FB2D0D8F83C30012208A9A7
S315080019B05B6998473A46284608A920F0E2FD78B9B7
S315080019C03D44A4E7D8F83C30012208A95B6998474A
S315080019D00422284608A920F0D4FD08B9043FDAE70E
S315080019E04FF0360948460BB0BDE8F08F4FF0630953
S315080019F0F8E74FF06F09F5E73C1800202DE9F04F9E
S31508001A0099B00F4609920A69416C0E931439D31D91
S31508001A10B3FBF1F3013302EBC302036B04469342B3
S31508001A20C0F00D820023DFF820940D93E36A484640
S31508001A301946079300F0AAFED7E9033604930E9BCE
S31508001A40022B4ED1CC2E40F08A81099B002B42D026
S31508001A503946204618F0C1F9656C079A6B1E134083
S31508001A601490ED1AE36B01225B6916A9786898470A
S31508001A7016A818F071FB00280CBF04230823782E3B
S31508001A8006933DD9012300254FF0080A05933B68C4
S31508001A9005990E98C9F80030C9F8106018F07EFB51
S31508001AA04FEA9A0310930023DDF81CB089F8140056
S31508001AB00B930F9308930C93616C4A1E0BEA020270
S31508001AC08B1A002E38D05544AB4240D8236B5B1A8C
S31508001AD013442363ABE0049B1B6814930823069303
S31508001AE0D0E7656C079A6B1E1340782EA5EB0305A5
S31508001AF016D8FB7D7BB9099B002BB3D1042306932B
S31508001B00331DAB4210D9A6B1082DBBD80425002336
S31508001B10AA460593BBE7099B002BA3D10823EEE74A
S31508001B20099B002B9ED1D9E7002505954FF0040A9D
S31508001B30ADE704250596F9E75345C7D3B0460BEB41
S31508001B400A030393089B002B18BF032313E0A3EB98
S31508001B500A039E42B0460BEB0A0228BF98469E42ED
S31508001B600392EFD90123D9F8102089F81730964245
S31508001B7071D1C9F804B0089399F81730002B6CD0C6
S31508001B8099F818200899D31C09EBC3030132C3F846
S31508001B9004B0A3F80880997289F81820B8F1000FE4
S31508001BA014D00E9B022B5BD10B9B7BB90F9B434436
S31508001BB0032B0BD9E36B01229B69039814A9984759
S31508001BC00546002840F03D8101230B93089B16A883
S31508001BD00193059B009399F814204346396800F051
S31508001BE08BFDE36B58469B69109A16A99847051E04
S31508001BF00D9B18BF5B4652460D93594643462046F1
S31508001C0018F004F8236B08F10302A3EB0A0322F089
S31508001C1003029B1AC9F808002363002D40F01181BE
S31508001C200F9BDDF80CB04344A6EB08060F93594604
S31508001C30204617F0BEFF00258346002E7FF43CAFF2
S31508001C40814A3968936804F10800E36252680E9B7A
S31508001C5000F0CAFCDEE002238DE7C9F804B09DE770
S31508001C60099B002B30D1049BB8F1030F43440A9318
S31508001C7027D9DDE90301E36B4FEA98029B69984788
S31508001C800546002865D118F003025FD0049B28F0AA
S31508001C9003052B440493039B1D444FF0FF3304991B
S31508001CA015A8159320F0A2FCE36B28469B69012230
S31508001CB015A9984705460A9B0493002D86D0039BD1
S31508001CC099E74246039DE8E7039B0A9307F1200339
S31508001CD01193FB7D78689BB100233D7E0C9AD9B29F
S31508001CE08D4211D9119903F1010C31F83310914243
S31508001CF026D9069907EBC303D8690A44104403E0BA
S31508001D000C9B069A13441844E36B01225B6915A9D8
S31508001D109847159B012213930C9B0A9804330C933E
S31508001D20E36B13A99B699847039B0A9A43449B1A3A
S31508001D30042B054607D978B9134604330A93C8E72E
S31508001D406346521ACBE70A9B0393B6E70A9B0493AA
S31508001D503CE70A9B0493B2E70A9B0393AFE7702616
S31508001D6004F1080303932368079A606CA2EB030A3D
S31508001D70BAFBF0FA00FB0A3018F0A8FAE16A8046C6
S31508001D80204617F016FFA26A82424AD0626CD9F83A
S31508001D900830511E0B40216B2568891A0B442363B2
S31508001DA00D9BE0625D1BB5FBF2F5AA4536D1079B94
S31508001DB0B3EB080A12D0E36B4FEA9A0241469B69D5
S31508001DC098478346E36A079A5344E362236B03986A
S31508001DD09B1A4344236318F0CDF8DA462368616CEE
S31508001DE0E06B01FB053118F0E6F9204617F024FEF2
S31508001DF0204617F021FF2063BAF1000F11D03A6987
S31508001E00616CD31D1439B3FBF1F3013302EBC30242
S31508001E109042A8D2304619B0BDE8F08F4FF0000ABC
S31508001E20DCE73A69616CD31D1439B3FBF1F301336E
S31508001E3002EBC302236B9342BFF4F8ADEAE71C2614
S31508001E40E8E72E468CE700BFE41700202DE9F347A4
S31508001E501E4643690446B342884617469DF82890AD
S31508001E603DD300258DF80750204617F0B1FDD4F86C
S31508001E7030A082450AD2236AB5EB430F06D2002268
S31508001E8020460DF10701FFF75DFC30B39DF80730DA
S31508001E90012B05D1002220460DF10701FFF752FC60
S31508001EA0B9F1030F06D03146204617F07CFD256BA5
S31508001EB0854218D30D4D4FF0FF31284600F066FCD9
S31508001EC04B46002229462046C5E90376C5F8008018
S31508001ED002B0BDE8F047FFF791BD0135C4E76220BF
S31508001EE002B0BDE8F0871C20FAE700BF10180020F2
S31508001EF0032A2DE9F34106460D4617461C4606D128
S31508001F00237A012B23D0012002B0BDE8F081DFF847
S31508001F106080096842460DF10703FFF72DFB6060F4
S31508001F200028EDD19DF80720237A032AE8D0D8F8AF
S31508001F3004106A689142E3D1012B2969D4F80CC0D0
S31508001F4007D172690CEB0103934202D92074207CF5
S31508001F50DAE708316144E1603B460122294630460A
S31508001F60FFF74CFD60600028CAD00020CCE700BF10
S31508001F70101800202DE9F341089C032A1746266805
S31508001F8006D1237A012B24D0012002B0BDE8F081C6
S31508001F90DFF89080304642460DF10703FFF7ECFA6A
S31508001FA060600028EDD12568D8F80400A96AD5F83C
S31508001FB044C04840CCF100031840227AE1D1012AF6
S31508001FC009D1E268D8F8103013447269934202D9ED
S31508001FD02074207CD9E72868EB6A1B1A081AB3FB19
S31508001FE0FCF3B0FBFCF083420BD1706CF36A421E23
S31508001FF01340326B121A13442846336317F0D9FD7F
S31508002000E862D8F81020E36808321344E360012236
S315080020103B4604492068FFF7F1FC60600028B0D011
S315080020200020B2E7101800202DE9F04F4FF0FF33DB
S315080020304FF6FF720025044600F10806C0E9092399
S315080020408BB0C3620562056330460F4617F092FFF0
S31508002050204617F0F1FC20BB2046394617F06CFDE8
S31508002060204617F0E9FC20BB5E200BB0BDE8F08FD8
S31508002070E26B2368606CD2F814C000FB05300522B9
S3150800208005A9E04705A818F0F1F8012828D129463E
S31508002090204617F022FD421C2946204617F0EBFC85
S315080020A00135E3699D42E3D3204617F0C5FC0028B5
S315080020B0D2D000254FF0FF394FF6FF73CA46A8461F
S315080020C0C4E90853E369984514D3A5EB0905012D1E
S315080020D036D84FF6FF72636A934246D16720C4E743
S315080020E018F0EEF80028DBD02946204617F0F5FC54
S315080020F00246D1E72368E26B606C576900FB08303B
S31508002100052205A9B84705A818F0B0F8834605A81A
S3150800211018F083F80746584618F0CDF868B15745C1
S3150800212038BFC4F82480B94528BFB946BD4238BF70
S315080021303D46BA46236A0133236208F10108C1E71E
S315080021404FF6FF7300256362E3699D42C1D2676C4F
S315080021502068E36B052207FB05005B6905A998471C
S3150800216005A818F05AF80135EEE7E26B676C2068A7
S31508002170694607FB030055690522A847684618F013
S315080021804CF8626A2368606C504D00FB023018F008
S315080021909DF84FF0FF33A062E3622A466FF0010113
S315080021A0204605ABFFF7E8F900284FD1AD68294668
S315080021B02046E56217F01CFC206320B92046E16A38
S315080021C017F0F7FCE0622946204617F0F2FC0546B0
S315080021D0A36A9D423CD16569626CE91C143AB1FB5D
S315080021E0F2F14FF0000805EBC1050335B5FBF2F532
S315080021F0C1460235E36999453CD3A8455AD22046DB
S31508002200616A17F049FC0027064604F1400AB845FA
S3150800221012D8626C2368694602FB0639E36B05220D
S315080022205B6948469847684617F0F7FF53460246E3
S315080022304946E06B18F04CF83146204617F02CFC5E
S315080022400137AF420646E2D364200EE7A56AAEE739
S315080022502946204617F0CCFB236B2946034407463C
S315080022602363204617F0A5FC0546002FB0D1C4E924
S315080022700B07ADE7636C2768052203FB0977E36B59
S3150800228005A95B693846984705A817F0EFFF18F0C7
S3150800229012F860B1384618F019F80146204617F0CA
S315080022A0A7FB636C143B984208BF08F1010809F1C3
S315080022B001099FE7304617F05DFE002320461946C0
S315080022C0034AFFF703FA0020CFE600BF10180020E4
S315080022D09F9C01080023624A2DE9F04117680E46C3
S315080022E00446136018B921252846BDE8F08190F800
S315080022F034500DB309680268914240F0A9807168AC
S315080023004268914240F0A480B1688268914240F0E8
S315080023109F80F168C268914240F09A8031694269AB
S31508002320914240F09580B169C26B914240F090802D
S3150800233072691D468261D7E750222946D0F838804F
S3150800234020F049F9D6E90212336804F1080023603F
S315080023507368C4F838806360336963617369A3611D
S3150800236017F01AFEB36904F14000E3639B689847C7
S3150800237094F8432020B1E561002AB4D05B25B3E781
S31508002380656C002DF7D06668B6FBF5F3E361002AA5
S31508002390A9D0B542F2D82268B2FBF5F105FB1122A5
S315080023A0002A57D105FB1363002B53D1204617F09B
S315080023B00FFBA369043303449E424DD340F634729F
S315080023C06369CC3B934249D8B5F5805FD6D30321E0
S315080023D0204617F026FBD4E90001E36B1B689847F3
S315080023E00546E36B0220DB6898471DB1002384F895
S315080023F034301DE039462046FFF716FE64280546A8
S3150800240004D139462046FFF70FFE0546636C143B98
S31508002410002DEBD1226A204602FB03F617F0D8FA04
S31508002420A369043303449E4206D284F834505A25DD
S31508002430E06B17F074FC57E70123D4E90001094A59
S3150800244084F8343013680133136017F03FFEEFE762
S315080024505D2549E7592547E75A2545E75F2543E7B7
S3150800246074110020701100202DE9FF410F46904697
S315080024701E46054698B390F8343093B3B1F5801FDD
S3150800248031D21A4C022117F0CCFA22463946284690
S315080024900DF10F03FFF770F8024678B101234246A3
S315080024A00093394633462846FFF7D0FC0446E86BC6
S315080024B017F035FC204604B0BDE8F0819DF80F30D2
S315080024C0012BEBD12169B142E8D10093414633464D
S315080024D02846FFF7E1F904460028DFD1E7E721247B
S315080024E0E8E71124E6E72924E4E700BF3C180020C2
S315080024F02DE9FF410C4616461F46054680B390F85F
S3150800250034307BB3B1F5801F2ED2DFF8608001210D
S3150800251017F087FA2146424628460DF10F03FFF7C2
S315080025202BF8044670B99DF80F30012B11D1D8F855
S315080025301030BB4212D10246009031462846FFF7BA
S31508002540ABF90446E86B17F0EAFB204604B0BDE891
S31508002550F081022B14BF2D246024F3E76324F1E7EE
S315080025602124F2E71124F0E72924EEE73C1800209D
S315080025702DE9F3411F4600230C46164605463B60E7
S3150800258050B390F834304BB3B1F5801F28D2DFF83A
S315080025905480012117F045FA2146424628460DF196
S315080025A00703FEF7E9FF0446A0B99DF80730032B99
S315080025B010D0022B0AD10123336004233B60E86B59
S315080025C017F0ADFB204602B0BDE8F081D8F8103010
S315080025D03060F3E72D24F2E72124F3E71124F1E72D
S315080025E02924EFE73C1800202DE9F043466886B316
S315080025F0056898464FF0000CA946AE4655F83C408B
S315080026000CF1010CC4F31307013401D0B94217D0F9
S3150800261066450EF1080EF1D12F46002403E0A642C6
S3150800262007F1080712D055F8343001340133F6D1D2
S31508002630C1F3130141EA0851C7E90012BDE8F08366
S3150800264041EA0851CEE90012BDE8F083B8F1030F5C
S3150800265003D101230372BDE8F083002303E09E4201
S3150800266009F10809F5D055F833400133C4F3075486
S31508002670032CF4D1C1F3130343EA0853C9E9003222
S31508002680BDE8F0832DE9F0410646406882B0C0B146
S315080026900F4690460024336853F8345003EBC403BE
S315080026A0C5F30752C5F31301013504F1010406D039
S315080026B05B683046CDF80080B84710B17068844230
S315080026C0E9D302B0BDE8F081024B1968024B1868DD
S315080026D0FFF700BE5C2900207C29002008B522F0FF
S315080026E08CFE014B186008BD68180020014B18685D
S315080026F022F07EBE6818002073B504462248012AD7
S3150800270000EAC1119DF8185023F07C4007D9961E9F
S31508002710012E28D9073303F07F03194308E09DF8F3
S315080027201C300A43DB0603F0C053134343F06041F1
S315080027300023C4E900108DF80730B5B120222146E0
S315080027400DF1070017F0DEFD1A220DF10700211D15
S3150800275017F0D8FD082063689DF8072043EA8263CE
S31508002760636002B070BD1143E2E71B220DF107005A
S31508002770214617F0C7FD23689DF80720042043EA81
S31508002780C2632360EDE700BF80FFFF0738B5094B3A
S315080027900D461A68002104461FF01DFF00234FF05E
S315080027A0FF322383C4E900252361A260E382A3766E
S315080027B038BD00BFA85A02080138C0B205289ABF1A
S315080027C0014B185C01207047AD5A02082DE9F0410B
S315080027D00746154600240E46596888B0490A012955
S315080027E022464FEA510104F10104F8D8DC789978B9
S315080027F024031B88C90201F4006104F480540C43C5
S31508002800C3F30A035203234492B24FF000089C18FC
S31508002810274B6FEA0444039325F07843ED4302A956
S315080028200DF107001B2202938DF8078017F06AFD49
S315080028309DF80720029B02A943EAC2630DF107002F
S315080028401B2225F07845049302958DF8078017F02A
S3150800285059FD9DF80720029B6FEA144443EAC263B8
S3150800286005934FF0FF330794069307A9BB69012226
S3150800287006F110009847BB6905A90446012206F12E
S3150800288008009847BB69404518BF044604A90122B9
S31508002890301D98470122404518BF0446BB6930469B
S315080028A003A99847404508BF204608B0BDE8F0810F
S315080028B001009AB2044BD3F88420D206FBD4D3F88D
S315080028C08400C0F3811070470040005038B5174B9C
S315080028D00546D3F828310C4603F00703013B052BC0
S315080028E020D8DFE803F003131B0F0B1721F052FB68
S315080028F0052305B1286004B1236038BD21F04AFBE1
S315080029000623F6E721F090FB0723F2E721F082FB86
S315080029100323EEE721F07EFB0423EAE721F076FBAA
S315080029200223E6E700231846E3E700BF00800050CD
S31508002930002337B50193164B0546D3F820320C46CB
S3150800294003F00703042B21D8DFE803F0030B111665
S315080029501B0001230DB1019A2A6004B1236003B05C
S3150800296030BD002101A8FFF7B1FF1223F2E721F0DD
S315080029705BFB07230190EDE722F034FD0A23019063
S31508002980E8E721F099FB09230190E3E70023E1E753
S315080029900080005038B5104B0546D3F880300C46F9
S315080029A003F00303022B0BD0032B0DD0012B0FD101
S315080029B021F0F6FA0E2305B1286004B1236038BD6C
S315080029C021F032FB0723F6E721F0E4FA0623F2E7C3
S315080029D000231846EFE700BF0080005038B5104BBB
S315080029E00546D3F800310C4603F00303022B0BD03F
S315080029F0032B0DD0012B0FD121F00CFB032305B1BE
S31508002A00286004B1236038BD21F056FB0923F6E798
S31508002A1021F006FB0823F2E701230020EFE700BFB9
S31508002A200080005038B5184B0546D3F820010C46EF
S31508002A3000F00700062823D8DFE800F0040A0E167F
S31508002A40121A1E00012305B1286004B1236038BD9F
S31508002A5021F0A0FA0523F6E721F0DCFA0323F2E7D2
S31508002A6021F0E2FA0723EEE721F0D0FA0223EAE79B
S31508002A7021F090FA0623E6E721F0CCFA0423E2E7F0
S31508002A8000231846DFE700BF0080005038B5104B1A
S31508002A900546D3F840310C4603F00303022B0BD04E
S31508002AA0032B0DD0012B0FD122F09CFC0A2305B174
S31508002AB0286004B1236038BD21F0FEFA0923F6E741
S31508002AC022F093FC0C23F2E701230020EFE700BF76
S31508002AD000800050002337B50193164B0546D3F8FE
S31508002AE060320C4603F00703013B032B1FD8DFE8CF
S31508002AF003F0020E1914002101A8FFF793FF102313
S31508002B000DB1019A2A6004B1236003B030BD0021DB
S31508002B1001A8FFF7BBFF1123F2E721F085FA072387
S31508002B200190EDE721F072FA02230190E8E700230D
S31508002B30E6E700BF00800050002337B50193164B27
S31508002B400546D3F894320C4603F00703013B032BE2
S31508002B501FD8DFE803F0020E1914002101A8FFF7B9
S31508002B6061FF10230DB1019A2A6004B1236003B0F6
S31508002B7030BD002101A8FFF789FF1123F2E721F0F4
S31508002B8053FA07230190EDE721F040FA022301905A
S31508002B90E8E70023E6E700BF0080005038B5104B91
S31508002BA00546D3F860310C4603F00303022B0BD01D
S31508002BB0032B0DD0012B0FD122F014FC0A2305B1EB
S31508002BC0286004B1236038BD21F076FA0923F6E7B8
S31508002BD022F00BFC0C23F2E701230020EFE700BFED
S31508002BE0008000502E4B98424AD022D82D4B98424E
S31508002BF040D014D82C4B984239D00AD82B4B98423F
S31508002C0032D02B4B98422FD02A4B98422CD00020FA
S31508002C107047294B9842FAD1284B186F7047284BB2
S31508002C2098422AD0274B9842F1D1244BD3F88000FA
S31508002C307047254B98422BD009D8244B984223D06D
S31508002C40234B9842E3D11D4BD3F88C007047214B98
S31508002C50984221D003F5740303F510539842D6D150
S31508002C60164BD3F898007047144B986D7047134B62
S31508002C70586E7047114B586F7047104B986F7047D6
S31508002C800E4BD3F8840070470C4BD3F88800704776
S31508002C900A4BD3F890007047084BD3F89400704756
S31508002CA00048E8010024F400C0CF6A0080841E00B2
S31508002CB000093D0040420F00405DC6000080E00F5D
S31508002CC0C0EA210180BA8C01007E560380D54302F2
S31508002CD0006CDC020090D00373B50D460021114B41
S31508002CE00191D3F88041064604F00304022C13D060
S31508002CF0032C0CD0012C13D101A8FFF793FE102446
S31508002D000EB1019B336005B12C6002B070BD21F095
S31508002D108BF907240190F3E721F078F90190EFE7A2
S31508002D200C46EDE70080005038B5104B0546D3F841
S31508002D3040320C4603F00303022B0BD0032B0DD0B5
S31508002D40012B0FD122F04EFB0A2305B1286004B1EE
S31508002D50236038BD21F0B0F90923F6E722F045FBD8
S31508002D600C23F2E701230020EFE700BF00800050A4
S31508002D7038B5144B0546D3F800020C4600F0070098
S31508002D8004281BD8DFE800F003090D1115000123FC
S31508002D9005B1286004B1236038BD22F023FB0A235D
S31508002DA0F6E721F089F90923F2E722F01EFB0C2346
S31508002DB0EEE721F015F90F23800AE9E70023184604
S31508002DC0E6E700BF0080005038B5144B0546D3F837
S31508002DD008020C4600F0070004281BD8DFE800F0BC
S31508002DE003090D111500012305B1286004B12360FC
S31508002DF038BD22F0F7FA0A23F6E721F05DF9092330
S31508002E00F2E722F0F2FA0C23EEE721F0E9F80F23B5
S31508002E10800AE9E700231846E6E700BF008000506D
S31508002E20B0F5207F1FD009D8B0F5007F15D003D89C
S31508002E3068B1B0F5C07F0AD000200CE0B0F5607F1D
S31508002E40FAD10B4BD3F88000C0F3011003E0084B0E
S31508002E50186FC0F3033001307047054BD3F8900064
S31508002E60C0F30460F7E7024B186FC0F38020F2E75F
S31508002E700080005002464FF48030104B10B598661B
S31508002E800020FFF7CDFF504341F671320C4BDC6949
S31508002E90DA635A6804F4803422F4401259B90949AD
S31508002EA0884294BF00200120000502435A600CB1F5
S31508002EB00022DA6310BD0449F2E700BF0090005013
S31508002EC000000350005A6202002D3101430905D063
S31508002ED0012B0CD0022B084B18BF002300F01F0053
S31508002EE039B103F58053012282401A607047034BBB
S31508002EF0F4E703F50053F6E7688000506480005055
S31508002F001FB50021B0F5807F0446CDE9001100F019
S31508002F10D2803AD85E2833D85E2833D8DFE800F066
S31508002F204532323232323232323232323232323260
S31508002F303232323232323232323232323232323263
S31508002F4045AC45ACBCBCBCBCBCACC64E6BDC4EACE4
S31508002F50ACAC3232323232323232ACACAC7EE6AC67
S31508002F6032323232323232323232323232BC454583
S31508002F7045E14E4EEB8D63C132323232329E450008
S31508002F80802870D0009804B010BDB0F5D06F00F05E
S31508002F90A38035D8B0F5607F79D01AD8B0F5007F10
S31508002FA065D005D8B0F5C07FECD121F019F85CE002
S31508002FB0B0F5207F60D0B0F5407FE3D121F010F85E
S31508002FC002464FF42070FFF72BFFB2FBF0F25208CF
S31508002FD05BE0B0F5B06F69D00AD8B0F5806F5BD00A
S31508002FE0B0F5A06FCED100216846FFF7A1FCC9E76E
S31508002FF0B0F5C06FC6D100216846FFF747FDC1E7A7
S31508003000B0F5106F6DD00ED8B0F5086F78D0B9D876
S31508003010B0F5E06F6AD0B0F5F06FB3D1002168461D
S31508003020FFF7BCFDAEE7B0F5406F3AD013D8B0F560
S31508003030206F60D0B0F5286FA4D10021324B0391E0
S31508003040D3F8703203F00303012B02D103A8FFF76C
S315080030501DFD039B39E0B0F5486F93D10021684602
S31508003060FFF76AFD8EE720F09BFF00908AE720F0C5
S3150800307097FF0246204604E020F0B2FF02464FF4CE
S315080030802070FFF7CDFEB2FBF0F200927AE701A8B6
S31508003090FFF780FC019AEDE700216846FFF7C2FCBE
S315080030A070E700216846FFF711FC6BE700216846C8
S315080030B0FFF712FE66E74FF0E02302911B695B07F4
S315080030C005D520F08DFF0290029B00935AE703A9CD
S315080030D002A8FFF7DBFCF7E700216846FFF748FE82
S315080030E050E700216846FFF76FFE4BE70021684668
S315080030F0FFF71AFE46E700216846FFF7EBFC41E7B3
S315080031006846FFF76BFC3DE70080005008B5802055
S31508003110FFF7F6FE034B98429EBF4FF48032024BF0
S315080031201A6708BD005A620200A000501FB5034680
S315080031300020B3F5807F019000F0C58065D85D2B2F
S3150800314056D84C2B07D82D2B48D8232B2CD801988A
S3150800315005B05DF804FB4D3B102BF8D801A252F8D8
S3150800316023F000BFBD3200084F3100084F31000878
S315080031704F3100086B3200084F3100084F31000804
S3150800318017330008893200082F3200080D3300086B
S315080031904F3100084F3100084F3100084F31000801
S315080031A04F31000821330008243B092BCFD801A250
S315080031B052F823F0BD320008BD320008BD320008BF
S315080031C0BD320008BD3200084F310008B33200088E
S315080031D04F3100084B320008F33200083D2B00F04F
S315080031E083803E2BB3D1002001A9FFF79DFDAEE7F2
S315080031F0802BACD1504B1B6F03F00703013B032B0D
S31508003200A5D8DFE803F0544D5052B3F5F06F6BD0F4
S3150800321020D8B3F5B06F4CD00ED8B3F5607F71D017
S3150800322095D3B3F5806F49D0B3F5A06F8FD1002041
S3150800323001A9FFF77DFB8AE7B3F5D06F59D0B3F53F
S31508003240E06FD0D0B3F5C06F81D1002001A9FFF798
S315080032501DFC7CE7B3F5206F5DD00BD8B3F5086F7E
S315080032604CD0B3F5106F7FF472AF002001A9FFF7B9
S31508003270ABFD6CE7B3F5406F48D0B3F5486F4FD058
S31508003280B3F5286F7FF463AF2B4BD3F8703203F096
S315080032900303012B49D0022B0CBF1523002300E0A2
S315080032A00523019353E70323FBE70823F9E70223E2
S315080032B0F7E7002001A9FFF70FFD48E7002001A95D
S315080032C0FFF7B0FB43E74FF0E02302901B695B076B
S315080032D005D520F085FE0D230393039BE1E703A99B
S315080032E002A8FFF7D3FBF8E7002001A9FFF756FC71
S315080032F02DE7002001A9FFF73BFD28E701A9FFF705
S315080033006DFB24E701A9FFF745FB20E7002001A98B
S31508003310FFF7DCFA1BE7002001A9FFF7DBFB16E73E
S31508003320002001A9FFF708FC11E7002103A8FFF711
S31508003330ADFB1123B5E700BF008000504FF4803283
S31508003340074B0849586E03F580535A664B6A23F0B3
S3150800335001034B62C3035CBF034B5A66704700BF49
S315080033600080005000C0075000A0005008B5FFF7C5
S31508003370DDFE092811D00A38012802D94FF6FF7058
S3150800338008BD4FF48002064B5A6603F5D8335B6ACC
S31508003390DB07F3D54FF4FA70F2E7024B1888EFE72C
S315080033A000900050EE2A002008B5FFF7BFFE03285C
S315080033B00ABF024B4FF6FF70188808BDEC2A00209A
S315080033C038B504468020FFF7B1FE032800F0838055
S315080033D04FF48012524B4FF0A0615A6645F60E0222
S315080033E0504BC3F88020504A91624FF4803102F561
S315080033F0805291629A6DD203FCD4996D11F0804186
S31508003400FBD1D4E90002120542EA0062E07B0243DE
S31508003410207B42EA0042607B42EA0032A07B42EA15
S3150800342080121A619869D4E90452120642EA856242
S3150800343000F000400243A07EE57E0243207E42EA79
S315080034400042607E42EA00229A611A6AE06922F026
S315080034500F0242EA8502354D00283DD11A6294F8DA
S315080034602420996A94F82000D200294042EA4012A2
S315080034700A4394F8211042EA011242F480329A6211
S315080034802B49284A936D31EA0303FBD14FF080712B
S31508003490254881621369A56823F4700343EA055336
S315080034A013614FF00043836194F822300BB9214B26
S315080034B0996294F823303BB94FF480321D4B9A62D7
S315080034C0184A936D5B00FCD494F825301BB1154B54
S315080034D0194AC3F8802038BD024342F00802022880
S315080034E01A6208D119614FF40852996113484FF4CA
S315080034F07F4116F025FF0B4994F822308A6A94F822
S3150800350020001B062A4043EA4013134394F824205C
S3150800351043EAC20394F8232043EA02438B62D3E7C3
S31508003520009000500040005A0050005AC7FFFEFEA7
S31508003530030001000060005AF1A7FFFF3440005A5B
S31508003540014B93F9000070471B2B0020F0B5D0E91A
S3150800355001434FF400061A4A4178057856664FF437
S31508003560D156022702F5B8325662164E4F297760B1
S315080035704FF0010728BF4F2106F580567760166978
S31508003580F603FCD441EA052151611B01417B43EA5C
S3150800359004230B43017B43EA41039360C37B817B8E
S315080035A01B0143EA4113417C0B43017C43EA410377
S315080035B05360837C13B16FF4D1535362F0BD00BFDF
S315080035C00090005000100250014B1880704700BF51
S315080035D0EE2A0020014B1880704700BFEC2A002015
S315080035E04FF4800208B5184B5A660223174A5360EF
S315080035F0936813F48033FBD1012822D120F00AFD09
S31508003600134B984215D003F5122303F5F863984235
S3150800361013D0104B00EB8002400AB3FBF0F3520ABA
S315080036200A49CA620B6301234B620022074B5A60A0
S3150800363008BD45F67A13084AF2E745F61A03074A1B
S31508003640EEE75362F1E700BF0090005000400250D9
S3150800365000F0490264666666D8B80500BBCF050067
S31508003660B0F5207F10B50C465DD008D8B0F5007FC0
S315080036704ED003D8C0B1B0F5C07F15D010BDB0F597
S31508003680607FFBD12C4B4C1ED3F8FC202B4912F043
S31508003690807F4FEA041427D1D1F8803023F0300315
S315080036A02343C1F88030E9E716F059FE16F065FEA7
S315080036B04FF48031224B214A1967136F013C23F4DA
S315080036C0704343EA0433136720F08AFC0446FFF785
S315080036D0F1F8C0F10201204616F049FE00F04AF85A
S315080036E0BDE81040FFF712BDD3F8FC2022F0807227
S315080036F0C3F8FC20D1F8802022F030022243C1F81A
S315080037008020D3F8FC2042F08072C3F8FC20B5E78D
S315080037100A4A4C1ED2F8903023F0F85343EA046361
S31508003720C2F89030AAE7054A4C1E136F23F480634B
S3150800373043EA84231367A1E700ED00E00080005008
S315080037400090005008B50121022000F095F94FF4C9
S315080037502070FFF765FB054B187016F000FE16F093
S315080037600CFE4FF48032024B1A6708BD5E26002015
S315080037700090005008B54FF4C070FFF7C1FBBDE8D4
S3150800378008400449884294BF012102214FF4207061
S31508003790FFF766BF80F0FA0238B5044620F020FC31
S315080037A00546FFF787F8C0F10201284616F0DFFD47
S315080037B00121002000F0A0F92CB1FFF7DBFFBDE8DE
S315080037C03840FFF7A3BC034B4FF420701978FFF776
S315080037D047FFF4E75E2600204FF4C02270B5054681
S315080037E0FFF700FA314B04465A6603F598335A68D0
S315080037F0012A04D12E494A605A689207FCD48020CF
S31508003800FFF794FC052807D116F0A9FD16F0B5FDBB
S315080038104FF48032254B1A67264B24F040749D429C
S3150800382030D0254B9D4230D020F0B4FB8542064669
S3150800383003D90121284600F05FF9204BDA6812F017
S31508003840060FFBD199689C609A68624012F4F81FCB
S315080038501ED12846FDF7CCF98020FFF767FC05281E
S315080038600DD120F0BDFB0446FFF724F8C0F1020194
S31508003870204616F07CFDFFF77DFFFFF747FCAE42BA
S315080038800CD270BD44F00074CEE744F08074CBE7E8
S3150800389080209960FFF74AFC052805D0BDE87040EE
S315080038A00121002000F028B93546DAE700900050DB
S315080038B000E0015040420F0080841E0000000150C5
S315080038C0304B314A984251D020D8A3F5B703A3F517
S315080038D05863984246D00DD82C4B984231D02C4B81
S315080038E0984239D02B4B4FF4002198421DD0002323
S315080038F0516622E0284B4FF400219842F7D1274B16
S31508003900D3F8BC30516623F0407316E0244B984236
S3150800391030D0244B984231D0234B4FF400219842A3
S31508003920E5D11E4BD3F8C830ECE71C4BD3F8A030D2
S31508003930516623F0407343F000734FF0B44293602E
S3150800394070474FF40021154BD3F8A030516623F089
S31508003950407343F08073F0E7104BD3F8A0304FF470
S315080039600021CFE70D4BD3F8B830F8E70B4BD3F867
S31508003970C030F4E7094BD3F8CC30F0E7074BD3F85F
S31508003980D030ECE7C0EA21010090005080841E0088
S3150800399000093D0040420F000024F4000080E00FBB
S315080039A00048E801005A620280BA8C01024A536B49
S315080039B00342FCD1704700BF00400950044A4178D1
S315080039C0536F23F4407343EA01235367704700BFDC
S315080039D0004000500E4A10B51369044643F004032C
S315080039E0136121F051F916F0CDFC0A4B5B6E5B01B1
S315080039F042BF094B094AC3F8202430BF16F0C3FC5E
S31508003A0002F0E2F81CB9BDE8104020F0E9BA10BD92
S31508003A1000ED00E00080005000E003500000FF0FBA
S31508003A200C4A10B51369044643F0040313610A4BA4
S31508003A305B6E5B0142BF094B094AC3F8202421F09B
S31508003A4023F930BF02F0C0F81CB9BDE8104020F0D9
S31508003A50C7BA10BD00ED00E00080005000E003503A
S31508003A600000FF0F034A0179D36E23F030030B439E
S31508003A70D366704700400050F8B504461C4BD3F88F
S31508003A808420D106FBD4D3F88430C3F381139C4237
S31508003A902CD020F085FA012C064602D1214616F0D4
S31508003AA066FC21F0AAFC4FF00072124B07465A66D4
S31508003AB0204616F06BFC4FF480630D4D621E934052
S31508003AC02B676B6E9A0103D4D5F884309B060AD50A
S31508003AD0384621F08DFC022C08D13046BDE8F84066
S31508003AE0002116F044BCD5F88430EAE7F8BD00BFDB
S31508003AF0004000500060005010B50C4608B920F090
S31508003B004FFA074B21461B783BB1064B984204D81F
S31508003B100120BDE81040FFF7AFBF0220F9E700BF5C
S31508003B205F260020005A62020278034B012100201A
S31508003B301A70FFF7E1BF00BF5F2600204FF0004272
S31508003B4038B5244B244C5A664AF6CD33656C014683
S31508003B5005F00105236428BB0120FFF727FF6368EA
S31508003B60DB0715D51D4B586008461D4B226BD2073F
S31508003B700CD4984208D1072415B1174B194A1A6470
S31508003B801DF068FF204638BD0130EFE79842F2D0B5
S31508003B900024F1E70132236B13F0080305D08A42AB
S31508003BA0F8D1E8E700220E49F5E78A42E3D020215A
S31508003BB00A4A91620121A2F5805251600649084AD3
S31508003BC0886A800603D49342D5D00133F8E7934236
S31508003BD0DDE700BF00900050004009500060095022
S31508003BE040420F003254FFFF4FF0004238B5164BE3
S31508003BF001465A664AF6CD33144C154A656C236459
S31508003C0043780B205B0043F00103D363FFF7CEFE36
S31508003C1063688A7823F4F87343EA02136360CA7800
S31508003C204B7943EA0223A3600A798B7943EA022394
S31508003C3023610878FFF782FFEB0744BF054B23642F
S31508003C401DF008FF012038BD0090005000400950C3
S31508003C50004000503254FFFF4FF00042124B70B53F
S31508003C605D6E03F580535A664AF6CD3304460F490E
S31508003C7080204E6C0B64FFF799FE0B6A23F00F0346
S31508003C800F2C94BF234343F00F030B62F30744BF83
S31508003C90074B0B64002DA2BF4FF00042054B5A6636
S31508003CA01DF0D8FE70BD00BF0080005000400950CE
S31508003CB03254FFFF00A000504FF00042104B70B581
S31508003CC05D6E03F580535A664AF6CD3304460D49B0
S31508003CD080204E6C0B64FFF769FE0B6A23F4F853D9
S31508003CE043EA04230B62F30744BF074B0B64002D1A
S31508003CF0A2BF4FF00042054B5A661DF0ABFE70BDE1
S31508003D0000800050004009503254FFFF00A00050C8
S31508003D102DE9F04105460F461E4690464AB1012355
S31508003D203022194C8B4002FB004436B304F582540A
S31508003D3023600F21072F05EB450388BFA7F1080469
S31508003D404FEA0313114895BFBC00A40004330C3393
S31508003D5008FA04F2A140184416F019FBB8F1000F4E
S31508003D6009D101233021084ABB4001FB05223EB197
S31508003D7002F582521360BDE8F08104F50154D7E7D5
S31508003D8002F50152F6E700BF00C0035030C00350E9
S31508003D9010B5152000F066FF0024FF22064B2146C9
S31508003DA05C6520209A625C60FFF790F82146BDE8C2
S31508003DB010402120FFF78AB800000450044A054B3A
S31508003DC0002908BF1346012282401A60704700BFC7
S31508003DD0401004504020045010B50121044620200C
S31508003DE0FFF774F801212120FFF770F80122114B23
S31508003DF015205A60227812069A606178A27842EAFB
S31508003E0001429A61FF229A6200229A631A644FF06D
S31508003E1000425A654FF0FF3203F500531A6500F069
S31508003E204FFF1520E17816F0C0FEBDE810401520BA
S31508003E3000F02ABF00000450F8B50125C3B2D1F836
S31508003E4000E091F80AC00F7B0C469D40CB7A1D49CD
S31508003E501D4E0D65810001F1A04101F58821C1F8CB
S31508003E6004E04FF0300E0EFB00601B05617B43EA51
S31508003E700C4343EA475322F003020166C36502670F
S31508003E8021F0C4FA114B5D65237A13B1336C2B43C9
S31508003E903364637A13B1B36B2B43B3632279A37983
S31508003EA043EA0243074A93616179E37943EA0143A6
S31508003EB006498B61044B55639D64BDE8F84021F0C3
S31508003EC0A0BA00BF0020045000000450001004509F
S31508003ED010B50124C0B2844021F098FA044B5A6DFB
S31508003EE022EA04025A659C62BDE8104021F089BAAC
S31508003EF00000045010B50124C0B2844021F086FAAF
S31508003F00074BDA6A224208D15B6B9C430CBF01243B
S31508003F10002421F076FA204610BD0024F9E700BFF8
S31508003F200000045070B5054621F070FA3022084B9F
S31508003F305E6B02FB05335C6E21F063FA0123EDB27A
S31508003F40AB4033420ABFC4F30A100020013070BDEB
S31508003F50000004504FF48032054B9A6641F67132E0
S31508003F6003F51C33DA63012203F50053DA60704760
S31508003F700090005041F671320121064BDA6303F5D1
S31508003F800052D1600022DA634FF48032A3F5183369
S31508003F909A66704700000350013831289ABF024BD1
S31508003FA0185C0020704700BFB35A020838B5C2F340
S31508003FB00625044602F0070241B942EA052242F400
S31508003FC040220634074B43F8242038BD11462846BC
S31508003FD016F0ECF902462846FFF7DEFF163442EAE9
S31508003FE00022EFE7008003504FF48032064B5A66F2
S31508003FF003F5E6239B69C3F38512827003F03F023B
S315080040001B0B42700370704700900050014B986C70
S31508004010D96C70470080E00F0120034B9B680A3378
S3150800402003F01F03984070470080E00F70B50546FF
S3150800403016461C4621B94FF42070FEF761FF01466B
S31508004040402C1BD003D8DCB1202C1BD070BD602CB3
S31508004050FCD1042303FB06F2530803EB4113B3FB1D
S31508004060F2F3094A203B02EAC303AA6822F0600277
S31508004070AA60AA681443AC60EB61E7E70623E9E7A0
S315080040801023E7E70823E5E7F8FF7F00012100F59D
S31508004090805310B5596040F6AA6341F205024361A0
S315080040A00023094C8360C365C26000F500520361B2
S315080040B0C361C3649464054C8365A04204BF036569
S315080040C04365516010BD00BFFFFF010000C00550E9
S315080040D070B50D46FFF7DAFF012300F580567360C9
S315080040E0AB7C04461BB1836843F080438360EB7C5A
S315080040F05BB1244B9C4202BF2A7DA3F51033C3F85B
S31508004100C821E36D43F08003E3652A8A6B7B20466A
S315080041101343EA891343E3602B7BD5E90112FFF7C2
S3150800412085FF6B7D1BB1A36843F48033A360AB7D29
S315080041301BB1A36843F40043A360EB7D2A7E1B07EB
S31508004140120502F4E00203F0E0431343A3656B7E15
S315080041509A1E012A4FF0020209D80B49032BC1F80F
S31508004160202709D10423F3652B78636170BD0749BD
S31508004170012BC1F82027F4E7042204F50053DA6579
S31508004180F2E700BF00C0055000D0035000E003501E
S315080041900122437801789A4030235943014B5A50FB
S315080041A0704700BF40E00350034BD3F82424D3F8EC
S315080041B020041040704700BF00C003502DE9F843A3
S315080041C01F4B0546D3F810334B1E0E2B0E461746CB
S315080041D0047890F8018026D951B34FF00009284693
S315080041E01FB320F005F80F21B8F1070F04EB4404BC
S315080041F088BFA8F108084FEA0414124895BF4FEA89
S3150800420088084FEA880804340C3409FA08F201FAD7
S3150800421008F1204416F0FBF886B9284657B1BDE8E0
S31508004220F8431FF0E5BF8946D9E7FFF7B1FFDAE79C
S315080042308946D8E7BDE8F843FFF7AABFBDE8F88383
S3150800424000C0035030C00350054B9A689107FCD450
S315080042505A689207F9D4DA69002AF6D1704700BF7E
S3150800426000800A5008B51FF0CFFF0222014B1A61E1
S3150800427008BD00BF00800A5008B5FFF7E5FF012218
S31508004280024B03F580514A601A6108BD00800A5046
S3150800429008B5044B5968012903D1FFF7E3FF024B20
S315080042A0596008BD00800A5000A00A5010B5064C97
S315080042B0FFF7CAFF6368012B03D1FFF7E9FFFFF792
S315080042C0C3FF0378E36010BD00800A50B8B94A6896
S315080042D00B7812B1127843EAC2034A7843EA4203DA
S315080042E08A6812B1127843EA82138A7843EA82030B
S315080042F0CA6812B1127843EA4223014A93647047A6
S3150800430000800A504FF48032084B5A6603F5E623BC
S315080043109B691A0B027003F03F0242704FF6FF7258
S31508004320C3F3851342808380704700BF0090005016
S31508004330014B986CD96C70470080E00F70B5044645
S315080043401DF054FC064630B90FCC044D0FC594E851
S31508004350030085E80300304670BD00BF6C180020D6
S3150800436047F6FF739A42F0B56FD002296FD8394BDA
S315080043705B5C012B6BD8384DDF0005EBC30415F8E1
S315080043803330A178012B13D10025E078401AA842D2
S3150800439002D80844C0B2F0BD431B6668A0EB5303BD
S315080043A036F913609642D4BF1D4603F1FF30EEE797
S315080043B060680028EFD0B0F90040944204DBB0F9F9
S315080043C002409442B8BF144683883D44FF2B19BF68
S315080043D0C8224FF0280CB0F90620B0F908C0A2EBA5
S315080043E004030CBF0126002693FBFCF333446E78C6
S315080043F01BB29E4201DD002B01DA731E1BB24FF47D
S315080044007A7C01339BB2071D5D1E2DB24FEAC50E9D
S3150800441000EBC505EA88AD689E4214FB025222EA03
S31508004420E27202F15C02B2FBFCF204DD37F83350AB
S3150800443001339542E8D200EB0E039888904228BFD4
S315080044401046884238BF0846A4E7FF20A3E70020A5
S31508004450A1E700BFE55A02086C1800200229F0B54A
S3150800446055D82C4B585C012851D82B4C04EBC0016D
S3150800447014F830004B6801280FD1C8788C78904220
S3150800448094BFC4EB0001C4EB0201001BCAB282420E
S31508004490C8BF002233F91200F0BD002B37D0887848
S315080044A0904202D3B3F90200F6E7CC78B3F90000DC
S315080044B09442F1D94C789988013CA1F1FF067142E2
S315080044C003F10405E4B2714103F10C07CEB2B4421C
S315080044D016D805EBC1014FF47A756A43B1F9024063
S315080044E04968521A04EBD47102EB610292FBF4F2AA
S315080044F09042D1DBB3F902009042CDDC10B2CBE793
S3150800450037F831C04E1C9445E3D33146DEE70348FD
S31508004510C2E700BFE55A02086C1800200080FFFFBA
S3150800452008B50448FFF70AFFBDE8084001201DF05A
S3150800453061BB00BFE85A020800487047F02A00200D
S315080045407FB50222084B0949CDE901234FF00073D4
S31508004550CDE90313072301A94FF0FF3005931DF09A
S3150800456092FB07B05DF804FB006A1800000206001B
S315080045702DE9FF474FF000080E4617460446CDF8CA
S315080045800080002859D022B90025284604B0BDE885
S31508004590F087002951D032F0030902F0030A1FD030
S315080045A04FF0E063C0E9003801230191C0F80880A4
S315080045B00293C0F81C8049F0005301A9039316F032
S315080045C086F94946204620F055FF20461FF066FE2C
S315080045D0054628B14A46414630461DF0FCFFD4E759
S315080045E0BAF1000FD0D04FF000084FF0E063C4E9ED
S315080045F000380123CDF804D00293114B204601A9B7
S31508004600C4F80880C4F81C80039316F060F90421E6
S31508004610204620F02FFF20461FF040FE054608B131
S315080046203A46D8E7009A4E44EB00013522FA03F3DE
S31508004630AA4506F8013BF7D1A6E72125A5E700BF5D
S315080046400400002090B189B101234B60C368013B87
S31508004650012B08D88269064B1AB10A6000208B60C4
S315080046607047044AF9E74FF00053F7E721207047EF
S3150800467008000020C46C020806289ABF014B185C83
S3150800468000207047CC6C020870B505460C4620F031
S31508004690BDFE0C2D064616D80C2D18D8DFE805F0F9
S315080046A01B1B171B1B2A171B2E1731173400012338
S315080046B0194AAB4013421DD1132D2AD00D2D06D110
S315080046C04FF4F06022E0A5F10D03122BEFD9002379
S315080046D02380212409E08020FEF766FE4FF6FF734B
S315080046E0984220800CBF0E240024304620F089FE14
S315080046F0204670BD002323800F24F6E74FF4806020
S31508004700EAE74FF44060E7E74FF4C060FEF72EFE95
S31508004710E4E74FF4E060F9E7008063D4B8B10368D2
S3150800472013F4E07F03F03F00C3F382120AD0012A94
S315080047300DD1084B41B103F58053012282401A601E
S3150800474000207047044BF5E703F50053F5E70E2004
S31508004750704700BF688000506480005070B58A4872
S315080047608AB016F017FA0646002840F0E0806C4634
S31508004770864D0FCD0FC42B682360FF238DF80130BB
S31508004780834BD3F84C21500300F1F180D3F8503114
S315080047908DF801609DF801306C46FF2B08BF252374
S315080047A068467C4D8DF80130FEF7D0FE3220FEF7C4
S315080047B00BFF0FCD0FC40FCD0FC495E8030084E897
S315080047C00300734BD3F84C21110340F1B380A3F5D2
S315080047D0FE431C88B4F5807F28BF64248DF81940F1
S315080047E0FEF7AEFE044484F308046B488DF81840BF
S315080047F0FCF704FA6846FEF7E3FD3220FEF7EAFE08
S315080048006648FEF7E9FF6648FFF75AF8654C012146
S315080048103620FEF75BFB0020FEF7E2FEFEF792FF6E
S31508004820236F002023F0070343F003032367FEF7F3
S31508004830B3FF236F23F4744323675B4BD3F8FC2041
S31508004840D2017BD4D4F8803023F0030343F001036C
S31508004850C4F88030D4F88030C4F88030514CD4F88D
S31508004860203123F0070343F00203C4F82031D4F8BB
S31508004870283123F0070343F00203C4F82831D4F89B
S31508004880803123F0030343F00103C4F88031D4F8E0
S31508004890403123F0030343F00203C4F84031D4F84F
S315080048A0603123F0030343F00203C4F86031D4F8FF
S315080048B0403223F0030343F00203C4F84032D4F82D
S315080048C0003223F0070343F00203C4F80032D4F899
S315080048D0083223F0070343F00203C4F80832D4F879
S315080048E0703223F0030343F00103C4F87032D4F89E
S315080048F0203223F0070343F00103C4F82032FEF701
S315080049001DFD4FF0E022136943F004031361D4F848
S31508004910603223F0070343F00103C4F86032D4F889
S31508004920943223F0070343F00103C4F89432304667
S315080049300AB070BDD3F85041E4B24FE7D3F8FC2073
S3150800494022F08072C3F8FC20D4F8802022F00302FB
S3150800495042F00102C4F88020D4F88020C4F88020F0
S31508004960D3F8FC2042F08072C3F8FC2076E74FF0BB
S315080049707E6393F89C2093F99C30002BFFF60AAFD0
S315080049808DF8012006E700BF346D0208F06C0208B6
S315080049900080E00F046D0208C017530200B4C40477
S315080049A0C0EA21010080005000ED00E007B5094B80
S315080049B018689A889B7900906846ADF804208DF8A7
S315080049C00630FFF711F90C20FFF746F9002003B06F
S315080049D05DF804FB2C6D020870B501F027F9044652
S315080049E0E8B901F0ADF920F005FB4FF4167343431F
S315080049F00C4A03F5742303F23F23B3FBF2F30A4987
S31508004A000A480B600A230268094D0E68013B45F8FF
S31508004A10046B0E6813F0FF033244F6D10260204699
S31508004A2070BD00BF40420F00BC1800208C18002043
S31508004A3090180020012208B5034B1A7020F0B7FE23
S31508004A40024B186008BD00BF6026002088180020A9
S31508004A5010B520F0CFFA044620F0C7FC844207D9E7
S31508004A6020F0B1FE20B10122024B1860024B1A70E9
S31508004A7010BD00BF8818002060260020F8B51F4C1E
S31508004A802378E3B120F093FE1D4B1E4D1B68C01A18
S31508004A9028602B68A3B12B682B6020F0ABFA4FF483
S31508004AA016725043184A00F5742000F23F20B0FBF6
S31508004AB0F2F02B682B68834204D900232370F8BDD3
S31508004AC00123E9E71148124E0378296856F823208E
S31508004AD0104F511A3A68521A29683A6046F8231054
S31508004AE00A210932B2FBF1F20B4D0133DBB22A601F
S31508004AF0B3FBF1F201FB12330370DEE760260020F8
S31508004B0088180020B818002040420F0061260020AF
S31508004B10901800208C180020BC180020014B18683B
S31508004B20704700BFBC18002070B503212C2016F072
S31508004B303CF84FF4801204250E4C0F4B0F4E5A6664
S31508004B4004F500535E672C205D671E671D6700F03D
S31508004B50B7F82C2000F098F804F580535E675D6777
S31508004B60A36A23F00073A362A36A43F48053A36283
S31508004B7070BD00BF0040005A00900050010000A020
S31508004B80064B074A996D11F0050F01D0117811B13E
S31508004B900028F7D170470120704700BF0040005A2F
S31508004BA062260020164B10B51C6F14F0040111D0B4
S31508004BB0144A1167082191629B6DDA0701D4FFF741
S31508004BC047FF00F043FF00F023FF012020F07AFAA8
S31508004BD020F0FBFDE30706D501220A4B1A67FFF70B
S31508004BE04DFF00F015FF14F000521CBF054B1A6765
S31508004BF0002CBEBF4FF00042024B1A6710BD00BF23
S31508004C000040005A0060005A0028ACBF00F160401E
S31508004C10064B4FEA0111C9B2ABBF00F5614000F07F
S31508004C200F0080F800131954704700BF14ED00E018
S31508004C3008B520F0EBFB0A4B1A786AB901221A70FC
S31508004C4020F0DFFB6FF00402104605210132FFF762
S31508004C50DBFF4C2AF8D108BDBDE8084020F0D1BBDF
S31508004C606326002000280CDB01220649430900F0D0
S31508004C701F008240203341F82320BFF34F8FBFF334
S31508004C806F8F704700E100E0002807DB0123410928
S31508004C90034A00F01F00834042F82130704700BFE6
S31508004CA000E100E0054B421153F8223000F01F00E6
S31508004CB023FA00F0C04300F00100704700E100E06D
S31508004CC0002808DB01224309034900F01F0082403F
S31508004CD0603341F82320704700E100E010B5044630
S31508004CE020F08BFB024B1C6020F082FB002010BDDD
S31508004CF0C018002010B520F080FB034B1C6820F07C
S31508004D0077FB204610BD00BFC0180020034B0222C7
S31508004D10186800238068194611F09ABD802A002079
S31508004D203021037A02464B4303F1A04303F580235F
S31508004D30D86E07491B6F884208D113F0020006D0C7
S31508004D405069536B1B1A58425841704700207047E8
S31508004D506426002070B5044608B9012070BD057A9E
S31508004D602846FCF779FA30236B4303F1A04303F591
S31508004D7080232846DE6EFCF78FFA0A4B9E421CBF3C
S31508004D80042384F8543094F8503094F854002BB126
S31508004D90022803D1012384F85430DFE70428DCD144
S31508004DA0F8E700BF6426002010222DE9F04188B0FC
S31508004DB0044600210DEB02001DF00DFC4FF4447370
S31508004DC0ADF81230344B207ACDE90533FCF744FAB6
S31508004DD02046FFF7A5FF0546207A25B1FCF75CFAC1
S31508004DE008B0BDE8F0810DF10B011FF0BDF99DF883
S31508004DF00B70002F48D1204615F08BFF03A90646F5
S31508004E00207A1FF0D3F9039B3946013B9DB204F182
S31508004E100C03102218461F46D4F804801DF0DBFB4D
S31508004E20E2681E4BC5F30A05134030222D0145F0F2
S31508004E3040751D43237AC4E90358534303F1A0433D
S31508004E40666103F580231A6F217E520862F34101D9
S31508004E502176196F227E27F0030761F30002227676
S31508004E601B6FA2699B0863F39F0247F00207A261C2
S31508004E70079723680A4904AA0B600094094B207A0D
S31508004E80FCF7C4F9207AA9E79DF81C3065F34103BD
S31508004E908DF81C30EDE700BF642600200F80FFFC6C
S31508004EA0C41800204BAD01082DE9F0410C46154603
S31508004EB0064686B05822002120461F461DF08BFB69
S31508004EC095E80300EB682A69E362C4E90C232A7DA6
S31508004ED084E8030084F84420AA7DA364012384F8A7
S31508004EE04C3084F84D300C9B84F84520E3630D9BC9
S31508004EF0A76323642B7A84F84E306B7A84F84F3094
S31508004F00344B34607360344BB360344B3361344B89
S31508004F107361344BF360FCF745F938B1324B98426C
S31508004F2004D01027384606B0BDE8F081002104F108
S31508004F300800FCF7BFF807460028F2D14FF0010831
S31508004F402A4B33622A4B84F85480B361294BF361A8
S31508004F509DF83C3084F8510084F853309DF8383079
S31508004F60204684F85230697D84F8508015F09EFEFC
S31508004F7095F90900FFF7A4FE95F90900FFF784FEE5
S31508004F80CDE903770297236BCDE900836368E26A6C
S31508004F902168207A14F0EDFC07460028C1D130229A
S31508004FA0237A4FF48011534342F2640203F1A0437B
S31508004FB003F58023995095F90800FFF781FE95F9C6
S31508004FC00800FFF761FE3046FFF788FE2046FFF728
S31508004FD0EBFEA7E78DAF0108A9AD0108A1AC010852
S31508004FE0A7AC01084FAD0108038000F0554D000835
S31508004FF0ADAC01080DAD01082DE9F34105682C7A21
S315080050002046FCF729F93022194B02FB0431CE6EF3
S3150800501018498E4225D1287A0DF1070102FB003383
S31508005020D3F86C801F6F1FF09FF89DF8073063B99F
S31508005030B04508D02846FFF773FE90B901230C4AFD
S31508005040A34093640DE0BB07F4D420F0DFF90123F5
S31508005050094AA3405365A2F580529362536320F030
S31508005060D0F9204602B0BDE8F041FCF715B900BFFB
S315080050700000045064260020002004502DE9FF415A
S3150800508001271C46594B0A9D0193594B904600939C
S315080050900A46CDE902772946564BFFF705FF06462D
S315080050A0002840F09A8023683946AB6563683A2041
S315080050B0EB65637A85F86130237A85F86030E37AA0
S315080050C085F86330A37A85F86230637B85F86530A6
S315080050D0237B85F86430E37B85F86730A37B85F806
S315080050E06630FDF7F3FE3B460422617A207AFEF726
S315080050F00FFE3B460222E17AA07AFEF709FE394600
S315080051006068FDF7E3FE88F8006041462068FEF710
S31508005110DFFF1420617C384B01F1390252019850A7
S31508005120607A227A03EB411342EA0042C3F8382731
S31508005130E17AA27A42EA0142C3F8302785F8686024
S3150800514098F81930032B4ED8DFE803F0394B021CC8
S31508005150022385F8683000230422E17BA07BFEF752
S31508005160D7FD0220617C244B01F1B9025201985007
S3150800517003EB411341F22C71E07BA27B42EA004229
S315080051805A501CE0012785F8683002220023617B0B
S31508005190207BFEF7BDFD617B227B637C42EA0142F0
S315080051A041F228715B0103F1A04303F570335A50AD
S315080051B00422236803F58053DA65002FCBD1237ABE
S315080051C00E4A85F86030637A052185F861302068D3
S315080051D000F500539A6415F006F9304604B0BDE8A8
S315080051E0F0810027CFE72326F7E700BFD3B00108F1
S315080051F057B101084BB1010800C00350FFFF010079
S3150800520073B50024684600F0C1F90C4B00981C6081
S315080052100B4B0C4D1C600C4E0C4B306018602C6010
S3150800522016F032F82046019B3268013BDB085380B2
S315080052302B6801332B6002B070BD00BFD818002060
S31508005240D4180020DC180020E4180020E0180020FC
S315080052502DE9F04F0E460027984689B0054606A860
S315080052601446059700F092F9731C14BFB3464FF025
S31508005270080BB8F1000F00F0BC80C8F80070002DCC
S3150800528000F0B980079BAB4240F2B58020F0BEF82B
S31508005290073505AB25F007053146009381463B46A1
S315080052A02246284600F07CF9059E074606B130B925
S315080052B0484620F0A6F8192009B0BDE8F08FDFF8B7
S315080052C04CA17388DAF80010DA00C0EBC303013981
S315080052D0272BCAF8001074D9002C50D1854205F145
S315080052E0080347D059463046029315F059FF04463D
S315080052F0029B0590059A02EB030B584615F0C4FF6E
S31508005300059905F10F034A88C3F3CF03D21AABF800
S315080053100220CA88ABF8043072B3D31A9BB201EBE9
S31508005320C202ABF8063093808B88ED08A380BBF8E1
S3150800533004300022314658466580E38000F0A8F91B
S31508005340237843F001032370DAF800300133CAF8F2
S3150800535000302C4A4846136808343B4413602A4AEE
S3150800536011688B4288BF136020F04BF80020C8F8FC
S315080053700040A1E73446BDE7ABF80620D4E7F418A9
S3150800538020460293039215F07FFF029BF91DC90878
S3150800539005986180D91DC908A180C18879B1C9005D
S315080053A0039ACD1DAA1A3A44C2F3CF020144E280F9
S315080053B08A80013BDB084380A388C380C0E7E1807D
S315080053C0F7E7012C19D106F10803B3FBFBF20BFB37
S315080053D01233A3B15946304615F0E2FE0446237847
S315080053E0012243F0010331462046237000F050F9AC
S315080053F0AFE7222060E721205EE78542EAD13446FE
S31508005400EDE700BFD8180020D4180020DC180020CB
S315080054102DE9F3470446684600F0B8F8002C00F07A
S31508005420AB801FF0F3FF14F8086CF30704D534F8C3
S3150800543006ECBEF1000F05D11FF0E3FF012002B014
S31508005440BDE8F0874D494E4D0A68D5F80080A2EBB5
S31508005450CE020A6034F8041C0EF1010308F10102B9
S31508005460A4F1080C9BB22A60B9B3ACEBC10292F85E
S3150800547000A0B2F806901AF0010F578806F0020647
S315080054801FD1FEB9A9EB0701012926D80EF102039F
S315080054901F44BBB2C5F8008034F8026CFEB9013B64
S315080054A09BB214F8081C6FF3000104F8081C0021CD
S315080054B024F8061C53801378D18061F30003137017
S315080054C031E056B119448BB214F8081C6FF3410148
S315080054D004F8081C00219180DEE76246DCE70CEB45
S315080054E0C608DDE900710F44B845D8D21CF83670F5
