S02B000062745F736F635F656E657267795F68617276657374696E675F6170706C69636174696F6E5F6F627341
S31508000000C00A0020690A0008E79D0108E79D010863
S3150800001031BD0108E79D0108E79D0108E79D010834
S31508000020E79D0108E79D0108E79D0108E79D01088E
S31508000030E79D0108E79D010813BE0108E79D010831
S31508000040E79D0108E79D0108E79D0108E79D01086E
S31508000050E79D0108E79D0108E79D0108E79D01085E
S31508000060E79D010855090008479D0108E79D010815
S31508000070E79D0108E79D0108E79D0108E79D01083E
S31508000080E79D0108E79D0108E79D0108E79D01082E
S31508000090E79D010821120008E79D0108E79D010870
S315080000A0E79D01082D0E00080D0E0008E79D0108C2
S315080000B0E79D0108955D010841680108C1330208FA
S315080000C0BD330208D15F0108D7330208C5330208D9
S315080000D011680108C933020881680108E96801083E
S315080000E0E79D0108E79D0108E79D0108E79D0108CE
S315080000F09DB10108E79D0108E79D0108E79D0108F4
S31508000100E79D0108E79D0108E79D0108E79D0108AD
S31508000110E79D0108E79D0108E79D0108E79D01089D
S31508000120E79D0108E79D0108E79D0108E79D01088D
S31508000130E79D0108E79D0108E79D0108E79D01087D
S31508000140E79D0108E79D0108E79D0108C1660208C9
S3150800015005430108E79D0108AB330208B1330208DD
S31508000160E79D0108E79D0108E79D0108E79D01084D
S31508000180F0B5114A114C124E00F00105E3695F07FC
S3150800019013D40DB9334213D103EA00078F4207D1AE
S315080001A00B4A1A40002A0CBF00206FF00100F0BD70
S315080001B0013AEBD16FF00200F9E74FF0FF30F6E7AE
S315080001C06FF00100F3E700BF809698000000035027
S315080001D0020001000B4B70B5D96911F480310DD1BD
S315080001E001244FF48072084E084DF46020462C64B2
S315080001F01A61FFF7C5FF3464EC6070BD6FF001004B
S31508000200FBE700BF00000350001003500020035016
S315080002104FF4803238B50E4B0E4C9A66E56941F6B6
S31508000220713315400122E3630B4B0021DA60022388
S31508000230606121202361FFF7A3FF10B92120FFF792
S315080002409FFF0122054BDA600DB10023E36338BD39
S315080002500090005000000350001003500020035087
S3150800026070B5134C6061E3695B071ED40E4656F8F9
S31508000270043B8D18A361AE420BD104230021212033
S315080002802361FFF77DFF58B9BDE870402120FFF7CD
S3150800029077BF08210846FFF773FF10B104232361CF
S315080002A070BD56F8043BA361E5E74FF0FF30F7E76A
S315080002B0000003502DE9F84315464FF48032184BD9
S315080002C089469A6603F51C33DF690646174041F6E8
S315080002D07132DA63012203F58053DFF84C80DA6065
S315080002E055B9284601220F4BDA601FB10022A3F543
S315080002F00053DA63BDE8F88306F5005404EA0804F7
S31508000300A41BAC4228BF2C46494622463046FFF776
S31508000310A7FF0028E6D12644A1442D1BE0E700BF2D
S31508000320009000500020035000E0FFFF000000008E
S3150800033000000000000000000000000000000000AF
S3150800034007B588B10BA3D3E900230949C1E90223FC
S31508000350CDE900234FF0FF324FF0FF33086922F052
S3150800036001FB03B05DF804FB00220023EDE700BFA4
S31508000370480B00200DD50155200000000348044B0A
S31508000380834202D0034B03B1184770475C2C002008
S315080003905C2C002000000000064B0749C91A89108A
S315080003A048BF0131491003D0044B0BB10148184727
S315080003B0704700BF5C2C00205C2C00200000000069
S315080003C010B5064C237843B9FFF7D8FF044B13B191
S315080003D00448AFF300800123237010BD7E27002058
S315080003E00000000084C0020808B5054B1BB105498A
S315080003F00548AFF30080BDE80840FFF7CDBF00BF52
S3150800040000000000A80D002084C00208A3F5803A69
S31508000410704700BF174B002B08BF134B9D46FFF7CD
S31508000420F5FF00218B460F461348144A121A23F08B
S3150800043073F80E4B002B00D098470D4B002B00D0BD
S3150800044098470020002104000D000D48002802D01E
S315080004500C48AFF3008016F007FE2000290019F0BB
S3150800046006FC16F047FC00BF00000800000000006C
S3150800047000000000C00A0020C00A002080280020D2
S3150800048000000000000000000122014B1A707047AE
S31508000490302C002008B519F058FC19F057FC034B0E
S315080004A003491868BDE808401AF0C8BECC0E0020FB
S315080004B0286702082DE9F04F0368AC4A23F47F4306
S315080004C023F00703934204468DB006D002F5802236
S315080004D0934271D00DB0BDE8F08FA54C002223469B
S315080004E0012144F265000EF0C9FF2378A14863B3E1
S315080004F019F0E3FC0422002011460EF0E9FF9E4C99
S31508000500054628B39D4920681AF098FE9C4920683C
S315080005101AF094FE19F019FC19F018FC994B9A4A2E
S3150800052000939A49782320681AF088FE98492B4642
S31508000530984A20681AF082FE284600F043FA96493F
S3150800054020681AF07BFE00BEFDE719F0B9FCD1E77A
S31508000550022101200EF0D2FF054610B38749206814
S315080005601AF06CFE864920681AF068FE19F0EDFB51
S3150800057019F0ECFB834B844A009384497D23206859
S315080005801AF05CFE82492B46824A20681AF056FE0B
S31508000590284600F017FA804920681AF04FFE00BE78
S315080005A0FDE719F0D2FB19F0D1FB7C4920680DB0A4
S315080005B0BDE8F04F1AF042BE0025877DDFF8E881D6
S315080005C0DFF8089200F1170AAF4283D90AEB050350
S315080005D05B781AF80560083B012B13D805F1020B66
S315080005E0D344721E41465846099222F06BFF0028F2
S315080005F000F09E8049465846099A22F063FF002873
S3150800060000F0AF8001362E44F5B2DDE71870584B7E
S315080006101A78002A2FD01870564819F051FC012173
S3150800062044F26500524A0EF015FF054648B3524C8F
S31508000630524920681AF002FE514920681AF0FEFD58
S3150800064019F083FB19F082FB554B4F4A00934F492B
S31508000650B42320681AF0F2FD4D492B464D4A20680E
S315080006601AF0ECFD284600F0ADF94B4920681AF05F
S31508000670E5FD00BEFDE701223E481A7019F01DFC93
S31508000680CDE748480DF12B0125F09CFB9DF82B3052
S31508000690002B36D00025444E374F19F056FB19F07B
S315080006A055FBD7F8008025F0C7FF94F90D300246B0
S315080006B00793A37B4046069363793C490593A37940
S315080006C00493E3790393237A0293637A0193A37AD3
S315080006D0009333461AF0B2FD334B9E4225D1244B84
S315080006E0334A1978334B002918BF1A4632493868F5
S315080006F01AF0A4FD19F029FB19F028FB2F493868D0
S3150800070055E74FF47A700BA925F0CAFB0028C1D12A
S31508000710254E00252A4A2B46CDE900550B99214836
S3150800072025F066FF002EB7D1D4E62A462549DEE72E
S31508000730254B1A78002A7FF469AF1A480DF12B0168
S3150800074025F040FB9DF82B30002B7FF4C3AE4FF409
S315080007507A700BA925F0A4FB00287FF4BBAE0646E9
S31508000760D7E7E58B194E6DBAADB295E7A000010043
S315080007707F270020E8680208CC0E0020CA67020816
S3150800078074670208B5680208796702088267020872
S31508000790916702088E670208A6670208B76702080B
S315080007A08A680208C00D0020262C0020CC670208A3
S315080007B0706702086D670208216802086668020801
S315080007C08904000846680208302C00201C2C0020EA
S315080007D0064B1B681A7A022A04D812B11B68044A07
S315080007E013607047032AF9D0704700BF4C2A0020CF
S315080007F0E00D002070B5264DA8B012AC0FCD0FC481
S3150800080095E80700032384E807008DF8613029235B
S31508000810204A0024CDE903231F49204BCDE909448A
S31508000820CDE905134FF480230B94089319AD08AE50
S315080008300FCECDE90E44079410940FC5184B0DAE94
S315080008402B60184B1EAD0D930FCE0FC52020164BEF
S3150800085019A92B60154B12AA2393154B2694CDE99B
S315080008602403144B14482793144B009303AB04F04A
S31508000870ADFD04469DF897304FF4E130002B0CBFD0
S315080008800321002119F0A1FA204628B070BD00BF47
S31508000890CC68020800C005500005000600090008DB
S315080008A024C00550020004003CC0055080270020E3
S315080008B000010100602A00209C0E0020E40D0020A3
S315080008C0831E012B10B50C4619D801290DD8184BD3
S315080008D004221B6C05210020C3F3401303F054FACD
S315080008E024B1144B18680368F3B910BD114B186886
S315080008F00368002BF9D0BDE8104004F035BD8B1E07
S31508000900012B0CD80128F0D8BDE810400022084B6E
S3150800091005211B6C1046C3F3401303F035BA0029B2
S31508000920E4D00129DDD0E0E7BDE810401AF055BE55
S3150800093000C00350742A002008B50449044804F08E
S3150800094041FFBDE80840FFF755BF00BF782A0020E1
S31508000950C40E002001481AF0C5BE00BF9C0E002038
S31508000960014B5A6A186810479C0E0020014819F076
S31508000970A1BA00BFE8680208012208B5074B1A7039
S315080009800022074B1A700422064B1A701F22064BC8
S315080009901A7004F0CBF9054B186008BD362C0020F8
S315080009A0A0270020352C0020342C0020CC0E002057
S315080009B0024B034918681AF041BC00BFCC0E002050
S315080009C00069020870B50C4C0C49064620681AF0F6
S315080009D035FC04F0ABF90546206804F09BF930466F
S315080009E0FFF7E6FF284604F095F920680449BDE8B4
S315080009F070401AF023BC00BFCC0E00200269020822
S31508000A000469020808B5034825F069FDBDE80840F1
S31508000A1019F04FB9D87B0208014825F060BD00BF20
S31508000A20D87B020807B5082019F001FA0222064BFE
S31508000A306846CDE9002319F08CF9082003B05DF863
S31508000A4004EB19F0FFB900BF006A18100348044AFE
S31508000A500449121A921019F0C7B900BF800100089C
S31508000A60400300088028002008B5154B83F30A8840
S31508000A7000F030F8FFF7EAFF124B13498B4212D306
S31508000A800020124B12498B4218D3FFF7C3FC186893
S31508000A9050F82240586840F822400132986882424D
S31508000AA0F5D30C33EAE70022F8E71C6844F822007D
S31508000AB001325C68A242F8D30833E4E70022F8E77B
S31508000AC0000000208CC0020898C0020898C00208DE
S31508000AD098C002084FF48041124B134A70B59A60C9
S31508000AE0D3F88820114D42F47002C3F88820104AC2
S31508000AF005F5005491664FF0FF3222660D4A62668C
S31508000B000222C3F8D020BFF34F8FBFF36F8F4FF485
S31508000B104036002004F0F0F80020E66004F0D0F833
S31508000B202E6170BD00ED00E0000000080080004462
S31508000B3000900050F7FF3700014B1860704700BF60
S31508000B40842A0020054B1860054B1B6F03F007032A
S31508000B50032B01D124F070B9704700BF8C2A0020FE
S31508000B6000800050002307B52948019325F0B7FCFB
S31508000B704FF44073012204216846ADF8003000F0B6
S31508000B80C3F80122234B0520C3F8442401A925F004
S31508000B90A1FC002839D1204BD3F8F02042F00102FD
S31508000BA0C3F8F020D3F8FC2042F08072C3F8FC208A
S31508000BB01A4AA3F55D431A60019B194A03F5D52322
S31508000BC003F2FC43B3FBF2F3164A013B136102231B
S31508000BD0C2F8F0304FF48073C2F804334FF0604324
S31508000BE0114AC3F8B02F114AC3F8802ED3F8002E45
S31508000BF042F48072C3F8002EFF2283F82020D3F82F
S31508000C00002E22F48072C3F8002E03B05DF804FBB0
S31508000C10D87B020800D0035000ED00E0FF03004037
S31508000C20F8590D00000004E055CEACC509000100D6
S31508000C304FF06043D3F8802E30B5D20715D501247E
S31508000C400B4D8440D5F8FC2042F08072C5F8FC2094
S31508000C50D3F8002E2243C3F8002E53F82020002A8A
S31508000C60F0D003F82010002030BD1120FCE700BFAB
S31508000C7000ED00E02DE9F04104460C254FF001088F
S31508000C80124E0CB314F001000BD0002024F001041E
S31508000C9005FB00625768002FF3D09168C0B2B847C9
S31508000CA0EFE72246013020284FEA520201D0D30747
S31508000CB0F8D508FA00F20F2824EA0204E8D9103811
S31508000CC005FB0062B432E5E7BDE8F081D00E0020EE
S31508000CD008B50C4825F003FC192003F0FFFF28B1DE
S31508000CE0192004F009F8192003F0EAFF1A2003F086
S31508000CF0F5FF28B11A2003F0FFFF1A2003F0E0FFE2
S31508000D00002008BDD87B02082DE9F0410E46904622
S31508000D10054618B30F2923D80378E3B1012B03D06E
S31508000D20022B18D0032B1BD13F236A78D340DB074D
S31508000D3016D50D4BD3F81043A4B925F095FA0746F6
S31508000D4042462846314603F071FA384625F087FAB6
S31508000D502046BDE8F08140F2FF33E6E72224F7E7B4
S31508000D602124F5E70224F3E700C0035010B5044632
S31508000D70E8B10378C3B1012B03D0022B14D0032B9F
S31508000D8017D13F236278D340DB0712D525F06CFADA
S31508000D900122637821789A4030235943064B5A50EA
S31508000DA025F05DFA002010BD40F2FF33EAE7222065
S31508000DB0F9E72120F7E700BF40D0035010B50446F5
S31508000DC0E8B10378C3B1012B03D0022B14D0032B4F
S31508000DD017D13F236278D340DB0712D525F044FAB2
S31508000DE00122637821789A4030235943064B5A509A
S31508000DF025F035FA002010BD40F2FF33EAE722203D
S31508000E00F9E72120F7E700BF40E0035008B503F0F3
S31508000E1003FA054B00F0553020F05020C3F82004A3
S31508000E20BDE80840FFF726BF00E0035008B503F009
S31508000E30F3F9054B00F0AA3020F0A020C3F82004EF
S31508000E40BDE80840FFF716BF00E0035013B5044697
S31508000E500A4825F044FBA2780421B2FA82F22378E4
S31508000E6052098DF8043063780DEB01008DF80530D2
S31508000E70FFF74AFF002002B010BD00BFD87B02086A
S31508000E802DE9F04F9A46564B85B01B7806460F4615
S31508000E901546DDF83C909DF844B0DDF85080002BEF
S31508000EA000F09780072A00F296800E9B002B00F030
S31508000EB09280B9F1000F00F08E80129BB3F5006F97
S31508000EC000F38980012803D1109B002B00F0838052
S31508000ED0444B03EB05131B7B002B7ED0424C1022A0
S31508000EE00021684622F018FB04EB45141022A7BB24
S31508000EF03946204622F010FB43F210036380BBF10B
S31508000F00000F03D1E37843F00303E370364A0E9BE0
S31508000F1002EB451CCCE90193129B6901581E9DF80A
S31508000F204C30C0F30A0003F003039B0643EA001E95
S31508000F3053582E48012E00EA03004EEA0003CDF866
S31508000F4000A0535017D0B8F1000F2ED19CF80230EC
S31508000F5068F304138CF8023027E00021204622F0BB
S31508000F60DBFA4FF444736380BBF1000FCED1E3780C
S31508000F7043F03003C9E713230CF1100ECCF80C30FC
S31508000F809CE80F008EE80F006FF00301DCF81C20C8
S31508000F90109B61F39F02012FCCF81C20CCF814306B
S31508000FA003D1CCF81890CCF8043000270D4A290153
S31508000FB002EB051342F80180159A28465A606946DD
S31508000FC022469F605E7302F073FF384605B0BDE89F
S31508000FD0F08F0748FAE70748F8E70748F6E700BF3B
S31508000FE0A127002038110020381000200F80FFF3B9
S31508000FF0028000F0018000F0078000F038B5124B3F
S3150800100005461B78DBB1E0B125F02EF90F4A00231F
S315080010101146147B54B92B6001251A0101EB031301
S315080010201D738C5025F01BF9204638BD0133082B5B
S3150800103002F11002EDD125F012F90548F5E7054849
S31508001040F3E70548F1E700BFA12700203811002083
S31508001050048000F0028000F0018000F038B525F029
S3150800106003F9002305460B4A147B6CB90133082B98
S3150800107002F11002F8D102F0C7FE074B28461C7091
S3150800108025F0EDF8204603E0284625F0E8F8034861
S3150800109038BD00BF38110020A1270020058000F0C8
S315080010A00D4B10B51B78044693B1072812D825F0C6
S315080010B0DBF80A4B03EB04131A7B2AB100241C73D2
S315080010C025F0CDF8204610BD25F0C9F80448FAE702
S315080010D00448F8E70448F6E7A1270020381100205D
S315080010E0068000F0028000F0018000F0154B13B571
S315080010F01868002301908DF8043025F0B5F8124BD6
S315080011001C7824B125F0ABF8104802B010BD0122B6
S315080011101A7025F0A4F80E4B01A81C731C7783F8E7
S315080011202C4083F83C4083F84C4083F85C4083F8B5
S315080011306C4083F87C4008238DF8073002F088FE5F
S315080011402046E2E707690208A1270020038000F08D
S3150800115038110020F8B50D4D2D7885B1072810DC1B
S315080011600B4D060105EB0014277B67B1AB51002533
S31508001170069BA560636002F09BFE2846F8BD0548FD
S31508001180FCE70548FAE70548F8E700BFA12700206D
S3150800119038110020028000F0018000F0078000F07E
S315080011A00A4A08B512785AB107280BD8084A02EB3A
S315080011B000131B7B43B1002102F03CFE002008BD52
S315080011C00448FCE70448FAE70448F8E7A1270020A2
S315080011D038110020028000F0018000F0078000F03E
S315080011E00A4A08B512785AB107280BD8084A02EBFA
S315080011F000131B7B43B1012102F01CFE002008BD31
S315080012000448FCE70448FAE70448F8E7A127002061
S3150800121038110020028000F0018000F0078000F0FD
S31508001220184B2DE9F0411F6D5B6D1F4000D5FEE799
S3150800123001260025144CDFF85880374218D0236859
S31508001240C8F85060A3B1A168284601316268A16058
S315080012509847637B012B0BD150B90C4B03EB451315
S315080012601A7B60F341021A731A7F60F341021A77F8
S315080012700135082D4FEA460604F11004DDD1BDE814
S31508001280F08100BF000004503811002038100020FB
S31508001290002004502DE9F04F144605460E469B469D
S315080012A0C36B87B001225B6902A960689847EB6B3C
S315080012B001225B6903A93046984702A819F060FA2B
S315080012C0074648B10023A37563754FF0FF33A36043
S315080012D0002007B0BDE8F08F03A819F05EFA0123D5
S315080012E0A375237E04EBC303DE611F846368B342E0
S315080012F00ED1206003A819F072FA4FF0FF3320755B
S31508001300A360237D043B022B26D80023A375DFE7C1
S3150800131023681A1A53425341A37503A819F05FFAB2
S31508001320237D834218BFA77503A819F03AFA074622
S3150800133002A819F036FA874218BF002303A818BF77
S31508001340A37519F036FA074602A819F032FA874249
S315080013501CBF0023A375D4E703A819F022FA80B1AD
S31508001360EB6B022230465B6904A9984704A819F07A
S3150800137027FA0346207D032839D8DFE800F03838F5
S31508001380040903A8F3E7CC22237E04EBC3031A84DB
S3150800139001F070FA109B187003A8277E19F0F5F96A
S315080013A004EBC70787F82200237E03A804EBC303D0
S315080013B0B3F8209093F8227019F0F3F9804603A841
S315080013C019F0F7F98246B8F1000F15D0EB6B022237
S315080013D030465B6904A9984704A819F0B6F9607500
S315080013E0637D6BB90023A3754FF0000838E0227EB1
S315080013F004EBC2021384CBE703A819F091F9EEE7D0
S3150800140094F81680B8F1000FEED0B9F1000F09D1A3
S31508001410DFB10123E375637E002B4FD1012F42D143
S31508001420677614E06B6C06EB0A02594286EA0200FC
S3150800143008421CBF0021A175591E0A409B1A9945EE
S31508001440D0D8A37D002BE3D1CEE7E37D43B94FF097
S3150800145000084B4652463146284618F0CFFEA06093
S31508001460A27D12B123694B4423611A49237E097868
S3150800147099422AD901332376BBF1000F27D032B31C
S31508001480E37D23B3B8F1000F21D1032F1FD0A16844
S315080014904B1C1CD0109B2246009328460123FFF7BD
S315080014A0F9FEA07513E095F8343063B9EB6A013399
S315080014B0CFD1032FCDD10123A376C8E7012FCFD0F3
S315080014C0032FC4D1F7E79846C3E70023A375A07D89
S315080014D0FFE600BF2C6902082DE9F04F0E46984634
S315080014E000238BB004464FF0FF31104617468DF89F
S315080014F0133001F0A9F9B6F5801F3BD3B21C53D1BE
S31508001500E56A6B1C57D12046616A18F0BDFD054691
S31508001510B31C18BF0123DFF810910193636A626C4C
S315080015200293236805A902FB053AE36B05225B696A
S315080015305046984705A819F0BEF919F0E1F9504642
S3150800154019F0E9F94FF0000B824601464B1C05D00D
S31508001550636C81EA0A025B42134232D0294620466E
S3150800156018F092FD029BAB424DD0BBF1000F4DD156
S315080015700546D3E7314605AA04F1080019F04EF8E6
S315080015800146481C10D0384601F05EF9012239465A
S3150800159020460DF1130318F083FE28B19DF8133089
S315080015A088F80030002003E0237C002BA8D12D20EA
S315080015B00BB0BDE8F08F2368ED1A636CB5FBF3F545
S315080015C0A6E7484601F040F90DF1130349462046BF
S315080015D0019A18F065FE034690B1B21C03D0D9F8FB
S315080015E00020B2420CD19DF8132003930D4B88F8C6
S315080015F0002049461A68384621F099FF039B9B4606
S31508001600D9F80810A2E7BBF1000FD0D0B6F5801FB5
S31508001610C8D2314698F800307A6804F1080001F01B
S3150800162041F8BFE7286902082C1800202DE9F34184
S315080016300446174698460E46194D816AE36A8B4258
S315080016402AD04B1C18E0284601F0FEF8012229464C
S3150800165020460DF1070318F023FE30B1434629460C
S3150800166020469DF80720B847B0B1A9684A1C05D09E
S31508001670012E0AD0E36A9942E5D10DE06968204651
S3150800168018F08FFD012E0146D8D16B6881EA030256
S31508001690636C5B421A42D1D002B0BDE8F08100BF4C
S315080016A0001800202DE9F04F4FF0FF334FF6FF7278
S315080016B00025044600F10806C0E909238BB0C36279
S315080016C00562056330460F4618F079FF204618F084
S315080016D0ABFC20BB2046394618F026FD204618F0FC
S315080016E0A3FC20BB5E200BB0BDE8F08FE26B23683D
S315080016F0606CD2F814C000FB0530052205A9E04746
S3150800170005A819F0D8F8012828D12946204618F046
S31508001710DCFC421C2946204618F0A5FC0135E36985
S315080017209D42E3D3204618F07FFC0028D2D000253E
S315080017304FF0FF394FF6FF73CA46A846C4E9085367
S31508001740E369984514D3A5EB0905012D36D84FF65C
S31508001750FF72636A934246D16720C4E719F0D5F849
S315080017600028DBD02946204618F0AFFC0246D1E710
S315080017702368E26B606C576900FB0830052205A9EF
S31508001780B84705A819F097F8834605A819F06AF826
S315080017900746584619F0B4F868B1574538BFC4F833
S315080017A02480B94528BFB946BD4238BF3D46BA462A
S315080017B0236A0133236208F10108C1E74FF6FF7374
S315080017C000256362E3699D42C1D2676C2068E36BBA
S315080017D0052207FB05005B6905A9984705A819F0C6
S315080017E041F80135EEE7E26B676C2068694607FB4E
S315080017F0030055690522A847684619F033F8626A56
S315080018002368606C4B4D00FB023019F084F84FF0EA
S31508001810FF33A062E3622A466FF00101204605AB5A
S31508001820FFF75AFE002846D1AD6829462046E562EC
S3150800183018F0D6FB206320B92046E16A18F0B1FCFF
S31508001840E0622946204618F0ACFC0546A36A9D428C
S3150800185033D1204618F097FB00278046B946E3693E
S3150800186099453CD3B84559D92046616A18F00CFC0D
S315080018700026054604F1400AB74212D8626C23686E
S31508001880694602FB0539E36B05225B6948469847BA
S31508001890684618F0E7FF534602464946E06B19F0DA
S315080018A03CF82946204618F0EFFB0136B0450546B8
S315080018B0E2D1642017E7A56AB7E72946204618F05B
S315080018C08FFB236B2946034407462363204618F0FB
S315080018D068FC0546002FB9D1C4E90B07B6E7636C67
S315080018E02568052203FB0955E36B05A95B692846AC
S315080018F0984705A818F0DFFF19F002F858B12846EE
S3150800190019F009F80146204618F06AFB636C143B87
S31508001910984208BF013709F10109A0E7304618F0D7
S315080019204EFE002320461946034AFFF77FFE002095
S31508001930D9E600BF581800208FA201082DE9F0410A
S31508001940036B9046826B07689A4288BF8363426C32
S31508001950436A90B002FB0377C36B0E46052201A9C2
S315080019605B6904463846984701A818F0A4FF012881
S315080019700146307057D0656CE26B2368606AD2F80E
S3150800198014C005FB0030052206A9E04706A818F092
S3150800199092FF01284FF0000523D0D4E90A3201212D
S315080019A09342CDE90B458DF834800E958DF83C10A1
S315080019B02AD11946204618F0F4FB236B626C1433BF
S315080019C09B1AE06223630C9B53B99DF83C303BB1EC
S315080019D0626A616C2368E06B01FB023118F023FF31
S315080019E00C9DE36B05225B6901A93846984701A857
S315080019F018F061FF30702846236BA26B9A4288BFA5
S31508001A00A36310B0BDE8F081237C33B91C490BAA47
S31508001A1004F1080000F094FED5E72046194A0BABFE
S31508001A20FFF704FECFE7237C23BB2246164904F1C1
S31508001A30080000F085FE616A204618F046FB616AD8
S31508001A40421C204618F00FFB054620B9236B626C32
S31508001A501344143B23632046A16A18F0A2FB2368AB
S31508001A60A062C01A636CB0FBF3F06062204618F0FF
S31508001A70DBFBB6E700232046044AFFF7D7FDDAE783
S31508001A80B12100082D21000829A30108C5A20108D3
S31508001A9073B50D46D11E4A421C461B7E4A419A42E0
S31508001AA026D129682368994222D3636899421FD8A8
S31508001AB0114E0DF107033246FFF70EFDC0B97268E5
S31508001AC06B689A4214D19DF80730DA1E5342534187
S31508001AD0227E93420CD1636901336361D4E90323FF
S31508001AE0934205D22968A26842F82310013323617C
S31508001AF0012002B070BD00BF581800202DE9F04F34
S31508001B009A468BB09DF85030DFF850B10293DBF857
S31508001B101030804653450D461646C0F09980D1468A
S31508001B20DBF804300193B9F1000F00F08D80D8F886
S31508001B303C3001225B6907A90198984707A818F065
S31508001B402CFEDBF80030984240F0858007A818F094
S31508001B5030FE0428074614D107A818F031FE019B69
S31508001B60029A04463B44002A3FD1864212D91446BB
S31508001B70361A4046019918F014FBA9EB040901909E
S31508001B80D1E7D8F83C3002225B69019808A9984742
S31508001B9008A8E2E7841B544528BF5446032C03EBE8
S31508001BA00607AAEB040A4FEA94021CD9D8F83C3077
S31508001BB0294638465B69984724F0030304F0030670
S31508001BC01F441D44002ED4D0D8F83C3001225B694E
S31508001BD008A9384698473246284608A9354421F0C8
S31508001BE0A6FC0026C5E72646ECE7074600F00302F2
S31508001BF0039203442A1804920593049BDD1B059B54
S31508001C00D81B039B9F420FD1002FB2D0D8F83C3087
S31508001C10012208A95B6998473A46284608A921F08F
S31508001C2051FC78B93D44A4E7D8F83C30012208A90C
S31508001C305B6998470422284608A921F043FC08B99D
S31508001C40043FDAE74FF0360948460BB0BDE8F08F97
S31508001C504FF06309F8E74FF06F09F5E7841800209D
S31508001C602DE9F0410F4616469846044688B060B3FB
S31508001C7090F83450FDB1012118F0CBF900210E9BE4
S31508001C80CDE90511CDE902379DF83C30CDF8048041
S31508001C908DF81C30237C04968BB90D4901AA04F1F2
S31508001CA0080000F04DFDDDE90553E06B002E08BF86
S31508001CB01D4618F047FB284608B0BDE8F0812046C7
S31508001CC0044A01ABFFF7B2FCEDE70546F3E700BFB0
S31508001CD0F3A20108911A00082DE9F04F99B00F46B2
S31508001CE009920A69416C0E931439D31DB3FBF1F3BB
S31508001CF0013302EBC302036B04469342C0F0B3817F
S31508001D000023DFF824940D93E36A4846194607939F
S31508001D1000F09AFDD7E9033604930E9B022B4ED1A9
S31508001D20CC2E40F08A81099B002B42D039462046AA
S31508001D3018F066FB656C079A6B1E13401490ED1A33
S31508001D40E36B01225B6916A97868984716A818F00C
S31508001D5028FD00280CBF04230823782E06933DD9B6
S31508001D60012300254FF0080A05933B6805990E984C
S31508001D70C9F80030C9F8106018F035FD4FEA9A0323
S31508001D8010930023DDF81CB089F814000B930F9309
S31508001D9008930C93616C4A1E0BEA02028B1A002EFA
S31508001DA038D05544AB4240D8236B5B1A134423639F
S31508001DB0ABE0049B1B68149308230693D0E7656C75
S31508001DC0079A6B1E1340782EA5EB030516D8FB7DE4
S31508001DD07BB9099B002BB3D104230693331DAB4271
S31508001DE010D9A6B1082DBBD804250023AA46059309
S31508001DF0BBE7099B002BA3D10823EEE7099B002B21
S31508001E009ED1D9E7002505954FF0040AADE70425CC
S31508001E100596F9E75345C7D3B0460BEB0A03039378
S31508001E20089B002B18BF032313E0A3EB0A039E426B
S31508001E30B0460BEB0A0228BF98469E420392EFD99A
S31508001E400123D9F8102089F81730964271D1C9F8BC
S31508001E5004B0089399F81730002B6CD099F818201D
S31508001E600899D31C09EBC3030132C3F804B0A3F8DD
S31508001E700880997289F81820B8F1000F14D00E9BC3
S31508001E80022B5BD10B9B7BB90F9B4344032B0BD9CE
S31508001E90E36B01229B69039814A998470546002815
S31508001EA040F0E38001230B93089B16A80193059B3A
S31508001EB0009399F814204346396800F07BFCE36BDD
S31508001EC058469B69109A16A99847051E0D9B18BF78
S31508001ED05B4652460D9359464346204618F08EF9FE
S31508001EE0236B08F10302A3EB0A0322F003029B1AF1
S31508001EF0C9F808002363002D40F0B7800F9BDDF872
S31508001F000CB04344A6EB08060F935946204618F032
S31508001F1048F900258346002E7FF43CAF824A39688B
S31508001F20936804F10800E36252680E9B00F0BAFB5E
S31508001F3084E002238DE7C9F804B09DE7099B002BCE
S31508001F4030D1049BB8F1030F43440A9327D9DDE93E
S31508001F500301E36B4FEA98029B69984705460028F8
S31508001F6065D118F003025FD0049B28F003052B44C3
S31508001F700493039B1D444FF0FF33049915A815934A
S31508001F8021F0D5FAE36B28469B69012215A99847E3
S31508001F9005460A9B0493002D86D0039B99E7424683
S31508001FA0039DE8E7039B0A9307F120031193FB7D42
S31508001FB078689BB100233D7E0C9AD9B28D4211D91F
S31508001FC0119903F1010C31F83310914226D906997B
S31508001FD007EBC303D8690A44104403E00C9B069A2E
S31508001FE013441844E36B01225B6915A99847159BAE
S31508001FF0012213930C9B0A9804330C93E36B13A9E1
S315080020009B699847039B0A9A43449B1A042B0546E7
S3150800201007D978B9134604330A93C8E76346521AB0
S31508002020CBE70A9B0393B6E70A9B04933CE70A9B14
S315080020300493B2E70A9B0393AFE77026304619B0BC
S31508002040BDE8F08F4FF0000A4FE03A69616CD31D86
S315080020501439B3FBF1F3013302EBC302236B93424A
S31508002060BFF452AE5DE01C26E8E73D2D59D104F1D8
S31508002070080303932368079A606CA2EB030ABAFB6A
S31508002080F0FA00FB0A3018F046FCE16A8046204662
S3150800209018F087F8A26A8242D7D0626CD9F808305D
S315080020A0511E0B40216B2668891A0B4423630D9B2E
S315080020B0E0629E1BB6FBF2F6B245C3D1079BB3EBB3
S315080020C0080A12D0E36B4FEA9A0241469B69984781
S315080020D08346E36A079A5344E362236B03989B1A81
S315080020E04344236318F06BFADA462368616CE06BA5
S315080020F001FB063118F084FB204617F095FF2046B1
S3150800210018F092F82063BAF1000F9ED03A69616C14
S31508002110D31D1439B3FBF1F3013302EBC30290422A
S31508002120A8D22E468AE700BF2C180020032A2DE9DC
S31508002130F34106460D4617461C4606D1237A012B5F
S3150800214023D0012002B0BDE8F081DFF8608009687D
S3150800215042460DF10703FFF7BFF960600028EDD18D
S315080021609DF80720237A032AE8D0D8F804106A686D
S315080021709142E3D1012B2969D4F80CC007D17269C1
S315080021800CEB0103934202D92074207CDAE708316C
S315080021906144E1603B46012229463046FFF79CFD33
S315080021A060600028CAD00020CCE700BF581800207D
S315080021B02DE9F341089C032A1746266806D1237A97
S315080021C0012B24D0012002B0BDE8F081DFF8908011
S315080021D0304642460DF10703FFF77EF96060002896
S315080021E0EDD12568D8F80400A96AD5F844C0484056
S315080021F0CCF100031840227AE1D1012A09D1E2681C
S31508002200D8F8103013447269934202D92074207C9E
S31508002210D9E72868EB6A1B1A081AB3FBFCF3B0FB6C
S31508002220FCF083420BD1706CF36A421E1340326B8A
S31508002230121A13442846336317F0B3FFE862D8F836
S315080022401020E36808321344E36001223B46044940
S315080022502068FFF741FD60600028B0D00020B2E793
S31508002260581800202DE9F0410025634B0E46D3F897
S31508002270008004461D6018B921252846BDE8F0816E
S3150800228090F8347007B30A6803689A4240F0AA8047
S315080022904A6843689A4240F0A5808A6883689A42E9
S315080022A040F0A080CA68C3689A4240F09B800A69D9
S315080022B043699A4240F096808A69C36B9A4240F015
S315080022C091804B698361D8E768223946856B21F08E
S315080022D023F9D6E90212336804F10800236073680B
S315080022E0A5636360336963617369A36118F079F95B
S315080022F0B36904F14000E3639B68984720B9676CAB
S3150800230017B16368B3FBF7F794F84330E761002B1E
S31508002310B2D00023656C2366002D6BD0002F69D0E0
S315080023202368B3FBF5F205FB1233002B5CD1676813
S31508002330B7FBF5F605FB1676002E55D1204617F0A5
S315080023403FFEA369043303449F424FD340F63472D9
S315080023506369CC3B93424BD8B5F5805F4AD30321DA
S31508002360204617F056FED4E90001E36B1B68984730
S315080023700546E36B0220DB6898472DB184F8346084
S31508002380E06B17F0DFFF78E741462046FFF78AF94A
S315080023906428054604D141462046FFF783F90546D9
S315080023A0636C143BD5B9226A204602FB03F617F084
S315080023B007FEA369043303449E4203D284F83450CB
S315080023C05A25DDE70123D4E900010C4A84F83430A4
S315080023D013680133136018F09EF9D1E7002384F8D7
S315080023E03430CDE75D2548E7592546E75A2544E7C1
S315080023F05F2542E75B2540E7BC110020B8110020A5
S315080024002DE9FF410C4616461F46054680B390F84F
S3150800241034307BB3B1F5801F2ED2DFF860800121FE
S3150800242017F0F7FD2146424628460DF10F03FFF740
S3150800243053F8044670B99DF80F30012B11D1D8F81E
S315080024401030BB4212D10246009031462846FFF7AB
S3150800245055FB0446E86B17F075FF204604B0BDE847
S31508002460F081022B14BF2D246024F3E76324F1E7DF
S315080024702124F2E71124F0E72924EEE78418002046
S315080024802DE9F3411F4600230C46164605463B60D8
S3150800249050B390F834304BB3B1F5801F28D2DFF82B
S315080024A05480012117F0B5FD2146424628460DF114
S315080024B00703FFF711F80446A0B99DF80730032B68
S315080024C010D0022B0AD10123336004233B60E86B4A
S315080024D017F038FF204602B0BDE8F081D8F8103072
S315080024E03060F3E72D24F2E72124F3E71124F1E71E
S315080024F02924EFE78418002073B50446056B17F006
S315080025005FFD636E03449D422CBF00230123854271
S3150800251094BF00252D1A207C84F85030656584F810
S315080025205800A8B100230C4E1A46194620460096B4
S3150800253018F033F8002305461A4619462046009631
S3150800254018F034F8E3682844984294BF0020C01A6B
S31508002550E06502B070BD00BFFFFF0F002DE9F3472D
S315080025601E4643690446B342884617469DF8289096
S315080025704ED300258DF80750204617F021FDD4F8D4
S3150800258030A082450AD2236AB5EB430F06D2002251
S3150800259020460DF10701FFF7D1F9B8B39DF80730CA
S315080025A0012B05D1002220460DF10701FFF7C6F9D8
S315080025B0B9F1030F06D03146204617F0F1FC256B1A
S315080025C0854227D3144D4FF0FF31284600F03CF9D9
S315080025D04B46294600222046C5E90376C5F8008001
S315080025E0FFF77AFB236E054663B12046FFF784FFA3
S315080025F094F8503013B994F858301BB1236E04F18F
S3150800260050009847284602B0BDE8F0870135B3E781
S315080026106225F7E71C25F5E7581800202DE9FF4144
S315080026200F4690461E46054698B390F8343093B345
S31508002630B1F5801F31D21A4C022117F0EAFC224666
S31508002640394628460DF10F03FEF746FF024678B1D4
S31508002650012342460093394633462846FFF77EFF54
S315080026600446E86B17F06EFE204604B0BDE8F0811C
S315080026709DF80F30012BEBD12169B142E8D10093C7
S31508002680414633462846FFF739FA04460028DFD183
S31508002690E7E72124E8E71124E6E72924E4E700BF71
S315080026A0841800202DE9F043466886B305689846E5
S315080026B04FF0000CA946AE4655F83C400CF1010C0B
S315080026C0C4F31307013401D0B94217D066450EF199
S315080026D0080EF1D12F46002403E0A64207F10807A9
S315080026E012D055F8343001340133F6D1C1F3130151
S315080026F041EA0851C7E90012BDE8F08341EA0851EA
S31508002700CEE90012BDE8F083B8F1030F03D1012327
S315080027100372BDE8F083002303E09E4209F108092D
S31508002720F5D055F833400133C4F30754032CF4D1DC
S31508002730C1F3130343EA0853C9E90032BDE8F0833D
S315080027402DE9F0410646406882B0C0B10F46904672
S315080027500024336853F8345003EBC403C5F3075217
S31508002760C5F31301013504F1010406D05B68304650
S31508002770CDF80080B84710B170688442E9D302B03A
S31508002780BDE8F081024B1968024B1868FFF76ABD6D
S31508002790902A0020B02A002008B523F05CFD014BE2
S315080027A0186008BDB0180020014B186823F04EBD0C
S315080027B0B018002073B504462248012A00EAC11160
S315080027C09DF8185023F07C4007D9961E012E28D96B
S315080027D0073303F07F03194308E09DF81C300A43CA
S315080027E0DB0603F0C053134343F060410023C4E9FA
S315080027F000108DF80730B5B1202221460DF10700EB
S3150800280018F0A5F81A220DF10700211D18F09FF8F7
S31508002810082063689DF8072043EA8263636002B074
S3150800282070BD1143E2E71B220DF10700214618F09F
S315080028308EF823689DF80720042043EAC2632360C4
S31508002840EDE700BF80FFFF0738B5094B0D461A684C
S315080028500021044620F060FE00234FF0FF32238358
S31508002860C4E900252361A260E382A37638BD00BFD0
S31508002870286902080138C0B205289ABF014B185CBE
S31508002880012070472D6902082DE9F04107461546D3
S3150800289000240E46596888B0490A012922464FEA9B
S315080028A0510104F10104F8D8DC78997824031B88CF
S315080028B0C90201F4006104F480540C43C3F30A030B
S315080028C05203234492B24FF000089C18274B6FEA34
S315080028D00444039325F07843ED4302A90DF107005C
S315080028E01B2202938DF8078018F031F89DF807200F
S315080028F0029B02A943EAC2630DF107001B2225F0D9
S315080029007845049302958DF8078018F020F89DF80D
S315080029100720029B6FEA144443EAC26305934FF00B
S31508002920FF330794069307A9BB69012206F1100035
S315080029309847BB6905A90446012206F1080098478D
S31508002940BB69404518BF044604A90122301D9847B3
S315080029500122404518BF0446BB69304603A998477B
S31508002960404508BF204608B0BDE8F08101009AB28C
S31508002970044BD3F88420D206FBD4D3F88400C0F3E2
S31508002980811070470040005038B5174B0546D3F8FC
S3150800299028310C4603F00703013B052B20D8DFE856
S315080029A003F003131B0F0B1722F020FA052305B1BA
S315080029B0286004B1236038BD22F018FA0623F6E72A
S315080029C022F05EFA0723F2E722F050FA0323EEE735
S315080029D022F04CFA0423EAE722F044FA0223E6E757
S315080029E000231846E3E700BF00800050002337B5F0
S315080029F00193164B0546D3F820320C4603F007031D
S31508002A00042B21D8DFE803F0030B11161B00012362
S31508002A100DB1019A2A6004B1236003B030BD0021CC
S31508002A2001A8FFF7B1FF1223F2E722F029FA0723DC
S31508002A300190EDE723F004FC0A230190E8E722F071
S31508002A4067FA09230190E3E70023E1E700800050D5
S31508002A5038B5104B0546D3F880300C4603F003030F
S31508002A60022B0BD0032B0DD0012B0FD122F0C4F96A
S31508002A700E2305B1286004B1236038BD22F000FAA0
S31508002A800723F6E722F0B2F90623F2E700231846F1
S31508002A90EFE700BF0080005038B5104B0546D3F865
S31508002AA000310C4603F00303022B0BD0032B0DD089
S31508002AB0012B0FD122F0DAF9032305B1286004B1FE
S31508002AC0236038BD22F024FA0923F6E722F0D4F968
S31508002AD00823F2E701230020EFE700BF008000503B
S31508002AE038B5184B0546D3F820010C4600F0070008
S31508002AF0062823D8DFE800F0040A0E16121A1E006C
S31508002B00012305B1286004B1236038BD22F06EF9AF
S31508002B100523F6E722F0AAF90323F2E722F0B0F933
S31508002B200723EEE722F09EF90223EAE722F05EF990
S31508002B300623E6E722F09AF90423E2E7002318467B
S31508002B40DFE700BF0080005038B5104B0546D3F8C4
S31508002B5040310C4603F00303022B0BD0032B0DD098
S31508002B60012B0FD123F06CFB0A2305B1286004B1B1
S31508002B70236038BD22F0CCF90923F6E723F063FB7E
S31508002B800C23F2E701230020EFE700BF0080005086
S31508002B90002337B50193164B0546D3F860320C4629
S31508002BA003F00703013B032B1FD8DFE803F0020EEF
S31508002BB01914002101A8FFF793FF10230DB1019AFC
S31508002BC02A6004B1236003B030BD002101A8FFF7D5
S31508002BD0BBFF1123F2E722F053F907230190EDE733
S31508002BE022F040F902230190E8E70023E6E700BF58
S31508002BF000800050002337B50193164B0546D3F8DD
S31508002C0094320C4603F00703013B032B1FD8DFE879
S31508002C1003F0020E1914002101A8FFF761FF102323
S31508002C200DB1019A2A6004B1236003B030BD0021BA
S31508002C3001A8FFF789FF1123F2E722F021F90723FC
S31508002C400190EDE722F00EF902230190E8E7002350
S31508002C50E6E700BF0080005038B5104B0546D3F8AC
S31508002C6060310C4603F00303022B0BD0032B0DD067
S31508002C70012B0FD123F0E4FA0A2305B1286004B129
S31508002C80236038BD22F044F90923F6E723F0DBFA7E
S31508002C900C23F2E701230020EFE700BF0080005075
S31508002CA02E4B98424AD022D82D4B984240D014D861
S31508002CB02C4B984239D00AD82B4B984232D02B4B02
S31508002CC098422FD02A4B98422CD000207047294B87
S31508002CD09842FAD1284B186F7047284B98422AD049
S31508002CE0274B9842F1D1244BD3F880007047254BE7
S31508002CF098422BD009D8244B984223D0234B98428C
S31508002D00E3D11D4BD3F88C007047214B984221D054
S31508002D1003F5740303F510539842D6D1164BD3F82E
S31508002D2098007047144B986D7047134B586E704750
S31508002D30114B586F7047104B986F70470E4BD3F86E
S31508002D40840070470C4BD3F8880070470A4BD3F8B9
S31508002D5090007047084BD3F8940070470048E80184
S31508002D600024F400C0CF6A0080841E0000093D00DC
S31508002D7040420F00405DC6000080E00FC0EA210116
S31508002D8080BA8C01007E560380D54302006CDC02B3
S31508002D900090D00373B50D460021114B0191D3F86D
S31508002DA08041064604F00304022C13D0032C0CD0F1
S31508002DB0012C13D101A8FFF793FE10240EB1019B35
S31508002DC0336005B12C6002B070BD22F059F80724B3
S31508002DD00190F3E722F046F80190EFE70C46EDE79D
S31508002DE00080005038B5104B0546D3F840320C46E3
S31508002DF003F00303022B0BD0032B0DD0012B0FD1AD
S31508002E0023F01EFA0A2305B1286004B1236038BDF1
S31508002E1022F07EF80923F6E723F015FA0C23F2E7E9
S31508002E2001230020EFE700BF0080005038B5144B9F
S31508002E300546D3F800020C4600F0070004281BD804
S31508002E40DFE800F003090D111500012305B128601C
S31508002E5004B1236038BD23F0F3F90A23F6E722F01C
S31508002E6057F80923F2E723F0EEF90C23EEE721F0F1
S31508002E70E3FF0F23800AE9E700231846E6E700BFC9
S31508002E800080005038B5144B0546D3F808020C46A6
S31508002E9000F0070004281BD8DFE800F003090D112D
S31508002EA01500012305B1286004B1236038BD23F05D
S31508002EB0C7F90A23F6E722F02BF80923F2E723F0ED
S31508002EC0C2F90C23EEE721F0B7FF0F23800AE9E7E2
S31508002ED000231846E6E700BF00800050B0F5207FC3
S31508002EE01FD009D8B0F5007F15D003D868B1B0F562
S31508002EF0C07F0AD000200CE0B0F5607FFAD10B4BFA
S31508002F00D3F88000C0F3011003E0084B186FC0F334
S31508002F10033001307047054BD3F89000C0F30460C6
S31508002F20F7E7024B186FC0F38020F2E700800050E5
S31508002F3002464FF48030104B10B598660020FFF714
S31508002F40CDFF504341F671320C4BDC69DA635A689F
S31508002F5004F4803422F4401259B90949884294BFCE
S31508002F6000200120000502435A600CB10022DA63F2
S31508002F7010BD0449F2E700BF00900050000003505E
S31508002F80005A6202002D3101430905D0012B0CD0ED
S31508002F90022B084B18BF002300F01F0039B103F5B8
S31508002FA08053012282401A607047034BF4E703F509
S31508002FB00053F6E768800050648000501FB5002172
S31508002FC0B0F5807F0446CDE9001100F0D2803AD8EA
S31508002FD05E2833D85E2833D8DFE800F0453232322F
S31508002FE032323232323232323232323232323232B3
S31508002FF032323232323232323232323245AC45AC89
S31508003000BCBCBCBCBCACC64E6BDC4EACACAC323249
S31508003010323232323232ACACAC7EE6AC323232329A
S31508003020323232323232323232BC454545E14E4EC8
S31508003030EB8D63C132323232329E4500802870D021
S31508003040009804B010BDB0F5D06F00F0A38035D855
S31508003050B0F5607F79D01AD8B0F5007F65D005D86D
S31508003060B0F5C07FECD121F0E7FE5CE0B0F5207F3B
S3150800307060D0B0F5407FE3D121F0DEFE02464FF482
S315080030802070FFF72BFFB2FBF0F252085BE0B0F5B9
S31508003090B06F69D00AD8B0F5806F5BD0B0F5A06F75
S315080030A0CED100216846FFF7A1FCC9E7B0F5C06F8D
S315080030B0C6D100216846FFF747FDC1E7B0F5106F96
S315080030C06DD00ED8B0F5086F78D0B9D8B0F5E06FE6
S315080030D06AD0B0F5F06FB3D100216846FFF7BCFDA2
S315080030E0AEE7B0F5406F3AD013D8B0F5206F60D090
S315080030F0B0F5286FA4D10021324B0391D3F8703272
S3150800310003F00303012B02D103A8FFF71DFD039B60
S3150800311039E0B0F5486F93D100216846FFF76AFD9C
S315080031208EE721F069FE00908AE721F065FE0246E7
S31508003130204604E021F080FE02464FF42070FFF797
S31508003140CDFEB2FBF0F200927AE701A8FFF780FC09
S31508003150019AEDE700216846FFF7C2FC70E70021F7
S315080031606846FFF711FC6BE700216846FFF712FE79
S3150800317066E74FF0E02302911B695B0705D521F04E
S315080031805BFE0290029B00935AE703A902A8FFF789
S31508003190DBFCF7E700216846FFF748FE50E7002109
S315080031A06846FFF76FFE4BE700216846FFF71AFEF1
S315080031B046E700216846FFF7EBFC41E76846FFF75C
S315080031C06BFC3DE70080005008B58020FFF7F6FE4F
S315080031D0034B98429EBF4FF48032024B1A6708BDD4
S315080031E0005A620200A000501FB503460020B3F53E
S315080031F0807F019000F0C58065D85D2B56D84C2B92
S3150800320007D82D2B48D8232B2CD8019805B05DF864
S3150800321004FB4D3B102BF8D801A252F823F000BF4F
S31508003220793300080B3200080B3200080B3200080D
S31508003230273300080B3200080B320008D333000886
S3150800324045330008EB320008C93300080B32000882
S315080032500B3200080B3200080B3200080B3200084C
S31508003260DD330008243B092BCFD801A252F823F0FE
S315080032707933000879330008793300087933000870
S31508003280793300080B3200086F3300080B32000848
S3150800329007330008AF3300083D2B00F083803E2B30
S315080032A0B3D1002001A9FFF79DFDAEE7802BACD175
S315080032B0504B1B6F03F00703013B032BA5D8DFE830
S315080032C003F0544D5052B3F5F06F6BD020D8B3F5D8
S315080032D0B06F4CD00ED8B3F5607F71D095D3B3F5E7
S315080032E0806F49D0B3F5A06F8FD1002001A9FFF7F1
S315080032F07DFB8AE7B3F5D06F59D0B3F5E06FD0D030
S31508003300B3F5C06F81D1002001A9FFF71DFC7CE74A
S31508003310B3F5206F5DD00BD8B3F5086F4CD0B3F575
S31508003320106F7FF472AF002001A9FFF7ABFD6CE7C1
S31508003330B3F5406F48D0B3F5486F4FD0B3F5286F53
S315080033407FF463AF2B4BD3F8703203F00303012BE2
S3150800335049D0022B0CBF1523002300E00523019357
S3150800336053E70323FBE70823F9E70223F7E70020DF
S3150800337001A9FFF70FFD48E7002001A9FFF7B0FBF9
S3150800338043E74FF0E02302901B695B0705D521F060
S3150800339053FD0D230393039BE1E703A902A8FFF757
S315080033A0D3FBF8E7002001A9FFF756FC2DE700201C
S315080033B001A9FFF73BFD28E701A9FFF76DFB24E705
S315080033C001A9FFF745FB20E7002001A9FFF7DCFA72
S315080033D01BE7002001A9FFF7DBFB16E7002001A980
S315080033E0FFF708FC11E7002103A8FFF7ADFB11233F
S315080033F0B5E700BF008000504FF48032074B0849FC
S31508003400586E03F580535A664B6A23F001034B62E4
S31508003410C3035CBF034B5A66704700BF0080005069
S3150800342000C0075000A0005008B5FFF7DDFE0928C8
S3150800343011D00A38012802D94FF6FF7008BD4FF49B
S315080034408002064B5A6603F5D8335B6ADB07F3D569
S315080034504FF4FA70F2E7024B1888EFE70090005035
S315080034600A2C002008B5FFF7BFFE03280ABF024B47
S315080034704FF6FF70188808BD082C002038B504469A
S315080034808020FFF7B1FE032800F083804FF48012F6
S31508003490524B4FF0A0615A6645F60E02504BC3F8E0
S315080034A08020504A91624FF4803102F58052916231
S315080034B09A6DD203FCD4996D11F08041FBD1D4E901
S315080034C00002120542EA0062E07B0243207B42EAE0
S315080034D00042607B42EA0032A07B42EA80121A610F
S315080034E09869D4E90452120642EA856200F000405F
S315080034F00243A07EE57E0243207E42EA0042607EC9
S3150800350042EA00229A611A6AE06922F00F0242EA48
S315080035108502354D00283DD11A6294F82420996A0F
S3150800352094F82000D200294042EA40120A4394F84F
S31508003530211042EA011242F480329A622B49284A43
S31508003540936D31EA0303FBD14FF080712548816200
S315080035501369A56823F4700343EA055313614FF012
S315080035600043836194F822300BB9214B996294F891
S3150800357023303BB94FF480321D4B9A62184A936D3B
S315080035805B00FCD494F825301BB1154B194AC3F8D7
S31508003590802038BD024342F0080202281A6208D188
S315080035A019614FF40852996113484FF47F4117F097
S315080035B0ECF90B4994F822308A6A94F820001B0625
S315080035C02A4043EA4013134394F8242043EAC203EB
S315080035D094F8232043EA02438B62D3E70090005015
S315080035E00040005A0050005AC7FFFEFE03000100C3
S315080035F00060005AF1A7FFFF3440005A014B93F9C7
S3150800360000007047372C0020F0B5D0E901434FF48D
S3150800361000061A4A4178057856664FF4D1560227AD
S3150800362002F5B8325662164E4F2977604FF00107F9
S3150800363028BF4F2106F5805677601669F603FCD435
S3150800364041EA052151611B01417B43EA04230B43EF
S31508003650017B43EA41039360C37B817B1B0143EAF9
S315080036604113417C0B43017C43EA41035360837C4D
S3150800367013B16FF4D1535362F0BD00BF00900050F0
S3150800368000100250014B1880704700BF0A2C00201A
S31508003690014B1880704700BF082C00204FF48002A9
S315080036A008B5184B5A660223174A5360936813F4F1
S315080036B08033FBD1012822D121F0D8FB134B984245
S315080036C015D003F5122303F5F863984213D0104B6F
S315080036D000EB8002400AB3FBF0F3520A0A49CA62B9
S315080036E00B6301234B620022074B5A6008BD45F65F
S315080036F07A13084AF2E745F61A03074AEEE75362D1
S31508003700F1E700BF009000500040025000F0490267
S3150800371064666666D8B80500BBCF0500B0F5207F9D
S3150800372010B50C465DD008D8B0F5007F4ED003D84A
S31508003730C0B1B0F5C07F15D010BDB0F5607FFBD124
S315080037402C4B4C1ED3F8FC202B4912F0807F4FEAF5
S31508003750041427D1D1F8803023F030032343C1F86D
S315080037608030E9E717F020F917F02CF94FF480318B
S31508003770224B214A1967136F013C23F4704343EA2D
S315080037800433136721F058FB0446FFF7F1F8C0F13C
S315080037900201204617F010F900F04AF8BDE810407B
S315080037A0FFF712BDD3F8FC2022F08072C3F8FC2084
S315080037B0D1F8802022F030022243C1F88020D3F8C5
S315080037C0FC2042F08072C3F8FC20B5E70A4A4C1E7A
S315080037D0D2F8903023F0F85343EA0463C2F89030E5
S315080037E0AAE7054A4C1E136F23F4806343EA842331
S315080037F01367A1E700ED00E000800050009000503C
S3150800380008B50121022000F073F94FF42070FFF784
S3150800381065FB054B187017F0C7F817F0D3F84FF487
S315080038208032024B1A6708BDA2270020009000507C
S3150800383008B54FF4C070FFF7C1FBBDE8084004495E
S31508003840884294BF012102214FF42070FFF766BF1A
S3150800385080F0FA0238B5044621F0EEFA0546FFF77D
S3150800386087F8C0F10201284617F0A6F801210020C2
S3150800387000F07EF92CB1FFF7DBFFBDE83840FFF713
S31508003880A3BC034B4FF420701978FFF747FFF4E702
S31508003890A22700204FF4C02270B50546FFF700FAAC
S315080038A0314B04465A6603F598335A68012A04D1FF
S315080038B02E494A605A689207FCD48020FFF794FC88
S315080038C0052807D117F070F817F07CF84FF4803206
S315080038D0254B1A67264B24F040749D4230D0254B61
S315080038E09D4230D021F082FA8542064603D901214D
S315080038F0284600F03DF9204BDA6812F0060FFBD196
S3150800390099689C609A68624012F4F81F1ED128468E
S31508003910FDF712F98020FFF767FC05280DD121F085
S315080039208BFA0446FFF724F8C0F10201204617F087
S3150800393043F8FFF77DFFFFF747FCAE420CD270BD98
S3150800394044F00074CEE744F08074CBE78020996099
S31508003950FFF74AFC052805D0BDE870400121002084
S3150800396000F006B93546DAE70090005000E001504D
S3150800397040420F0080841E0000000150304B314A3F
S31508003980984251D020D8A3F5B703A3F558639842B7
S3150800399046D00DD82C4B984231D02C4B984239D072
S315080039A02B4B4FF4002198421DD00023516622E08C
S315080039B0284B4FF400219842F7D1274BD3F8BC3057
S315080039C0516623F0407316E0244B984230D0244BBE
S315080039D0984231D0234B4FF400219842E5D11E4B33
S315080039E0D3F8C830ECE71C4BD3F8A030516623F067
S315080039F0407343F000734FF0B442936070474FF43E
S31508003A000021154BD3F8A030516623F0407343F0DC
S31508003A108073F0E7104BD3F8A0304FF40021CFE7BE
S31508003A200D4BD3F8B830F8E70B4BD3F8C030F4E7B2
S31508003A30094BD3F8CC30F0E7074BD3F8D030ECE796
S31508003A40C0EA21010090005080841E0000093D0054
S31508003A5040420F000024F4000080E00F0048E8010F
S31508003A60005A620280BA8C01024A536B0342FCD1A7
S31508003A70704700BF00400950044A4178536F23F449
S31508003A80407343EA01235367704700BF0040005064
S31508003A900E4A10B51369044643F00403136122F075
S31508003AA043F816F094FF0A4B5B6E5B0142BF094B65
S31508003AB0094AC3F8202430BF16F08AFF01F0C0FF78
S31508003AC01CB9BDE8104021F0B7B910BD00ED00E003
S31508003AD00080005000E003500000FF0F034A017900
S31508003AE0D36E23F030030B43D36670470040005073
S31508003AF0F8B504461C4BD3F88420D106FBD4D3F87A
S31508003B008430C3F381139C422CD021F075F9012C23
S31508003B10064602D1214616F04FFF22F09CFB4FF0D5
S31508003B200072124B07465A66204616F054FF4FF4A9
S31508003B3080630D4D621E93402B676B6E9A0103D40A
S31508003B40D5F884309B060AD5384622F07FFB022C2E
S31508003B5008D13046BDE8F840002116F02DBFD5F84B
S31508003B608430EAE7F8BD00BF00400050006000500E
S31508003B7010B50C4608B921F03FF9074B21461B78CA
S31508003B803BB1064B984204D80120BDE81040FFF728
S31508003B90AFBF0220F9E700BFA3270020005A620240
S31508003BA00278034B012100201A70FFF7E1BF00BF1E
S31508003BB0A32700204FF0004238B5244B244C5A6600
S31508003BC04AF6CD33656C014605F00105236428BB2A
S31508003BD00120FFF749FF6368DB0715D51D4B5860C1
S31508003BE008461D4B226BD2070CD4984208D10724ED
S31508003BF015B1174B194A1A641EF0D2FE204638BD75
S31508003C000130EFE79842F2D00024F1E70132236B46
S31508003C1013F0080305D08A42F8D1E8E700220E49D6
S31508003C20F5E78A42E3D020210A4A91620121A2F5EA
S31508003C30805251600649084A886A800603D493422E
S31508003C40D5D00133F8E79342DDE700BF0090005076
S31508003C50004009500060095040420F003254FFFFEF
S31508003C604FF0004238B5164B01465A664AF6CD3330
S31508003C70144C154A656C236443780B205B0043F0AB
S31508003C800103D363FFF7F0FE63688A7823F4F873B9
S31508003C9043EA02136360CA784B7943EA0223A360B6
S31508003CA00A798B7943EA022323610878FFF782FFB2
S31508003CB0EB0744BF054B23641EF072FE012038BD96
S31508003CC00090005000400950004000503254FFFF59
S31508003CD04FF00042124B70B55D6E03F580535A667D
S31508003CE04AF6CD3304460F4980204E6C0B64FFF725
S31508003CF0BBFE0B6A23F00F030F2C94BF234343F03C
S31508003D000F030B62F30744BF074B0B64002DA2BFDA
S31508003D104FF00042054B5A661EF042FE70BD00BFCA
S31508003D2000800050004009503254FFFF00A00050A8
S31508003D304FF00042104B70B55D6E03F580535A661E
S31508003D404AF6CD3304460D4980204E6C0B64FFF7C6
S31508003D508BFE0B6A23F4F85343EA04230B62F3073A
S31508003D6044BF074B0B64002DA2BF4FF00042054B22
S31508003D705A661EF015FE70BD0080005000400950BE
S31508003D803254FFFF00A000502DE9F04105460F46CA
S31508003D901E4690464AB101233022194C8B4002FB3D
S31508003DA0004436B304F5825423600F21072F05EB30
S31508003DB0450388BFA7F108044FEA0313114895BFC6
S31508003DC0BC00A40004330C3308FA04F2A1401844DA
S31508003DD016F002FEB8F1000F09D101233021084A76
S31508003DE0BB4001FB05223EB102F582521360BDE8D5
S31508003DF0F08104F50154D7E702F50152F6E700BF52
S31508003E0000C0035030C0035010B5152000F046FF1F
S31508003E100024FF22064B21465C6520209A625C60DE
S31508003E20FFF7B2F82146BDE810402120FFF7ACB8ED
S31508003E3000000450044A054B002908BF1346012216
S31508003E4082401A60704700BF40100450402004505A
S31508003E5010B5012104462020FFF796F801212120FC
S31508003E60FFF792F80122114B15205A6022781206A4
S31508003E709A606178A27842EA01429A61FF229A62C0
S31508003E8000229A631A644FF000425A654FF0FF32D7
S31508003E9003F500531A6500F02FFF1520E17817F097
S31508003EA07FF9BDE81040152000F00ABF0000045055
S31508003EB0F8B50125C3B2D1F800C08F7A0E7B0C463F
S31508003EC09D40CB7A1C491B050D65810001F1A04177
S31508003ED001F58821C1F804C04FF0300C0CFB00F046
S31508003EE0617B00F1A04043EA074300F5802043EADE
S31508003EF0465322F003020166C365026722F0B4F94D
S31508003F000E4B227A5D6502B11D64627A02B19D6329
S31508003F102279A37943EA0243074A93616179E379EF
S31508003F2043EA014305498B61054B55639D64BDE82A
S31508003F30F84022F094B900BF002004500010045045
S31508003F400000045010B50124C0B2844022F08CF958
S31508003F50044B5A6D22EA04025A659C62BDE8104079
S31508003F6022F07DB90000045010B50124C0B2844087
S31508003F7022F07AF9074BDA6A224208D15B6B9C4336
S31508003F800CBF0124002422F06AF9204610BD002443
S31508003F90F9E700BF0000045070B5054622F064F941
S31508003FA03022084B5E6B02FB05335C6E22F057F934
S31508003FB00123EDB2AB4033420ABFC4F30A10002016
S31508003FC0013070BD000004504FF48032054B9A66EC
S31508003FD041F6713203F51C33DA63012203F5005307
S31508003FE0DA6070470090005041F671320121064BA5
S31508003FF0DA6303F50052D1600022DA634FF48032A7
S31508004000A3F518339A667047000003500138312823
S315080040109ABF024B185C0020704700BF336902083C
S3150800402038B5C2F30625044602F0070241B942EA4A
S31508004030052242F440220634074B43F8242038BDB3
S315080040401146284616F0D7FC02462846FFF7DEFF3B
S31508004050163442EA0022EFE7008003504FF480321C
S31508004060064B5A6603F5E6239B69C3F385128270ED
S3150800407003F03F021B0B427003707047009000501C
S31508004080014B986CD96C70470080E00F0120034BF8
S315080040909B680A3303F01F03984070470080E00FBF
S315080040A070B5054616461C4621B94FF42070FEF732
S315080040B085FF0146402C1BD003D8DCB1202C1BD031
S315080040C070BD602CFCD1042303FB06F2530803EBF6
S315080040D04113B3FBF2F36021084A203B02EAC3030B
S315080040E005F50052916005F580529460EB61E7E7AB
S315080040F00623E9E71023E7E70823E5E7F8FF7F004B
S31508004100012100F5805310B5596040F6AA6341F2C3
S31508004110050243610023094C8360C365C26000F54C
S3150800412000520361C361C3649464054C8365A0426D
S3150800413004BF03654365516010BD00BFFFFF010062
S3150800414000C0055070B50C46FFF7DAFF012300F5ED
S3150800415080567360A37C05461BB1836843F0804391
S315080041608360E37C4BB1234B9D4202BF227DA3F5BE
S315080041701033C3F8C8218023F365228A637B284657
S315080041801343E2891343EB60237BD4E90112FFF75B
S3150800419087FF637D1BB1AB6843F48033AB60A37DB7
S315080041A01BB1AB6843F40043AB60E37D227E1B077B
S315080041B0120502F4E00203F0E0431343AB65637EA5
S315080041C09A1E012A4FF0020209D80B49032BC1F89F
S315080041D0202709D10423F36523786B6170BD07494D
S315080041E0012BC1F82027F4E7042205F50053DA6508
S315080041F0F2E700BF00C0055000D0035000E00350AE
S315080042000122437801789A4030235943014B5A508A
S31508004210704700BF40E00350034BD3F82424D3F87B
S3150800422020041040704700BF00C003502DE9F84332
S315080042301F4B0546D3F810334B1E0E2B0E4617465A
S31508004240047890F8018026D951B34FF00009284622
S315080042501FB320F0F9FE0F21B8F1070F04EB440451
S3150800426088BFA8F108084FEA0414124895BF4FEA18
S3150800427088084FEA880804340C3409FA08F201FA67
S3150800428008F1204416F0E8FB86B9284657B1BDE880
S31508004290F84320F0D9BE8946D9E7FFF7B1FFDAE738
S315080042A08946D8E7BDE8F843FFF7AABFBDE8F88313
S315080042B000C0035030C00350054B9A689107FCD4E0
S315080042C05A689207F9D4DA69002AF6D1704700BF0E
S315080042D000800A50034908B54B6820F0C1FE022346
S315080042E00B6108BD00800A5008B5FFF7E5FF0122FB
S315080042F0024B03F580514A601A6108BD00800A50D6
S3150800430008B5044B5868012803D1FFF7E3FF024BB1
S31508004310586008BD00800A5000A00A5038B5074DFD
S31508004320FFF7CAFF6B680446012B03D1FFF7E8FFC6
S31508004330FFF7C2FF2378EB6038BD00BF00800A5044
S3150800434010B520F097FEB8B94A680B7812B1127802
S3150800435043EAC2034A7843EA42038A6812B11278EA
S3150800436043EA8213CA7843EA82030A6912B11278C9
S3150800437043EA4223014A936410BD00BF00800A50F5
S315080043804FF48032084B5A6603F5E6239B691A0BED
S31508004390027003F03F0242704FF6FF72C3F38513B3
S315080043A042808380704700BF00900050014B986C94
S315080043B0D96C70470080E00F70B504461EF0BAFB52
S315080043C0064630B90FCC044D0FC594E8030085E8BE
S315080043D00300304670BD00BFB418002047F6FF73CF
S315080043E09A42F0B56FD002296FD8394B5B5C012B26
S315080043F06BD8384DDF0005EBC30415F83330A178C8
S31508004400012B13D10025E078401AA84202D80844A7
S31508004410C0B2F0BD431B6668A0EB530336F91360C0
S315080044209642D4BF1D4603F1FF30EEE760680028C8
S31508004430EFD0B0F90040944204DBB0F90240944250
S31508004440B8BF144683883D44FF2B19BFC8224FF0D6
S31508004450280CB0F90620B0F908C0A2EB04030CBF7B
S315080044600126002693FBFCF333446E781BB29E426A
S3150800447001DD002B01DA731E1BB24FF47A7C01337F
S315080044809BB2071D5D1E2DB24FEAC50E00EBC50592
S31508004490EA88AD689E4214FB025222EAE27202F1F1
S315080044A05C02B2FBFCF204DD37F833500133954267
S315080044B0E8D200EB0E039888904228BF104688423F
S315080044C038BF0846A4E7FF20A3E70020A1E700BFFE
S315080044D065690208B41800200229F0B555D82C4B96
S315080044E0585C012851D82B4C04EBC00114F8300055
S315080044F04B6801280FD1C8788C78904294BFC4EBDA
S315080045000001C4EB0201001BCAB28242C8BF0022E6
S3150800451033F91200F0BD002B37D08878904202D3C9
S31508004520B3F90200F6E7CC78B3F900009442F1D962
S315080045304C789988013CA1F1FF06714203F1040504
S31508004540E4B2714103F10C07CEB2B44216D805EBBA
S31508004550C1014FF47A756A43B1F902404968521AA3
S3150800456004EBD47102EB610292FBF4F29042D1DBC8
S31508004570B3F902009042CDDC10B2CBE737F831C070
S315080045804E1C9445E3D33146DEE70348C2E700BF35
S3150800459065690208B41800200080FFFF08B50448C2
S315080045A0FFF70AFFBDE8084001201EF0C7BA00BFA2
S315080045B06C690208004870470C2C00207FB502225F
S315080045C0084B0949CDE901234FF00073CDE90313E0
S315080045D0072301A94FF0FF3005931EF006FB07B02D
S315080045E05DF804FB006A1800000206002DE9FF4783
S315080045F04FF000080E4617460446CDF800800028FE
S3150800460059D022B90025284604B0BDE8F08700290C
S3150800461051D032F0030902F0030A1FD04FF0E063CD
S31508004620C0E9003801230191C0F808800293C0F858
S31508004630208049F0005301A9039321F079FE4946E9
S31508004640204621F04FFE204620F06AFD054628B197
S315080046504A46414630461EF05FFFD4E7BAF1000FDE
S31508004660D0D04FF000084FF0E063C4E900380123CA
S31508004670CDF804D00293114B204601A9C4F808804E
S31508004680C4F82080039321F053FE0421204621F02C
S3150800469029FE204620F044FD054608B13A46D8E7EB
S315080046A0009A4E44EB00013522FA03F3AA4506F8B0
S315080046B0013BF7D1A6E72125A5E700BF04000020A6
S315080046C090B189B101234B60C368013B012B08D81F
S315080046D08269064B1AB10A6000208B607047044A4B
S315080046E0F9E74FF00053F7E721207047080000204C
S315080046F05C7B020806289ABF014B185C00207047AD
S31508004700647B020870B504460D4621F0ADFD0C2CFD
S31508004710064616D80C2C18D8DFE804F01B1B171B06
S315080047201B2A171B2E17311734000123194AA340D9
S3150800473013421DD1062C2AD0DB0706D54FF4F060AC
S3150800474022E00D3CE4B2132CEFD9002321242B8060
S3150800475009E08020FEF786FE4FF6FF7398420CBFED
S315080047600E2400242880304621F079FD204670BDAD
S3150800477000230F242B80F6E74FF48060EAE74FF416
S315080047804060E7E74FF4C060FEF74EFEE4E74FF4FB
S31508004790E060F9E71C450D0030B58BB06C46864DD8
S315080047A0864821F09CFE0FCD0FC42B68844A2360EF
S315080047B0FF238DF80130D2F84C3113F4802340F0F2
S315080047C0EF80D2F850218DF801309DF801306C4603
S315080047D0FF2B08BF252368467A4D8DF80130FEF772
S315080047E013FF3220FEF74EFF0FCD0FC40FCD0FC4B7
S315080047F095E8030084E80300714BD3F84C211203B3
S3150800480040F1B280A3F5FE431C88B4F5807F28BF2B
S3150800481064248DF81940FEF7F1FE044484F3080475
S3150800482069488DF81840FCF78DF96846FEF726FEAC
S315080048303220FEF72DFF6548FFF72CF86448FFF78E
S315080048409DF8644C644821F04AFE0020FEF726FFD6
S31508004850FEF7D6FF236F002023F0070343F0030378
S315080048602367FEF7F7FF236F5C4923F47443236736
S315080048705B4BD3F8FC2012F0807279D1D4F88030E3
S3150800488023F0030343F00103C4F88030C1F8802005
S31508004890504CD4F8203123F0070343F00203C4F840
S315080048A02031D4F8283123F0070343F00203C4F873
S315080048B02831D4F8803123F0030343F00103C4F808
S315080048C08031D4F8403123F0030343F00203C4F8DF
S315080048D04031D4F8603123F0030343F00203C4F8EF
S315080048E06031D4F8403223F0030343F00203C4F8DE
S315080048F04032D4F8003223F0070343F00203C4F829
S315080049000032D4F8083223F0070343F00203C4F850
S315080049100832D4F8703223F0030343F00103C4F8D5
S315080049207032D4F8203223F0070343F00103C4F8A9
S315080049302032FEF761FD4FF0E0220020136943F0B4
S3150800494004031361D4F8603223F0070343F001032C
S31508004950C4F86032D4F8943223F0070343F0010315
S31508004960C4F894320BB030BDD3F85041E4B250E7E6
S31508004970D3F8FC2022F08072C3F8FC20D4F88020FB
S3150800498022F0030242F00102C4F880200022C1F896
S315080049908020D3F8FC2042F08072C3F8FC2077E729
S315080049A04FF07E6393F89C2093F99C30002BFFF61A
S315080049B00CAF8DF8012008E7887B0208CC7B02083B
S315080049C00080E00F9C7B0208C017530200B4C404A1
S315080049D0C0EA210100800050D47B020800900050F4
S315080049E000ED00E007B5094B18689A889B79009096
S315080049F06846ADF804208DF80630FFF731F90C202B
S31508004A00FFF766F9002003B05DF804FBC47B0208D3
S31508004A1070B501F047F80446E8B901F0CDF821F081
S31508004A2039FA4FF4167343430C4A03F5742303F219
S31508004A303F23B3FBF2F30A490A480B600A230268CC
S31508004A40094D0E68013B45F8046B0E6813F0FF0329
S31508004A503244F6D10260204670BD00BF40420F00C6
S31508004A6004190020D4180020D8180020012208B5FF
S31508004A70034B1A7021F0E0FD024B186008BD00BF19
S31508004A80A4270020D018002010B521F003FA044608
S31508004A9021F0D9FB844207D921F0DAFD20B10122A1
S31508004AA0024B1860024B1A7010BD00BFD0180020C8
S31508004AB0A4270020F8B51F4C2378E3B121F0BCFDEC
S31508004AC01D4B1E4D1B68C01A28602B68A3B12B68A6
S31508004AD02B6021F0DFF94FF416725043184A00F59F
S31508004AE0742000F23F20B0FBF2F02B682B6883425B
S31508004AF004D900232370F8BD0123E9E71148124EB3
S31508004B000378296856F82320104F511A3A68521A22
S31508004B1029683A6046F823100A210932B2FBF1F2F5
S31508004B200B4D0133DBB22A60B3FBF1F201FB123302
S31508004B300370DEE7A4270020D01800200019002003
S31508004B4040420F00A5270020D8180020D4180020BE
S31508004B5004190020014B1868704700BF041900208B
S31508004B60F8B503212C2016F01BFB04264FF48012FF
S31508004B700D4C0E4B0E4F04F500555A662C206F67E8
S31508004B806E672F672E6700F0B7F82C2000F098F8AC
S31508004B904FF0007204F580535F675E67AA624FF4B0
S31508004BA080529A62F8BD00BF0040005A009000503B
S31508004BB0010000A0064B074A996D11F0050F01D0B8
S31508004BC0117811B10028F7D170470120704700BF4E
S31508004BD00040005AA6270020164B10B51C6F14F08B
S31508004BE0040111D0144A1167082191629B6DDA07F6
S31508004BF001D4FFF749FF00F093FE00F073FE012091
S31508004C0021F0B0F921F026FDE30706D501220A4B6B
S31508004C101A67FFF74FFF00F065FE14F000521CBF3D
S31508004C20054B1A67002CBEBF4FF00042024B1A67AD
S31508004C3010BD00BF0040005A0060005A0028ACBFF3
S31508004C4000F16040064B4FEA0111C9B2ABBF00F54F
S31508004C50614000F00F0080F800131954704700BF38
S31508004C6014ED00E008B521F0FFFA0B4B1A7872B97B
S31508004C7001221A7021F0F3FA6FF00402104601328D
S31508004C80052152B2FFF7DAFF4C2AF7D108BDBDE875
S31508004C90084021F0E4BA00BFA727002000280CDB53
S31508004CA001220649430900F01F008240203341F8DB
S31508004CB02320BFF34F8FBFF36F8F704700E100E0EB
S31508004CC0002807DB01234109034A00F01F0083403F
S31508004CD042F82130704700BF00E100E0054B421161
S31508004CE053F8223000F01F0023FA00F0C04300F00A
S31508004CF00100704700E100E0002808DB01224309B3
S31508004D00034900F01F008240603341F823207047B2
S31508004D1000E100E010B5044621F09DFA024B1C6044
S31508004D2021F094FA002010BD0819002010B521F0D2
S31508004D3092FA034B1C6821F089FA204610BD00BF81
S31508004D4008190020034B02221868002380681946B8
S31508004D5012F086B89C2B0020302337B5007D0DF164
S31508004D600701434303F1A04303F58023DD6E1C6F5F
S31508004D7020F026F99DF8070040B9054B9D4203D15E
S31508004D8084F00204C4F3400003B030BD0120FBE701
S31508004D90A82700203021037D02464B4303F1A04398
S31508004DA003F58023D86E07491B6F884208D113F094
S31508004DB0020006D0106A136D1B1A584258417047F4
S31508004DC000207047A827002070B5044608B90120BE
S31508004DD070BD057D2846FCF7E3F930236B4303F1E4
S31508004DE0A04303F580232846DE6EFCF7F9F90A4B43
S31508004DF09E421CBF042384F8A13094F8953094F899
S31508004E00A1002BB1022803D1012384F8A130DFE7E2
S31508004E100428DCD1F8E700BFA82700202DE9F743CE
S31508004E20D0E9043404F17C07D0F80C900646013B1F
S31508004E30102200213846D4F874809DB21EF06CFB0F
S31508004E400B4BC5F30A0543EA0513C4E91F390123C9
S31508004E5094F8780084F88C30C4F884803A46054B78
S31508004E60009604F16401FCF775F903B0BDE8F08318
S31508004E7000001030E3B201082DE9F04F04464FF464
S31508004E8044764FF030093F4D00F1380710220021D3
S31508004E9085B038461EF040FB6687C4E90F55207D6D
S31508004EA0FCF77EF91022002138461EF035FB66878E
S31508004EB0207D354EC4E90F5509FB0063DB6EAB4216
S31508004EC004D105B0BDE8F04FFCF78AB90DF10B0126
S31508004ED020F076F89DF80B50002D4CD1204616F0A0
S31508004EE0E4F9804603A9207D20F08CF8039B294627
S31508004EF0013B1FFA83FB04F118031D4610221846CE
S31508004F00D4F810A01EF008FBA169204ACBF30A03C7
S31508004F101B010A4043F040731343C4E9063A237D54
S31508004F20C4F8208009FB0366336F94F824205B08D5
S31508004F3063F3410284F82420326F94F8243025F074
S31508004F40030562F3000384F82430336F626A9B0812
S31508004F5063F39F0245F002056262656400943A466F
S31508004F6021460B4B207DFCF7F5F8207DFCF738F938
S31508004F7005B0BDE8F08F94F844306FF3410384F828
S31508004F804430EBE7A8270020000004500F80FFFC00
S31508004F9051B301082DE9F04F9946002304468DB018
S31508004FA008910692C9F80030D9F80050069B5E1B96
S31508004FB000F09E80089B5D1900F09A80207DFCF722
S31508004FC0EFF82046FFF7E6FE8046207DFCF708F955
S31508004FD0B8F1000F40F08C80204616F066F9216D76
S31508004FE094F89AA088429CBFD4E91203C018401AC4
S31508004FF0864228BF0646BAF1000F00F0A98021F0C4
S3150800500033F9236D079020460993FFF7A5FE374627
S31508005010099B834698198342D4F89C2071D1D4E918
S31508005020120303449A4208BFC4F89C00079821F06B
S3150800503016F9DA46207DFCF7B3F80DF12F01207D2D
S315080050401FF0BEFF204616F030F9236D83469842BE
S3150800505040F28C80A26CB5B293427FD1099304F1D9
S315080050602808236910220021404607931EF054FAA7
S315080050703021079B013DE362099BC5F30A052363BB
S31508005080237D2D014B4328F0030803F1A04345F087
S31508005090407548F0020203F58023A5621A67236D5E
S315080050A0D4E9121233440A44934208BF0B465B45BF
S315080050B0236505D10123204684F85430FFF7DCFE2A
S315080050C0207DFCF78DF894F89A303BB1BAF1000FC1
S315080050D004D0236E112120465B689847D9F8003022
S315080050E037B1069A3B449342C9F80030FFF45CAFE7
S315080050F0D9F80030002B14BF00201B200DB0BDE8E6
S31508005100F08F013303F1FF3C624510D1C4F89C309F
S3150800511013F8012C112A01D0132A15D1013FA2F147
S3150800512011014A424A41D04684F8A02073E713F891
S31508005130012C02F0FD0CBCF1110F06D1013FB8F1AC
S31508005140000F3FF468AFEAE7D04605F8012B62E79F
S31508005150324628461EF0EBF937466BE7238DC3F334
S315080051600A12154465F30E13238598E79DF82F3028
S31508005170207D93B93023584300F1A04000F58020E4
S31508005180426E436EC2F30A1223F4FF43324423F0FD
S31508005190700343EA0213436681E70C4B04940393B6
S315080051A00023CDE90163012300935A462369216848
S315080051B014F0CFFE3022237D534303F1A04303F5B9
S315080051C080235A6E22F480125A6668E751B30108A2
S315080051D0F0B50C4615460646A422002189B020469D
S315080051E01EF09AF92746AC46BCE80F000FC7DCF854
S315080051F0003005F1140C3B6004F16407BCE80F00AD
S315080052000FC7DCF80030EA6A3B60AB6AC4E91323CF
S3150800521095F83020A36484F8992095F83320C4F8CB
S315080052209C30012384F89A2084F8A03084F85430FE
S31508005230AB6B236695F8313084F898303F4B346071
S3150800524073603F4BB3603F4BF3603F4B73613F4B1B
S31508005250B3613F4B3361FBF749FF10B13D4B9842B1
S315080052600ED1002107A8FBF7C9FE014640B9079BE6
S3150800527007A82375FBF7C2FE28B1207DFBF710FFB0
S31508005280102009B0F0BD0127079B84F87830324B0F
S315080052907362324B84F8A170F361314B95F8321082
S315080052A0336284F8960084F89570204616F020F943
S315080052B0AB6B93F91100FFF71FFDAB6B93F9110068
S315080052C0FFF7FEFC207DFBF76BFF0028D8D1254BA6
S315080052D00494CDE90203E36CCDE900732369A26C5B
S315080052E02168207D14F035FE0028C9D13022237D9F
S315080052F04FF48011534342F2640203F1A04303F5CD
S3150800530080239950AB6B93F91000FFF7F5FCAB6B54
S3150800531093F91000FFF7D4FC04F1900014F071FD26
S315080053203046FFF7F7FC2046FFF7A6FD207DFBF782
S3150800533057FF003818BF01200001A2E7C1B30108D2
S315080053400BB30108954F000899B201089FB20108EE
S3150800535069B50108038000F0C94D0008F1B40108D9
S31508005360A5B2010851B3010870B50568144E2C7D25
S315080053702046FBF715FF302303FB0463DA6E114B57
S315080053809A420FD12846FFF7E7FC80B120F06CFF60
S3150800539001230D4AA3405365A2F5805293625363D5
S315080053A020F05DFF2046BDE87040FBF719BF284690
S315080053B0FFF7F0FC0028F5D10123A340B364F1E719
S315080053C000000450A827002000200450F8B517460E
S315080053D01C46594A8B6B069D1A60584A5A60584AA9
S315080053E09A60584ADA600A462946FFF7F1FE0646E9
S315080053F0002840F09A8023680121C5F8A430636824
S315080054003A20C5F8A830637A85F8AD30237A85F84E
S31508005410AC30E37A85F8AF30A37A85F8AE30637B93
S3150800542085F8B130237B85F8B030E37B85F8B33057
S31508005430A37B85F8B230FDF7A7FD01230422617A24
S31508005440207AFEF7A1FC01230222E17AA07AFEF770
S315080054509BFC01216068FDF797FD3E703946206880
S31508005460FEF770FE1420617C374B01F139025201B8
S315080054709850607A227A03EB411342EA0042C3F855
S315080054803827E17AA27A42EA0142C3F8302785F83A
S31508005490B4607B7E032B4CD8DFE803F03949021C45
S315080054A0022385F8B43000230422E17BA07BFEF7B3
S315080054B06BFC0220617C244B01F1B9025201985021
S315080054C003EB411341F22C71E07BA27B42EA0042D6
S315080054D05A501CE0012785F8B43002220023617B6C
S315080054E0207BFEF751FC617B227B637C42EA01420A
S315080054F041F228715B0103F1A04303F570335A505A
