S02B00007A69676265655F6770635F736F635F656E657267795F68617276657374696E675F6F62736572766549
S3150800000000100020C51A0008597700085D77000817
S315080000106D2A040861770008697700086D2A0408C4
S315080000206D2A04086D2A04086D2A04086D2A040836
S315080000306D7700086D2A04086D2A04086D2A0408DD
S315080000406D2A04086D2A04086D2A04086D2A040816
S315080000506D2A04086D2A04086D2A04086D2A040806
S315080000606D2A04086D2A04086D2A040895160008E6
S315080000706D1804086D2A04086D2A04086D2A0408F8
S315080000806D2A04086D2A04086D2A04086D2A0408D6
S315080000906D2A0408412400086D2A04086D2A0408FC
S315080000A06D2A040811260008ED2500086D2A0408A3
S315080000B06D2A0408CD9102085D9C0208BDBD04089E
S315080000C0B9BD040801940208C9BD0408C1BD0408E5
S315080000D0319C0208C5BD04089D9C0208099D0208BA
S315080000E06D2A04086D2A04086D2A04086D2A040876
S315080000F0F34204086D2A04086D2A04086D2A0408C8
S315080001006D2A04086D2A04086D2A04086D2A040855
S315080001106D2A04086D2A04086D2A04086D2A040845
S315080001206D2A04086D2A04086D2A04086D2A040835
S315080001306D2A04086D2A04086D2A04086D2A040825
S315080001406D2A04086D2A04086D2A04087B490408E8
S31508000150F57D02086D2A04085FBD040865BD04081C
S315080001606D2A04086D2A04086D2A04086D2A0408F5
S31508000170F0B5114A114C124E00F00105E3695F070C
S3150800018013D40DB9334213D103EA00078F4207D1BE
S315080001900B4A1A40002A0CBF00206FF00100F0BD80
S315080001A0013AEBD16FF00200F9E74FF0FF30F6E7BE
S315080001B06FF00100F3E700BF809698000000035037
S315080001C0020001000B4B70B5D96911F480310DD1CD
S315080001D001244FF48072084E084DF46020462C64C2
S315080001E01A61FFF7C5FF3464EC6070BD6FF001005B
S315080001F0FBE700BF00000350001003500020035027
S315080002004FF4803238B50E4B0E4C9A66E56941F6C6
S31508000210713315400122E3630B4B0021DA60022398
S31508000220606121202361FFF7A3FF10B92120FFF7A2
S315080002309FFF0122054BDA600DB10023E36338BD49
S315080002400090005000000350001003500020035097
S3150800025070B5134C6061E3695B071ED40E4656F809
S31508000260043B8D18A361AE420BD104230021212043
S315080002702361FFF77DFF58B9BDE870402120FFF7DD
S3150800028077BF08210846FFF773FF10B104232361DF
S3150800029070BD56F8043BA361E5E74FF0FF30F7E77A
S315080002A0000003502DE9F84315464FF48032184BE9
S315080002B089469A6603F51C33DF690646174041F6F8
S315080002C07132DA63012203F58053DFF84C80DA6075
S315080002D055B9284601220F4BDA601FB10022A3F553
S315080002E00053DA63BDE8F88306F5005404EA080407
S315080002F0A41BAC4228BF2C46494622463046FFF787
S31508000300A7FF0028E6D12644A1442D1BE0E700BF3D
S31108000310009000500020035000E0FFFFA2
S315080003202DE9F04F4FF0FD0BC9B09A460DF11B09A8
S315080003309DF8503108AFCDF80C90CDF808B001976C
S31508000340059303890446009383790E4690464188AF
S31508000350828840781AF05CFF054650B10090A38861
S31508000360002062883A491BF0B9FA284649B0BDE828
S31508000370F08F99F8000047F076F838B12846A38838
S31508000380628834491BF0AAFA8D25EEE75A463946A3
S3150800039099F8000047F036F88346002851D0529B5A
S315080003A01BB1BDF84C3198424BD8002399F8009000
S315080003B00793A9F14102012A5FFA8BF123D838463F
S315080003C00139254ADFF898C05FFA81FE734513DBC9
S315080003D0059B04210792C3B907AF18221F489FED52
S315080003E01A7B02FB060420460A460830394684ED85
S315080003F0027B4EF0AFFF11E010F8011F01335140A8
S315080004000CFB01F2E2E7059B33B123464A46384620
S31508000410009616F01BFBA8E70829DED9B8F1000FED
S3150800042001D088F80090BAF1000F01D0AAF800B000
S31508000430529B002B99D05A46184608A94EF08AFFB7
S3150800044093E7012591E700BF0000000000000000C7
S315080004504FD3050880D30508C59D1C81F0100020E0
S3150800046093010001000000002DE9F04F93B0CDE99B
S315080004700A32DDE91C530E9353EC102BCDE9080123
S31508000480104619468DED060B1E9E40F041FD80B1C3
S31508000490DDE906014FF0FF32C54B40F061FD40B97A
S315080004A0DDE906014FF0FF326FF4801340F03AFDA4
S315080004B070B1DDE908019DED060B0E9B1E96CDE990
S315080004C01C53DDE90A3213B0BDE8F04F00F088B9D5
S315080004D00022DDE90601002340F024FD002800F093
S315080004E03381DDE906A303F1004BCBF30A5016F47A
S315080004F08063A0F2FF3008BF06250F9340F036FA56
S315080005009BA3D3E9002340F09BFA9BA3D3E90023DE
S3150800051040F0E0F8CBF31304894644F07F51804657
S315080005200022A44B504641F4401140F0D1F894A360
S31508000530D3E9002340F084FA02460B464046494672
S3150800054040F0C8F840F016FD044640F00FFA8EA3B6
S31508000550D3E900238046894640F072FA0022964B7A
S3150800056040F0B8F840F006FD89A3D3E90023074612
S315080005704946404640F064FA80463846894640F087
S31508000580F5F985A3D3E9002340F05AFA02460B464B
S315080005904046494640F09CF802460B46CDE90C23F6
S315080005A040F04EFADDE90C23804689461046194686
S315080005B040F090F80022CDE91001804B40464946AC
S315080005C040F068FB00227E4B40F084F802460B465A
S315080005D04046494640F05EFB00227A4B40F07AF8E6
S315080005E002460B464046494640F054FBDDE90C23DB
S315080005F08046894600204FF0804140F069F802465F
S315080006000B464046494640F065F802460B46DDE98A
S31508000610100140F03FFB07F2FF3700226A4B40F01B
S3150800062059F800223B0540F00BFA52465B468046D5
S31508000630894640F095FC002840F08980CDE90C8970
S3150800064004F16303C72B34BF0427052731051BD5DF
S3150800065053A3D3E900235046594640F077FC0028B7
S315080006607FD051A3D3E900235046594640F05AFC9F
S31508000670002876D00027A542C6BF2C1B04F1FF35FB
S3150800068000253C4646F480660E9B9F422CBF4FF0E1
S315080006900008A3EB070816F0020903D0002F18BFBD
S315080006A04FF000083CB1DDE90C235046594640F0AE
S315080006B0F1FA82468B46DDE906010022002340F066
S315080006C031FC10B10BF100439B46DDE9080126F425
S315080006D00063CDE90183DDE90A324BEC10AB0095E6
S315080006E000F07EF802465FB3DDE9091316F0200F25
S315080006F000F10105089E0CBF65204520B047DDE9DD
S3150800070008010523002205930A23002CCDE90232AD
S3150800071007F1FF374FEAD473B8BF64422A460193FC
S3150800072004970A9B009449F0D4FC0246B9F1000FDD
S3150800073006D00B9BC41A0B9B1A190E9BA34245D8CD
S31508000740104613B0BDE8F08FDDE906ABCDE6002212
S31508000750404649461A4B40F09DFA013CCDE90C014A
S315080007606EE7002D90D00F9B002B8DD0013D8BE7B7
S31508000770FB799F501344D33FB3C8608B288AC63F82
S3150800078061436F63A787D23F71A379094F930A40E4
S315080007901655B5BBB16B0240EF39FAFE422EE63F5D
S315080007A02D431CEBE2361A3F0000000080842E41E0
S315080007B0FFFFEF7F0000F83F0000E03F00002C40FD
S315080007C000002440000018400000F03F2020DDE92A
S315080007D00913089DA8470134ADE700BF00000000D3
S315080007E02DE9F04F5BEC10AB97B0CDE90501DDE9DB
S315080007F02057CDE90723504652465B465946229E66
S3150800080040F086FB70B90323CDE902760193B04B1D
S315080008100093DDE90501DDE9072349F07AFB17B006
S31508000820BDE8F08F4FF0FF326FF4801350465946FB
S3150800083040F078FB28B10423CDE902760193A54B55
S31508000840E6E74FF0FF3250465946A34B40F088FB87
S3150800085068B1A24A06F00403002B08BF0322A04B86
S315080008601CBF13460422CDE902760192D0E7504612
S3150800087093A3D3E90023594640F072FB38B992A3F3
S31508000880D3E900235046594640F04CFB68B1DDE9F0
S315080008900723DDE905014BEC10ABCDE92176209560
S315080008A017B0BDE8F04FFFF7DFBD00220023504622
S315080008B0594640F037FB002800F09A805B465246BE
S315080008C0002000213FF004FF012382468B4609934E
S315080008D016F4806400F08E80092D40F28E80002484
S315080008E030210EABA5F109020134202C03F8011BB7
S315080008F0A5EB040901D09442F6D15946504640F07A
S3150800090039FB784B054603EBC90393ED007B8DED68
S315080009100A7B40F02BF802460B46504659463FF0F4
S31508000920D7FEDDE90A2340F08BF802460B46CDE9EF
S315080009300C2340F047FB804640F008F802460B4679
S31508000940DDE90C013FF0C4FE02460B46CDE90C2357
S315080009500022654B40F004FB002851D008F101083D
S3150800096040463FF0F3FF02460B46DDE90A0140F038
S31508000970E3FA10B14FF000080135B9F1000F50D174
S3150800098028463FF0F3FF02460B46504659463FF0CD
S315080009909FFE0022544B8046894640F0C3FA30B188
S315080009A0002240464946504B40F0DAFA10B1E807B3
S315080009B000D501350A210EAB1A19202C0AD095FB51
S315080009C0F1F001FB1055303502F8015B013405469C
S315080009D00028F2D106F00302012A57D1002F55D07C
S315080009E0099A12B916F00C0F00D0013F302245E0E3
S315080009F009906DE74FF006097FE7A94600247CE7D2
S31508000A000022DDE90C01384B40F08CFA0028B4D1FD
S31508000A10B8F1000F02D018F0010FAED008F10108A6
S31508000A20ABE70A210EAB2344202C0ED0B8FBF1F01D
S31508000A3001FB1082B8F1090F02F1300209F1FF3902
S31508000A4004F1010403F8012B11D83021A1440EAAA0
S31508000A50202CAFD0A14504F101030AD11C4609F1A7
S31508000A6058030DEB03092E2309F8203CA2E780461C
S31508000A70DAE7A1541C46EBE71A550134A74205D913
S31508000A80202CF9D1CDE902760194C1E6202CF9D0C3
S31508000A90099A3AB12D2104F158026A4402F8201C39
S31508000AA00134EFE7710704D504F158022B216A4493
S31508000AB0F4E73207E6D504F1580220216A44EDE747
S31508000AC00000000065CDCD410000000065CDCDC118
S31508000AD01FFF050823FF0508FFFFEF7F16FF050820
S31508000AE01BFF050828FF05080000E03F000000007E
S31508000AF070B58EB02C22002103A84EF007FC6423A3
S31508000B004FF002320893CDE905230B2301218DF816
S31508000B103430534B8DF810101B88D80700F1988095
S31508000B2008462AF0B3FE0A224E4B4F491A704FF474
S31508000B3028734E48ADF8123020F0F8FB4C4C206074
S31508000B4020B940F259214B4806F000FD05212068DE
S31508000B504AF08EFA20B140F26921464806F0F6FCC2
S31508000B60206800F0A3FD444B206819684AF05EFC33
S31508000B700C252BF069FD684309902BF065FD684349
S31508000B800DEB05010790206821F020FD20B140F209
S31508000B907E21384806F0DAFC25682EF0C7F80022D0
S31508000BA0014628464AF0A5FD20B14FF42071314888
S31508000BB006F0CCFC40F20353304D314E2B80052312
S31508000BC096F90000AB707F2801D12AF0C3FF33786D
S31508000BD0EB702BF039FD00EB80008000A8802BF02D
S31508000BE033FD0023C0004FF0FF31E880AB604FF0C3
S31508000BF0FF3019A3D3E900232BF00AF8214920680E
S31508000C004AF0EBFC206802A94AF094FC20B140F2B5
S31508000C10B921184806F09AFC042220680DEB020157
S31508000C204AF029FB042804D04FF42F71114806F026
S31508000C308DFC01A9012048F062F906F0D1FD0120DA
S31508000C402BF0A0FF42F05FF92BF0C6FF2AF0A2FEB8
S31508000C500EB070BDAFF300800A0020FF420300000B
S31508000C60364D00202D590020B5B80208105E002028
S31508000C7024410020BE3F0608E05B00201841002002
S31508000C806A64002061BA02080348044B834202D012
S31508000C90034B03B118477047A4640020A4640020DE
S31508000CA000000000064B0749C91A891048BF0131E0
S31508000CB0491003D0044B0BB101481847704700BFD1
S31508000CC0A4640020A46400200000000010B5064CAF
S31508000CD0237843B9FFF7D8FF044B13B10448AFF3A1
S31508000CE000800123237010BD244E00200000000060
S31508000CF0C443060808B5054B1BB105490548AFF3BB
S31508000D000080BDE80840FFF7CDBF00BF0000000027
S31508000D1090170020C4430608A3F5803A704700BF21
S31508000D20174B002B08BF134B9D46FFF7F5FF002115
S31508000D308B460F461348144A121A4EF0E7FA0E4B22
S31508000D40002B00D098470D4B002B00D09847002069
S31508000D50002104000D000D48002802D00C48AFF30E
S31508000D60008040F0A1FC2000290040F01DFD40F065
S31508000D70D9FA00BF000008000000000000000000CB
S31508000D8000100020A0100020AC5900200000000030
S31508000D900000000010B5084B08481B78002B14BF4C
S31508000DA0C8244FF47A7441F01FFF2246BDE810406C
S31508000DB0FF21034843F012BF254E00204865050869
S31508000DC05C18002013B546F0E8FA02280B4C08D147
S31508000DD0237813B1002047F081FB0023237002B06B
S31508000DE010BD14F093FF064B0190009301210420D7
S31508000DF0044B054A0CF09AF9EFE700BF264E00208F
S31508000E00D5F90408C8F30408CDF3040808B507F0B3
S31508000E105BFF0123024A1370024A137008BD00BF24
S31508000E20264E0020254E002010B546F0B6FA0228B8
S31508000E300AD101200CF0DEF9BDE810400346012175
S31508000E400420024A0CF072B910BD00BFE1F3040891
S31508000E5010B546F0A2FA022812D14FF6FF720B4CD3
S31508000E6001232078114680F0010040F008000EF0BA
S31508000E701DFE2378064823B941F0B0FE01232370EE
S31508000E8010BD41F0AEFE0023F9E700BF274E002053
S31508000E90486505081FB501230022009306210DF1B8
S31508000EA00F0346F063FD28B99DF80F30044823B1B7
S31508000EB041F094FE05B05DF804FB41F092FEF9E7B7
S31508000EC03065050813B5FF24114A23460021114849
S31508000ED000940AF089FD104910480AF009FE1049E5
S31508000EE010480AF005FE104910480AF001FE10499C
S31508000EF010480AF0FDFD46F050FA022806D02146B1
S31508000F00044802B0BDE8104043F071BE02B010BDFF
S31508000F10950D00085C180020290E00083C180020D2
S31508000F20510E00081C180020C50D0008DC1700200B
S31508000F30F1160408FC170020162808B50DD105F08F
S31508000F40D7FC0D4841F04DFE0C4B1B789BB1BDE814
S31508000F500840FF210A4843F04ABE1528F1D1FF216F
S31508000F60084843F04CFEFF21074843F040FE0022A4
S31508000F70064B1A70E5E708BD48650508274E0020A8
S31508000F801C1800205C1800203C180020254E002064
S31508000F9013B504460B4B01900093012104200A4B1C
S31508000FA00A4A0CF0C3F85CB1002014F0B1F8084BFB
S31508000FB00190009301210420064B044A0CF0B6F870
S31508000FC002B010BD3AF80508C8F30408CDF30408C2
S31508000FD0D5F9040802F40408002307B50193054B64
S31508000FE0012100930420044B044A0CF09FF803B037
S31508000FF05DF804FB3AF8050807F40408CDF304087D
S315080010000022024B02481A7041F0EBBD274E002021
S315080010104865050837B504460D46009000210420AA
S31508001020094B0A4A0CF082F8094B224629460093D6
S31508001030042001230CF0C0F801210420054A03B05E
S31508001040BDE830400CF072B85EF5040818F40408E0
S31508001050EC980508856E05082DE9F0470D461278C7
S31508001060E8B0002840F0B680092A40F2B380CB7970
S3150800107003F03C010C2940F0AD8003F0C303012BBB
S3150800108008D0802B40F0A6802B7A03F0C003402BB3
S3150800109040F0A0802A4412F8023C12F8031C1B02F6
S315080010A012F8012C03EB01439C184AF09DFA45F20D
S315080010B0130320F07F40001B984200F28B80EB79E7
S315080010C003F0C303802B40F089802B7A5B0740F03E
S315080010D08580D5F809A00025CDF810A08DF8185000
S315080010E013F0ECFD002875D0802302AA28A903A8CE
S315080010F047F08AF900286DD0294604AA01204AF04B
S31508001100F6FFADF80A002CF023FD012306461A4621
S3150800111007A90DF10A002CF055FEBDF80A002CF0BF
S3150800112017FD4FF00109BDF80830DFF8BC80C1187B
S31508001130C9B20DF10A004BF0D3FB721C9DF80830BA
S31508001140BDF80A10D2B228A8CDF800902CF0CCFE33
S3150800115003A847F05DF9BDF80A002CF0F9FCC3B204
S315080011609A1CBDF80A108DF820210DF221102A4686
S3150800117000952CF0B9FE9DF8206148AF4E44F6B2B2
S315080011803246394608A888F800904EF0E3F8154B21
S31508001190CDE9285593E8070087E80700C8F804A0B2
S315080011A088F80C504AF020FA04F5A04320F07F4056
S315080011B014331B1A284628938DF8A4902BF0F4F9BB
S315080011C031460246009728AB08A813F07DFD404635
S315080011D047F01EF9012068B0BDE8F0874FF0000A15
S315080011E079E700BF94F50408A8170020D30103D5B2
S315080011F0FF21024843F0FBBC704700BFFC170020E4
S315080012001FB50446C8B141F0A6FC012817D1174BF3
S315080012105B68A34211D146F0C0F802280DD14FF4FD
S31508001220FA6003A907F006FE034630B9CDE90000C7
S315080012300F4A03990F4843F02FFB04B010BD00284E
S31508001240FBD10A4B1A68A24206D1FF210A4804B00C
S31508001250BDE8104043F0CBBC5B68A342EDD105481E
S3150800126007F032FDFF210548F1E700BF745B002057
S315080012700D0E0008BC1700201C180020DC170020E3
S315080012801FB547F0BFF847F07FF920F083FE00212D
S315080012904FF6FF720346CDE90221CDE9001101227E
S315080012A0084613F04DFD064A064B0121002818BFD3
S315080012B013460420044A05B05DF804EB0BF036BF6C
S315080012C06B65050830F4040835F40408002370B586
S315080012D0C8B0CDE905330793D0E90232910053F837
S315080012E0222014788DF81C4034B1114A01210420BB
S315080012F00BF01CFF48B070BD0B445A689B68126817
S3150800130008AD05921E782A46FF230321009446F06D
S31508001310BCFE3346CDE9000521460120CDE902444D
S3150800132005AA47F05EF80028E4D0024ADEE700BFC7
S315080013305AF4040871F4040800B5D0E902329100A1
S3150800134053F82220A9B012788DF818203AB1144A19
S31508001350012104200BF0EAFE29B05DF804FB0B44DA
S315080013605B68ADF80A201B680DF10A02049308A908
S31508001370802303A847F048F878B101210420094AD8
S315080013800BF0D4FE084BBDF80A2000930420012375
S3150800139008A90BF011FF034ADAE7044AD8E700BFA9
S315080013A05AF404086B650508EC98050885F40408E2
S315080013B0002300B589B0CDE905330793D0E90223A8
S315080013C0990052F823301B788DF81C303BB10C4A33
S315080013D0012104200BF0AAFE09B05DF804FB0A44BB
S315080013E052681946126818460592CDE90233CDE9C6
S315080013F0003305AA46F0F5FF0028EDD0014AE7E7D5
S315080014005AF4040885F4040810B546F0F7FFBDE859
S315080014101040034601210420014A0BF087BE00BF95
S3150800142094F4040810B546F0EBFFBDE810400346F7
S3150800143000210420014A0BF079BE00BFABF4040872
S3150800144070B5A8B046F0DCFF054601210420234A02
S315080014500BF06CFE2B4601210420214A0BF066FE98
S31508001460002D38D000241F4E0DF10A0308AA03A93F
S31508001470E0B246F0CBFF23463246012104200BF0AA
S3150800148055FE012104209DF81830174A0BF04EFE30
S3150800149001210420049B154A0BF048FEBDF80A30CA
S315080014A001210420124A0BF041FE00210420114AB2
S315080014B00BF03CFE104B0420BDF80A20009308A947
S315080014C001230BF079FE0234012104200B4A0BF0AC
S315080014D02DFEA542C8DC28B070BD00BF6B650508A7
S315080014E0C0F40408E3F40408F0F40408FFF404085C
S315080014F011F5040824F50408EC980508856E050816
S31508001500012837B5054614461BD1042A19D10B887C
S31508001510202B16D18B78202B13D1CB78B2EE047AF8
S3150800152007EE903AF8EE677AC7EE877A17EE900AD2
S315080015303FF02EFA044ACDE90001294620460BF071
S31508001540F5FD002003B030BD2FF5040808B5074B9C
S315080015501B7853B1FF21064843F058FB28B9BDE86C
S315080015600840FF21024843F042BB08BD264E002032
S315080015705C18002030B50A4C0A4B22680A4D1A60DE
S315080015800A4B85B02B600A4B019305F01FFA2B68AE
S31508001590029001A92068039342F0B3FA05B030BD62
S315080015A0645B00208C26002088260020585B0020DB
S315080015B0F1630508014B186842F0B7BA645B00206E
S315080015C038B505F003FA0446064D2B68D3F8B00281
S315080015D005F0F0F9286842F0BBFA2046BDE8384025
S315080015E005F0E8B9645B002030B5184D8FB006AC3D
S315080015F00FCD0FC495E80F0084E80F000E220021D6
S315080016000DF10A004DF082FE4FF47022104B694628
S31508001610CDE900230B238DF808300C238DF809300B
S315080016200C4B06AA03932023049301230A488DF83A
S3150800163015300A4B05F04CFA044600214FF4E13008
S3150800164041F005FA20460FB030BD00BFE06405083A
S315080016503C00015B284E0020901B0020381B002010
S31508001660022905D8034B1B68186808B1436A18474E
S31508001670704700BF685B002008B50449044806F0B7
S3150800168093FEBDE80840FFF7AFBF00BF6C5B0020C4
S31508001690B41B0020014842F0A2BE00BF901B0020E8
S315080016A0014B1A6A18681047901B002008B520F0ED
S315080016B0C5FF0022014B1A7008BD00BF484E002026
S315080016C008B5044841F042FABDE80840024841F02E
S315080016D03DBA00BF186505080065050808B5044841
S315080016E041F079FABDE80840024841F074BA00BFF3
S315080016F048650508306505081FB5084903460868A2
S31508001700097902AA02908DF80C1000920521002290
S31508001710012009F0FFFA05B05DF804FB60650508CD
S315080017201FB5084903460868097902AA02908DF888
S315080017300C10009205214222012009F0EBFA05B0AF
S315080017405DF804FB666505081FB508490346086881
S31508001750097902AA02908DF80C1000920521402200
S31508001760012009F0D7FA05B05DF804FB60650508A5
S315080017701FB5064A0346039203AA009201220821CE
S31508001780104609F0C7FA05B05DF804FB01012121EE
S315080017901FB5064A0346039203AA009208210022AF
S315080017A0012009F0B7FA05B05DF804FB0102212112
S315080017B01FB5094903460888897803AAADF80C00BD
S315080017C08DF80E10009206214222012009F0A2FA95
S315080017D005B05DF804FB00BF6C6505081FB503AAD4
S315080017E0009205220749034608888978ADF80C0057
S315080017F08DF80E100120114609F08CFA05B05DF837
S3150800180004FB00BF706505081FB50849034608684C
S31508001810097902AA02908DF80C100092082102227A
S31508001820012009F077FA05B05DF804FB7465050830
S315080018301FB5094903460888897803AAADF80C003C
S315080018408DF80E10009208210622012009F062FA8E
S3150800185005B05DF804FB00BF7A6505080A4601492C
S3150800186040F0D9B98B7505080A46014940F0D3B945
S31508001870827505080A46014940F0CDB9777505080D
S315080018800A46014940F0C7B9727505080A46014972
S3150800189040F0C1B96D7505080A46014940F0BBB963
S315080018A0687505080A46014940F0B5B95B7505082B
S315080018B00A46014940F0AFB94C7505080A46014980
S315080018C040F0A9B9477505080A46014940F0A3B989
S315080018D03E7505080A46014940F09DB93575050863
S315080018E00A46014940F097B92C7505080A46014988
S315080018F040F091B9257505080A46014940F08BB9AB
S315080019001A7505080A46014940F085B90F75050894
S315080019100A46014940F07FB9047505080A46014997
S3150800192040F079B9FB7405080A46014940F073B9D5
S31508001930F07405080A46014940F06DB9ED740508CA
S315080019400A46014940F067B9EA7405080A4601499A
S3150800195040F061B9E77405080A46014940F05BB9E9
S31508001960E47405080A46014940F055B9E1740508CA
S315080019700A46014940F04FB9DC7405080A46014990
S3150800198040F049B9D77405080A46014940F043B9F9
S31508001990CE7405080A46014940F03DB9C3740508E6
S315080019A00A46014940F037B9BE7405080A46014996
S315080019B040F031B9B97405080A46014940F02BB917
S315080019C0B47405080A46014940F025B9AF740508FC
S315080019D00A46014940F01FB9A47405080A46014998
S315080019E040F019B9997405080A46014940F013B937
S315080019F0927405080A46014940F00DB98F74050826
S31508001A000A46014940F007B98C7405080A46014997
S31508001A1040F001B9817405080A46014940F0FBB84F
S31508001A207C7405080A46014940F0F5B87374050840
S31508001A300A46014940F0EFB86A7405080A460149A2
S31508001A4040F0E9B8657405080A46014940F0E3B86C
S31508001A505A7405080A46014940F0DDB85774050866
S31508001A6008B5034842F0DBFBBDE808403FF0A6BED8
S31508001A709C7E0508014842F0D2BB00BF9C7E050843
S31508001A8007B5082041F090F802238DF80030054B81
S31508001A906846019340F09FFF082003B05DF804EB09
S31508001AA041F08DB8006A18100348044A0449121A0E
S31508001AB0921040F0DCBF00BF700100081C0300084C
S31508001AC0AC59002008B500F02FF8FFF7EDFF124BD0
S31508001AD012498B4212D30020114B12498B4218D35C
S31508001AE0FFF71EF9186850F82240586840F8224057
S31508001AF0013298688242F5D30C33EAE70022F8E708
S31508001B001C6844F8220001325C68A242F8D3083304
S31508001B10E4E70022F8E700BFCC430608D8430608E6
S31508001B20D8430608D84306084FF48041124B134A97
S31508001B3070B59A60D3F88820114D42F47002C3F844
S31508001B408820104A05F5005491664FF0FF32226648
S31508001B500D4A62660222C3F8D020BFF34F8FBFF347
S31508001B606F8F4FF44036002004F002FF0020E66035
S31508001B7004F0E2FE2E6170BD00ED00E000000008F2
S31508001B800080004400900050F7FF3700014B1868AA
S31508001B90704700BF9C5B0020014B1860704700BF70
S31508001BA09C5B0020084B1B6F03F00703022B04D035
S31508001BB0032B05D0012B05D0FEE7044B18687047A8
S31508001BC0034BFBE703487047008000509C5B0020EE
S31508001BD0A45B0020002D310108B5FFF7E3FF054B94
S31508001BE01B6FC3F303330133B0FBF3F0024B1860EA
S31508001BF008BD00BF00800050985B00200048704771
S31508001C0000B4C404014B1868704700BFA45B0020E9
S31508001C10054B1860054B1B6F03F00703032B01D117
S31508001C20FFF7DABF704700BFA45B002000800050B2
S31508001C3000487047002D31014FF0B4439868C0F34F
S31508001C4004400C280AD8DFE800F00B09090909093D
S31508001C50072119091B1D1F000F48704700207047F0
S31508001C609B6803F04073B3F1807F11D0B3F1007F16
S31508001C7010D00A4A002B08BF10467047084870471C
S31508001C80084870470848704708487047084870472A
S31508001C900848704708487047405DC60000093D007F
S31508001CA0C0EA210180BA8C010048E801005A6202A4
S31508001CB00024F40080841E0040420F00014B18687F
S31508001CC0704700BFA05B0020034B5868C0F30800AC
S31508001CD0003818BF0120704700ED00E070B5D0B19C
S31508001CE0C9B10E4E431E013913F8014F2046325D25
S31508001CF002F00302012A11F8012F08BF04F120009F
S31508001D00B55C05F00305012D08BF2032801A01D104
S31508001D10002CE9D170BD0120FCE700BFC3420608CC
S31508001D2010B40A6808461378022B10D01421302301
S31508001D30147913FB041307495B585179CB40DB43ED
S31508001D4003F0010313705DF8044BFFF759BA5DF809
S31508001D50044B704730C00350F7B50468054624485D
S31508001D6042F05DFA002301226179207902F098F8A1
S31508001D7014223023217913FB01231E4A99586379CB
S31508001D80D940C943A37901F00101022B217017D16B
S31508001D9040F047FF184A2B466179207900F0B8FBD6
S31508001DA0FF28024660790ED12A46134900F0ECFB5B
S31508001DB00123024661792079CDE9003302F016F84D
S31508001DC0002003B0F0BD01262779002301460096BE
S31508001DD0384602F0CDF82A460749607900F0D4FB68
S31508001DE00023617902462079009301963346E5E798
S31508001DF09C7E050830C00350211D00080268137830
S31508001E00022B24D014213023107913FB0013104918
S31508001E105B585179CB40917903F00103012912D11E
S31508001E20508843EA40034FF6E07063F03F039BB2E5
S31508001E30834202D11170538070474FF6DF718B428F
S31508001E40F9D10021F6E711B983F001031370704741
S31508001E5030C0035013B500242948019442F0DFF935
S31508001E60012304220321204602F01AF8204640F0F6
S31508001E70B9FF0122234B0520C3F8442401A942F0E7
S31508001E80C9F9002839D1204BD3F8F02042F00102D5
S31508001E90C3F8F020D3F8FC2042F08072C3F8FC2087
S31508001EA01A4AA3F55D431A60019B194A03F5D5231F
S31508001EB003F2FC43B3FBF2F3164A013B1361022318
S31508001EC0C2F8F0304FF48073C2F804334FF0604321
S31508001ED0114AC3F8B02F114AC3F8802ED3F8002E42
S31508001EE042F48072C3F8002EFF2283F82020D3F82C
S31508001EF0002E22F48072C3F8002E02B010BD00BF77
S31508001F009C7E050800D0035000ED00E0FF0300406A
S31508001F10F8590D00000004E055CEACC509000100D3
S31508001F204FF06043D3F8802E30B5D20715D501247B
S31508001F300B4D8440D5F8FC2042F08072C5F8FC2091
S31508001F40D3F8002E2243C3F8002E53F82020002A87
S31508001F50F0D003F82010002030BD1120FCE700BFA8
S31508001F6000ED00E010B50446064842F058F9A3789B
S31508001F702078B3FA83F3042261785B0901F090FFB5
S31508001F80002010BD9C7E050810B501224378017813
S31508001F90847830209A40054B00FB01331CB903F5C1
S31508001FA001531A6010BD03F58253FAE700C00350C7
S31508001FB010B5012243780178847830209A40054B81
S31508001FC000FB01331CB903F582531A6010BD03F5F3
S31508001FD00153FAE700C003500122437801789A407A
S31508001FE030235943014B5A50704700BF40F0035005
S31508001FF0102130230246007813FB001305495B586D
S315080020005178CB4003F0010093780BB980F00100BA
S31508002010704700BF30C003502DE9F04F9A46564B23
S3150800202085B01B7806460F461546DDF83C909DF8A8
S3150800203044B0DDF85080002B00F09780072A00F2A4
S3150800204096800E9B002B00F09280B9F1000F00F0ED
S315080020508E80129BB3F5006F00F38980012803D1A7
S31508002060109B002B00F08380444B03EB05131B7B6E
S31508002070002B7ED0424C1022002168464DF046F9CE
S3150800208004EB45141022A7BB394620464DF03EF90D
S3150800209043F210036380BBF1000F03D1E37843F0EA
S315080020A00303E370364A0E9B02EB451CCCE9019309
S315080020B0129B6901581E9DF84C30C0F30A0003F0C4
S315080020C003039B0643EA001E53582E48012E00EAD6
S315080020D003004EEA0003CDF800A0535017D0B8F11C
S315080020E0000F2ED19CF8023068F304138CF80230E6
S315080020F027E0002120464DF009F94FF44473638028
S31508002100BBF1000FCED1E37843F03003C9E71323C0
S315080021100CF1100ECCF80C309CE80F008EE80F007E
S315080021206FF00301DCF81C20109B61F39F02012F5E
S31508002130CCF81C20CCF8143003D1CCF81890CCF885
S31508002140043000270D4A290102EB051342F80180E5
S31508002150159A28465A60694622469F605E7301F0C2
S3150800216079FF384605B0BDE8F08F0748FAE7074813
S31508002170F8E70748F6E700BF494E0020BC1C0020D8
S31508002180BC1B00200F80FFF3028000F0018000F0E6
S31508002190078000F038B5124B05461B78DBB1E0B175
S315080021A040F084FC0F4A00231146147B54B92B6077
S315080021B001251A0101EB03131D738C5040F07CFCBA
S315080021C0204638BD0133082B02F11002EDD140F04C
S315080021D073FC0548F5E70548F3E70548F1E700BF4E
S315080021E0494E0020BC1C0020048000F0028000F04C
S315080021F0018000F038B540F059FC002305460B4A2B
S31508002200147B6CB90133082B02F11002F8D101F0E6
S31508002210CDFE074B28461C7040F04EFC204603E0D6
S31508002220284640F049FC034838BD00BFBC1C0020C6
S31508002230494E0020058000F00D4B10B51B7804466A
S3150800224093B1072812D840F031FC0A4B03EB04136C
S315080022501A7B2AB100241C7340F02EFC204610BDC0
S3150800226040F02AFC0448FAE70448F8E70448F6E789
S31508002270494E0020BC1C0020068000F0028000F0B9
S31508002280018000F0154B13B51868002301908DF8EE
S31508002290043040F00BFC124B1C7824B140F00CFCC7
S315080022A0104802B010BD01221A7040F005FC0E4B12
S315080022B001A81C731C7783F82C4083F83C4083F8EC
S315080022C04C4083F85C4083F86C4083F87C400823D4
S315080022D08DF8073001F08EFE2046E2E79275050874
S315080022E0494E0020038000F0BC1C00200A4A08B5AD
S315080022F012785AB107280BD8084A02EB00131B7B41
S3150800230043B1002101F068FE002008BD0448FCE73F
S315080023100448FAE70448F8E7494E0020BC1C0020A8
S31508002320028000F0018000F0078000F00A4A08B534
S3150800233012785AB107280BD8084A02EB00131B7B00
S3150800234043B1012101F048FE002008BD0448FCE71E
S315080023500448FAE70448F8E7494E0020BC1C002068
S31508002360028000F0018000F0078000F00A4A08B5F4
S31508002370127852B107280AD8084A02EB00131B7BC9
S315080023803BB101F0B3FE002008BD0548FCE705484F
S31508002390FAE70548F8E700BF494E0020BC1C0020B4
S315080023A0028000F0018000F0078000F00D4B1B78DA
S315080023B093B1072812D889B10B4B03EB00131B7B8B
S315080023C073B10A4B1A6D01238340134214BF0123CC
S315080023D0002300200B707047054870470548704772
S315080023E005487047494E0020BC1C002000000450D8
S315080023F0028000F0018000F0078000F00B4A10B55B
S3150800240012780C4662B107280CD859B1084A02EB73
S3150800241000131B7B43B101F07BFE2070002010BD2A
S315080024200448FCE70448FAE70448F8E7494E002060
S31508002430BC1C0020028000F0018000F0078000F03C
S31508002440184B2DE9F0411F6D5B6D1F4000D5FEE767
S3150800245001260025144CDFF85880374218D0236827
S31508002460C8F85060A3B1A168284601316268A16026
S315080024709847637B012B0BD150B90C4B03EB4513E3
S315080024801A7B60F341021A731A7F60F341021A77C6
S315080024900135082D4FEA460604F11004DDD1BDE8E2
S315080024A0F08100BF00000450BC1C0020BC1B0020AB
S315080024B00020045070B5044601250B4E04B970BDC2
S315080024C094FAA4F0B0FA80F005FA00F306EB0012CD
S315080024D024EA03045368002BF0D0117B11B19168EC
S315080024E09847EBE79847E9E73C1D002038B50546CD
S315080024F00C4640F0DBFA0022044B03EB05135C6044
S315080025001A73BDE8384040F0D7BA00BF3C1D00201A
S31508002510F8B504460D4617461E4640F0C7FA1CB9DC
S31508002520052D1AD0FF2421E0012C05D1012D21D03B
S31508002530032DF7D1042410E0022C07D1052D1BD05A
S31508002540072D1BD0002DEDD1062406E0032CE9D17A
S31508002550022D15D0052DE5D10A240A4904F11003E8
S3150800256001EB03110123C1E901760B7340F0A4FACC
S315080025702046F8BD0324F0E70724EEE70824ECE735
S315080025800924EAE73C1D0020F8B505460E4617461D
S3150800259040F08CFA134B2C46D3F8242405F0FC01A2
S315080025A022FA05F3DB0712D500230133DBB2042B2D
S315080025B004D1FF2440F080FA2046F8BDEC1804F058
S315080025C003040C4422FA04FC1CF0010FEDD1FF2C85
S315080025D0F0D00122044B03EB0413C3E901671A7315
S315080025E0E8E700BF00C003503C1D0020074BD3F8A6
S315080025F02404D3F8202403F50053104000F0553086
S3150800260020F05020C3F82004FFF754BF00C0035041
S31508002610074BD3F82404D3F8202403F500531040BD
S3150800262000F0AA3020F0A020C3F82004FFF742BF2C
S3150800263000C00350024B1968024B18681EF01EB8FA
S31508002640A85B0020C85B002070B5940022460546AA
S315080026500E464CF0B1FE431C0AD058B92246314604
S3150800266028464CF029FE0028034808BF002070BD04
S315080026700248FCE70248FAE710E000F021E000F023
S3150800268024E000F010B504464CF09AFE431C10D026
S3150800269088B901F0EFFD234620F003002044984254
S315080026A001D1002010BD53F8042B0132F7D003489E
S315080026B0F8E70348F6E70348F4E700BF0EE000F042
S315080026C021E000F024E000F008B540F0E4F9014B01
S315080026D0186008BD2C260020014B186840F0DFB9A9
S315080026E02C260020044BD3F88420D206FBD4D3F83A
S315080026F08400C0F381107047004000502E4B98426A
S315080027004AD022D82D4B984240D014D82C4B984208
S3150800271039D00AD82B4B984232D02B4B98422FD01F
S315080027202A4B98422CD000207047294B9842FAD160
S31508002730284B186F7047284B98422AD0274B984247
S31508002740F1D1244BD3F880007047254B98422BD003
S3150800275009D8244B984223D0234B9842E3D11D4BEA
S31508002760D3F88C007047214B984221D003F57403A7
S3150800277003F510539842D6D1164BD3F898007047F4
S31508002780144B986D7047134B586E7047114B586F22
S315080027907047104B986F70470E4BD3F884007047FC
S315080027A00C4BD3F8880070470A4BD3F89000704753
S315080027B0084BD3F8940070470048E8010024F40059
S315080027C0C0CF6A0080841E0000093D0040420F0009
S315080027D0405DC6000080E00FC0EA210180BA8C0186
S315080027E0007E560380D54302006CDC020090D003BD
S315080027F038B5104B0546D3F880300C4603F0030372
S31508002800022B0BD0032B0DD0012B0FD1FFF7CAF9E2
S315080028100E2305B1286004B1236038BDFFF70CFA12
S315080028200723F6E7FFF7B2F90623F2E7002318466F
S31508002830EFE700BF0080005038B5184B0546D3F8BF
S3150800284020010C4600F00700062823D8DFE800F030
S31508002850040A0E16121A1E00012305B1286004B1D7
S31508002860236038BDFFF792F90523F6E7FFF7CAF9A3
S315080028700323F2E7FFF7E0F90723EEE7FFF7D8F9B6
S315080028800223EAE7FFF782F90623E6E7FFF7BAF934
S315080028900423E2E700231846DFE700BF0080005064
S315080028A038B5174B0546D3F828310C4603F007030D
S315080028B0013B052B20D8DFE803F003131B0F0B178A
S315080028C0FFF764F9052305B1286004B1236038BD14
S315080028D0FFF75CF90623F6E7FFF7AEF90723F2E7F9
S315080028E0FFF790F90323EEE7FFF78CF90423EAE7ED
S315080028F0FFF79EF90223E6E700231846E3E700BF41
S315080029000080005073B50D460021114B0191D3F894
S315080029108041064604F00304022C13D0032C0CD085
S31508002920012C13D101A8FFF787FF10240EB1019BD4
S31508002930336005B12C6002B070BDFFF77DF907243E
S315080029400190F3E7FFF774F90190EFE70C46EDE71E
S3150800295000800050002337B50193164B0546D3F87F
S3150800296020320C4603F00703042B21D8DFE803F0D6
S31508002970030B11161B0001230DB1019A2A6004B13D
S31508002980236003B030BD002101A8FFF789FF122399
S31508002990F2E7FFF751F907230190EDE740F075F8E4
S315080029A00A230190E8E7FFF789F909230190E3E78D
S315080029B00023E1E70080005038B5104B0546D3F8F0
S315080029C040310C4603F00303022B0BD0032B0DD02A
S315080029D0012B0FD140F059F80A2305B1286004B13C
S315080029E0236038BDFFF76AF90923F6E740F050F887
S315080029F00C23F2E701230020EFE700BF0080005018
S31508002A00002337B50193164B0546D3F860320C46BA
S31508002A1003F00703013B032B1FD8DFE803F0020E80
S31508002A201914002101A8FFF707FF10230DB1019A19
S31508002A302A6004B1236003B030BD002101A8FFF766
S31508002A40BBFF1123F2E7FFF7F7F807230190EDE73D
S31508002A50FFF7EEF802230190E8E70023E6E700BF58
S31508002A6000800050002337B50193164B0546D3F86E
S31508002A7094320C4603F00703013B032B1FD8DFE80B
S31508002A8003F0020E1914002101A8FFF7D5FE102342
S31508002A900DB1019A2A6004B1236003B030BD00214C
S31508002AA001A8FFF789FF1123F2E7FFF7C5F8072307
S31508002AB00190EDE7FFF7BCF802230190E8E7002351
S31508002AC0E6E700BF0080005038B5144B0546D3F83A
S31508002AD000020C4600F0070004281BD8DFE800F0C7
S31508002AE003090D111500012305B1286004B12360FF
S31508002AF038BD3FF0CAFF0A23F6E7FFF7DFF80923D8
S31508002B00F2E73FF0C5FF0C23EEE7FFF765F80F2362
S31508002B10800AE9E700231846E6E700BF0080005070
S31508002B2038B5144B0546D3F808020C4600F00700E2
S31508002B3004281BD8DFE800F003090D11150001234E
S31508002B4005B1286004B1236038BD3FF09EFF0A2313
S31508002B50F6E7FFF7B3F80923F2E73FF099FF0C23EE
S31508002B60EEE7FFF739F80F23800AE9E7002318464E
S31508002B70E6E700BF0080005038B5104B0546D3F88D
S31508002B8040320C4603F00303022B0BD0032B0DD067
S31508002B90012B0FD13FF079FF0A2305B1286004B154
S31508002BA0236038BDFFF78AF80923F6E73FF070FF80
S31508002BB00C23F2E701230020EFE700BF0080005056
S31508002BC038B5104B0546D3F860310C4603F00303BD
S31508002BD0022B0BD0032B0DD0012B0FD13FF055FF45
S31508002BE00A2305B1286004B1236038BDFFF766F8EB
S31508002BF00923F6E73FF04CFF0C23F2E701230020F8
S31508002C00EFE700BF00800050B0F5207F1FD009D83D
S31508002C10B0F5007F15D003D868B1B0F5C07F0AD0EB
S31508002C2000200CE0B0F5607FFAD10B4BD3F880009A
S31508002C30C0F3011003E0084B186FC0F303300130EE
S31508002C407047054BD3F89000C0F30460F7E7024BD2
S31508002C50186FC0F38020F2E70080005002464FF458
S31508002C608030104B10B598660020FFF7CDFF504313
S31508002C7041F671320C4BDC69DA635A6804F4803425
S31508002C8022F4401259B90949884294BF002001200C
S31508002C90000502435A600CB10022DA6310BD0449EC
S31508002CA0F2E700BF0090005000000350005A62028D
S31508002CB0002D3101430905D0012B0CD0022B084BFE
S31508002CC018BF002300F01F0039B103F58053012215
S31508002CD082401A607047034BF4E703F50053F6E7A2
S31508002CE068800050648000501FB500218028044683
S31508002CF0CDE9001100F0A58035D85E2846D85E28B3
S31508002D0044D8DFE800F0A2434343434343434343E5
S31508002D104343434343434343434343434343434375
S31508002D20434343434343A2AAA2AABABABABABAAA1F
S31508002D30C44DDA714DAAAAAA4343434343434343C6
S31508002D40AAAAAA79E4AA43434343434343434343D2
S31508002D50434343BAA2A2A2DF4D4DE9885EBF43436F
S31508002D6043434399A200B0F5B06F00F090802DD888
S31508002D70B0F5207F71D00CD8B0F5C07F65D0B0F51E
S31508002D80007F65D0B0F5807F00F08680009804B09B
S31508002D9010BDB0F5607F6BD00DD8B0F5407FF5D18A
S31508002DA0FEF71AFF02464FF42070FFF72DFFB2FB1D
S31508002DB0F0F252085AE0B0F5806F5ED0B0F5A06F19
S31508002DC0E4D100216846FFF7C5FDDFE7B0F5106FCF
S31508002DD078D016D8B0F5E06F79D00AD8B0F5C06FBC
S31508002DE06BD0B0F5D06FD1D100216846FFF76CFEE5
S31508002DF0CCE7B0F5F06FC9D100216846FFF7E0FED1
S31508002E00C4E7B0F5406F3DD013D8B0F5206F63D056
S31508002E10B0F5286FBAD10021324B0391D3F870323E
S31508002E2003F00303012B02D103A8FFF7C5FD039B9B
S31508002E303CE0B0F5486FA9D100216846FFF712FEBD
S31508002E40A4E7FEF7AFFE0090A0E7FEF7C5FEFAE797
S31508002E50FEF7A8FE0246204604E0FEF7BDFE02463F
S31508002E604FF42070FFF7D0FEB2FBF0F200928DE728
S31508002E7001A8FFF7BDFC019AEDE700216846FFF7B8
S31508002E80DBFC83E700216846FFF70AFD7EE70021A1
S31508002E906846FFF737FD79E74FF0E02302911B6993
S31508002EA05B0705D5FEF798FE0290029B00936DE737
S31508002EB003A902A8FFF780FDF7E700216846FFF798
S31508002EC07BFD63E700216846FFF72AFE5EE70021DF
S31508002ED06846FFF751FE59E700216846FFF790FD5F
S31508002EE054E700BF0080005008B58020FFF7FCFEBD
S31508002EF0034B98429EBF4FF48032024B1A6708BDB7
S31508002F00005A620200A000501FB503460020B3F520
S31508002F10807F019000F0C18064D85D2B55D84C2B7A
S31508002F2007D82D2B48D8232B2CD8019805B05DF847
S31508002F3004FB4D3B102BF8D801A252F823F000BF32
S31508002F40913000082B2F00082B2F00082B2F000884
S31508002F50473000082B2F00082B2F000815310008D2
S31508002F60653000080B3000080B3100082B2F0008CD
S31508002F702B2F00082B2F00082B2F00082B2F0008BB
S31508002F801F310008243B092BCFD801A252F823F0A1
S31508002F9091300008913000089130000891300008FF
S31508002FA0913000082B2F0008873000082B2F0008C7
S31508002FB027300008C73000083D2B7FD03E2BB4D100
S31508002FC0002001A9FFF7D8FDAFE7802BADD1594BFB
S31508002FD01B6F03F00703013B032BA6D8DFE803F0BA
S31508002FE0514E858DB3F5F06F68D021D8B3F5B06F23
S31508002FF049D00FD8B3F5607F00F0838095D3B3F539
S31508003000806F45D0B3F5A06F8FD1002001A9FFF7D7
S31508003010A1FC8AE7B3F5D06F55D0B3F5E06FCFD0F2
S31508003020B3F5C06F81D1002001A9FFF7C5FC7CE785
S31508003030B3F5206F6ED00BD8B3F5086F48D0B3F54B
S31508003040106F7FF472AF002001A9FFF769FD6CE7E6
S31508003050B3F5406F59D0B3F5486F60D0B3F5286F14
S315080030607FF463AF334BD3F8703203F00303012BBD
S315080030705AD0022B0CBF1523002300E00523019329
S3150800308053E70223FBE7002001A9FFF73BFC4CE7C7
S31508003090002001A9FFF7D0FB47E74FF0E023029095
S315080030A01B695B0705D5FEF797FD0D230393039B65
S315080030B0E5E703A902A8FFF77FFCF8E7002001A9C6
S315080030C0FFF77EFD31E7002001A9FFF7FDFC2CE79D
S315080030D0184BD3F8003103F00303022B07D0032B58
S315080030E009D0012B0BD1FEF78DFD0323C7E7FEF7A9
S315080030F0E5FD0923C3E73FF0C6FC0823BFE7012324
S31508003100BDE701A9FFF774FB0FE7002001A9FFF748
S31508003110C7FB0AE7002001A9FFF772FC05E70020B4
S3150800312001A9FFF79FFC00E7002103A8FFF744FC6D
S315080031301123A4E7008000504FF48032074B08495A
S31508003140586E03F580535A664B6A23F001034B62A7
S31508003150C3035CBF034B5A66704700BF008000502C
S3150800316000C0075000A0005038B504468020FFF77D
S31508003170CBFE032800F083804FF48012524B4FF0A9
S31508003180A0615A6645F60E02504BC3F88020504A95
S3150800319091624FF4803102F5805291629A6DD203A2
S315080031A0FCD4996D11F08041FBD1D4E900021205D7
S315080031B042EA0062E07B0243207B42EA0042607BEF
S315080031C042EA0032A07B42EA80121A619869D4E981
S315080031D00452120642EA856200F000400243A07ECD
S315080031E0E57E0243207E42EA0042607E42EA0022F1
S315080031F09A611A6AE06922F00F0242EA8502354DA1
S3150800320000283DD11A6294F82420996A94F820007F
S31508003210D200294042EA40120A4394F8211042EAB1
S31508003220011242F480329A622B49284A936D31EA98
S315080032300303FBD14FF08071254881621369A568A5
S3150800324023F4700343EA055313614FF00043836187
S3150800325094F822300BB9214B996294F823303BB984
S315080032604FF480321D4B9A62184A936D5B00FCD46A
S3150800327094F825301BB1154B194AC3F8802038BD80
S31508003280024342F0080202281A6208D119614FF473
S315080032900852996113484FF47F413FF00BFD0B49E3
S315080032A094F822308A6A94F820001B062A4043EADA
S315080032B04013134394F8242043EAC20394F82320C6
S315080032C043EA02438B62D3E7009000500040005A5D
S315080032D00050005AC7FFFEFE030001000060005AB6
S315080032E0F1A7FFFF3440005A014B93F900007047DD
S315080032F002640020F0B5D0E901434FF400061A4AEB
S315080033004178057856664FF4D156022702F5B83249
S315080033105662164E4F2977604FF0010728BF4F2196
S3150800332006F5805677601669F603FCD441EA05214E
S3150800333051611B01417B43EA04230B43017B43EAAA
S3150800334041039360C37B817B1B0143EA4113417CA4
S315080033500B43017C43EA41035360837C13B16FF44A
S31508003360D1535362F0BD00BF0090005000100250C8
S31508003370014B1880704700BF0E610020014B188072
S31508003380704700BF0C6100204FF4800208B5184B47
S315080033905A660223174A5360936813F48033FBD1A5
S315080033A0012822D1FEF72EFC134B984215D003F5BF
S315080033B0122303F5F863984213D0104B00EB8002F2
S315080033C0400AB3FBF0F3520A0A49CA620B630123A7
S315080033D04B620022074B5A6008BD45F67A13084A25
S315080033E0F2E745F61A03074AEEE75362F1E700BF2C
S315080033F0009000500040025000F04902646666667C
S31508003400D8B80500BBCF0500B0F5207F10B50C462F
S315080034105DD008D8B0F5007F4ED003D8C0B1B0F55E
S31508003420C07F15D010BDB0F5607FFBD12C4B4C1E6C
S31508003430D3F8FC202B4912F0807F4FEA041427D1D9
S31508003440D1F8803023F030032343C1F88030E9E710
S315080034503FF03FFC3FF04BFC4FF48031224B214AB2
S315080034601967136F013C23F4704343EA0433136767
S31508003470FEF7B2FB0446FFF735F9C0F10201204614
S315080034803FF02FFC00F042F8BDE81040FFF72CBDD6
S31508003490D3F8FC2022F08072C3F8FC20D1F88020F3
S315080034A022F030022243C1F88020D3F8FC2042F0F3
S315080034B08072C3F8FC20B5E70A4A4C1ED2F8903051
S315080034C023F0F85343EA0463C2F89030AAE7054AA2
S315080034D04C1E136F23F4806343EA84231367A1E722
S315080034E000ED00E0008000500090005008B5012172
S315080034F0022000F06DF93FF0ECFB3FF0F8FB4FF4CB
S315080035008032014B1A6708BD0090005008B54FF489
S31508003510C070FFF7E9FBBDE808400449884294BF3C
S31508003520012102214FF42070FFF76EBF80F0FA02E6
S315080035304FF4C02270B50546FFF7E0F8314B044654
S315080035405A6603F598335A68012A04D12E494A6007
S315080035505A689207FCD48020FFF7D6FC052807D1C5
S315080035603FF0B7FB3FF0C3FB4FF48032254B1A6799
S31508003570264B24F040749D4230D0254B9D4230D0D6
S31508003580FEF704FB8542064603D90121284600F0CA
S315080035905FF9204BDA6812F0060FFBD199689C6038
S315080035A09A68624012F4F81F1ED12846FEF7F4FA0C
S315080035B08020FFF7A9FC05280DD1FEF70DFB044670
S315080035C0FFF790F8C0F1020120463FF08AFBFFF7AB
S315080035D09DFFFFF789FCAE420CD270BD44F0007423
S315080035E0CEE744F08074CBE780209960FFF78CFC27
S315080035F0052805D0BDE870400121002000F028B953
S315080036003546DAE70090005000E0015040420F00CE
S3150800361080841E0000000150304B314A984251D038
S3150800362020D8A3F5B703A3F55863984246D00DD81A
S315080036302C4B984231D02C4B984239D02B4B4FF417
S31508003640002198421DD00023516622E0284B4FF4F2
S3150800365000219842F7D1274BD3F8BC30516623F0A6
S31508003660407316E0244B984230D0244B984231D010
S31508003670234B4FF400219842E5D11E4BD3F8C830AE
S31508003680ECE71C4BD3F8A030516623F0407343F0A7
S3150800369000734FF0B442936070474FF40021154B06
S315080036A0D3F8A030516623F0407343F08073F0E7F7
S315080036B0104BD3F8A0304FF40021CFE70D4BD3F8C9
S315080036C0B830F8E70B4BD3F8C030F4E7094BD3F81A
S315080036D0CC30F0E7074BD3F8D030ECE7C0EA21014D
S315080036E00090005080841E0000093D0040420F00F3
S315080036F00024F4000080E00F0048E801005A620246
S3150800370080BA8C01024A536B0342FCD1704700BF52
S3150800371000400950044A4178536F23F4407343EA42
S3150800372001235367704700BF004000500E4A10B58A
S315080037301369044643F00403136105F091F83FF05A
S31508003740F2FA0A4B5B6E5B0142BF094B094AC3F8A2
S31508003750202430BF3FF0E8FA05F0BCF81CB9BDE8F4
S315080037601040FEF739BA10BD00ED00E000800050A9
S3150800377000E003500000FF0F0C4A10B51369044619
S3150800378043F0040313610A4B5B6E5B0142BF094BAE
S31508003790094AC3F8202405F063F830BF05F09AF803
S315080037A01CB9BDE81040FEF717BA10BD00ED00E0E1
S315080037B00080005000E003500000FF0F034A017923
S315080037C0D36E23F030030B43D36670470040005096
S315080037D0F8B504461C4BD3F88420D106FBD4D3F89D
S315080037E08430C3F381139C422CD0FEF7DBF9012CFD
S315080037F0064602D121463FF074FA3FF04CF94FF0E5
S315080038000072124B07465A6620463FF090FA4FF46C
S3150800381080630D4D621E93402B676B6E9A0103D42D
S31508003820D5F884309B060AD538463FF038F9022C7D
S3150800383008D13046BDE8F84000213FF052BAD5F825
S315080038408430EAE7F8BD00BF004000500060005031
S3150800385010B50C4608B9FEF7A5F9074B21461B78A3
S315080038603BB1064B984204D80120BDE81040FFF74B
S31508003870AFBF0220F9E700BF4A4E0020005A620295
S315080038800278034B012100201A70FFF7E1BF00BF41
S315080038904A4E00204FF0004238B5244B244C5A6655
S315080038A04AF6CD33656C014605F00105236428BB4D
S315080038B00120FFF727FF6368DB0715D51D4B586006
S315080038C008461D4B226BD2070CD4984208D1072410
S315080038D015B1174B194A1A6447F0CBFC204638BD78
S315080038E00130EFE79842F2D00024F1E70132236B6A
S315080038F013F0080305D08A42F8D1E8E700220E49FA
S31508003900F5E78A42E3D020210A4A91620121A2F50D
S31508003910805251600649084A886A800603D4934251
S31508003920D5D00133F8E79342DDE700BF0090005099
S31508003930004009500060095040420F003254FFFF12
S315080039404FF0004238B5164B01465A664AF6CD3353
S31508003950144C154A656C236443780B205B0043F0CE
S315080039600103D363FFF7CEFE63688A7823F4F873FE
S3150800397043EA02136360CA784B7943EA0223A360D9
S315080039800A798B7943EA022323610878FFF782FFD5
S31508003990EB0744BF054B236447F06BFC012038BD99
S315080039A00090005000400950004000503254FFFF7C
S315080039B04FF00042124B70B55D6E03F580535A66A0
S315080039C04AF6CD3304460F4980204E6C0B64FFF748
S315080039D099FE0B6A23F00F030F2C94BF234343F081
S315080039E00F030B62F30744BF074B0B64002DA2BFFE
S315080039F04FF00042054B5A6647F03BFC70BD00BFCE
S31508003A0000800050004009503254FFFF00A00050CB
S31508003A104FF00042104B70B55D6E03F580535A6641
S31508003A204AF6CD3304460D4980204E6C0B64FFF7E9
S31508003A3069FE0B6A23F4F85343EA04230B62F3077F
S31508003A4044BF074B0B64002DA2BF4FF00042054B45
S31508003A505A6647F00EFC70BD0080005000400950C1
S31508003A603254FFFF00A0005010B53FF065F904235B
S31508003A7000F5805100F500520B6113610B6113616B
S31508003A800B6113610B611361202341F2020103618B
S31508003A900023C360836041614FF4A021836183657D
S31508003AA041620549C36103628362C3624363036576
S31508003AB0D164036310BD00BFFF3F0D0370B5054613
S31508003AC01446084641B9354B9D4218D0344B9D42A1
S31508003AD008BF5720FFF708F9AB6813F0010F6B68AA
S31508003AE030D0B0FBF4F4D80704F1FF344FEA04648D
S31508003AF007D42B6923F07F4323432B6170BD5620DF
S31508003B00E8E7282128463FF013F9AB6C990715D149
S31508003B10AB6CDA0714D4AB6C13F0020F14BF06268D
S31508003B20002628463FF008F92B69314623F07F43E3
S31508003B3023432B61BDE870403FF035B90526F0E711
S31508003B400926EEE7AB6DDB07AB6848BF640003F0F8
S31508003B50E003402B1BD004D8DBB1202BCED10823A1
S31508003B6004E0602B17D0802BC8D1012363434101A1
S31508003B70B1FBF3F20B4B203A284603EAC2020121B5
S31508003B803FF0D6F82A63BDE870403FF0D1B8062367
S31508003B90ECE71023EAE70423E8E700BF0000015B2F
S31508003BA000000A50F8FF7F002DE9F843984643685D
S31508003BB004460E4617461BB140F6FF713FF0B8F8AB
S31508003BC02046FFF751FFF189737B62690B43318AFF
S31508003BD022F44C520B4322F00F0213436361A2688E
S31508003BE0317E337B22F0804222F0E2020B431343FC
S31508003BF07269D6F808901343A360B9F1000F03D190
S31508003C00A36843F00043A360F069002874D0857A5E
S31508003C10037A6D04A26845EA83556D4B13401D432C
S31508003C20838803F4C0431D43437845EA8305437BF1
S31508003C3045EAC305837B45EA0315837845EA832568
S31508003C40A560D0E90432E5681343624A2A40134363
S31508003C50827943EA8223C27943EA4223E3600378FE
S31508003C605D4A012B14D1E36843F00403E3609442F0
S31508003C7000F09280594B9C420CBF01234FF0FF3352
S31508003C805B0103F1A04342F2944203F5703314E05A
S31508003C90032B7BD1E36843F00403E360944279D0B5
S31508003CA04E4B9C420CBF01234FF0FF3341F2944226
S31508003CB05B0103F1A04303F5703302259D50437A57
S31508003CC004F5805293621BB1E36843F40063E36032
S31508003CD0C37A5BB1E36843F40043E3603E4B9C421E
S31508003CE05CD1037B3E4A03F00F035367636AC27BCA
S31508003CF023F00303134363623FB197F8203004F5BA
S31508003D008050002B54D001230362B8F1000F27D04E
S31508003D1004F5805011B14FF4004383652E4BB8F873
S31508003D2022109C4298F821304FD02C4A94420DD14B
S31508003D300122112B34BF012702272A4DB1F5006F46
S31508003D40AF5494BF01270227274DAF54A26D0B43EA
S31508003D5022F4F95222F01E021343A3650123836558
S31508003D60052120463FF002F8B9F1000F03D04A4674
S31508003D707168FFF7A3FE204631783FF014F8A36C6C
S31508003D80DB4313F4405FFAD1BDE8F883023B012B0D
S31508003D9084D96CE7002389E7002371E70F4B9C421F
S31508003DA001BF037B0E4A03F00F03C2F880309DE77C
S31508003DB0E26997F8223097F8215022F009022B433E
S31508003DC0134343F00103C3619FE70022B1E700BF35
S31508003DD0E39BBDFFFFF9F0870000015B00000A5076
S31508003DE0009003504D4E00204B4E0020072A2DE927
S31508003DF0F041154698464FF0030401F003072DD805
S31508003E009600B44000FA06F221461C483EF0DBFF55
S31508003E1021461B4807FA06F23EF0D5FF194B1A4908
S31508003E209DF81800B8F1000F18BF1946012303FAC8
S31508003E3005F50D60154B1649002818BF0B461D6081
S31508003E40144B9DF81C00C3F82054103103F2244388
S31508003E50002818BF0B461D60BDE8F081A2F10806D0
S31508003E60B600B44000FA06F221460B483EF0ABFF16
S31508003E7021460A4807FA06F2CEE700BF00C40350F7
S31508003E8008C4035010D4035010E4035014E403503C
S31508003E9014D4035000E0035004C403500CC4035068
S31508003EA02DE9F04105460F461E4690464AB10123C4
S31508003EB03022194C8B4002FB004436B304F5825479
S31508003EC023600F21072F05EB450388BFA7F10804D8
S31508003ED04FEA0313114895BFBC00A40004330C3302
S31508003EE008FA04F2A14018443EF06DFFB8F1000F3D
S31508003EF009D101233021084ABB4001FB05223EB106
S31508003F0002F582521360BDE8F08104F50154D7E743
S31508003F1002F50152F6E700BF00C0035030C0035057
S31508003F20104B0140D3F8302422EA0002C3F83024AB
S31508003F30D3F830241143C3F83014D3F82C240243A1
S31508003F40C3F82C24084AD36E03F03003202B1FBF76
S31508003F50D36E23F0300343F01003D366034BC3F844
S31508003F602004704700C003500040005000E0035092
S31508003F7038B514461D46032283F00103FFF790FF68
S31508003F80012004F11001884005FA01F1FFF7C8FF86
S31508003F909DF81010034B044A002918BF13461860F1
S31508003FA038BD00BF24E4035024D4035010B51520AF
S31508003FB002F0B0FC0024FF22064B21465C65202057
S31508003FC09A625C60FEF776FE2146BDE81040212025
S31508003FD0FEF770BE00000450044A054B002908BFCE
S31508003FE01346012282401A60704700BF40100450F1
S31508003FF04020045010B5012104462020FEF75AFE41
S3150800400001212120FEF756FE0122114B15205A6088
S31508004010227812069A606178A27842EA01429A6189
S31508004020FF229A6200229A631A644FF000425A6588
S315080040304FF0FF3203F500531A6502F099FC15207C
S31508004040E17802F0A3FCBDE81040152002F074BC2C
S3150800405000000450F8B50125C3B2D1F800E091F884
S315080040600AC00F7B0C469D40CB7A1D491D4E0D6537
S31508004070810001F1A04101F58821C1F804E04FF063
S31508004080300E0EFB00601B05617B43EA0C4343EAD6
S31508004090475322F003020166C36502673EF006FD38
S315080040A0114B5D65237A13B1336C2B433364637A02
S315080040B013B1B36B2B43B3632279A37943EA024363
S315080040C0074A93616179E37943EA014306498B61BB
S315080040D0044B55639D64BDE8F8403EF0EDBC00BF57
S315080040E000200450000004500010045010B50124AC
S315080040F0C0B284403EF0DAFC044B5A6D22EA040250
S315080041005A659C62BDE810403EF0D6BC00000450DB
S3150800411010B50124C0B284403EF0C8FC074BDA6AE9
S31508004120224208D15B6B9C430CBF012400243EF05D
S31508004130C3FC204610BD0024F9E700BF0000045068
S315080041404FF48032054B9A6641F6713203F51C33FB
S31508004150DA63012203F50053DA60704700900050D5
S3150800416041F671320121064BDA6303F50052D1603C
S315080041700022DA634FF48032A3F518339A66704743
S3150800418000000350013831289ABF024B185C002002
S31508004190704700BFB9750508021E30B54FF000001C
S315080041A00CBF1025042547F60774084952B9831D24
S315080041B051F82330234023B101308542F6D14FF020
S315080041C0FF3030BD00F11603F2E700BF0080035050
S315080041D038B5C2F30625044602F0070241B942EA99
S315080041E0052242F440220634074B43F8242038BD02
S315080041F0114628463EF0F7FD02462846FFF7C2FF5D
S31508004200163442EA0022EFE700800350044B186890
S31508004210421C02BF034AD2F894001860704700BFD8
S31508004220CC5B0020004000504FF48032064B5A66A3
S3150800423003F5E6239B69C3F38512827003F03F02F8
S315080042401B0B4270037070470090005040F6B7325F
S31508004250064B5B689BB293429FBF4FF47A72B3FBDF
S31508004260F2F3034AD05C88BF002070470080E00F55
S31508004270EB7505080120034B9B680A3303F01F03FF
S31508004280984070470080E00F034B5A68D20702D562
S31508004290DA69002AF9D1704700800A50054B9A68F6
S315080042A09107FCD45A689207F9D4DA69002AF6D13C
S315080042B0704700BF00800A5008B5FFF7E5FF0222E5
S315080042C0014B1A6108BD00BF00800A5008B5FFF708
S315080042D0E5FF0122024B03F580514A601A6108BDC9
S315080042E000800A5008B5044B5968012903D1FFF725
S315080042F0E3FF024B596008BD00800A5000A00A502F
S3150800430010B5064CFFF7CAFF6368012B03D1FFF708
S31508004310E9FFFFF7C3FF0378E36010BD00800A508A
S31508004320B8B94A680B7812B1127843EAC2034A78D8
S3150800433043EA42038A6812B1127843EA82138A78FA
S3150800434043EA8203CA6812B1127843EA4223014A51
S315080043509364704700800A5008B9014B5964704746
S3150800436000900A5008B9014B5964704700A00A50DA
S3150800437008B9014B1964704700A00A5010B9024BDE
S31508004380186C70470020704700800A5048B911B170
S31508004390012903D07047044BD86C7047024B186D3F
S315080043A070470020704700BF00800A5040B911B11D
S315080043B0012903D07047034BDA647047014B1A652D
S315080043C0704700BF00800A5010B9024B586D7047FD
S315080043D00020704700800A5038B50446054D47F05E
S315080043E03FF80FCC0FC594E8030085E803000020CA
S315080043F038BD00BF3026002047F6FF739A42F0B555
S315080044006FD002296FD8394B5B5C012B6BD8384DBE
S31508004410DF0005EBC30415F83330A178012B13D15F
S315080044200025E078401AA84202D80844C0B2F0BD78
S31508004430431B6668A0EB530336F913609642D4BF54
S315080044401D4603F1FF30EEE760680028EFD0B0F9AB
S315080044500040944204DBB0F902409442B8BF1446C7
S3150800446083883D44FF2B19BFC8224FF0280CB0F9AA
S315080044700620B0F908C0A2EB04030CBF01260026EB
S3150800448093FBFCF333446E781BB29E4201DD002B8E
S3150800449001DA731E1BB24FF47A7C01339BB2071DF7
S315080044A05D1E2DB24FEAC50E00EBC505EA88AD685C
S315080044B09E4214FB025222EAE27202F15C02B2FB4D
S315080044C0FCF204DD37F8335001339542E8D200EBAD
S315080044D00E039888904228BF1046884238BF08467F
S315080044E0A4E7FF20A3E70020A1E700BFEE750508B3
S315080044F0302600200229F0B555D82C4B585C0128E7
S3150800450051D82B4C04EBC00114F830004B68012835
S315080045100FD1C8788C78904294BFC4EB0001C4EBE5
S315080045200201001BCAB28242C8BF002233F9120038
S31508004530F0BD002B37D08878904202D3B3F9020039
S31508004540F6E7CC78B3F900009442F1D94C7899880B
S31508004550013CA1F1FF06714203F10405E4B2714181
S3150800456003F10C07CEB2B44216D805EBC1014FF4DD
S315080045707A756A43B1F902404968521A04EBD47154
S3150800458002EB610292FBF4F29042D1DBB3F902002E
S315080045909042CDDC10B2CBE737F831C04E1C9445BB
S315080045A0E3D33146DEE70348C2E700BFEE750508E8
S315080045B0302600200080FFFF08B50448FFF70CFFEF
S315080045C0BDE80840012046F084BF00BFF475050821
S315080045D07FB50222084B0949CDE901234FF0007344
S315080045E0CDE90313072301A94FF0FF30059346F0E1
S315080045F0F8FF07B05DF804FB006A18000002060021
S3150800460008B5B0B14FF480620B4B9A663EF05EFF78
S315080046104FF098435A6CD202FCD54FF48062586D1D
S31508004620064B10F470209A6604D0BDE808403EF0A8
S315080046307CBC212008BD00BF0090005000A000509F
S315080046402DE9F0418CB08846DDE912761D46044610
S31508004650002847D0002945D0002F43D0002E41D04E
S3150800466013F00F033ED120482049A360002A08BF53
S315080046700146E361C4E90013404609A93EF051FD2D
S3150800468068BB204609993EF018FF294620463EF0A9
S3150800469014FF6946404600F0F7FA00BB6946204613
S315080046A03EF0F7FE404603A93EF03AFEB8B920466A
S315080046B003A93EF0EEFE06970127204645F0005571
S315080046C006A9079708953EF0E4FE204609A909962B
S315080046D00A970B953EF0E7FE2046FFF791FF0CB0D0
S315080046E0BDE8F0812120FAE7000100040001010479
S315080046F02DE9F04F97B0894690461F460546DDF8E6
S3150800470080A0002800F0BB80002900F0B8803AB1EC
S31508004710229B002B00F0B380239B002B00F0AF8078
S31508004720BAF1000F00F0AB80219B002B00F0A780A8
S3150800473067B13C680026229B43440293464507D34B
S3150800474007B13C60002017B0BDE8F08F3C46F1E7A2
S315080047505CB1229B219A9B5D125D01345340239ADA
S3150800476004F00F0493550136E8E7A8EB060BBBF1F6
S315080047700F0F58D9434B4846C5E90034AC60EC6185
S3150800478013A93EF0CEFC0028DDD1284613992BF05C
S315080047900F0B3EF092FE594628463EF08EFE4846DE
S315080047A004A900F071FA0028CDD1284604A93EF0E4
S315080047B070FE484607A93EF0B3FD0028C3D1284637
S315080047C007A93EF066FE012322992F4ACDF828A0B4
S315080047D00B930C928A190D9228464BF000520AA99F
S315080047E00E9303920F923EF054FE28460DA93EF012
S315080047F050FE239B039A9919012310911193129243
S31508004800214A284610A9CDF84CA0149315923EF0DB
S315080048104AFE284613A93EF046FE2846FFF7F0FE54
S315080048205E4400288FD1229B03EB060B239B1E4474
S31508004830029B5B4501D1464680E7ACB9219B2246DF
S31508004840CDE900A3494610232846FFF7F9FE0028BC
S315080048507FF479AF0AF1100212F8013D0133DBB299
S3150800486013700BB95245F7D1219A1BF8013B125D1B
S315080048700134534006F8013B04F00F04D8E7212021
S3150800488061E700BF03030004100000202DE9F04F84
S3150800489097B0894615469A460446209FDDF88880D3
S315080048A0DDF890B0269E002800F09D80002900F0D3
S315080048B09A80002E40F08A80002B00F09480B8F190
S315080048C0000F0AD0219B002B00F08D80002A40F0B3
S315080048D09F80F10700F1878002E0002A40F085807A
S315080048E0FB1F062B7FD8524B0BEB05029A427AD850
S315080048F00023504A4846C4E90023A360E36113A98C
S315080049003EF00FFC00285ED1204613993EF0D5FDF7
S31508004910204646EA07413EF0D0FD414620463EF095
S31508004920CCFD294620463EF0C8FD484601A900F0C0
S31508004930ABF9002847D1204601A93EF0AAFD484612
S3150800494004A93EF0EDFC00283DD14FF001092046B0
S3150800495004A93EF09EFD239B45F000550793219B35
S31508004960CDF82090204609950DA90A9347F00057DF
S3150800497048F00053CDF82C900C93CDF834A0CDF820
S3150800498038900F973EF085FD20460AA93EF081FD36
S31508004990204607A93EF07DFD259B204610A946F036
S315080049A00056CDF840B0CDF8449012951393CDF843
S315080049B0509015963EF077FD204613A93EF073FDFC
S315080049C02046FFF71DFE17B0BDE8F08F259B53B1B3
S315080049D0BAF1000F07D0B8F1000F01D0219B13B12F
S315080049E0B5B9022E20D12120EDE7239B002BFAD062
S315080049F0BBF1000FF7D0C7F10F03DBB2032B3FF66D
S31508004A0068AF0122DB0002FA03F3AB42EBD9E8E711
S31508004A10239B002BE7D0BBF1000FE4D0C7F10F03AF
S31508004A20DBB2032BDDD8ECE7102E7FF652AFDAE7C0
S31508004A3000000420000005042DE9F04F99B08846CF
S31508004A4015469B460446229FDDF89890289E60B13D
S31508004A5059B1279B4BB1BBF1000F06D0249B0BB174
S31508004A60239B13B11DB9022E13D121239AE0259B4E
S31508004A70002BFAD0B9F1000FF7D0C7F10F03DBB25C
S31508004A80032BF0D80122DB0002FA03F3AB42ECD980
S31508004A90E9E7731E0F2BE8D816F0010AE5D1FB1FCC
S31508004AA0062BE2D8414B09EB05029A42DDD8404B6A
S31508004AB04046C4E9003AC4F808A0C4F81CA015A9E1
S31508004AC03EF02FFB034600286CD1204615993EF090
S31508004AD0F4FC204646EA07413EF0EFFC20462499BE
S31508004AE03EF0EBFC294620463EF0E7FC404603A98B
S31508004AF000F0CAF80346002854D1204603A93EF020
S31508004B00C8FC404606A93EF00BFC0346002849D1DE
S31508004B104FF00108204606A93EF0BBFC259B20461F
S31508004B20099345F00053CDF8288001930B93239BF6
S31508004B300FA90C93249B47F0005743F00052CDF879
S31508004B4034800E92CDF83CB0CDF8408011973EF0F7
S31508004B50A0FC20460CA93EF09CFC204609A93EF084
S31508004B6098FC019B204612A9CDF84890CDF84C80B8
S31508004B7014933EF098FC279B204615A946F000564C
S31508004B801593CDF8588017963EF083FC2046FFF71C
S31508004B9037FD034630B101902A46514648464AF049
S31508004BA0B5FB019B184619B0BDE8F08F000004203C
S31508004BB0000006042DE9FF474FF000080E46174689
S31508004BC00446CDF80080002859D022B90025284689
S31508004BD004B0BDE8F087002951D032F0030902F08D
S31508004BE0030A1FD04FF0E063C0E9003801230191A2
S31508004BF0C0F808800293C0F81C8049F0005301A948
S31508004C0003933EF050FC494620463EF056FC2046AB
S31508004C10FFF7F6FC054628B14A46414630464AF0B3
S31508004C2075FBD4E7BAF1000FD0D04FF000084FF06B
S31508004C30E063C4E900380123CDF804D00293114B90
S31508004C40204601A9C4F80880C4F81C8003933EF0E6
S31508004C502AFC042120463EF030FC2046FFF7D0FC13
S31508004C60054608B13A46D8E7009A4E44EB000135A6
S31508004C7022FA03F3AA4506F8013BF7D1A6E7212550
S31508004C80A5E700BF0400002090B189B101234B605D
S31508004C90C368013B012B08D88269064B1AB10A6022
S31508004CA000208B607047044AF9E74FF00053F7E796
S31508004CB021207047080000204C7C0508012300F0DD
S31508004CC01F02A0F506200949A0F550604009934047
S31508004CD051F820201A4341F82020054951F8202090
S31508004CE022EA030241F82020704700BF6826002008
S31508004CF0482600200122A0F506230D49A3F5506396
S31508004D005B0900F01F00824051F82300024341F876
S31508004D10232000231946074A52F8040B0133082BAF
S31508004D200144F9D119B9202201484AF0EFBA70476F
S31508004D3048260020682600202DE9F04FA9B00392E6
S31508004D401E4604460822339FCDE90401414021FA54
S31508004D5002F34B40980702F1080218BF9B00202A6D
S31508004D601C44F4D1744BE4B21B7804F5062404F50C
S31508004D705064002B3ED1FDF75DFC054620B16FF06F
S31508004D80910029B0BDE8F08F0146402208A84AF0F4
S31508004D90BDFA4022294618A84AF0B8FADFF8B481C5
S31508004DA0DFF8B491C3460BF10F0ACDF800A05B46B5
S31508004DB01022D9F8000008A945F064FD0023024630
S31508004DC008F1100808AD9A423DD1CDF800A05B461F
S31508004DD01022D9F8000018A945F05DFD4FF0000A29
S31508004DE0834618ADD34538D1544B9845DAD10122BC
S31508004DF0514B1A704FF480780025DFF860B1A4F59E
S31508004E000623A3F5506252095BF8221004F01F002E
S31508004E10C140C90734D44A4951F82220C240D207B2
S31508004E2022D5A3F6FF43DBB2002D08BF254603F5BE
S31508004E300624B8F1010804F55064E0D1039BABB130
S31508004E40A5B12C4618E055F8040BCDE90623FFF763
S31508004E5035FF079B069A0133B5E755F8040BFFF7AC
S31508004E6049FF0AF1010ABDE7039B13B96FF08B00EE
S31508004E7087E7002D18BF2C46349B00201C6080E76E
S31508004E80329B13B10023329A13600FB100233B60A3
S31508004E904FF0100ADFF8C090CDF800A00023324684
S31508004EA02146D9F800001BF05BFD58BB32993268E1
S31508004EB0244BC1B99A4206D02146D9F800001BF006
S31508004EC0B7FE0028D2D1D6E90223DDE904108342D1
S31508004ED008BF8A4226D0A4F50624A4F6FF44E4B205
S31508004EE004F50624A5E732999A42C1F800A0E3D151
S31508004EF0002FE8D03B462146D9F8000018AA1BF037
S31508004F0053FE48B1104B9842D6D0104B9842D3D096
S31508004F100F4B9842D7D032E7329A3B6812689B1AF1
S31508004F203B60D0E7039B002BA6D07368012BA3D167
S31508004F306FF0840025E700BF4F4E0020007108007F
S31508004F4048260020105D175EFFDF00F011E000F034
S31508004F50FEDF00F0006D0800C85B00206826002010
S31508004F602DE9F04F87B08246894698461646DDF801
S31508004F7040B02AB1002B4FD040F26C739A424ED8FB
S31508004F80BBF1010F4ED8002406F11007394601205F
S31508004F9005943FF051FC0546002846D021463A467E
S31508004FA04AF0B4F905ABCDE9014300942B4601223A
S31508004FB050464946FFF7C0FE044680B110F18C0FF3
S31508004FC008BF6FF08D043A46002128464AF09EF93C
S31508004FD028463FF013FC204607B0BDE8F08F144B77
S31508004FE0C5E902A92B60C5F804B02EB13246414680
S31508004FF005F110004AF0AEF9059E0E483B462A46D2
S31508005000314600681BF014FC18B93046FFF756FE07
S31508005010D9E76FF09104D6E76FF08604DBE76FF007
S315080050209104D8E76FF08504D5E76FF08C04D2E7D2
S31508005030105D175EC85B00202DE9F0438DB08146F0
S31508005040DDE914780E4615461C469BB1B8F1000FEB
S3150800505005D16FF0860630460DB0BDE8F083002F07
S31508005060F7D0B7F1005FF4D3C3F1005303F58023FB
S315080050709F42EED81022002108A84AF047F90022DC
S3150800508007AB029305AB019306AB3146009348463E
S3150800509008ABCDE90522FFF74FFE06460028DAD110
S315080050A0059BA4B1AB4215D853EA0504D1D1069B9A
S315080050B00B48C8F8004000943A46079900682B4404
S315080050C01BF04EFC002818BF6FF09106C3E7AB42F1
S315080050D0EDD2BEE75B1B9C4228BF1C46E7E700BF34
S315080050E0C85B002030B58DB00C460546102200215D
S315080050F008A84AF00BF9002207AB029305AB019307
S3150800510006AB21460093284608ABCDE90522FFF7F2
S3150800511013FE0446D8B9099B012B1BD0079D104BDB
S31508005120294618681BF084FDB8B90122A5F506239F
S315080051300C49A3F550635B0905F01F00824051F83E
S3150800514023004240284641F82320FFF7D3FD204696
S315080051500DB030BD6FF08404F9E76FF09104F6E7FF
S31508005160C85B00206826002030B5048804F4E043B4
S31508005170B3F5005F2ED1C4F30223042B2AD181F0A4
S31508005180AA6383F4807333F47E132AD081F0AA636A
S3150800519083F4007333F47E1323D00023144D21F4D3
S315080051A07E11A9421AD1B4F5105F17D1418821F0B2
S315080051B04000802802D0B1F5807F15D1191F0C292F
S315080051C012D8DB0710D4073A072A34BF00206FF03D
S315080051D0860030BD42F204039C42DED16FF08500A2
S315080051E0F7E7C1F30543D9E76FF08600F1E700BF9B
S315080051F0000140052DE9F04F9BB08146DDE9287690
S315080052001D468B46DDF8A880DDF8BCA0099241B1A1
S3150800521038B1249B2BB1269B0BB9279B0BB91FB919
S315080052204EB16FF086047FE02EB1B8F1000FF8D0CA
S315080052302B9B002BF5D02C9B002BF2D0BAF1000F3C
S31508005240EFD02E9B002BECD02D9B002BE9D0B9F884
S31508005250003003F4E042B2F5005F69D1C3F30222DD
S31508005260042A65D185F0AA6383F4807333F47E1328
S3150800527006D085F0AA6383F4007333F47E1360D1F5
S31508005280C5F3054329464846259ACAF80030FFF76C
S315080052906BFF0446002847D1014620220AA84AF097
S315080052A035F82022214612A84AF030F80AA83DF01F
S315080052B06AFE002855D159464846099A12AB00F0AD
S315080052C0C3FA044600282FD12B9B9E424CD8DAF805
S315080052D000302E9A934247D8474508D2BB199845BD
S315080052E005D239463246404649F0F6FF4746204B36
S315080052F025F47E159D4226D1DAF80030324606930B
S315080053002D9B0397CDE90483279B12A90293269B1D
S315080053100AA80193259B0093249BFFF7B7FA212837
S3150800532019D0D8B92C9B1E6020461BB0BDE8F08F5B
S3150800533042F20402934204D185F0052383F48013D4
S315080053409BE700239EE76FF0880400232C9A1360DE
S31508005350CAF80030E8E76FF08604F6E76FF09204C3
S31508005360F3E76FF09204DFE76FF08904DCE700BF2C
S31508005370000140052DE9F04F99B08A46DDE926651A
S315080053809346984681462A9F28B96FF08604204698
S3150800539019B0BDE8F08F0029F7D0229B002BF4D076
S315080053A0249B13B9259B002BEFD10EB9002DECD108
S315080053B017B92B9B002BE8D12C9B002BE5D0289BFB
S315080053C0002BE2D041464846239AFFF7CDFE044615
S315080053D00028DCD1202201460DEB020049F096FF99
S315080053E02022214610A849F091FF08A83DF0CBFDE0
S315080053F010B16FF09204CAE75A465146484610ABB8
S3150800540000F022FA04460028C1D12B9B9D422AD8D7
S31508005410BE4208D273199F4205D231462A463846FB
S3150800542049F05AFF3E46144B28F47E1898451DD17C
S31508005430299B2A460693289B0396CDE90473259B48
S3150800544010A90293249B08A80193239B0093229BEF
S31508005450FFF7F2FA212898D02C280AD00028C8D1BC
S315080054602C9B1D6093E76FF0890490E76FF0880422
S315080054708DE76FF094048AE700014005084B9842CF
S3150800548002D0084B984207D10B88B3F5105F0CBFC2
S3150800549000206FF0850070476FF08500704700BFE9
S315080054A0004440040013C0042DE9F04F9946002338
S315080054B0A3B09346DDE92E74DDE93068CDE90633FD
S315080054C0CDE90833CDE90A33CDE90C33DDF8C8A0B8
S315080054D00490059129B96FF08605284623B0BDE8E2
S315080054E0F08F002AF7D00FB9002CF4D12C9B13B9F2
