S02B00007A69676265655F6770635F736F635F656E657267795F68617276657374696E675F6F62736572766549
S3150800000000100020F51A0008C5910008C9910008DB
S31508000010FD0A0408CD910008D5910008FD0A0408D8
S31508000020FD0A0408FD0A0408FD0A0408FD0A040876
S31508000030D9910008FD0A0408FD0A0408FD0A040807
S31508000040FD0A0408FD0A0408FD0A0408FD0A040856
S31508000050FD0A0408FD0A0408FD0A0408FD0A040846
S31508000060FD0A0408FD0A0408FD0A0408C516000866
S31508000070B7F90308FD0A0408FD0A0408FD0A04087E
S31508000080FD0A0408FD0A0408FD0A0408FD0A040816
S31508000090FD0A040825250008FD0A0408FD0A0408C7
S315080000A0FD0A04083121000811210008FD0A040888
S315080000B0FD0A0408BD810208698C020845A00408E7
S315080000C041A00408F98302085BA0040849A00408B3
S315080000D0398C02084DA00408A98C0208158D02085F
S315080000E0FD0A0408FD0A0408FD0A0408FD0A0408B6
S315080000F0652D0408FD0A0408FD0A0408FD0A04081B
S31508000100FD0A0408FD0A0408FD0A0408FD0A040895
S31508000110FD0A0408FD0A0408FD0A0408FD0A040885
S31508000120FD0A0408FD0A0408FD0A0408FD0A040875
S31508000130FD0A0408FD0A0408FD0A0408FD0A040865
S31508000140FD0A0408FD0A0408FD0A04089FFB0408C2
S315080001509D6C0208FD0A040827A004082DA00408BF
S31508000160FD0A0408FD0A0408FD0A0408FD0A040835
S31508000170F0B5114A114C124E00F00105E3695F070C
S3150800018013D40DB9334213D103EA00078F4207D1BE
S315080001900B4A1A40002A0CBF00206FF00100F0BD80
S315080001A0013AEBD16FF00200F9E74FF0FF30F6E7BE
S315080001B06FF00100F3E700BF809698000000035037
S315080001C0020001000B4B70B5D96911F480310DD1CD
S315080001D001244FF48072084E084DF46020462C64C2
S315080001E01A61FFF7C5FF3464EC6070BD6FF001005B
S315080001F0FBE700BF00000350001003500020035027
S315080002004FF4803238B50E4B0E4C9A66E56941F6C6
S31508000210713315400122E3630B4B0021DA60022398
S31508000220606121202361FFF7A3FF10B92120FFF7A2
S315080002309FFF0122054BDA600DB10023E36338BD49
S315080002400090005000000350001003500020035097
S3150800025070B5134C6061E3695B071ED40E4656F809
S31508000260043B8D18A361AE420BD104230021212043
S315080002702361FFF77DFF58B9BDE870402120FFF7DD
S3150800028077BF08210846FFF773FF10B104232361DF
S3150800029070BD56F8043BA361E5E74FF0FF30F7E77A
S315080002A0000003502DE9F84315464FF48032184BE9
S315080002B089469A6603F51C33DF690646174041F6F8
S315080002C07132DA63012203F58053DFF84C80DA6075
S315080002D055B9284601220F4BDA601FB10022A3F553
S315080002E00053DA63BDE8F88306F5005404EA080407
S315080002F0A41BAC4228BF2C46494622463046FFF787
S31508000300A7FF0028E6D12644A1442D1BE0E700BF3D
S31108000310009000500020035000E0FFFFA2
S315080003202DE9F04F4FF0FD0BC9B09A460DF11B09A8
S315080003309DF8503108AFCDF80C90CDF808B001976C
S31508000340059303890446009383790E4690464188AF
S31508000350828840781BF08AFB054650B10090A38836
S31508000360002062883A491BF0E7FE284649B0BDE8F6
S31508000370F08F99F8000045F04AFD38B12846A38861
S31508000380628834491BF0D8FE8D25EEE75A46394671
S3150800039099F8000045F00AFD8346002851D0529B83
S315080003A01BB1BDF84C3198424BD8002399F8009000
S315080003B00793A9F14102012A5FFA8BF123D838463F
S315080003C00139254ADFF898C05FFA81FE734513DBC9
S315080003D0059B04210792C3B907AF18221F489FED52
S315080003E01A7B02FB060420460A460830394684ED85
S315080003F0027B4DF01AF811E010F8011F0133514045
S315080004000CFB01F2E2E7059B33B123464A46384620
S31508000410009616F04BFFA8E70829DED9B8F1000FB9
S3150800042001D088F80090BAF1000F01D0AAF800B000
S31508000430529B002B99D05A46184608A94CF0F5FF4E
S3150800044093E7012591E700BF0000000000000000C7
S3150800045004DF050839DF0508C59D1C8150100020FA
S3150800046093010001000000002DE9F04F93B0CDE99B
S315080004700A32DDE91C530E9353EC102BCDE9080123
S31508000480104619468DED060B1E9E3EF0DDFD80B129
S31508000490DDE906014FF0FF32C54B3EF0FDFD40B9E0
S315080004A0DDE906014FF0FF326FF480133EF0D6FD0A
S315080004B070B1DDE908019DED060B0E9B1E96CDE990
S315080004C01C53DDE90A3213B0BDE8F04F00F088B9D5
S315080004D00022DDE9060100233EF0C0FD002800F0F9
S315080004E03381DDE906A303F1004BCBF30A5016F47A
S315080004F08063A0F2FF3008BF06250F933EF0D2FABC
S315080005009BA3D3E900233EF037FB9BA3D3E9002343
S315080005103EF07CF9CBF31304894644F07F518046BC
S315080005200022A44B504641F440113EF06DF994A3C5
S31508000530D3E900233EF020FB02460B4640464946D7
S315080005403EF064F93EF0B2FD04463EF0ABFA8EA3E7
S31508000550D3E90023804689463EF00EFB0022964BDF
S315080005603EF054F93EF0A2FD89A3D3E900230746DD
S31508000570494640463EF000FB8046384689463EF0EE
S3150800058091FA85A3D3E900233EF0F6FA02460B4614
S31508000590404649463EF038F902460B46CDE90C235B
S315080005A03EF0EAFADDE90C238046894610461946EC
S315080005B03EF02CF90022CDE91001804B4046494611
S315080005C03EF004FC00227E4B3EF020F902460B4624
S315080005D0404649463EF0FAFB00227A4B3EF016F9B1
S315080005E002460B46404649463EF0F0FBDDE90C2341
S315080005F08046894600204FF080413EF005F90246C4
S315080006000B46404649463EF001F902460B46DDE9EF
S3150800061010013EF0DBFB07F2FF3700226A4B3EF083
S31508000620F5F800223B053EF0A7FA52465B4680469F
S3150800063089463EF031FD002840F08980CDE90C89D5
S3150800064004F16303C72B34BF0427052731051BD5DF
S3150800065053A3D3E90023504659463EF013FD00281C
S315080006607FD051A3D3E90023504659463EF0F6FC05
S31508000670002876D00027A542C6BF2C1B04F1FF35FB
S3150800068000253C4646F480660E9B9F422CBF4FF0E1
S315080006900008A3EB070816F0020903D0002F18BFBD
S315080006A04FF000083CB1DDE90C23504659463EF0B0
S315080006B08DFB82468B46DDE90601002200233EF0CB
S315080006C0CDFC10B10BF100439B46DDE9080126F489
S315080006D00063CDE90183DDE90A324BEC10AB0095E6
S315080006E000F07EF802465FB3DDE9091316F0200F25
S315080006F000F10105089E0CBF65204520B047DDE9DD
S3150800070008010523002205930A23002CCDE90232AD
S3150800071007F1FF374FEAD473B8BF64422A460193FC
S3150800072004970A9B009448F013FA0246B9F1000FA1
S3150800073006D00B9BC41A0B9B1A190E9BA34245D8CD
S31508000740104613B0BDE8F08FDDE906ABCDE6002212
S31508000750404649461A4B3EF039FB013CCDE90C01AF
S315080007606EE7002D90D00F9B002B8DD0013D8BE7B7
S31508000770FB799F501344D33FB3C8608B288AC63F82
S3150800078061436F63A787D23F71A379094F930A40E4
S315080007901655B5BBB16B0240EF39FAFE422EE63F5D
S315080007A02D431CEBE2361A3F0000000080842E41E0
S315080007B0FFFFEF7F0000F83F0000E03F00002C40FD
S315080007C000002440000018400000F03F2020DDE92A
S315080007D00913089DA8470134ADE700BF00000000D3
S315080007E02DE9F04F5BEC10AB97B0CDE90501DDE9DB
S315080007F02057CDE90723504652465B465946229E66
S315080008003EF022FC70B90323CDE902760193B04B82
S315080008100093DDE90501DDE9072348F0B9F817B0CB
S31508000820BDE8F08F4FF0FF326FF4801350465946FB
S315080008303EF014FC28B10423CDE902760193A54BBA
S31508000840E6E74FF0FF3250465946A34B3EF024FCEC
S3150800085068B1A24A06F00403002B08BF0322A04B86
S315080008601CBF13460422CDE902760192D0E7504612
S3150800087093A3D3E9002359463EF00EFC38B992A358
S31508000880D3E90023504659463EF0E8FB68B1DDE956
S315080008900723DDE905014BEC10ABCDE92176209560
S315080008A017B0BDE8F04FFFF7DFBD00220023504622
S315080008B059463EF0D3FB002800F09A805B46524624
S315080008C0002000213DF0A0FF012382468B460993B4
S315080008D016F4806400F08E80092D40F28E80002484
S315080008E030210EABA5F109020134202C03F8011BB7
S315080008F0A5EB040901D09442F6D1594650463EF07C
S31508000900D5FB784B054603EBC90393ED007B8DEDCC
S315080009100A7B3EF0C7F802460B46504659463DF05C
S3150800092073FFDDE90A233EF027F902460B46CDE9B7
S315080009300C233EF0E3FB80463EF0A4F802460B4645
S31508000940DDE90C013DF060FF02460B46CDE90C23BC
S315080009500022654B3EF0A0FB002851D008F10108A3
S3150800096040463EF08FF802460B46DDE90A013EF0A6
S315080009707FFB10B14FF000080135B9F1000F50D1D7
S3150800098028463EF08FF802460B46504659463DF03B
S315080009903BFF0022544B804689463EF05FFB30B150
S315080009A0002240464946504B3EF076FB10B1E80718
S315080009B000D501350A210EAB1A19202C0AD095FB51
S315080009C0F1F001FB1055303502F8015B013405469C
S315080009D00028F2D106F00302012A57D1002F55D07C
S315080009E0099A12B916F00C0F00D0013F302245E0E3
S315080009F009906DE74FF006097FE7A94600247CE7D2
S31508000A000022DDE90C01384B3EF028FB0028B4D162
S31508000A10B8F1000F02D018F0010FAED008F10108A6
S31508000A20ABE70A210EAB2344202C0ED0B8FBF1F01D
S31508000A3001FB1082B8F1090F02F1300209F1FF3902
S31508000A4004F1010403F8012B11D83021A1440EAAA0
S31508000A50202CAFD0A14504F101030AD11C4609F1A7
S31508000A6058030DEB03092E2309F8203CA2E780461C
S31508000A70DAE7A1541C46EBE71A550134A74205D913
S31508000A80202CF9D1CDE902760194C1E6202CF9D0C3
S31508000A90099A3AB12D2104F158026A4402F8201C39
S31508000AA00134EFE7710704D504F158022B216A4493
S31508000AB0F4E73207E6D504F1580220216A44EDE747
S31508000AC00000000065CDCD410000000065CDCDC118
S31508000AD06B0B06086F0B0608FFFFEF7F620B060815
S31508000AE0670B0608780B06080000E03F00000000C8
S31508000AF070B58EB02C22002103A84CF072FC64233A
S31508000B004FF002320893CDE905230B2301218DF816
S31508000B103430534B8DF810101B88D80700F1988095
S31508000B2008464DF065FE0A224E4B4F491A704FF49F
S31508000B3028734E48ADF812301FF092FA4C4C2060DC
S31508000B4020B940F259214B484CF042FE0521206855
S31508000B5048F0ABFB20B140F2692146484CF038FE1C
S31508000B60206800F0BBFD444B2068196848F0AFFDCB
S31508000B700C254EF071FA684309904EF06DFA6843F9
S31508000B800DEB05010790206820F0C6FB20B140F266
S31508000B907E2138484CF01CFE25682CF01BFA0022F2
S31508000BA00146284648F0E7FE20B14FF42071314847
S31508000BB04CF00EFE40F20353304D314E2B80052388
S31508000BC096F90000AB707F2801D129F013FF33781E
S31508000BD0EB704EF041FA00EB80008000A8804EF0E2
S31508000BE03BFA0023C0004FF0FF31E880AB604FF0BE
S31508000BF0FF3019A3D3E900234DF04CFF21492068A3
S31508000C0048F023FE206802A948F0C7FD20B140F24B
S31508000C10B92118484CF0DCFD042220680DEB0201CE
S31508000C2048F061FC042804D04FF42F7111484CF0A9
S31508000C30CFFD01A9012046F03CFE08F007FB012084
S31508000C402AF074FB40F040FF2AF09AFB29F06AFE6E
S31508000C500EB070BDAFF300800A0020FF420300000B
S31508000C60204C00202E58002019E80408E45D0020D6
S31508000C70084000201A4C0608A05B0020FC3F002014
S31508000C80436400208DE804080348044B834202D0DD
S31508000C90034B03B118477047786400207864002036
S31508000CA000000000064B0749C91A891048BF0131E0
S31508000CB0491003D0044B0BB101481847704700BFD1
S31508000CC078640020786400200000000010B5064C07
S31508000CD0237843B9FFF7D8FF044B13B10448AFF3A1
S31508000CE000800123237010BD0E4D00200000000077
S31508000CF02050060808B5054B1BB105490548AFF352
S31508000D000080BDE80840FFF7CDBF00BF0000000027
S31508000D103017002020500608A3F5803A704700BF18
S31508000D20174B002B08BF134B9D46FFF7F5FF002115
S31508000D308B460F461348144A121A4CF052FB0E4BB8
S31508000D40002B00D098470D4B002B00D09847002069
S31508000D50002104000D000D48002802D00C48AFF30E
S31508000D6000803EF03DFD200029003EF0B9FD3EF032
S31508000D7075FB00BF0000080000000000000000002E
S31508000D800010002000100020AC58002000000000D1
S31508000D900000000008B54DF067F90123024A1370F8
S31508000DA0024A137008BD00BF104D00200F4D0020E9
S31508000DB010B5084B08481B78002B14BFC8244FF4FD
S31508000DC07A743FF0D0FF2246BDE81040FF21034861
S31508000DD042F034BC0F4D002030700508FC17002087
S31508000DE013B544F0AEFF02280B4C08D1237813B193
S31508000DF0002046F030F80023237002B010BD15F02D
S31508000E00B5FB064B0190009301210420044B054ACB
S31508000E100CF004FEEFE700BF104D0020B5040508EE
S31508000E20A8FE0408ADFE040810B544F08AFF02289F
S31508000E300AD101200CF056FEBDE8104003460121F8
S31508000E400420024A0CF0EABD10BD00BFC1FE04082A
S31508000E5010B544F076FF022812D14FF6FF720B4CFC
S31508000E6001232078114680F0010040F008000FF0B9
S31508000E708FFA2378064823B93FF06FFF01232370C2
S31508000E8010BD3FF06DFF0023F9E700BF114D0020AC
S31508000E90307005081FB501230022009306210DF1C5
S31508000EA00F0345F03CFA28B99DF80F30044823B1E2
S31508000EB03FF053FF05B05DF804FB3FF051FFF9E73B
S31508000EC01870050813B5FF24114A23460021114856
S31508000ED000940BF041FA104910480BF0C1FA10497A
S31508000EE010480BF0BDFA104910480BF0B9FA104932
S31508000EF010480BF0B5FA44F024FF022806D0214624
S31508000F00044802B0BDE8104042F0A1BB02B010BDD3
S31508000F10B10D0008FC170020290E0008DC17002078
S31508000F20510E0008BC170020E10D00087C170020B0
S31508000F3029F803089C170020162808B50DD141F09A
S31508000F4013FF0D483FF00CFF0C4B1B789BB1BDE817
S31508000F500840FF210A4842F07ABB1528F1D1FF2143
S31508000F60084842F07CFBFF21074842F070FB00224C
S31508000F70064B1A70E5E708BD30700508114D0020CC
S31508000F80BC170020FC170020DC1700200F4D00209E
S31508000F9013B504460B4B01900093012104200A4B1C
S31508000FA00A4A0CF03BFD5CB1002014F0B5FC084B76
S31508000FB00190009301210420064B044A0CF02EFDF3
S31508000FC002B010BD71040608A8FE0408ADFE0408A8
S31508000FD0B5040508E2FE0408002307B50193054B8E
S31508000FE0012100930420044B044A0CF017FD03B0BA
S31508000FF05DF804FB71040608E7FE0408ADFE040864
S315080010000022024B02481A703FF0AABE114D00207A
S315080010103070050837B504460D46009000210420B7
S31508001020094B0A4A0CF0FAFC094B2246294600935A
S31508001030042001230CF038FD01210420054A03B0E1
S31508001040BDE830400CF0EABC3E000508F8FE04088E
S31508001050EEA305086D7905082DE9F0470D461278C7
S31508001060E8B0002840F0B680092A40F2B380CB7970
S3150800107003F03C010C2940F0AD8003F0C303012BBB
S3150800108008D0802B40F0A6802B7A03F0C003402BB3
S3150800109040F0A0802A4412F8023C12F8031C1B02F6
S315080010A012F8012C03EB01439C1848F0DDFB45F2CE
S315080010B0130320F07F40001B984200F28B80EB79E7
S315080010C003F0C303802B40F089802B7A5B0740F03E
S315080010D08580D5F809A00025CDF810A08DF8185000
S315080010E014F0F0F9002875D0802302AA28A903A8CD
S315080010F045F02BFE00286DD0294604AA012049F0A8
S315080011003FF9ADF80A004EF0B5F8012306461A462F
S3150800111007A90DF10A002BF095F8BDF80A004EF064
S31508001120A9F84FF00109BDF80830DFF8BC80C118EE
S3150800113089B20DF10A0049F087FC721CBDF8083027
S31508001140BDF80A10D2B2CDF8009028A84EF0FBFDE3
S3150800115003A845F0FEFDBDF80A004EF08BF8831C87
S315080011602A46BDF80A108DF820310095C3B20DF253
S3150800117021104EF0E8FD9DF8206148AF4E44F6B2C6
S315080011803246394608A888F800904CF04EF9154BB7
S31508001190CDE9285593E8070087E80700C8F804A0B2
S315080011A088F80C5048F060FB04F5A04320F07F4017
S315080011B014331B1A284628938DF8A49029F0FAFDB3
S315080011C031460246009728AB08A814F081F9404634
S315080011D045F0BFFD012068B0BDE8F0874FF0000A72
S315080011E079E700BF7400050848170020D30103D526
S315080011F0FF21024842F02BBA704700BF9C17002017
S315080012001FB50446C8B13FF0D3FC012817D1174BC8
S315080012105B68A34211D144F094FD02280DD14FF426
S31508001220FA6003A94CF0BCFF034630B9CDE90000CB
S315080012300F4A03990F484EF02CFC04B010BD002845
S31508001240FBD10A4B1A68A24206D1FF210A4804B00C
S31508001250BDE8104042F0FBB95B68A342EDD10548F2
S315080012604CF002FFFF210548F1E700BF345B002080
S31508001270950D00085C170020BC1700207C1700207D
S315080012801FB545F060FD45F03EFE1FF00DFD00213F
S315080012904FF6FF720346CDE90221CDE9001101227E
S315080012A0084614F051F9064A064B0121002818BFD2
S315080012B013460420044A05B05DF804EB0CF0AEBBF7
S315080012C05370050810FF040815FF0408002370B5BD
S315080012D0C8B0CDE905330793D0E90232910053F837
S315080012E0222014788DF81C4034B1114A01210420BB
S315080012F00CF094FB48B070BD0B445A689B681268A2
S3150800130008AD05921E782A46FF230321009445F06E
S3150800131096FB3346CDE9000521460120CDE9024476
S3150800132005AA45F0FFFC0028E4D0024ADEE700BF24
S315080013303AFF040851FF040800B5D0E902329100CB
S3150800134053F82220A9B012788DF818203AB1144A19
S31508001350012104200CF062FB29B05DF804FB0B4464
S315080013605B68ADF80A201B680DF10A02049308A908
S31508001370802303A845F0E9FC78B101210420094A35
S315080013800CF04CFB084BBDF80A20009304200123FF
S3150800139008A90CF089FB034ADAE7044AD8E700BF34
S315080013A03AFF040853700508EEA3050865FF04080C
S315080013B0002300B589B0CDE905330793D0E90223A8
S315080013C0990052F823301B788DF81C303BB10C4A33
S315080013D0012104200CF022FB09B05DF804FB0A4445
S315080013E052681946126818460592CDE90233CDE9C6
S315080013F0003305AA45F096FC0028EDD0014AE7E738
S315080014003AFF040865FF040810B545F098FCBDE8E6
S315080014101040034601210420014A0CF0FFBA00BF20
S3150800142074FF040810B545F08CFCBDE8104003466F
S3150800143000210420014A0CF0F1BA00BF8BFF040812
S3150800144070B5A8B045F07DFC054601210420234A65
S315080014500CF0E4FA2B4601210420214A0CF0DEFAAE
S31508001460002D38D000241F4E0DF10A0308AA03A93F
S31508001470E0B245F06CFC23463246012104200CF00C
S31508001480CDFA012104209DF81830174A0CF0C6FA47
S3150800149001210420049B154A0CF0C0FABDF80A3055
S315080014A001210420124A0CF0B9FA00210420114A3D
S315080014B00CF0B4FA104B0420BDF80A20009308A9D2
S315080014C001230CF0F1FA0234012104200B4A0CF036
S315080014D0A5FAA542C8DC28B070BD00BF5370050840
S315080014E0A0FF0408C3FF0408D0FF0408DFFF0408B0
S315080014F0F1FF040804000508EEA305086D79050840
S31508001500012837B5054614461BD1042A19D10B887C
S31508001510202B16D18B78202B13D1CB78B2EE047AF8
S3150800152007EE903AF8EE677AC7EE877A17EE900AD2
S315080015303DF0CAFA044ACDE90001294620460CF0D6
S315080015406DFA002003B030BD0F00050808B5074B3B
S315080015501B7853B1FF21064842F088F828B9BDE840
S315080015600840FF21024842F072B808BD104D00201D
S31508001570FC1700201FB5094B094A1868094B01A931
S315080015801860094B1360094A0192094A1268CDE9A5
S31508001590022341F051F805B05DF804FB105B00200A
S315080015A0B4250020B8250020045B0020D16E05086C
S315080015B0D81A0020014B186841F052B8105B002079
S315080015C038B506F011FF0446064D2B68D3F8B0026D
S315080015D006F0FEFE286841F056F82046BDE8384079
S315080015E006F0F6BE105B0020064B1B681A7A022A24
S315080015F004D812B11B68044A13607047032AF9D04D
S31508001600704700BF145B0020D81A002030B5184D6B
S315080016108FB006AC0FCD0FC495E80F0084E80F0015
S315080016200E2200210DF10A004BF0DBFE4FF470226A
S31508001630104B6946CDE900230B238DF808300C239F
S315080016408DF809300C4B06AA039320230493012333
S315080016500A488DF815300A4B06F048FF0446002163
S315080016604FF4E1303FF03BFA20460FB030BD00BFE3
S31508001670C86F05083C00015B124D00204C1B00207A
S31508001680DC1A002029B9074B186803684BB107F024
S31508001690BBB9022905D8034B186803680BB141F09A
S315080016A0C5BD7047285B002008B50449044808F002
S315080016B0A1F8BDE80840FFF7A9BF00BF2C5B0020D2
S315080016C0701B0020014841F0B1BB00BF4C1B002035
S315080016D0014B1A6A186810474C1B002008B51FF002
S315080016E053FE0022014B1A7008BD00BF324D002080
S315080016F008B504483FF057FABDE8084002483FF0ED
S3150800170052BA00BF00700508E86F050808B5044816
S315080017103FF020FBBDE8084002483FF01BBB00BF76
S3150800172030700508187005081FB50849034608688B
S31508001730097902AA02908DF80C1000920521002260
S31508001740012009F09FFF05B05DF804FB4870050805
S315080017501FB5084903460868097902AA02908DF858
S315080017600C10009205214222012009F08BFF05B0DA
S315080017705DF804FB4E7005081FB50849034608685E
S31508001780097902AA02908DF80C10009205214022D0
S31508001790012009F077FF05B05DF804FB48700508DD
S315080017A01FB5064A0346039203AA0092012208219E
S315080017B0104609F067FF05B05DF804FB0101212119
S315080017C01FB5064A0346039203AA0092082100227F
S315080017D0012009F057FF05B05DF804FB010221213D
S315080017E01FB5094903460888897803AAADF80C008D
S315080017F08DF80E10009206214222012009F042FFC0
S3150800180005B05DF804FB00BF547005081FB503AAB0
S31508001810009205220749034608888978ADF80C0026
S315080018208DF80E100120114609F02CFF05B05DF861
S3150800183004FB00BF587005081FB508490346086829
S31508001840097902AA02908DF80C100092082102224A
S31508001850012009F017FF05B05DF804FB5C70050868
S315080018601FB5094903460888897803AAADF80C000C
S315080018708DF80E10009208210622012009F002FFB9
S3150800188005B05DF804FB00BF627005080A46014909
S315080018903EF00ABA738005080A4601493EF004BAC2
S315080018A06A8005080A4601493EF0FEB95F800508C8
S315080018B00A4601493EF0F8B95A8005080A46014920
S315080018C03EF0F2B9558005080A4601493EF0ECB9E2
S315080018D0508005080A4601493EF0E6B943800508E6
S315080018E00A4601493EF0E0B9348005080A4601492E
S315080018F03EF0DAB92F8005080A4601493EF0D4B908
S31508001900268005080A4601493EF0CEB91D8005081D
S315080019100A4601493EF0C8B9148005080A46014935
S315080019203EF0C2B90D8005080A4601493EF0BCB929
S31508001930028005080A4601493EF0B6B9F77F050850
S315080019400A4601493EF0B0B9EC7F05080A46014946
S315080019503EF0AAB9E37F05080A4601493EF0A4B954
S31508001960D87F05080A4601493EF09EB9D57F050885
S315080019700A4601493EF098B9D27F05080A46014948
S315080019803EF092B9CF7F05080A4601493EF08CB968
S31508001990CC7F05080A4601493EF086B9C97F050885
S315080019A00A4601493EF080B9C47F05080A4601493E
S315080019B03EF07AB9BF7F05080A4601493EF074B978
S315080019C0B67F05080A4601493EF06EB9AB7F0508A1
S315080019D00A4601493EF068B9A67F05080A46014944
S315080019E03EF062B9A17F05080A4601493EF05CB996
S315080019F09C7F05080A4601493EF056B9977F0508B7
S31508001A000A4601493EF050B98C7F05080A46014945
S31508001A103EF04AB9817F05080A4601493EF044B9B5
S31508001A207A7F05080A4601493EF03EB9777F0508E0
S31508001A300A4601493EF038B9747F05080A46014945
S31508001A403EF032B9697F05080A4601493EF02CB9CD
S31508001A50647F05080A4601493EF026B95B7F0508FA
S31508001A600A4601493EF020B9527F05080A4601494F
S31508001A703EF01AB94D7F05080A4601493EF014B9E9
S31508001A80427F05080A4601493EF00EB93F7F050820
S31508001A9008B5034841F05AF9BDE808403DF02ABFA9
S31508001AA088890508014841F051B900BF88890508A9
S31508001AB007B508203FF0DFF802238DF80030054B04
S31508001AC0684601933EF0CFFF082003B05DF804EBAB
S31508001AD03FF0DCB8006A18100348044A0449121A91
S31508001AE092103FF00CB800BF700100081C030008F4
S31508001AF04C59002008B500F02FF8FFF7EDFF124B00
S31508001B0012498B4212D30020114B12498B4218D32B
S31508001B10FFF706F9186850F82240586840F822403E
S31508001B20013298688242F5D30C33EAE70022F8E7D7
S31508001B301C6844F8220001325C68A242F8D30833D4
S31508001B40E4E70022F8E700BF2850060834500608E4
S31508001B5034500608345006084FF48041124B134A95
S31508001B6070B59A60D3F88820114D42F47002C3F814
S31508001B708820104A05F5005491664FF0FF32226618
S31508001B800D4A62660222C3F8D020BFF34F8FBFF317
S31508001B906F8F4FF44036002006F00CFC0020E660FC
S31508001BA006F0ECFB2E6170BD00ED00E000000008B9
S31508001BB00080004400900050F7FF3700014B186082
S31508001BC0704700BF5C5B0020054B1860054B1B6F18
S31508001BD003F00703032B01D14BF068BC704700BF25
S31508001BE0645B002000800050BFF34F8F0549064B09
S31508001BF0CA6802F4E0621343CB60BFF34F8F00BF9D
S31508001C00FDE700BF00ED00E00400FA0570B5D0B1AD
S31508001C10C9B10E4E431E013913F8014F2046325DF5
S31508001C2002F00302012A11F8012F08BF04F120006F
S31508001C30B55C05F00305012D08BF2032801A01D1D5
S31508001C40002CE9D170BD0120FCE700BF1F4F060834
S31508001C5030B5056887B0AB8804461848ADF80C302F
S31508001C6041F074F80022012103A800F0FDF80DF1F7
S31508001C700B0103A83FF042F89DF80B3083F00103EF
S31508001C802B70AB79022B15D14FF0FF330022CDE92B
S31508001C90043304A90A4B009403A800F0E7F9049B4F
S31508001CA0009401330CBF04220122054B05A903A8A1
S31508001CB000F05CF9002007B030BD00BF8889050830
S31508001CC0BB0B0408002307B52948019341F03EF8E9
S31508001CD04FF44073012204216846ADF8003000F045
S31508001CE0C3F80122234B0520C3F8442401A94DF06B
S31508001CF04EFE002839D1204BD3F8F02042F00102DD
S31508001D00C3F8F020D3F8FC2042F08072C3F8FC2018
S31508001D101A4AA3F55D431A60019B194A03F5D523B0
S31508001D2003F2FC43B3FBF2F3164A013B13610223A9
S31508001D30C2F8F0304FF48073C2F804334FF06043B2
S31508001D40114AC3F8B02F114AC3F8802ED3F8002ED3
S31508001D5042F48072C3F8002EFF2283F82020D3F8BD
S31508001D60002E22F48072C3F8002E03B05DF804FB3F
S31508001D708889050800D0035000ED00E0FF03004005
S31508001D80F8590D00000004E055CEACC50900010065
S31508001D904FF06043D3F8802E30B5D20715D501240D
S31508001DA00B4D8440D5F8FC2042F08072C5F8FC2023
S31508001DB0D3F8002E2243C3F8002E53F82020002A19
S31508001DC0F0D003F82010002030BD1120FCE700BF3A
S31508001DD000ED00E02DE9F04104460C254FF001081E
S31508001DE0124E0CB314F001000BD0002024F00104AD
S31508001DF005FB00625768002FF3D09168C0B2B84758
S31508001E00EFE72246013020284FEA520201D0D307D5
S31508001E10F8D508FA00F20F2824EA0204E8D910389F
S31508001E2005FB0062B432E5E7BDE8F081781B0020C7
S31508001E3008B50C4840F08AFF192006F0ADFA28B11B
S31508001E40192006F0B7FA192006F098FA1A2006F0B3
S31508001E50A3FA28B11A2006F0ADFA1A2006F08EFA6F
S31508001E60002008BD888905082DE9F0410E469046F0
S31508001E70054618B30F2923D80378E3B1012B03D0FD
S31508001E80022B18D0032B1BD13F236A78D340DB07DC
S31508001E9016D50D4BD3F81043A4B94DF01EFD0746D1
S31508001EA042462846314603F051FE38464DF010FDAD
S31508001EB02046BDE8F08140F2FF33E6E72224F7E743
S31508001EC02124F5E70224F3E700C0035010B50446C1
S31508001ED0E8B10378C3B1012B03D0022B14D0032B2E
S31508001EE017D13F236278D340DB0712D54DF0F5FCB6
S31508001EF00122637821789A4030235943064B5A5079
S31508001F004DF0E6FC002010BD40F2FF33EAE7222040
S31508001F10F9E72120F7E700BF40D0035010B5044683
S31508001F20E8B10378C3B1012B03D0022B14D0032BDD
S31508001F3017D13F236278D340DB0712D54DF0CDFC8D
S31508001F400122637821789A4030235943064B5A5028
S31508001F504DF0BEFC002010BD40F2FF33EAE7222018
S31508001F60F9E72120F7E700BF40E003502DE9F041EB
S31508001F700D46164698460446002851D000294FD0EB
S31508001F8002784AB1012A42D0022A05D0032A3ED055
S31508001F90FF2A07D0212041E040F2FF336278D34080
S31508001FA0DA07F7D5022E01D9042EF3D14DF095FCA8
S31508001FB023780746FF2B05D032462046296803F0CA
S31508001FC00BFE28602B68013309D12378FF2B06D135
S31508001FD0144B6078D3F824143FF025FD286029684F
S31508001FE04B1C17D00C23104A03FB0122069BC2F890
S31508001FF0048093602378FF2B04D001230B4A8B407F
S31508002000C2F8243438464DF063FC002006E03F232E
S315080020106278C4E738464DF05BFC2D20BDE8F081B8
S315080020202220FBE700C00350781B002000D0035095
S315080020300F2810B5044613D84DF04FFC0123094A62
S31508002040A340C2F82034C2F824340C22064B02FB03
S3150800205004330024C3E901444DF03AFC204610BD80
S315080020602120FCE700E00350781B00202DE9F04111
S315080020700D4690461F460446002842D0002940D007
S31508002080017849B1012933D0022905D003292FD077
S31508002090FF2907D0212032E040F2FF336278D3408F
S315080020A0DA07F7D54DF019FC23780646FF2B05D03D
S315080020B042462046296803F015FE28602A68531C04
S315080020C019D00C23104903FB0211069BC1F8B870FE
S315080020D0C1F8BC302378FF2B05D00123103293407A
S315080020E00A4AC2F8243430464DF0F2FB002006E0D6
S315080020F03F236278D3E730464DF0EAFB2D20BDE852
S31508002100F0812220FBE700BF781B002000D0035097
S3150800211008B503F001FD054B00F0553020F05020BE
S31508002120C3F82004BDE80840FFF754BE00E003509A
S3150800213008B503F0F1FC054B00F0AA3020F0A0200A
S31508002140C3F82004BDE80840FFF744BE00E003508A
S3150800215013B504460A4840F0F9FDA2780421B2FAFC
S3150800216082F2237852098DF8043063780DEB01006A
S315080021708DF80530FFF778FE002002B010BD00BFCD
S31508002180888905082DE9F04F9A46564B85B01B7885
S3150800219006460F461546DDF83C909DF844B0DDF836
S315080021A05080002B00F09780072A00F296800E9B3D
S315080021B0002B00F09280B9F1000F00F08E80129B80
S315080021C0B3F5006F00F38980012803D1109B002B1B
S315080021D000F08380444B03EB05131B7B002B7ED05A
S315080021E0424C1022002168464BF0FBF804EB4514DC
S315080021F01022A7BB394620464BF0F3F843F21003EA
S315080022006380BBF1000F03D1E37843F00303E37067
S31508002210364A0E9B02EB451CCCE90193129B6901D9
S31508002220581E9DF84C30C0F30A0003F003039B06C2
S3150800223043EA001E53582E48012E00EA03004EEAD0
S315080022400003CDF800A0535017D0B8F1000F2ED1D7
S315080022509CF8023068F304138CF8023027E000215A
S3150800226020464BF0BEF84FF444736380BBF1000F71
S31508002270CED1E37843F03003C9E713230CF1100EEF
S31508002280CCF80C309CE80F008EE80F006FF00301C5
S31508002290DCF81C20109B61F39F02012FCCF81C2050
S315080022A0CCF8143003D1CCF81890CCF804300027B9
S315080022B00D4A290102EB051342F80180159A2846B2
S315080022C05A60694622469F605E7303F0FBFA3846F9
S315080022D005B0BDE8F08F0748FAE70748F8E707486A
S315080022E0F6E700BF334D0020E01D0020E01C00206B
S315080022F00F80FFF3028000F0018000F0078000F0F5
S3150800230038B5124B05461B78DBB1E0B14DF0E5FA5E
S315080023100F4A00231146147B54B92B6001251A0174
S3150800232001EB03131D738C504DF0D2FA204638BDCD
S315080023300133082B02F11002EDD14DF0C9FA054818
S31508002340F5E70548F3E70548F1E700BF334D0020F8
S31508002350E01D0020048000F0028000F0018000F0FB
S3150800236038B54DF0BAFA002305460B4A147B6CB90A
S315080023700133082B02F11002F8D103F04FFA074B8C
S3150800238028461C704DF0A4FA204603E028464DF076
S315080023909FFA034838BD00BFE01D0020334D0020DA
S315080023A0058000F00D4B10B51B78044693B107283D
S315080023B012D84DF092FA0A4B03EB04131A7B2AB192
S315080023C000241C734DF084FA204610BD4DF080FAA7
S315080023D00448FAE70448F8E70448F6E7334D0020CE
S315080023E0E01D0020068000F0028000F0018000F069
S315080023F0154B13B51868002301908DF804304DF07D
S315080024006CFA124B1C7824B14DF062FA104802B0EF
S3150800241010BD01221A704DF05BFA0E4B01A81C7311
S315080024201C7783F82C4083F83C4083F84C4083F8AB
S315080024305C4083F86C4083F87C4008238DF80730AD
S3150800244003F010FA2046E2E77A800508334D0020AB
S31508002450038000F0E01D0020F8B50D4D2D7885B1FC
S31508002460072810DC0B4D060105EB0014277B67B126
S31508002470AB510025069BA560636003F023FA284646
S31508002480F8BD0548FCE70548FAE70548F8E700BF40
S31508002490334D0020E01D0020028000F0018000F08E
S315080024A0078000F00A4A08B512785AB107280BD8EF
S315080024B0084A02EB00131B7B43B1002103F0C4F961
S315080024C0002008BD0448FCE70448FAE70448F8E792
S315080024D0334D0020E01D0020028000F0018000F04E
S315080024E0078000F00A4A08B512785AB107280BD8AF
S315080024F0084A02EB00131B7B43B1012103F0A4F940
S31508002500002008BD0448FCE70448FAE70448F8E751
S31508002510334D0020E01D0020028000F0018000F00D
S31508002520078000F0184B2DE9F0411F6D5B6D1F40C9
S3150800253000D5FEE701260025144CDFF858803742FF
S3150800254018D02368C8F85060A3B1A168284601319D
S315080025506268A1609847637B012B0BD150B90C4B7D
S3150800256003EB45131A7B60F341021A731A7F60F373
S3150800257041021A770135082D4FEA460604F1100480
S31508002580DDD1BDE8F08100BF00000450E01D002049
S31508002590E01C0020002004502DE9F04F14460646A2
S315080025A00D469B46C36B87B001225B6902A960682A
S315080025B09847F36B01225B6903A92846984702A846
S315080025C03FF025F8074648B10023A37563754FF019
S315080025D0FF33A360002007B0BDE8F08F03A83FF0E3
S315080025E023F80123A375237E04EBC303DD611F844F
S315080025F06368AB420ED1206003A83FF037F84FF06E
S31508002600FF332075A360237D043B022B26D80023C5
S31508002610A375DFE723681A1A53425341A37503A823
S315080026203FF024F8237D834218BFA77503A83EF020
S31508002630FFFF074602A83EF0FBFF874218BF0023AC
S3150800264003A818BFA3753EF0FBFF074602A83EF095
S31508002650F7FF87421CBF0023A375D4E703A83EF003
S31508002660E7FF80B1F36B022228465B6904A9984705
S3150800267004A83EF0ECFF0346207D032839D8DFE89E
S3150800268000F03838040903A8F3E7CC22237E04EBCC
S31508002690C3031A8401F03EFC109B187003A8277E1A
S315080026A03EF0BAFF04EBC70787F82200237E03A88B
S315080026B004EBC303B3F8209093F822703EF0B8FFFA
S315080026C0804603A83EF0BCFF8246B8F1000F15D03D
S315080026D0F36B022228465B6904A9984704A83EF0D2
S315080026E07BFF6075637D6BB90023A3754FF0000807
S315080026F038E0227E04EBC2021384CBE703A83EF03F
S3150800270056FFEEE794F81680B8F1000FEED0B9F14F
S31508002710000F09D1DFB10123627EE375002A44D197
S315080027209F4218D1677614E0736C05EB0A0259428A
S3150800273085EA020008421CBF0021A175591E0A40FD
S315080027409B1A9945D0D8A37D002BE3D1CEE7E37D2C
S3150800275043B94FF000084B465246294630463EF0EC
S3150800276098FCA060A27D12B123694B4423611449E9
S31508002770237E097899421ED901332376BBF1000FCF
S315080027801BD0D2B1E37DC3B1B8F1000F15D1032F29
S3150800279013D0A1684B1C10D0109B224600933046DC
S315080027A00123FFF7F9FEA07507E0012FDAD0032F02
S315080027B008BFA376CDE70023A375A07D0BE700BF6E
S315080027C0A08005082DE9F04F0E46984600238BB0E9
S315080027D004464FF0FF31104617468DF8133001F0C6
S315080027E083FBB6F5801F3BD3B21C53D1E56A6B1C3D
S315080027F057D12046616A3EF092FB0546B31C18BFC6
S315080028000123DFF810910193636A626C02932368CF
S3150800281005A902FB053AE36B05225B695046984712
S3150800282005A83EF08FFF3EF0B2FF50463EF0BAFFD5
S315080028304FF0000B824601464B1C05D0636C81EABB
S315080028400A025B42134232D0294620463EF067FB15
S31508002850029BAB424DD0BBF1000F4DD10546D3E7E5
S31508002860314605AA04F108003EF023FE0146481C3D
S3150800287010D0384601F038FB0122394620460DF1C2
S3150800288013033EF058FC28B19DF8133088F8003041
S31508002890002003E0237C002BA8D12D200BB0BDE837
S315080028A0F08F2368ED1A636CB5FBF3F5A6E7484687
S315080028B001F01AFB0DF1130349462046019A3EF032
S315080028C03AFC034690B1B21C03D0D9F80020B242B4
S315080028D00CD19DF8132003930D4B88F80020494628
S315080028E01A6838464AF0A1FD039B9B46D9F808109A
S315080028F0A2E7BBF1000FD0D0B6F5801FC8D231468B
S3150800290098F800307A6804F1080001F01BFABFE76E
S315080029109C800508D42400202DE9F3410446174677
S3150800292098460E46194D816AE36A8B422AD04B1C9B
S3150800293018E0284601F0D8FA0122294620460DF16A
S3150800294007033EF0F8FB30B14346294620469DF87A
S315080029500720B847B0B1A9684A1C05D0012E0AD08D
S31508002960E36A9942E5D10DE0696820463EF064FBCA
S31508002970012E0146D8D16B6881EA0302636C5B427B
S315080029801A42D1D002B0BDE8F08100BFA8240020C9
S315080029902DE9F041036B9046826B07689A4288BF1F
S315080029A08363426C436A90B002FB0377C36B0E469F
S315080029B0052201A95B6904463846984701A83EF0F6
S315080029C0C1FE01280146307057D0656CE26B23685A
S315080029D0606AD2F814C005FB0030052206A9E04754
S315080029E006A83EF0AFFE01284FF0000523D0D4E933
S315080029F00A3201219342CDE90B458DF834800E95B4
S31508002A008DF83C102AD1194620463EF015FB236B5B
S31508002A10626C14339B1AE06223630C9B53B99DF8CE
S31508002A203C303BB1626A616C2368E06B01FB0231A2
S31508002A303EF040FE0C9DE36B05225B6901A9384612
S31508002A40984701A83EF07EFE30702846236BA26B9D
S31508002A509A4288BFA36310B0BDE8F081237C33B9DE
S31508002A601C490BAA04F1080001F0BAF9D5E720467B
S31508002A70194A0BABFFF750FFCFE7237C23BB22464F
S31508002A80164904F1080001F0ABF9616A20463EF0E8
S31508002A9067FA616A421C20463EF030FA054620B9BC
S31508002AA0236B626C1344143B23632046A16A3EF0F1
S31508002AB0C3FA2368A062C01A636CB0FBF3F06062C5
S31508002AC020463EF0FCFAB6E700232046044AFFF704
S31508002AD023FFDAE775340008F1330008BF1104084C
S31508002AE05B11040873B50D46D11E4A421C461B7E6F
S31508002AF04A419A4226D129682368994222D36368B3
S31508002B0099421FD8114E0DF107033246FFF75AFEB8
S31508002B10C0B972686B689A4214D19DF80730DA1EFC
S31508002B2053425341227E93420CD163690133636158
S31508002B30D4E90323934205D22968A26842F82310F0
S31508002B4001332361012002B070BD00BF00250020BB
S31508002B502DE9F04F9A468BB09DF85030DFF850B10A
S31508002B600293DBF81030804653450D461646C0F0F2
S31508002B709980D146DBF804300193B9F1000F00F0D3
S31508002B808D80D8F83C3001225B6907A901989847DF
S31508002B9007A83EF049FDDBF80030984240F08580F2
S31508002BA007A83EF04DFD0428074614D107A83EF0B5
S31508002BB04EFD019B029A04463B44002A3FD18642B9
S31508002BC012D91446361A404601993EF035FAA9EB51
S31508002BD004090190D1E7D8F83C3002225B690198D4
S31508002BE008A9984708A8E2E7841B544528BF544615
S31508002BF0032C03EB0607AAEB040A4FEA94021CD936
S31508002C00D8F83C30294638465B69984724F00303D0
S31508002C1004F003061F441D44002ED4D0D8F83C30D7
S31508002C2001225B6908A9384698473246284608A90A
S31508002C3035444AF0FAFB0026C5E72646ECE7074680
S31508002C4000F00302039203442A1804920593049B96
S31508002C50DD1B059BD81B039B9F420FD1002FB2D0CB
S31508002C60D8F83C30012208A95B6998473A462846B5
S31508002C7008A94AF08CFB78B93D44A4E7D8F83C305B
S31508002C80012208A95B6998470422284608A94AF040
S31508002C907EFB08B9043FDAE74FF0360948460BB021
S31508002CA0BDE8F08F4FF06309F8E74FF06F09F5E7D5
S31508002CB02C2500202DE9F0410F4616469846044675
S31508002CC088B060B390F83450FDB101213EF0ECF8BD
S31508002CD000210E9BCDE90511CDE902379DF83C3060
S31508002CE0CDF804808DF81C30237C04968BB90D49E9
S31508002CF001AA04F1080001F073F8DDE90553E06B59
S31508002D00002E08BF1D463EF068FA284608B0BDE802
S31508002D10F0812046044A01ABFFF7FEFDEDE70546C4
S31508002D20F3E700BF89110408E52A00087FB590F883
S31508002D304260044601920DF10B030A4630461249D9
S31508002D403EF053FA012E0546E36B19D132465B690C
S31508002D5003A998479DF80B10039B019A59B19BB29A
S31508002D6043EA0243012228460393E36B03A99B69BE
S31508002D70984704B070BD1B0C1B0492B21343F1E7CD
S31508002D8001229B6901A9F3E72C2500202DE9F04FC4
S31508002D9099B00F4609920A69416C0E931439D31DEE
S31508002DA0B3FBF1F3013302EBC302036B0446934210
S31508002DB0C0F00D820023DFF820940D93E36A48469D
S31508002DC01946079301F090F8D7E9033604930E9B4A
S31508002DD0022B4ED1CC2E40F08A81099B002B42D083
S31508002DE0394620463EF057FA656C079A6B1E134023
S31508002DF01490ED1AE36B01225B6916A97868984767
S31508002E0016A83EF015FC00280CBF04230823782ECC
S31508002E1006933DD9012300254FF0080A05933B6820
S31508002E2005990E98C9F80030C9F810603EF022FCE2
S31508002E304FEA9A0310930023DDF81CB089F81400B2
S31508002E400B930F9308930C93616C4A1E0BEA0202CC
S31508002E508B1A002E38D05544AB4240D8236B5B1AE8
S31508002E6013442363ABE0049B1B681493082306935F
S31508002E70D0E7656C079A6B1E1340782EA5EB030501
S31508002E8016D8FB7D7BB9099B002BB3D10423069387
S31508002E90331DAB4210D9A6B1082DBBD80425002393
S31508002EA0AA460593BBE7099B002BA3D10823EEE7A7
S31508002EB0099B002B9ED1D9E7002505954FF0040AFA
S31508002EC0ADE704250596F9E75345C7D3B0460BEB9E
S31508002ED00A030393089B002B18BF032313E0A3EBF5
S31508002EE00A039E42B0460BEB0A0228BF98469E424A
S31508002EF00392EFD90123D9F8102089F817309642A2
S31508002F0071D1C9F804B0089399F81730002B6CD022
S31508002F1099F818200899D31C09EBC3030132C3F8A2
S31508002F2004B0A3F80880997289F81820B8F1000F40
S31508002F3014D00E9B022B5BD10B9B7BB90F9B434492
S31508002F40032B0BD9E36B01229B69039814A99847B5
S31508002F500546002840F03D8101230B93089B16A8DF
S31508002F600193059B009399F814204346396800F0AD
S31508002F7071FFE36B58469B69109A16A99847051E78
S31508002F800D9B18BF5B4652460D935946434620464D
S31508002F903EF07FF8236B08F10302A3EB0A0322F045
S31508002FA003029B1AC9F808002363002D40F011811B
S31508002FB00F9BDDF80CB04344A6EB08060F93594661
S31508002FC020463EF039F800258346002E7FF43CAFB4
S31508002FD0814A3968936804F10800E36252680E9BD7
S31508002FE000F0B0FEDEE002238DE7C9F804B09DE7E5
S31508002FF0099B002B30D1049BB8F1030F43440A9375
S3150800300027D9DDE90301E36B4FEA98029B699847E4
S315080030100546002865D118F003025FD0049B28F006
S3150800302003052B440493039B1D444FF0FF33049977
S3150800303015A815934AF0F9F9E36B28469B6901220E
S3150800304015A9984705460A9B0493002D86D0039B2D
S3150800305099E74246039DE8E7039B0A9307F1200395
S315080030601193FB7D78689BB100233D7E0C9AD9B2FB
S315080030708D4211D9119903F1010C31F8331091429F
S3150800308026D9069907EBC303D8690A44104403E016
S315080030900C9B069A13441844E36B01225B6915A935
S315080030A09847159B012213930C9B0A9804330C939B
S315080030B0E36B13A99B699847039B0A9A43449B1A97
S315080030C0042B054607D978B9134604330A93C8E78B
S315080030D06346521ACBE70A9B0393B6E70A9B049307
S315080030E03CE70A9B0493B2E70A9B0393AFE7702673
S315080030F004F1080303932368079A606CA2EB030A9A
S31508003100BAFBF0FA00FB0A303EF04CFBE16A804657
S3150800311020463DF091FFA26A82424AD0626CD9F8F5
S315080031200830511E0B40216B2568891A0B4423630E
S315080031300D9BE0625D1BB5FBF2F5AA4536D1079BF0
S31508003140B3EB080A12D0E36B4FEA9A0241469B6931
S3150800315098478346E36A079A5344E362236B0398C6
S315080031609B1A434423633EF075F9DA462368616C7B
S31508003170E06B01FB05313EF08AFA20463DF09FFEE2
S3150800318020463DF09CFF2063BAF1000F11D03A6942
S31508003190616CD31D1439B3FBF1F3013302EBC3029F
S315080031A09042A8D2304619B0BDE8F08F4FF0000A19
S315080031B0DCE73A69616CD31D1439B3FBF1F30133CB
S315080031C002EBC302236B9342BFF4F8ADEAE71C2671
S315080031D0E8E72E468CE700BFD42400202DE9F34704
S315080031E01E4643690446B342884617469DF828900A
S315080031F03DD300258DF8075020463DF02CFED4F827
S3150800320030A082450AD2236AB5EB430F06D20022C4
S3150800321020460DF10701FFF7BBFB30B39DF80730D9
S31508003220012B05D1002220460DF10701FFF7B0FB5F
S31508003230B9F1030F06D0314620463DF0F7FD256B60
S31508003240854218D30D4D4FF0FF31284600F04CFE4D
S315080032504B46002229462046C5E90376C5F8008074
S3150800326002B0BDE8F047FFF791BD0135C4E762201B
S3150800327002B0BDE8F0871C20FAE700BF0025002051
S315080032802DE9F04790F8426086B0012E0546039175
S31508003290A1EB020715D1B7F5807F28BF03264FF0AB
S315080032A0640800244FF6FF79DFF840A195F842300C
S315080032B0012B14BF322364239C420AD35FFA88F495
S315080032C015E0B7F5803F34BF012602264FF03208D5
S315080032D0E7E705AB2246514628463DF0BAFF95F882
S315080032E04230012B059B34D14B452DD1E4B295F8DC
S315080032F04230012B0CBF64223222121BB24217D372
S31508003300012E39D10022012B05978DF8132027D1DC
S31508003310082205A90DF113003EF060FA9DF8133056
S31508003320059A42EA032221462846FFF7FFFC40B1E8
S3150800333002232E4900932846CC23096803AAFFF7DF
S315080033404DFF06B0BDE8F087DBB203B9023401349D
S31508003350ACE7591CCAD09BB2002BF8D10134F6E76A
S31508003360102205A90DF113003EF038FA9DF8133026
S31508003370059A42EA0342D6E7039A012B059223D11E
S315080033800823202205A90DF113008DF813303EF00D
S3150800339025FA9DF81320120221462846FFF7C6FC97
S315080033A095F84230611C012BC9B21AD10028BFD149
S315080033B02846BDF81420FFF7B9FC0028B8D1023416
S315080033C0BDF81620E1B2AFE71023202205A90DF1BA
S315080033D013008DF813303EF001FA9DF813201204FD
S315080033E0DAE70028A4D1059A9EE700BF2C2500201D
S315080033F0032A2DE9F34106460D4617461C4606D113
S31508003400237A012B23D0012002B0BDE8F081DFF832
S315080034106080096842460DF10703FFF7D3F960603B
S315080034200028EDD19DF80720237A032AE8D0D8F89A
S3150800343004106A689142E3D1012B2969D4F80CC0BB
S3150800344007D172690CEB0103934202D92074207CE0
S31508003450DAE708316144E1603B46012229463046F5
S31508003460FFF794FC60600028CAD00020CCE700BFB4
S31508003470002500202DE9F341089C032A17462668F3
S3150800348006D1237A012B24D0012002B0BDE8F081B1
S31508003490DFF89080304642460DF10703FFF792F9B0
S315080034A060600028EDD12568D8F80400A96AD5F827
S315080034B044C04840CCF100031840227AE1D1012AE1
S315080034C009D1E268D8F8103013447269934202D9D8
S315080034D02074207CD9E72868EB6A1B1A081AB3FB04
S315080034E0FCF3B0FBFCF083420BD1706CF36A421E0E
S315080034F01340326B121A1344284633633DF09CFD81
S31508003500E862D8F81020E36808321344E360012221
S315080035103B4604492068FFF739FC60600028B0D0B4
S315080035200020B2E7002500202DE9F04F4FF0FF33C9
S315080035304FF6FF720025044600F10806C0E9092384
S315080035408BB0C3620562056330460F463DF082FFC5
S3150800355020463DF0B4FC20BB204639463DF02FFD01
S3150800356020463DF0ACFC20BB5E200BB0BDE8F08FDA
S31508003570E26B2368606CD2F814C000FB05300522A4
S3150800358005A9E04705A83EF0DDF8012828D1294617
S3150800359020463DF0E5FC421C294620463DF0AEFC9F
S315080035A00135E3699D42E3D320463DF088FC0028B7
S315080035B0D2D000254FF0FF394FF6FF73CA46A8460A
S315080035C0C4E90853E369984514D3A5EB0905012D09
S315080035D036D84FF6FF72636A934246D16720C4E72E
S315080035E03EF0DAF80028DBD0294620463DF0B8FC44
S315080035F00246D1E72368E26B606C576900FB083026
S31508003600052205A9B84705A83EF09CF8834605A8F3
S315080036103EF06FF8074658463EF0B9F868B1574588
S3150800362038BFC4F82480B94528BFB946BD4238BF5B
S315080036303D46BA46236A0133236208F10108C1E709
S315080036404FF6FF7300256362E3699D42C1D2676C3A
S315080036502068E36B052207FB05005B6905A9984707
S3150800366005A83EF046F80135EEE7E26B676C206880
S31508003670694607FB030055690522A84768463EF0D8
S3150800368038F8626A2368606C504D00FB02303EF0E1
S3150800369089F84FF0FF33A062E3622A466FF0010112
S315080036A0204605ABFFF78EF800284FD1AD682946AE
S315080036B02046E5623DF0DFFB206320B92046E16A3B
S315080036C03DF0BAFCE062294620463DF0B5FC0546C9
S315080036D0A36A9D423CD16569626CE91C143AB1FB48
S315080036E0F2F14FF0000805EBC1050335B5FBF2F51D
S315080036F0C1460235E36999453CD3A8455AD22046C6
S31508003700616A3DF00CFC0027064604F1400AB845FC
S3150800371012D8626C2368694602FB0639E36B0522F8
S315080037205B694846984768463DF0E3FF53460246BC
S315080037304946E06B3EF038F8314620463DF0EFFB4F
S315080037400137AF420646E2D364200EE7A56AAEE724
S31508003750294620463DF08FFB236B2946034407463E
S31508003760236320463DF068FC0546002FB0D1C4E926
S315080037700B07ADE7636C2768052203FB0977E36B44
S3150800378005A95B693846984705A83DF0DBFF3DF07B
S31508003790FEFF60B138463EF005F8014620463DF08A
S315080037A06AFB636C143B984208BF08F1010809F1EB
S315080037B001099FE730463DF04DFE00232046194695
S315080037C0034AFFF7A9F80020CFE600BF002500202E
S315080037D0251104080023624A2DE9F04117680E46B0
S315080037E00446136018B921252846BDE8F08190F8EB
S315080037F034500DB309680268914240F0A980716897
S315080038004268914240F0A480B1688268914240F0D3
S315080038109F80F168C268914240F09A803169426996
S31508003820914240F09580B169C26B914240F0908018
S3150800383072691D468261D7E750222946D0F838803A
S3150800384049F0CFFDD6E90212336804F10800236077
S315080038507368C4F838806360336963617369A36108
S315080038603DF00AFEB36904F14000E3639B6898479C
S3150800387094F8432020B1E561002AB4D05B25B3E76C
S31508003880656C002DF7D06668B6FBF5F3E361002A90
S31508003890A9D0B542F2D82268B2FBF5F105FB112290
S315080038A0002A57D105FB1363002B53D120463DF060
S315080038B0D2FAA369043303449E424DD340F63472C8
S315080038C06369CC3B934249D8B5F5805FD6D30321CB
S315080038D020463DF0E9FAD4E90001E36B1B689847F6
S315080038E00546E36B0220DB6898471DB1002384F880
S315080038F034301DE039462046FFF716FE6428054693
S3150800390004D139462046FFF70FFE0546636C143B83
S31508003910002DEBD1226A204602FB03F63DF09BFA06
S31508003920A369043303449E4206D284F834505A25C8
S31508003930E06B3DF052FC57E70123D4E90001094A40
S3150800394084F834301368013313603DF02FFEEFE737
S315080039505D2549E7592547E75A2545E75F2543E7A2
S31508003960641E0020601E00202DE9FF410F46904688
S315080039701E46054698B390F8343093B3B1F5801FC8
S3150800398031D21A4C02213DF08FFA22463946284692
S315080039900DF10F03FEF716FF024678B101234246E2
S315080039A00093394633462846FFF718FC0446E86B69
S315080039B03DF013FC204604B0BDE8F0819DF80F30B9
S315080039C0012BEBD12169B142E8D100934146334638
S315080039D02846FFF7BDF804460028DFD1E7E721248B
S315080039E0E8E71124E6E72924E4E700BF2C250020B0
S315080039F02DE9FF410C4616461F46054680B390F84A
S31508003A0034307BB3B1F5801F2ED2DFF860800121F8
S31508003A103DF04AFA2146424628460DF10F03FEF7C5
S31508003A20D1FE044670B99DF80F30012B11D1D8F894
S31508003A301030BB4212D10246009031462846FFF7A5
S31508003A4087F80446E86B3DF0C8FB204604B0BDE89D
S31508003A50F081022B14BF2D246024F3E76324F1E7D9
S31508003A602124F2E71124F0E72924EEE72C2500208B
S31508003A702DE9F04385B00C4617461E460546DDF887
S31508003A80308098B390F8343093B3B1F5801F31D2B3
S31508003A90DFF8649001213DF007FA21464A46284698
S31508003AA00DF10F03FEF78EFE044688B99DF80F3018
S31508003AB0012B14D1D9F8102006EB08039A4213D328
S31508003AC000904346324639462846FFF741F80446F1
S31508003AD0E86B3DF082FB204605B0BDE8F083022B7B
S31508003AE014BF2D246024F3E76324F1E72124F2E7C9
S31508003AF01124F0E72924EEE72C25002070B586B0BE
S31508003B000E4605460392A0B390F834309BB3B1F540
S31508003B10801F32D202213DF0C7F931462846184A9D
S31508003B200DF11703FEF74EFE044618B99DF8173037
S31508003B30032B0ED10223314600932846CC2303AA31
S31508003B40FFF74CFB0446E86B3DF047FB204606B002
S31508003B5070BD022B0BD10A4928463DF09CFB039900
S31508003B6002468142EFD02846FFF78AFBEAE761243E
S31508003B70E9E72124EAE71124E8E72924E6E700BF74
S31508003B802C25002073B50C461646054630B390F82A
S31508003B9034302BB3B1F5801F24D201213DF084F9CE
S31508003BA021462846104A0DF10703FEF70BFE044688
S31508003BB080B99DF80730032B0CD0022B0CD1284670
S31508003BC009493DF068FB3060E86B3DF006FB20468E
S31508003BD002B070BD2D24F7E76124F5E72124F6E746
S31508003BE01124F4E72924F2E72C250020F7B50C4622
S31508003BF01646054668B390F8343063B3B1F5801FAE
S31508003C002BD202213DF050F921462846144A0DF1DF
S31508003C100703FEF7D7FDC0B99DF80730032B14D06C
S31508003C20022B14D10E4928463DF035FB471C0246A7
S31508003C3039462846FFF724FB044606B13760E86B89
S31508003C403DF0CBFA204603B0F0BD2D24F7E76124FA
S31508003C50F5E72124F6E71124F4E72924F2E700BF63
S31508003C602C2500202DE9F3411F4600230C46164655
S31508003C7005463B6050B390F834304BB3B1F5801F1E
S31508003C8028D2DFF8548001213DF00EF9214642463C
S31508003C9028460DF10703FEF795FD0446A0B99DF8E1
S31508003CA00730032B10D0022B0AD1012333600423DB
S31508003CB03B60E86B3DF091FA204602B0BDE8F08122
S31508003CC0D8F810303060F3E72D24F2E72124F3E723
S31508003CD01124F1E72924EFE72C25002030B50C46FE
S31508003CE0054685B028B390F8343023B3B1F5801F64
S31508003CF023D202213DF0D8F80DF10F0321462846BC
S31508003D000F4AFEF75FFD034688B99DF80F20032A80
S31508003D100DD003222146009202462846FFF75EFA96
S31508003D200446E86B3DF059FA204605B030BD2D240F
S31508003D30F7E72124F8E71124F6E72924F4E700BF7A
S31508003D402C2500202DE9F043466886B30568984679
S31508003D504FF0000CA946AE4655F83C400CF1010C54
S31508003D60C4F31307013401D0B94217D066450EF1E2
S31508003D70080EF1D12F46002403E0A64207F10807F2
S31508003D8012D055F8343001340133F6D1C1F313019A
S31508003D9041EA0851C7E90012BDE8F08341EA085133
S31508003DA0CEE90012BDE8F083B8F1030F03D1012371
S31508003DB00372BDE8F083002303E09E4209F1080977
S31508003DC0F5D055F833400133C4F30754032CF4D126
S31508003DD0C1F3130343EA0853C9E90032BDE8F08387
S31508003DE02DE9F0410646406882B0C0B10F469046BC
S31508003DF00024336853F8345003EBC403C5F3075261
S31508003E00C5F31301013504F1010406D05B68304699
S31508003E10CDF80080B84710B170688442E9D302B083
S31508003E20BDE8F081024B1968024B1868FFF7D2BC4F
S31508003E30685B0020885B002008B54BF041FD014B0C
S31508003E40186008BD58250020014B18684BF033BD93
S31508003E505825002073B504462248012A00EAC111F4
S31508003E609DF8185023F07C4007D9961E012E28D9B4
S31508003E70073303F07F03194308E09DF81C300A4313
S31508003E80DB0603F0C053134343F060410023C4E943
S31508003E9000108DF80730B5B1202221460DF1070034
S31508003EA03DF09CFC1A220DF10700211D3DF096FC01
S31508003EB0082063689DF8072043EA8263636002B0BE
S31508003EC070BD1143E2E71B220DF1070021463DF0C4
S31508003ED085FC23689DF80720042043EAC263236013
S31508003EE0EDE700BF80FFFF0738B5094B0D461A6896
S31508003EF00021044649F075FA00234FF0FF32238368
S31508003F00C4E900252361A260E382A37638BD00BF19
S31508003F109C8005080138C0B205289ABF014B185C79
S31508003F2001207047A18005082DE9F041074615468E
S31508003F3000240E46596888B0490A012922464FEAE4
S31508003F40510104F10104F8D8DC78997824031B8818
S31508003F50C90201F4006104F480540C43C3F30A0354
S31508003F605203234492B24FF000089C18274B6FEA7D
S31508003F700444039325F07843ED4302A90DF10700A5
S31508003F801B2202938DF807803DF028FC9DF8072038
S31508003F90029B02A943EAC2630DF107001B2225F022
S31508003FA07845049302958DF807803DF017FC9DF837
S31508003FB00720029B6FEA144443EAC26305934FF055
S31508003FC0FF330794069307A9BB69012206F110007F
S31508003FD09847BB6905A90446012206F108009847D7
S31508003FE0BB69404518BF044604A90122301D9847FD
S31508003FF00122404518BF0446BB69304603A99847C5
S31508004000404508BF204608B0BDE8F08101009AB2D5
S31508004010044BD3F88420D206FBD4D3F88400C0F32B
S31508004020811070470040005038B5174B0546D3F845
S3150800403028310C4603F00703013B052B20D8DFE89F
S3150800404003F003131B0F0B1749F00AFA052305B1F2
S31508004050286004B1236038BD49F002FA0623F6E762
S3150800406049F048FA0723F2E749F03AFA0323EEE75C
S3150800407049F036FA0423EAE749F02EFA0223E6E77E
S3150800408000231846E3E700BF00800050002337B539
S315080040900193164B0546D3F820320C4603F0070366
S315080040A0042B21D8DFE803F0030B11161B000123AC
S315080040B00DB1019A2A6004B1236003B030BD002116
S315080040C001A8FFF7B1FF1223F2E749F013FA072315
S315080040D00190EDE74BF0E9FB0A230190E8E749F088
S315080040E051FA09230190E3E70023E1E70080005035
S315080040F038B5104B0546D3F880300C4603F0030359
S31508004100022B0BD0032B0DD0012B0FD149F0AEF9A2
S315080041100E2305B1286004B1236038BD49F0EAF9D9
S315080041200723F6E749F09CF90623F2E70023184629
S31508004130EFE700BF0080005038B5104B0546D3F8AE
S3150800414000310C4603F00303022B0BD0032B0DD0D2
S31508004150012B0FD149F0C4F9032305B1286004B136
S31508004160236038BD49F00EFA0923F6E749F0BEF98F
S315080041700823F2E701230020EFE700BF0080005084
S3150800418038B5184B0546D3F820010C4600F0070051
S31508004190062823D8DFE800F0040A0E16121A1E00B5
S315080041A0012305B1286004B1236038BD49F058F9E8
S315080041B00523F6E749F094F90323F2E749F09AF95B
S315080041C00723EEE749F088F90223EAE749F048F9B8
S315080041D00623E6E749F084F90423E2E700231846B4
S315080041E0DFE700BF0080005038B5104B0546D3F80E
S315080041F040310C4603F00303022B0BD0032B0DD0E2
S31508004200012B0FD14BF051FB0A2305B1286004B1ED
S31508004210236038BD49F0B6F90923F6E74BF048FBA9
S315080042200C23F2E701230020EFE700BF00800050CF
S31508004230002337B50193164B0546D3F860320C4672
S3150800424003F00703013B032B1FD8DFE803F0020E38
S315080042501914002101A8FFF793FF10230DB1019A45
S315080042602A6004B1236003B030BD002101A8FFF71E
S31508004270BBFF1123F2E749F03DF907230190EDE76B
S3150800428049F02AF902230190E8E70023E6E700BF90
S3150800429000800050002337B50193164B0546D3F826
S315080042A094320C4603F00703013B032B1FD8DFE8C3
S315080042B003F0020E1914002101A8FFF761FF10236D
S315080042C00DB1019A2A6004B1236003B030BD002104
S315080042D001A8FFF789FF1123F2E749F00BF9072335
S315080042E00190EDE749F0F8F802230190E8E700238A
S315080042F0E6E700BF0080005038B5104B0546D3F8F6
S3150800430060310C4603F00303022B0BD0032B0DD0B0
S31508004310012B0FD14BF0C9FA0A2305B1286004B165
S31508004320236038BD49F02EF90923F6E74BF0C0FAA9
S315080043300C23F2E701230020EFE700BF00800050BE
S315080043402E4B98424AD022D82D4B984240D014D8AA
S315080043502C4B984239D00AD82B4B984232D02B4B4B
S3150800436098422FD02A4B98422CD000207047294BD0
S315080043709842FAD1284B186F7047284B98422AD092
S31508004380274B9842F1D1244BD3F880007047254B30
S3150800439098422BD009D8244B984223D0234B9842D5
S315080043A0E3D11D4BD3F88C007047214B984221D09E
S315080043B003F5740303F510539842D6D1164BD3F878
S315080043C098007047144B986D7047134B586E70479A
S315080043D0114B586F7047104B986F70470E4BD3F8B8
S315080043E0840070470C4BD3F8880070470A4BD3F803
S315080043F090007047084BD3F8940070470048E801CE
S315080044000024F400C0CF6A0080841E0000093D0025
S3150800441040420F00405DC6000080E00FC0EA21015F
S3150800442080BA8C01007E560380D54302006CDC02FC
S315080044300090D00373B50D460021114B0191D3F8B6
S315080044408041064604F00304022C13D0032C0CD03A
S31508004450012C13D101A8FFF793FE10240EB1019B7E
S31508004460336005B12C6002B070BD49F043F80724EB
S315080044700190F3E749F030F80190EFE70C46EDE7D5
S315080044800080005038B5104B0546D3F840320C462C
S3150800449003F00303022B0BD0032B0DD0012B0FD1F6
S315080044A04BF003FA0A2305B1286004B1236038BD2E
S315080044B049F068F80923F6E74BF0FAF90C23F2E716
S315080044C001230020EFE700BF0080005038B5144BE9
S315080044D00546D3F800020C4600F0070004281BD84E
S315080044E0DFE800F003090D111500012305B1286066
S315080044F004B1236038BD4BF0D8F90A23F6E749F032
S3150800450041F80923F2E74BF0D3F90C23EEE748F01C
S31508004510CDFF0F23800AE9E700231846E6E700BF28
S315080045200080005038B5144B0546D3F808020C46EF
S3150800453000F0070004281BD8DFE800F003090D1176
S315080045401500012305B1286004B1236038BD4BF07E
S31508004550ACF90A23F6E749F015F80923F2E74BF018
S31508004560A7F90C23EEE748F0A1FF0F23800AE9E735
S3150800457000231846E6E700BF00800050B0F5207F0C
S315080045801FD009D8B0F5007F15D003D868B1B0F5AB
S31508004590C07F0AD000200CE0B0F5607FFAD10B4B43
S315080045A0D3F88000C0F3011003E0084B186FC0F37E
S315080045B0033001307047054BD3F89000C0F3046010
S315080045C0F7E7024B186FC0F38020F2E7008000502F
S315080045D002464FF48030104B10B598660020FFF75E
S315080045E0CDFF504341F671320C4BDC69DA635A68E9
S315080045F004F4803422F4401259B90949884294BF18
S3150800460000200120000502435A600CB10022DA633B
S3150800461010BD0449F2E700BF0090005000000350A7
S31508004620005A6202002D3101430905D0012B0CD036
S31508004630022B084B18BF002300F01F0039B103F501
S315080046408053012282401A607047034BF4E703F552
S315080046500053F6E768800050648000501FB50021BB
S31508004660B0F5807F0446CDE9001100F0D2803AD833
S315080046705E2833D85E2833D8DFE800F04532323278
S3150800468032323232323232323232323232323232FC
S3150800469032323232323232323232323245AC45ACD2
S315080046A0BCBCBCBCBCACC64E6BDC4EACACAC323293
S315080046B0323232323232ACACAC7EE6AC32323232E4
S315080046C0323232323232323232BC454545E14E4E12
S315080046D0EB8D63C132323232329E4500802870D06B
S315080046E0009804B010BDB0F5D06F00F0A38035D89F
S315080046F0B0F5607F79D01AD8B0F5007F65D005D8B7
S31508004700B0F5C07FECD148F0D1FE5CE0B0F5207F73
S3150800471060D0B0F5407FE3D148F0C8FE02464FF4BA
S315080047202070FFF72BFFB2FBF0F252085BE0B0F502
S31508004730B06F69D00AD8B0F5806F5BD0B0F5A06FBE
S31508004740CED100216846FFF7A1FCC9E7B0F5C06FD6
S31508004750C6D100216846FFF747FDC1E7B0F5106FDF
S315080047606DD00ED8B0F5086F78D0B9D8B0F5E06F2F
S315080047706AD0B0F5F06FB3D100216846FFF7BCFDEB
S31508004780AEE7B0F5406F3AD013D8B0F5206F60D0D9
S31508004790B0F5286FA4D10021324B0391D3F87032BB
S315080047A003F00303012B02D103A8FFF71DFD039BAA
S315080047B039E0B0F5486F93D100216846FFF76AFDE6
S315080047C08EE748F053FE00908AE748F04FFE02460F
S315080047D0204604E048F06AFE02464FF42070FFF7D0
S315080047E0CDFEB2FBF0F200927AE701A8FFF780FC53
S315080047F0019AEDE700216846FFF7C2FC70E7002141
S315080048006846FFF711FC6BE700216846FFF712FEC2
S3150800481066E74FF0E02302911B695B0705D548F070
S3150800482045FE0290029B00935AE703A902A8FFF7E8
S31508004830DBFCF7E700216846FFF748FE50E7002152
S315080048406846FFF76FFE4BE700216846FFF71AFE3A
S3150800485046E700216846FFF7EBFC41E76846FFF7A5
S315080048606BFC3DE70080005008B58020FFF7F6FE98
S31508004870034B98429EBF4FF48032024B1A6708BD1D
S31508004880005A620200A000501FB503460020B3F587
S31508004890807F019000F0C58065D85D2B56D84C2BDB
S315080048A007D82D2B48D8232B2CD8019805B05DF8AE
S315080048B004FB4D3B102BF8D801A252F823F000BF99
S315080048C0194A0008AB480008AB480008AB4800087E
S315080048D0C7490008AB480008AB480008734A0008F7
S315080048E0E54900088B490008694A0008AB480008F2
S315080048F0AB480008AB480008AB480008AB480008BE
S315080049007D4A0008243B092BCFD801A252F823F090
S31508004910194A0008194A0008194A0008194A0008DD
S31508004920194A0008AB4800080F4A0008AB480008B7
S31508004930A74900084F4A00083D2B00F083803E2B0C
S31508004940B3D1002001A9FFF79DFDAEE7802BACD1BE
S31508004950504B1B6F03F00703013B032BA5D8DFE879
S3150800496003F0544D5052B3F5F06F6BD020D8B3F521
S31508004970B06F4CD00ED8B3F5607F71D095D3B3F530
S31508004980806F49D0B3F5A06F8FD1002001A9FFF73A
S315080049907DFB8AE7B3F5D06F59D0B3F5E06FD0D079
S315080049A0B3F5C06F81D1002001A9FFF71DFC7CE794
S315080049B0B3F5206F5DD00BD8B3F5086F4CD0B3F5BF
S315080049C0106F7FF472AF002001A9FFF7ABFD6CE70B
S315080049D0B3F5406F48D0B3F5486F4FD0B3F5286F9D
S315080049E07FF463AF2B4BD3F8703203F00303012B2C
S315080049F049D0022B0CBF1523002300E005230193A1
S31508004A0053E70323FBE70823F9E70223F7E7002028
S31508004A1001A9FFF70FFD48E7002001A9FFF7B0FB42
S31508004A2043E74FF0E02302901B695B0705D548F082
S31508004A303DFD0D230393039BE1E703A902A8FFF7B6
S31508004A40D3FBF8E7002001A9FFF756FC2DE7002065
S31508004A5001A9FFF73BFD28E701A9FFF76DFB24E74E
S31508004A6001A9FFF745FB20E7002001A9FFF7DCFABB
S31508004A701BE7002001A9FFF7DBFB16E7002001A9C9
S31508004A80FFF708FC11E7002103A8FFF7ADFB112388
S31508004A90B5E700BF008000504FF48032074B084945
S31508004AA0586E03F580535A664B6A23F001034B622E
S31508004AB0C3035CBF034B5A66704700BF00800050B3
S31508004AC000C0075000A0005038B504468020FFF704
S31508004AD0DBFE032800F083804FF48012524B4FF020
S31508004AE0A0615A6645F60E02504BC3F88020504A1C
S31508004AF091624FF4803102F5805291629A6DD20329
S31508004B00FCD4996D11F08041FBD1D4E9000212055D
S31508004B1042EA0062E07B0243207B42EA0042607B75
S31508004B2042EA0032A07B42EA80121A619869D4E907
S31508004B300452120642EA856200F000400243A07E53
S31508004B40E57E0243207E42EA0042607E42EA002277
S31508004B509A611A6AE06922F00F0242EA8502354D27
S31508004B6000283DD11A6294F82420996A94F8200006
S31508004B70D200294042EA40120A4394F8211042EA38
S31508004B80011242F480329A622B49284A936D31EA1F
S31508004B900303FBD14FF08071254881621369A5682C
S31508004BA023F4700343EA055313614FF0004383610E
S31508004BB094F822300BB9214B996294F823303BB90B
S31508004BC04FF480321D4B9A62184A936D5B00FCD4F1
S31508004BD094F825301BB1154B194AC3F8802038BD07
S31508004BE0024342F0080202281A6208D119614FF4FA
S31508004BF00852996113484FF47F413CF00DFE0B496A
S31508004C0094F822308A6A94F820001B062A4043EA60
S31508004C104013134394F8242043EAC20394F823204C
S31508004C2043EA02438B62D3E7009000500040005AE3
S31508004C300050005AC7FFFEFE030001000060005A3C
S31508004C40F1A7FFFF3440005A014B93F90000704763
S31508004C50D8630020F0B5D0E901434FF400061A4A9C
S31508004C604178057856664FF4D156022702F5B832D0
S31508004C705662164E4F2977604FF0010728BF4F211D
S31508004C8006F5805677601669F603FCD441EA0521D5
S31508004C9051611B01417B43EA04230B43017B43EA31
S31508004CA041039360C37B817B1B0143EA4113417C2B
S31508004CB00B43017C43EA41035360837C13B16FF4D1
S31508004CC0D1535362F0BD00BF00900050001002504F
S31508004CD0014B1880704700BFE2600020014B188026
S31508004CE0704700BFE06000204FF4800208B5184BFB
S31508004CF05A660223174A5360936813F48033FBD12C
S31508004D00012822D148F0ECFB134B984215D003F545
S31508004D10122303F5F863984213D0104B00EB800278
S31508004D20400AB3FBF0F3520A0A49CA620B6301232D
S31508004D304B620022074B5A6008BD45F67A13084AAB
S31508004D40F2E745F61A03074AEEE75362F1E700BFB2
S31508004D50009000500040025000F049026466666602
S31508004D60D8B80500BBCF0500B0F5207F10B50C46B6
S31508004D705DD008D8B0F5007F4ED003D8C0B1B0F5E5
S31508004D80C07F15D010BDB0F5607FFBD12C4B4C1EF3
S31508004D90D3F8FC202B4912F0807F4FEA041427D160
S31508004DA0D1F8803023F030032343C1F88030E9E797
S31508004DB03CF041FD3CF04DFD4FF48031224B214A39
S31508004DC01967136F013C23F4704343EA04331367EE
S31508004DD048F06CFB0446FFF71BF9C0F102012046B8
S31508004DE03CF031FD00F04AF8BDE81040FFF73CBD45
S31508004DF0D3F8FC2022F08072C3F8FC20D1F880207A
S31508004E0022F030022243C1F88020D3F8FC2042F079
S31508004E108072C3F8FC20B5E70A4A4C1ED2F89030D7
S31508004E2023F0F85343EA0463C2F89030AAE7054A28
S31508004E304C1E136F23F4806343EA84231367A1E7A8
S31508004E4000ED00E0008000500090005008B50121F8
S31508004E50022000F095F94FF42070FFF78FFB054B01
S31508004E6018703CF0E8FC3CF0F4FC4FF48032024B3E
S31508004E701A6708BD344D00200090005008B54FF45D
S31508004E80C070FFF7EBFBBDE808400449884294BFB1
S31508004E90012102214FF42070FFF766BF80F0FA0265
S31508004EA038B5044648F002FB0546FFF7B1F8C0F1ED
S31508004EB0020128463CF0C7FC0121002000F0A0F9B9
S31508004EC02CB1FFF7DBFFBDE83840FFF7CDBC034B3D
S31508004ED04FF420701978FFF747FFF4E7344D0020A8
S31508004EE04FF4C02270B50546FFF72AFA314B04463F
S31508004EF05A6603F598335A68012A04D12E494A603E
S31508004F005A689207FCD48020FFF7BEFC052807D113
S31508004F103CF091FC3CF09DFC4FF48032254B1A671F
S31508004F20264B24F040749D4230D0254B9D4230D00C
S31508004F3048F096FA8542064603D90121284600F02C
S31508004F405FF9204BDA6812F0060FFBD199689C606E
S31508004F509A68624012F4F81F1ED12846FCF72EFE06
S31508004F608020FFF791FC05280DD148F09FFA0446EA
S31508004F70FFF74EF8C0F1020120463CF064FCFFF74B
S31508004F807DFFFFF771FCAE420CD270BD44F0007491
S31508004F90CEE744F08074CBE780209960FFF774FC75
S31508004FA0052805D0BDE870400121002000F028B989
S31508004FB03546DAE70090005000E0015040420F0005
S31508004FC080841E0000000150304B314A984251D06F
S31508004FD020D8A3F5B703A3F55863984246D00DD851
S31508004FE02C4B984231D02C4B984239D02B4B4FF44E
S31508004FF0002198421DD00023516622E0284B4FF429
S3150800500000219842F7D1274BD3F8BC30516623F0DC
S31508005010407316E0244B984230D0244B984231D046
S31508005020234B4FF400219842E5D11E4BD3F8C830E4
S31508005030ECE71C4BD3F8A030516623F0407343F0DD
S3150800504000734FF0B442936070474FF40021154B3C
S31508005050D3F8A030516623F0407343F08073F0E72D
S31508005060104BD3F8A0304FF40021CFE70D4BD3F8FF
S31508005070B830F8E70B4BD3F8C030F4E7094BD3F850
S31508005080CC30F0E7074BD3F8D030ECE7C0EA210183
S315080050900090005080841E0000093D0040420F0029
S315080050A00024F4000080E00F0048E801005A62027C
S315080050B080BA8C01024A536B0342FCD1704700BF89
S315080050C000400950044A4178536F23F4407343EA79
S315080050D001235367704700BF004000500E4A10B5C1
S315080050E01369044643F00403136148F09DFE3CF03F
S315080050F0B5FB0A4B5B6E5B0142BF094B094AC3F815
S31508005100202430BF3CF0ABFB04F0F6FC1CB9BDE82C
S31508005110104048F0CBB910BD00ED00E0008000500B
S3150800512000E003500000FF0F0C4A10B5136904464F
S3150800513043F0040313610A4B5B6E5B0142BF094BE4
S31508005140094AC3F8202448F06FFE30BF04F0D4FCA7
S315080051501CB9BDE8104048F0A9B910BD00ED00E043
S315080051600080005000E003500000FF0F034A017959
S31508005170D36E23F030030B43D366704700400050CC
S31508005180F8B504461C4BD3F88420D106FBD4D3F8D3
S315080051908430C3F381139C422CD048F067F9012C64
S315080051A0064602D121463CF04EFB4AF089FB4FF0F9
S315080051B00072124B07465A6620463CF053FB4FF4E2
S315080051C080630D4D621E93402B676B6E9A0103D464
S315080051D0D5F884309B060AD538464AF06CFB022C73
S315080051E008D13046BDE8F84000213CF02CBBD5F884
S315080051F08430EAE7F8BD00BF004000500060005068
S3150800520010B50C4608B948F031F9074B21461B780A
S315080052103BB1064B984204D80120BDE81040FFF781
S31508005220AFBF0220F9E700BF354D0020005A6202E1
S315080052300278034B012100201A70FFF7E1BF00BF77
S31508005240354D00204FF0004238B5244B244C5A66A1
S315080052504AF6CD33656C014605F00105236428BB83
S315080052600120FFF727FF6368DB0715D51D4B58603C
S3150800527008461D4B226BD2070CD4984208D1072446
S3150800528015B1174B194A1A6444F024F9204638BD5B
S315080052900130EFE79842F2D00024F1E70132236BA0
S315080052A013F0080305D08A42F8D1E8E700220E4930
S315080052B0F5E78A42E3D020210A4A91620121A2F544
S315080052C0805251600649084A886A800603D4934288
S315080052D0D5D00133F8E79342DDE700BF00900050D0
S315080052E0004009500060095040420F003254FFFF49
S315080052F04FF0004238B5164B01465A664AF6CD338A
S31508005300144C154A656C236443780B205B0043F004
S315080053100103D363FFF7CEFE63688A7823F4F87334
S3150800532043EA02136360CA784B7943EA0223A3600F
S315080053300A798B7943EA022323610878FFF782FF0B
S31508005340EB0744BF054B236444F0C4F8012038BD7D
S315080053500090005000400950004000503254FFFFB2
S315080053604FF00042124B70B55D6E03F580535A66D6
S315080053704AF6CD3304460F4980204E6C0B64FFF77E
S3150800538099FE0B6A23F00F030F2C94BF234343F0B7
S315080053900F030B62F30744BF074B0B64002DA2BF34
S315080053A04FF00042054B5A6644F094F870BD00BFB2
S315080053B000800050004009503254FFFF00A0005002
S315080053C04FF00042104B70B55D6E03F580535A6678
S315080053D04AF6CD3304460D4980204E6C0B64FFF720
S315080053E069FE0B6A23F4F85343EA04230B62F307B6
S315080053F044BF074B0B64002DA2BF4FF00042054B7C
S315080054005A6644F067F870BD0080005000400950A5
S315080054103254FFFF00A0005010B53CF028FA0423D0
S3150800542000F5805100F500520B6113610B611361A1
S315080054300B6113610B611361202341F202010361C1
S315080054400023C360836041614FF4A02183618365B3
S3150800545041620549C36103628362C36243630365AC
S31508005460D164036310BD00BFFF3F0D0370B5054649
S315080054701446084641B9354B9D4218D0344B9D42D7
S3150800548008BF5720FFF7EAF8AB6813F0010F6B68FF
S3150800549030D0B0FBF4F4D80704F1FF344FEA0464C3
S315080054A007D42B6923F07F4323432B6170BD562015
S315080054B0E8E7282128463CF0D6F9AB6C990715D1C0
S315080054C0AB6CDA0714D4AB6C13F0020F14BF0626C4
S315080054D0002628463CF0CBF92B69314623F07F435A
S315080054E023432B61BDE870403CF0F8B90526F0E788
